{
  "transactions": [
    {
      "hash": "0xbe4efa937cd006f1806618f4fc893c5b2edf8aa261589934aeaffa654925c01d",
      "transactionType": "CALL",
      "contractName": null,
      "contractAddress": "0xd163189d9add5ee1b740846e2b736823aa8d069c",
      "function": "setAttestationsEid(uint32)",
      "arguments": [
        "40245"
      ],
      "transaction": {
        "from": "0xb0efd2b19a5698a9c830548ac22708a28c9d4552",
        "to": "0xd163189d9add5ee1b740846e2b736823aa8d069c",
        "gas": "0xf82e",
        "value": "0x0",
        "input": "0x1f6a64770000000000000000000000000000000000000000000000000000000000009d35",
        "nonce": "0xe",
        "chainId": "0x128"
      },
      "additionalContracts": [],
      "isFixedGasLimit": false
    },
    {
      "hash": "0x9c56413b5d28650a012731c6121f9b1a43e895bdd196f4a426e672fd35a16940",
      "transactionType": "CALL",
      "contractName": null,
      "contractAddress": "0xd163189d9add5ee1b740846e2b736823aa8d069c",
      "function": "setPeer(uint32,bytes32)",
      "arguments": [
        "40245",
        "0x000000000000000000000000053d81199c95e265f2e369e4afc4b30eb8b228c3"
      ],
      "transaction": {
        "from": "0xb0efd2b19a5698a9c830548ac22708a28c9d4552",
        "to": "0xd163189d9add5ee1b740846e2b736823aa8d069c",
        "gas": "0x10205",
        "value": "0x0",
        "input": "0x3400288b0000000000000000000000000000000000000000000000000000000000009d35000000000000000000000000053d81199c95e265f2e369e4afc4b30eb8b228c3",
        "nonce": "0xf",
        "chainId": "0x128"
      },
      "additionalContracts": [],
      "isFixedGasLimit": false
    }
  ],
  "receipts": [
    {
      "status": "0x1",
      "cumulativeGasUsed": "0x194f7",
      "logs": [],
      "logsBloom": "0x00000000000000000000000000000000000000000000000000000000000000000000000000000000000000000000000000000000000000000000000000000000000000000000000000000000000000000000000000000000000000000000000000000000000000000000000000000000000000000000000000000000000000000000000000000000000000000000000000000000000000000000000000000000000000000000000000000000000000000000000000000000000000000000000000000000000000000000000000000000000000000000000000000000000000000000000000000000000000000000000000000000000000000000000000000000",
      "type": "0x2",
      "transactionHash": "0xbe4efa937cd006f1806618f4fc893c5b2edf8aa261589934aeaffa654925c01d",
      "transactionIndex": "0x4",
      "blockHash": "0xf8d449bc4d851cfac016997dbd9a9163de01d0d6368aee256e1c9bb05e62a368",
      "blockNumber": "0x8701e3",
      "gasUsed": "0xc68c",
      "effectiveGasPrice": "0x1a7c0741800",
      "from": "0xb0efd2b19a5698a9c830548ac22708a28c9d4552",
      "to": "0xd163189d9add5ee1b740846e2b736823aa8d069c",
      "contractAddress": "0xd163189d9add5ee1b740846e2b736823aa8d069c",
      "root": "0x56e81f171bcc55a6ff8345e692c0f86e5b48e01b996cadc001622fb5e363b421"
    },
    {
      "status": "0x1",
      "cumulativeGasUsed": "0x194f7",
      "logs": [
        {
          "address": "0xd163189d9add5ee1b740846e2b736823aa8d069c",
          "topics": [
            "0x238399d427b947898edb290f5ff0f9109849b1c3ba196a42e35f00c50a54b98b"
          ],
          "data": "0x0000000000000000000000000000000000000000000000000000000000009d35000000000000000000000000053d81199c95e265f2e369e4afc4b30eb8b228c3",
          "blockHash": "0xf8d449bc4d851cfac016997dbd9a9163de01d0d6368aee256e1c9bb05e62a368",
          "blockNumber": "0x8701e3",
          "transactionHash": "0x9c56413b5d28650a012731c6121f9b1a43e895bdd196f4a426e672fd35a16940",
          "transactionIndex": "0x5",
          "logIndex": "0x0",
          "removed": false
        }
      ],
      "logsBloom": "0x00000000000000000000000000000000000000000000000000000000000000000000000000000000000000000000000000000000000000000800000000000000200000000000000000000000000000000000000000000000000000000000000000000000000000000000000000004000000000000000000000000000000000000000000000000000000000100000000000000000000000000000000000000000000000000000000000000000000000000000000000000000000002000000000000000000000000000000000000000000000000000000000000040000000000000000000000000000000000000000000000000000000000000000000000000000",
      "type": "0x2",
      "transactionHash": "0x9c56413b5d28650a012731c6121f9b1a43e895bdd196f4a426e672fd35a16940",
      "transactionIndex": "0x5",
      "blockHash": "0xf8d449bc4d851cfac016997dbd9a9163de01d0d6368aee256e1c9bb05e62a368",
      "blockNumber": "0x8701e3",
      "gasUsed": "0xce6b",
      "effectiveGasPrice": "0x1a7c0741800",
      "from": "0xb0efd2b19a5698a9c830548ac22708a28c9d4552",
      "to": "0xd163189d9add5ee1b740846e2b736823aa8d069c",
      "contractAddress": "0xd163189d9add5ee1b740846e2b736823aa8d069c",
      "root": "0x56e81f171bcc55a6ff8345e692c0f86e5b48e01b996cadc001622fb5e363b421"
    }
  ],
  "libraries": [],
  "pending": [],
  "returns": {},
  "timestamp": 1725654832,
  "chain": 296,
  "commit": "37e882d"
}