{
  "transactions": [
    {
      "hash": "0x0dca6db7b4e518bff2fd9f0bddab88fdf2a4e9c7c6df6161a01a5d29c39a34c0",
      "transactionType": "CALL",
      "contractName": null,
      "contractAddress": "0x58e294d6b380552c0cd1c6fed755e2260342b12f",
      "function": "setAttestationsEid(uint32)",
      "arguments": [
        "40245"
      ],
      "transaction": {
        "from": "0xb0efd2b19a5698a9c830548ac22708a28c9d4552",
        "to": "0x58e294d6b380552c0cd1c6fed755e2260342b12f",
        "gas": "0xf82e",
        "value": "0x0",
        "input": "0x1f6a64770000000000000000000000000000000000000000000000000000000000009d35",
        "nonce": "0x19",
        "chainId": "0x128"
      },
      "additionalContracts": [],
      "isFixedGasLimit": false
    },
    {
      "hash": "0x551806f310331a5388050238152c4712beb8903270de53a856e02820eef41b93",
      "transactionType": "CALL",
      "contractName": null,
      "contractAddress": "0x58e294d6b380552c0cd1c6fed755e2260342b12f",
      "function": "setPeer(uint32,bytes32)",
      "arguments": [
        "40245",
        "0x0000000000000000000000003f8ad995e6205c8761a8514d3fec8797e69698d9"
      ],
      "transaction": {
        "from": "0xb0efd2b19a5698a9c830548ac22708a28c9d4552",
        "to": "0x58e294d6b380552c0cd1c6fed755e2260342b12f",
        "gas": "0x10205",
        "value": "0x0",
        "input": "0x3400288b0000000000000000000000000000000000000000000000000000000000009d350000000000000000000000003f8ad995e6205c8761a8514d3fec8797e69698d9",
        "nonce": "0x1a",
        "chainId": "0x128"
      },
      "additionalContracts": [],
      "isFixedGasLimit": false
    }
  ],
  "receipts": [
    {
      "status": "0x1",
      "cumulativeGasUsed": "0x194f7",
      "logs": [],
      "logsBloom": "0x00000000000000000000000000000000000000000000000000000000000000000000000000000000000000000000000000000000000000000000000000000000000000000000000000000000000000000000000000000000000000000000000000000000000000000000000000000000000000000000000000000000000000000000000000000000000000000000000000000000000000000000000000000000000000000000000000000000000000000000000000000000000000000000000000000000000000000000000000000000000000000000000000000000000000000000000000000000000000000000000000000000000000000000000000000000",
      "type": "0x2",
      "transactionHash": "0x0dca6db7b4e518bff2fd9f0bddab88fdf2a4e9c7c6df6161a01a5d29c39a34c0",
      "transactionIndex": "0x3",
      "blockHash": "0x280581cb7f77548fb55febbaff70d419d2639c23c80bdebd549549d9e668c060",
      "blockNumber": "0x870673",
      "gasUsed": "0xc68c",
      "effectiveGasPrice": "0x1a7c0741800",
      "from": "0xb0efd2b19a5698a9c830548ac22708a28c9d4552",
      "to": "0x58e294d6b380552c0cd1c6fed755e2260342b12f",
      "contractAddress": "0x58e294d6b380552c0cd1c6fed755e2260342b12f",
      "root": "0x56e81f171bcc55a6ff8345e692c0f86e5b48e01b996cadc001622fb5e363b421"
    },
    {
      "status": "0x1",
      "cumulativeGasUsed": "0x194f7",
      "logs": [
        {
          "address": "0x58e294d6b380552c0cd1c6fed755e2260342b12f",
          "topics": [
            "0x238399d427b947898edb290f5ff0f9109849b1c3ba196a42e35f00c50a54b98b"
          ],
          "data": "0x0000000000000000000000000000000000000000000000000000000000009d350000000000000000000000003f8ad995e6205c8761a8514d3fec8797e69698d9",
          "blockHash": "0x280581cb7f77548fb55febbaff70d419d2639c23c80bdebd549549d9e668c060",
          "blockNumber": "0x870673",
          "transactionHash": "0x551806f310331a5388050238152c4712beb8903270de53a856e02820eef41b93",
          "transactionIndex": "0x4",
          "logIndex": "0x0",
          "removed": false
        }
      ],
      "logsBloom": "0x00000000000000000000000000000000000000000000000000000000000000000000000000000000000000000000000000000000000000000800000000000000000008000000000000000000000000000000000000000000000000000000000000000000000000000000000000000000000000000000000000000000000000000000000000000000000000000000000000000000000000000000000000000000000000000000000000000000000000000000000000000000000002000000000000000000000000000000000000000000000000000000000000060000000000000000000000000000000000000000000000000000000000000000008000000000",
      "type": "0x2",
      "transactionHash": "0x551806f310331a5388050238152c4712beb8903270de53a856e02820eef41b93",
      "transactionIndex": "0x4",
      "blockHash": "0x280581cb7f77548fb55febbaff70d419d2639c23c80bdebd549549d9e668c060",
      "blockNumber": "0x870673",
      "gasUsed": "0xce6b",
      "effectiveGasPrice": "0x1a7c0741800",
      "from": "0xb0efd2b19a5698a9c830548ac22708a28c9d4552",
      "to": "0x58e294d6b380552c0cd1c6fed755e2260342b12f",
      "contractAddress": "0x58e294d6b380552c0cd1c6fed755e2260342b12f",
      "root": "0x56e81f171bcc55a6ff8345e692c0f86e5b48e01b996cadc001622fb5e363b421"
    }
  ],
  "libraries": [],
  "pending": [],
  "returns": {},
  "timestamp": 1725657202,
  "chain": 296,
  "commit": "37e882d"
}