{
  "transactions": [
    {
      "hash": "0xbcc521e4136a49378108d49fb86261cf974f04513c0780f26805af8ed8a90b42",
      "transactionType": "CALL",
      "contractName": null,
      "contractAddress": "0x787e51491f5cc4b2b99bc3f931a9f2199f072e1e",
      "function": "setPeer(uint32,bytes32)",
      "arguments": [
        "40245",
        "0x0000000000000000000000004be0e2e1d25df4fc983cf736c17730324ae01cb8"
      ],
      "transaction": {
        "from": "0x12b2434a1022d5787bf06056f2885fe35de62bf8",
        "to": "0x787e51491f5cc4b2b99bc3f931a9f2199f072e1e",
        "gas": "0x10014",
        "value": "0x0",
        "input": "0x3400288b0000000000000000000000000000000000000000000000000000000000009d350000000000000000000000004be0e2e1d25df4fc983cf736c17730324ae01cb8",
        "nonce": "0x36",
        "chainId": "0xaa36a7"
      },
      "additionalContracts": [],
      "isFixedGasLimit": false
    }
  ],
  "receipts": [
    {
      "status": "0x1",
      "cumulativeGasUsed": "0x17302cb",
      "logs": [
        {
          "address": "0x787e51491f5cc4b2b99bc3f931a9f2199f072e1e",
          "topics": [
            "0x238399d427b947898edb290f5ff0f9109849b1c3ba196a42e35f00c50a54b98b"
          ],
          "data": "0x0000000000000000000000000000000000000000000000000000000000009d350000000000000000000000004be0e2e1d25df4fc983cf736c17730324ae01cb8",
          "blockHash": "0x81c0b1678edb276b770e3b6b6a14e503be239f6c067e2500500df20ebce78416",
          "blockNumber": "0x653033",
          "transactionHash": "0xbcc521e4136a49378108d49fb86261cf974f04513c0780f26805af8ed8a90b42",
          "transactionIndex": "0x8e",
          "logIndex": "0xf3",
          "removed": false
        }
      ],
      "logsBloom": "0x00000000000000000000000000000000000000000000000000000000000000000000000000000000000000000000000000000000000000000800000000000000000000000000000000000000002000000000000000000000000000000000000000000000000000000000000000000000000000000000000000000000000000000000000000000000000000000000000000000000000000000000000000000000000000000000000000000000000000000000000000000000000002000000000000000000000000000000008000000000000000000000000000040000000000000000000000000000000000000000000008000000000000000000000000000000",
      "type": "0x2",
      "transactionHash": "0xbcc521e4136a49378108d49fb86261cf974f04513c0780f26805af8ed8a90b42",
      "transactionIndex": "0x8e",
      "blockHash": "0x81c0b1678edb276b770e3b6b6a14e503be239f6c067e2500500df20ebce78416",
      "blockNumber": "0x653033",
      "gasUsed": "0xb966",
      "effectiveGasPrice": "0xa74b49abd",
      "from": "0x12b2434a1022d5787bf06056f2885fe35de62bf8",
      "to": "0x787e51491f5cc4b2b99bc3f931a9f2199f072e1e",
      "contractAddress": null
    }
  ],
  "libraries": [],
  "pending": [],
  "returns": {},
  "timestamp": 1725455949,
  "chain": 11155111,
  "commit": "da4a4b9"
}