{
  "transactions": [
    {
      "hash": "0xcd64b0f34c40ec4e9d64af93a035c0751c592dd387b71c0c788ee8818397f7f3",
      "transactionType": "CALL",
      "contractName": null,
      "contractAddress": "0xe473effdc30edbfb68990a517a21307d287ccbb3",
      "function": "setPeer(uint32,bytes32)",
      "arguments": [
        "40245",
        "0x000000000000000000000000aad1191f2ef0c86f7c9faebfc4c2142dd4485055"
      ],
      "transaction": {
        "from": "0x12b2434a1022d5787bf06056f2885fe35de62bf8",
        "to": "0xe473effdc30edbfb68990a517a21307d287ccbb3",
        "gas": "0x10014",
        "value": "0x0",
        "input": "0x3400288b0000000000000000000000000000000000000000000000000000000000009d35000000000000000000000000aad1191f2ef0c86f7c9faebfc4c2142dd4485055",
        "nonce": "0x38",
        "chainId": "0xaa36a7"
      },
      "additionalContracts": [],
      "isFixedGasLimit": false
    }
  ],
  "receipts": [
    {
      "status": "0x1",
      "cumulativeGasUsed": "0x14ceff4",
      "logs": [
        {
          "address": "0xe473effdc30edbfb68990a517a21307d287ccbb3",
          "topics": [
            "0x238399d427b947898edb290f5ff0f9109849b1c3ba196a42e35f00c50a54b98b"
          ],
          "data": "0x0000000000000000000000000000000000000000000000000000000000009d35000000000000000000000000aad1191f2ef0c86f7c9faebfc4c2142dd4485055",
          "blockHash": "0x97e631c273d589ec5cf9deeebcdba50b0c2b5c645b31a3e98aefce41f7173ab3",
          "blockNumber": "0x65308e",
          "transactionHash": "0xcd64b0f34c40ec4e9d64af93a035c0751c592dd387b71c0c788ee8818397f7f3",
          "transactionIndex": "0x78",
          "logIndex": "0xc7",
          "removed": false
        }
      ],
      "logsBloom": "0x00000000000000000000000000000000000000000000000000000000000000000000000000000000000000000000000000000000000000000800000000000000000000000000000000001000000000000000000000000000000000000000000000000000000000000000000000000000000000000000000000000000000000000000000000000000000000000000000000000000000000000000000000000000000000000000000000000000000000000000000000040000000002000000000000000000000000000000000000000000000000000000000000040000000000000000000000000000000000000000000000000000000000000000000000000002",
      "type": "0x2",
      "transactionHash": "0xcd64b0f34c40ec4e9d64af93a035c0751c592dd387b71c0c788ee8818397f7f3",
      "transactionIndex": "0x78",
      "blockHash": "0x97e631c273d589ec5cf9deeebcdba50b0c2b5c645b31a3e98aefce41f7173ab3",
      "blockNumber": "0x65308e",
      "gasUsed": "0xb966",
      "effectiveGasPrice": "0xb611e5d05",
      "from": "0x12b2434a1022d5787bf06056f2885fe35de62bf8",
      "to": "0xe473effdc30edbfb68990a517a21307d287ccbb3",
      "contractAddress": null
    }
  ],
  "libraries": [],
  "pending": [],
  "returns": {},
  "timestamp": 1725457289,
  "chain": 11155111,
  "commit": "da4a4b9"
}