{
  "transactions": [
    {
      "hash": "0xa7a7d4cc829c30086227cbbfc342aaa0b850afd8b0e259a6d6a83cf6056428bd",
      "transactionType": "CALL",
      "contractName": null,
      "contractAddress": "0x73ff31a6d2f86b96d9b2d929c1c849595fcb20ce",
      "function": "setPeer(uint32,bytes32)",
      "arguments": [
        "40232",
        "0x00000000000000000000000058e294d6b380552c0cd1c6fed755e2260342b12f"
      ],
      "transaction": {
        "from": "0xb0efd2b19a5698a9c830548ac22708a28c9d4552",
        "to": "0x73ff31a6d2f86b96d9b2d929c1c849595fcb20ce",
        "gas": "0x10f87",
        "value": "0x0",
        "input": "0x3400288b0000000000000000000000000000000000000000000000000000000000009d2800000000000000000000000058e294d6b380552c0cd1c6fed755e2260342b12f",
        "nonce": "0x64",
        "chainId": "0x14a34"
      },
      "additionalContracts": [],
      "isFixedGasLimit": false
    },
    {
      "hash": "0x4d914185ed988c502fc296dca691cbc6e79a54ec5528a86d5caa1c7238de26ce",
      "transactionType": "CALL",
      "contractName": null,
      "contractAddress": "0x73ff31a6d2f86b96d9b2d929c1c849595fcb20ce",
      "function": "setComposerEid(uint32)",
      "arguments": [
        "40232"
      ],
      "transaction": {
        "from": "0xb0efd2b19a5698a9c830548ac22708a28c9d4552",
        "to": "0x73ff31a6d2f86b96d9b2d929c1c849595fcb20ce",
        "gas": "0xf9e7",
        "value": "0x0",
        "input": "0xd30fce920000000000000000000000000000000000000000000000000000000000009d28",
        "nonce": "0x65",
        "chainId": "0x14a34"
      },
      "additionalContracts": [],
      "isFixedGasLimit": false
    }
  ],
  "receipts": [
    {
      "status": "0x1",
      "cumulativeGasUsed": "0x387230",
      "logs": [
        {
          "address": "0x73ff31a6d2f86b96d9b2d929c1c849595fcb20ce",
          "topics": [
            "0x238399d427b947898edb290f5ff0f9109849b1c3ba196a42e35f00c50a54b98b"
          ],
          "data": "0x0000000000000000000000000000000000000000000000000000000000009d2800000000000000000000000058e294d6b380552c0cd1c6fed755e2260342b12f",
          "blockHash": "0xf2d5d48d05a3bca0271832759dc95a8914c95af46b0ca5cd9643c7cc45c85b4e",
          "blockNumber": "0xe2ebde",
          "transactionHash": "0xa7a7d4cc829c30086227cbbfc342aaa0b850afd8b0e259a6d6a83cf6056428bd",
          "transactionIndex": "0xd",
          "logIndex": "0x42",
          "removed": false
        }
      ],
      "logsBloom": "0x00000000000000000000000000000000000000000000000000000000000000000000000000000000000000000000000000000000000000000800000000000000000000000001000000000000000000000000000000000000000000000000000000000000000000000000000000000000000000000000002000000000000000000000000000000000000000000000000000000000000000000000000000000000000000000000000000000000000000000000000000000000000002000000000000000000000000000000000000000000000000000000000000040000000000000000000000000000000000000000000000000000000040000000000000000000",
      "type": "0x2",
      "transactionHash": "0xa7a7d4cc829c30086227cbbfc342aaa0b850afd8b0e259a6d6a83cf6056428bd",
      "transactionIndex": "0xd",
      "blockHash": "0xf2d5d48d05a3bca0271832759dc95a8914c95af46b0ca5cd9643c7cc45c85b4e",
      "blockNumber": "0xe2ebde",
      "gasUsed": "0xb9a9",
      "effectiveGasPrice": "0x865a6",
      "from": "0xb0efd2b19a5698a9c830548ac22708a28c9d4552",
      "to": "0x73ff31a6d2f86b96d9b2d929c1c849595fcb20ce",
      "contractAddress": null,
      "l1BaseFeeScalar": "0x44d",
      "l1BlobBaseFee": "0x36f2b31b51",
      "l1BlobBaseFeeScalar": "0xa118b",
      "l1Fee": "0xe2ff8f14cff",
      "l1GasPrice": "0x387edb2a7",
      "l1GasUsed": "0x640"
    },
    {
      "status": "0x1",
      "cumulativeGasUsed": "0x39271e",
      "logs": [],
      "logsBloom": "0x00000000000000000000000000000000000000000000000000000000000000000000000000000000000000000000000000000000000000000000000000000000000000000000000000000000000000000000000000000000000000000000000000000000000000000000000000000000000000000000000000000000000000000000000000000000000000000000000000000000000000000000000000000000000000000000000000000000000000000000000000000000000000000000000000000000000000000000000000000000000000000000000000000000000000000000000000000000000000000000000000000000000000000000000000000000",
      "type": "0x2",
      "transactionHash": "0x4d914185ed988c502fc296dca691cbc6e79a54ec5528a86d5caa1c7238de26ce",
      "transactionIndex": "0xe",
      "blockHash": "0xf2d5d48d05a3bca0271832759dc95a8914c95af46b0ca5cd9643c7cc45c85b4e",
      "blockNumber": "0xe2ebde",
      "gasUsed": "0xb4ee",
      "effectiveGasPrice": "0x865a6",
      "from": "0xb0efd2b19a5698a9c830548ac22708a28c9d4552",
      "to": "0x73ff31a6d2f86b96d9b2d929c1c849595fcb20ce",
      "contractAddress": null,
      "l1BaseFeeScalar": "0x44d",
      "l1BlobBaseFee": "0x36f2b31b51",
      "l1BlobBaseFeeScalar": "0xa118b",
      "l1Fee": "0xe2ff8f14cff",
      "l1GasPrice": "0x387edb2a7",
      "l1GasUsed": "0x640"
    }
  ],
  "libraries": [],
  "pending": [],
  "returns": {},
  "timestamp": 1725511330,
  "chain": 84532,
  "commit": "8370d5b"
}