{
  "transactions": [
    {
      "hash": "0x9f40de20cca505a041e90529699d569152e7726bfee3601e877d65c3a93fe2be",
      "transactionType": "CALL",
      "contractName": null,
      "contractAddress": "0x5713f4ea2591f1bca73a49c206bcccc243a1bfb4",
      "function": "setPeer(uint32,bytes32)",
      "arguments": [
        "40232",
        "0x000000000000000000000000881e8454bbb85ed10d9c73969e528bc1bb5f83b0"
      ],
      "transaction": {
        "from": "0xb0efd2b19a5698a9c830548ac22708a28c9d4552",
        "to": "0x5713f4ea2591f1bca73a49c206bcccc243a1bfb4",
        "gas": "0x10f7c",
        "value": "0x0",
        "input": "0x3400288b0000000000000000000000000000000000000000000000000000000000009d28000000000000000000000000881e8454bbb85ed10d9c73969e528bc1bb5f83b0",
        "nonce": "0x86",
        "chainId": "0x14a34"
      },
      "additionalContracts": [],
      "isFixedGasLimit": false
    },
    {
      "hash": "0x489c9f5d03b37e7d73a00bf90ae759a7f9f01b21bc48b75dd45ed90b587230c3",
      "transactionType": "CALL",
      "contractName": null,
      "contractAddress": "0x5713f4ea2591f1bca73a49c206bcccc243a1bfb4",
      "function": "setComposerEid(uint32)",
      "arguments": [
        "40232"
      ],
      "transaction": {
        "from": "0xb0efd2b19a5698a9c830548ac22708a28c9d4552",
        "to": "0x5713f4ea2591f1bca73a49c206bcccc243a1bfb4",
        "gas": "0xf96e",
        "value": "0x0",
        "input": "0xd30fce920000000000000000000000000000000000000000000000000000000000009d28",
        "nonce": "0x87",
        "chainId": "0x14a34"
      },
      "additionalContracts": [],
      "isFixedGasLimit": false
    }
  ],
  "receipts": [
    {
      "status": "0x1",
      "cumulativeGasUsed": "0x7e8456",
      "logs": [
        {
          "address": "0x5713f4ea2591f1bca73a49c206bcccc243a1bfb4",
          "topics": [
            "0x238399d427b947898edb290f5ff0f9109849b1c3ba196a42e35f00c50a54b98b"
          ],
          "data": "0x0000000000000000000000000000000000000000000000000000000000009d28000000000000000000000000881e8454bbb85ed10d9c73969e528bc1bb5f83b0",
          "blockHash": "0xd42112cbf75d6f00238b41951ee61233d619a7805c54a109a15806fc505446c4",
          "blockNumber": "0xe303fe",
          "transactionHash": "0x9f40de20cca505a041e90529699d569152e7726bfee3601e877d65c3a93fe2be",
          "transactionIndex": "0x8",
          "logIndex": "0xc",
          "removed": false
        }
      ],
      "logsBloom": "0x00000000000000000000000000000000000000000000000000000000000000000000000000000000000000000000000000000000000000000800000000000000000000000000000000000000000000000000000000000000000000000000000000000000000000000000000000000000000000000000000000000000000000800000000000000000000000000000000000020000000000000000000000000000000000000000000000000000000000000000000000000000000002000000000000000000000000000000000000000000000000000000000000040000000000000002000000000000000000000000000000000000000000000000000000000000",
      "type": "0x2",
      "transactionHash": "0x9f40de20cca505a041e90529699d569152e7726bfee3601e877d65c3a93fe2be",
      "transactionIndex": "0x8",
      "blockHash": "0xd42112cbf75d6f00238b41951ee61233d619a7805c54a109a15806fc505446c4",
      "blockNumber": "0xe303fe",
      "gasUsed": "0xb9a2",
      "effectiveGasPrice": "0x187c0",
      "from": "0xb0efd2b19a5698a9c830548ac22708a28c9d4552",
      "to": "0x5713f4ea2591f1bca73a49c206bcccc243a1bfb4",
      "contractAddress": null,
      "l1BaseFeeScalar": "0x44d",
      "l1BlobBaseFee": "0xf44727f93e",
      "l1BlobBaseFeeScalar": "0xa118b",
      "l1Fee": "0x3f1299eaa646",
      "l1GasPrice": "0xfd5eb6996",
      "l1GasUsed": "0x640"
    },
    {
      "status": "0x1",
      "cumulativeGasUsed": "0x7f38ec",
      "logs": [],
      "logsBloom": "0x00000000000000000000000000000000000000000000000000000000000000000000000000000000000000000000000000000000000000000000000000000000000000000000000000000000000000000000000000000000000000000000000000000000000000000000000000000000000000000000000000000000000000000000000000000000000000000000000000000000000000000000000000000000000000000000000000000000000000000000000000000000000000000000000000000000000000000000000000000000000000000000000000000000000000000000000000000000000000000000000000000000000000000000000000000000",
      "type": "0x2",
      "transactionHash": "0x489c9f5d03b37e7d73a00bf90ae759a7f9f01b21bc48b75dd45ed90b587230c3",
      "transactionIndex": "0x9",
      "blockHash": "0xd42112cbf75d6f00238b41951ee61233d619a7805c54a109a15806fc505446c4",
      "blockNumber": "0xe303fe",
      "gasUsed": "0xb496",
      "effectiveGasPrice": "0x187c0",
      "from": "0xb0efd2b19a5698a9c830548ac22708a28c9d4552",
      "to": "0x5713f4ea2591f1bca73a49c206bcccc243a1bfb4",
      "contractAddress": null,
      "l1BaseFeeScalar": "0x44d",
      "l1BlobBaseFee": "0xf44727f93e",
      "l1BlobBaseFeeScalar": "0xa118b",
      "l1Fee": "0x3f1299eaa646",
      "l1GasPrice": "0xfd5eb6996",
      "l1GasUsed": "0x640"
    }
  ],
  "libraries": [],
  "pending": [],
  "returns": {},
  "timestamp": 1725523681,
  "chain": 84532,
  "commit": "8370d5b"
}