{
  "transactions": [
    {
      "hash": "0x1a754e574a4e7802ddc76b3297b70c32d31c7069eca262deee0140d175614656",
      "transactionType": "CALL",
      "contractName": null,
      "contractAddress": "0x85482d447fad3820477611baf3eb52ed209323d1",
      "function": "setPeer(uint32,bytes32)",
      "arguments": [
        "40232",
        "0x00000000000000000000000089ad215ef488e254b804162c83d6bc7de0e1519c"
      ],
      "transaction": {
        "from": "0x12b2434a1022d5787bf06056f2885fe35de62bf8",
        "to": "0x85482d447fad3820477611baf3eb52ed209323d1",
        "gas": "0x10f66",
        "value": "0x0",
        "input": "0x3400288b0000000000000000000000000000000000000000000000000000000000009d2800000000000000000000000089ad215ef488e254b804162c83d6bc7de0e1519c",
        "nonce": "0xa5",
        "chainId": "0x14a34"
      },
      "additionalContracts": [],
      "isFixedGasLimit": false
    },
    {
      "hash": "0x9a87e71101a512ab801d452cfdea5a502e518c81e5b5fb0bf89f6d3466beec1a",
      "transactionType": "CALL",
      "contractName": null,
      "contractAddress": "0x85482d447fad3820477611baf3eb52ed209323d1",
      "function": "setComposerEid(uint32)",
      "arguments": [
        "40232"
      ],
      "transaction": {
        "from": "0x12b2434a1022d5787bf06056f2885fe35de62bf8",
        "to": "0x85482d447fad3820477611baf3eb52ed209323d1",
        "gas": "0xf96e",
        "value": "0x0",
        "input": "0xd30fce920000000000000000000000000000000000000000000000000000000000009d28",
        "nonce": "0xa6",
        "chainId": "0x14a34"
      },
      "additionalContracts": [],
      "isFixedGasLimit": false
    }
  ],
  "receipts": [
    {
      "status": "0x1",
      "cumulativeGasUsed": "0x6d968",
      "logs": [
        {
          "address": "0x85482d447fad3820477611baf3eb52ed209323d1",
          "topics": [
            "0x238399d427b947898edb290f5ff0f9109849b1c3ba196a42e35f00c50a54b98b"
          ],
          "data": "0x0000000000000000000000000000000000000000000000000000000000009d2800000000000000000000000089ad215ef488e254b804162c83d6bc7de0e1519c",
          "blockHash": "0xbc0300c1dcc0ed616f6d4acbd3a5d57656a369cf7f723d0ebe6c3cb1c3ed7d48",
          "blockNumber": "0xe3328c",
          "transactionHash": "0x1a754e574a4e7802ddc76b3297b70c32d31c7069eca262deee0140d175614656",
          "transactionIndex": "0x3",
          "logIndex": "0x2",
          "removed": false
        }
      ],
      "logsBloom": "0x00000000000000000000000000000000000000001000000000000000000000000000000000000000000000000000000000000000000000000800000000000000000000000000000000000000000000000000000000000000000000000000000000000000000000000000000000000000080000000000000000000000000000000000000000000000000000000000000000000000000000000000000000000000000000000000000000000000000000000000000000000000000002000000000000000800000000000000000000000000000000000000000000040000000000000000000000000000000000000000000000000000000000000000000000000000",
      "type": "0x2",
      "transactionHash": "0x1a754e574a4e7802ddc76b3297b70c32d31c7069eca262deee0140d175614656",
      "transactionIndex": "0x3",
      "blockHash": "0xbc0300c1dcc0ed616f6d4acbd3a5d57656a369cf7f723d0ebe6c3cb1c3ed7d48",
      "blockNumber": "0xe3328c",
      "gasUsed": "0xb993",
      "effectiveGasPrice": "0xf4362",
      "blobGasUsed": "0x0",
      "from": "0x12b2434a1022d5787bf06056f2885fe35de62bf8",
      "to": "0x85482d447fad3820477611baf3eb52ed209323d1",
      "contractAddress": null,
      "l1BaseFeeScalar": "0x44d",
      "l1BlobBaseFee": "0x1418b380eaa",
      "l1BlobBaseFeeScalar": "0xa118b",
      "l1Fee": "0x52fd919067fc",
      "l1GasPrice": "0x1028ed04a9",
      "l1GasUsed": "0x640"
    },
    {
      "status": "0x1",
      "cumulativeGasUsed": "0x7e006",
      "logs": [],
      "logsBloom": "0x00000000000000000000000000000000000000000000000000000000000000000000000000000000000000000000000000000000000000000000000000000000000000000000000000000000000000000000000000000000000000000000000000000000000000000000000000000000000000000000000000000000000000000000000000000000000000000000000000000000000000000000000000000000000000000000000000000000000000000000000000000000000000000000000000000000000000000000000000000000000000000000000000000000000000000000000000000000000000000000000000000000000000000000000000000000",
      "type": "0x2",
      "transactionHash": "0x9a87e71101a512ab801d452cfdea5a502e518c81e5b5fb0bf89f6d3466beec1a",
      "transactionIndex": "0x5",
      "blockHash": "0xbc0300c1dcc0ed616f6d4acbd3a5d57656a369cf7f723d0ebe6c3cb1c3ed7d48",
      "blockNumber": "0xe3328c",
      "gasUsed": "0xb496",
      "effectiveGasPrice": "0xf4362",
      "blobGasUsed": "0x0",
      "from": "0x12b2434a1022d5787bf06056f2885fe35de62bf8",
      "to": "0x85482d447fad3820477611baf3eb52ed209323d1",
      "contractAddress": null,
      "l1BaseFeeScalar": "0x44d",
      "l1BlobBaseFee": "0x1418b380eaa",
      "l1BlobBaseFeeScalar": "0xa118b",
      "l1Fee": "0x52fd919067fc",
      "l1GasPrice": "0x1028ed04a9",
      "l1GasUsed": "0x640"
    }
  ],
  "libraries": [],
  "pending": [],
  "returns": {},
  "timestamp": 1725547514,
  "chain": 84532,
  "commit": "e864c3f"
}