{
  "transactions": [
    {
      "hash": "0xee7f959bce017ee1c8194907d99f3562f8a8188b0e6f73770f8f946442fef4e0",
      "transactionType": "CALL",
      "contractName": null,
      "contractAddress": "0x4a1cc361e462a8c90a938ac7d6283dfeb57fa560",
      "function": "setPeer(uint32,bytes32)",
      "arguments": [
        "40232",
        "0x000000000000000000000000f12670a627e38b84e97064b8d303ae43960979b8"
      ],
      "transaction": {
        "from": "0xb0efd2b19a5698a9c830548ac22708a28c9d4552",
        "to": "0x4a1cc361e462a8c90a938ac7d6283dfeb57fa560",
        "gas": "0x10f7c",
        "value": "0x0",
        "input": "0x3400288b0000000000000000000000000000000000000000000000000000000000009d28000000000000000000000000f12670a627e38b84e97064b8d303ae43960979b8",
        "nonce": "0x8b",
        "chainId": "0x14a34"
      },
      "additionalContracts": [],
      "isFixedGasLimit": false
    },
    {
      "hash": "0x2ba524978e724274de08e8ee66fdfefe85e92c24a50880107fbc51fed8ec37a4",
      "transactionType": "CALL",
      "contractName": null,
      "contractAddress": "0x4a1cc361e462a8c90a938ac7d6283dfeb57fa560",
      "function": "setComposerEid(uint32)",
      "arguments": [
        "40232"
      ],
      "transaction": {
        "from": "0xb0efd2b19a5698a9c830548ac22708a28c9d4552",
        "to": "0x4a1cc361e462a8c90a938ac7d6283dfeb57fa560",
        "gas": "0xf96e",
        "value": "0x0",
        "input": "0xd30fce920000000000000000000000000000000000000000000000000000000000009d28",
        "nonce": "0x8c",
        "chainId": "0x14a34"
      },
      "additionalContracts": [],
      "isFixedGasLimit": false
    }
  ],
  "receipts": [
    {
      "status": "0x1",
      "cumulativeGasUsed": "0x17383d",
      "logs": [
        {
          "address": "0x4a1cc361e462a8c90a938ac7d6283dfeb57fa560",
          "topics": [
            "0x238399d427b947898edb290f5ff0f9109849b1c3ba196a42e35f00c50a54b98b"
          ],
          "data": "0x0000000000000000000000000000000000000000000000000000000000009d28000000000000000000000000f12670a627e38b84e97064b8d303ae43960979b8",
          "blockHash": "0x0c83d30a9ca583008fd23d058a7083ef4ad329c0cd2e7e803f8588bd3ca2c9d1",
          "blockNumber": "0xe3062e",
          "transactionHash": "0xee7f959bce017ee1c8194907d99f3562f8a8188b0e6f73770f8f946442fef4e0",
          "transactionIndex": "0x7",
          "logIndex": "0x1c",
          "removed": false
        }
      ],
      "logsBloom": "0x00000000000000000000000000000000000000000000000000000000000000000000000000000000000000000000000000000000000000000800000000000000000000000000000000000000000000000000000000000000000000000000000000000000000000000000000000000000000000000000000000000000000000000000000000000000000000000000000000000000000000000080000000000000000000000000000000000000000000000000000000000000000002000000000000000000000000000000000000000000000000000000000000040000000000100000000000000000000000000000000040000000000000000000000000000000",
      "type": "0x2",
      "transactionHash": "0xee7f959bce017ee1c8194907d99f3562f8a8188b0e6f73770f8f946442fef4e0",
      "transactionIndex": "0x7",
      "blockHash": "0x0c83d30a9ca583008fd23d058a7083ef4ad329c0cd2e7e803f8588bd3ca2c9d1",
      "blockNumber": "0xe3062e",
      "gasUsed": "0xb9a2",
      "effectiveGasPrice": "0x187bc",
      "from": "0xb0efd2b19a5698a9c830548ac22708a28c9d4552",
      "to": "0x4a1cc361e462a8c90a938ac7d6283dfeb57fa560",
      "contractAddress": null,
      "l1BaseFeeScalar": "0x44d",
      "l1BlobBaseFee": "0xf44727f93e",
      "l1BlobBaseFeeScalar": "0xa118b",
      "l1Fee": "0x3f1f58e194c5",
      "l1GasPrice": "0x1712315e06",
      "l1GasUsed": "0x640"
    },
    {
      "status": "0x1",
      "cumulativeGasUsed": "0x17ecd3",
      "logs": [],
      "logsBloom": "0x00000000000000000000000000000000000000000000000000000000000000000000000000000000000000000000000000000000000000000000000000000000000000000000000000000000000000000000000000000000000000000000000000000000000000000000000000000000000000000000000000000000000000000000000000000000000000000000000000000000000000000000000000000000000000000000000000000000000000000000000000000000000000000000000000000000000000000000000000000000000000000000000000000000000000000000000000000000000000000000000000000000000000000000000000000000",
      "type": "0x2",
      "transactionHash": "0x2ba524978e724274de08e8ee66fdfefe85e92c24a50880107fbc51fed8ec37a4",
      "transactionIndex": "0x8",
      "blockHash": "0x0c83d30a9ca583008fd23d058a7083ef4ad329c0cd2e7e803f8588bd3ca2c9d1",
      "blockNumber": "0xe3062e",
      "gasUsed": "0xb496",
      "effectiveGasPrice": "0x187bc",
      "from": "0xb0efd2b19a5698a9c830548ac22708a28c9d4552",
      "to": "0x4a1cc361e462a8c90a938ac7d6283dfeb57fa560",
      "contractAddress": null,
      "l1BaseFeeScalar": "0x44d",
      "l1BlobBaseFee": "0xf44727f93e",
      "l1BlobBaseFeeScalar": "0xa118b",
      "l1Fee": "0x3f1f58e194c5",
      "l1GasPrice": "0x1712315e06",
      "l1GasUsed": "0x640"
    }
  ],
  "libraries": [],
  "pending": [],
  "returns": {},
  "timestamp": 1725524801,
  "chain": 84532,
  "commit": "8370d5b"
}