{
  "transactions": [
    {
      "hash": "0xeb4ac5d33120d35691e10103f75762cca3152978ca0d4305c0a5f9725dbfd72e",
      "transactionType": "CALL",
      "contractName": null,
      "contractAddress": "0x51aed1b696d630063f5f7c1733f3b429c92f9465",
      "function": "setPeer(uint32,bytes32)",
      "arguments": [
        "40232",
        "0x00000000000000000000000057c550921592cbfb32e3c51422224b68e8f2c00c"
      ],
      "transaction": {
        "from": "0x12b2434a1022d5787bf06056f2885fe35de62bf8",
        "to": "0x51aed1b696d630063f5f7c1733f3b429c92f9465",
        "gas": "0x10f7c",
        "value": "0x0",
        "input": "0x3400288b0000000000000000000000000000000000000000000000000000000000009d2800000000000000000000000057c550921592cbfb32e3c51422224b68e8f2c00c",
        "nonce": "0x88",
        "chainId": "0x14a34"
      },
      "additionalContracts": [],
      "isFixedGasLimit": false
    },
    {
      "hash": "0x8a6221ef5e6d2b87d4934a995e6835ec536c5a5d0016c2b367c0a0a90c469716",
      "transactionType": "CALL",
      "contractName": null,
      "contractAddress": "0x51aed1b696d630063f5f7c1733f3b429c92f9465",
      "function": "setComposerEid(uint32)",
      "arguments": [
        "40232"
      ],
      "transaction": {
        "from": "0x12b2434a1022d5787bf06056f2885fe35de62bf8",
        "to": "0x51aed1b696d630063f5f7c1733f3b429c92f9465",
        "gas": "0xf96e",
        "value": "0x0",
        "input": "0xd30fce920000000000000000000000000000000000000000000000000000000000009d28",
        "nonce": "0x89",
        "chainId": "0x14a34"
      },
      "additionalContracts": [],
      "isFixedGasLimit": false
    }
  ],
  "receipts": [
    {
      "status": "0x1",
      "cumulativeGasUsed": "0x48302",
      "logs": [
        {
          "address": "0x51aed1b696d630063f5f7c1733f3b429c92f9465",
          "topics": [
            "0x238399d427b947898edb290f5ff0f9109849b1c3ba196a42e35f00c50a54b98b"
          ],
          "data": "0x0000000000000000000000000000000000000000000000000000000000009d2800000000000000000000000057c550921592cbfb32e3c51422224b68e8f2c00c",
          "blockHash": "0x4e48687d2a9a80a322557dd8e92eec58830f05c46064de6ff0b44958b1c71b65",
          "blockNumber": "0xe315f8",
          "transactionHash": "0xeb4ac5d33120d35691e10103f75762cca3152978ca0d4305c0a5f9725dbfd72e",
          "transactionIndex": "0x4",
          "logIndex": "0x3",
          "removed": false
        }
      ],
      "logsBloom": "0x00000000000000000000000000000000000000000000000000000000000000000000000000000000000000000000000000000000000000000800000000000000000000000000000000000000000000000000000000000000000000040000000000000000000000000000000000000000000000000000000000000000000000000000000000000000000000000000000000000000000000000000000000000000000000000000000000000000000000000000000000800000000002000000000000000000000000000000000000000000000000000000000000040000000000000000000000000000000000002000000000000000000000000000000000000000",
      "type": "0x2",
      "transactionHash": "0xeb4ac5d33120d35691e10103f75762cca3152978ca0d4305c0a5f9725dbfd72e",
      "transactionIndex": "0x4",
      "blockHash": "0x4e48687d2a9a80a322557dd8e92eec58830f05c46064de6ff0b44958b1c71b65",
      "blockNumber": "0xe315f8",
      "gasUsed": "0xb9a2",
      "effectiveGasPrice": "0x187b4",
      "blobGasUsed": "0x0",
      "from": "0x12b2434a1022d5787bf06056f2885fe35de62bf8",
      "to": "0x51aed1b696d630063f5f7c1733f3b429c92f9465",
      "contractAddress": null,
      "l1BaseFeeScalar": "0x44d",
      "l1BlobBaseFee": "0xd0c6b252ef",
      "l1BlobBaseFeeScalar": "0xa118b",
      "l1Fee": "0x35e7d7221ec4",
      "l1GasPrice": "0xd77b9f8a9",
      "l1GasUsed": "0x640"
    },
    {
      "status": "0x1",
      "cumulativeGasUsed": "0x53798",
      "logs": [],
      "logsBloom": "0x00000000000000000000000000000000000000000000000000000000000000000000000000000000000000000000000000000000000000000000000000000000000000000000000000000000000000000000000000000000000000000000000000000000000000000000000000000000000000000000000000000000000000000000000000000000000000000000000000000000000000000000000000000000000000000000000000000000000000000000000000000000000000000000000000000000000000000000000000000000000000000000000000000000000000000000000000000000000000000000000000000000000000000000000000000000",
      "type": "0x2",
      "transactionHash": "0x8a6221ef5e6d2b87d4934a995e6835ec536c5a5d0016c2b367c0a0a90c469716",
      "transactionIndex": "0x5",
      "blockHash": "0x4e48687d2a9a80a322557dd8e92eec58830f05c46064de6ff0b44958b1c71b65",
      "blockNumber": "0xe315f8",
      "gasUsed": "0xb496",
      "effectiveGasPrice": "0x187b4",
      "blobGasUsed": "0x0",
      "from": "0x12b2434a1022d5787bf06056f2885fe35de62bf8",
      "to": "0x51aed1b696d630063f5f7c1733f3b429c92f9465",
      "contractAddress": null,
      "l1BaseFeeScalar": "0x44d",
      "l1BlobBaseFee": "0xd0c6b252ef",
      "l1BlobBaseFeeScalar": "0xa118b",
      "l1Fee": "0x35e7d7221ec4",
      "l1GasPrice": "0xd77b9f8a9",
      "l1GasUsed": "0x640"
    }
  ],
  "libraries": [],
  "pending": [],
  "returns": {},
  "timestamp": 1725532881,
  "chain": 84532,
  "commit": "6821207"
}