{
  "transactions": [
    {
      "hash": "0xeed066848fddea8698069319bbd5a480cff6041b8a9d07d724e861a1089ee93d",
      "transactionType": "CALL",
      "contractName": null,
      "contractAddress": "0x4be0e2e1d25df4fc983cf736c17730324ae01cb8",
      "function": "setPeer(uint32,bytes32)",
      "arguments": [
        "40161",
        "0x000000000000000000000000787e51491f5cc4b2b99bc3f931a9f2199f072e1e"
      ],
      "transaction": {
        "from": "0x12b2434a1022d5787bf06056f2885fe35de62bf8",
        "to": "0x4be0e2e1d25df4fc983cf736c17730324ae01cb8",
        "gas": "0x10f87",
        "value": "0x0",
        "input": "0x3400288b0000000000000000000000000000000000000000000000000000000000009ce1000000000000000000000000787e51491f5cc4b2b99bc3f931a9f2199f072e1e",
        "nonce": "0x4f",
        "chainId": "0x14a34"
      },
      "additionalContracts": [],
      "isFixedGasLimit": false
    },
    {
      "hash": "0x446fc09b677885bf0cd0ad4563530fecb0f6536e3250f5461892a2660274fc5b",
      "transactionType": "CALL",
      "contractName": null,
      "contractAddress": "0x4be0e2e1d25df4fc983cf736c17730324ae01cb8",
      "function": "setComposerEid(uint32)",
      "arguments": [
        "40161"
      ],
      "transaction": {
        "from": "0x12b2434a1022d5787bf06056f2885fe35de62bf8",
        "to": "0x4be0e2e1d25df4fc983cf736c17730324ae01cb8",
        "gas": "0x108dc",
        "value": "0x0",
        "input": "0xd30fce920000000000000000000000000000000000000000000000000000000000009ce1",
        "nonce": "0x50",
        "chainId": "0x14a34"
      },
      "additionalContracts": [],
      "isFixedGasLimit": false
    }
  ],
  "receipts": [
    {
      "status": "0x1",
      "cumulativeGasUsed": "0x9bae3",
      "logs": [
        {
          "address": "0x4be0e2e1d25df4fc983cf736c17730324ae01cb8",
          "topics": [
            "0x238399d427b947898edb290f5ff0f9109849b1c3ba196a42e35f00c50a54b98b"
          ],
          "data": "0x0000000000000000000000000000000000000000000000000000000000009ce1000000000000000000000000787e51491f5cc4b2b99bc3f931a9f2199f072e1e",
          "blockHash": "0xa34d8002e1f0056fcab5a1da2135d64feb8d27f7700a231f4cd794b8e96b0c13",
          "blockNumber": "0xe27f6c",
          "transactionHash": "0xeed066848fddea8698069319bbd5a480cff6041b8a9d07d724e861a1089ee93d",
          "transactionIndex": "0x7",
          "logIndex": "0x3",
          "removed": false
        }
      ],
      "logsBloom": "0x00000000000020000000000000000000000000000000000000000000000000000000000000000000000000000020000000000000000000000800000000000000000000000000000000000000000000000000000000000000000000000000000000000000000000000000000000000000000000000000000000000000000000000000000000000000000000000000000000000000000000000000000000000000000400000000000000000000000000000000000000000000000002000000000000000000000000000000000000000000000000000000000000040000000000000000000000000000000000000000000000000000000000000000000000000000",
      "type": "0x2",
      "transactionHash": "0xeed066848fddea8698069319bbd5a480cff6041b8a9d07d724e861a1089ee93d",
      "transactionIndex": "0x7",
      "blockHash": "0xa34d8002e1f0056fcab5a1da2135d64feb8d27f7700a231f4cd794b8e96b0c13",
      "blockNumber": "0xe27f6c",
      "gasUsed": "0xb9a9",
      "effectiveGasPrice": "0x187a3",
      "blobGasUsed": "0x0",
      "from": "0x12b2434a1022d5787bf06056f2885fe35de62bf8",
      "to": "0x4be0e2e1d25df4fc983cf736c17730324ae01cb8",
      "contractAddress": null,
      "l1BaseFeeScalar": "0x44d",
      "l1BlobBaseFee": "0x187493bd4e5",
      "l1BlobBaseFeeScalar": "0xa118b",
      "l1Fee": "0x64ef0c72dde0",
      "l1GasPrice": "0xb5a30bb8b",
      "l1GasUsed": "0x640"
    },
    {
      "status": "0x1",
      "cumulativeGasUsed": "0xa6ffd",
      "logs": [],
      "logsBloom": "0x00000000000000000000000000000000000000000000000000000000000000000000000000000000000000000000000000000000000000000000000000000000000000000000000000000000000000000000000000000000000000000000000000000000000000000000000000000000000000000000000000000000000000000000000000000000000000000000000000000000000000000000000000000000000000000000000000000000000000000000000000000000000000000000000000000000000000000000000000000000000000000000000000000000000000000000000000000000000000000000000000000000000000000000000000000000",
      "type": "0x2",
      "transactionHash": "0x446fc09b677885bf0cd0ad4563530fecb0f6536e3250f5461892a2660274fc5b",
      "transactionIndex": "0x8",
      "blockHash": "0xa34d8002e1f0056fcab5a1da2135d64feb8d27f7700a231f4cd794b8e96b0c13",
      "blockNumber": "0xe27f6c",
      "gasUsed": "0xb51a",
      "effectiveGasPrice": "0x187a3",
      "blobGasUsed": "0x0",
      "from": "0x12b2434a1022d5787bf06056f2885fe35de62bf8",
      "to": "0x4be0e2e1d25df4fc983cf736c17730324ae01cb8",
      "contractAddress": null,
      "l1BaseFeeScalar": "0x44d",
      "l1BlobBaseFee": "0x187493bd4e5",
      "l1BlobBaseFeeScalar": "0xa118b",
      "l1Fee": "0x64ef0c72dde0",
      "l1GasPrice": "0xb5a30bb8b",
      "l1GasUsed": "0x640"
    }
  ],
  "libraries": [],
  "pending": [],
  "returns": {},
  "timestamp": 1725455801,
  "chain": 84532,
  "commit": "da4a4b9"
}