{
  "transactions": [
    {
      "hash": "0x74434dcb634c0e2cca7a7ae4b0a3af7baead654d708d8939a37928515e6ede2d",
      "transactionType": "CALL",
      "contractName": null,
      "contractAddress": "0x33e21b633fe6f91baba56d5b08591f572b9cee73",
      "function": "setPeer(uint32,bytes32)",
      "arguments": [
        "40232",
        "0x000000000000000000000000a7f96a7ba1b3ee324dd9d9b115efea827be67d2a"
      ],
      "transaction": {
        "from": "0xb0efd2b19a5698a9c830548ac22708a28c9d4552",
        "to": "0x33e21b633fe6f91baba56d5b08591f572b9cee73",
        "gas": "0x10f66",
        "value": "0x0",
        "input": "0x3400288b0000000000000000000000000000000000000000000000000000000000009d28000000000000000000000000a7f96a7ba1b3ee324dd9d9b115efea827be67d2a",
        "nonce": "0x9e",
        "chainId": "0x14a34"
      },
      "additionalContracts": [],
      "isFixedGasLimit": false
    },
    {
      "hash": "0xdd1c26c917e84203b0b53767435c03457a8f2d637788d3ddc1c80d5b35dedc46",
      "transactionType": "CALL",
      "contractName": null,
      "contractAddress": "0x33e21b633fe6f91baba56d5b08591f572b9cee73",
      "function": "setComposerEid(uint32)",
      "arguments": [
        "40232"
      ],
      "transaction": {
        "from": "0xb0efd2b19a5698a9c830548ac22708a28c9d4552",
        "to": "0x33e21b633fe6f91baba56d5b08591f572b9cee73",
        "gas": "0xf96e",
        "value": "0x0",
        "input": "0xd30fce920000000000000000000000000000000000000000000000000000000000009d28",
        "nonce": "0x9f",
        "chainId": "0x14a34"
      },
      "additionalContracts": [],
      "isFixedGasLimit": false
    }
  ],
  "receipts": [
    {
      "status": "0x1",
      "cumulativeGasUsed": "0x1c0438",
      "logs": [
        {
          "address": "0x33e21b633fe6f91baba56d5b08591f572b9cee73",
          "topics": [
            "0x238399d427b947898edb290f5ff0f9109849b1c3ba196a42e35f00c50a54b98b"
          ],
          "data": "0x0000000000000000000000000000000000000000000000000000000000009d28000000000000000000000000a7f96a7ba1b3ee324dd9d9b115efea827be67d2a",
          "blockHash": "0xffd506aaa0d4b8d22728e5b649bccb6186610d639b7c81896f5c0e6170ba4af4",
          "blockNumber": "0xe348ef",
          "transactionHash": "0x74434dcb634c0e2cca7a7ae4b0a3af7baead654d708d8939a37928515e6ede2d",
          "transactionIndex": "0xb",
          "logIndex": "0x26",
          "removed": false
        }
      ],
      "logsBloom": "0x00000000000000000000000000000000000000000000000000000000000000000000000000000000000000000000000000000000004000000800000000000000000000000000000000000000000000000000000000000000000000000000000000000000000000000000000000000000000000000000000000000000000000000000000000000000000000000000000000000010000000000000000000000000000000000000000000000000000000000000000000000000000002000000000008000000000000000000000000000000000000000000000000040000000000000000000000000000000000000000000000000000000000000000000000000000",
      "type": "0x2",
      "transactionHash": "0x74434dcb634c0e2cca7a7ae4b0a3af7baead654d708d8939a37928515e6ede2d",
      "transactionIndex": "0xb",
      "blockHash": "0xffd506aaa0d4b8d22728e5b649bccb6186610d639b7c81896f5c0e6170ba4af4",
      "blockNumber": "0xe348ef",
      "gasUsed": "0xb993",
      "effectiveGasPrice": "0xf4389",
      "from": "0xb0efd2b19a5698a9c830548ac22708a28c9d4552",
      "to": "0x33e21b633fe6f91baba56d5b08591f572b9cee73",
      "contractAddress": null,
      "l1BaseFeeScalar": "0x44d",
      "l1BlobBaseFee": "0x35a0c1d6a6a",
      "l1BlobBaseFeeScalar": "0xa118b",
      "l1Fee": "0xdd2f15cb0cb1",
      "l1GasPrice": "0x2b1cbd9aa",
      "l1GasUsed": "0x640"
    },
    {
      "status": "0x1",
      "cumulativeGasUsed": "0x1cb8ce",
      "logs": [],
      "logsBloom": "0x00000000000000000000000000000000000000000000000000000000000000000000000000000000000000000000000000000000000000000000000000000000000000000000000000000000000000000000000000000000000000000000000000000000000000000000000000000000000000000000000000000000000000000000000000000000000000000000000000000000000000000000000000000000000000000000000000000000000000000000000000000000000000000000000000000000000000000000000000000000000000000000000000000000000000000000000000000000000000000000000000000000000000000000000000000000",
      "type": "0x2",
      "transactionHash": "0xdd1c26c917e84203b0b53767435c03457a8f2d637788d3ddc1c80d5b35dedc46",
      "transactionIndex": "0xc",
      "blockHash": "0xffd506aaa0d4b8d22728e5b649bccb6186610d639b7c81896f5c0e6170ba4af4",
      "blockNumber": "0xe348ef",
      "gasUsed": "0xb496",
      "effectiveGasPrice": "0xf4389",
      "from": "0xb0efd2b19a5698a9c830548ac22708a28c9d4552",
      "to": "0x33e21b633fe6f91baba56d5b08591f572b9cee73",
      "contractAddress": null,
      "l1BaseFeeScalar": "0x44d",
      "l1BlobBaseFee": "0x35a0c1d6a6a",
      "l1BlobBaseFeeScalar": "0xa118b",
      "l1Fee": "0xdd2f15cb0cb1",
      "l1GasPrice": "0x2b1cbd9aa",
      "l1GasUsed": "0x640"
    }
  ],
  "libraries": [],
  "pending": [],
  "returns": {},
  "timestamp": 1725558980,
  "chain": 84532,
  "commit": "a4c618d"
}