{
  "transactions": [
    {
      "hash": "0x443c572ff3f7406b34c4842def2fad4ad777e1916e9eda09d88b208b87086ba3",
      "transactionType": "CALL",
      "contractName": null,
      "contractAddress": "0x573cb0c3f0e8a307640c7a479bd1814d91274a5b",
      "function": "setPeer(uint32,bytes32)",
      "arguments": [
        "40232",
        "0x000000000000000000000000a9479fe837ef3b57f74c0af0d42e233c49f6e405"
      ],
      "transaction": {
        "from": "0xb0efd2b19a5698a9c830548ac22708a28c9d4552",
        "to": "0x573cb0c3f0e8a307640c7a479bd1814d91274a5b",
        "gas": "0xa42d",
        "value": "0x0",
        "input": "0x3400288b0000000000000000000000000000000000000000000000000000000000009d28000000000000000000000000a9479fe837ef3b57f74c0af0d42e233c49f6e405",
        "nonce": "0x60",
        "chainId": "0x14a34"
      },
      "additionalContracts": [],
      "isFixedGasLimit": false
    },
    {
      "hash": "0xa96d3b39694eb0b1bec1a74250d05cda2268a782aba636d88a1aaf1caa7d06e1",
      "transactionType": "CALL",
      "contractName": null,
      "contractAddress": "0x573cb0c3f0e8a307640c7a479bd1814d91274a5b",
      "function": "setComposerEid(uint32)",
      "arguments": [
        "40232"
      ],
      "transaction": {
        "from": "0xb0efd2b19a5698a9c830548ac22708a28c9d4552",
        "to": "0x573cb0c3f0e8a307640c7a479bd1814d91274a5b",
        "gas": "0x96ec",
        "value": "0x0",
        "input": "0xd30fce920000000000000000000000000000000000000000000000000000000000009d28",
        "nonce": "0x61",
        "chainId": "0x14a34"
      },
      "additionalContracts": [],
      "isFixedGasLimit": false
    }
  ],
  "receipts": [
    {
      "status": "0x1",
      "cumulativeGasUsed": "0x162753",
      "logs": [
        {
          "address": "0x573cb0c3f0e8a307640c7a479bd1814d91274a5b",
          "topics": [
            "0x238399d427b947898edb290f5ff0f9109849b1c3ba196a42e35f00c50a54b98b"
          ],
          "data": "0x0000000000000000000000000000000000000000000000000000000000009d28000000000000000000000000a9479fe837ef3b57f74c0af0d42e233c49f6e405",
          "blockHash": "0x873f0a7748dcaded3764979f36d2a4ac2e7a498269ab0f1545962ba64de10108",
          "blockNumber": "0xe2e458",
          "transactionHash": "0x443c572ff3f7406b34c4842def2fad4ad777e1916e9eda09d88b208b87086ba3",
          "transactionIndex": "0xb",
          "logIndex": "0x1e",
          "removed": false
        }
      ],
      "logsBloom": "0x00000000000000000000000000000000000000000000000000800000000000000000000000000000000000000000000000000000000000000800000000000000000000000000000000000000000000000000000000000000000000000000000000000000000000000000000000000000000000000000000000000000000000000000000000000000000000000000000000400000000000000000000000000000000000000000000000000000000000000000000010000000000002000000000000000000000000000000000000000000000000000000000000040000000000000000000000000000000000000000000000000000000000000000000000000000",
      "type": "0x2",
      "transactionHash": "0x443c572ff3f7406b34c4842def2fad4ad777e1916e9eda09d88b208b87086ba3",
      "transactionIndex": "0xb",
      "blockHash": "0x873f0a7748dcaded3764979f36d2a4ac2e7a498269ab0f1545962ba64de10108",
      "blockNumber": "0xe2e458",
      "gasUsed": "0x76dd",
      "effectiveGasPrice": "0xf4379",
      "from": "0xb0efd2b19a5698a9c830548ac22708a28c9d4552",
      "to": "0x573cb0c3f0e8a307640c7a479bd1814d91274a5b",
      "contractAddress": null,
      "l1BaseFeeScalar": "0x44d",
      "l1BlobBaseFee": "0x1c308568af",
      "l1BlobBaseFeeScalar": "0xa118b",
      "l1Fee": "0x7484ad17387",
      "l1GasPrice": "0x262c7a697",
      "l1GasUsed": "0x640"
    },
    {
      "status": "0x1",
      "cumulativeGasUsed": "0x168e85",
      "logs": [],
      "logsBloom": "0x00000000000000000000000000000000000000000000000000000000000000000000000000000000000000000000000000000000000000000000000000000000000000000000000000000000000000000000000000000000000000000000000000000000000000000000000000000000000000000000000000000000000000000000000000000000000000000000000000000000000000000000000000000000000000000000000000000000000000000000000000000000000000000000000000000000000000000000000000000000000000000000000000000000000000000000000000000000000000000000000000000000000000000000000000000000",
      "type": "0x2",
      "transactionHash": "0xa96d3b39694eb0b1bec1a74250d05cda2268a782aba636d88a1aaf1caa7d06e1",
      "transactionIndex": "0xc",
      "blockHash": "0x873f0a7748dcaded3764979f36d2a4ac2e7a498269ab0f1545962ba64de10108",
      "blockNumber": "0xe2e458",
      "gasUsed": "0x6732",
      "effectiveGasPrice": "0xf4379",
      "from": "0xb0efd2b19a5698a9c830548ac22708a28c9d4552",
      "to": "0x573cb0c3f0e8a307640c7a479bd1814d91274a5b",
      "contractAddress": null,
      "l1BaseFeeScalar": "0x44d",
      "l1BlobBaseFee": "0x1c308568af",
      "l1BlobBaseFeeScalar": "0xa118b",
      "l1Fee": "0x7484ad17387",
      "l1GasPrice": "0x262c7a697",
      "l1GasUsed": "0x640"
    }
  ],
  "libraries": [],
  "pending": [],
  "returns": {},
  "timestamp": 1725507478,
  "chain": 84532,
  "commit": "8370d5b"
}