{
  "transactions": [
    {
      "hash": "0x075bbb4f84b924a1e789aa7a791595f8dda61982b309866e752c80b5e19eb478",
      "transactionType": "CALL",
      "contractName": null,
      "contractAddress": "0x25ca228de14d25efaacb6c1634d036a768871ba2",
      "function": "setPeer(uint32,bytes32)",
      "arguments": [
        "40231",
        "0x000000000000000000000000d520d0de26c369cb34d27e5534cd39afebaa1509"
      ],
      "transaction": {
        "from": "0x12b2434a1022d5787bf06056f2885fe35de62bf8",
        "to": "0x25ca228de14d25efaacb6c1634d036a768871ba2",
        "gas": "0x10f87",
        "value": "0x0",
        "input": "0x3400288b0000000000000000000000000000000000000000000000000000000000009d27000000000000000000000000d520d0de26c369cb34d27e5534cd39afebaa1509",
        "nonce": "0x5d",
        "chainId": "0x14a34"
      },
      "additionalContracts": [],
      "isFixedGasLimit": false
    },
    {
      "hash": "0x214d9c0bc51e9cfa275f36baeb816f66ecde238fd56022219fcf71a6a12a1063",
      "transactionType": "CALL",
      "contractName": null,
      "contractAddress": "0x25ca228de14d25efaacb6c1634d036a768871ba2",
      "function": "setComposerEid(uint32)",
      "arguments": [
        "40231"
      ],
      "transaction": {
        "from": "0x12b2434a1022d5787bf06056f2885fe35de62bf8",
        "to": "0x25ca228de14d25efaacb6c1634d036a768871ba2",
        "gas": "0xfa06",
        "value": "0x0",
        "input": "0xd30fce920000000000000000000000000000000000000000000000000000000000009d27",
        "nonce": "0x5e",
        "chainId": "0x14a34"
      },
      "additionalContracts": [],
      "isFixedGasLimit": false
    }
  ],
  "receipts": [
    {
      "status": "0x1",
      "cumulativeGasUsed": "0x5857c",
      "logs": [
        {
          "address": "0x25ca228de14d25efaacb6c1634d036a768871ba2",
          "topics": [
            "0x238399d427b947898edb290f5ff0f9109849b1c3ba196a42e35f00c50a54b98b"
          ],
          "data": "0x0000000000000000000000000000000000000000000000000000000000009d27000000000000000000000000d520d0de26c369cb34d27e5534cd39afebaa1509",
          "blockHash": "0xab0d819decaf2a2ba45ae1ab2ce5457dace99af0f9261eb3a6e1ee4f65a1d655",
          "blockNumber": "0xe2968f",
          "transactionHash": "0x075bbb4f84b924a1e789aa7a791595f8dda61982b309866e752c80b5e19eb478",
          "transactionIndex": "0x4",
          "logIndex": "0x3",
          "removed": false
        }
      ],
      "logsBloom": "0x00000000000000000000000000000000000000000000000000000000000000000000000000000000000000000000000000000000000000000c00000000000000000000000000000000000000000000000000000000000000000000000000000000000000000000000000000000000020000000000000000000000000000000000000000000000000000000000000000000000000000000000000000000000000000000000000000000000000000000000000000000000000000002000000000000000000000000000400000000000000000000000000000000040000000000000000000000000000000000000000000000000000000000000000000000000000",
      "type": "0x2",
      "transactionHash": "0x075bbb4f84b924a1e789aa7a791595f8dda61982b309866e752c80b5e19eb478",
      "transactionIndex": "0x4",
      "blockHash": "0xab0d819decaf2a2ba45ae1ab2ce5457dace99af0f9261eb3a6e1ee4f65a1d655",
      "blockNumber": "0xe2968f",
      "gasUsed": "0xb9a9",
      "effectiveGasPrice": "0xf08c7",
      "blobGasUsed": "0x0",
      "from": "0x12b2434a1022d5787bf06056f2885fe35de62bf8",
      "to": "0x25ca228de14d25efaacb6c1634d036a768871ba2",
      "contractAddress": null,
      "l1BaseFeeScalar": "0x44d",
      "l1BlobBaseFee": "0xc1027e0fa7",
      "l1BlobBaseFeeScalar": "0xa118b",
      "l1Fee": "0x31d666d0769a",
      "l1GasPrice": "0xcd95b473e",
      "l1GasUsed": "0x640"
    },
    {
      "status": "0x1",
      "cumulativeGasUsed": "0x63a80",
      "logs": [],
      "logsBloom": "0x00000000000000000000000000000000000000000000000000000000000000000000000000000000000000000000000000000000000000000000000000000000000000000000000000000000000000000000000000000000000000000000000000000000000000000000000000000000000000000000000000000000000000000000000000000000000000000000000000000000000000000000000000000000000000000000000000000000000000000000000000000000000000000000000000000000000000000000000000000000000000000000000000000000000000000000000000000000000000000000000000000000000000000000000000000000",
      "type": "0x2",
      "transactionHash": "0x214d9c0bc51e9cfa275f36baeb816f66ecde238fd56022219fcf71a6a12a1063",
      "transactionIndex": "0x5",
      "blockHash": "0xab0d819decaf2a2ba45ae1ab2ce5457dace99af0f9261eb3a6e1ee4f65a1d655",
      "blockNumber": "0xe2968f",
      "gasUsed": "0xb504",
      "effectiveGasPrice": "0xf08c7",
      "blobGasUsed": "0x0",
      "from": "0x12b2434a1022d5787bf06056f2885fe35de62bf8",
      "to": "0x25ca228de14d25efaacb6c1634d036a768871ba2",
      "contractAddress": null,
      "l1BaseFeeScalar": "0x44d",
      "l1BlobBaseFee": "0xc1027e0fa7",
      "l1BlobBaseFeeScalar": "0xa118b",
      "l1Fee": "0x31d666d0769a",
      "l1GasPrice": "0xcd95b473e",
      "l1GasUsed": "0x640"
    }
  ],
  "libraries": [],
  "pending": [],
  "returns": {},
  "timestamp": 1725467652,
  "chain": 84532,
  "commit": "da4a4b9"
}