{
  "transactions": [
    {
      "hash": "0x73fc145877b8c7bc35aa3cf1d5cc77b9be4d7b6d4eacd279242c3b720bb2bf3a",
      "transactionType": "CALL",
      "contractName": null,
      "contractAddress": "0x4c43423d55dba56370448468096cea3b3cc2e88a",
      "function": "setPeer(uint32,bytes32)",
      "arguments": [
        "40231",
        "0x000000000000000000000000a6047c2ac572c71824aff7e5faf2372cb0907045"
      ],
      "transaction": {
        "from": "0x12b2434a1022d5787bf06056f2885fe35de62bf8",
        "to": "0x4c43423d55dba56370448468096cea3b3cc2e88a",
        "gas": "0x10f87",
        "value": "0x0",
        "input": "0x3400288b0000000000000000000000000000000000000000000000000000000000009d27000000000000000000000000a6047c2ac572c71824aff7e5faf2372cb0907045",
        "nonce": "0x74",
        "chainId": "0x14a34"
      },
      "additionalContracts": [],
      "isFixedGasLimit": false
    },
    {
      "hash": "0xb05fc24eb34186dfccc61376f1bf3d6d20ac16be595387455b404474d9717794",
      "transactionType": "CALL",
      "contractName": null,
      "contractAddress": "0x4c43423d55dba56370448468096cea3b3cc2e88a",
      "function": "setComposerEid(uint32)",
      "arguments": [
        "40231"
      ],
      "transaction": {
        "from": "0x12b2434a1022d5787bf06056f2885fe35de62bf8",
        "to": "0x4c43423d55dba56370448468096cea3b3cc2e88a",
        "gas": "0xfa06",
        "value": "0x0",
        "input": "0xd30fce920000000000000000000000000000000000000000000000000000000000009d27",
        "nonce": "0x75",
        "chainId": "0x14a34"
      },
      "additionalContracts": [],
      "isFixedGasLimit": false
    }
  ],
  "receipts": [
    {
      "status": "0x1",
      "cumulativeGasUsed": "0x230946",
      "logs": [
        {
          "address": "0x4c43423d55dba56370448468096cea3b3cc2e88a",
          "topics": [
            "0x238399d427b947898edb290f5ff0f9109849b1c3ba196a42e35f00c50a54b98b"
          ],
          "data": "0x0000000000000000000000000000000000000000000000000000000000009d27000000000000000000000000a6047c2ac572c71824aff7e5faf2372cb0907045",
          "blockHash": "0x76afb971b60312809203d42733217cb47d0d94595f2c809a63363a24b8de3233",
          "blockNumber": "0xe2ad8c",
          "transactionHash": "0x73fc145877b8c7bc35aa3cf1d5cc77b9be4d7b6d4eacd279242c3b720bb2bf3a",
          "transactionIndex": "0x5",
          "logIndex": "0x34",
          "removed": false
        }
      ],
      "logsBloom": "0x00000000000000000000000000000000000000000000000000000000000000000000000000000000000000000000000020000000000000000800000000000000000000000000000000000000000000000000000000000000000000000000000000000000000000000000000000000000000000000000000000000000000000000080000000000000000040000000000000000000000000000000000000000000000000000000000000000000000000000000000000000000000002000000000000000000000000000000000000000000000000000000000000040000000000000000000000000000000000000000000000000000000000000000000000000000",
      "type": "0x2",
      "transactionHash": "0x73fc145877b8c7bc35aa3cf1d5cc77b9be4d7b6d4eacd279242c3b720bb2bf3a",
      "transactionIndex": "0x5",
      "blockHash": "0x76afb971b60312809203d42733217cb47d0d94595f2c809a63363a24b8de3233",
      "blockNumber": "0xe2ad8c",
      "gasUsed": "0xb9a9",
      "effectiveGasPrice": "0x5af19",
      "blobGasUsed": "0x0",
      "from": "0x12b2434a1022d5787bf06056f2885fe35de62bf8",
      "to": "0x4c43423d55dba56370448468096cea3b3cc2e88a",
      "contractAddress": null,
      "l1BaseFeeScalar": "0x44d",
      "l1BlobBaseFee": "0x104502a8fc",
      "l1BlobBaseFeeScalar": "0xa118b",
      "l1Fee": "0x433ef79af10",
      "l1GasPrice": "0x15ac1f1a4",
      "l1GasUsed": "0x640"
    },
    {
      "status": "0x1",
      "cumulativeGasUsed": "0x23be4a",
      "logs": [],
      "logsBloom": "0x00000000000000000000000000000000000000000000000000000000000000000000000000000000000000000000000000000000000000000000000000000000000000000000000000000000000000000000000000000000000000000000000000000000000000000000000000000000000000000000000000000000000000000000000000000000000000000000000000000000000000000000000000000000000000000000000000000000000000000000000000000000000000000000000000000000000000000000000000000000000000000000000000000000000000000000000000000000000000000000000000000000000000000000000000000000",
      "type": "0x2",
      "transactionHash": "0xb05fc24eb34186dfccc61376f1bf3d6d20ac16be595387455b404474d9717794",
      "transactionIndex": "0x6",
      "blockHash": "0x76afb971b60312809203d42733217cb47d0d94595f2c809a63363a24b8de3233",
      "blockNumber": "0xe2ad8c",
      "gasUsed": "0xb504",
      "effectiveGasPrice": "0x5af19",
      "blobGasUsed": "0x0",
      "from": "0x12b2434a1022d5787bf06056f2885fe35de62bf8",
      "to": "0x4c43423d55dba56370448468096cea3b3cc2e88a",
      "contractAddress": null,
      "l1BaseFeeScalar": "0x44d",
      "l1BlobBaseFee": "0x104502a8fc",
      "l1BlobBaseFeeScalar": "0xa118b",
      "l1Fee": "0x433ef79af10",
      "l1GasPrice": "0x15ac1f1a4",
      "l1GasUsed": "0x640"
    }
  ],
  "libraries": [],
  "pending": [],
  "returns": {},
  "timestamp": 1725479422,
  "chain": 84532,
  "commit": "da4a4b9"
}