{
  "transactions": [
    {
      "hash": "0x8bc6620e53e51a761e0e5ae16a22800d408a8b482ecef80b57ba46df279ab7be",
      "transactionType": "CALL",
      "contractName": null,
      "contractAddress": "0x0f2d5511be2a7c3c1a623212e6fb8ab91f1f79c4",
      "function": "setPeer(uint32,bytes32)",
      "arguments": [
        "40231",
        "0x000000000000000000000000ea686366d6bb59e759fcab5cbd7b94963bf291e6"
      ],
      "transaction": {
        "from": "0x12b2434a1022d5787bf06056f2885fe35de62bf8",
        "to": "0x0f2d5511be2a7c3c1a623212e6fb8ab91f1f79c4",
        "gas": "0x10f87",
        "value": "0x0",
        "input": "0x3400288b0000000000000000000000000000000000000000000000000000000000009d27000000000000000000000000ea686366d6bb59e759fcab5cbd7b94963bf291e6",
        "nonce": "0x6d",
        "chainId": "0x14a34"
      },
      "additionalContracts": [],
      "isFixedGasLimit": false
    },
    {
      "hash": "0x5b5e9e5227e5e555351a5f1b3362d4f34c16a51c3b9bcb29619b60fd845775b9",
      "transactionType": "CALL",
      "contractName": null,
      "contractAddress": "0x0f2d5511be2a7c3c1a623212e6fb8ab91f1f79c4",
      "function": "setComposerEid(uint32)",
      "arguments": [
        "40231"
      ],
      "transaction": {
        "from": "0x12b2434a1022d5787bf06056f2885fe35de62bf8",
        "to": "0x0f2d5511be2a7c3c1a623212e6fb8ab91f1f79c4",
        "gas": "0xfa06",
        "value": "0x0",
        "input": "0xd30fce920000000000000000000000000000000000000000000000000000000000009d27",
        "nonce": "0x6e",
        "chainId": "0x14a34"
      },
      "additionalContracts": [],
      "isFixedGasLimit": false
    }
  ],
  "receipts": [
    {
      "status": "0x1",
      "cumulativeGasUsed": "0x1c57ec",
      "logs": [
        {
          "address": "0x0f2d5511be2a7c3c1a623212e6fb8ab91f1f79c4",
          "topics": [
            "0x238399d427b947898edb290f5ff0f9109849b1c3ba196a42e35f00c50a54b98b"
          ],
          "data": "0x0000000000000000000000000000000000000000000000000000000000009d27000000000000000000000000ea686366d6bb59e759fcab5cbd7b94963bf291e6",
          "blockHash": "0x7da48e374da7a578471c73beee7d0cc31232b3e2758da2d065c4f2b59eccf4bb",
          "blockNumber": "0xe2ab5b",
          "transactionHash": "0x8bc6620e53e51a761e0e5ae16a22800d408a8b482ecef80b57ba46df279ab7be",
          "transactionIndex": "0x8",
          "logIndex": "0x24",
          "removed": false
        }
      ],
      "logsBloom": "0x00000000000000000000000000000000000000000000000000000000000000000000000000000080000000000000000000000000000000000800000000000000000000000000000000000000000000000000000000000000000000000000000000000000000000000000000000000000000000000000000000000000000000000000000000000000000000000800000000000000000000000000000000000000000000000000000000000000000000000000000000000000000002000008000000000000000000000000000000000000000000000000000000040000000000000000000000000000000000000000000000000000000000000000000000000000",
      "type": "0x2",
      "transactionHash": "0x8bc6620e53e51a761e0e5ae16a22800d408a8b482ecef80b57ba46df279ab7be",
      "transactionIndex": "0x8",
      "blockHash": "0x7da48e374da7a578471c73beee7d0cc31232b3e2758da2d065c4f2b59eccf4bb",
      "blockNumber": "0xe2ab5b",
      "gasUsed": "0xb9a9",
      "effectiveGasPrice": "0xf4365",
      "blobGasUsed": "0x0",
      "from": "0x12b2434a1022d5787bf06056f2885fe35de62bf8",
      "to": "0x0f2d5511be2a7c3c1a623212e6fb8ab91f1f79c4",
      "contractAddress": null,
      "l1BaseFeeScalar": "0x44d",
      "l1BlobBaseFee": "0x251b2107c1",
      "l1BlobBaseFeeScalar": "0xa118b",
      "l1Fee": "0x993077531d2",
      "l1GasPrice": "0x1781116bf",
      "l1GasUsed": "0x640"
    },
    {
      "status": "0x1",
      "cumulativeGasUsed": "0x1d0cf0",
      "logs": [],
      "logsBloom": "0x00000000000000000000000000000000000000000000000000000000000000000000000000000000000000000000000000000000000000000000000000000000000000000000000000000000000000000000000000000000000000000000000000000000000000000000000000000000000000000000000000000000000000000000000000000000000000000000000000000000000000000000000000000000000000000000000000000000000000000000000000000000000000000000000000000000000000000000000000000000000000000000000000000000000000000000000000000000000000000000000000000000000000000000000000000000",
      "type": "0x2",
      "transactionHash": "0x5b5e9e5227e5e555351a5f1b3362d4f34c16a51c3b9bcb29619b60fd845775b9",
      "transactionIndex": "0x9",
      "blockHash": "0x7da48e374da7a578471c73beee7d0cc31232b3e2758da2d065c4f2b59eccf4bb",
      "blockNumber": "0xe2ab5b",
      "gasUsed": "0xb504",
      "effectiveGasPrice": "0xf4365",
      "blobGasUsed": "0x0",
      "from": "0x12b2434a1022d5787bf06056f2885fe35de62bf8",
      "to": "0x0f2d5511be2a7c3c1a623212e6fb8ab91f1f79c4",
      "contractAddress": null,
      "l1BaseFeeScalar": "0x44d",
      "l1BlobBaseFee": "0x251b2107c1",
      "l1BlobBaseFeeScalar": "0xa118b",
      "l1Fee": "0x993077531d2",
      "l1GasPrice": "0x1781116bf",
      "l1GasUsed": "0x640"
    }
  ],
  "libraries": [],
  "pending": [],
  "returns": {},
  "timestamp": 1725478301,
  "chain": 84532,
  "commit": "da4a4b9"
}