{
  "transactions": [
    {
      "hash": "0x7da395f394a32988bffa9d08893de5f9e47d2244a085c3b84dbbfb47f0f0f271",
      "transactionType": "CALL",
      "contractName": null,
      "contractAddress": "0x66cb88c2c4e68ed626855da33a2969bd4f4e5540",
      "function": "setPeer(uint32,bytes32)",
      "arguments": [
        "40232",
        "0x00000000000000000000000023960ee69b04e9dc87ae3d5e1e7799c6028edc16"
      ],
      "transaction": {
        "from": "0x12b2434a1022d5787bf06056f2885fe35de62bf8",
        "to": "0x66cb88c2c4e68ed626855da33a2969bd4f4e5540",
        "gas": "0x10f66",
        "value": "0x0",
        "input": "0x3400288b0000000000000000000000000000000000000000000000000000000000009d2800000000000000000000000023960ee69b04e9dc87ae3d5e1e7799c6028edc16",
        "nonce": "0x96",
        "chainId": "0x14a34"
      },
      "additionalContracts": [],
      "isFixedGasLimit": false
    },
    {
      "hash": "0xedaa88da678009efd3f7085a7371152c16c2ccff694941cfa6ada4802f5dbb86",
      "transactionType": "CALL",
      "contractName": null,
      "contractAddress": "0x66cb88c2c4e68ed626855da33a2969bd4f4e5540",
      "function": "setComposerEid(uint32)",
      "arguments": [
        "40232"
      ],
      "transaction": {
        "from": "0x12b2434a1022d5787bf06056f2885fe35de62bf8",
        "to": "0x66cb88c2c4e68ed626855da33a2969bd4f4e5540",
        "gas": "0xf96e",
        "value": "0x0",
        "input": "0xd30fce920000000000000000000000000000000000000000000000000000000000009d28",
        "nonce": "0x97",
        "chainId": "0x14a34"
      },
      "additionalContracts": [],
      "isFixedGasLimit": false
    }
  ],
  "receipts": [
    {
      "status": "0x1",
      "cumulativeGasUsed": "0x11d32f",
      "logs": [
        {
          "address": "0x66cb88c2c4e68ed626855da33a2969bd4f4e5540",
          "topics": [
            "0x238399d427b947898edb290f5ff0f9109849b1c3ba196a42e35f00c50a54b98b"
          ],
          "data": "0x0000000000000000000000000000000000000000000000000000000000009d2800000000000000000000000023960ee69b04e9dc87ae3d5e1e7799c6028edc16",
          "blockHash": "0xa4fb6673959b5ea2c491b6735027708cf9e042352c301c70a0dcbc81f8190293",
          "blockNumber": "0xe320bf",
          "transactionHash": "0x7da395f394a32988bffa9d08893de5f9e47d2244a085c3b84dbbfb47f0f0f271",
          "transactionIndex": "0x7",
          "logIndex": "0x11",
          "removed": false
        }
      ],
      "logsBloom": "0x00000000000000000000000000000000000000000000000000000000000000000000000000000000000000000000000000000000001000000800000000000000000000000000000000000000000000000000000000000000000000000000000000000000000000000000000000000000000000000000000000000000008000000000000000000000000000000000000000000000000000000000000000000000000000000000000000000000000000000000000000000000000002000000000000000000000000000000000000000000000000020000000000040000000000000000000000000000000000000000000000000000000000000000000000000000",
      "type": "0x2",
      "transactionHash": "0x7da395f394a32988bffa9d08893de5f9e47d2244a085c3b84dbbfb47f0f0f271",
      "transactionIndex": "0x7",
      "blockHash": "0xa4fb6673959b5ea2c491b6735027708cf9e042352c301c70a0dcbc81f8190293",
      "blockNumber": "0xe320bf",
      "gasUsed": "0xb993",
      "effectiveGasPrice": "0xece26",
      "blobGasUsed": "0x0",
      "from": "0x12b2434a1022d5787bf06056f2885fe35de62bf8",
      "to": "0x66cb88c2c4e68ed626855da33a2969bd4f4e5540",
      "contractAddress": null,
      "l1BaseFeeScalar": "0x44d",
      "l1BlobBaseFee": "0x1083b7a2674",
      "l1BlobBaseFeeScalar": "0xa118b",
      "l1Fee": "0x4430ca04ddf6",
      "l1GasPrice": "0xc24c5f43a",
      "l1GasUsed": "0x640"
    },
    {
      "status": "0x1",
      "cumulativeGasUsed": "0x1287c5",
      "logs": [],
      "logsBloom": "0x00000000000000000000000000000000000000000000000000000000000000000000000000000000000000000000000000000000000000000000000000000000000000000000000000000000000000000000000000000000000000000000000000000000000000000000000000000000000000000000000000000000000000000000000000000000000000000000000000000000000000000000000000000000000000000000000000000000000000000000000000000000000000000000000000000000000000000000000000000000000000000000000000000000000000000000000000000000000000000000000000000000000000000000000000000000",
      "type": "0x2",
      "transactionHash": "0xedaa88da678009efd3f7085a7371152c16c2ccff694941cfa6ada4802f5dbb86",
      "transactionIndex": "0x8",
      "blockHash": "0xa4fb6673959b5ea2c491b6735027708cf9e042352c301c70a0dcbc81f8190293",
      "blockNumber": "0xe320bf",
      "gasUsed": "0xb496",
      "effectiveGasPrice": "0xece26",
      "blobGasUsed": "0x0",
      "from": "0x12b2434a1022d5787bf06056f2885fe35de62bf8",
      "to": "0x66cb88c2c4e68ed626855da33a2969bd4f4e5540",
      "contractAddress": null,
      "l1BaseFeeScalar": "0x44d",
      "l1BlobBaseFee": "0x1083b7a2674",
      "l1BlobBaseFeeScalar": "0xa118b",
      "l1Fee": "0x4430ca04ddf6",
      "l1GasPrice": "0xc24c5f43a",
      "l1GasUsed": "0x640"
    }
  ],
  "libraries": [],
  "pending": [],
  "returns": {},
  "timestamp": 1725538404,
  "chain": 84532,
  "commit": "09f4066"
}