{
  "transactions": [
    {
      "hash": "0xa6e3084db5781d27b0f479ef286ba939426f1cc3f6445a7075a50ebafaf8ea1c",
      "transactionType": "CALL",
      "contractName": null,
      "contractAddress": "0x675de6ca5a78b3c4acb19cd38e5a02a92da1b5f3",
      "function": "setPeer(uint32,bytes32)",
      "arguments": [
        "40232",
        "0x000000000000000000000000ba9e54606a67147ad0fb9defbae2d461dde8acc5"
      ],
      "transaction": {
        "from": "0x12b2434a1022d5787bf06056f2885fe35de62bf8",
        "to": "0x675de6ca5a78b3c4acb19cd38e5a02a92da1b5f3",
        "gas": "0x10f7c",
        "value": "0x0",
        "input": "0x3400288b0000000000000000000000000000000000000000000000000000000000009d28000000000000000000000000ba9e54606a67147ad0fb9defbae2d461dde8acc5",
        "nonce": "0x91",
        "chainId": "0x14a34"
      },
      "additionalContracts": [],
      "isFixedGasLimit": false
    },
    {
      "hash": "0x1ceda9b7a7ad0dee85bb9eb61ae730f772188979e8e3a763a58b7bc0aae2e639",
      "transactionType": "CALL",
      "contractName": null,
      "contractAddress": "0x675de6ca5a78b3c4acb19cd38e5a02a92da1b5f3",
      "function": "setComposerEid(uint32)",
      "arguments": [
        "40232"
      ],
      "transaction": {
        "from": "0x12b2434a1022d5787bf06056f2885fe35de62bf8",
        "to": "0x675de6ca5a78b3c4acb19cd38e5a02a92da1b5f3",
        "gas": "0xf96e",
        "value": "0x0",
        "input": "0xd30fce920000000000000000000000000000000000000000000000000000000000009d28",
        "nonce": "0x92",
        "chainId": "0x14a34"
      },
      "additionalContracts": [],
      "isFixedGasLimit": false
    }
  ],
  "receipts": [
    {
      "status": "0x1",
      "cumulativeGasUsed": "0x142a39",
      "logs": [
        {
          "address": "0x675de6ca5a78b3c4acb19cd38e5a02a92da1b5f3",
          "topics": [
            "0x238399d427b947898edb290f5ff0f9109849b1c3ba196a42e35f00c50a54b98b"
          ],
          "data": "0x0000000000000000000000000000000000000000000000000000000000009d28000000000000000000000000ba9e54606a67147ad0fb9defbae2d461dde8acc5",
          "blockHash": "0x74f4a25ca845f52ac52f2f426836679d9664167fed2d0d6c2dbe096044a5e9c3",
          "blockNumber": "0xe31ba6",
          "transactionHash": "0xa6e3084db5781d27b0f479ef286ba939426f1cc3f6445a7075a50ebafaf8ea1c",
          "transactionIndex": "0x7",
          "logIndex": "0x6",
          "removed": false
        }
      ],
      "logsBloom": "0x00000000100000000000000000000000000000000000000000000000000000000000000000000000000000000000000000000000000000000800000000000000000000000000000000000000000000080000000000000000000000000000000000000000000000000000000000000000000000000000000000000000000000000000000000000000000000000000000000000000000000000000000000000000000000000000000000000000000000000000000000000000000002000000000000000000000000000000000000000000000000000000000000040000000000000000000000000000000000000000000000000000000000000000008000000000",
      "type": "0x2",
      "transactionHash": "0xa6e3084db5781d27b0f479ef286ba939426f1cc3f6445a7075a50ebafaf8ea1c",
      "transactionIndex": "0x7",
      "blockHash": "0x74f4a25ca845f52ac52f2f426836679d9664167fed2d0d6c2dbe096044a5e9c3",
      "blockNumber": "0xe31ba6",
      "gasUsed": "0xb9a2",
      "effectiveGasPrice": "0x32f",
      "blobGasUsed": "0x0",
      "from": "0x12b2434a1022d5787bf06056f2885fe35de62bf8",
      "to": "0x675de6ca5a78b3c4acb19cd38e5a02a92da1b5f3",
      "contractAddress": null,
      "l1BaseFeeScalar": "0x44d",
      "l1BlobBaseFee": "0xfe0f2f01d8",
      "l1BlobBaseFeeScalar": "0xa118b",
      "l1Fee": "0x418e7ee99cca",
      "l1GasPrice": "0xa6d18429b",
      "l1GasUsed": "0x640"
    },
    {
      "status": "0x1",
      "cumulativeGasUsed": "0x14decf",
      "logs": [],
      "logsBloom": "0x00000000000000000000000000000000000000000000000000000000000000000000000000000000000000000000000000000000000000000000000000000000000000000000000000000000000000000000000000000000000000000000000000000000000000000000000000000000000000000000000000000000000000000000000000000000000000000000000000000000000000000000000000000000000000000000000000000000000000000000000000000000000000000000000000000000000000000000000000000000000000000000000000000000000000000000000000000000000000000000000000000000000000000000000000000000",
      "type": "0x2",
      "transactionHash": "0x1ceda9b7a7ad0dee85bb9eb61ae730f772188979e8e3a763a58b7bc0aae2e639",
      "transactionIndex": "0x8",
      "blockHash": "0x74f4a25ca845f52ac52f2f426836679d9664167fed2d0d6c2dbe096044a5e9c3",
      "blockNumber": "0xe31ba6",
      "gasUsed": "0xb496",
      "effectiveGasPrice": "0x32f",
      "blobGasUsed": "0x0",
      "from": "0x12b2434a1022d5787bf06056f2885fe35de62bf8",
      "to": "0x675de6ca5a78b3c4acb19cd38e5a02a92da1b5f3",
      "contractAddress": null,
      "l1BaseFeeScalar": "0x44d",
      "l1BlobBaseFee": "0xfe0f2f01d8",
      "l1BlobBaseFeeScalar": "0xa118b",
      "l1Fee": "0x418e7ee99cca",
      "l1GasPrice": "0xa6d18429b",
      "l1GasUsed": "0x640"
    }
  ],
  "libraries": [],
  "pending": [],
  "returns": {},
  "timestamp": 1725535795,
  "chain": 84532,
  "commit": "6821207"
}