{
  "transactions": [
    {
      "hash": "0x6611a0ce3cfce6242df1c76a610a2fdf2fcd2c28e7a1ca70ee29b7d62feb1159",
      "transactionType": "CALL",
      "contractName": null,
      "contractAddress": "0xe3421207bcee400b16fb6be9fdeae5340935048c",
      "function": "setPeer(uint32,bytes32)",
      "arguments": [
        "40232",
        "0x00000000000000000000000021384b160486b69949fc197a2971606876c1fcf9"
      ],
      "transaction": {
        "from": "0xb0efd2b19a5698a9c830548ac22708a28c9d4552",
        "to": "0xe3421207bcee400b16fb6be9fdeae5340935048c",
        "gas": "0x10f7c",
        "value": "0x0",
        "input": "0x3400288b0000000000000000000000000000000000000000000000000000000000009d2800000000000000000000000021384b160486b69949fc197a2971606876c1fcf9",
        "nonce": "0x7c",
        "chainId": "0x14a34"
      },
      "additionalContracts": [],
      "isFixedGasLimit": false
    },
    {
      "hash": "0x30587072da1381ff4599264ba70016d53044167e722eb23d8b6ce1200ddf776d",
      "transactionType": "CALL",
      "contractName": null,
      "contractAddress": "0xe3421207bcee400b16fb6be9fdeae5340935048c",
      "function": "setComposerEid(uint32)",
      "arguments": [
        "40232"
      ],
      "transaction": {
        "from": "0xb0efd2b19a5698a9c830548ac22708a28c9d4552",
        "to": "0xe3421207bcee400b16fb6be9fdeae5340935048c",
        "gas": "0xf96e",
        "value": "0x0",
        "input": "0xd30fce920000000000000000000000000000000000000000000000000000000000009d28",
        "nonce": "0x7d",
        "chainId": "0x14a34"
      },
      "additionalContracts": [],
      "isFixedGasLimit": false
    }
  ],
  "receipts": [
    {
      "status": "0x1",
      "cumulativeGasUsed": "0x184940",
      "logs": [
        {
          "address": "0xe3421207bcee400b16fb6be9fdeae5340935048c",
          "topics": [
            "0x238399d427b947898edb290f5ff0f9109849b1c3ba196a42e35f00c50a54b98b"
          ],
          "data": "0x0000000000000000000000000000000000000000000000000000000000009d2800000000000000000000000021384b160486b69949fc197a2971606876c1fcf9",
          "blockHash": "0x57419789fdf2f174944a562f6ecf3526cccce102b0dfa49488028e2bcb2d6d04",
          "blockNumber": "0xe2ff82",
          "transactionHash": "0x6611a0ce3cfce6242df1c76a610a2fdf2fcd2c28e7a1ca70ee29b7d62feb1159",
          "transactionIndex": "0xb",
          "logIndex": "0x13",
          "removed": false
        }
      ],
      "logsBloom": "0x00000000000800000000000000000000000000000000000000000000000000000000000000000000000000000000000000000000000000000800000000000000000000000000000000000000000000200000000000000000000000000000000000000000000000000000000000000000000000000000000000000000000000000000000000000000000000000000000000000000000000000000000000000000000000000000000000000000000000000000000000000000000002000000000000000000000000000000000000000000000000000000000000040000000000000000000000000000000000000000000000000002000000000000000000000000",
      "type": "0x2",
      "transactionHash": "0x6611a0ce3cfce6242df1c76a610a2fdf2fcd2c28e7a1ca70ee29b7d62feb1159",
      "transactionIndex": "0xb",
      "blockHash": "0x57419789fdf2f174944a562f6ecf3526cccce102b0dfa49488028e2bcb2d6d04",
      "blockNumber": "0xe2ff82",
      "gasUsed": "0xb9a2",
      "effectiveGasPrice": "0x18818",
      "from": "0xb0efd2b19a5698a9c830548ac22708a28c9d4552",
      "to": "0xe3421207bcee400b16fb6be9fdeae5340935048c",
      "contractAddress": null,
      "l1BaseFeeScalar": "0x44d",
      "l1BlobBaseFee": "0x1083b7a2674",
      "l1BlobBaseFeeScalar": "0xa118b",
      "l1Fee": "0x443818d39b6e",
      "l1GasPrice": "0x104ac443e1",
      "l1GasUsed": "0x640"
    },
    {
      "status": "0x1",
      "cumulativeGasUsed": "0x18fdd6",
      "logs": [],
      "logsBloom": "0x00000000000000000000000000000000000000000000000000000000000000000000000000000000000000000000000000000000000000000000000000000000000000000000000000000000000000000000000000000000000000000000000000000000000000000000000000000000000000000000000000000000000000000000000000000000000000000000000000000000000000000000000000000000000000000000000000000000000000000000000000000000000000000000000000000000000000000000000000000000000000000000000000000000000000000000000000000000000000000000000000000000000000000000000000000000",
      "type": "0x2",
      "transactionHash": "0x30587072da1381ff4599264ba70016d53044167e722eb23d8b6ce1200ddf776d",
      "transactionIndex": "0xc",
      "blockHash": "0x57419789fdf2f174944a562f6ecf3526cccce102b0dfa49488028e2bcb2d6d04",
      "blockNumber": "0xe2ff82",
      "gasUsed": "0xb496",
      "effectiveGasPrice": "0x18818",
      "from": "0xb0efd2b19a5698a9c830548ac22708a28c9d4552",
      "to": "0xe3421207bcee400b16fb6be9fdeae5340935048c",
      "contractAddress": null,
      "l1BaseFeeScalar": "0x44d",
      "l1BlobBaseFee": "0x1083b7a2674",
      "l1BlobBaseFeeScalar": "0xa118b",
      "l1Fee": "0x443818d39b6e",
      "l1GasPrice": "0x104ac443e1",
      "l1GasUsed": "0x640"
    }
  ],
  "libraries": [],
  "pending": [],
  "returns": {},
  "timestamp": 1725521386,
  "chain": 84532,
  "commit": "8370d5b"
}