{
  "transactions": [
    {
      "hash": "0x8e96348d09dd4412a524b0380656c31dbae08431ada1a048422fa4cd3de87490",
      "transactionType": "CALL",
      "contractName": null,
      "contractAddress": "0xe0cc98a717c6d885df973db1cac4a2b7694ab87c",
      "function": "setPeer(uint32,bytes32)",
      "arguments": [
        "40231",
        "0x000000000000000000000000da3420ca7b915c607313d332d038ceddcd810973"
      ],
      "transaction": {
        "from": "0x12b2434a1022d5787bf06056f2885fe35de62bf8",
        "to": "0xe0cc98a717c6d885df973db1cac4a2b7694ab87c",
        "gas": "0x10f87",
        "value": "0x0",
        "input": "0x3400288b0000000000000000000000000000000000000000000000000000000000009d27000000000000000000000000da3420ca7b915c607313d332d038ceddcd810973",
        "nonce": "0x59",
        "chainId": "0x14a34"
      },
      "additionalContracts": [],
      "isFixedGasLimit": false
    },
    {
      "hash": "0x661b0ccde15a9013a618d419525c64984b044b509bde8c8ef1017cbdaca7c770",
      "transactionType": "CALL",
      "contractName": null,
      "contractAddress": "0xaad1191f2ef0c86f7c9faebfc4c2142dd4485055",
      "function": "setComposerEid(uint32)",
      "arguments": [
        "40231"
      ],
      "transaction": {
        "from": "0x12b2434a1022d5787bf06056f2885fe35de62bf8",
        "to": "0xaad1191f2ef0c86f7c9faebfc4c2142dd4485055",
        "gas": "0x9dc3",
        "value": "0x0",
        "input": "0xd30fce920000000000000000000000000000000000000000000000000000000000009d27",
        "nonce": "0x5a",
        "chainId": "0x14a34"
      },
      "additionalContracts": [],
      "isFixedGasLimit": false
    }
  ],
  "receipts": [
    {
      "status": "0x1",
      "cumulativeGasUsed": "0x270353",
      "logs": [
        {
          "address": "0xe0cc98a717c6d885df973db1cac4a2b7694ab87c",
          "topics": [
            "0x238399d427b947898edb290f5ff0f9109849b1c3ba196a42e35f00c50a54b98b"
          ],
          "data": "0x0000000000000000000000000000000000000000000000000000000000009d27000000000000000000000000da3420ca7b915c607313d332d038ceddcd810973",
          "blockHash": "0xa988098570356c70de74c96840f07ad004cae7bb6d874d9d806a637b3e817995",
          "blockNumber": "0xe29488",
          "transactionHash": "0x8e96348d09dd4412a524b0380656c31dbae08431ada1a048422fa4cd3de87490",
          "transactionIndex": "0xe",
          "logIndex": "0x1e",
          "removed": false
        }
      ],
      "logsBloom": "0x00000000000000000000000000000000000000000000000000000000000000000800000000000000000000000000000000000000000000000800000000000000000000000000000000000000000000000000000000000000000000000000002000000000000000000000000000000000000000000000000000000000000000000000000000000000000000000000000000000000000000000000000000000000000000000000000000000000000000000000000000000000000002000000000000000000000000000000000000000000000000000000000000040000000000000000000000000000000000000000000000000000000000000002000000000000",
      "type": "0x2",
      "transactionHash": "0x8e96348d09dd4412a524b0380656c31dbae08431ada1a048422fa4cd3de87490",
      "transactionIndex": "0xe",
      "blockHash": "0xa988098570356c70de74c96840f07ad004cae7bb6d874d9d806a637b3e817995",
      "blockNumber": "0xe29488",
      "gasUsed": "0xb9a9",
      "effectiveGasPrice": "0x187b4",
      "blobGasUsed": "0x0",
      "from": "0x12b2434a1022d5787bf06056f2885fe35de62bf8",
      "to": "0xe0cc98a717c6d885df973db1cac4a2b7694ab87c",
      "contractAddress": null,
      "l1BaseFeeScalar": "0x44d",
      "l1BlobBaseFee": "0xb9942c91c7",
      "l1BlobBaseFeeScalar": "0xa118b",
      "l1Fee": "0x2fe0fbf946ca",
      "l1GasPrice": "0x68e38b35b",
      "l1GasUsed": "0x640"
    },
    {
      "status": "0x1",
      "cumulativeGasUsed": "0x27758b",
      "logs": [],
      "logsBloom": "0x00000000000000000000000000000000000000000000000000000000000000000000000000000000000000000000000000000000000000000000000000000000000000000000000000000000000000000000000000000000000000000000000000000000000000000000000000000000000000000000000000000000000000000000000000000000000000000000000000000000000000000000000000000000000000000000000000000000000000000000000000000000000000000000000000000000000000000000000000000000000000000000000000000000000000000000000000000000000000000000000000000000000000000000000000000000",
      "type": "0x2",
      "transactionHash": "0x661b0ccde15a9013a618d419525c64984b044b509bde8c8ef1017cbdaca7c770",
      "transactionIndex": "0xf",
      "blockHash": "0xa988098570356c70de74c96840f07ad004cae7bb6d874d9d806a637b3e817995",
      "blockNumber": "0xe29488",
      "gasUsed": "0x7238",
      "effectiveGasPrice": "0x187b4",
      "blobGasUsed": "0x0",
      "from": "0x12b2434a1022d5787bf06056f2885fe35de62bf8",
      "to": "0xaad1191f2ef0c86f7c9faebfc4c2142dd4485055",
      "contractAddress": null,
      "l1BaseFeeScalar": "0x44d",
      "l1BlobBaseFee": "0xb9942c91c7",
      "l1BlobBaseFeeScalar": "0xa118b",
      "l1Fee": "0x2fe0fbf946ca",
      "l1GasPrice": "0x68e38b35b",
      "l1GasUsed": "0x640"
    }
  ],
  "libraries": [],
  "pending": [],
  "returns": {},
  "timestamp": 1725466615,
  "chain": 84532,
  "commit": "da4a4b9"
}