{
  "transactions": [
    {
      "hash": "0x62fc6377cf8a67af6c7dc66509f587ee61a93bc12fd3c8063c77a859f82be9da",
      "transactionType": "CALL",
      "contractName": null,
      "contractAddress": "0x552d6e78c0491667403d41e2bc153d488859ab76",
      "function": "setPeer(uint32,bytes32)",
      "arguments": [
        "40232",
        "0x0000000000000000000000005704084a6f0dab197fbddc8ae7637846419b3dce"
      ],
      "transaction": {
        "from": "0x12b2434a1022d5787bf06056f2885fe35de62bf8",
        "to": "0x552d6e78c0491667403d41e2bc153d488859ab76",
        "gas": "0x10f66",
        "value": "0x0",
        "input": "0x3400288b0000000000000000000000000000000000000000000000000000000000009d280000000000000000000000005704084a6f0dab197fbddc8ae7637846419b3dce",
        "nonce": "0x9b",
        "chainId": "0x14a34"
      },
      "additionalContracts": [],
      "isFixedGasLimit": false
    },
    {
      "hash": "0xebfc06b804d2c3acb1fc02390ff9d1f1a5fee8f7fe1fb9e78d6fc3d74d4e7a27",
      "transactionType": "CALL",
      "contractName": null,
      "contractAddress": "0x552d6e78c0491667403d41e2bc153d488859ab76",
      "function": "setComposerEid(uint32)",
      "arguments": [
        "40232"
      ],
      "transaction": {
        "from": "0x12b2434a1022d5787bf06056f2885fe35de62bf8",
        "to": "0x552d6e78c0491667403d41e2bc153d488859ab76",
        "gas": "0xf96e",
        "value": "0x0",
        "input": "0xd30fce920000000000000000000000000000000000000000000000000000000000009d28",
        "nonce": "0x9c",
        "chainId": "0x14a34"
      },
      "additionalContracts": [],
      "isFixedGasLimit": false
    }
  ],
  "receipts": [
    {
      "status": "0x1",
      "cumulativeGasUsed": "0x100f68",
      "logs": [
        {
          "address": "0x552d6e78c0491667403d41e2bc153d488859ab76",
          "topics": [
            "0x238399d427b947898edb290f5ff0f9109849b1c3ba196a42e35f00c50a54b98b"
          ],
          "data": "0x0000000000000000000000000000000000000000000000000000000000009d280000000000000000000000005704084a6f0dab197fbddc8ae7637846419b3dce",
          "blockHash": "0x6844b80fa03a425530b696ec8c159e9c88e0700c9cb94a51b33bb686932fc0b5",
          "blockNumber": "0xe323bd",
          "transactionHash": "0x62fc6377cf8a67af6c7dc66509f587ee61a93bc12fd3c8063c77a859f82be9da",
          "transactionIndex": "0x6",
          "logIndex": "0x16",
          "removed": false
        }
      ],
      "logsBloom": "0x00000000000000000000000000000000000000000000000000000000000000000000000000000000000000000000000000000000000000000800000000000000000000000000000000000000000000000000000000000000000000000000000000000000000000000000000000000000000000000000000000000000000000000000000000000000000000000000000000000000000000000000000000000000000000000000000000000000000000000000000000000000000002000000002000000000000000000000000000000000000000000000000000040000100000000000000000000000000000000000000000000000000000000000000000080000",
      "type": "0x2",
      "transactionHash": "0x62fc6377cf8a67af6c7dc66509f587ee61a93bc12fd3c8063c77a859f82be9da",
      "transactionIndex": "0x6",
      "blockHash": "0x6844b80fa03a425530b696ec8c159e9c88e0700c9cb94a51b33bb686932fc0b5",
      "blockNumber": "0xe323bd",
      "gasUsed": "0xb993",
      "effectiveGasPrice": "0xee64c",
      "blobGasUsed": "0x0",
      "from": "0x12b2434a1022d5787bf06056f2885fe35de62bf8",
      "to": "0x552d6e78c0491667403d41e2bc153d488859ab76",
      "contractAddress": null,
      "l1BaseFeeScalar": "0x44d",
      "l1BlobBaseFee": "0x17838b069f9",
      "l1BlobBaseFeeScalar": "0xa118b",
      "l1Fee": "0x61150d10227b",
      "l1GasPrice": "0xfeb117e1c",
      "l1GasUsed": "0x640"
    },
    {
      "status": "0x1",
      "cumulativeGasUsed": "0x10c3fe",
      "logs": [],
      "logsBloom": "0x00000000000000000000000000000000000000000000000000000000000000000000000000000000000000000000000000000000000000000000000000000000000000000000000000000000000000000000000000000000000000000000000000000000000000000000000000000000000000000000000000000000000000000000000000000000000000000000000000000000000000000000000000000000000000000000000000000000000000000000000000000000000000000000000000000000000000000000000000000000000000000000000000000000000000000000000000000000000000000000000000000000000000000000000000000000",
      "type": "0x2",
      "transactionHash": "0xebfc06b804d2c3acb1fc02390ff9d1f1a5fee8f7fe1fb9e78d6fc3d74d4e7a27",
      "transactionIndex": "0x7",
      "blockHash": "0x6844b80fa03a425530b696ec8c159e9c88e0700c9cb94a51b33bb686932fc0b5",
      "blockNumber": "0xe323bd",
      "gasUsed": "0xb496",
      "effectiveGasPrice": "0xee64c",
      "blobGasUsed": "0x0",
      "from": "0x12b2434a1022d5787bf06056f2885fe35de62bf8",
      "to": "0x552d6e78c0491667403d41e2bc153d488859ab76",
      "contractAddress": null,
      "l1BaseFeeScalar": "0x44d",
      "l1BlobBaseFee": "0x17838b069f9",
      "l1BlobBaseFeeScalar": "0xa118b",
      "l1Fee": "0x61150d10227b",
      "l1GasPrice": "0xfeb117e1c",
      "l1GasUsed": "0x640"
    }
  ],
  "libraries": [],
  "pending": [],
  "returns": {},
  "timestamp": 1725539937,
  "chain": 84532,
  "commit": "c5b011b"
}