{
  "transactions": [
    {
      "hash": "0x7a0ca18842698021bc07c7fd32725a31d8da410bde0571e9b34969a2b7130319",
      "transactionType": "CALL",
      "contractName": null,
      "contractAddress": "0xe6eacdcdec037b404a4c0211924b0fcfc4ca23aa",
      "function": "setPeer(uint32,bytes32)",
      "arguments": [
        "40232",
        "0x000000000000000000000000c20e195e4e6901b363b3efdeca0c0a9b3db9f736"
      ],
      "transaction": {
        "from": "0xb0efd2b19a5698a9c830548ac22708a28c9d4552",
        "to": "0xe6eacdcdec037b404a4c0211924b0fcfc4ca23aa",
        "gas": "0x10f7c",
        "value": "0x0",
        "input": "0x3400288b0000000000000000000000000000000000000000000000000000000000009d28000000000000000000000000c20e195e4e6901b363b3efdeca0c0a9b3db9f736",
        "nonce": "0x6d",
        "chainId": "0x14a34"
      },
      "additionalContracts": [],
      "isFixedGasLimit": false
    },
    {
      "hash": "0x9200739248c300627ad6b086eeccdfad3f97e3a5ed3da7323814359ef7b97e91",
      "transactionType": "CALL",
      "contractName": null,
      "contractAddress": "0xe6eacdcdec037b404a4c0211924b0fcfc4ca23aa",
      "function": "setComposerEid(uint32)",
      "arguments": [
        "40232"
      ],
      "transaction": {
        "from": "0xb0efd2b19a5698a9c830548ac22708a28c9d4552",
        "to": "0xe6eacdcdec037b404a4c0211924b0fcfc4ca23aa",
        "gas": "0xf96e",
        "value": "0x0",
        "input": "0xd30fce920000000000000000000000000000000000000000000000000000000000009d28",
        "nonce": "0x6e",
        "chainId": "0x14a34"
      },
      "additionalContracts": [],
      "isFixedGasLimit": false
    }
  ],
  "receipts": [
    {
      "status": "0x1",
      "cumulativeGasUsed": "0x172343",
      "logs": [
        {
          "address": "0xe6eacdcdec037b404a4c0211924b0fcfc4ca23aa",
          "topics": [
            "0x238399d427b947898edb290f5ff0f9109849b1c3ba196a42e35f00c50a54b98b"
          ],
          "data": "0x0000000000000000000000000000000000000000000000000000000000009d28000000000000000000000000c20e195e4e6901b363b3efdeca0c0a9b3db9f736",
          "blockHash": "0x11c75a663727f3f4352ffc7bfe1e1cd341c317951eebd14ef1c9c6e006077dad",
          "blockNumber": "0xe2f69e",
          "transactionHash": "0x7a0ca18842698021bc07c7fd32725a31d8da410bde0571e9b34969a2b7130319",
          "transactionIndex": "0x7",
          "logIndex": "0x19",
          "removed": false
        }
      ],
      "logsBloom": "0x00000000000000000000000000000000000000000000000000000000000000000000000000000000000000000000000000000000000000000800000000000000000000000000000000000000000000000000000000000100000000000020000000000000000000000000000000000000000000000000000000000000000000000000000000000000000000000000000000000000000000000000000000000000000000000000000000000000000000000000000000000000000002000000000000000000000000000000000000000000000000000000000800040000000000000000000000000000000000000000000000000000000000000000000000000000",
      "type": "0x2",
      "transactionHash": "0x7a0ca18842698021bc07c7fd32725a31d8da410bde0571e9b34969a2b7130319",
      "transactionIndex": "0x7",
      "blockHash": "0x11c75a663727f3f4352ffc7bfe1e1cd341c317951eebd14ef1c9c6e006077dad",
      "blockNumber": "0xe2f69e",
      "gasUsed": "0xb9a2",
      "effectiveGasPrice": "0x18a72",
      "from": "0xb0efd2b19a5698a9c830548ac22708a28c9d4552",
      "to": "0xe6eacdcdec037b404a4c0211924b0fcfc4ca23aa",
      "contractAddress": null,
      "l1BaseFeeScalar": "0x44d",
      "l1BlobBaseFee": "0x42ddbd76a6",
      "l1BlobBaseFeeScalar": "0xa118b",
      "l1Fee": "0x114764e26064",
      "l1GasPrice": "0x65ef4cde8",
      "l1GasUsed": "0x640"
    },
    {
      "status": "0x1",
      "cumulativeGasUsed": "0x17d7d9",
      "logs": [],
      "logsBloom": "0x00000000000000000000000000000000000000000000000000000000000000000000000000000000000000000000000000000000000000000000000000000000000000000000000000000000000000000000000000000000000000000000000000000000000000000000000000000000000000000000000000000000000000000000000000000000000000000000000000000000000000000000000000000000000000000000000000000000000000000000000000000000000000000000000000000000000000000000000000000000000000000000000000000000000000000000000000000000000000000000000000000000000000000000000000000000",
      "type": "0x2",
      "transactionHash": "0x9200739248c300627ad6b086eeccdfad3f97e3a5ed3da7323814359ef7b97e91",
      "transactionIndex": "0x8",
      "blockHash": "0x11c75a663727f3f4352ffc7bfe1e1cd341c317951eebd14ef1c9c6e006077dad",
      "blockNumber": "0xe2f69e",
      "gasUsed": "0xb496",
      "effectiveGasPrice": "0x18a72",
      "from": "0xb0efd2b19a5698a9c830548ac22708a28c9d4552",
      "to": "0xe6eacdcdec037b404a4c0211924b0fcfc4ca23aa",
      "contractAddress": null,
      "l1BaseFeeScalar": "0x44d",
      "l1BlobBaseFee": "0x42ddbd76a6",
      "l1BlobBaseFeeScalar": "0xa118b",
      "l1Fee": "0x114764e26064",
      "l1GasPrice": "0x65ef4cde8",
      "l1GasUsed": "0x640"
    }
  ],
  "libraries": [],
  "pending": [],
  "returns": {},
  "timestamp": 1725516832,
  "chain": 84532,
  "commit": "8370d5b"
}