{
  "transactions": [
    {
      "hash": "0x160b043bfb702e02eacfa57f6fd4d7d48bbd9b8426c170ae55207e507dd36cdb",
      "transactionType": "CALL",
      "contractName": null,
      "contractAddress": "0x948ee90e44f83ee3f84b7f91230e17bfa0d0cd41",
      "function": "setPeer(uint32,bytes32)",
      "arguments": [
        "40231",
        "0x000000000000000000000000ab1f48f42b7f3b34b590e7ae39d96aa3ee790406"
      ],
      "transaction": {
        "from": "0x12b2434a1022d5787bf06056f2885fe35de62bf8",
        "to": "0x948ee90e44f83ee3f84b7f91230e17bfa0d0cd41",
        "gas": "0x10f87",
        "value": "0x0",
        "input": "0x3400288b0000000000000000000000000000000000000000000000000000000000009d27000000000000000000000000ab1f48f42b7f3b34b590e7ae39d96aa3ee790406",
        "nonce": "0x62",
        "chainId": "0x14a34"
      },
      "additionalContracts": [],
      "isFixedGasLimit": false
    },
    {
      "hash": "0x320fc316aa6f8f44ed3d14060c5a4aae0bd6ea8567119a93f99b3848b8a511bf",
      "transactionType": "CALL",
      "contractName": null,
      "contractAddress": "0x948ee90e44f83ee3f84b7f91230e17bfa0d0cd41",
      "function": "setComposerEid(uint32)",
      "arguments": [
        "40231"
      ],
      "transaction": {
        "from": "0x12b2434a1022d5787bf06056f2885fe35de62bf8",
        "to": "0x948ee90e44f83ee3f84b7f91230e17bfa0d0cd41",
        "gas": "0xfa06",
        "value": "0x0",
        "input": "0xd30fce920000000000000000000000000000000000000000000000000000000000009d27",
        "nonce": "0x63",
        "chainId": "0x14a34"
      },
      "additionalContracts": [],
      "isFixedGasLimit": false
    }
  ],
  "receipts": [
    {
      "status": "0x1",
      "cumulativeGasUsed": "0x126d24",
      "logs": [
        {
          "address": "0x948ee90e44f83ee3f84b7f91230e17bfa0d0cd41",
          "topics": [
            "0x238399d427b947898edb290f5ff0f9109849b1c3ba196a42e35f00c50a54b98b"
          ],
          "data": "0x0000000000000000000000000000000000000000000000000000000000009d27000000000000000000000000ab1f48f42b7f3b34b590e7ae39d96aa3ee790406",
          "blockHash": "0xde557add67727d1a09ecb645f44541654940ef8184a5ab7a72fc0f6c10b455fa",
          "blockNumber": "0xe2a005",
          "transactionHash": "0x160b043bfb702e02eacfa57f6fd4d7d48bbd9b8426c170ae55207e507dd36cdb",
          "transactionIndex": "0x6",
          "logIndex": "0x13",
          "removed": false
        }
      ],
      "logsBloom": "0x00000000000000000000000000000000000000000000000000000000000000000000000000000000000000000000000000100000000000000800000800000000000000000000000000000000000000000000000000000000000000000000000000000000000000000000000000000000000000000000000000000000000000000000000000000000000000000000000000000000000000000000000000000000000000000000000000000000000000000000000000000000000002000000000000000000000000000000000000000000000000000000000000040000000000000000000004000000000000000000000000000000000000000000000000000000",
      "type": "0x2",
      "transactionHash": "0x160b043bfb702e02eacfa57f6fd4d7d48bbd9b8426c170ae55207e507dd36cdb",
      "transactionIndex": "0x6",
      "blockHash": "0xde557add67727d1a09ecb645f44541654940ef8184a5ab7a72fc0f6c10b455fa",
      "blockNumber": "0xe2a005",
      "gasUsed": "0xb9a9",
      "effectiveGasPrice": "0xf4369",
      "blobGasUsed": "0x0",
      "from": "0x12b2434a1022d5787bf06056f2885fe35de62bf8",
      "to": "0x948ee90e44f83ee3f84b7f91230e17bfa0d0cd41",
      "contractAddress": null,
      "l1BaseFeeScalar": "0x44d",
      "l1BlobBaseFee": "0x25aa2502a52",
      "l1BlobBaseFeeScalar": "0xa118b",
      "l1Fee": "0x9b5f4fbd8368",
      "l1GasPrice": "0x5edcd4d3c",
      "l1GasUsed": "0x640"
    },
    {
      "status": "0x1",
      "cumulativeGasUsed": "0x132228",
      "logs": [],
      "logsBloom": "0x00000000000000000000000000000000000000000000000000000000000000000000000000000000000000000000000000000000000000000000000000000000000000000000000000000000000000000000000000000000000000000000000000000000000000000000000000000000000000000000000000000000000000000000000000000000000000000000000000000000000000000000000000000000000000000000000000000000000000000000000000000000000000000000000000000000000000000000000000000000000000000000000000000000000000000000000000000000000000000000000000000000000000000000000000000000",
      "type": "0x2",
      "transactionHash": "0x320fc316aa6f8f44ed3d14060c5a4aae0bd6ea8567119a93f99b3848b8a511bf",
      "transactionIndex": "0x7",
      "blockHash": "0xde557add67727d1a09ecb645f44541654940ef8184a5ab7a72fc0f6c10b455fa",
      "blockNumber": "0xe2a005",
      "gasUsed": "0xb504",
      "effectiveGasPrice": "0xf4369",
      "blobGasUsed": "0x0",
      "from": "0x12b2434a1022d5787bf06056f2885fe35de62bf8",
      "to": "0x948ee90e44f83ee3f84b7f91230e17bfa0d0cd41",
      "contractAddress": null,
      "l1BaseFeeScalar": "0x44d",
      "l1BlobBaseFee": "0x25aa2502a52",
      "l1BlobBaseFeeScalar": "0xa118b",
      "l1Fee": "0x9b5f4fbd8368",
      "l1GasPrice": "0x5edcd4d3c",
      "l1GasUsed": "0x640"
    }
  ],
  "libraries": [],
  "pending": [],
  "returns": {},
  "timestamp": 1725472492,
  "chain": 84532,
  "commit": "da4a4b9"
}