{
  "transactions": [
    {
      "hash": "0x96a1b9121061a4fa5cb0bf667b65d30733bd9d7e1fbc164eafe3b8ce9d01157d",
      "transactionType": "CALL",
      "contractName": null,
      "contractAddress": "0x0e54e9e87148422da6074dc101012ab05f51aa57",
      "function": "setPeer(uint32,bytes32)",
      "arguments": [
        "40232",
        "0x000000000000000000000000c8cf2e49634ce0cef0ff8331e3d139882469202a"
      ],
      "transaction": {
        "from": "0x12b2434a1022d5787bf06056f2885fe35de62bf8",
        "to": "0x0e54e9e87148422da6074dc101012ab05f51aa57",
        "gas": "0x10f7c",
        "value": "0x0",
        "input": "0x3400288b0000000000000000000000000000000000000000000000000000000000009d28000000000000000000000000c8cf2e49634ce0cef0ff8331e3d139882469202a",
        "nonce": "0x83",
        "chainId": "0x14a34"
      },
      "additionalContracts": [],
      "isFixedGasLimit": false
    },
    {
      "hash": "0xd2f4668024453fa67b40c13095bf24cbed636e0fed05dfd2c56e67d474d1be66",
      "transactionType": "CALL",
      "contractName": null,
      "contractAddress": "0x0e54e9e87148422da6074dc101012ab05f51aa57",
      "function": "setComposerEid(uint32)",
      "arguments": [
        "40232"
      ],
      "transaction": {
        "from": "0x12b2434a1022d5787bf06056f2885fe35de62bf8",
        "to": "0x0e54e9e87148422da6074dc101012ab05f51aa57",
        "gas": "0xf96e",
        "value": "0x0",
        "input": "0xd30fce920000000000000000000000000000000000000000000000000000000000009d28",
        "nonce": "0x84",
        "chainId": "0x14a34"
      },
      "additionalContracts": [],
      "isFixedGasLimit": false
    }
  ],
  "receipts": [
    {
      "status": "0x1",
      "cumulativeGasUsed": "0x109020",
      "logs": [
        {
          "address": "0x0e54e9e87148422da6074dc101012ab05f51aa57",
          "topics": [
            "0x238399d427b947898edb290f5ff0f9109849b1c3ba196a42e35f00c50a54b98b"
          ],
          "data": "0x0000000000000000000000000000000000000000000000000000000000009d28000000000000000000000000c8cf2e49634ce0cef0ff8331e3d139882469202a",
          "blockHash": "0xdac8acb3155f02f9c61c16bef9cfa1e0e948d32045f3c80fd0889276cd97fbb5",
          "blockNumber": "0xe310ab",
          "transactionHash": "0x96a1b9121061a4fa5cb0bf667b65d30733bd9d7e1fbc164eafe3b8ce9d01157d",
          "transactionIndex": "0x5",
          "logIndex": "0x6",
          "removed": false
        }
      ],
      "logsBloom": "0x00000000000000000000000000000000000000000000000000000000000000000000000000000000000000000000000000000000000000000800000000000000000000000000000000000000000000000000000000000000000000000000000000000000200000000000000000000000000000000000000000000000000000000000000000000000000000000002000000000000000000000000000000000000000000000000000000000000000000000000000000000000000002000000000000000000000000000000000000000000000000000000000080040000000000000000000000000000000000000000000000000000000000000000000000000000",
      "type": "0x2",
      "transactionHash": "0x96a1b9121061a4fa5cb0bf667b65d30733bd9d7e1fbc164eafe3b8ce9d01157d",
      "transactionIndex": "0x5",
      "blockHash": "0xdac8acb3155f02f9c61c16bef9cfa1e0e948d32045f3c80fd0889276cd97fbb5",
      "blockNumber": "0xe310ab",
      "gasUsed": "0xb9a2",
      "effectiveGasPrice": "0xa0011",
      "blobGasUsed": "0x0",
      "from": "0x12b2434a1022d5787bf06056f2885fe35de62bf8",
      "to": "0x0e54e9e87148422da6074dc101012ab05f51aa57",
      "contractAddress": null,
      "l1BaseFeeScalar": "0x44d",
      "l1BlobBaseFee": "0xab906fe6c9",
      "l1BlobBaseFeeScalar": "0xa118b",
      "l1Fee": "0x2c4a539ab094",
      "l1GasPrice": "0xa043e04ae",
      "l1GasUsed": "0x640"
    },
    {
      "status": "0x1",
      "cumulativeGasUsed": "0x1144b6",
      "logs": [],
      "logsBloom": "0x00000000000000000000000000000000000000000000000000000000000000000000000000000000000000000000000000000000000000000000000000000000000000000000000000000000000000000000000000000000000000000000000000000000000000000000000000000000000000000000000000000000000000000000000000000000000000000000000000000000000000000000000000000000000000000000000000000000000000000000000000000000000000000000000000000000000000000000000000000000000000000000000000000000000000000000000000000000000000000000000000000000000000000000000000000000",
      "type": "0x2",
      "transactionHash": "0xd2f4668024453fa67b40c13095bf24cbed636e0fed05dfd2c56e67d474d1be66",
      "transactionIndex": "0x6",
      "blockHash": "0xdac8acb3155f02f9c61c16bef9cfa1e0e948d32045f3c80fd0889276cd97fbb5",
      "blockNumber": "0xe310ab",
      "gasUsed": "0xb496",
      "effectiveGasPrice": "0xa0011",
      "blobGasUsed": "0x0",
      "from": "0x12b2434a1022d5787bf06056f2885fe35de62bf8",
      "to": "0x0e54e9e87148422da6074dc101012ab05f51aa57",
      "contractAddress": null,
      "l1BaseFeeScalar": "0x44d",
      "l1BlobBaseFee": "0xab906fe6c9",
      "l1BlobBaseFeeScalar": "0xa118b",
      "l1Fee": "0x2c4a539ab094",
      "l1GasPrice": "0xa043e04ae",
      "l1GasUsed": "0x640"
    }
  ],
  "libraries": [],
  "pending": [],
  "returns": {},
  "timestamp": 1725530172,
  "chain": 84532,
  "commit": "6821207"
}