{
  "transactions": [
    {
      "hash": "0x3ef9490a3d14eacc625a789b0503cb9081b28c047f864035121208eaa97cbac1",
      "transactionType": "CALL",
      "contractName": null,
      "contractAddress": "0x73f1f72dc8f81df3c21dd60156058d592529bbc0",
      "function": "setPeer(uint32,bytes32)",
      "arguments": [
        "40232",
        "0x0000000000000000000000006aba63870bf8bdf3888b5f794ddf7de2aeda5060"
      ],
      "transaction": {
        "from": "0xb0efd2b19a5698a9c830548ac22708a28c9d4552",
        "to": "0x73f1f72dc8f81df3c21dd60156058d592529bbc0",
        "gas": "0x10f7c",
        "value": "0x0",
        "input": "0x3400288b0000000000000000000000000000000000000000000000000000000000009d280000000000000000000000006aba63870bf8bdf3888b5f794ddf7de2aeda5060",
        "nonce": "0x95",
        "chainId": "0x14a34"
      },
      "additionalContracts": [],
      "isFixedGasLimit": false
    },
    {
      "hash": "0x34141c3a2826ec01fa0dbebbd86231e60c6eeb6a4b090f50f5ecad6b9838a215",
      "transactionType": "CALL",
      "contractName": null,
      "contractAddress": "0x73f1f72dc8f81df3c21dd60156058d592529bbc0",
      "function": "setComposerEid(uint32)",
      "arguments": [
        "40232"
      ],
      "transaction": {
        "from": "0xb0efd2b19a5698a9c830548ac22708a28c9d4552",
        "to": "0x73f1f72dc8f81df3c21dd60156058d592529bbc0",
        "gas": "0xf96e",
        "value": "0x0",
        "input": "0xd30fce920000000000000000000000000000000000000000000000000000000000009d28",
        "nonce": "0x96",
        "chainId": "0x14a34"
      },
      "additionalContracts": [],
      "isFixedGasLimit": false
    }
  ],
  "receipts": [
    {
      "status": "0x1",
      "cumulativeGasUsed": "0x1d7dee",
      "logs": [
        {
          "address": "0x73f1f72dc8f81df3c21dd60156058d592529bbc0",
          "topics": [
            "0x238399d427b947898edb290f5ff0f9109849b1c3ba196a42e35f00c50a54b98b"
          ],
          "data": "0x0000000000000000000000000000000000000000000000000000000000009d280000000000000000000000006aba63870bf8bdf3888b5f794ddf7de2aeda5060",
          "blockHash": "0x88866e02b28c0f89ff5ed836fe41821760f7d9752046f39f2488717ceede5008",
          "blockNumber": "0xe30931",
          "transactionHash": "0x3ef9490a3d14eacc625a789b0503cb9081b28c047f864035121208eaa97cbac1",
          "transactionIndex": "0x6",
          "logIndex": "0x11",
          "removed": false
        }
      ],
      "logsBloom": "0x00000000000000000000000000000000000000000000000000000000000000000000000000000000000000000000000000000000000000000800000000000000000000000000000000000000000000000000000000000000000000000000003000000000000000000000000000000000000000000000000000000000000000000000000000000000000000000000000000000000000000000000000000000000000000000000000000000000000000000000000000000000000002000000000000000010000000000000000000000000000000000000000000040000000000000000000000000000000000000000000000000000000000000000000000000000",
      "type": "0x2",
      "transactionHash": "0x3ef9490a3d14eacc625a789b0503cb9081b28c047f864035121208eaa97cbac1",
      "transactionIndex": "0x6",
      "blockHash": "0x88866e02b28c0f89ff5ed836fe41821760f7d9752046f39f2488717ceede5008",
      "blockNumber": "0xe30931",
      "gasUsed": "0xb9a2",
      "effectiveGasPrice": "0x187d1",
      "from": "0xb0efd2b19a5698a9c830548ac22708a28c9d4552",
      "to": "0x73f1f72dc8f81df3c21dd60156058d592529bbc0",
      "contractAddress": null,
      "l1BaseFeeScalar": "0x44d",
      "l1BlobBaseFee": "0x98806356d5",
      "l1BlobBaseFeeScalar": "0xa118b",
      "l1Fee": "0x2760bda8d422",
      "l1GasPrice": "0xa2b2c6885",
      "l1GasUsed": "0x640"
    },
    {
      "status": "0x1",
      "cumulativeGasUsed": "0x1e3284",
      "logs": [],
      "logsBloom": "0x00000000000000000000000000000000000000000000000000000000000000000000000000000000000000000000000000000000000000000000000000000000000000000000000000000000000000000000000000000000000000000000000000000000000000000000000000000000000000000000000000000000000000000000000000000000000000000000000000000000000000000000000000000000000000000000000000000000000000000000000000000000000000000000000000000000000000000000000000000000000000000000000000000000000000000000000000000000000000000000000000000000000000000000000000000000",
      "type": "0x2",
      "transactionHash": "0x34141c3a2826ec01fa0dbebbd86231e60c6eeb6a4b090f50f5ecad6b9838a215",
      "transactionIndex": "0x7",
      "blockHash": "0x88866e02b28c0f89ff5ed836fe41821760f7d9752046f39f2488717ceede5008",
      "blockNumber": "0xe30931",
      "gasUsed": "0xb496",
      "effectiveGasPrice": "0x187d1",
      "from": "0xb0efd2b19a5698a9c830548ac22708a28c9d4552",
      "to": "0x73f1f72dc8f81df3c21dd60156058d592529bbc0",
      "contractAddress": null,
      "l1BaseFeeScalar": "0x44d",
      "l1BlobBaseFee": "0x98806356d5",
      "l1BlobBaseFeeScalar": "0xa118b",
      "l1Fee": "0x2760bda8d422",
      "l1GasPrice": "0xa2b2c6885",
      "l1GasUsed": "0x640"
    }
  ],
  "libraries": [],
  "pending": [],
  "returns": {},
  "timestamp": 1725526343,
  "chain": 84532,
  "commit": "8370d5b"
}