{
  "transactions": [
    {
      "hash": "0x5ac2fbc604aa32a24281a136d5cbc01b101e69684eda2fc5ab1ad8ad2ff689fc",
      "transactionType": "CALL",
      "contractName": null,
      "contractAddress": "0x5a70ce8e9dd57b1fbe6b77ae40d3d81206229fa7",
      "function": "setPeer(uint32,bytes32)",
      "arguments": [
        "40232",
        "0x0000000000000000000000006015bb11856889ae9e96e9635ca0d6757f44b71b"
      ],
      "transaction": {
        "from": "0x12b2434a1022d5787bf06056f2885fe35de62bf8",
        "to": "0x5a70ce8e9dd57b1fbe6b77ae40d3d81206229fa7",
        "gas": "0x10f66",
        "value": "0x0",
        "input": "0x3400288b0000000000000000000000000000000000000000000000000000000000009d280000000000000000000000006015bb11856889ae9e96e9635ca0d6757f44b71b",
        "nonce": "0xa0",
        "chainId": "0x14a34"
      },
      "additionalContracts": [],
      "isFixedGasLimit": false
    },
    {
      "hash": "0xb0cfcc957ee6ed12bd896d1328be44ddc7c76b6c32f8320312477b6347b9f165",
      "transactionType": "CALL",
      "contractName": null,
      "contractAddress": "0x5a70ce8e9dd57b1fbe6b77ae40d3d81206229fa7",
      "function": "setComposerEid(uint32)",
      "arguments": [
        "40232"
      ],
      "transaction": {
        "from": "0x12b2434a1022d5787bf06056f2885fe35de62bf8",
        "to": "0x5a70ce8e9dd57b1fbe6b77ae40d3d81206229fa7",
        "gas": "0xf96e",
        "value": "0x0",
        "input": "0xd30fce920000000000000000000000000000000000000000000000000000000000009d28",
        "nonce": "0xa1",
        "chainId": "0x14a34"
      },
      "additionalContracts": [],
      "isFixedGasLimit": false
    }
  ],
  "receipts": [
    {
      "status": "0x1",
      "cumulativeGasUsed": "0x66ac9",
      "logs": [
        {
          "address": "0x5a70ce8e9dd57b1fbe6b77ae40d3d81206229fa7",
          "topics": [
            "0x238399d427b947898edb290f5ff0f9109849b1c3ba196a42e35f00c50a54b98b"
          ],
          "data": "0x0000000000000000000000000000000000000000000000000000000000009d280000000000000000000000006015bb11856889ae9e96e9635ca0d6757f44b71b",
          "blockHash": "0x3befe5a69fa6a34ff203950dba20c9dc1a32b798cd613ae137a7096a3acb9077",
          "blockNumber": "0xe3255e",
          "transactionHash": "0x5ac2fbc604aa32a24281a136d5cbc01b101e69684eda2fc5ab1ad8ad2ff689fc",
          "transactionIndex": "0x4",
          "logIndex": "0x6",
          "removed": false
        }
      ],
      "logsBloom": "0x00000000000000000000000020000000000000000000000000000000000000000000000000000000000000000000000000000000000000000808000000000000000000000000000000000000000000000000000000000000000000000000000000000000000000000000000000000000000000000000000000000000000000000000000000000000000000000000000000000000000000000000000000000000000000010000000000000000000000000000000000000000000002000000000000000000000000000000000000000000000000000000000000040000000000000000000000000000000000000000000000000000000000000000000000000000",
      "type": "0x2",
      "transactionHash": "0x5ac2fbc604aa32a24281a136d5cbc01b101e69684eda2fc5ab1ad8ad2ff689fc",
      "transactionIndex": "0x4",
      "blockHash": "0x3befe5a69fa6a34ff203950dba20c9dc1a32b798cd613ae137a7096a3acb9077",
      "blockNumber": "0xe3255e",
      "gasUsed": "0xb993",
      "effectiveGasPrice": "0x149",
      "blobGasUsed": "0x0",
      "from": "0x12b2434a1022d5787bf06056f2885fe35de62bf8",
      "to": "0x5a70ce8e9dd57b1fbe6b77ae40d3d81206229fa7",
      "contractAddress": null,
      "l1BaseFeeScalar": "0x44d",
      "l1BlobBaseFee": "0x12942e9ac9b",
      "l1BlobBaseFeeScalar": "0xa118b",
      "l1Fee": "0x4ced4dd9ef62",
      "l1GasPrice": "0x2c8d3eeb91",
      "l1GasUsed": "0x640"
    },
    {
      "status": "0x1",
      "cumulativeGasUsed": "0x71f5f",
      "logs": [],
      "logsBloom": "0x00000000000000000000000000000000000000000000000000000000000000000000000000000000000000000000000000000000000000000000000000000000000000000000000000000000000000000000000000000000000000000000000000000000000000000000000000000000000000000000000000000000000000000000000000000000000000000000000000000000000000000000000000000000000000000000000000000000000000000000000000000000000000000000000000000000000000000000000000000000000000000000000000000000000000000000000000000000000000000000000000000000000000000000000000000000",
      "type": "0x2",
      "transactionHash": "0xb0cfcc957ee6ed12bd896d1328be44ddc7c76b6c32f8320312477b6347b9f165",
      "transactionIndex": "0x5",
      "blockHash": "0x3befe5a69fa6a34ff203950dba20c9dc1a32b798cd613ae137a7096a3acb9077",
      "blockNumber": "0xe3255e",
      "gasUsed": "0xb496",
      "effectiveGasPrice": "0x149",
      "blobGasUsed": "0x0",
      "from": "0x12b2434a1022d5787bf06056f2885fe35de62bf8",
      "to": "0x5a70ce8e9dd57b1fbe6b77ae40d3d81206229fa7",
      "contractAddress": null,
      "l1BaseFeeScalar": "0x44d",
      "l1BlobBaseFee": "0x12942e9ac9b",
      "l1BlobBaseFeeScalar": "0xa118b",
      "l1Fee": "0x4ced4dd9ef62",
      "l1GasPrice": "0x2c8d3eeb91",
      "l1GasUsed": "0x640"
    }
  ],
  "libraries": [],
  "pending": [],
  "returns": {},
  "timestamp": 1725540771,
  "chain": 84532,
  "commit": "c5b011b"
}