{
  "transactions": [
    {
      "hash": "0xb3eda91a3d70c11923bea8ce1a286d23342cbe43d65db2412e4c552a3766c2cd",
      "transactionType": "CALL",
      "contractName": null,
      "contractAddress": "0x573cb0c3f0e8a307640c7a479bd1814d91274a5b",
      "function": "setPeer(uint32,bytes32)",
      "arguments": [
        "40232",
        "0x000000000000000000000000141ea5d5536d81123b4f34fc3f3aebd9603aa1ab"
      ],
      "transaction": {
        "from": "0xb0efd2b19a5698a9c830548ac22708a28c9d4552",
        "to": "0x573cb0c3f0e8a307640c7a479bd1814d91274a5b",
        "gas": "0x10f87",
        "value": "0x0",
        "input": "0x3400288b0000000000000000000000000000000000000000000000000000000000009d28000000000000000000000000141ea5d5536d81123b4f34fc3f3aebd9603aa1ab",
        "nonce": "0x5e",
        "chainId": "0x14a34"
      },
      "additionalContracts": [],
      "isFixedGasLimit": false
    },
    {
      "hash": "0x869ff1d5deee8ca1ffcc95c96bccf64ffce48c54ad6aa64455977ec9e38a18f6",
      "transactionType": "CALL",
      "contractName": null,
      "contractAddress": "0x573cb0c3f0e8a307640c7a479bd1814d91274a5b",
      "function": "setComposerEid(uint32)",
      "arguments": [
        "40232"
      ],
      "transaction": {
        "from": "0xb0efd2b19a5698a9c830548ac22708a28c9d4552",
        "to": "0x573cb0c3f0e8a307640c7a479bd1814d91274a5b",
        "gas": "0xf9e7",
        "value": "0x0",
        "input": "0xd30fce920000000000000000000000000000000000000000000000000000000000009d28",
        "nonce": "0x5f",
        "chainId": "0x14a34"
      },
      "additionalContracts": [],
      "isFixedGasLimit": false
    }
  ],
  "receipts": [
    {
      "status": "0x1",
      "cumulativeGasUsed": "0x203242",
      "logs": [
        {
          "address": "0x573cb0c3f0e8a307640c7a479bd1814d91274a5b",
          "topics": [
            "0x238399d427b947898edb290f5ff0f9109849b1c3ba196a42e35f00c50a54b98b"
          ],
          "data": "0x0000000000000000000000000000000000000000000000000000000000009d28000000000000000000000000141ea5d5536d81123b4f34fc3f3aebd9603aa1ab",
          "blockHash": "0x5a16507fbad880d62eb36df3915797034471dcb74cb5bdbc306a258eebd7a773",
          "blockNumber": "0xe2e396",
          "transactionHash": "0xb3eda91a3d70c11923bea8ce1a286d23342cbe43d65db2412e4c552a3766c2cd",
          "transactionIndex": "0xa",
          "logIndex": "0x2e",
          "removed": false
        }
      ],
      "logsBloom": "0x00000000000000000000000000000000000000000000000000800000000000000000000000000000000000000000000000000000000000000800000000000000000000000000000000000000000000000000000000000000000000000000000000000000000000000000000000000000000000000000000000000000000000000000000000000000000000000000000000400000000000000000000000000000000000000000000000000000000000000000000010000000000002000000000000000000000000000000000000000000000000000000000000040000000000000000000000000000000000000000000000000000000000000000000000000000",
      "type": "0x2",
      "transactionHash": "0xb3eda91a3d70c11923bea8ce1a286d23342cbe43d65db2412e4c552a3766c2cd",
      "transactionIndex": "0xa",
      "blockHash": "0x5a16507fbad880d62eb36df3915797034471dcb74cb5bdbc306a258eebd7a773",
      "blockNumber": "0xe2e396",
      "gasUsed": "0xb9a9",
      "effectiveGasPrice": "0x16e",
      "from": "0xb0efd2b19a5698a9c830548ac22708a28c9d4552",
      "to": "0x573cb0c3f0e8a307640c7a479bd1814d91274a5b",
      "contractAddress": null,
      "l1BaseFeeScalar": "0x44d",
      "l1BlobBaseFee": "0x251b2107c1",
      "l1BlobBaseFeeScalar": "0xa118b",
      "l1Fee": "0x9936a581f60",
      "l1GasPrice": "0x1b03381b2",
      "l1GasUsed": "0x640"
    },
    {
      "status": "0x1",
      "cumulativeGasUsed": "0x20e730",
      "logs": [],
      "logsBloom": "0x00000000000000000000000000000000000000000000000000000000000000000000000000000000000000000000000000000000000000000000000000000000000000000000000000000000000000000000000000000000000000000000000000000000000000000000000000000000000000000000000000000000000000000000000000000000000000000000000000000000000000000000000000000000000000000000000000000000000000000000000000000000000000000000000000000000000000000000000000000000000000000000000000000000000000000000000000000000000000000000000000000000000000000000000000000000",
      "type": "0x2",
      "transactionHash": "0x869ff1d5deee8ca1ffcc95c96bccf64ffce48c54ad6aa64455977ec9e38a18f6",
      "transactionIndex": "0xb",
      "blockHash": "0x5a16507fbad880d62eb36df3915797034471dcb74cb5bdbc306a258eebd7a773",
      "blockNumber": "0xe2e396",
      "gasUsed": "0xb4ee",
      "effectiveGasPrice": "0x16e",
      "from": "0xb0efd2b19a5698a9c830548ac22708a28c9d4552",
      "to": "0x573cb0c3f0e8a307640c7a479bd1814d91274a5b",
      "contractAddress": null,
      "l1BaseFeeScalar": "0x44d",
      "l1BlobBaseFee": "0x251b2107c1",
      "l1BlobBaseFeeScalar": "0xa118b",
      "l1Fee": "0x9936a581f60",
      "l1GasPrice": "0x1b03381b2",
      "l1GasUsed": "0x640"
    }
  ],
  "libraries": [],
  "pending": [],
  "returns": {},
  "timestamp": 1725507089,
  "chain": 84532,
  "commit": "8370d5b"
}