{
  "transactions": [
    {
      "hash": "0x179cc20bf58b975cc37942db561e6b9a33ae9a36afc3ea4f42d4dcb90036493f",
      "transactionType": "CALL",
      "contractName": null,
      "contractAddress": "0x2aef4ab12a5b8dbd420abc44ce5c3ac562352526",
      "function": "setPeer(uint32,bytes32)",
      "arguments": [
        "40232",
        "0x000000000000000000000000141ea5d5536d81123b4f34fc3f3aebd9603aa1ab"
      ],
      "transaction": {
        "from": "0x12b2434a1022d5787bf06056f2885fe35de62bf8",
        "to": "0x2aef4ab12a5b8dbd420abc44ce5c3ac562352526",
        "gas": "0x10f87",
        "value": "0x0",
        "input": "0x3400288b0000000000000000000000000000000000000000000000000000000000009d28000000000000000000000000141ea5d5536d81123b4f34fc3f3aebd9603aa1ab",
        "nonce": "0x7d",
        "chainId": "0x14a34"
      },
      "additionalContracts": [],
      "isFixedGasLimit": false
    },
    {
      "hash": "0xc87fdd82e9ddb1481d398ec2b7659f4aa18139818bc0f21152086ce43b6c68ce",
      "transactionType": "CALL",
      "contractName": null,
      "contractAddress": "0x2aef4ab12a5b8dbd420abc44ce5c3ac562352526",
      "function": "setComposerEid(uint32)",
      "arguments": [
        "40232"
      ],
      "transaction": {
        "from": "0x12b2434a1022d5787bf06056f2885fe35de62bf8",
        "to": "0x2aef4ab12a5b8dbd420abc44ce5c3ac562352526",
        "gas": "0xfa06",
        "value": "0x0",
        "input": "0xd30fce920000000000000000000000000000000000000000000000000000000000009d28",
        "nonce": "0x7e",
        "chainId": "0x14a34"
      },
      "additionalContracts": [],
      "isFixedGasLimit": false
    }
  ],
  "receipts": [
    {
      "status": "0x1",
      "cumulativeGasUsed": "0x1ceea3",
      "logs": [
        {
          "address": "0x2aef4ab12a5b8dbd420abc44ce5c3ac562352526",
          "topics": [
            "0x238399d427b947898edb290f5ff0f9109849b1c3ba196a42e35f00c50a54b98b"
          ],
          "data": "0x0000000000000000000000000000000000000000000000000000000000009d28000000000000000000000000141ea5d5536d81123b4f34fc3f3aebd9603aa1ab",
          "blockHash": "0x48b93f011bf5cfe042511458c14c5eb1b08140ce49fdeb347d4b6966b10d02f1",
          "blockNumber": "0xe2b1b1",
          "transactionHash": "0x179cc20bf58b975cc37942db561e6b9a33ae9a36afc3ea4f42d4dcb90036493f",
          "transactionIndex": "0x9",
          "logIndex": "0x24",
          "removed": false
        }
      ],
      "logsBloom": "0x00000000000000000000000000000000000020000000000000000000000000000000000000000000000000000000000000000020000000000800000000000000000000000000000000000000000000000000040000000000000000000000000000000000000000000000000000000000000000000000000000000000000000000000000000000000000000000000000000000000000000000000000000000000000000000000000000000000000000000000000000000000000002000000000000000000000000000000000000000000000000000000000000040000000000000000000000000000000000000000000000000000000000000000000000000000",
      "type": "0x2",
      "transactionHash": "0x179cc20bf58b975cc37942db561e6b9a33ae9a36afc3ea4f42d4dcb90036493f",
      "transactionIndex": "0x9",
      "blockHash": "0x48b93f011bf5cfe042511458c14c5eb1b08140ce49fdeb347d4b6966b10d02f1",
      "blockNumber": "0xe2b1b1",
      "gasUsed": "0xb9a9",
      "effectiveGasPrice": "0x7b3ad",
      "blobGasUsed": "0x0",
      "from": "0x12b2434a1022d5787bf06056f2885fe35de62bf8",
      "to": "0x2aef4ab12a5b8dbd420abc44ce5c3ac562352526",
      "contractAddress": null,
      "l1BaseFeeScalar": "0x44d",
      "l1BlobBaseFee": "0x11993d0609",
      "l1BlobBaseFeeScalar": "0xa118b",
      "l1Fee": "0x48b555f683d",
      "l1GasPrice": "0x12f91cd27",
      "l1GasUsed": "0x640"
    },
    {
      "status": "0x1",
      "cumulativeGasUsed": "0x1da3a7",
      "logs": [],
      "logsBloom": "0x00000000000000000000000000000000000000000000000000000000000000000000000000000000000000000000000000000000000000000000000000000000000000000000000000000000000000000000000000000000000000000000000000000000000000000000000000000000000000000000000000000000000000000000000000000000000000000000000000000000000000000000000000000000000000000000000000000000000000000000000000000000000000000000000000000000000000000000000000000000000000000000000000000000000000000000000000000000000000000000000000000000000000000000000000000000",
      "type": "0x2",
      "transactionHash": "0xc87fdd82e9ddb1481d398ec2b7659f4aa18139818bc0f21152086ce43b6c68ce",
      "transactionIndex": "0xa",
      "blockHash": "0x48b93f011bf5cfe042511458c14c5eb1b08140ce49fdeb347d4b6966b10d02f1",
      "blockNumber": "0xe2b1b1",
      "gasUsed": "0xb504",
      "effectiveGasPrice": "0x7b3ad",
      "blobGasUsed": "0x0",
      "from": "0x12b2434a1022d5787bf06056f2885fe35de62bf8",
      "to": "0x2aef4ab12a5b8dbd420abc44ce5c3ac562352526",
      "contractAddress": null,
      "l1BaseFeeScalar": "0x44d",
      "l1BlobBaseFee": "0x11993d0609",
      "l1BlobBaseFeeScalar": "0xa118b",
      "l1Fee": "0x48b555f683d",
      "l1GasPrice": "0x12f91cd27",
      "l1GasUsed": "0x640"
    }
  ],
  "libraries": [],
  "pending": [],
  "returns": {},
  "timestamp": 1725481544,
  "chain": 84532,
  "commit": "da4a4b9"
}