{
  "transactions": [
    {
      "hash": "0x87e14cbb224c4d4ae6a2c8c1d7923b894e00a0720baae863233e9e9b754c8539",
      "transactionType": "CALL",
      "contractName": null,
      "contractAddress": "0x1ab2fbaf0208d6f60f3220dfa911e1c2025aba77",
      "function": "setPeer(uint32,bytes32)",
      "arguments": [
        "40232",
        "0x0000000000000000000000008fcbe84da945a1641e5e3ff1e09df2cf286573c5"
      ],
      "transaction": {
        "from": "0xb0efd2b19a5698a9c830548ac22708a28c9d4552",
        "to": "0x1ab2fbaf0208d6f60f3220dfa911e1c2025aba77",
        "gas": "0x10f7c",
        "value": "0x0",
        "input": "0x3400288b0000000000000000000000000000000000000000000000000000000000009d280000000000000000000000008fcbe84da945a1641e5e3ff1e09df2cf286573c5",
        "nonce": "0x77",
        "chainId": "0x14a34"
      },
      "additionalContracts": [],
      "isFixedGasLimit": false
    },
    {
      "hash": "0x55cef34a7637ee537fb71bbf72e8add6a9e261660ad9f28b5afd3192704ebfd8",
      "transactionType": "CALL",
      "contractName": null,
      "contractAddress": "0x1ab2fbaf0208d6f60f3220dfa911e1c2025aba77",
      "function": "setComposerEid(uint32)",
      "arguments": [
        "40232"
      ],
      "transaction": {
        "from": "0xb0efd2b19a5698a9c830548ac22708a28c9d4552",
        "to": "0x1ab2fbaf0208d6f60f3220dfa911e1c2025aba77",
        "gas": "0xf98c",
        "value": "0x0",
        "input": "0xd30fce920000000000000000000000000000000000000000000000000000000000009d28",
        "nonce": "0x78",
        "chainId": "0x14a34"
      },
      "additionalContracts": [],
      "isFixedGasLimit": false
    }
  ],
  "receipts": [
    {
      "status": "0x1",
      "cumulativeGasUsed": "0x11377b",
      "logs": [
        {
          "address": "0x1ab2fbaf0208d6f60f3220dfa911e1c2025aba77",
          "topics": [
            "0x238399d427b947898edb290f5ff0f9109849b1c3ba196a42e35f00c50a54b98b"
          ],
          "data": "0x0000000000000000000000000000000000000000000000000000000000009d280000000000000000000000008fcbe84da945a1641e5e3ff1e09df2cf286573c5",
          "blockHash": "0xb8ea9f23df283bef5b7154a7d006c35d3bc7e05b468b81230edea09b21a29d00",
          "blockNumber": "0xe2fd09",
          "transactionHash": "0x87e14cbb224c4d4ae6a2c8c1d7923b894e00a0720baae863233e9e9b754c8539",
          "transactionIndex": "0x5",
          "logIndex": "0x9",
          "removed": false
        }
      ],
      "logsBloom": "0x00000000000000000000000000000000000000000000000000000000000000000000000000000000000000000000000000000000000000000800000000000000000000000000000000000000000000000000000000000000000000000000000000000000000000000000800000000000000000000000000000000000000000000000000000000000000000004000000000000000000000000000000000000000000000000000000000000000000000000000000000000000000002000000000000000000000000000000000000000000000000000000010000040000000000000000000000000000000000000000000000000000000000000000000000000000",
      "type": "0x2",
      "transactionHash": "0x87e14cbb224c4d4ae6a2c8c1d7923b894e00a0720baae863233e9e9b754c8539",
      "transactionIndex": "0x5",
      "blockHash": "0xb8ea9f23df283bef5b7154a7d006c35d3bc7e05b468b81230edea09b21a29d00",
      "blockNumber": "0xe2fd09",
      "gasUsed": "0xb9a2",
      "effectiveGasPrice": "0x1894d",
      "from": "0xb0efd2b19a5698a9c830548ac22708a28c9d4552",
      "to": "0x1ab2fbaf0208d6f60f3220dfa911e1c2025aba77",
      "contractAddress": null,
      "l1BaseFeeScalar": "0x44d",
      "l1BlobBaseFee": "0x169bc9f5e86",
      "l1BlobBaseFeeScalar": "0xa118b",
      "l1Fee": "0x5d7bf488b249",
      "l1GasPrice": "0x239a04ce24",
      "l1GasUsed": "0x640"
    },
    {
      "status": "0x1",
      "cumulativeGasUsed": "0x11ec27",
      "logs": [],
      "logsBloom": "0x00000000000000000000000000000000000000000000000000000000000000000000000000000000000000000000000000000000000000000000000000000000000000000000000000000000000000000000000000000000000000000000000000000000000000000000000000000000000000000000000000000000000000000000000000000000000000000000000000000000000000000000000000000000000000000000000000000000000000000000000000000000000000000000000000000000000000000000000000000000000000000000000000000000000000000000000000000000000000000000000000000000000000000000000000000000",
      "type": "0x2",
      "transactionHash": "0x55cef34a7637ee537fb71bbf72e8add6a9e261660ad9f28b5afd3192704ebfd8",
      "transactionIndex": "0x6",
      "blockHash": "0xb8ea9f23df283bef5b7154a7d006c35d3bc7e05b468b81230edea09b21a29d00",
      "blockNumber": "0xe2fd09",
      "gasUsed": "0xb4ac",
      "effectiveGasPrice": "0x1894d",
      "from": "0xb0efd2b19a5698a9c830548ac22708a28c9d4552",
      "to": "0x1ab2fbaf0208d6f60f3220dfa911e1c2025aba77",
      "contractAddress": null,
      "l1BaseFeeScalar": "0x44d",
      "l1BlobBaseFee": "0x169bc9f5e86",
      "l1BlobBaseFeeScalar": "0xa118b",
      "l1Fee": "0x5d7bf488b249",
      "l1GasPrice": "0x239a04ce24",
      "l1GasUsed": "0x640"
    }
  ],
  "libraries": [],
  "pending": [],
  "returns": {},
  "timestamp": 1725520118,
  "chain": 84532,
  "commit": "8370d5b"
}