{
  "transactions": [
    {
      "hash": "0xc88402f08b033efaa7c79a3670a54ce58fd9821481c7052b832d069dd90d089e",
      "transactionType": "CALL",
      "contractName": null,
      "contractAddress": "0xaad1191f2ef0c86f7c9faebfc4c2142dd4485055",
      "function": "setPeer(uint32,bytes32)",
      "arguments": [
        "40161",
        "0x000000000000000000000000e473effdc30edbfb68990a517a21307d287ccbb3"
      ],
      "transaction": {
        "from": "0x12b2434a1022d5787bf06056f2885fe35de62bf8",
        "to": "0xaad1191f2ef0c86f7c9faebfc4c2142dd4485055",
        "gas": "0x10f87",
        "value": "0x0",
        "input": "0x3400288b0000000000000000000000000000000000000000000000000000000000009ce1000000000000000000000000e473effdc30edbfb68990a517a21307d287ccbb3",
        "nonce": "0x54",
        "chainId": "0x14a34"
      },
      "additionalContracts": [],
      "isFixedGasLimit": false
    },
    {
      "hash": "0x875f84f5ff00c39ff07d3929d2f4617aa3b069c060cd5b10957f851b8dd95b3b",
      "transactionType": "CALL",
      "contractName": null,
      "contractAddress": "0xaad1191f2ef0c86f7c9faebfc4c2142dd4485055",
      "function": "setComposerEid(uint32)",
      "arguments": [
        "40161"
      ],
      "transaction": {
        "from": "0x12b2434a1022d5787bf06056f2885fe35de62bf8",
        "to": "0xaad1191f2ef0c86f7c9faebfc4c2142dd4485055",
        "gas": "0xfa06",
        "value": "0x0",
        "input": "0xd30fce920000000000000000000000000000000000000000000000000000000000009ce1",
        "nonce": "0x55",
        "chainId": "0x14a34"
      },
      "additionalContracts": [],
      "isFixedGasLimit": false
    }
  ],
  "receipts": [
    {
      "status": "0x1",
      "cumulativeGasUsed": "0x68e43",
      "logs": [
        {
          "address": "0xaad1191f2ef0c86f7c9faebfc4c2142dd4485055",
          "topics": [
            "0x238399d427b947898edb290f5ff0f9109849b1c3ba196a42e35f00c50a54b98b"
          ],
          "data": "0x0000000000000000000000000000000000000000000000000000000000009ce1000000000000000000000000e473effdc30edbfb68990a517a21307d287ccbb3",
          "blockHash": "0x5cb71455711c240d1473ce8f05f8f9dd5567a41ee255644af79ca5586c62a61e",
          "blockNumber": "0xe2822c",
          "transactionHash": "0xc88402f08b033efaa7c79a3670a54ce58fd9821481c7052b832d069dd90d089e",
          "transactionIndex": "0x5",
          "logIndex": "0x1",
          "removed": false
        }
      ],
      "logsBloom": "0x00000000000000000000000000000000000000000000000000000000000000000000000000000000000000000000000000000000000000000800000000000000000000000000000000000000000000000000000000000000000000000000000000000000000000000000000000000000000000000000000000000000000000000000000000000000000000000000000000000000000000000000010000000000000000000000000000000000800000000000000000000000000002000000000000000000000000000000000000000000000000000000000001040000000000000000000000000000000000000000000000000000000000000000000000000000",
      "type": "0x2",
      "transactionHash": "0xc88402f08b033efaa7c79a3670a54ce58fd9821481c7052b832d069dd90d089e",
      "transactionIndex": "0x5",
      "blockHash": "0x5cb71455711c240d1473ce8f05f8f9dd5567a41ee255644af79ca5586c62a61e",
      "blockNumber": "0xe2822c",
      "gasUsed": "0xb9a9",
      "effectiveGasPrice": "0x500",
      "blobGasUsed": "0x0",
      "from": "0x12b2434a1022d5787bf06056f2885fe35de62bf8",
      "to": "0xaad1191f2ef0c86f7c9faebfc4c2142dd4485055",
      "contractAddress": null,
      "l1BaseFeeScalar": "0x44d",
      "l1BlobBaseFee": "0x17838b069f9",
      "l1BlobBaseFeeScalar": "0xa118b",
      "l1Fee": "0x610ff7de468d",
      "l1GasPrice": "0xd086cb3d6",
      "l1GasUsed": "0x640"
    },
    {
      "status": "0x1",
      "cumulativeGasUsed": "0x74347",
      "logs": [],
      "logsBloom": "0x00000000000000000000000000000000000000000000000000000000000000000000000000000000000000000000000000000000000000000000000000000000000000000000000000000000000000000000000000000000000000000000000000000000000000000000000000000000000000000000000000000000000000000000000000000000000000000000000000000000000000000000000000000000000000000000000000000000000000000000000000000000000000000000000000000000000000000000000000000000000000000000000000000000000000000000000000000000000000000000000000000000000000000000000000000000",
      "type": "0x2",
      "transactionHash": "0x875f84f5ff00c39ff07d3929d2f4617aa3b069c060cd5b10957f851b8dd95b3b",
      "transactionIndex": "0x6",
      "blockHash": "0x5cb71455711c240d1473ce8f05f8f9dd5567a41ee255644af79ca5586c62a61e",
      "blockNumber": "0xe2822c",
      "gasUsed": "0xb504",
      "effectiveGasPrice": "0x500",
      "blobGasUsed": "0x0",
      "from": "0x12b2434a1022d5787bf06056f2885fe35de62bf8",
      "to": "0xaad1191f2ef0c86f7c9faebfc4c2142dd4485055",
      "contractAddress": null,
      "l1BaseFeeScalar": "0x44d",
      "l1BlobBaseFee": "0x17838b069f9",
      "l1BlobBaseFeeScalar": "0xa118b",
      "l1Fee": "0x610ff7de468d",
      "l1GasPrice": "0xd086cb3d6",
      "l1GasUsed": "0x640"
    }
  ],
  "libraries": [],
  "pending": [],
  "returns": {},
  "timestamp": 1725457209,
  "chain": 84532,
  "commit": "da4a4b9"
}