{
  "transactions": [
    {
      "hash": "0xdcf49cb470d54fe17b14f6ac2aea39fc1ee1b2585fd410669d4ee5913ad2140f",
      "transactionType": "CALL",
      "contractName": null,
      "contractAddress": "0x0f2d5511be2a7c3c1a623212e6fb8ab91f1f79c4",
      "function": "setPeer(uint32,bytes32)",
      "arguments": [
        "40231",
        "0x0000000000000000000000006f5bdbe611ae3c84153bd9d2216ce076c2fbba18"
      ],
      "transaction": {
        "from": "0x12b2434a1022d5787bf06056f2885fe35de62bf8",
        "to": "0x0f2d5511be2a7c3c1a623212e6fb8ab91f1f79c4",
        "gas": "0xa42d",
        "value": "0x0",
        "input": "0x3400288b0000000000000000000000000000000000000000000000000000000000009d270000000000000000000000006f5bdbe611ae3c84153bd9d2216ce076c2fbba18",
        "nonce": "0x6f",
        "chainId": "0x14a34"
      },
      "additionalContracts": [],
      "isFixedGasLimit": false
    },
    {
      "hash": "0xeb8a2badf7e371bfb74804afb6ca7c32e3acb47279e4b36987a5e10c2cfb4878",
      "transactionType": "CALL",
      "contractName": null,
      "contractAddress": "0x0f2d5511be2a7c3c1a623212e6fb8ab91f1f79c4",
      "function": "setComposerEid(uint32)",
      "arguments": [
        "40231"
      ],
      "transaction": {
        "from": "0x12b2434a1022d5787bf06056f2885fe35de62bf8",
        "to": "0x0f2d5511be2a7c3c1a623212e6fb8ab91f1f79c4",
        "gas": "0x8ea7",
        "value": "0x0",
        "input": "0xd30fce920000000000000000000000000000000000000000000000000000000000009d27",
        "nonce": "0x70",
        "chainId": "0x14a34"
      },
      "additionalContracts": [],
      "isFixedGasLimit": false
    }
  ],
  "receipts": [
    {
      "status": "0x1",
      "cumulativeGasUsed": "0x1208ed",
      "logs": [
        {
          "address": "0x0f2d5511be2a7c3c1a623212e6fb8ab91f1f79c4",
          "topics": [
            "0x238399d427b947898edb290f5ff0f9109849b1c3ba196a42e35f00c50a54b98b"
          ],
          "data": "0x0000000000000000000000000000000000000000000000000000000000009d270000000000000000000000006f5bdbe611ae3c84153bd9d2216ce076c2fbba18",
          "blockHash": "0x794a6508d024a3bb7ebdd1776ae6137bd566e20dbd27efefd67451a5434cb13a",
          "blockNumber": "0xe2ab70",
          "transactionHash": "0xdcf49cb470d54fe17b14f6ac2aea39fc1ee1b2585fd410669d4ee5913ad2140f",
          "transactionIndex": "0x5",
          "logIndex": "0x16",
          "removed": false
        }
      ],
      "logsBloom": "0x00000000000000000000000000000000000000000000000000000000000000000000000000000080000000000000000000000000000000000800000000000000000000000000000000000000000000000000000000000000000000000000000000000000000000000000000000000000000000000000000000000000000000000000000000000000000000000800000000000000000000000000000000000000000000000000000000000000000000000000000000000000000002000008000000000000000000000000000000000000000000000000000000040000000000000000000000000000000000000000000000000000000000000000000000000000",
      "type": "0x2",
      "transactionHash": "0xdcf49cb470d54fe17b14f6ac2aea39fc1ee1b2585fd410669d4ee5913ad2140f",
      "transactionIndex": "0x5",
      "blockHash": "0x794a6508d024a3bb7ebdd1776ae6137bd566e20dbd27efefd67451a5434cb13a",
      "blockNumber": "0xe2ab70",
      "gasUsed": "0x76dd",
      "effectiveGasPrice": "0x187c6",
      "blobGasUsed": "0x0",
      "from": "0x12b2434a1022d5787bf06056f2885fe35de62bf8",
      "to": "0x0f2d5511be2a7c3c1a623212e6fb8ab91f1f79c4",
      "contractAddress": null,
      "l1BaseFeeScalar": "0x44d",
      "l1BlobBaseFee": "0x26977e0ac5",
      "l1BlobBaseFeeScalar": "0xa118b",
      "l1Fee": "0x9f4ddb701b6",
      "l1GasPrice": "0x15a84505d",
      "l1GasUsed": "0x640"
    },
    {
      "status": "0x1",
      "cumulativeGasUsed": "0x127035",
      "logs": [],
      "logsBloom": "0x00000000000000000000000000000000000000000000000000000000000000000000000000000000000000000000000000000000000000000000000000000000000000000000000000000000000000000000000000000000000000000000000000000000000000000000000000000000000000000000000000000000000000000000000000000000000000000000000000000000000000000000000000000000000000000000000000000000000000000000000000000000000000000000000000000000000000000000000000000000000000000000000000000000000000000000000000000000000000000000000000000000000000000000000000000000",
      "type": "0x2",
      "transactionHash": "0xeb8a2badf7e371bfb74804afb6ca7c32e3acb47279e4b36987a5e10c2cfb4878",
      "transactionIndex": "0x6",
      "blockHash": "0x794a6508d024a3bb7ebdd1776ae6137bd566e20dbd27efefd67451a5434cb13a",
      "blockNumber": "0xe2ab70",
      "gasUsed": "0x6748",
      "effectiveGasPrice": "0x187c6",
      "blobGasUsed": "0x0",
      "from": "0x12b2434a1022d5787bf06056f2885fe35de62bf8",
      "to": "0x0f2d5511be2a7c3c1a623212e6fb8ab91f1f79c4",
      "contractAddress": null,
      "l1BaseFeeScalar": "0x44d",
      "l1BlobBaseFee": "0x26977e0ac5",
      "l1BlobBaseFeeScalar": "0xa118b",
      "l1Fee": "0x9f4ddb701b6",
      "l1GasPrice": "0x15a84505d",
      "l1GasUsed": "0x640"
    }
  ],
  "libraries": [],
  "pending": [],
  "returns": {},
  "timestamp": 1725478342,
  "chain": 84532,
  "commit": "da4a4b9"
}