{
  "transactions": [
    {
      "hash": "0xf98df325ff9f56e086708459fe334b61c6e3fd0e09f73399aad31af6bdbdeabc",
      "transactionType": "CALL",
      "contractName": null,
      "contractAddress": "0xdfde2e0bba70ff6bac79cd66770d3d6a0ba24222",
      "function": "setPeer(uint32,bytes32)",
      "arguments": [
        "40232",
        "0x00000000000000000000000012280143a5ce8c7b9e5d5d9dac240166fda88717"
      ],
      "transaction": {
        "from": "0x12b2434a1022d5787bf06056f2885fe35de62bf8",
        "to": "0xdfde2e0bba70ff6bac79cd66770d3d6a0ba24222",
        "gas": "0x10f7c",
        "value": "0x0",
        "input": "0x3400288b0000000000000000000000000000000000000000000000000000000000009d2800000000000000000000000012280143a5ce8c7b9e5d5d9dac240166fda88717",
        "nonce": "0x8d",
        "chainId": "0x14a34"
      },
      "additionalContracts": [],
      "isFixedGasLimit": false
    },
    {
      "hash": "0xd2320f4e8e4552455330eb04af5875a73aa8fa3ca305a9b500a54bb7e63a2de2",
      "transactionType": "CALL",
      "contractName": null,
      "contractAddress": "0xdfde2e0bba70ff6bac79cd66770d3d6a0ba24222",
      "function": "setComposerEid(uint32)",
      "arguments": [
        "40232"
      ],
      "transaction": {
        "from": "0x12b2434a1022d5787bf06056f2885fe35de62bf8",
        "to": "0xdfde2e0bba70ff6bac79cd66770d3d6a0ba24222",
        "gas": "0xf96e",
        "value": "0x0",
        "input": "0xd30fce920000000000000000000000000000000000000000000000000000000000009d28",
        "nonce": "0x8e",
        "chainId": "0x14a34"
      },
      "additionalContracts": [],
      "isFixedGasLimit": false
    }
  ],
  "receipts": [
    {
      "status": "0x1",
      "cumulativeGasUsed": "0x7a659",
      "logs": [
        {
          "address": "0xdfde2e0bba70ff6bac79cd66770d3d6a0ba24222",
          "topics": [
            "0x238399d427b947898edb290f5ff0f9109849b1c3ba196a42e35f00c50a54b98b"
          ],
          "data": "0x0000000000000000000000000000000000000000000000000000000000009d2800000000000000000000000012280143a5ce8c7b9e5d5d9dac240166fda88717",
          "blockHash": "0x1988c611fc4eeb736f437349fb5bfb30dcdaf1aa506379cf79950f86414347c3",
          "blockNumber": "0xe31aa1",
          "transactionHash": "0xf98df325ff9f56e086708459fe334b61c6e3fd0e09f73399aad31af6bdbdeabc",
          "transactionIndex": "0x6",
          "logIndex": "0x0",
          "removed": false
        }
      ],
      "logsBloom": "0x00000000000000000000000020000000000000000000000000000000000000000000000000000000000100000000000000000000000000000800000000000000000000000000000000000000000000000000000000000000000000000000000000000000000000000000000000000000000000000000400000000000000000000000000000000000000000000000000000000000000000000000000000000000000000000000000000000000000000000000000000000000000002000000000000000000000000000000000000000000000000000000000000040000000000000000000000000000000000000000000000000000000000000000000000000000",
      "type": "0x2",
      "transactionHash": "0xf98df325ff9f56e086708459fe334b61c6e3fd0e09f73399aad31af6bdbdeabc",
      "transactionIndex": "0x6",
      "blockHash": "0x1988c611fc4eeb736f437349fb5bfb30dcdaf1aa506379cf79950f86414347c3",
      "blockNumber": "0xe31aa1",
      "gasUsed": "0xb9a2",
      "effectiveGasPrice": "0xf4358",
      "blobGasUsed": "0x0",
      "from": "0x12b2434a1022d5787bf06056f2885fe35de62bf8",
      "to": "0xdfde2e0bba70ff6bac79cd66770d3d6a0ba24222",
      "contractAddress": null,
      "l1BaseFeeScalar": "0x44d",
      "l1BlobBaseFee": "0xeadf88d1f3",
      "l1BlobBaseFeeScalar": "0xa118b",
      "l1Fee": "0x3ca358302d93",
      "l1GasPrice": "0xe502d5bc6",
      "l1GasUsed": "0x640"
    },
    {
      "status": "0x1",
      "cumulativeGasUsed": "0x85aef",
      "logs": [],
      "logsBloom": "0x00000000000000000000000000000000000000000000000000000000000000000000000000000000000000000000000000000000000000000000000000000000000000000000000000000000000000000000000000000000000000000000000000000000000000000000000000000000000000000000000000000000000000000000000000000000000000000000000000000000000000000000000000000000000000000000000000000000000000000000000000000000000000000000000000000000000000000000000000000000000000000000000000000000000000000000000000000000000000000000000000000000000000000000000000000000",
      "type": "0x2",
      "transactionHash": "0xd2320f4e8e4552455330eb04af5875a73aa8fa3ca305a9b500a54bb7e63a2de2",
      "transactionIndex": "0x7",
      "blockHash": "0x1988c611fc4eeb736f437349fb5bfb30dcdaf1aa506379cf79950f86414347c3",
      "blockNumber": "0xe31aa1",
      "gasUsed": "0xb496",
      "effectiveGasPrice": "0xf4358",
      "blobGasUsed": "0x0",
      "from": "0x12b2434a1022d5787bf06056f2885fe35de62bf8",
      "to": "0xdfde2e0bba70ff6bac79cd66770d3d6a0ba24222",
      "contractAddress": null,
      "l1BaseFeeScalar": "0x44d",
      "l1BlobBaseFee": "0xeadf88d1f3",
      "l1BlobBaseFeeScalar": "0xa118b",
      "l1Fee": "0x3ca358302d93",
      "l1GasPrice": "0xe502d5bc6",
      "l1GasUsed": "0x640"
    }
  ],
  "libraries": [],
  "pending": [],
  "returns": {},
  "timestamp": 1725535272,
  "chain": 84532,
  "commit": "6821207"
}