{
  "transactions": [
    {
      "hash": "0xba2bf1e656b25704c3555da593cd342e5392cce26ff26506fb10dfc7500dfcbe",
      "transactionType": "CALL",
      "contractName": null,
      "contractAddress": "0x1de322762f4c930cef3268fbfb7f12bd72d33227",
      "function": "setPeer(uint32,bytes32)",
      "arguments": [
        "40232",
        "0x0000000000000000000000002fa6a8cd34b524e038e998771347049365c00658"
      ],
      "transaction": {
        "from": "0xb0efd2b19a5698a9c830548ac22708a28c9d4552",
        "to": "0x1de322762f4c930cef3268fbfb7f12bd72d33227",
        "gas": "0x10f7c",
        "value": "0x0",
        "input": "0x3400288b0000000000000000000000000000000000000000000000000000000000009d280000000000000000000000002fa6a8cd34b524e038e998771347049365c00658",
        "nonce": "0x72",
        "chainId": "0x14a34"
      },
      "additionalContracts": [],
      "isFixedGasLimit": false
    },
    {
      "hash": "0x9c6ba02057984facf30504e7b626496e46c0f8716fd11e9f023a386e61c5f3b0",
      "transactionType": "CALL",
      "contractName": null,
      "contractAddress": "0x1de322762f4c930cef3268fbfb7f12bd72d33227",
      "function": "setComposerEid(uint32)",
      "arguments": [
        "40232"
      ],
      "transaction": {
        "from": "0xb0efd2b19a5698a9c830548ac22708a28c9d4552",
        "to": "0x1de322762f4c930cef3268fbfb7f12bd72d33227",
        "gas": "0xf96e",
        "value": "0x0",
        "input": "0xd30fce920000000000000000000000000000000000000000000000000000000000009d28",
        "nonce": "0x73",
        "chainId": "0x14a34"
      },
      "additionalContracts": [],
      "isFixedGasLimit": false
    }
  ],
  "receipts": [
    {
      "status": "0x1",
      "cumulativeGasUsed": "0x14d353",
      "logs": [
        {
          "address": "0x1de322762f4c930cef3268fbfb7f12bd72d33227",
          "topics": [
            "0x238399d427b947898edb290f5ff0f9109849b1c3ba196a42e35f00c50a54b98b"
          ],
          "data": "0x0000000000000000000000000000000000000000000000000000000000009d280000000000000000000000002fa6a8cd34b524e038e998771347049365c00658",
          "blockHash": "0xb46617bbace77cefaad2bb621b3e061fcd8671857609132128552c1abe401a98",
          "blockNumber": "0xe2fb16",
          "transactionHash": "0xba2bf1e656b25704c3555da593cd342e5392cce26ff26506fb10dfc7500dfcbe",
          "transactionIndex": "0x9",
          "logIndex": "0x17",
          "removed": false
        }
      ],
      "logsBloom": "0x00000000000000000000000000000000000000000000000000040000000000000000000000000000000000000000000000000000000000000800000000000000000000000000000000000000000000000000000000000000000000000000000000000000000000000000000000000000000000000000000000000000000000000000000000000000000000000000000000000000000040000000000000000000000000000000000000000000000000000000000000000000000002000000000000000000000000000000000020000000000000000000000000040000000000000000000000000000000000000000000000000000000000000000000000000000",
      "type": "0x2",
      "transactionHash": "0xba2bf1e656b25704c3555da593cd342e5392cce26ff26506fb10dfc7500dfcbe",
      "transactionIndex": "0x9",
      "blockHash": "0xb46617bbace77cefaad2bb621b3e061fcd8671857609132128552c1abe401a98",
      "blockNumber": "0xe2fb16",
      "gasUsed": "0xb9a2",
      "effectiveGasPrice": "0x490",
      "from": "0xb0efd2b19a5698a9c830548ac22708a28c9d4552",
      "to": "0x1de322762f4c930cef3268fbfb7f12bd72d33227",
      "contractAddress": null,
      "l1BaseFeeScalar": "0x44d",
      "l1BlobBaseFee": "0x187493bd4e5",
      "l1BlobBaseFeeScalar": "0xa118b",
      "l1Fee": "0x650580f079a6",
      "l1GasPrice": "0x1819696342",
      "l1GasUsed": "0x640"
    },
    {
      "status": "0x1",
      "cumulativeGasUsed": "0x1587e9",
      "logs": [],
      "logsBloom": "0x00000000000000000000000000000000000000000000000000000000000000000000000000000000000000000000000000000000000000000000000000000000000000000000000000000000000000000000000000000000000000000000000000000000000000000000000000000000000000000000000000000000000000000000000000000000000000000000000000000000000000000000000000000000000000000000000000000000000000000000000000000000000000000000000000000000000000000000000000000000000000000000000000000000000000000000000000000000000000000000000000000000000000000000000000000000",
      "type": "0x2",
      "transactionHash": "0x9c6ba02057984facf30504e7b626496e46c0f8716fd11e9f023a386e61c5f3b0",
      "transactionIndex": "0xa",
      "blockHash": "0xb46617bbace77cefaad2bb621b3e061fcd8671857609132128552c1abe401a98",
      "blockNumber": "0xe2fb16",
      "gasUsed": "0xb496",
      "effectiveGasPrice": "0x490",
      "from": "0xb0efd2b19a5698a9c830548ac22708a28c9d4552",
      "to": "0x1de322762f4c930cef3268fbfb7f12bd72d33227",
      "contractAddress": null,
      "l1BaseFeeScalar": "0x44d",
      "l1BlobBaseFee": "0x187493bd4e5",
      "l1BlobBaseFeeScalar": "0xa118b",
      "l1Fee": "0x650580f079a6",
      "l1GasPrice": "0x1819696342",
      "l1GasUsed": "0x640"
    }
  ],
  "libraries": [],
  "pending": [],
  "returns": {},
  "timestamp": 1725519120,
  "chain": 84532,
  "commit": "8370d5b"
}