{
  "transactions": [
    {
      "hash": "0xe170cebfe024bc6d0bbffa9cb0de1db052e7b5313084d63266b883e88aff8a12",
      "transactionType": "CALL",
      "contractName": null,
      "contractAddress": "0x2d92992ea05d38a254b6c26ed9dc5933b5fb8c5c",
      "function": "setPeer(uint32,bytes32)",
      "arguments": [
        "40232",
        "0x0000000000000000000000006aba63870bf8bdf3888b5f794ddf7de2aeda5060"
      ],
      "transaction": {
        "from": "0xb0efd2b19a5698a9c830548ac22708a28c9d4552",
        "to": "0x2d92992ea05d38a254b6c26ed9dc5933b5fb8c5c",
        "gas": "0x10f7c",
        "value": "0x0",
        "input": "0x3400288b0000000000000000000000000000000000000000000000000000000000009d280000000000000000000000006aba63870bf8bdf3888b5f794ddf7de2aeda5060",
        "nonce": "0x99",
        "chainId": "0x14a34"
      },
      "additionalContracts": [],
      "isFixedGasLimit": false
    },
    {
      "hash": "0x4ffc6b6fd21a450d81c89bf92af1bf17b3201ea7e9737ea5a6be77af7e93f284",
      "transactionType": "CALL",
      "contractName": null,
      "contractAddress": "0x2d92992ea05d38a254b6c26ed9dc5933b5fb8c5c",
      "function": "setComposerEid(uint32)",
      "arguments": [
        "40232"
      ],
      "transaction": {
        "from": "0xb0efd2b19a5698a9c830548ac22708a28c9d4552",
        "to": "0x2d92992ea05d38a254b6c26ed9dc5933b5fb8c5c",
        "gas": "0xf96e",
        "value": "0x0",
        "input": "0xd30fce920000000000000000000000000000000000000000000000000000000000009d28",
        "nonce": "0x9a",
        "chainId": "0x14a34"
      },
      "additionalContracts": [],
      "isFixedGasLimit": false
    }
  ],
  "receipts": [
    {
      "status": "0x1",
      "cumulativeGasUsed": "0x8e235",
      "logs": [
        {
          "address": "0x2d92992ea05d38a254b6c26ed9dc5933b5fb8c5c",
          "topics": [
            "0x238399d427b947898edb290f5ff0f9109849b1c3ba196a42e35f00c50a54b98b"
          ],
          "data": "0x0000000000000000000000000000000000000000000000000000000000009d280000000000000000000000006aba63870bf8bdf3888b5f794ddf7de2aeda5060",
          "blockHash": "0x6ce2bc264b3128b1ff532b10bb21388804e4c43ef115fcdca23d5fb0f15b3554",
          "blockNumber": "0xe30957",
          "transactionHash": "0xe170cebfe024bc6d0bbffa9cb0de1db052e7b5313084d63266b883e88aff8a12",
          "transactionIndex": "0x6",
          "logIndex": "0x9",
          "removed": false
        }
      ],
      "logsBloom": "0x00000000000000000000000000000000000000000000000000000000000000000000000000000000000000000000000000000000000000000800000000000000000000000000000000000000000000000000000000000000000000000000000000000000000000000000000000000000000000000000000000000000000000000000000000000000000000000000000020000000000000000000000000000000000000000000000000000000000000000000000004000000000002000000000000000000000000000000000000000000000000000000000000040000000000000000000000000000000000000040000000000000000000000000000000000000",
      "type": "0x2",
      "transactionHash": "0xe170cebfe024bc6d0bbffa9cb0de1db052e7b5313084d63266b883e88aff8a12",
      "transactionIndex": "0x6",
      "blockHash": "0x6ce2bc264b3128b1ff532b10bb21388804e4c43ef115fcdca23d5fb0f15b3554",
      "blockNumber": "0xe30957",
      "gasUsed": "0xb9a2",
      "effectiveGasPrice": "0xa7d9d",
      "from": "0xb0efd2b19a5698a9c830548ac22708a28c9d4552",
      "to": "0x2d92992ea05d38a254b6c26ed9dc5933b5fb8c5c",
      "contractAddress": null,
      "l1BaseFeeScalar": "0x44d",
      "l1BlobBaseFee": "0x878e91113d",
      "l1BlobBaseFeeScalar": "0xa118b",
      "l1Fee": "0x2301dfc9dcce",
      "l1GasPrice": "0x9ba9bdf4d",
      "l1GasUsed": "0x640"
    },
    {
      "status": "0x1",
      "cumulativeGasUsed": "0x996cb",
      "logs": [],
      "logsBloom": "0x00000000000000000000000000000000000000000000000000000000000000000000000000000000000000000000000000000000000000000000000000000000000000000000000000000000000000000000000000000000000000000000000000000000000000000000000000000000000000000000000000000000000000000000000000000000000000000000000000000000000000000000000000000000000000000000000000000000000000000000000000000000000000000000000000000000000000000000000000000000000000000000000000000000000000000000000000000000000000000000000000000000000000000000000000000000",
      "type": "0x2",
      "transactionHash": "0x4ffc6b6fd21a450d81c89bf92af1bf17b3201ea7e9737ea5a6be77af7e93f284",
      "transactionIndex": "0x7",
      "blockHash": "0x6ce2bc264b3128b1ff532b10bb21388804e4c43ef115fcdca23d5fb0f15b3554",
      "blockNumber": "0xe30957",
      "gasUsed": "0xb496",
      "effectiveGasPrice": "0xa7d9d",
      "from": "0xb0efd2b19a5698a9c830548ac22708a28c9d4552",
      "to": "0x2d92992ea05d38a254b6c26ed9dc5933b5fb8c5c",
      "contractAddress": null,
      "l1BaseFeeScalar": "0x44d",
      "l1BlobBaseFee": "0x878e91113d",
      "l1BlobBaseFeeScalar": "0xa118b",
      "l1Fee": "0x2301dfc9dcce",
      "l1GasPrice": "0x9ba9bdf4d",
      "l1GasUsed": "0x640"
    }
  ],
  "libraries": [],
  "pending": [],
  "returns": {},
  "timestamp": 1725526419,
  "chain": 84532,
  "commit": "8370d5b"
}