{
  "transactions": [
    {
      "hash": "0x95c7d9b2cf41b5c5449b364d0b19cf1fa1b3acd32d1730aa88e629b2f1570d1b",
      "transactionType": "CALL",
      "contractName": null,
      "contractAddress": "0xbb9e6eb4494a7186a71ddd68500823782bd9d5aa",
      "function": "setPeer(uint32,bytes32)",
      "arguments": [
        "40232",
        "0x0000000000000000000000009888bba3730ed2cf060b38f4e3e6654b45a5dd04"
      ],
      "transaction": {
        "from": "0xb0efd2b19a5698a9c830548ac22708a28c9d4552",
        "to": "0xbb9e6eb4494a7186a71ddd68500823782bd9d5aa",
        "gas": "0x10f7c",
        "value": "0x0",
        "input": "0x3400288b0000000000000000000000000000000000000000000000000000000000009d280000000000000000000000009888bba3730ed2cf060b38f4e3e6654b45a5dd04",
        "nonce": "0x90",
        "chainId": "0x14a34"
      },
      "additionalContracts": [],
      "isFixedGasLimit": false
    },
    {
      "hash": "0x3c4dc9ac99650186610ef69a4b17c9299602fd7b1fe539bb5334fdcc4af6b30d",
      "transactionType": "CALL",
      "contractName": null,
      "contractAddress": "0xbb9e6eb4494a7186a71ddd68500823782bd9d5aa",
      "function": "setComposerEid(uint32)",
      "arguments": [
        "40232"
      ],
      "transaction": {
        "from": "0xb0efd2b19a5698a9c830548ac22708a28c9d4552",
        "to": "0xbb9e6eb4494a7186a71ddd68500823782bd9d5aa",
        "gas": "0xf96e",
        "value": "0x0",
        "input": "0xd30fce920000000000000000000000000000000000000000000000000000000000009d28",
        "nonce": "0x91",
        "chainId": "0x14a34"
      },
      "additionalContracts": [],
      "isFixedGasLimit": false
    }
  ],
  "receipts": [
    {
      "status": "0x1",
      "cumulativeGasUsed": "0xa9c13",
      "logs": [
        {
          "address": "0xbb9e6eb4494a7186a71ddd68500823782bd9d5aa",
          "topics": [
            "0x238399d427b947898edb290f5ff0f9109849b1c3ba196a42e35f00c50a54b98b"
          ],
          "data": "0x0000000000000000000000000000000000000000000000000000000000009d280000000000000000000000009888bba3730ed2cf060b38f4e3e6654b45a5dd04",
          "blockHash": "0xd6eff6815438f5d758e61f0ef963db5ac5caee74e33201f647b8e2580b0fe18d",
          "blockNumber": "0xe307a4",
          "transactionHash": "0x95c7d9b2cf41b5c5449b364d0b19cf1fa1b3acd32d1730aa88e629b2f1570d1b",
          "transactionIndex": "0x3",
          "logIndex": "0xa",
          "removed": false
        }
      ],
      "logsBloom": "0x00000000000000000000000000000000000000000000000000000000000000000000000000000000000000000000000000000000000000000800000000000000000000000000000000000000000000000000000000000000000000000000000000000000000000000000000000000000000000000000000000000000000040000000000000000000000000000000000000000000000000000000000000000000000000800000000000000000000000000002000000000000000002000000000000000000000000000000000000000000000000000000000000040000000000000000000000000000000000000000000000000000000000000000000000000000",
      "type": "0x2",
      "transactionHash": "0x95c7d9b2cf41b5c5449b364d0b19cf1fa1b3acd32d1730aa88e629b2f1570d1b",
      "transactionIndex": "0x3",
      "blockHash": "0xd6eff6815438f5d758e61f0ef963db5ac5caee74e33201f647b8e2580b0fe18d",
      "blockNumber": "0xe307a4",
      "gasUsed": "0xb9a2",
      "effectiveGasPrice": "0x155",
      "from": "0xb0efd2b19a5698a9c830548ac22708a28c9d4552",
      "to": "0xbb9e6eb4494a7186a71ddd68500823782bd9d5aa",
      "contractAddress": null,
      "l1BaseFeeScalar": "0x44d",
      "l1BlobBaseFee": "0x11dd11520ad",
      "l1BlobBaseFeeScalar": "0xa118b",
      "l1Fee": "0x49c0df50d1f3",
      "l1GasPrice": "0xc0cbee7a1",
      "l1GasUsed": "0x640"
    },
    {
      "status": "0x1",
      "cumulativeGasUsed": "0xb50a9",
      "logs": [],
      "logsBloom": "0x00000000000000000000000000000000000000000000000000000000000000000000000000000000000000000000000000000000000000000000000000000000000000000000000000000000000000000000000000000000000000000000000000000000000000000000000000000000000000000000000000000000000000000000000000000000000000000000000000000000000000000000000000000000000000000000000000000000000000000000000000000000000000000000000000000000000000000000000000000000000000000000000000000000000000000000000000000000000000000000000000000000000000000000000000000000",
      "type": "0x2",
      "transactionHash": "0x3c4dc9ac99650186610ef69a4b17c9299602fd7b1fe539bb5334fdcc4af6b30d",
      "transactionIndex": "0x4",
      "blockHash": "0xd6eff6815438f5d758e61f0ef963db5ac5caee74e33201f647b8e2580b0fe18d",
      "blockNumber": "0xe307a4",
      "gasUsed": "0xb496",
      "effectiveGasPrice": "0x155",
      "from": "0xb0efd2b19a5698a9c830548ac22708a28c9d4552",
      "to": "0xbb9e6eb4494a7186a71ddd68500823782bd9d5aa",
      "contractAddress": null,
      "l1BaseFeeScalar": "0x44d",
      "l1BlobBaseFee": "0x11dd11520ad",
      "l1BlobBaseFeeScalar": "0xa118b",
      "l1Fee": "0x49c0df50d1f3",
      "l1GasPrice": "0xc0cbee7a1",
      "l1GasUsed": "0x640"
    }
  ],
  "libraries": [],
  "pending": [],
  "returns": {},
  "timestamp": 1725525549,
  "chain": 84532,
  "commit": "8370d5b"
}