{
  "transactions": [
    {
      "hash": "0xc6a079fd11c92d73a86bad8b579dbe0b73e3c7d4d7d59e1d900e9ee62b883b26",
      "transactionType": "CALL",
      "contractName": null,
      "contractAddress": "0xd9c0269b0d6a8200f10c2a9a0a85ba400761befd",
      "function": "setPeer(uint32,bytes32)",
      "arguments": [
        "40232",
        "0x0000000000000000000000003255d41116a0bba5247aae9184f435547afb8d1c"
      ],
      "transaction": {
        "from": "0x12b2434a1022d5787bf06056f2885fe35de62bf8",
        "to": "0xd9c0269b0d6a8200f10c2a9a0a85ba400761befd",
        "gas": "0x10f87",
        "value": "0x0",
        "input": "0x3400288b0000000000000000000000000000000000000000000000000000000000009d280000000000000000000000003255d41116a0bba5247aae9184f435547afb8d1c",
        "nonce": "0x78",
        "chainId": "0x14a34"
      },
      "additionalContracts": [],
      "isFixedGasLimit": false
    },
    {
      "hash": "0xc7c83bc7ed97226975d119ed9d27f6a6d84e6efbb707231f8ddb286437da4f4f",
      "transactionType": "CALL",
      "contractName": null,
      "contractAddress": "0xd9c0269b0d6a8200f10c2a9a0a85ba400761befd",
      "function": "setComposerEid(uint32)",
      "arguments": [
        "40232"
      ],
      "transaction": {
        "from": "0x12b2434a1022d5787bf06056f2885fe35de62bf8",
        "to": "0xd9c0269b0d6a8200f10c2a9a0a85ba400761befd",
        "gas": "0xfa06",
        "value": "0x0",
        "input": "0xd30fce920000000000000000000000000000000000000000000000000000000000009d28",
        "nonce": "0x79",
        "chainId": "0x14a34"
      },
      "additionalContracts": [],
      "isFixedGasLimit": false
    }
  ],
  "receipts": [
    {
      "status": "0x1",
      "cumulativeGasUsed": "0x11c9d1",
      "logs": [
        {
          "address": "0xd9c0269b0d6a8200f10c2a9a0a85ba400761befd",
          "topics": [
            "0x238399d427b947898edb290f5ff0f9109849b1c3ba196a42e35f00c50a54b98b"
          ],
          "data": "0x0000000000000000000000000000000000000000000000000000000000009d280000000000000000000000003255d41116a0bba5247aae9184f435547afb8d1c",
          "blockHash": "0x67fbd7a31f33275adb81d44ad024877ab0bea9c204642721932e91930304179e",
          "blockNumber": "0xe2aeba",
          "transactionHash": "0xc6a079fd11c92d73a86bad8b579dbe0b73e3c7d4d7d59e1d900e9ee62b883b26",
          "transactionIndex": "0x7",
          "logIndex": "0xa",
          "removed": false
        }
      ],
      "logsBloom": "0x00000000000000000000000000000000000000000000000000000000000000000000000000000000000000000000000000000000000000000800000000000000000000000000000000000000000000000000000000000000000000000000000000000000000000000000000000000000000000000000000000000000000001000040000000000000000000000000000000000000000000000000000000000000000000000000000000000000000000000000000000000000000002000000000000000000000000000000000000000000000000000000000000040000000000000000000000000000000000000000000000000000000000001000000000000000",
      "type": "0x2",
      "transactionHash": "0xc6a079fd11c92d73a86bad8b579dbe0b73e3c7d4d7d59e1d900e9ee62b883b26",
      "transactionIndex": "0x7",
      "blockHash": "0x67fbd7a31f33275adb81d44ad024877ab0bea9c204642721932e91930304179e",
      "blockNumber": "0xe2aeba",
      "gasUsed": "0xb9a9",
      "effectiveGasPrice": "0xf4359",
      "blobGasUsed": "0x0",
      "from": "0x12b2434a1022d5787bf06056f2885fe35de62bf8",
      "to": "0xd9c0269b0d6a8200f10c2a9a0a85ba400761befd",
      "contractAddress": null,
      "l1BaseFeeScalar": "0x44d",
      "l1BlobBaseFee": "0x251b2107c1",
      "l1BlobBaseFeeScalar": "0xa118b",
      "l1Fee": "0x99324da27c6",
      "l1GasPrice": "0x188c0c05c",
      "l1GasUsed": "0x640"
    },
    {
      "status": "0x1",
      "cumulativeGasUsed": "0x127ed5",
      "logs": [],
      "logsBloom": "0x00000000000000000000000000000000000000000000000000000000000000000000000000000000000000000000000000000000000000000000000000000000000000000000000000000000000000000000000000000000000000000000000000000000000000000000000000000000000000000000000000000000000000000000000000000000000000000000000000000000000000000000000000000000000000000000000000000000000000000000000000000000000000000000000000000000000000000000000000000000000000000000000000000000000000000000000000000000000000000000000000000000000000000000000000000000",
      "type": "0x2",
      "transactionHash": "0xc7c83bc7ed97226975d119ed9d27f6a6d84e6efbb707231f8ddb286437da4f4f",
      "transactionIndex": "0x8",
      "blockHash": "0x67fbd7a31f33275adb81d44ad024877ab0bea9c204642721932e91930304179e",
      "blockNumber": "0xe2aeba",
      "gasUsed": "0xb504",
      "effectiveGasPrice": "0xf4359",
      "blobGasUsed": "0x0",
      "from": "0x12b2434a1022d5787bf06056f2885fe35de62bf8",
      "to": "0xd9c0269b0d6a8200f10c2a9a0a85ba400761befd",
      "contractAddress": null,
      "l1BaseFeeScalar": "0x44d",
      "l1BlobBaseFee": "0x251b2107c1",
      "l1BlobBaseFeeScalar": "0xa118b",
      "l1Fee": "0x99324da27c6",
      "l1GasPrice": "0x188c0c05c",
      "l1GasUsed": "0x640"
    }
  ],
  "libraries": [],
  "pending": [],
  "returns": {},
  "timestamp": 1725480021,
  "chain": 84532,
  "commit": "da4a4b9"
}