{
  "transactions": [
    {
      "hash": "0xf62783f678900aeb8552f3fb920687c938580cbd8bfabd237e64b7b8af86abf5",
      "transactionType": "CALL",
      "contractName": null,
      "contractAddress": "0x577b9dde50b5bddf19c73e1d6553cd0460d9baec",
      "function": "setPeer(uint32,bytes32)",
      "arguments": [
        "40232",
        "0x000000000000000000000000673db44c3b7a8297499b4660f152d47a91a85630"
      ],
      "transaction": {
        "from": "0xb0efd2b19a5698a9c830548ac22708a28c9d4552",
        "to": "0x577b9dde50b5bddf19c73e1d6553cd0460d9baec",
        "gas": "0x10f7c",
        "value": "0x0",
        "input": "0x3400288b0000000000000000000000000000000000000000000000000000000000009d28000000000000000000000000673db44c3b7a8297499b4660f152d47a91a85630",
        "nonce": "0x81",
        "chainId": "0x14a34"
      },
      "additionalContracts": [],
      "isFixedGasLimit": false
    },
    {
      "hash": "0x8948ae870a03f34156f8f17c5eec071d2cfb06a1ea386d39b7269ea9c81413ce",
      "transactionType": "CALL",
      "contractName": null,
      "contractAddress": "0x577b9dde50b5bddf19c73e1d6553cd0460d9baec",
      "function": "setComposerEid(uint32)",
      "arguments": [
        "40232"
      ],
      "transaction": {
        "from": "0xb0efd2b19a5698a9c830548ac22708a28c9d4552",
        "to": "0x577b9dde50b5bddf19c73e1d6553cd0460d9baec",
        "gas": "0xf96e",
        "value": "0x0",
        "input": "0xd30fce920000000000000000000000000000000000000000000000000000000000009d28",
        "nonce": "0x82",
        "chainId": "0x14a34"
      },
      "additionalContracts": [],
      "isFixedGasLimit": false
    }
  ],
  "receipts": [
    {
      "status": "0x1",
      "cumulativeGasUsed": "0x40f17",
      "logs": [
        {
          "address": "0x577b9dde50b5bddf19c73e1d6553cd0460d9baec",
          "topics": [
            "0x238399d427b947898edb290f5ff0f9109849b1c3ba196a42e35f00c50a54b98b"
          ],
          "data": "0x0000000000000000000000000000000000000000000000000000000000009d28000000000000000000000000673db44c3b7a8297499b4660f152d47a91a85630",
          "blockHash": "0xc5359cdaf12dc2834fcc1b57448f473f3eae0d80873984ef5572240ad467d6f9",
          "blockNumber": "0xe302cc",
          "transactionHash": "0xf62783f678900aeb8552f3fb920687c938580cbd8bfabd237e64b7b8af86abf5",
          "transactionIndex": "0x4",
          "logIndex": "0x0",
          "removed": false
        }
      ],
      "logsBloom": "0x00000100000000000000000000000000000000000000000000000000000000000000000000000000000000000000000000000000000000000800000000000000000000000000000000000000000000000000000000000000000000000000000000000000000000000000000000000000000000000000000000000000000000000000000000000000000000000000000000000000000000000000000000000000000000000000000000000000000000000000000000000000000002000000000000000000000000040000000000000000000000000000000000040000000000000000000000000000000000000000000000008000000000000000000000000000",
      "type": "0x2",
      "transactionHash": "0xf62783f678900aeb8552f3fb920687c938580cbd8bfabd237e64b7b8af86abf5",
      "transactionIndex": "0x4",
      "blockHash": "0xc5359cdaf12dc2834fcc1b57448f473f3eae0d80873984ef5572240ad467d6f9",
      "blockNumber": "0xe302cc",
      "gasUsed": "0xb9a2",
      "effectiveGasPrice": "0xf08c5",
      "from": "0xb0efd2b19a5698a9c830548ac22708a28c9d4552",
      "to": "0x577b9dde50b5bddf19c73e1d6553cd0460d9baec",
      "contractAddress": null,
      "l1BaseFeeScalar": "0x44d",
      "l1BlobBaseFee": "0xab906fe6c9",
      "l1BlobBaseFeeScalar": "0xa118b",
      "l1Fee": "0x2c4c22263cee",
      "l1GasPrice": "0xb0ad0331a",
      "l1GasUsed": "0x640"
    },
    {
      "status": "0x1",
      "cumulativeGasUsed": "0x4c3ad",
      "logs": [],
      "logsBloom": "0x00000000000000000000000000000000000000000000000000000000000000000000000000000000000000000000000000000000000000000000000000000000000000000000000000000000000000000000000000000000000000000000000000000000000000000000000000000000000000000000000000000000000000000000000000000000000000000000000000000000000000000000000000000000000000000000000000000000000000000000000000000000000000000000000000000000000000000000000000000000000000000000000000000000000000000000000000000000000000000000000000000000000000000000000000000000",
      "type": "0x2",
      "transactionHash": "0x8948ae870a03f34156f8f17c5eec071d2cfb06a1ea386d39b7269ea9c81413ce",
      "transactionIndex": "0x5",
      "blockHash": "0xc5359cdaf12dc2834fcc1b57448f473f3eae0d80873984ef5572240ad467d6f9",
      "blockNumber": "0xe302cc",
      "gasUsed": "0xb496",
      "effectiveGasPrice": "0xf08c5",
      "from": "0xb0efd2b19a5698a9c830548ac22708a28c9d4552",
      "to": "0x577b9dde50b5bddf19c73e1d6553cd0460d9baec",
      "contractAddress": null,
      "l1BaseFeeScalar": "0x44d",
      "l1BlobBaseFee": "0xab906fe6c9",
      "l1BlobBaseFeeScalar": "0xa118b",
      "l1Fee": "0x2c4c22263cee",
      "l1GasPrice": "0xb0ad0331a",
      "l1GasUsed": "0x640"
    }
  ],
  "libraries": [],
  "pending": [],
  "returns": {},
  "timestamp": 1725523070,
  "chain": 84532,
  "commit": "8370d5b"
}