{
  "transactions": [
    {
      "hash": "0xe31f72beaa350a38534c18fa12791fd4d9d13a353976343092fd6c8411ef2210",
      "transactionType": "CALL",
      "contractName": null,
      "contractAddress": "0x301c96ec196fb6e1fe8b7eb777f317e5261b37eb",
      "function": "setPeer(uint32,bytes32)",
      "arguments": [
        "40231",
        "0x000000000000000000000000ea686366d6bb59e759fcab5cbd7b94963bf291e6"
      ],
      "transaction": {
        "from": "0x12b2434a1022d5787bf06056f2885fe35de62bf8",
        "to": "0x301c96ec196fb6e1fe8b7eb777f317e5261b37eb",
        "gas": "0x10f87",
        "value": "0x0",
        "input": "0x3400288b0000000000000000000000000000000000000000000000000000000000009d27000000000000000000000000ea686366d6bb59e759fcab5cbd7b94963bf291e6",
        "nonce": "0x68",
        "chainId": "0x14a34"
      },
      "additionalContracts": [],
      "isFixedGasLimit": false
    },
    {
      "hash": "0xff62eb1b70899f8e7c038ddc4a1ca951dbfa851563f0fb4a87751a3f7d8a0b45",
      "transactionType": "CALL",
      "contractName": null,
      "contractAddress": "0x301c96ec196fb6e1fe8b7eb777f317e5261b37eb",
      "function": "setComposerEid(uint32)",
      "arguments": [
        "40231"
      ],
      "transaction": {
        "from": "0x12b2434a1022d5787bf06056f2885fe35de62bf8",
        "to": "0x301c96ec196fb6e1fe8b7eb777f317e5261b37eb",
        "gas": "0xfa06",
        "value": "0x0",
        "input": "0xd30fce920000000000000000000000000000000000000000000000000000000000009d27",
        "nonce": "0x69",
        "chainId": "0x14a34"
      },
      "additionalContracts": [],
      "isFixedGasLimit": false
    }
  ],
  "receipts": [
    {
      "status": "0x1",
      "cumulativeGasUsed": "0x1c618a",
      "logs": [
        {
          "address": "0x301c96ec196fb6e1fe8b7eb777f317e5261b37eb",
          "topics": [
            "0x238399d427b947898edb290f5ff0f9109849b1c3ba196a42e35f00c50a54b98b"
          ],
          "data": "0x0000000000000000000000000000000000000000000000000000000000009d27000000000000000000000000ea686366d6bb59e759fcab5cbd7b94963bf291e6",
          "blockHash": "0x46e49d09fcd4c95d833b653b1c3c92e28c970e4332ab356a4920a9385e906849",
          "blockNumber": "0xe2a68a",
          "transactionHash": "0xe31f72beaa350a38534c18fa12791fd4d9d13a353976343092fd6c8411ef2210",
          "transactionIndex": "0x8",
          "logIndex": "0x25",
          "removed": false
        }
      ],
      "logsBloom": "0x00000000000000000000080000000000000000000000000000000000000000000000000000000000000000000000000000000000000000000800000000000000000000000000000000000000000000000000000000000000000000000000000000000000000000000000000000000000000000000000000000000000000000000000004000000000000000000000000000000000000000000000000000000000000000000000000000000000000000000000000000000000000002000000000000000000000000000000000000000000000000000000000040040000000000000000000000000000000000000000000000000000000000000000000000000000",
      "type": "0x2",
      "transactionHash": "0xe31f72beaa350a38534c18fa12791fd4d9d13a353976343092fd6c8411ef2210",
      "transactionIndex": "0x8",
      "blockHash": "0x46e49d09fcd4c95d833b653b1c3c92e28c970e4332ab356a4920a9385e906849",
      "blockNumber": "0xe2a68a",
      "gasUsed": "0xb9a9",
      "effectiveGasPrice": "0xf436a",
      "blobGasUsed": "0x0",
      "from": "0x12b2434a1022d5787bf06056f2885fe35de62bf8",
      "to": "0x301c96ec196fb6e1fe8b7eb777f317e5261b37eb",
      "contractAddress": null,
      "l1BaseFeeScalar": "0x44d",
      "l1BlobBaseFee": "0x787eb9bbc3",
      "l1BlobBaseFeeScalar": "0xa118b",
      "l1Fee": "0x1f11a00a648f",
      "l1GasPrice": "0x18f81eb35",
      "l1GasUsed": "0x640"
    },
    {
      "status": "0x1",
      "cumulativeGasUsed": "0x1d168e",
      "logs": [],
      "logsBloom": "0x00000000000000000000000000000000000000000000000000000000000000000000000000000000000000000000000000000000000000000000000000000000000000000000000000000000000000000000000000000000000000000000000000000000000000000000000000000000000000000000000000000000000000000000000000000000000000000000000000000000000000000000000000000000000000000000000000000000000000000000000000000000000000000000000000000000000000000000000000000000000000000000000000000000000000000000000000000000000000000000000000000000000000000000000000000000",
      "type": "0x2",
      "transactionHash": "0xff62eb1b70899f8e7c038ddc4a1ca951dbfa851563f0fb4a87751a3f7d8a0b45",
      "transactionIndex": "0x9",
      "blockHash": "0x46e49d09fcd4c95d833b653b1c3c92e28c970e4332ab356a4920a9385e906849",
      "blockNumber": "0xe2a68a",
      "gasUsed": "0xb504",
      "effectiveGasPrice": "0xf436a",
      "blobGasUsed": "0x0",
      "from": "0x12b2434a1022d5787bf06056f2885fe35de62bf8",
      "to": "0x301c96ec196fb6e1fe8b7eb777f317e5261b37eb",
      "contractAddress": null,
      "l1BaseFeeScalar": "0x44d",
      "l1BlobBaseFee": "0x787eb9bbc3",
      "l1BlobBaseFeeScalar": "0xa118b",
      "l1Fee": "0x1f11a00a648f",
      "l1GasPrice": "0x18f81eb35",
      "l1GasUsed": "0x640"
    }
  ],
  "libraries": [],
  "pending": [],
  "returns": {},
  "timestamp": 1725475834,
  "chain": 84532,
  "commit": "da4a4b9"
}