{
  "transactions": [
    {
      "hash": "0xf066b213f7f12e6b15b25129fe5e1ac5b22568f56a8ad1b0db21534fbcd4205c",
      "transactionType": "CALL",
      "contractName": null,
      "contractAddress": "0x09dc432d56616a204b79abad351d84ad78153d5d",
      "function": "setPeer(uint32,bytes32)",
      "arguments": [
        "40245",
        "0x00000000000000000000000089ad215ef488e254b804162c83d6bc7de0e1519c"
      ],
      "transaction": {
        "from": "0x12b2434a1022d5787bf06056f2885fe35de62bf8",
        "to": "0x09dc432d56616a204b79abad351d84ad78153d5d",
        "gas": "0x1005f",
        "value": "0x0",
        "input": "0x3400288b0000000000000000000000000000000000000000000000000000000000009d3500000000000000000000000089ad215ef488e254b804162c83d6bc7de0e1519c",
        "nonce": "0x23",
        "chainId": "0xaa36a7"
      },
      "additionalContracts": [],
      "isFixedGasLimit": false
    }
  ],
  "receipts": [
    {
      "status": "0x1",
      "cumulativeGasUsed": "0x6ff525",
      "logs": [
        {
          "address": "0x09dc432d56616a204b79abad351d84ad78153d5d",
          "topics": [
            "0x238399d427b947898edb290f5ff0f9109849b1c3ba196a42e35f00c50a54b98b"
          ],
          "data": "0x0000000000000000000000000000000000000000000000000000000000009d3500000000000000000000000089ad215ef488e254b804162c83d6bc7de0e1519c",
          "blockHash": "0x0c7e09d171cf070c26e741dfc1b7e41a3de8d0ddb1439ca73dbdb2caa9bde108",
          "blockNumber": "0x64fb7a",
          "transactionHash": "0xf066b213f7f12e6b15b25129fe5e1ac5b22568f56a8ad1b0db21534fbcd4205c",
          "transactionIndex": "0x2f",
          "logIndex": "0x6b",
          "removed": false
        }
      ],
      "logsBloom": "0x00000000000000000000000000000001000000000000000000000000000000000000000000000000000000000000000000000000000000000800000000000000000000000000000000000000000000000000000000000000000000000000000000000000000000000000000000000000000000000000400000000000000000000000000000000000000000000000000000000000000000000000000000000000000000000000000000000000000000000000000000000000000002000000000000000000000000000000000000000000000000000000000000040000000000000000000000040000000000000000000000000000000000000000000000000000",
      "type": "0x2",
      "transactionHash": "0xf066b213f7f12e6b15b25129fe5e1ac5b22568f56a8ad1b0db21534fbcd4205c",
      "transactionIndex": "0x2f",
      "blockHash": "0x0c7e09d171cf070c26e741dfc1b7e41a3de8d0ddb1439ca73dbdb2caa9bde108",
      "blockNumber": "0x64fb7a",
      "gasUsed": "0xb99d",
      "effectiveGasPrice": "0xf02477943",
      "from": "0x12b2434a1022d5787bf06056f2885fe35de62bf8",
      "to": "0x09dc432d56616a204b79abad351d84ad78153d5d",
      "contractAddress": null
    }
  ],
  "libraries": [],
  "pending": [],
  "returns": {},
  "timestamp": 1725268577,
  "chain": 11155111,
  "commit": "5d58611"
}