{
  "transactions": [
    {
      "hash": "0x2c8dd617e97749f9da7860d367bc32306bd279ba567e1f78c8b8bcede5976e77",
      "transactionType": "CALL",
      "contractName": null,
      "contractAddress": "0xc0ce627692bc7a9849f8507e6df3d32360c2551f",
      "function": "setPeer(uint32,bytes32)",
      "arguments": [
        "40232",
        "0x000000000000000000000000d1ab93cb9edcf68e33d541f5a5d929657b473fe0"
      ],
      "transaction": {
        "from": "0x12b2434a1022d5787bf06056f2885fe35de62bf8",
        "to": "0xc0ce627692bc7a9849f8507e6df3d32360c2551f",
        "gas": "0xa42d",
        "value": "0x0",
        "input": "0x3400288b0000000000000000000000000000000000000000000000000000000000009d28000000000000000000000000d1ab93cb9edcf68e33d541f5a5d929657b473fe0",
        "nonce": "0xc4",
        "chainId": "0x14a34"
      },
      "additionalContracts": [],
      "isFixedGasLimit": false
    }
  ],
  "receipts": [
    {
      "status": "0x1",
      "cumulativeGasUsed": "0x9f80b",
      "logs": [
        {
          "address": "0xc0ce627692bc7a9849f8507e6df3d32360c2551f",
          "topics": [
            "0x238399d427b947898edb290f5ff0f9109849b1c3ba196a42e35f00c50a54b98b"
          ],
          "data": "0x0000000000000000000000000000000000000000000000000000000000009d28000000000000000000000000d1ab93cb9edcf68e33d541f5a5d929657b473fe0",
          "blockHash": "0xa7402f1eceafc6818d117d4678ca141c0fd176e21ab0a3975d8f4f004615dd42",
          "blockNumber": "0xe3d395",
          "transactionHash": "0x2c8dd617e97749f9da7860d367bc32306bd279ba567e1f78c8b8bcede5976e77",
          "transactionIndex": "0x5",
          "logIndex": "0x7",
          "removed": false
        }
      ],
      "logsBloom": "0x00000000000000000000000000000080000000000000000000000000000000000000000000000000000000000000000000000000000000000800000000000000000000000000000000000000000008000000000000000000000000000000000000000000000000000000000000000000000000000000000000000000000000000000000000000000000000000000000000000000000000000000000000000000000000000000000000000000000000000000000000000000000002000000000000000000000000000000000000000000000000000000000000040000000000000000000000000000000000000000000000100000000000000000000000000000",
      "type": "0x2",
      "transactionHash": "0x2c8dd617e97749f9da7860d367bc32306bd279ba567e1f78c8b8bcede5976e77",
      "transactionIndex": "0x5",
      "blockHash": "0xa7402f1eceafc6818d117d4678ca141c0fd176e21ab0a3975d8f4f004615dd42",
      "blockNumber": "0xe3d395",
      "gasUsed": "0x76dd",
      "effectiveGasPrice": "0x81e13c",
      "from": "0x12b2434a1022d5787bf06056f2885fe35de62bf8",
      "to": "0xc0ce627692bc7a9849f8507e6df3d32360c2551f",
      "contractAddress": null,
      "l1BaseFeeScalar": "0x44d",
      "l1BlobBaseFee": "0x32cc680154",
      "l1BlobBaseFeeScalar": "0xa118b",
      "l1Fee": "0xd1e5ca6c2ce",
      "l1GasPrice": "0x3a5046bec",
      "l1GasUsed": "0x640"
    }
  ],
  "libraries": [],
  "pending": [],
  "returns": {},
  "timestamp": 1725629969,
  "chain": 84532,
  "commit": "dc78ae4"
}