{
  "transactions": [
    {
      "hash": "0x9056cebc89e46a970a1293790fbf4b06867ad67766459729ff5653a4fa0ccbc4",
      "transactionType": "CALL",
      "contractName": null,
      "contractAddress": "0xc32b58a3aa4b65cbef6c64691e20b15e5553aca4",
      "function": "setPeer(uint32,bytes32)",
      "arguments": [
        "40232",
        "0x000000000000000000000000a8fc227dcc5cef05bfdd726e88e6e237c043f0b2"
      ],
      "transaction": {
        "from": "0x12b2434a1022d5787bf06056f2885fe35de62bf8",
        "to": "0xc32b58a3aa4b65cbef6c64691e20b15e5553aca4",
        "gas": "0xa42d",
        "value": "0x0",
        "input": "0x3400288b0000000000000000000000000000000000000000000000000000000000009d28000000000000000000000000a8fc227dcc5cef05bfdd726e88e6e237c043f0b2",
        "nonce": "0xf4",
        "chainId": "0x14a34"
      },
      "additionalContracts": [],
      "isFixedGasLimit": false
    }
  ],
  "receipts": [
    {
      "status": "0x1",
      "cumulativeGasUsed": "0x36ade1",
      "logs": [
        {
          "address": "0xc32b58a3aa4b65cbef6c64691e20b15e5553aca4",
          "topics": [
            "0x238399d427b947898edb290f5ff0f9109849b1c3ba196a42e35f00c50a54b98b"
          ],
          "data": "0x0000000000000000000000000000000000000000000000000000000000009d28000000000000000000000000a8fc227dcc5cef05bfdd726e88e6e237c043f0b2",
          "blockHash": "0x3921effdddd99954139d8b8be07ba7fbea45185cf40848395d109b1bd86ab973",
          "blockNumber": "0xe3f13e",
          "transactionHash": "0x9056cebc89e46a970a1293790fbf4b06867ad67766459729ff5653a4fa0ccbc4",
          "transactionIndex": "0x9",
          "logIndex": "0x32",
          "removed": false
        }
      ],
      "logsBloom": "0x00000000000000000200000000000000000000000000000000000000000000000000000000000000000000000000000000000000000000000800000000000000000000000000000000000000000000000000000000010000000000001000000000000000000000000000000000000000000000000000000000000000000000000000000000000000000000000000000000000000000000000000000000000000000000000000000000000000000000000000000000000000000002000000000000000000000000000000000000000000000000000000000000040000000000000000000000000000000000000000000000000000000000000000000000000000",
      "type": "0x2",
      "transactionHash": "0x9056cebc89e46a970a1293790fbf4b06867ad67766459729ff5653a4fa0ccbc4",
      "transactionIndex": "0x9",
      "blockHash": "0x3921effdddd99954139d8b8be07ba7fbea45185cf40848395d109b1bd86ab973",
      "blockNumber": "0xe3f13e",
      "gasUsed": "0x76dd",
      "effectiveGasPrice": "0x94220d",
      "from": "0x12b2434a1022d5787bf06056f2885fe35de62bf8",
      "to": "0xc32b58a3aa4b65cbef6c64691e20b15e5553aca4",
      "contractAddress": null,
      "l1BaseFeeScalar": "0x44d",
      "l1BlobBaseFee": "0x2d2778da6c",
      "l1BlobBaseFeeScalar": "0xa118b",
      "l1Fee": "0xba8e8a40e92",
      "l1GasPrice": "0x3117d7ce2",
      "l1GasUsed": "0x640"
    }
  ],
  "libraries": [],
  "pending": [],
  "returns": {},
  "timestamp": 1725645149,
  "chain": 84532,
  "commit": "dc78ae4"
}