{
  "transactions": [
    {
      "hash": "0xd86d1b811105bfbde4d6f4004bc164ce0e9e5865efc66f4a470a44f5625ac94d",
      "transactionType": "CALL",
      "contractName": null,
      "contractAddress": "0x651f45d00c1fecbc345f7ee708ffe4ab57aa46f6",
      "function": "setPeer(uint32,bytes32)",
      "arguments": [
        "40232",
        "0x0000000000000000000000006da70c3c286e44f8965c0c26d7d47dba074e9db0"
      ],
      "transaction": {
        "from": "0x12b2434a1022d5787bf06056f2885fe35de62bf8",
        "to": "0x651f45d00c1fecbc345f7ee708ffe4ab57aa46f6",
        "gas": "0xa40f",
        "value": "0x0",
        "input": "0x3400288b0000000000000000000000000000000000000000000000000000000000009d280000000000000000000000006da70c3c286e44f8965c0c26d7d47dba074e9db0",
        "nonce": "0xad",
        "chainId": "0x14a34"
      },
      "additionalContracts": [],
      "isFixedGasLimit": false
    }
  ],
  "receipts": [
    {
      "status": "0x1",
      "cumulativeGasUsed": "0x3b5f1d",
      "logs": [
        {
          "address": "0x651f45d00c1fecbc345f7ee708ffe4ab57aa46f6",
          "topics": [
            "0x238399d427b947898edb290f5ff0f9109849b1c3ba196a42e35f00c50a54b98b"
          ],
          "data": "0x0000000000000000000000000000000000000000000000000000000000009d280000000000000000000000006da70c3c286e44f8965c0c26d7d47dba074e9db0",
          "blockHash": "0x7b63b31906b7f824ff94b7ebcaf7718a498939fa4cba1c96b89f5c3a5751f43b",
          "blockNumber": "0xe35d23",
          "transactionHash": "0xd86d1b811105bfbde4d6f4004bc164ce0e9e5865efc66f4a470a44f5625ac94d",
          "transactionIndex": "0xa",
          "logIndex": "0x2f",
          "removed": false
        }
      ],
      "logsBloom": "0x00000000000000000000000000000000000000000000000000000000000000000000000000000000000000000000100000000000000000000800000000000000000000000000000000000000000000000000000000000000000000000000000000000000000000000000000000000000000000000000000000000000000000000000000000000000000000000000000000000000000000000000000000000000000000000000000000000000000000000000000000000000000002000000000000000000000000000000000000000004000000000000000000040000000000000000000000000000000000000000000000000000000400000000000000000000",
      "type": "0x2",
      "transactionHash": "0xd86d1b811105bfbde4d6f4004bc164ce0e9e5865efc66f4a470a44f5625ac94d",
      "transactionIndex": "0xa",
      "blockHash": "0x7b63b31906b7f824ff94b7ebcaf7718a498939fa4cba1c96b89f5c3a5751f43b",
      "blockNumber": "0xe35d23",
      "gasUsed": "0x76c7",
      "effectiveGasPrice": "0xf43c7",
      "blobGasUsed": "0x0",
      "from": "0x12b2434a1022d5787bf06056f2885fe35de62bf8",
      "to": "0x651f45d00c1fecbc345f7ee708ffe4ab57aa46f6",
      "contractAddress": null,
      "l1BaseFeeScalar": "0x44d",
      "l1BlobBaseFee": "0x15bcf51524b",
      "l1BlobBaseFeeScalar": "0xa118b",
      "l1Fee": "0x59a746bc917d",
      "l1GasPrice": "0x92b79006",
      "l1GasUsed": "0x640"
    }
  ],
  "libraries": [],
  "pending": [],
  "returns": {},
  "timestamp": 1725569326,
  "chain": 84532,
  "commit": "2f89147"
}