{
  "transactions": [
    {
      "hash": "0x8b5ad24549cef3bb1ea062d3e552a503688f0cb2380a4610c92aad9e7421c30e",
      "transactionType": "CALL",
      "contractName": null,
      "contractAddress": "0x99375a951b5efd15e7af1436339e9d0d369ea00f",
      "function": "setPeer(uint32,bytes32)",
      "arguments": [
        "40232",
        "0x000000000000000000000000ecfcaee7dce18423baef31b0fdfe90a881e08777"
      ],
      "transaction": {
        "from": "0x12b2434a1022d5787bf06056f2885fe35de62bf8",
        "to": "0x99375a951b5efd15e7af1436339e9d0d369ea00f",
        "gas": "0x9511",
        "value": "0x0",
        "input": "0x3400288b0000000000000000000000000000000000000000000000000000000000009d28000000000000000000000000ecfcaee7dce18423baef31b0fdfe90a881e08777",
        "nonce": "0xe2",
        "chainId": "0x14a34"
      },
      "additionalContracts": [],
      "isFixedGasLimit": false
    }
  ],
  "receipts": [
    {
      "status": "0x1",
      "cumulativeGasUsed": "0x2a468f",
      "logs": [
        {
          "address": "0x99375a951b5efd15e7af1436339e9d0d369ea00f",
          "topics": [
            "0x238399d427b947898edb290f5ff0f9109849b1c3ba196a42e35f00c50a54b98b"
          ],
          "data": "0x0000000000000000000000000000000000000000000000000000000000009d28000000000000000000000000ecfcaee7dce18423baef31b0fdfe90a881e08777",
          "blockHash": "0x65687af7102b54feec7048798d97521d87c56adae6685794f8f52a0c7e1143ee",
          "blockNumber": "0xe3e995",
          "transactionHash": "0x8b5ad24549cef3bb1ea062d3e552a503688f0cb2380a4610c92aad9e7421c30e",
          "transactionIndex": "0x9",
          "logIndex": "0x28",
          "removed": false
        }
      ],
      "logsBloom": "0x00000000000000000000000000000000000000000000000000000000000000000000000000000000000000000000000100000000000000000800000000000000000000000000000000000000000000000000000000000000000000000000000000000000000000000000000000000000000000000000000000000000000000000000000000000000000000000000000000000000000000000000000000000000000000000000000000000000800000000020000000000000000002000000000000000000000000000000000000000000000000000000000000040000000000000000000000000000000000000000000000000000000000000000000000000000",
      "type": "0x2",
      "transactionHash": "0x8b5ad24549cef3bb1ea062d3e552a503688f0cb2380a4610c92aad9e7421c30e",
      "transactionIndex": "0x9",
      "blockHash": "0x65687af7102b54feec7048798d97521d87c56adae6685794f8f52a0c7e1143ee",
      "blockNumber": "0xe3e995",
      "gasUsed": "0x6bed",
      "effectiveGasPrice": "0x94c43c",
      "from": "0x12b2434a1022d5787bf06056f2885fe35de62bf8",
      "to": "0x99375a951b5efd15e7af1436339e9d0d369ea00f",
      "contractAddress": null,
      "l1BaseFeeScalar": "0x44d",
      "l1BlobBaseFee": "0x6f653ba466",
      "l1BlobBaseFeeScalar": "0xa118b",
      "l1Fee": "0x1cc18df0afb9",
      "l1GasPrice": "0x64f46b148",
      "l1GasUsed": "0x640"
    }
  ],
  "libraries": [],
  "pending": [],
  "returns": {},
  "timestamp": 1725641234,
  "chain": 84532,
  "commit": "dc78ae4"
}