{
  "transactions": [
    {
      "hash": "0xc234f556cf10aa87799d991051f06ce7eb0f944b94b21a2f670455081e715f25",
      "transactionType": "CALL",
      "contractName": null,
      "contractAddress": "0x9947652885db3849caeecf489eca492e5f08ceb7",
      "function": "setPeer(uint32,bytes32)",
      "arguments": [
        "40232",
        "0x00000000000000000000000017a67922a3cdd02d8518f53392d953b6671eccaf"
      ],
      "transaction": {
        "from": "0x12b2434a1022d5787bf06056f2885fe35de62bf8",
        "to": "0x9947652885db3849caeecf489eca492e5f08ceb7",
        "gas": "0xa42d",
        "value": "0x0",
        "input": "0x3400288b0000000000000000000000000000000000000000000000000000000000009d2800000000000000000000000017a67922a3cdd02d8518f53392d953b6671eccaf",
        "nonce": "0xca",
        "chainId": "0x14a34"
      },
      "additionalContracts": [],
      "isFixedGasLimit": false
    }
  ],
  "receipts": [
    {
      "status": "0x1",
      "cumulativeGasUsed": "0x561c5d",
      "logs": [
        {
          "address": "0x9947652885db3849caeecf489eca492e5f08ceb7",
          "topics": [
            "0x238399d427b947898edb290f5ff0f9109849b1c3ba196a42e35f00c50a54b98b"
          ],
          "data": "0x0000000000000000000000000000000000000000000000000000000000009d2800000000000000000000000017a67922a3cdd02d8518f53392d953b6671eccaf",
          "blockHash": "0xbb3b76b329414193283685fcef672b770d57c8bcfdffeed42ea062341b4bb6fa",
          "blockNumber": "0xe3d66d",
          "transactionHash": "0xc234f556cf10aa87799d991051f06ce7eb0f944b94b21a2f670455081e715f25",
          "transactionIndex": "0x4",
          "logIndex": "0x24",
          "removed": false
        }
      ],
      "logsBloom": "0x00000002000000000000000000000000000000000000000000000000000000000000000000000000000000000000040000000000000000000800000000000000000000000000000000000000000000000000000000000000000000000000000000000000000000000000000000000000000000000000000000000000000000000000000000000000000000000000000000000000000000000000000000000000000000000000000000000000000000000000000000000000000002000000000010000000000000000000000000000000000000000000000000040000000000000000000000000000000000000000000000000000000000000000000000000000",
      "type": "0x2",
      "transactionHash": "0xc234f556cf10aa87799d991051f06ce7eb0f944b94b21a2f670455081e715f25",
      "transactionIndex": "0x4",
      "blockHash": "0xbb3b76b329414193283685fcef672b770d57c8bcfdffeed42ea062341b4bb6fa",
      "blockNumber": "0xe3d66d",
      "gasUsed": "0x76dd",
      "effectiveGasPrice": "0x914b68",
      "from": "0x12b2434a1022d5787bf06056f2885fe35de62bf8",
      "to": "0x9947652885db3849caeecf489eca492e5f08ceb7",
      "contractAddress": null,
      "l1BaseFeeScalar": "0x44d",
      "l1BlobBaseFee": "0x196f433a5ce",
      "l1BlobBaseFeeScalar": "0xa118b",
      "l1Fee": "0x68ede4b47544",
      "l1GasPrice": "0x51bb79622",
      "l1GasUsed": "0x640"
    }
  ],
  "libraries": [],
  "pending": [],
  "returns": {},
  "timestamp": 1725631419,
  "chain": 84532,
  "commit": "dc78ae4"
}