{
  "transactions": [
    {
      "hash": "0xfc1d9504640d1085d0c23f73c1da27e1db2944566906316fe6de43202512752c",
      "transactionType": "CALL",
      "contractName": null,
      "contractAddress": "0x3f8ad995e6205c8761a8514d3fec8797e69698d9",
      "function": "setPeer(uint32,bytes32)",
      "arguments": [
        "40285",
        "0x00000000000000000000000058e294d6b380552c0cd1c6fed755e2260342b12f"
      ],
      "transaction": {
        "from": "0xb0efd2b19a5698a9c830548ac22708a28c9d4552",
        "to": "0x3f8ad995e6205c8761a8514d3fec8797e69698d9",
        "gas": "0xa42d",
        "value": "0x0",
        "input": "0x3400288b0000000000000000000000000000000000000000000000000000000000009d5d00000000000000000000000058e294d6b380552c0cd1c6fed755e2260342b12f",
        "nonce": "0xc0",
        "chainId": "0x14a34"
      },
      "additionalContracts": [],
      "isFixedGasLimit": false
    }
  ],
  "receipts": [
    {
      "status": "0x1",
      "cumulativeGasUsed": "0x913b0",
      "logs": [
        {
          "address": "0x3f8ad995e6205c8761a8514d3fec8797e69698d9",
          "topics": [
            "0x238399d427b947898edb290f5ff0f9109849b1c3ba196a42e35f00c50a54b98b"
          ],
          "data": "0x0000000000000000000000000000000000000000000000000000000000009d5d00000000000000000000000058e294d6b380552c0cd1c6fed755e2260342b12f",
          "blockHash": "0x005e9489f33ae883c3078f9f0f674fb2561d71f6f777e3bb2ba6f55f14c76756",
          "blockNumber": "0xe408e3",
          "transactionHash": "0xfc1d9504640d1085d0c23f73c1da27e1db2944566906316fe6de43202512752c",
          "transactionIndex": "0x6",
          "logIndex": "0x6",
          "removed": false
        }
      ],
      "logsBloom": "0x00000000000000000000000000000000000000000000000000000000000000000000002000000000000000000000000000000000000000000800000000000000000000000000000000000000000000000000000000000000000000000000000000000000000000000000000000000000000000000000000000000000000000000000000000000000000000000000000000000000000000000000000000000000000000000000000000000000000000000000000000000000000002200000000000000000000000000000000000000000000000000000000000040000000000000000000000000000800000000000000000000000000000000000000000000000",
      "type": "0x2",
      "transactionHash": "0xfc1d9504640d1085d0c23f73c1da27e1db2944566906316fe6de43202512752c",
      "transactionIndex": "0x6",
      "blockHash": "0x005e9489f33ae883c3078f9f0f674fb2561d71f6f777e3bb2ba6f55f14c76756",
      "blockNumber": "0xe408e3",
      "gasUsed": "0x76dd",
      "effectiveGasPrice": "0xa91658",
      "from": "0xb0efd2b19a5698a9c830548ac22708a28c9d4552",
      "to": "0x3f8ad995e6205c8761a8514d3fec8797e69698d9",
      "contractAddress": null,
      "l1BaseFeeScalar": "0x44d",
      "l1BlobBaseFee": "0x217acb8943d",
      "l1BlobBaseFeeScalar": "0xa118b",
      "l1Fee": "0x8a12995d6e92",
      "l1GasPrice": "0x7694a20",
      "l1GasUsed": "0x640"
    }
  ],
  "libraries": [],
  "pending": [],
  "returns": {},
  "timestamp": 1725657259,
  "chain": 84532,
  "commit": "37e882d"
}