{
  "transactions": [
    {
      "hash": "0x84fa5eb84cd646b6eff0425584331d129d95eb5a4f3824c483d364109b115ad2",
      "transactionType": "CALL",
      "contractName": null,
      "contractAddress": "0x99375a951b5efd15e7af1436339e9d0d369ea00f",
      "function": "setPeer(uint32,bytes32)",
      "arguments": [
        "40232",
        "0x000000000000000000000000ecfcaee7dce18423baef31b0fdfe90a881e08777"
      ],
      "transaction": {
        "from": "0x12b2434a1022d5787bf06056f2885fe35de62bf8",
        "to": "0x99375a951b5efd15e7af1436339e9d0d369ea00f",
        "gas": "0xa42d",
        "value": "0x0",
        "input": "0x3400288b0000000000000000000000000000000000000000000000000000000000009d28000000000000000000000000ecfcaee7dce18423baef31b0fdfe90a881e08777",
        "nonce": "0xe1",
        "chainId": "0x14a34"
      },
      "additionalContracts": [],
      "isFixedGasLimit": false
    }
  ],
  "receipts": [
    {
      "status": "0x1",
      "cumulativeGasUsed": "0x12c78b",
      "logs": [
        {
          "address": "0x99375a951b5efd15e7af1436339e9d0d369ea00f",
          "topics": [
            "0x238399d427b947898edb290f5ff0f9109849b1c3ba196a42e35f00c50a54b98b"
          ],
          "data": "0x0000000000000000000000000000000000000000000000000000000000009d28000000000000000000000000ecfcaee7dce18423baef31b0fdfe90a881e08777",
          "blockHash": "0x219ab3cc4fc4ce0552a98ef21b8478c070abaf35febdbb4cb8073546c302583c",
          "blockNumber": "0xe3e928",
          "transactionHash": "0x84fa5eb84cd646b6eff0425584331d129d95eb5a4f3824c483d364109b115ad2",
          "transactionIndex": "0x8",
          "logIndex": "0x5",
          "removed": false
        }
      ],
      "logsBloom": "0x00000000000000000000000000000000000000000000000000000000000000000000000000000000000000000000000100000000000000000800000000000000000000000000000000000000000000000000000000000000000000000000000000000000000000000000000000000000000000000000000000000000000000000000000000000000000000000000000000000000000000000000000000000000000000000000000000000000800000000020000000000000000002000000000000000000000000000000000000000000000000000000000000040000000000000000000000000000000000000000000000000000000000000000000000000000",
      "type": "0x2",
      "transactionHash": "0x84fa5eb84cd646b6eff0425584331d129d95eb5a4f3824c483d364109b115ad2",
      "transactionIndex": "0x8",
      "blockHash": "0x219ab3cc4fc4ce0552a98ef21b8478c070abaf35febdbb4cb8073546c302583c",
      "blockNumber": "0xe3e928",
      "gasUsed": "0x76dd",
      "effectiveGasPrice": "0x94aacf",
      "from": "0x12b2434a1022d5787bf06056f2885fe35de62bf8",
      "to": "0x99375a951b5efd15e7af1436339e9d0d369ea00f",
      "contractAddress": null,
      "l1BaseFeeScalar": "0x44d",
      "l1BlobBaseFee": "0x787eb9bbc3",
      "l1BlobBaseFeeScalar": "0xa118b",
      "l1Fee": "0x1f1ed640a0a0",
      "l1GasPrice": "0x90f792da0",
      "l1GasUsed": "0x640"
    }
  ],
  "libraries": [],
  "pending": [],
  "returns": {},
  "timestamp": 1725641014,
  "chain": 84532,
  "commit": "dc78ae4"
}