{
  "transactions": [
    {
      "hash": "0x8829cef17f85810eeaa72cf1cb659fc76eeafe2c632a0f3995b6cc2dada948c6",
      "transactionType": "CALL",
      "contractName": null,
      "contractAddress": "0x053d81199c95e265f2e369e4afc4b30eb8b228c3",
      "function": "setPeer(uint32,bytes32)",
      "arguments": [
        "40285",
        "0x000000000000000000000000d163189d9add5ee1b740846e2b736823aa8d069c"
      ],
      "transaction": {
        "from": "0xb0efd2b19a5698a9c830548ac22708a28c9d4552",
        "to": "0x053d81199c95e265f2e369e4afc4b30eb8b228c3",
        "gas": "0xa42d",
        "value": "0x0",
        "input": "0x3400288b0000000000000000000000000000000000000000000000000000000000009d5d000000000000000000000000d163189d9add5ee1b740846e2b736823aa8d069c",
        "nonce": "0xba",
        "chainId": "0x14a34"
      },
      "additionalContracts": [],
      "isFixedGasLimit": false
    }
  ],
  "receipts": [
    {
      "status": "0x1",
      "cumulativeGasUsed": "0xe14ec",
      "logs": [
        {
          "address": "0x053d81199c95e265f2e369e4afc4b30eb8b228c3",
          "topics": [
            "0x238399d427b947898edb290f5ff0f9109849b1c3ba196a42e35f00c50a54b98b"
          ],
          "data": "0x0000000000000000000000000000000000000000000000000000000000009d5d000000000000000000000000d163189d9add5ee1b740846e2b736823aa8d069c",
          "blockHash": "0xcd2b7a3638b0612adbc16f59ed9e2af1106ddd67bf3183b4a30b28ee095fc976",
          "blockNumber": "0xe40464",
          "transactionHash": "0x8829cef17f85810eeaa72cf1cb659fc76eeafe2c632a0f3995b6cc2dada948c6",
          "transactionIndex": "0x4",
          "logIndex": "0x14",
          "removed": false
        }
      ],
      "logsBloom": "0x00000000000000000000000000000000000000000000000000000000000000000000000000000000000000000000000000000000000000000800000000000000000000000000000000000000000000000000000000000000000000000000000000000000000000000000000000000000000000000000000000000000000000000000000000000000000000000000000000000000000000000000000000000000000000000000000000000000000000000000000000000000000002000000000000020000000000000000000000000000000000000000000000040002000000000000080000000000000000000000000000000000000000000000000000000000",
      "type": "0x2",
      "transactionHash": "0x8829cef17f85810eeaa72cf1cb659fc76eeafe2c632a0f3995b6cc2dada948c6",
      "transactionIndex": "0x4",
      "blockHash": "0xcd2b7a3638b0612adbc16f59ed9e2af1106ddd67bf3183b4a30b28ee095fc976",
      "blockNumber": "0xe40464",
      "gasUsed": "0x76dd",
      "effectiveGasPrice": "0xa5acd7",
      "from": "0xb0efd2b19a5698a9c830548ac22708a28c9d4552",
      "to": "0x053d81199c95e265f2e369e4afc4b30eb8b228c3",
      "contractAddress": null,
      "l1BaseFeeScalar": "0x44d",
      "l1BlobBaseFee": "0x1352a0f1e91",
      "l1BlobBaseFeeScalar": "0xa118b",
      "l1Fee": "0x4fb0596cccea",
      "l1GasPrice": "0x1059c470",
      "l1GasUsed": "0x640"
    }
  ],
  "libraries": [],
  "pending": [],
  "returns": {},
  "timestamp": 1725654958,
  "chain": 84532,
  "commit": "37e882d"
}