{
  "transactions": [
    {
      "hash": "0x579ea23acbb41cb410c163629762908c575a587d89ff4bac821db7576450867c",
      "transactionType": "CALL",
      "contractName": null,
      "contractAddress": "0xf47d259df9b4b79b802f920f0e9688754a0597ee",
      "function": "setPeer(uint32,bytes32)",
      "arguments": [
        "40232",
        "0x000000000000000000000000d95e48a59098c53aa070fc026970f44e9175b4e1"
      ],
      "transaction": {
        "from": "0x12b2434a1022d5787bf06056f2885fe35de62bf8",
        "to": "0xf47d259df9b4b79b802f920f0e9688754a0597ee",
        "gas": "0xa40f",
        "value": "0x0",
        "input": "0x3400288b0000000000000000000000000000000000000000000000000000000000009d28000000000000000000000000d95e48a59098c53aa070fc026970f44e9175b4e1",
        "nonce": "0xb6",
        "chainId": "0x14a34"
      },
      "additionalContracts": [],
      "isFixedGasLimit": false
    }
  ],
  "receipts": [
    {
      "status": "0x1",
      "cumulativeGasUsed": "0x916de",
      "logs": [
        {
          "address": "0xf47d259df9b4b79b802f920f0e9688754a0597ee",
          "topics": [
            "0x238399d427b947898edb290f5ff0f9109849b1c3ba196a42e35f00c50a54b98b"
          ],
          "data": "0x0000000000000000000000000000000000000000000000000000000000009d28000000000000000000000000d95e48a59098c53aa070fc026970f44e9175b4e1",
          "blockHash": "0x668fc6e08a685e079f8ca67b59c3f8e4903e7385486f89522d6f6e2d00c5e442",
          "blockNumber": "0xe3c276",
          "transactionHash": "0x579ea23acbb41cb410c163629762908c575a587d89ff4bac821db7576450867c",
          "transactionIndex": "0x6",
          "logIndex": "0x8",
          "removed": false
        }
      ],
      "logsBloom": "0x00000000000000000000000000000000000000000000000000000200000000000000000000000000000000000000000000000000000000000800000000000000000000000000000000000000000000000000000000000000000000000000000000000000000000000000000000000000000000000000000000000000000000000000000000000000000000000000000000000000000000000000000000000000000000000000000000000000000000000000000000000000000002000000000000000000000000000000000000000000008000000000000000440000000000000000000000000000000000000000000000000000000000000000000000000000",
      "type": "0x2",
      "transactionHash": "0x579ea23acbb41cb410c163629762908c575a587d89ff4bac821db7576450867c",
      "transactionIndex": "0x6",
      "blockHash": "0x668fc6e08a685e079f8ca67b59c3f8e4903e7385486f89522d6f6e2d00c5e442",
      "blockNumber": "0xe3c276",
      "gasUsed": "0x76c7",
      "effectiveGasPrice": "0x89c256",
      "blobGasUsed": "0x0",
      "from": "0x12b2434a1022d5787bf06056f2885fe35de62bf8",
      "to": "0xf47d259df9b4b79b802f920f0e9688754a0597ee",
      "contractAddress": null,
      "l1BaseFeeScalar": "0x44d",
      "l1BlobBaseFee": "0x34d520ab4b",
      "l1BlobBaseFeeScalar": "0xa118b",
      "l1Fee": "0xda20fd66659",
      "l1GasPrice": "0x237104df0",
      "l1GasUsed": "0x640"
    }
  ],
  "libraries": [],
  "pending": [],
  "returns": {},
  "timestamp": 1725621203,
  "chain": 84532,
  "commit": "dc78ae4"
}