{
  "transactions": [
    {
      "hash": "0x6540bcda8b66598b30cc1fede60426e7afc75e4fe24d3b341fbde2195682a714",
      "transactionType": "CALL",
      "contractName": null,
      "contractAddress": "0x77c2247f13a9e2640b1c362426546216451c288f",
      "function": "setPeer(uint32,bytes32)",
      "arguments": [
        "40232",
        "0x000000000000000000000000510a34176fc0cafd03a7386a77aee41ac7bd7a09"
      ],
      "transaction": {
        "from": "0x12b2434a1022d5787bf06056f2885fe35de62bf8",
        "to": "0x77c2247f13a9e2640b1c362426546216451c288f",
        "gas": "0xa42d",
        "value": "0x0",
        "input": "0x3400288b0000000000000000000000000000000000000000000000000000000000009d28000000000000000000000000510a34176fc0cafd03a7386a77aee41ac7bd7a09",
        "nonce": "0xd0",
        "chainId": "0x14a34"
      },
      "additionalContracts": [],
      "isFixedGasLimit": false
    }
  ],
  "receipts": [
    {
      "status": "0x1",
      "cumulativeGasUsed": "0x33f44",
      "logs": [
        {
          "address": "0x77c2247f13a9e2640b1c362426546216451c288f",
          "topics": [
            "0x238399d427b947898edb290f5ff0f9109849b1c3ba196a42e35f00c50a54b98b"
          ],
          "data": "0x0000000000000000000000000000000000000000000000000000000000009d28000000000000000000000000510a34176fc0cafd03a7386a77aee41ac7bd7a09",
          "blockHash": "0x48ed7145c67e5fc6eb0dec6da987f092d26865f42c3bb989948621ec548ce576",
          "blockNumber": "0xe3d978",
          "transactionHash": "0x6540bcda8b66598b30cc1fede60426e7afc75e4fe24d3b341fbde2195682a714",
          "transactionIndex": "0x3",
          "logIndex": "0x2",
          "removed": false
        }
      ],
      "logsBloom": "0x00000000000000000000000000000000200000000000000000000000000000000000000000000000000000000000000000000000000000000800000000000000000000000000000000000000000000000000000000000000000000000000000000000000000000400000000000000000000000000000000000000000000000000000000000000000000000000000000000000000000000000000000000000000000000000000000000000000000000000000000000000000000002000000000000000000000000000000000000000000000000000000000800040000000000000000000000000000000000000000000000000000000000000000000000000000",
      "type": "0x2",
      "transactionHash": "0x6540bcda8b66598b30cc1fede60426e7afc75e4fe24d3b341fbde2195682a714",
      "transactionIndex": "0x3",
      "blockHash": "0x48ed7145c67e5fc6eb0dec6da987f092d26865f42c3bb989948621ec548ce576",
      "blockNumber": "0xe3d978",
      "gasUsed": "0x76dd",
      "effectiveGasPrice": "0xa9346f",
      "from": "0x12b2434a1022d5787bf06056f2885fe35de62bf8",
      "to": "0x77c2247f13a9e2640b1c362426546216451c288f",
      "contractAddress": null,
      "l1BaseFeeScalar": "0x44d",
      "l1BlobBaseFee": "0xf44727f93e",
      "l1BlobBaseFeeScalar": "0xa118b",
      "l1Fee": "0x3f05978268d9",
      "l1GasPrice": "0x8735c8885",
      "l1GasUsed": "0x640"
    }
  ],
  "libraries": [],
  "pending": [],
  "returns": {},
  "timestamp": 1725632983,
  "chain": 84532,
  "commit": "dc78ae4"
}