{
  "transactions": [
    {
      "hash": "0xb3b8c35d98540a77d7a859c9d46fa1797d5caca99a11f226b2da5eb50c59f8f7",
      "transactionType": "CALL",
      "contractName": null,
      "contractAddress": "0x0742e003fbe108fd92f7b089cdce906a9a143e2c",
      "function": "setPeer(uint32,bytes32)",
      "arguments": [
        "40232",
        "0x000000000000000000000000c121edef7be2bc9ea7e8bc6d697bd6af3730a266"
      ],
      "transaction": {
        "from": "0x12b2434a1022d5787bf06056f2885fe35de62bf8",
        "to": "0x0742e003fbe108fd92f7b089cdce906a9a143e2c",
        "gas": "0xa42d",
        "value": "0x0",
        "input": "0x3400288b0000000000000000000000000000000000000000000000000000000000009d28000000000000000000000000c121edef7be2bc9ea7e8bc6d697bd6af3730a266",
        "nonce": "0xfa",
        "chainId": "0x14a34"
      },
      "additionalContracts": [],
      "isFixedGasLimit": false
    }
  ],
  "receipts": [
    {
      "status": "0x1",
      "cumulativeGasUsed": "0x9ee9f",
      "logs": [
        {
          "address": "0x0742e003fbe108fd92f7b089cdce906a9a143e2c",
          "topics": [
            "0x238399d427b947898edb290f5ff0f9109849b1c3ba196a42e35f00c50a54b98b"
          ],
          "data": "0x0000000000000000000000000000000000000000000000000000000000009d28000000000000000000000000c121edef7be2bc9ea7e8bc6d697bd6af3730a266",
          "blockHash": "0x528e880696ece0555a8d04635d10333f72c30e12233ec3122ce251f9aed1b334",
          "blockNumber": "0xe45516",
          "transactionHash": "0xb3b8c35d98540a77d7a859c9d46fa1797d5caca99a11f226b2da5eb50c59f8f7",
          "transactionIndex": "0x4",
          "logIndex": "0xa",
          "removed": false
        }
      ],
      "logsBloom": "0x00000000000000000000000000000000000000000000000000000000000000000000000000000000000000000000000000000000000000000800000000000000000000000000000000000000000000000000000000000000000000000000000000000000000000000000000000000000000000000000000000000000000000000000000000000000000000000000000000000000000000100000000000000000000000000000000000000000000000000000000000000000000002000000000000000000000000000000000000000000000000000000000000040000000000000000000000000000000000000001000000000000000000000000000000000002",
      "type": "0x2",
      "transactionHash": "0xb3b8c35d98540a77d7a859c9d46fa1797d5caca99a11f226b2da5eb50c59f8f7",
      "transactionIndex": "0x4",
      "blockHash": "0x528e880696ece0555a8d04635d10333f72c30e12233ec3122ce251f9aed1b334",
      "blockNumber": "0xe45516",
      "gasUsed": "0x76dd",
      "effectiveGasPrice": "0x932b03",
      "from": "0x12b2434a1022d5787bf06056f2885fe35de62bf8",
      "to": "0x0742e003fbe108fd92f7b089cdce906a9a143e2c",
      "contractAddress": null,
      "l1BaseFeeScalar": "0x44d",
      "l1BlobBaseFee": "0xe763b3da5",
      "l1BlobBaseFeeScalar": "0xa118b",
      "l1Fee": "0x3bbb260e605",
      "l1GasPrice": "0xcfeb1094",
      "l1GasUsed": "0x640"
    }
  ],
  "libraries": [],
  "pending": [],
  "returns": {},
  "timestamp": 1725696275,
  "chain": 84532,
  "commit": "c44a2e9"
}