{
  "transactions": [
    {
      "hash": "0x7b07cf542c83c436697c83aa3839f70361c5f2244e71798b12e91c821738a707",
      "transactionType": "CALL",
      "contractName": null,
      "contractAddress": "0x2a17c4869fc313082a4a8b8f19c1950720f767a5",
      "function": "setPeer(uint32,bytes32)",
      "arguments": [
        "40232",
        "0x00000000000000000000000056efc51670dfbdbdfb2464e182edb2b72a5d4954"
      ],
      "transaction": {
        "from": "0x12b2434a1022d5787bf06056f2885fe35de62bf8",
        "to": "0x2a17c4869fc313082a4a8b8f19c1950720f767a5",
        "gas": "0xa42d",
        "value": "0x0",
        "input": "0x3400288b0000000000000000000000000000000000000000000000000000000000009d2800000000000000000000000056efc51670dfbdbdfb2464e182edb2b72a5d4954",
        "nonce": "0xe8",
        "chainId": "0x14a34"
      },
      "additionalContracts": [],
      "isFixedGasLimit": false
    }
  ],
  "receipts": [
    {
      "status": "0x1",
      "cumulativeGasUsed": "0x30d26b",
      "logs": [
        {
          "address": "0x2a17c4869fc313082a4a8b8f19c1950720f767a5",
          "topics": [
            "0x238399d427b947898edb290f5ff0f9109849b1c3ba196a42e35f00c50a54b98b"
          ],
          "data": "0x0000000000000000000000000000000000000000000000000000000000009d2800000000000000000000000056efc51670dfbdbdfb2464e182edb2b72a5d4954",
          "blockHash": "0x9919e1d96788de0a8a49c69635bd78d3e51da65314bc35807f53445e456cba52",
          "blockNumber": "0xe3eb26",
          "transactionHash": "0x7b07cf542c83c436697c83aa3839f70361c5f2244e71798b12e91c821738a707",
          "transactionIndex": "0xf",
          "logIndex": "0x2c",
          "removed": false
        }
      ],
      "logsBloom": "0x00000000000000000000000000000000000000000000000000000000000000000000000000000000000000000000000000000000000000000800000000000000000000000000000000000000000000000000000000000000000000800000000000000000000000000000000000000000000000000000000000000000000000000000000000000000000000000000000000000000000000000000000000000000000000000000000400000000000000000000000000000000000002000000000000000000000000000000000000000000000000000000000000040000000000000000000000000000000000000000000008000000000000000000000000000000",
      "type": "0x2",
      "transactionHash": "0x7b07cf542c83c436697c83aa3839f70361c5f2244e71798b12e91c821738a707",
      "transactionIndex": "0xf",
      "blockHash": "0x9919e1d96788de0a8a49c69635bd78d3e51da65314bc35807f53445e456cba52",
      "blockNumber": "0xe3eb26",
      "gasUsed": "0x76dd",
      "effectiveGasPrice": "0x87559a",
      "from": "0x12b2434a1022d5787bf06056f2885fe35de62bf8",
      "to": "0x2a17c4869fc313082a4a8b8f19c1950720f767a5",
      "contractAddress": null,
      "l1BaseFeeScalar": "0x44d",
      "l1BlobBaseFee": "0x8cfc1fba87",
      "l1BlobBaseFeeScalar": "0xa118b",
      "l1Fee": "0x246419181cd0",
      "l1GasPrice": "0x77df6fd7a",
      "l1GasUsed": "0x640"
    }
  ],
  "libraries": [],
  "pending": [],
  "returns": {},
  "timestamp": 1725642035,
  "chain": 84532,
  "commit": "dc78ae4"
}