{
  "transactions": [
    {
      "hash": "0xa05f1146b4fefd500929a6f3a213690d1e1113cec8da5c7e625d92be6032cdb3",
      "transactionType": "CALL",
      "contractName": null,
      "contractAddress": "0x51aed1b696d630063f5f7c1733f3b429c92f9465",
      "function": "verifyProject(string,string,string,string)",
      "arguments": [
        "StringWorks",
        "testy",
        "testytest",
        "testtytest"
      ],
      "transaction": {
        "from": "0x12b2434a1022d5787bf06056f2885fe35de62bf8",
        "to": "0x51aed1b696d630063f5f7c1733f3b429c92f9465",
        "gas": "0x108b5c",
        "value": "0x11c37937e080000",
        "input": "0xbef6c21e000000000000000000000000000000000000000000000000000000000000008000000000000000000000000000000000000000000000000000000000000000c000000000000000000000000000000000000000000000000000000000000001000000000000000000000000000000000000000000000000000000000000000140000000000000000000000000000000000000000000000000000000000000000b537472696e67576f726b730000000000000000000000000000000000000000000000000000000000000000000000000000000000000000000000000000000005746573747900000000000000000000000000000000000000000000000000000000000000000000000000000000000000000000000000000000000000000000097465737479746573740000000000000000000000000000000000000000000000000000000000000000000000000000000000000000000000000000000000000a7465737474797465737400000000000000000000000000000000000000000000",
        "nonce": "0x8a",
        "chainId": "0x14a34"
      },
      "additionalContracts": [],
      "isFixedGasLimit": false
    }
  ],
  "receipts": [
    {
      "status": "0x1",
      "cumulativeGasUsed": "0x14ce83",
      "logs": [
        {
          "address": "0x4e4af2a21ebf62850fd99eb6253e1efbb56098cd",
          "topics": [
            "0x38b331f00373c8b0f9af5a4273ca1b91e894fec999bfa4ec787e8c90a5c8b05c"
          ],
          "data": "0x000000000000000000000000000000000000000000000000000000000000047a00000000000000000000000000000000000000000000000000000000000000400000000000000000000000000000000000000000000000000000000000000000",
          "blockHash": "0xb9603cdcdb18386aff861a3b893a5c8dbf3228dfba6d35934abdb78d734e63ad",
          "blockNumber": "0xe31796",
          "transactionHash": "0xa05f1146b4fefd500929a6f3a213690d1e1113cec8da5c7e625d92be6032cdb3",
          "transactionIndex": "0x4",
          "logIndex": "0xc",
          "removed": false
        },
        {
          "address": "0xc1868e054425d378095a003ecba3823a5d0135c9",
          "topics": [
            "0x61ed099e74a97a1d7f8bb0952a88ca8b7b8ebd00c126ea04671f92a81213318a"
          ],
          "data": "0x0000000000000000000000008a3d588d9f6ac041476b094f97ff94ec30169d3d00000000000000000000000000000000000000000000000000d573f0d59a0272",
          "blockHash": "0xb9603cdcdb18386aff861a3b893a5c8dbf3228dfba6d35934abdb78d734e63ad",
          "blockNumber": "0xe31796",
          "transactionHash": "0xa05f1146b4fefd500929a6f3a213690d1e1113cec8da5c7e625d92be6032cdb3",
          "transactionIndex": "0x4",
          "logIndex": "0xd",
          "removed": false
        },
        {
          "address": "0xc1868e054425d378095a003ecba3823a5d0135c9",
          "topics": [
            "0x07ea52d82345d6e838192107d8fd7123d9c2ec8e916cd0aad13fd2b60db24644"
          ],
          "data": "0x000000000000000000000000000000000000000000000000000000000000006000000000000000000000000000000000000000000000000000000000000000a000000000000000000000000000000000000000000000000000000000000000c00000000000000000000000000000000000000000000000000000000000000001000000000000000000000000e1a12515f9ab2764b887bf60b923ca494ebbb2d600000000000000000000000000000000000000000000000000000000000000000000000000000000000000000000000000000000000000000000000000000001000000000000000000000000000000000000000000000000000003cb947eb288",
          "blockHash": "0xb9603cdcdb18386aff861a3b893a5c8dbf3228dfba6d35934abdb78d734e63ad",
          "blockNumber": "0xe31796",
          "transactionHash": "0xa05f1146b4fefd500929a6f3a213690d1e1113cec8da5c7e625d92be6032cdb3",
          "transactionIndex": "0x4",
          "logIndex": "0xe",
          "removed": false
        },
        {
          "address": "0x6edce65403992e310a62460808c4b910d972f10f",
          "topics": [
            "0x1ab700d4ced0c005b164c0f789fd09fcbb0156d4c2041b8a3bfbcd961cd1567f"
          ],
          "data": "0x00000000000000000000000000000000000000000000000000000000000000600000000000000000000000000000000000000000000000000000000000000160000000000000000000000000c1868e054425d378095a003ecba3823a5d0135c900000000000000000000000000000000000000000000000000000000000000d101000000000000000100009d3500000000000000000000000051aed1b696d630063f5f7c1733f3b429c92f946500009d2800000000000000000000000057c550921592cbfb32e3c51422224b68e8f2c00cd463a36fa244b7a408f85f3cfcae235789db0c612d1bce889974020c753f4dd20000000000000000000000000000000000000000000000000000000000000020000000000000000000000000000000000000000000000000000000000000000b537472696e67576f726b73000000000000000000000000000000000000000000000000000000000000000000000000000000000000000000000000000000000000000000000000000000000000002600030100210100000000000000000000000000011170000000000000000000b1a2bc2ec500000000000000000000000000000000000000000000000000000000",
          "blockHash": "0xb9603cdcdb18386aff861a3b893a5c8dbf3228dfba6d35934abdb78d734e63ad",
          "blockNumber": "0xe31796",
          "transactionHash": "0xa05f1146b4fefd500929a6f3a213690d1e1113cec8da5c7e625d92be6032cdb3",
          "transactionIndex": "0x4",
          "logIndex": "0xf",
          "removed": false
        }
      ],
      "logsBloom": "0x20000000000000000000000000000000000000000000000000000000000000000000080000000200200000000000000000000000000000000000000000040000000000000000000000000000000000000000000000200000000000020000000000000000000000008200000000000000000000000000000000000000000000000000000000000020000000080000000000000000000000000000000000000000000000008000000000100000000000000000000000400000000440000000000080000000000000000000000000000000000000000000000000000000000000000000040000000000400004000000002000000000000000000000000000000000",
      "type": "0x2",
      "transactionHash": "0xa05f1146b4fefd500929a6f3a213690d1e1113cec8da5c7e625d92be6032cdb3",
      "transactionIndex": "0x4",
      "blockHash": "0xb9603cdcdb18386aff861a3b893a5c8dbf3228dfba6d35934abdb78d734e63ad",
      "blockNumber": "0xe31796",
      "gasUsed": "0xb4ff9",
      "effectiveGasPrice": "0xc65a",
      "blobGasUsed": "0x0",
      "from": "0x12b2434a1022d5787bf06056f2885fe35de62bf8",
      "to": "0x51aed1b696d630063f5f7c1733f3b429c92f9465",
      "contractAddress": null,
      "l1BaseFeeScalar": "0x44d",
      "l1BlobBaseFee": "0xab906fe6c9",
      "l1BlobBaseFeeScalar": "0xa118b",
      "l1Fee": "0x3c0bf8bf9f2e",
      "l1GasPrice": "0x95f1f0f86",
      "l1GasUsed": "0x879"
    }
  ],
  "libraries": [],
  "pending": [],
  "returns": {},
  "timestamp": 1725533715,
  "chain": 84532,
  "commit": "6821207"
}