{
  "transactions": [
    {
      "hash": "0x8454a6200ae16a0f7ec2c49724060482c277279a1874e1fb9fce077dd3f08ecf",
      "transactionType": "CALL",
      "contractName": null,
      "contractAddress": "0xe4b0be62627747ac752669ebb93ee612ecfd73be",
      "function": "verifyProject(string,string,string,string)",
      "arguments": [
        "StringWorks",
        "testy",
        "testytest",
        "testtytest"
      ],
      "transaction": {
        "from": "0x6680dfd1c6a4867476b2e60da89354ac93272878",
        "to": "0xe4b0be62627747ac752669ebb93ee612ecfd73be",
        "gas": "0x10a21e",
        "value": "0x11c37937e08000",
        "input": "0xbef6c21e000000000000000000000000000000000000000000000000000000000000008000000000000000000000000000000000000000000000000000000000000000c000000000000000000000000000000000000000000000000000000000000001000000000000000000000000000000000000000000000000000000000000000140000000000000000000000000000000000000000000000000000000000000000b537472696e67576f726b730000000000000000000000000000000000000000000000000000000000000000000000000000000000000000000000000000000005746573747900000000000000000000000000000000000000000000000000000000000000000000000000000000000000000000000000000000000000000000097465737479746573740000000000000000000000000000000000000000000000000000000000000000000000000000000000000000000000000000000000000a7465737474797465737400000000000000000000000000000000000000000000",
        "nonce": "0xb",
        "chainId": "0x14a34"
      },
      "additionalContracts": [],
      "isFixedGasLimit": false
    }
  ],
  "receipts": [
    {
      "status": "0x1",
      "cumulativeGasUsed": "0x2e860a",
      "logs": [
        {
          "address": "0x4e4af2a21ebf62850fd99eb6253e1efbb56098cd",
          "topics": [
            "0x38b331f00373c8b0f9af5a4273ca1b91e894fec999bfa4ec787e8c90a5c8b05c"
          ],
          "data": "0x000000000000000000000000000000000000000000000000000000000000062a00000000000000000000000000000000000000000000000000000000000000400000000000000000000000000000000000000000000000000000000000000000",
          "blockHash": "0xc299400ae2d999396ab98e22f72e1d225852c668b91562992bd906858d9e5cf1",
          "blockNumber": "0xe4a6ad",
          "transactionHash": "0x8454a6200ae16a0f7ec2c49724060482c277279a1874e1fb9fce077dd3f08ecf",
          "transactionIndex": "0x5",
          "logIndex": "0x11",
          "removed": false
        },
        {
          "address": "0xc1868e054425d378095a003ecba3823a5d0135c9",
          "topics": [
            "0x61ed099e74a97a1d7f8bb0952a88ca8b7b8ebd00c126ea04671f92a81213318a"
          ],
          "data": "0x0000000000000000000000008a3d588d9f6ac041476b094f97ff94ec30169d3d000000000000000000000000000000000000000000000000000052b527e51874",
          "blockHash": "0xc299400ae2d999396ab98e22f72e1d225852c668b91562992bd906858d9e5cf1",
          "blockNumber": "0xe4a6ad",
          "transactionHash": "0x8454a6200ae16a0f7ec2c49724060482c277279a1874e1fb9fce077dd3f08ecf",
          "transactionIndex": "0x5",
          "logIndex": "0x12",
          "removed": false
        },
        {
          "address": "0xc1868e054425d378095a003ecba3823a5d0135c9",
          "topics": [
            "0x07ea52d82345d6e838192107d8fd7123d9c2ec8e916cd0aad13fd2b60db24644"
          ],
          "data": "0x000000000000000000000000000000000000000000000000000000000000006000000000000000000000000000000000000000000000000000000000000000a000000000000000000000000000000000000000000000000000000000000000c00000000000000000000000000000000000000000000000000000000000000001000000000000000000000000e1a12515f9ab2764b887bf60b923ca494ebbb2d60000000000000000000000000000000000000000000000000000000000000000000000000000000000000000000000000000000000000000000000000000000100000000000000000000000000000000000000000000000000000436eae6d28d",
          "blockHash": "0xc299400ae2d999396ab98e22f72e1d225852c668b91562992bd906858d9e5cf1",
          "blockNumber": "0xe4a6ad",
          "transactionHash": "0x8454a6200ae16a0f7ec2c49724060482c277279a1874e1fb9fce077dd3f08ecf",
          "transactionIndex": "0x5",
          "logIndex": "0x13",
          "removed": false
        },
        {
          "address": "0x6edce65403992e310a62460808c4b910d972f10f",
          "topics": [
            "0x1ab700d4ced0c005b164c0f789fd09fcbb0156d4c2041b8a3bfbcd961cd1567f"
          ],
          "data": "0x00000000000000000000000000000000000000000000000000000000000000600000000000000000000000000000000000000000000000000000000000000140000000000000000000000000c1868e054425d378095a003ecba3823a5d0135c900000000000000000000000000000000000000000000000000000000000000b101000000000000000100009d35000000000000000000000000e4b0be62627747ac752669ebb93ee612ecfd73be00009d28000000000000000000000000a6f21f0c90f316d8420bbf3897eb98227285d14bcefb12f0135fef150554ec6be32dfdb0d4dd5affe2765d37e677aad5eb706b8b0000000000000000000000006680dfd1c6a4867476b2e60da89354ac932728780000000000000000000000000000000000000000000000000000000000000000000000000000000000000000000000000000000000000000000000000000000000000000000000000000000000002c00030100110100000000000000000000000000011170010013030000000000000000000000000000000111700000000000000000000000000000000000000000",
          "blockHash": "0xc299400ae2d999396ab98e22f72e1d225852c668b91562992bd906858d9e5cf1",
          "blockNumber": "0xe4a6ad",
          "transactionHash": "0x8454a6200ae16a0f7ec2c49724060482c277279a1874e1fb9fce077dd3f08ecf",
          "transactionIndex": "0x5",
          "logIndex": "0x14",
          "removed": false
        }
      ],
      "logsBloom": "0x20000000000000000000000000000000000000000000000000000000000000000000080000000200200000000000000000000000000000000000000000040000000000000000000000000000000000000000000000200000000000020000000000000000000000008200000000000000000000000000000000000000000000000000000000000020000000080000000000000000000000000000000000000000000000008000000000100000000000000000000000400000000440000000000080000000000000000000000000000000000000000000000000000000000000000000040000000000400004000000002000000000000000000000000000000000",
      "type": "0x2",
      "transactionHash": "0x8454a6200ae16a0f7ec2c49724060482c277279a1874e1fb9fce077dd3f08ecf",
      "transactionIndex": "0x5",
      "blockHash": "0xc299400ae2d999396ab98e22f72e1d225852c668b91562992bd906858d9e5cf1",
      "blockNumber": "0xe4a6ad",
      "gasUsed": "0xb5f89",
      "effectiveGasPrice": "0x1a0f30",
      "from": "0x6680dfd1c6a4867476b2e60da89354ac93272878",
      "to": "0xe4b0be62627747ac752669ebb93ee612ecfd73be",
      "contractAddress": null,
      "l1BaseFeeScalar": "0x44d",
      "l1BlobBaseFee": "0x2604f4d55",
      "l1BlobBaseFeeScalar": "0xa118b",
      "l1Fee": "0xd35f7e8410",
      "l1GasPrice": "0x991a2f5",
      "l1GasUsed": "0x86c"
    }
  ],
  "libraries": [],
  "pending": [],
  "returns": {},
  "timestamp": 1725738049,
  "chain": 84532,
  "commit": "67fd3b7"
}