{
  "transactions": [
    {
      "hash": "0xcaaf4f7581d6106ded05ac04ad9a3abd08edda01c6e23c4ef654c66a0c2d6109",
      "transactionType": "CALL",
      "contractName": null,
      "contractAddress": "0x868aa7e6a8c5b594e4c142b3c139c50ef0007920",
      "function": "verifyProject(string,string,string,string)",
      "arguments": [
        "StringWorks",
        "testy",
        "testytest",
        "testtytest"
      ],
      "transaction": {
        "from": "0xb0efd2b19a5698a9c830548ac22708a28c9d4552",
        "to": "0x868aa7e6a8c5b594e4c142b3c139c50ef0007920",
        "gas": "0xfb5a1",
        "value": "0xe35fa931a0000",
        "input": "0xbef6c21e000000000000000000000000000000000000000000000000000000000000008000000000000000000000000000000000000000000000000000000000000000c000000000000000000000000000000000000000000000000000000000000001000000000000000000000000000000000000000000000000000000000000000140000000000000000000000000000000000000000000000000000000000000000b537472696e67576f726b730000000000000000000000000000000000000000000000000000000000000000000000000000000000000000000000000000000005746573747900000000000000000000000000000000000000000000000000000000000000000000000000000000000000000000000000000000000000000000097465737479746573740000000000000000000000000000000000000000000000000000000000000000000000000000000000000000000000000000000000000a7465737474797465737400000000000000000000000000000000000000000000",
        "nonce": "0xaa",
        "chainId": "0x14a34"
      },
      "additionalContracts": [],
      "isFixedGasLimit": false
    }
  ],
  "receipts": [
    {
      "status": "0x1",
      "cumulativeGasUsed": "0xc31932",
      "logs": [
        {
          "address": "0x4e4af2a21ebf62850fd99eb6253e1efbb56098cd",
          "topics": [
            "0x38b331f00373c8b0f9af5a4273ca1b91e894fec999bfa4ec787e8c90a5c8b05c"
          ],
          "data": "0x000000000000000000000000000000000000000000000000000000000000051800000000000000000000000000000000000000000000000000000000000000400000000000000000000000000000000000000000000000000000000000000000",
          "blockHash": "0xdca3c3bffdc423240e9d8e5720132c0129aad2e8da116c80afbba0670270bc68",
          "blockNumber": "0xe3f623",
          "transactionHash": "0xcaaf4f7581d6106ded05ac04ad9a3abd08edda01c6e23c4ef654c66a0c2d6109",
          "transactionIndex": "0xa",
          "logIndex": "0x61",
          "removed": false
        },
        {
          "address": "0xc1868e054425d378095a003ecba3823a5d0135c9",
          "topics": [
            "0x61ed099e74a97a1d7f8bb0952a88ca8b7b8ebd00c126ea04671f92a81213318a"
          ],
          "data": "0x0000000000000000000000008a3d588d9f6ac041476b094f97ff94ec30169d3d00000000000000000000000000000000000000000000000000004a6062855052",
          "blockHash": "0xdca3c3bffdc423240e9d8e5720132c0129aad2e8da116c80afbba0670270bc68",
          "blockNumber": "0xe3f623",
          "transactionHash": "0xcaaf4f7581d6106ded05ac04ad9a3abd08edda01c6e23c4ef654c66a0c2d6109",
          "transactionIndex": "0xa",
          "logIndex": "0x62",
          "removed": false
        },
        {
          "address": "0xc1868e054425d378095a003ecba3823a5d0135c9",
          "topics": [
            "0x07ea52d82345d6e838192107d8fd7123d9c2ec8e916cd0aad13fd2b60db24644"
          ],
          "data": "0x000000000000000000000000000000000000000000000000000000000000006000000000000000000000000000000000000000000000000000000000000000a000000000000000000000000000000000000000000000000000000000000000c00000000000000000000000000000000000000000000000000000000000000001000000000000000000000000e1a12515f9ab2764b887bf60b923ca494ebbb2d600000000000000000000000000000000000000000000000000000000000000000000000000000000000000000000000000000000000000000000000000000001000000000000000000000000000000000000000000000000000003cb947eb288",
          "blockHash": "0xdca3c3bffdc423240e9d8e5720132c0129aad2e8da116c80afbba0670270bc68",
          "blockNumber": "0xe3f623",
          "transactionHash": "0xcaaf4f7581d6106ded05ac04ad9a3abd08edda01c6e23c4ef654c66a0c2d6109",
          "transactionIndex": "0xa",
          "logIndex": "0x63",
          "removed": false
        },
        {
          "address": "0x6edce65403992e310a62460808c4b910d972f10f",
          "topics": [
            "0x1ab700d4ced0c005b164c0f789fd09fcbb0156d4c2041b8a3bfbcd961cd1567f"
          ],
          "data": "0x00000000000000000000000000000000000000000000000000000000000000600000000000000000000000000000000000000000000000000000000000000140000000000000000000000000c1868e054425d378095a003ecba3823a5d0135c900000000000000000000000000000000000000000000000000000000000000b101000000000000000100009d35000000000000000000000000868aa7e6a8c5b594e4c142b3c139c50ef000792000009d280000000000000000000000004bbb9b855fe1e7ffbb283969d210c3841aed80761224033410a193e175aa0adc043917db5cdc6755760972302ecdf368977e0216000000000000000000000000b0efd2b19a5698a9c830548ac22708a28c9d45520000000000000000000000000000000000000000000000000000000000000000000000000000000000000000000000000000000000000000000000000000000000000000000000000000000000002c000301001101000000000000000000000000000186a0010013030000000000000000000000000000000186a00000000000000000000000000000000000000000",
          "blockHash": "0xdca3c3bffdc423240e9d8e5720132c0129aad2e8da116c80afbba0670270bc68",
          "blockNumber": "0xe3f623",
          "transactionHash": "0xcaaf4f7581d6106ded05ac04ad9a3abd08edda01c6e23c4ef654c66a0c2d6109",
          "transactionIndex": "0xa",
          "logIndex": "0x64",
          "removed": false
        }
      ],
      "logsBloom": "0x20000000000000000000000000000000000000000000000000000000000000000000080000000200200000000000000000000000000000000000000000040000000000000000000000000000000000000000000000200000000000020000000000000000000000008200000000000000000000000000000000000000000000000000000000000020000000080000000000000000000000000000000000000000000000008000000000100000000000000000000000400000000440000000000080000000000000000000000000000000000000000000000000000000000000000000040000000000400004000000002000000000000000000000000000000000",
      "type": "0x2",
      "transactionHash": "0xcaaf4f7581d6106ded05ac04ad9a3abd08edda01c6e23c4ef654c66a0c2d6109",
      "transactionIndex": "0xa",
      "blockHash": "0xdca3c3bffdc423240e9d8e5720132c0129aad2e8da116c80afbba0670270bc68",
      "blockNumber": "0xe3f623",
      "gasUsed": "0xb5f97",
      "effectiveGasPrice": "0x9649d7",
      "from": "0xb0efd2b19a5698a9c830548ac22708a28c9d4552",
      "to": "0x868aa7e6a8c5b594e4c142b3c139c50ef0007920",
      "contractAddress": null,
      "l1BaseFeeScalar": "0x44d",
      "l1BlobBaseFee": "0x2ef655e2eb",
      "l1BlobBaseFeeScalar": "0xa118b",
      "l1Fee": "0x10a1fe196815",
      "l1GasPrice": "0x1dd6014c4",
      "l1GasUsed": "0x894"
    }
  ],
  "libraries": [],
  "pending": [],
  "returns": {},
  "timestamp": 1725647659,
  "chain": 84532,
  "commit": "37e882d"
}