{
  "transactions": [
    {
      "hash": "0x6e6603b5d307ccc04a696f27818950831ff94d859e923b036feaeb5d308d5a19",
      "transactionType": "CALL",
      "contractName": null,
      "contractAddress": "0x9947652885db3849caeecf489eca492e5f08ceb7",
      "function": "verifyProject(string,string,string,string)",
      "arguments": [
        "StringWorks",
        "testy",
        "testytest",
        "testtytest"
      ],
      "transaction": {
        "from": "0x12b2434a1022d5787bf06056f2885fe35de62bf8",
        "to": "0x9947652885db3849caeecf489eca492e5f08ceb7",
        "gas": "0x10a244",
        "value": "0xe35fa931a0000",
        "input": "0xbef6c21e000000000000000000000000000000000000000000000000000000000000008000000000000000000000000000000000000000000000000000000000000000c000000000000000000000000000000000000000000000000000000000000001000000000000000000000000000000000000000000000000000000000000000140000000000000000000000000000000000000000000000000000000000000000b537472696e67576f726b730000000000000000000000000000000000000000000000000000000000000000000000000000000000000000000000000000000005746573747900000000000000000000000000000000000000000000000000000000000000000000000000000000000000000000000000000000000000000000097465737479746573740000000000000000000000000000000000000000000000000000000000000000000000000000000000000000000000000000000000000a7465737474797465737400000000000000000000000000000000000000000000",
        "nonce": "0xc9",
        "chainId": "0x14a34"
      },
      "additionalContracts": [],
      "isFixedGasLimit": false
    }
  ],
  "receipts": [
    {
      "status": "0x1",
      "cumulativeGasUsed": "0x185bfb",
      "logs": [
        {
          "address": "0x4e4af2a21ebf62850fd99eb6253e1efbb56098cd",
          "topics": [
            "0x38b331f00373c8b0f9af5a4273ca1b91e894fec999bfa4ec787e8c90a5c8b05c"
          ],
          "data": "0x00000000000000000000000000000000000000000000000000000000000004e600000000000000000000000000000000000000000000000000000000000000400000000000000000000000000000000000000000000000000000000000000000",
          "blockHash": "0xf8d30d747673b46385b9108ca7b94755dacec2ea320306a2176b33e17931a562",
          "blockNumber": "0xe3d5c4",
          "transactionHash": "0x6e6603b5d307ccc04a696f27818950831ff94d859e923b036feaeb5d308d5a19",
          "transactionIndex": "0x9",
          "logIndex": "0xd",
          "removed": false
        },
        {
          "address": "0xc1868e054425d378095a003ecba3823a5d0135c9",
          "topics": [
            "0x61ed099e74a97a1d7f8bb0952a88ca8b7b8ebd00c126ea04671f92a81213318a"
          ],
          "data": "0x0000000000000000000000008a3d588d9f6ac041476b094f97ff94ec30169d3d00000000000000000000000000000000000000000000000000004a4b6a613bf2",
          "blockHash": "0xf8d30d747673b46385b9108ca7b94755dacec2ea320306a2176b33e17931a562",
          "blockNumber": "0xe3d5c4",
          "transactionHash": "0x6e6603b5d307ccc04a696f27818950831ff94d859e923b036feaeb5d308d5a19",
          "transactionIndex": "0x9",
          "logIndex": "0xe",
          "removed": false
        },
        {
          "address": "0xc1868e054425d378095a003ecba3823a5d0135c9",
          "topics": [
            "0x07ea52d82345d6e838192107d8fd7123d9c2ec8e916cd0aad13fd2b60db24644"
          ],
          "data": "0x000000000000000000000000000000000000000000000000000000000000006000000000000000000000000000000000000000000000000000000000000000a000000000000000000000000000000000000000000000000000000000000000c00000000000000000000000000000000000000000000000000000000000000001000000000000000000000000e1a12515f9ab2764b887bf60b923ca494ebbb2d600000000000000000000000000000000000000000000000000000000000000000000000000000000000000000000000000000000000000000000000000000001000000000000000000000000000000000000000000000000000003cb947eb288",
          "blockHash": "0xf8d30d747673b46385b9108ca7b94755dacec2ea320306a2176b33e17931a562",
          "blockNumber": "0xe3d5c4",
          "transactionHash": "0x6e6603b5d307ccc04a696f27818950831ff94d859e923b036feaeb5d308d5a19",
          "transactionIndex": "0x9",
          "logIndex": "0xf",
          "removed": false
        },
        {
          "address": "0x6edce65403992e310a62460808c4b910d972f10f",
          "topics": [
            "0x1ab700d4ced0c005b164c0f789fd09fcbb0156d4c2041b8a3bfbcd961cd1567f"
          ],
          "data": "0x00000000000000000000000000000000000000000000000000000000000000600000000000000000000000000000000000000000000000000000000000000140000000000000000000000000c1868e054425d378095a003ecba3823a5d0135c900000000000000000000000000000000000000000000000000000000000000b101000000000000000100009d350000000000000000000000009947652885db3849caeecf489eca492e5f08ceb700009d28000000000000000000000000301c96ec196fb6e1fe8b7eb777f317e5261b37eb247498a2880916ef8099097abd90ce2636dfa480bf24d2581e383b6b78571aaa00000000000000000000000012b2434a1022d5787bf06056f2885fe35de62bf80000000000000000000000000000000000000000000000000000000000000000000000000000000000000000000000000000000000000000000000000000000000000000000000000000000000002c0003010011010000000000000000000000000000d6d80100130300000000000000000000000000000000d6d80000000000000000000000000000000000000000",
          "blockHash": "0xf8d30d747673b46385b9108ca7b94755dacec2ea320306a2176b33e17931a562",
          "blockNumber": "0xe3d5c4",
          "transactionHash": "0x6e6603b5d307ccc04a696f27818950831ff94d859e923b036feaeb5d308d5a19",
          "transactionIndex": "0x9",
          "logIndex": "0x10",
          "removed": false
        }
      ],
      "logsBloom": "0x20000000000000000000000000000000000000000000000000000000000000000000080000000200200000000000000000000000000000000000000000040000000000000000000000000000000000000000000000200000000000020000000000000000000000008200000000000000000000000000000000000000000000000000000000000020000000080000000000000000000000000000000000000000000000008000000000100000000000000000000000400000000440000000000080000000000000000000000000000000000000000000000000000000000000000000040000000000400004000000002000000000000000000000000000000000",
      "type": "0x2",
      "transactionHash": "0x6e6603b5d307ccc04a696f27818950831ff94d859e923b036feaeb5d308d5a19",
      "transactionIndex": "0x9",
      "blockHash": "0xf8d30d747673b46385b9108ca7b94755dacec2ea320306a2176b33e17931a562",
      "blockNumber": "0xe3d5c4",
      "gasUsed": "0xb5fa3",
      "effectiveGasPrice": "0x9b13a0",
      "from": "0x12b2434a1022d5787bf06056f2885fe35de62bf8",
      "to": "0x9947652885db3849caeecf489eca492e5f08ceb7",
      "contractAddress": null,
      "l1BaseFeeScalar": "0x44d",
      "l1BlobBaseFee": "0x2436eb51182",
      "l1BlobBaseFeeScalar": "0xa118b",
      "l1Fee": "0xcd0d7b00f659",
      "l1GasPrice": "0x554df20e2",
      "l1GasUsed": "0x894"
    }
  ],
  "libraries": [],
  "pending": [],
  "returns": {},
  "timestamp": 1725631086,
  "chain": 84532,
  "commit": "dc78ae4"
}