{
  "transactions": [
    {
      "hash": "0x1ca61b0ef191cef0e6d2aa77f4ddd0a4e303e33d4c013543913d6cc91b15fa61",
      "transactionType": "CALL",
      "contractName": null,
      "contractAddress": "0x1ab2fbaf0208d6f60f3220dfa911e1c2025aba77",
      "function": "verifyProject(string,string,string,string)",
      "arguments": [
        "test",
        "testy",
        "testytest",
        "testtytest"
      ],
      "transaction": {
        "from": "0xb0efd2b19a5698a9c830548ac22708a28c9d4552",
        "to": "0x1ab2fbaf0208d6f60f3220dfa911e1c2025aba77",
        "gas": "0x107b51",
        "value": "0x16345785d8a0000",
        "input": "0xbef6c21e000000000000000000000000000000000000000000000000000000000000008000000000000000000000000000000000000000000000000000000000000000c000000000000000000000000000000000000000000000000000000000000001000000000000000000000000000000000000000000000000000000000000000140000000000000000000000000000000000000000000000000000000000000000474657374000000000000000000000000000000000000000000000000000000000000000000000000000000000000000000000000000000000000000000000005746573747900000000000000000000000000000000000000000000000000000000000000000000000000000000000000000000000000000000000000000000097465737479746573740000000000000000000000000000000000000000000000000000000000000000000000000000000000000000000000000000000000000a7465737474797465737400000000000000000000000000000000000000000000",
        "nonce": "0x79",
        "chainId": "0x14a34"
      },
      "additionalContracts": [],
      "isFixedGasLimit": false
    }
  ],
  "receipts": [
    {
      "status": "0x1",
      "cumulativeGasUsed": "0x2a9ab7",
      "logs": [
        {
          "address": "0x4e4af2a21ebf62850fd99eb6253e1efbb56098cd",
          "topics": [
            "0x38b331f00373c8b0f9af5a4273ca1b91e894fec999bfa4ec787e8c90a5c8b05c"
          ],
          "data": "0x000000000000000000000000000000000000000000000000000000000000046c00000000000000000000000000000000000000000000000000000000000000400000000000000000000000000000000000000000000000000000000000000000",
          "blockHash": "0x2de3342252037c247b9b0a0249256ce36eb50f8684afda10517b61802d39ebf4",
          "blockNumber": "0xe2fd39",
          "transactionHash": "0x1ca61b0ef191cef0e6d2aa77f4ddd0a4e303e33d4c013543913d6cc91b15fa61",
          "transactionIndex": "0xb",
          "logIndex": "0x10",
          "removed": false
        },
        {
          "address": "0xc1868e054425d378095a003ecba3823a5d0135c9",
          "topics": [
            "0x61ed099e74a97a1d7f8bb0952a88ca8b7b8ebd00c126ea04671f92a81213318a"
          ],
          "data": "0x0000000000000000000000008a3d588d9f6ac041476b094f97ff94ec30169d3d00000000000000000000000000000000000000000000000000004a41fa002a72",
          "blockHash": "0x2de3342252037c247b9b0a0249256ce36eb50f8684afda10517b61802d39ebf4",
          "blockNumber": "0xe2fd39",
          "transactionHash": "0x1ca61b0ef191cef0e6d2aa77f4ddd0a4e303e33d4c013543913d6cc91b15fa61",
          "transactionIndex": "0xb",
          "logIndex": "0x11",
          "removed": false
        },
        {
          "address": "0xc1868e054425d378095a003ecba3823a5d0135c9",
          "topics": [
            "0x07ea52d82345d6e838192107d8fd7123d9c2ec8e916cd0aad13fd2b60db24644"
          ],
          "data": "0x000000000000000000000000000000000000000000000000000000000000006000000000000000000000000000000000000000000000000000000000000000a000000000000000000000000000000000000000000000000000000000000000c00000000000000000000000000000000000000000000000000000000000000001000000000000000000000000e1a12515f9ab2764b887bf60b923ca494ebbb2d600000000000000000000000000000000000000000000000000000000000000000000000000000000000000000000000000000000000000000000000000000001000000000000000000000000000000000000000000000000000003cb947eb288",
          "blockHash": "0x2de3342252037c247b9b0a0249256ce36eb50f8684afda10517b61802d39ebf4",
          "blockNumber": "0xe2fd39",
          "transactionHash": "0x1ca61b0ef191cef0e6d2aa77f4ddd0a4e303e33d4c013543913d6cc91b15fa61",
          "transactionIndex": "0xb",
          "logIndex": "0x12",
          "removed": false
        },
        {
          "address": "0x6edce65403992e310a62460808c4b910d972f10f",
          "topics": [
            "0x1ab700d4ced0c005b164c0f789fd09fcbb0156d4c2041b8a3bfbcd961cd1567f"
          ],
          "data": "0x00000000000000000000000000000000000000000000000000000000000000600000000000000000000000000000000000000000000000000000000000000120000000000000000000000000c1868e054425d378095a003ecba3823a5d0135c9000000000000000000000000000000000000000000000000000000000000009101000000000000000100009d350000000000000000000000001ab2fbaf0208d6f60f3220dfa911e1c2025aba7700009d280000000000000000000000008fcbe84da945a1641e5e3ff1e09df2cf286573c5d7df8c4418682bcbbc88eeab336b2b86e2a5b3eaa8177cea5ff67a295bb19ff3000000000000000000000000b0efd2b19a5698a9c830548ac22708a28c9d455200000000000000000000000000000000000000000000000000000000000000000000000000000000000000000000160003010011010000000000000000000000000001117000000000000000000000",
          "blockHash": "0x2de3342252037c247b9b0a0249256ce36eb50f8684afda10517b61802d39ebf4",
          "blockNumber": "0xe2fd39",
          "transactionHash": "0x1ca61b0ef191cef0e6d2aa77f4ddd0a4e303e33d4c013543913d6cc91b15fa61",
          "transactionIndex": "0xb",
          "logIndex": "0x13",
          "removed": false
        }
      ],
      "logsBloom": "0x20000000000000000000000000000000000000000000000000000000000000000000080000000200200000000000000000000000000000000000000000040000000000000000000000000000000000000000000000200000000000020000000000000000000000008200000000000000000000000000000000000000000000000000000000000020000000080000000000000000000000000000000000000000000000008000000000100000000000000000000000400000000440000000000080000000000000000000000000000000000000000000000000000000000000000000040000000000400004000000002000000000000000000000000000000000",
      "type": "0x2",
      "transactionHash": "0x1ca61b0ef191cef0e6d2aa77f4ddd0a4e303e33d4c013543913d6cc91b15fa61",
      "transactionIndex": "0xb",
      "blockHash": "0x2de3342252037c247b9b0a0249256ce36eb50f8684afda10517b61802d39ebf4",
      "blockNumber": "0xe2fd39",
      "gasUsed": "0xb4501",
      "effectiveGasPrice": "0x2de",
      "from": "0xb0efd2b19a5698a9c830548ac22708a28c9d4552",
      "to": "0x1ab2fbaf0208d6f60f3220dfa911e1c2025aba77",
      "contractAddress": null,
      "l1BaseFeeScalar": "0x44d",
      "l1BlobBaseFee": "0x169bc9f5e86",
      "l1BlobBaseFeeScalar": "0xa118b",
      "l1Fee": "0x761f0f65568a",
      "l1GasPrice": "0x200bd80fa9",
      "l1GasUsed": "0x7e6"
    }
  ],
  "libraries": [],
  "pending": [],
  "returns": {},
  "timestamp": 1725520214,
  "chain": 84532,
  "commit": "8370d5b"
}