{
  "transactions": [
    {
      "hash": "0x48efac95a6114bfa2dedaa8ab5a970e12934be02b045924ab091d529aef6d3fe",
      "transactionType": "CALL",
      "contractName": null,
      "contractAddress": "0x66cb88c2c4e68ed626855da33a2969bd4f4e5540",
      "function": "verifyProject(string,string,string,string)",
      "arguments": [
        "StringWorks",
        "testy",
        "testytest",
        "testtytest"
      ],
      "transaction": {
        "from": "0x12b2434a1022d5787bf06056f2885fe35de62bf8",
        "to": "0x66cb88c2c4e68ed626855da33a2969bd4f4e5540",
        "gas": "0x109c2e",
        "value": "0x1c6bf526340000",
        "input": "0xbef6c21e000000000000000000000000000000000000000000000000000000000000008000000000000000000000000000000000000000000000000000000000000000c000000000000000000000000000000000000000000000000000000000000001000000000000000000000000000000000000000000000000000000000000000140000000000000000000000000000000000000000000000000000000000000000b537472696e67576f726b730000000000000000000000000000000000000000000000000000000000000000000000000000000000000000000000000000000005746573747900000000000000000000000000000000000000000000000000000000000000000000000000000000000000000000000000000000000000000000097465737479746573740000000000000000000000000000000000000000000000000000000000000000000000000000000000000000000000000000000000000a7465737474797465737400000000000000000000000000000000000000000000",
        "nonce": "0x98",
        "chainId": "0x14a34"
      },
      "additionalContracts": [],
      "isFixedGasLimit": false
    }
  ],
  "receipts": [
    {
      "status": "0x1",
      "cumulativeGasUsed": "0x1fa0ab",
      "logs": [
        {
          "address": "0x4e4af2a21ebf62850fd99eb6253e1efbb56098cd",
          "topics": [
            "0x38b331f00373c8b0f9af5a4273ca1b91e894fec999bfa4ec787e8c90a5c8b05c"
          ],
          "data": "0x000000000000000000000000000000000000000000000000000000000000047d00000000000000000000000000000000000000000000000000000000000000400000000000000000000000000000000000000000000000000000000000000000",
          "blockHash": "0x03274c5645b56e377fcf01875b97dcc4450333e751782b4644505a5ec2336b42",
          "blockNumber": "0xe32121",
          "transactionHash": "0x48efac95a6114bfa2dedaa8ab5a970e12934be02b045924ab091d529aef6d3fe",
          "transactionIndex": "0xf",
          "logIndex": "0xe",
          "removed": false
        },
        {
          "address": "0xc1868e054425d378095a003ecba3823a5d0135c9",
          "topics": [
            "0x61ed099e74a97a1d7f8bb0952a88ca8b7b8ebd00c126ea04671f92a81213318a"
          ],
          "data": "0x0000000000000000000000008a3d588d9f6ac041476b094f97ff94ec30169d3d00000000000000000000000000000000000000000000000000004a4b88eb27f2",
          "blockHash": "0x03274c5645b56e377fcf01875b97dcc4450333e751782b4644505a5ec2336b42",
          "blockNumber": "0xe32121",
          "transactionHash": "0x48efac95a6114bfa2dedaa8ab5a970e12934be02b045924ab091d529aef6d3fe",
          "transactionIndex": "0xf",
          "logIndex": "0xf",
          "removed": false
        },
        {
          "address": "0xc1868e054425d378095a003ecba3823a5d0135c9",
          "topics": [
            "0x07ea52d82345d6e838192107d8fd7123d9c2ec8e916cd0aad13fd2b60db24644"
          ],
          "data": "0x000000000000000000000000000000000000000000000000000000000000006000000000000000000000000000000000000000000000000000000000000000a000000000000000000000000000000000000000000000000000000000000000c00000000000000000000000000000000000000000000000000000000000000001000000000000000000000000e1a12515f9ab2764b887bf60b923ca494ebbb2d600000000000000000000000000000000000000000000000000000000000000000000000000000000000000000000000000000000000000000000000000000001000000000000000000000000000000000000000000000000000003cb947eb288",
          "blockHash": "0x03274c5645b56e377fcf01875b97dcc4450333e751782b4644505a5ec2336b42",
          "blockNumber": "0xe32121",
          "transactionHash": "0x48efac95a6114bfa2dedaa8ab5a970e12934be02b045924ab091d529aef6d3fe",
          "transactionIndex": "0xf",
          "logIndex": "0x10",
          "removed": false
        },
        {
          "address": "0x6edce65403992e310a62460808c4b910d972f10f",
          "topics": [
            "0x1ab700d4ced0c005b164c0f789fd09fcbb0156d4c2041b8a3bfbcd961cd1567f"
          ],
          "data": "0x00000000000000000000000000000000000000000000000000000000000000600000000000000000000000000000000000000000000000000000000000000160000000000000000000000000c1868e054425d378095a003ecba3823a5d0135c900000000000000000000000000000000000000000000000000000000000000d101000000000000000100009d3500000000000000000000000066cb88c2c4e68ed626855da33a2969bd4f4e554000009d2800000000000000000000000023960ee69b04e9dc87ae3d5e1e7799c6028edc16e3ca55f5d505145c82b591e24ba57c2747650c13c28809235323c11d63b4feea0000000000000000000000000000000000000000000000000000000000000020000000000000000000000000000000000000000000000000000000000000000b537472696e67576f726b73000000000000000000000000000000000000000000000000000000000000000000000000000000000000000000000000000000000000000000000000000000000000002c0003010011010000000000000000000000000000d6d80100130300000000000000000000000000000000d6d80000000000000000000000000000000000000000",
          "blockHash": "0x03274c5645b56e377fcf01875b97dcc4450333e751782b4644505a5ec2336b42",
          "blockNumber": "0xe32121",
          "transactionHash": "0x48efac95a6114bfa2dedaa8ab5a970e12934be02b045924ab091d529aef6d3fe",
          "transactionIndex": "0xf",
          "logIndex": "0x11",
          "removed": false
        }
      ],
      "logsBloom": "0x20000000000000000000000000000000000000000000000000000000000000000000080000000200200000000000000000000000000000000000000000040000000000000000000000000000000000000000000000200000000000020000000000000000000000008200000000000000000000000000000000000000000000000000000000000020000000080000000000000000000000000000000000000000000000008000000000100000000000000000000000400000000440000000000080000000000000000000000000000000000000000000000000000000000000000000040000000000400004000000002000000000000000000000000000000000",
      "type": "0x2",
      "transactionHash": "0x48efac95a6114bfa2dedaa8ab5a970e12934be02b045924ab091d529aef6d3fe",
      "transactionIndex": "0xf",
      "blockHash": "0x03274c5645b56e377fcf01875b97dcc4450333e751782b4644505a5ec2336b42",
      "blockNumber": "0xe32121",
      "gasUsed": "0xb5b7a",
      "effectiveGasPrice": "0x187bb",
      "blobGasUsed": "0x0",
      "from": "0x12b2434a1022d5787bf06056f2885fe35de62bf8",
      "to": "0x66cb88c2c4e68ed626855da33a2969bd4f4e5540",
      "contractAddress": null,
      "l1BaseFeeScalar": "0x44d",
      "l1BlobBaseFee": "0xc8bcfbb476",
      "l1BlobBaseFeeScalar": "0xa118b",
      "l1Fee": "0x46bf593effce",
      "l1GasPrice": "0x10facd6b9c",
      "l1GasUsed": "0x886"
    }
  ],
  "libraries": [],
  "pending": [],
  "returns": {},
  "timestamp": 1725538600,
  "chain": 84532,
  "commit": "09f4066"
}