{
  "transactions": [
    {
      "hash": "0x4a55e652fd824a83af64c73b5729f2da95e6ba4de8b414e9d6aaa54e3101f6c3",
      "transactionType": "CALL",
      "contractName": null,
      "contractAddress": "0xe3421207bcee400b16fb6be9fdeae5340935048c",
      "function": "verifyProject(string,string,string,string)",
      "arguments": [
        "test",
        "testy",
        "testytest",
        "testtytest"
      ],
      "transaction": {
        "from": "0xb0efd2b19a5698a9c830548ac22708a28c9d4552",
        "to": "0xe3421207bcee400b16fb6be9fdeae5340935048c",
        "gas": "0xf90f8",
        "value": "0x16345785d8a0000",
        "input": "0xbef6c21e000000000000000000000000000000000000000000000000000000000000008000000000000000000000000000000000000000000000000000000000000000c000000000000000000000000000000000000000000000000000000000000001000000000000000000000000000000000000000000000000000000000000000140000000000000000000000000000000000000000000000000000000000000000474657374000000000000000000000000000000000000000000000000000000000000000000000000000000000000000000000000000000000000000000000005746573747900000000000000000000000000000000000000000000000000000000000000000000000000000000000000000000000000000000000000000000097465737479746573740000000000000000000000000000000000000000000000000000000000000000000000000000000000000000000000000000000000000a7465737474797465737400000000000000000000000000000000000000000000",
        "nonce": "0x7e",
        "chainId": "0x14a34"
      },
      "additionalContracts": [],
      "isFixedGasLimit": false
    }
  ],
  "receipts": [
    {
      "status": "0x1",
      "cumulativeGasUsed": "0x26abb9",
      "logs": [
        {
          "address": "0x4e4af2a21ebf62850fd99eb6253e1efbb56098cd",
          "topics": [
            "0x38b331f00373c8b0f9af5a4273ca1b91e894fec999bfa4ec787e8c90a5c8b05c"
          ],
          "data": "0x000000000000000000000000000000000000000000000000000000000000046d00000000000000000000000000000000000000000000000000000000000000400000000000000000000000000000000000000000000000000000000000000000",
          "blockHash": "0xce2da717c8372d61b660c1c94f30a391b55459524d088e3a73513067b8621862",
          "blockNumber": "0xe2ffb0",
          "transactionHash": "0x4a55e652fd824a83af64c73b5729f2da95e6ba4de8b414e9d6aaa54e3101f6c3",
          "transactionIndex": "0x9",
          "logIndex": "0xc",
          "removed": false
        },
        {
          "address": "0xc1868e054425d378095a003ecba3823a5d0135c9",
          "topics": [
            "0x61ed099e74a97a1d7f8bb0952a88ca8b7b8ebd00c126ea04671f92a81213318a"
          ],
          "data": "0x0000000000000000000000008a3d588d9f6ac041476b094f97ff94ec30169d3d00000000000000000000000000000000000000000000000000004a46a2ebbd32",
          "blockHash": "0xce2da717c8372d61b660c1c94f30a391b55459524d088e3a73513067b8621862",
          "blockNumber": "0xe2ffb0",
          "transactionHash": "0x4a55e652fd824a83af64c73b5729f2da95e6ba4de8b414e9d6aaa54e3101f6c3",
          "transactionIndex": "0x9",
          "logIndex": "0xd",
          "removed": false
        },
        {
          "address": "0xc1868e054425d378095a003ecba3823a5d0135c9",
          "topics": [
            "0x07ea52d82345d6e838192107d8fd7123d9c2ec8e916cd0aad13fd2b60db24644"
          ],
          "data": "0x000000000000000000000000000000000000000000000000000000000000006000000000000000000000000000000000000000000000000000000000000000a000000000000000000000000000000000000000000000000000000000000000c00000000000000000000000000000000000000000000000000000000000000001000000000000000000000000e1a12515f9ab2764b887bf60b923ca494ebbb2d600000000000000000000000000000000000000000000000000000000000000000000000000000000000000000000000000000000000000000000000000000001000000000000000000000000000000000000000000000000000003cb947eb288",
          "blockHash": "0xce2da717c8372d61b660c1c94f30a391b55459524d088e3a73513067b8621862",
          "blockNumber": "0xe2ffb0",
          "transactionHash": "0x4a55e652fd824a83af64c73b5729f2da95e6ba4de8b414e9d6aaa54e3101f6c3",
          "transactionIndex": "0x9",
          "logIndex": "0xe",
          "removed": false
        },
        {
          "address": "0x6edce65403992e310a62460808c4b910d972f10f",
          "topics": [
            "0x1ab700d4ced0c005b164c0f789fd09fcbb0156d4c2041b8a3bfbcd961cd1567f"
          ],
          "data": "0x00000000000000000000000000000000000000000000000000000000000000600000000000000000000000000000000000000000000000000000000000000120000000000000000000000000c1868e054425d378095a003ecba3823a5d0135c9000000000000000000000000000000000000000000000000000000000000009101000000000000000100009d35000000000000000000000000e3421207bcee400b16fb6be9fdeae5340935048c00009d2800000000000000000000000021384b160486b69949fc197a2971606876c1fcf9832b936f8279634f9aafbc744d9527039f8e299cb5f889b3ebc07f7046bc6116000000000000000000000000b0efd2b19a5698a9c830548ac22708a28c9d4552000000000000000000000000000000000000000000000000000000000000000000000000000000000000000000001600030100110100000000000000000000000000015f9000000000000000000000",
          "blockHash": "0xce2da717c8372d61b660c1c94f30a391b55459524d088e3a73513067b8621862",
          "blockNumber": "0xe2ffb0",
          "transactionHash": "0x4a55e652fd824a83af64c73b5729f2da95e6ba4de8b414e9d6aaa54e3101f6c3",
          "transactionIndex": "0x9",
          "logIndex": "0xf",
          "removed": false
        }
      ],
      "logsBloom": "0x20000000000000000000000000000000000000000000000000000000000000000000080000000200200000000000000000000000000000000000000000040000000000000000000000000000000000000000000000200000000000020000000000000000000000008200000000000000000000000000000000000000000000000000000000000020000000080000000000000000000000000000000000000000000000008000000000100000000000000000000000400000000440000000000080000000000000000000000000000000000000000000000000000000000000000000040000000000400004000000002000000000000000000000000000000000",
      "type": "0x2",
      "transactionHash": "0x4a55e652fd824a83af64c73b5729f2da95e6ba4de8b414e9d6aaa54e3101f6c3",
      "transactionIndex": "0x9",
      "blockHash": "0xce2da717c8372d61b660c1c94f30a391b55459524d088e3a73513067b8621862",
      "blockNumber": "0xe2ffb0",
      "gasUsed": "0xb450d",
      "effectiveGasPrice": "0x1a4",
      "from": "0xb0efd2b19a5698a9c830548ac22708a28c9d4552",
      "to": "0xe3421207bcee400b16fb6be9fdeae5340935048c",
      "contractAddress": null,
      "l1BaseFeeScalar": "0x44d",
      "l1BlobBaseFee": "0xe1d49b5da2",
      "l1BlobBaseFeeScalar": "0xa118b",
      "l1Fee": "0x49b0d3da9756",
      "l1GasPrice": "0xe0c0fbc61",
      "l1GasUsed": "0x7e6"
    }
  ],
  "libraries": [],
  "pending": [],
  "returns": {},
  "timestamp": 1725521477,
  "chain": 84532,
  "commit": "8370d5b"
}