{
  "transactions": [
    {
      "hash": "0x343a6416368d3eabc9f5efe753d9095e23912d326a573653c03553acba255b4f",
      "transactionType": "CALL",
      "contractName": null,
      "contractAddress": "0x2a17c4869fc313082a4a8b8f19c1950720f767a5",
      "function": "verifyProject(string,string,string,string)",
      "arguments": [
        "StringWorks",
        "testy",
        "testytest",
        "testtytest"
      ],
      "transaction": {
        "from": "0x12b2434a1022d5787bf06056f2885fe35de62bf8",
        "to": "0x2a17c4869fc313082a4a8b8f19c1950720f767a5",
        "gas": "0x10a264",
        "value": "0xe35fa931a0000",
        "input": "0xbef6c21e000000000000000000000000000000000000000000000000000000000000008000000000000000000000000000000000000000000000000000000000000000c000000000000000000000000000000000000000000000000000000000000001000000000000000000000000000000000000000000000000000000000000000140000000000000000000000000000000000000000000000000000000000000000b537472696e67576f726b730000000000000000000000000000000000000000000000000000000000000000000000000000000000000000000000000000000005746573747900000000000000000000000000000000000000000000000000000000000000000000000000000000000000000000000000000000000000000000097465737479746573740000000000000000000000000000000000000000000000000000000000000000000000000000000000000000000000000000000000000a7465737474797465737400000000000000000000000000000000000000000000",
        "nonce": "0xe7",
        "chainId": "0x14a34"
      },
      "additionalContracts": [],
      "isFixedGasLimit": false
    }
  ],
  "receipts": [
    {
      "status": "0x1",
      "cumulativeGasUsed": "0x187d72",
      "logs": [
        {
          "address": "0x4e4af2a21ebf62850fd99eb6253e1efbb56098cd",
          "topics": [
            "0x38b331f00373c8b0f9af5a4273ca1b91e894fec999bfa4ec787e8c90a5c8b05c"
          ],
          "data": "0x00000000000000000000000000000000000000000000000000000000000004fa00000000000000000000000000000000000000000000000000000000000000400000000000000000000000000000000000000000000000000000000000000000",
          "blockHash": "0x7b6f4ac2a7c018fa067dae3468c02345afb0751ad4ba1ea07241504532476194",
          "blockNumber": "0xe3eac8",
          "transactionHash": "0x343a6416368d3eabc9f5efe753d9095e23912d326a573653c03553acba255b4f",
          "transactionIndex": "0xf",
          "logIndex": "0xd",
          "removed": false
        },
        {
          "address": "0xc1868e054425d378095a003ecba3823a5d0135c9",
          "topics": [
            "0x61ed099e74a97a1d7f8bb0952a88ca8b7b8ebd00c126ea04671f92a81213318a"
          ],
          "data": "0x0000000000000000000000008a3d588d9f6ac041476b094f97ff94ec30169d3d00000000000000000000000000000000000000000000000000004a6062855052",
          "blockHash": "0x7b6f4ac2a7c018fa067dae3468c02345afb0751ad4ba1ea07241504532476194",
          "blockNumber": "0xe3eac8",
          "transactionHash": "0x343a6416368d3eabc9f5efe753d9095e23912d326a573653c03553acba255b4f",
          "transactionIndex": "0xf",
          "logIndex": "0xe",
          "removed": false
        },
        {
          "address": "0xc1868e054425d378095a003ecba3823a5d0135c9",
          "topics": [
            "0x07ea52d82345d6e838192107d8fd7123d9c2ec8e916cd0aad13fd2b60db24644"
          ],
          "data": "0x000000000000000000000000000000000000000000000000000000000000006000000000000000000000000000000000000000000000000000000000000000a000000000000000000000000000000000000000000000000000000000000000c00000000000000000000000000000000000000000000000000000000000000001000000000000000000000000e1a12515f9ab2764b887bf60b923ca494ebbb2d600000000000000000000000000000000000000000000000000000000000000000000000000000000000000000000000000000000000000000000000000000001000000000000000000000000000000000000000000000000000003cb947eb288",
          "blockHash": "0x7b6f4ac2a7c018fa067dae3468c02345afb0751ad4ba1ea07241504532476194",
          "blockNumber": "0xe3eac8",
          "transactionHash": "0x343a6416368d3eabc9f5efe753d9095e23912d326a573653c03553acba255b4f",
          "transactionIndex": "0xf",
          "logIndex": "0xf",
          "removed": false
        },
        {
          "address": "0x6edce65403992e310a62460808c4b910d972f10f",
          "topics": [
            "0x1ab700d4ced0c005b164c0f789fd09fcbb0156d4c2041b8a3bfbcd961cd1567f"
          ],
          "data": "0x00000000000000000000000000000000000000000000000000000000000000600000000000000000000000000000000000000000000000000000000000000140000000000000000000000000c1868e054425d378095a003ecba3823a5d0135c900000000000000000000000000000000000000000000000000000000000000b101000000000000000100009d350000000000000000000000002a17c4869fc313082a4a8b8f19c1950720f767a500009d28000000000000000000000000f2594001eb8183923a9a21ca5868e65318000ae55533cba912697be8d15dc9c02599eb3abac0db164256c5e135f3b2b1e53b09a200000000000000000000000012b2434a1022d5787bf06056f2885fe35de62bf80000000000000000000000000000000000000000000000000000000000000000000000000000000000000000000000000000000000000000000000000000000000000000000000000000000000002c000301001101000000000000000000000000000186a0010013030000000000000000000000000000000186a00000000000000000000000000000000000000000",
          "blockHash": "0x7b6f4ac2a7c018fa067dae3468c02345afb0751ad4ba1ea07241504532476194",
          "blockNumber": "0xe3eac8",
          "transactionHash": "0x343a6416368d3eabc9f5efe753d9095e23912d326a573653c03553acba255b4f",
          "transactionIndex": "0xf",
          "logIndex": "0x10",
          "removed": false
        }
      ],
      "logsBloom": "0x20000000000000000000000000000000000000000000000000000000000000000000080000000200200000000000000000000000000000000000000000040000000000000000000000000000000000000000000000200000000000020000000000000000000000008200000000000000000000000000000000000000000000000000000000000020000000080000000000000000000000000000000000000000000000008000000000100000000000000000000000400000000440000000000080000000000000000000000000000000000000000000000000000000000000000000040000000000400004000000002000000000000000000000000000000000",
      "type": "0x2",
      "transactionHash": "0x343a6416368d3eabc9f5efe753d9095e23912d326a573653c03553acba255b4f",
      "transactionIndex": "0xf",
      "blockHash": "0x7b6f4ac2a7c018fa067dae3468c02345afb0751ad4ba1ea07241504532476194",
      "blockNumber": "0xe3eac8",
      "gasUsed": "0xb5fb9",
      "effectiveGasPrice": "0x9528ad",
      "from": "0x12b2434a1022d5787bf06056f2885fe35de62bf8",
      "to": "0x2a17c4869fc313082a4a8b8f19c1950720f767a5",
      "contractAddress": null,
      "l1BaseFeeScalar": "0x44d",
      "l1BlobBaseFee": "0x825681fe2d",
      "l1BlobBaseFeeScalar": "0xa118b",
      "l1Fee": "0x2d5a353d597a",
      "l1GasPrice": "0x8da63f082",
      "l1GasUsed": "0x86c"
    }
  ],
  "libraries": [],
  "pending": [],
  "returns": {},
  "timestamp": 1725641846,
  "chain": 84532,
  "commit": "dc78ae4"
}