{
  "transactions": [
    {
      "hash": "0x5bbaab5ffb9923a17b52dd639b20a2efaa0da4e4e36a67c7bcb6a07dda04bd39",
      "transactionType": "CALL",
      "contractName": null,
      "contractAddress": "0x4a1cc361e462a8c90a938ac7d6283dfeb57fa560",
      "function": "verifyProject(string,string,string,string)",
      "arguments": [
        "testProjectNameBetterBeWorking",
        "testy",
        "testytest",
        "testtytest"
      ],
      "transaction": {
        "from": "0xb0efd2b19a5698a9c830548ac22708a28c9d4552",
        "to": "0x4a1cc361e462a8c90a938ac7d6283dfeb57fa560",
        "gas": "0x10869d",
        "value": "0x16345785d8a0000",
        "input": "0xbef6c21e000000000000000000000000000000000000000000000000000000000000008000000000000000000000000000000000000000000000000000000000000000c000000000000000000000000000000000000000000000000000000000000001000000000000000000000000000000000000000000000000000000000000000140000000000000000000000000000000000000000000000000000000000000001e7465737450726f6a6563744e616d654265747465724265576f726b696e6700000000000000000000000000000000000000000000000000000000000000000005746573747900000000000000000000000000000000000000000000000000000000000000000000000000000000000000000000000000000000000000000000097465737479746573740000000000000000000000000000000000000000000000000000000000000000000000000000000000000000000000000000000000000a7465737474797465737400000000000000000000000000000000000000000000",
        "nonce": "0x8d",
        "chainId": "0x14a34"
      },
      "additionalContracts": [],
      "isFixedGasLimit": false
    }
  ],
  "receipts": [
    {
      "status": "0x1",
      "cumulativeGasUsed": "0x12f92f",
      "logs": [
        {
          "address": "0x4e4af2a21ebf62850fd99eb6253e1efbb56098cd",
          "topics": [
            "0x38b331f00373c8b0f9af5a4273ca1b91e894fec999bfa4ec787e8c90a5c8b05c"
          ],
          "data": "0x000000000000000000000000000000000000000000000000000000000000047100000000000000000000000000000000000000000000000000000000000000400000000000000000000000000000000000000000000000000000000000000000",
          "blockHash": "0x6e16959b64430c96775495dc1a8ab04f083f3183647685937d0f911e0cfa3447",
          "blockNumber": "0xe3065d",
          "transactionHash": "0x5bbaab5ffb9923a17b52dd639b20a2efaa0da4e4e36a67c7bcb6a07dda04bd39",
          "transactionIndex": "0x3",
          "logIndex": "0xa",
          "removed": false
        },
        {
          "address": "0xc1868e054425d378095a003ecba3823a5d0135c9",
          "topics": [
            "0x61ed099e74a97a1d7f8bb0952a88ca8b7b8ebd00c126ea04671f92a81213318a"
          ],
          "data": "0x0000000000000000000000008a3d588d9f6ac041476b094f97ff94ec30169d3d00000000000000000000000000000000000000000000000000004a46dfff9532",
          "blockHash": "0x6e16959b64430c96775495dc1a8ab04f083f3183647685937d0f911e0cfa3447",
          "blockNumber": "0xe3065d",
          "transactionHash": "0x5bbaab5ffb9923a17b52dd639b20a2efaa0da4e4e36a67c7bcb6a07dda04bd39",
          "transactionIndex": "0x3",
          "logIndex": "0xb",
          "removed": false
        },
        {
          "address": "0xc1868e054425d378095a003ecba3823a5d0135c9",
          "topics": [
            "0x07ea52d82345d6e838192107d8fd7123d9c2ec8e916cd0aad13fd2b60db24644"
          ],
          "data": "0x000000000000000000000000000000000000000000000000000000000000006000000000000000000000000000000000000000000000000000000000000000a000000000000000000000000000000000000000000000000000000000000000c00000000000000000000000000000000000000000000000000000000000000001000000000000000000000000e1a12515f9ab2764b887bf60b923ca494ebbb2d600000000000000000000000000000000000000000000000000000000000000000000000000000000000000000000000000000000000000000000000000000001000000000000000000000000000000000000000000000000000003cb947eb288",
          "blockHash": "0x6e16959b64430c96775495dc1a8ab04f083f3183647685937d0f911e0cfa3447",
          "blockNumber": "0xe3065d",
          "transactionHash": "0x5bbaab5ffb9923a17b52dd639b20a2efaa0da4e4e36a67c7bcb6a07dda04bd39",
          "transactionIndex": "0x3",
          "logIndex": "0xc",
          "removed": false
        },
        {
          "address": "0x6edce65403992e310a62460808c4b910d972f10f",
          "topics": [
            "0x1ab700d4ced0c005b164c0f789fd09fcbb0156d4c2041b8a3bfbcd961cd1567f"
          ],
          "data": "0x00000000000000000000000000000000000000000000000000000000000000600000000000000000000000000000000000000000000000000000000000000160000000000000000000000000c1868e054425d378095a003ecba3823a5d0135c900000000000000000000000000000000000000000000000000000000000000d101000000000000000100009d350000000000000000000000004a1cc361e462a8c90a938ac7d6283dfeb57fa56000009d28000000000000000000000000f12670a627e38b84e97064b8d303ae43960979b8afc363d798efe761c3a1789fc090d39c3c8fd0a87f115788afba7fc96c0f85970000000000000000000000000000000000000000000000000000000000000020000000000000000000000000000000000000000000000000000000000000001e7465737450726f6a6563744e616d654265747465724265576f726b696e670000000000000000000000000000000000000000000000000000000000000000000000000000000000000000000000001600030100110100000000000000000000000000015f9000000000000000000000",
          "blockHash": "0x6e16959b64430c96775495dc1a8ab04f083f3183647685937d0f911e0cfa3447",
          "blockNumber": "0xe3065d",
          "transactionHash": "0x5bbaab5ffb9923a17b52dd639b20a2efaa0da4e4e36a67c7bcb6a07dda04bd39",
          "transactionIndex": "0x3",
          "logIndex": "0xd",
          "removed": false
        }
      ],
      "logsBloom": "0x20000000000000000000000000000000000000000000000000000000000000000000080000000200200000000000000000000000000000000000000000040000000000000000000000000000000000000000000000200000000000020000000000000000000000008200000000000000000000000000000000000000000000000000000000000020000000080000000000000000000000000000000000000000000000008000000000100000000000000000000000400000000440000000000080000000000000000000000000000000000000000000000000000000000000000000040000000000400004000000002000000000000000000000000000000000",
      "type": "0x2",
      "transactionHash": "0x5bbaab5ffb9923a17b52dd639b20a2efaa0da4e4e36a67c7bcb6a07dda04bd39",
      "transactionIndex": "0x3",
      "blockHash": "0x6e16959b64430c96775495dc1a8ab04f083f3183647685937d0f911e0cfa3447",
      "blockNumber": "0xe3065d",
      "gasUsed": "0xb4cbb",
      "effectiveGasPrice": "0xf08c9",
      "from": "0xb0efd2b19a5698a9c830548ac22708a28c9d4552",
      "to": "0x4a1cc361e462a8c90a938ac7d6283dfeb57fa560",
      "contractAddress": null,
      "l1BaseFeeScalar": "0x44d",
      "l1BlobBaseFee": "0xd0c6b252ef",
      "l1BlobBaseFeeScalar": "0xa118b",
      "l1Fee": "0x50e2cbcaa440",
      "l1GasPrice": "0x1a19ad1d58",
      "l1GasUsed": "0x95c"
    }
  ],
  "libraries": [],
  "pending": [],
  "returns": {},
  "timestamp": 1725524895,
  "chain": 84532,
  "commit": "8370d5b"
}