{
  "transactions": [
    {
      "hash": "0xbbfdee4cd2dce52d0f1ad8fd8a41dbecb81a4b3e9e882a9c6b7dbef931f40c2f",
      "transactionType": "CALL",
      "contractName": null,
      "contractAddress": "0x053d81199c95e265f2e369e4afc4b30eb8b228c3",
      "function": "verifyProject(string,string,string,string)",
      "arguments": [
        "StringWorks",
        "testy",
        "testytest",
        "testtytest"
      ],
      "transaction": {
        "from": "0xb0efd2b19a5698a9c830548ac22708a28c9d4552",
        "to": "0x053d81199c95e265f2e369e4afc4b30eb8b228c3",
        "gas": "0xfb5a1",
        "value": "0xe35fa931a0000",
        "input": "0xbef6c21e000000000000000000000000000000000000000000000000000000000000008000000000000000000000000000000000000000000000000000000000000000c000000000000000000000000000000000000000000000000000000000000001000000000000000000000000000000000000000000000000000000000000000140000000000000000000000000000000000000000000000000000000000000000b537472696e67576f726b730000000000000000000000000000000000000000000000000000000000000000000000000000000000000000000000000000000005746573747900000000000000000000000000000000000000000000000000000000000000000000000000000000000000000000000000000000000000000000097465737479746573740000000000000000000000000000000000000000000000000000000000000000000000000000000000000000000000000000000000000a7465737474797465737400000000000000000000000000000000000000000000",
        "nonce": "0xb9",
        "chainId": "0x14a34"
      },
      "additionalContracts": [],
      "isFixedGasLimit": false
    }
  ],
  "receipts": [
    {
      "status": "0x1",
      "cumulativeGasUsed": "0x1201fb2",
      "logs": [
        {
          "address": "0x4e4af2a21ebf62850fd99eb6253e1efbb56098cd",
          "topics": [
            "0x38b331f00373c8b0f9af5a4273ca1b91e894fec999bfa4ec787e8c90a5c8b05c"
          ],
          "data": "0x000000000000000000000000000000000000000000000000000000000000053a00000000000000000000000000000000000000000000000000000000000000400000000000000000000000000000000000000000000000000000000000000000",
          "blockHash": "0x8ec90dad24ddf2615a4073c6c39116de39033e153e7da74553d425ae8e7766cb",
          "blockNumber": "0xe4036d",
          "transactionHash": "0xbbfdee4cd2dce52d0f1ad8fd8a41dbecb81a4b3e9e882a9c6b7dbef931f40c2f",
          "transactionIndex": "0x25",
          "logIndex": "0xf9",
          "removed": false
        },
        {
          "address": "0xc1868e054425d378095a003ecba3823a5d0135c9",
          "topics": [
            "0x61ed099e74a97a1d7f8bb0952a88ca8b7b8ebd00c126ea04671f92a81213318a"
          ],
          "data": "0x0000000000000000000000008a3d588d9f6ac041476b094f97ff94ec30169d3d000000000000000000000000000000000000000000000000000053fdbed0cfb2",
          "blockHash": "0x8ec90dad24ddf2615a4073c6c39116de39033e153e7da74553d425ae8e7766cb",
          "blockNumber": "0xe4036d",
          "transactionHash": "0xbbfdee4cd2dce52d0f1ad8fd8a41dbecb81a4b3e9e882a9c6b7dbef931f40c2f",
          "transactionIndex": "0x25",
          "logIndex": "0xfa",
          "removed": false
        },
        {
          "address": "0xc1868e054425d378095a003ecba3823a5d0135c9",
          "topics": [
            "0x07ea52d82345d6e838192107d8fd7123d9c2ec8e916cd0aad13fd2b60db24644"
          ],
          "data": "0x000000000000000000000000000000000000000000000000000000000000006000000000000000000000000000000000000000000000000000000000000000a000000000000000000000000000000000000000000000000000000000000000c00000000000000000000000000000000000000000000000000000000000000001000000000000000000000000e1a12515f9ab2764b887bf60b923ca494ebbb2d600000000000000000000000000000000000000000000000000000000000000000000000000000000000000000000000000000000000000000000000000000001000000000000000000000000000000000000000000000000000007191d93defb",
          "blockHash": "0x8ec90dad24ddf2615a4073c6c39116de39033e153e7da74553d425ae8e7766cb",
          "blockNumber": "0xe4036d",
          "transactionHash": "0xbbfdee4cd2dce52d0f1ad8fd8a41dbecb81a4b3e9e882a9c6b7dbef931f40c2f",
          "transactionIndex": "0x25",
          "logIndex": "0xfb",
          "removed": false
        },
        {
          "address": "0x6edce65403992e310a62460808c4b910d972f10f",
          "topics": [
            "0x1ab700d4ced0c005b164c0f789fd09fcbb0156d4c2041b8a3bfbcd961cd1567f"
          ],
          "data": "0x00000000000000000000000000000000000000000000000000000000000000600000000000000000000000000000000000000000000000000000000000000140000000000000000000000000c1868e054425d378095a003ecba3823a5d0135c900000000000000000000000000000000000000000000000000000000000000b101000000000000000100009d35000000000000000000000000053d81199c95e265f2e369e4afc4b30eb8b228c300009d5d000000000000000000000000330b96b0153ec84a9d5b27a7a7e7047f9c898717db19992e211b588af32881f05cb699361efaed800cdc0dda1567138603bba92c000000000000000000000000b0efd2b19a5698a9c830548ac22708a28c9d45520000000000000000000000000000000000000000000000000000000000000000000000000000000000000000000000000000000000000000000000000000000000000000000000000000000000002c000301001101000000000000000000000000000186a0010013030000000000000000000000000000000186a00000000000000000000000000000000000000000",
          "blockHash": "0x8ec90dad24ddf2615a4073c6c39116de39033e153e7da74553d425ae8e7766cb",
          "blockNumber": "0xe4036d",
          "transactionHash": "0xbbfdee4cd2dce52d0f1ad8fd8a41dbecb81a4b3e9e882a9c6b7dbef931f40c2f",
          "transactionIndex": "0x25",
          "logIndex": "0xfc",
          "removed": false
        }
      ],
      "logsBloom": "0x20000000000000000000000000000000000000000000000000000000000000000000080000000200200000000000000000000000000000000000000000040000000000000000000000000000000000000000000000200000000000020000000000000000000000008200000000000000000000000000000000000000000000000000000000000020000000080000000000000000000000000000000000000000000000008000000000100000000000000000000000400000000440000000000080000000000000000000000000000000000000000000000000000000000000000000040000000000400004000000002000000000000000000000000000000000",
      "type": "0x2",
      "transactionHash": "0xbbfdee4cd2dce52d0f1ad8fd8a41dbecb81a4b3e9e882a9c6b7dbef931f40c2f",
      "transactionIndex": "0x25",
      "blockHash": "0x8ec90dad24ddf2615a4073c6c39116de39033e153e7da74553d425ae8e7766cb",
      "blockNumber": "0xe4036d",
      "gasUsed": "0xb5f97",
      "effectiveGasPrice": "0x7f9452",
      "from": "0xb0efd2b19a5698a9c830548ac22708a28c9d4552",
      "to": "0x053d81199c95e265f2e369e4afc4b30eb8b228c3",
      "contractAddress": null,
      "l1BaseFeeScalar": "0x44d",
      "l1BlobBaseFee": "0x1a73fc6d0da",
      "l1BlobBaseFeeScalar": "0xa118b",
      "l1Fee": "0x94d568612aa6",
      "l1GasPrice": "0x23d7bdf2",
      "l1GasUsed": "0x886"
    }
  ],
  "libraries": [],
  "pending": [],
  "returns": {},
  "timestamp": 1725654461,
  "chain": 84532,
  "commit": "37e882d"
}