{
  "transactions": [
    {
      "hash": "0x823ddf39b8f421beb84b74681076607dfd0ca324d5f7b0fb875396e4aaba9e3f",
      "transactionType": "CALL",
      "contractName": null,
      "contractAddress": "0x33e21b633fe6f91baba56d5b08591f572b9cee73",
      "function": "verifyProject(string,string,string,string)",
      "arguments": [
        "StringWorks",
        "testy",
        "testytest",
        "testtytest"
      ],
      "transaction": {
        "from": "0xb0efd2b19a5698a9c830548ac22708a28c9d4552",
        "to": "0x33e21b633fe6f91baba56d5b08591f572b9cee73",
        "gas": "0x10966b",
        "value": "0x1c6bf526340000",
        "input": "0xbef6c21e000000000000000000000000000000000000000000000000000000000000008000000000000000000000000000000000000000000000000000000000000000c000000000000000000000000000000000000000000000000000000000000001000000000000000000000000000000000000000000000000000000000000000140000000000000000000000000000000000000000000000000000000000000000b537472696e67576f726b730000000000000000000000000000000000000000000000000000000000000000000000000000000000000000000000000000000005746573747900000000000000000000000000000000000000000000000000000000000000000000000000000000000000000000000000000000000000000000097465737479746573740000000000000000000000000000000000000000000000000000000000000000000000000000000000000000000000000000000000000a7465737474797465737400000000000000000000000000000000000000000000",
        "nonce": "0xa0",
        "chainId": "0x14a34"
      },
      "additionalContracts": [],
      "isFixedGasLimit": false
    }
  ],
  "receipts": [
    {
      "status": "0x1",
      "cumulativeGasUsed": "0x1e8a86",
      "logs": [
        {
          "address": "0x4e4af2a21ebf62850fd99eb6253e1efbb56098cd",
          "topics": [
            "0x38b331f00373c8b0f9af5a4273ca1b91e894fec999bfa4ec787e8c90a5c8b05c"
          ],
          "data": "0x000000000000000000000000000000000000000000000000000000000000049900000000000000000000000000000000000000000000000000000000000000400000000000000000000000000000000000000000000000000000000000000000",
          "blockHash": "0x74108fba11712e92801a421ebe15ba888697dcf1a37120f22612051dc34d58eb",
          "blockNumber": "0xe34959",
          "transactionHash": "0x823ddf39b8f421beb84b74681076607dfd0ca324d5f7b0fb875396e4aaba9e3f",
          "transactionIndex": "0x5",
          "logIndex": "0x1d",
          "removed": false
        },
        {
          "address": "0xc1868e054425d378095a003ecba3823a5d0135c9",
          "topics": [
            "0x61ed099e74a97a1d7f8bb0952a88ca8b7b8ebd00c126ea04671f92a81213318a"
          ],
          "data": "0x0000000000000000000000008a3d588d9f6ac041476b094f97ff94ec30169d3d00000000000000000000000000000000000000000000000000004a4b6a613bf2",
          "blockHash": "0x74108fba11712e92801a421ebe15ba888697dcf1a37120f22612051dc34d58eb",
          "blockNumber": "0xe34959",
          "transactionHash": "0x823ddf39b8f421beb84b74681076607dfd0ca324d5f7b0fb875396e4aaba9e3f",
          "transactionIndex": "0x5",
          "logIndex": "0x1e",
          "removed": false
        },
        {
          "address": "0xc1868e054425d378095a003ecba3823a5d0135c9",
          "topics": [
            "0x07ea52d82345d6e838192107d8fd7123d9c2ec8e916cd0aad13fd2b60db24644"
          ],
          "data": "0x000000000000000000000000000000000000000000000000000000000000006000000000000000000000000000000000000000000000000000000000000000a000000000000000000000000000000000000000000000000000000000000000c00000000000000000000000000000000000000000000000000000000000000001000000000000000000000000e1a12515f9ab2764b887bf60b923ca494ebbb2d600000000000000000000000000000000000000000000000000000000000000000000000000000000000000000000000000000000000000000000000000000001000000000000000000000000000000000000000000000000000003cb947eb288",
          "blockHash": "0x74108fba11712e92801a421ebe15ba888697dcf1a37120f22612051dc34d58eb",
          "blockNumber": "0xe34959",
          "transactionHash": "0x823ddf39b8f421beb84b74681076607dfd0ca324d5f7b0fb875396e4aaba9e3f",
          "transactionIndex": "0x5",
          "logIndex": "0x1f",
          "removed": false
        },
        {
          "address": "0x6edce65403992e310a62460808c4b910d972f10f",
          "topics": [
            "0x1ab700d4ced0c005b164c0f789fd09fcbb0156d4c2041b8a3bfbcd961cd1567f"
          ],
          "data": "0x00000000000000000000000000000000000000000000000000000000000000600000000000000000000000000000000000000000000000000000000000000140000000000000000000000000c1868e054425d378095a003ecba3823a5d0135c900000000000000000000000000000000000000000000000000000000000000b101000000000000000100009d3500000000000000000000000033e21b633fe6f91baba56d5b08591f572b9cee7300009d28000000000000000000000000a7f96a7ba1b3ee324dd9d9b115efea827be67d2a384e25c19de39d6d8a3b1a20e9ba8c1c8c99fa99efe9ef83d97e3509759ad1fb000000000000000000000000b0efd2b19a5698a9c830548ac22708a28c9d45520000000000000000000000000000000000000000000000000000000000000000000000000000000000000000000000000000000000000000000000000000000000000000000000000000000000002c0003010011010000000000000000000000000000d6d80100130300000000000000000000000000000000d6d80000000000000000000000000000000000000000",
          "blockHash": "0x74108fba11712e92801a421ebe15ba888697dcf1a37120f22612051dc34d58eb",
          "blockNumber": "0xe34959",
          "transactionHash": "0x823ddf39b8f421beb84b74681076607dfd0ca324d5f7b0fb875396e4aaba9e3f",
          "transactionIndex": "0x5",
          "logIndex": "0x20",
          "removed": false
        }
      ],
      "logsBloom": "0x20000000000000000000000000000000000000000000000000000000000000000000080000000200200000000000000000000000000000000000000000040000000000000000000000000000000000000000000000200000000000020000000000000000000000008200000000000000000000000000000000000000000000000000000000000020000000080000000000000000000000000000000000000000000000008000000000100000000000000000000000400000000440000000000080000000000000000000000000000000000000000000000000000000000000000000040000000000400004000000002000000000000000000000000000000000",
      "type": "0x2",
      "transactionHash": "0x823ddf39b8f421beb84b74681076607dfd0ca324d5f7b0fb875396e4aaba9e3f",
      "transactionIndex": "0x5",
      "blockHash": "0x74108fba11712e92801a421ebe15ba888697dcf1a37120f22612051dc34d58eb",
      "blockNumber": "0xe34959",
      "gasUsed": "0xb5789",
      "effectiveGasPrice": "0xf4382",
      "from": "0xb0efd2b19a5698a9c830548ac22708a28c9d4552",
      "to": "0x33e21b633fe6f91baba56d5b08591f572b9cee73",
      "contractAddress": null,
      "l1BaseFeeScalar": "0x44d",
      "l1BlobBaseFee": "0x2c11c394256",
      "l1BlobBaseFeeScalar": "0xa118b",
      "l1Fee": "0xf7f815447748",
      "l1GasPrice": "0x26490c31e",
      "l1GasUsed": "0x886"
    }
  ],
  "libraries": [],
  "pending": [],
  "returns": {},
  "timestamp": 1725559191,
  "chain": 84532,
  "commit": "a4c618d"
}