{
  "transactions": [
    {
      "hash": "0xa3a49ea7c760210f07e741d0aa03ec1f872ee7b55920d92e39de095137697877",
      "transactionType": "CALL",
      "contractName": null,
      "contractAddress": "0x77c2247f13a9e2640b1c362426546216451c288f",
      "function": "verifyProject(string,string,string,string)",
      "arguments": [
        "StringWorks",
        "testy",
        "testytest",
        "testtytest"
      ],
      "transaction": {
        "from": "0x12b2434a1022d5787bf06056f2885fe35de62bf8",
        "to": "0x77c2247f13a9e2640b1c362426546216451c288f",
        "gas": "0xfb5a2",
        "value": "0xe35fa931a0000",
        "input": "0xbef6c21e000000000000000000000000000000000000000000000000000000000000008000000000000000000000000000000000000000000000000000000000000000c000000000000000000000000000000000000000000000000000000000000001000000000000000000000000000000000000000000000000000000000000000140000000000000000000000000000000000000000000000000000000000000000b537472696e67576f726b730000000000000000000000000000000000000000000000000000000000000000000000000000000000000000000000000000000005746573747900000000000000000000000000000000000000000000000000000000000000000000000000000000000000000000000000000000000000000000097465737479746573740000000000000000000000000000000000000000000000000000000000000000000000000000000000000000000000000000000000000a7465737474797465737400000000000000000000000000000000000000000000",
        "nonce": "0xcf",
        "chainId": "0x14a34"
      },
      "additionalContracts": [],
      "isFixedGasLimit": false
    }
  ],
  "receipts": [
    {
      "status": "0x1",
      "cumulativeGasUsed": "0x1b24e5",
      "logs": [
        {
          "address": "0x4e4af2a21ebf62850fd99eb6253e1efbb56098cd",
          "topics": [
            "0x38b331f00373c8b0f9af5a4273ca1b91e894fec999bfa4ec787e8c90a5c8b05c"
          ],
          "data": "0x00000000000000000000000000000000000000000000000000000000000004e800000000000000000000000000000000000000000000000000000000000000400000000000000000000000000000000000000000000000000000000000000000",
          "blockHash": "0x19def056fc48230bc5e570ce25d832704eb85b5b2a1b17e59cf05f5c48466adc",
          "blockNumber": "0xe3d8c0",
          "transactionHash": "0xa3a49ea7c760210f07e741d0aa03ec1f872ee7b55920d92e39de095137697877",
          "transactionIndex": "0x6",
          "logIndex": "0x11",
          "removed": false
        },
        {
          "address": "0xc1868e054425d378095a003ecba3823a5d0135c9",
          "topics": [
            "0x61ed099e74a97a1d7f8bb0952a88ca8b7b8ebd00c126ea04671f92a81213318a"
          ],
          "data": "0x0000000000000000000000008a3d588d9f6ac041476b094f97ff94ec30169d3d00000000000000000000000000000000000000000000000000004a4b6a613bf2",
          "blockHash": "0x19def056fc48230bc5e570ce25d832704eb85b5b2a1b17e59cf05f5c48466adc",
          "blockNumber": "0xe3d8c0",
          "transactionHash": "0xa3a49ea7c760210f07e741d0aa03ec1f872ee7b55920d92e39de095137697877",
          "transactionIndex": "0x6",
          "logIndex": "0x12",
          "removed": false
        },
        {
          "address": "0xc1868e054425d378095a003ecba3823a5d0135c9",
          "topics": [
            "0x07ea52d82345d6e838192107d8fd7123d9c2ec8e916cd0aad13fd2b60db24644"
          ],
          "data": "0x000000000000000000000000000000000000000000000000000000000000006000000000000000000000000000000000000000000000000000000000000000a000000000000000000000000000000000000000000000000000000000000000c00000000000000000000000000000000000000000000000000000000000000001000000000000000000000000e1a12515f9ab2764b887bf60b923ca494ebbb2d600000000000000000000000000000000000000000000000000000000000000000000000000000000000000000000000000000000000000000000000000000001000000000000000000000000000000000000000000000000000003cb947eb288",
          "blockHash": "0x19def056fc48230bc5e570ce25d832704eb85b5b2a1b17e59cf05f5c48466adc",
          "blockNumber": "0xe3d8c0",
          "transactionHash": "0xa3a49ea7c760210f07e741d0aa03ec1f872ee7b55920d92e39de095137697877",
          "transactionIndex": "0x6",
          "logIndex": "0x13",
          "removed": false
        },
        {
          "address": "0x6edce65403992e310a62460808c4b910d972f10f",
          "topics": [
            "0x1ab700d4ced0c005b164c0f789fd09fcbb0156d4c2041b8a3bfbcd961cd1567f"
          ],
          "data": "0x00000000000000000000000000000000000000000000000000000000000000600000000000000000000000000000000000000000000000000000000000000140000000000000000000000000c1868e054425d378095a003ecba3823a5d0135c900000000000000000000000000000000000000000000000000000000000000b101000000000000000100009d3500000000000000000000000077c2247f13a9e2640b1c362426546216451c288f00009d2800000000000000000000000014636fe21e5ab1071768218ce59358d238462212fe98f9f35201adb4a2d4da96885d1eae2124f9100adf879140ea7a69b4caca2100000000000000000000000012b2434a1022d5787bf06056f2885fe35de62bf80000000000000000000000000000000000000000000000000000000000000000000000000000000000000000000000000000000000000000000000000000000000000000000000000000000000002c0003010011010000000000000000000000000000d6d80100130300000000000000000000000000000000d6d80000000000000000000000000000000000000000",
          "blockHash": "0x19def056fc48230bc5e570ce25d832704eb85b5b2a1b17e59cf05f5c48466adc",
          "blockNumber": "0xe3d8c0",
          "transactionHash": "0xa3a49ea7c760210f07e741d0aa03ec1f872ee7b55920d92e39de095137697877",
          "transactionIndex": "0x6",
          "logIndex": "0x14",
          "removed": false
        }
      ],
      "logsBloom": "0x20000000000000000000000000000000000000000000000000000000000000000000080000000200200000000000000000000000000000000000000000040000000000000000000000000000000000000000000000200000000000020000000000000000000000008200000000000000000000000000000000000000000000000000000000000020000000080000000000000000000000000000000000000000000000008000000000100000000000000000000000400000000440000000000080000000000000000000000000000000000000000000000000000000000000000000040000000000400004000000002000000000000000000000000000000000",
      "type": "0x2",
      "transactionHash": "0xa3a49ea7c760210f07e741d0aa03ec1f872ee7b55920d92e39de095137697877",
      "transactionIndex": "0x6",
      "blockHash": "0x19def056fc48230bc5e570ce25d832704eb85b5b2a1b17e59cf05f5c48466adc",
      "blockNumber": "0xe3d8c0",
      "gasUsed": "0xb5f98",
      "effectiveGasPrice": "0x93e83c",
      "from": "0x12b2434a1022d5787bf06056f2885fe35de62bf8",
      "to": "0x77c2247f13a9e2640b1c362426546216451c288f",
      "contractAddress": null,
      "l1BaseFeeScalar": "0x44d",
      "l1BlobBaseFee": "0x1083b7a2674",
      "l1BlobBaseFeeScalar": "0xa118b",
      "l1Fee": "0x5d8b0bda89a3",
      "l1GasPrice": "0x6285c75ab",
      "l1GasUsed": "0x894"
    }
  ],
  "libraries": [],
  "pending": [],
  "returns": {},
  "timestamp": 1725632614,
  "chain": 84532,
  "commit": "dc78ae4"
}