{
  "transactions": [
    {
      "hash": "0x17fe6c425d134bd4d177f894d473ae82e7b7cf3616cb8844a322edb692c21354",
      "transactionType": "CALL",
      "contractName": null,
      "contractAddress": "0x651f45d00c1fecbc345f7ee708ffe4ab57aa46f6",
      "function": "verifyProject(string,string,string,string)",
      "arguments": [
        "StringWorks",
        "testy",
        "testytest",
        "testtytest"
      ],
      "transaction": {
        "from": "0x12b2434a1022d5787bf06056f2885fe35de62bf8",
        "to": "0x651f45d00c1fecbc345f7ee708ffe4ab57aa46f6",
        "gas": "0x10966c",
        "value": "0x1c6bf526340000",
        "input": "0xbef6c21e000000000000000000000000000000000000000000000000000000000000008000000000000000000000000000000000000000000000000000000000000000c000000000000000000000000000000000000000000000000000000000000001000000000000000000000000000000000000000000000000000000000000000140000000000000000000000000000000000000000000000000000000000000000b537472696e67576f726b730000000000000000000000000000000000000000000000000000000000000000000000000000000000000000000000000000000005746573747900000000000000000000000000000000000000000000000000000000000000000000000000000000000000000000000000000000000000000000097465737479746573740000000000000000000000000000000000000000000000000000000000000000000000000000000000000000000000000000000000000a7465737474797465737400000000000000000000000000000000000000000000",
        "nonce": "0xac",
        "chainId": "0x14a34"
      },
      "additionalContracts": [],
      "isFixedGasLimit": false
    }
  ],
  "receipts": [
    {
      "status": "0x1",
      "cumulativeGasUsed": "0x1419dc",
      "logs": [
        {
          "address": "0x4e4af2a21ebf62850fd99eb6253e1efbb56098cd",
          "topics": [
            "0x38b331f00373c8b0f9af5a4273ca1b91e894fec999bfa4ec787e8c90a5c8b05c"
          ],
          "data": "0x00000000000000000000000000000000000000000000000000000000000004ab00000000000000000000000000000000000000000000000000000000000000400000000000000000000000000000000000000000000000000000000000000000",
          "blockHash": "0x7879771686c50fa362036d77c1781530bbae421855b1082b9cdb3ff3a04cab50",
          "blockNumber": "0xe35c5a",
          "transactionHash": "0x17fe6c425d134bd4d177f894d473ae82e7b7cf3616cb8844a322edb692c21354",
          "transactionIndex": "0x6",
          "logIndex": "0xa",
          "removed": false
        },
        {
          "address": "0xc1868e054425d378095a003ecba3823a5d0135c9",
          "topics": [
            "0x61ed099e74a97a1d7f8bb0952a88ca8b7b8ebd00c126ea04671f92a81213318a"
          ],
          "data": "0x0000000000000000000000008a3d588d9f6ac041476b094f97ff94ec30169d3d00000000000000000000000000000000000000000000000000004a4b6a613bf2",
          "blockHash": "0x7879771686c50fa362036d77c1781530bbae421855b1082b9cdb3ff3a04cab50",
          "blockNumber": "0xe35c5a",
          "transactionHash": "0x17fe6c425d134bd4d177f894d473ae82e7b7cf3616cb8844a322edb692c21354",
          "transactionIndex": "0x6",
          "logIndex": "0xb",
          "removed": false
        },
        {
          "address": "0xc1868e054425d378095a003ecba3823a5d0135c9",
          "topics": [
            "0x07ea52d82345d6e838192107d8fd7123d9c2ec8e916cd0aad13fd2b60db24644"
          ],
          "data": "0x000000000000000000000000000000000000000000000000000000000000006000000000000000000000000000000000000000000000000000000000000000a000000000000000000000000000000000000000000000000000000000000000c00000000000000000000000000000000000000000000000000000000000000001000000000000000000000000e1a12515f9ab2764b887bf60b923ca494ebbb2d600000000000000000000000000000000000000000000000000000000000000000000000000000000000000000000000000000000000000000000000000000001000000000000000000000000000000000000000000000000000003cb947eb288",
          "blockHash": "0x7879771686c50fa362036d77c1781530bbae421855b1082b9cdb3ff3a04cab50",
          "blockNumber": "0xe35c5a",
          "transactionHash": "0x17fe6c425d134bd4d177f894d473ae82e7b7cf3616cb8844a322edb692c21354",
          "transactionIndex": "0x6",
          "logIndex": "0xc",
          "removed": false
        },
        {
          "address": "0x6edce65403992e310a62460808c4b910d972f10f",
          "topics": [
            "0x1ab700d4ced0c005b164c0f789fd09fcbb0156d4c2041b8a3bfbcd961cd1567f"
          ],
          "data": "0x00000000000000000000000000000000000000000000000000000000000000600000000000000000000000000000000000000000000000000000000000000140000000000000000000000000c1868e054425d378095a003ecba3823a5d0135c900000000000000000000000000000000000000000000000000000000000000b101000000000000000100009d35000000000000000000000000651f45d00c1fecbc345f7ee708ffe4ab57aa46f600009d2800000000000000000000000026f36a778dbab00b9f9f3ded0dd7ad59c3a7847bdb88533af7fa9c3ad545ac243f6382b953294026e732ef6454ee982ac2ca02e000000000000000000000000012b2434a1022d5787bf06056f2885fe35de62bf80000000000000000000000000000000000000000000000000000000000000000000000000000000000000000000000000000000000000000000000000000000000000000000000000000000000002c0003010011010000000000000000000000000000d6d80100130300000000000000000000000000000000d6d80000000000000000000000000000000000000000",
          "blockHash": "0x7879771686c50fa362036d77c1781530bbae421855b1082b9cdb3ff3a04cab50",
          "blockNumber": "0xe35c5a",
          "transactionHash": "0x17fe6c425d134bd4d177f894d473ae82e7b7cf3616cb8844a322edb692c21354",
          "transactionIndex": "0x6",
          "logIndex": "0xd",
          "removed": false
        }
      ],
      "logsBloom": "0x20000000000000000000000000000000000000000000000000000000000000000000080000000200200000000000000000000000000000000000000000040000000000000000000000000000000000000000000000200000000000020000000000000000000000008200000000000000000000000000000000000000000000000000000000000020000000080000000000000000000000000000000000000000000000008000000000100000000000000000000000400000000440000000000080000000000000000000000000000000000000000000000000000000000000000000040000000000400004000000002000000000000000000000000000000000",
      "type": "0x2",
      "transactionHash": "0x17fe6c425d134bd4d177f894d473ae82e7b7cf3616cb8844a322edb692c21354",
      "transactionIndex": "0x6",
      "blockHash": "0x7879771686c50fa362036d77c1781530bbae421855b1082b9cdb3ff3a04cab50",
      "blockNumber": "0xe35c5a",
      "gasUsed": "0xb578a",
      "effectiveGasPrice": "0xf43c3",
      "blobGasUsed": "0x0",
      "from": "0x12b2434a1022d5787bf06056f2885fe35de62bf8",
      "to": "0x651f45d00c1fecbc345f7ee708ffe4ab57aa46f6",
      "contractAddress": null,
      "l1BaseFeeScalar": "0x44d",
      "l1BlobBaseFee": "0xf44727f93e",
      "l1BlobBaseFeeScalar": "0xa118b",
      "l1Fee": "0x55e7e466a2ae",
      "l1GasPrice": "0xc8b3ae1a",
      "l1GasUsed": "0x886"
    }
  ],
  "libraries": [],
  "pending": [],
  "returns": {},
  "timestamp": 1725568922,
  "chain": 84532,
  "commit": "2f89147"
}