{
  "transactions": [
    {
      "hash": "0xf3cc261660c96cc4b69ed897caad48ef94c4d2a941ff0d2146fd6c484402d3f1",
      "transactionType": "CALL",
      "contractName": null,
      "contractAddress": "0xaad1191f2ef0c86f7c9faebfc4c2142dd4485055",
      "function": "verifyProject(string,string,string,string)",
      "arguments": [
        "test",
        "testy",
        "testytest",
        "testtytest"
      ],
      "transaction": {
        "from": "0x12b2434a1022d5787bf06056f2885fe35de62bf8",
        "to": "0xaad1191f2ef0c86f7c9faebfc4c2142dd4485055",
        "gas": "0xf90cf",
        "value": "0x6a94d74f430000",
        "input": "0xbef6c21e000000000000000000000000000000000000000000000000000000000000008000000000000000000000000000000000000000000000000000000000000000c000000000000000000000000000000000000000000000000000000000000001000000000000000000000000000000000000000000000000000000000000000140000000000000000000000000000000000000000000000000000000000000000474657374000000000000000000000000000000000000000000000000000000000000000000000000000000000000000000000000000000000000000000000005746573747900000000000000000000000000000000000000000000000000000000000000000000000000000000000000000000000000000000000000000000097465737479746573740000000000000000000000000000000000000000000000000000000000000000000000000000000000000000000000000000000000000a7465737474797465737400000000000000000000000000000000000000000000",
        "nonce": "0x56",
        "chainId": "0x14a34"
      },
      "additionalContracts": [],
      "isFixedGasLimit": false
    }
  ],
  "receipts": [
    {
      "status": "0x1",
      "cumulativeGasUsed": "0x196727",
      "logs": [
        {
          "address": "0x4e4af2a21ebf62850fd99eb6253e1efbb56098cd",
          "topics": [
            "0x38b331f00373c8b0f9af5a4273ca1b91e894fec999bfa4ec787e8c90a5c8b05c"
          ],
          "data": "0x000000000000000000000000000000000000000000000000000000000000045300000000000000000000000000000000000000000000000000000000000000400000000000000000000000000000000000000000000000000000000000000000",
          "blockHash": "0xfef6c9a6ecbe77a4a11bb79b2c7d1282d92ad371bd60708d9b071dab27c119e3",
          "blockNumber": "0xe28277",
          "transactionHash": "0xf3cc261660c96cc4b69ed897caad48ef94c4d2a941ff0d2146fd6c484402d3f1",
          "transactionIndex": "0x6",
          "logIndex": "0x9",
          "removed": false
        },
        {
          "address": "0xc1868e054425d378095a003ecba3823a5d0135c9",
          "topics": [
            "0x61ed099e74a97a1d7f8bb0952a88ca8b7b8ebd00c126ea04671f92a81213318a"
          ],
          "data": "0x0000000000000000000000008a3d588d9f6ac041476b094f97ff94ec30169d3d00000000000000000000000000000000000000000000000000174dd12afe10c0",
          "blockHash": "0xfef6c9a6ecbe77a4a11bb79b2c7d1282d92ad371bd60708d9b071dab27c119e3",
          "blockNumber": "0xe28277",
          "transactionHash": "0xf3cc261660c96cc4b69ed897caad48ef94c4d2a941ff0d2146fd6c484402d3f1",
          "transactionIndex": "0x6",
          "logIndex": "0xa",
          "removed": false
        },
        {
          "address": "0xc1868e054425d378095a003ecba3823a5d0135c9",
          "topics": [
            "0x07ea52d82345d6e838192107d8fd7123d9c2ec8e916cd0aad13fd2b60db24644"
          ],
          "data": "0x000000000000000000000000000000000000000000000000000000000000006000000000000000000000000000000000000000000000000000000000000000a000000000000000000000000000000000000000000000000000000000000000c00000000000000000000000000000000000000000000000000000000000000001000000000000000000000000e1a12515f9ab2764b887bf60b923ca494ebbb2d6000000000000000000000000000000000000000000000000000000000000000000000000000000000000000000000000000000000000000000000000000000010000000000000000000000000000000000000000000000000015b38d1d574580",
          "blockHash": "0xfef6c9a6ecbe77a4a11bb79b2c7d1282d92ad371bd60708d9b071dab27c119e3",
          "blockNumber": "0xe28277",
          "transactionHash": "0xf3cc261660c96cc4b69ed897caad48ef94c4d2a941ff0d2146fd6c484402d3f1",
          "transactionIndex": "0x6",
          "logIndex": "0xb",
          "removed": false
        },
        {
          "address": "0x6edce65403992e310a62460808c4b910d972f10f",
          "topics": [
            "0x1ab700d4ced0c005b164c0f789fd09fcbb0156d4c2041b8a3bfbcd961cd1567f"
          ],
          "data": "0x00000000000000000000000000000000000000000000000000000000000000600000000000000000000000000000000000000000000000000000000000000120000000000000000000000000c1868e054425d378095a003ecba3823a5d0135c9000000000000000000000000000000000000000000000000000000000000009101000000000000000100009d35000000000000000000000000aad1191f2ef0c86f7c9faebfc4c2142dd448505500009ce1000000000000000000000000e473effdc30edbfb68990a517a21307d287ccbb344c5860235543fab7f42939c6ded5dfb5c6701a9a150bd582a399d738c5e7db100000000000000000000000012b2434a1022d5787bf06056f2885fe35de62bf8000000000000000000000000000000000000000000000000000000000000000000000000000000000000000000001600030100110100000000000000000000000000004e2000000000000000000000",
          "blockHash": "0xfef6c9a6ecbe77a4a11bb79b2c7d1282d92ad371bd60708d9b071dab27c119e3",
          "blockNumber": "0xe28277",
          "transactionHash": "0xf3cc261660c96cc4b69ed897caad48ef94c4d2a941ff0d2146fd6c484402d3f1",
          "transactionIndex": "0x6",
          "logIndex": "0xc",
          "removed": false
        }
      ],
      "logsBloom": "0x20000000000000000000000000000000000000000000000000000000000000000000080000000200200000000000000000000000000000000000000000040000000000000000000000000000000000000000000000200000000000020000000000000000000000008200000000000000000000000000000000000000000000000000000000000020000000080000000000000000000000000000000000000000000000008000000000100000000000000000000000400000000440000000000080000000000000000000000000000000000000000000000000000000000000000000040000000000400004000000002000000000000000000000000000000000",
      "type": "0x2",
      "transactionHash": "0xf3cc261660c96cc4b69ed897caad48ef94c4d2a941ff0d2146fd6c484402d3f1",
      "transactionIndex": "0x6",
      "blockHash": "0xfef6c9a6ecbe77a4a11bb79b2c7d1282d92ad371bd60708d9b071dab27c119e3",
      "blockNumber": "0xe28277",
      "gasUsed": "0xb44ef",
      "effectiveGasPrice": "0xf08bd",
      "blobGasUsed": "0x0",
      "from": "0x12b2434a1022d5787bf06056f2885fe35de62bf8",
      "to": "0xaad1191f2ef0c86f7c9faebfc4c2142dd4485055",
      "contractAddress": null,
      "l1BaseFeeScalar": "0x44d",
      "l1BlobBaseFee": "0x187493bd4e5",
      "l1BlobBaseFeeScalar": "0xa118b",
      "l1Fee": "0x822045c91b8f",
      "l1GasPrice": "0xe3b85cb57",
      "l1GasUsed": "0x80e"
    }
  ],
  "libraries": [],
  "pending": [],
  "returns": {},
  "timestamp": 1725457359,
  "chain": 84532,
  "commit": "da4a4b9"
}