{
  "transactions": [
    {
      "hash": "0xcd6b823f980253d295f3ada0a6f5d47a4b7c7cbc93aadf802d2e880886819ec8",
      "transactionType": "CALL",
      "contractName": null,
      "contractAddress": "0x2d92992ea05d38a254b6c26ed9dc5933b5fb8c5c",
      "function": "verifyProject(string,string,string,string)",
      "arguments": [
        "StringWorks",
        "testy",
        "testytest",
        "testtytest"
      ],
      "transaction": {
        "from": "0xb0efd2b19a5698a9c830548ac22708a28c9d4552",
        "to": "0x2d92992ea05d38a254b6c26ed9dc5933b5fb8c5c",
        "gas": "0xf9a5a",
        "value": "0x16345785d8a0000",
        "input": "0xbef6c21e000000000000000000000000000000000000000000000000000000000000008000000000000000000000000000000000000000000000000000000000000000c000000000000000000000000000000000000000000000000000000000000001000000000000000000000000000000000000000000000000000000000000000140000000000000000000000000000000000000000000000000000000000000000b537472696e67576f726b730000000000000000000000000000000000000000000000000000000000000000000000000000000000000000000000000000000005746573747900000000000000000000000000000000000000000000000000000000000000000000000000000000000000000000000000000000000000000000097465737479746573740000000000000000000000000000000000000000000000000000000000000000000000000000000000000000000000000000000000000a7465737474797465737400000000000000000000000000000000000000000000",
        "nonce": "0x9b",
        "chainId": "0x14a34"
      },
      "additionalContracts": [],
      "isFixedGasLimit": false
    }
  ],
  "receipts": [
    {
      "status": "0x1",
      "cumulativeGasUsed": "0x199748",
      "logs": [
        {
          "address": "0x4e4af2a21ebf62850fd99eb6253e1efbb56098cd",
          "topics": [
            "0x38b331f00373c8b0f9af5a4273ca1b91e894fec999bfa4ec787e8c90a5c8b05c"
          ],
          "data": "0x000000000000000000000000000000000000000000000000000000000000047300000000000000000000000000000000000000000000000000000000000000400000000000000000000000000000000000000000000000000000000000000000",
          "blockHash": "0x436985ebd747554ce7ef71e88d938c741818d8af1d7a68a019d05686be08c5b8",
          "blockNumber": "0xe30986",
          "transactionHash": "0xcd6b823f980253d295f3ada0a6f5d47a4b7c7cbc93aadf802d2e880886819ec8",
          "transactionIndex": "0xa",
          "logIndex": "0x9",
          "removed": false
        },
        {
          "address": "0xc1868e054425d378095a003ecba3823a5d0135c9",
          "topics": [
            "0x61ed099e74a97a1d7f8bb0952a88ca8b7b8ebd00c126ea04671f92a81213318a"
          ],
          "data": "0x0000000000000000000000008a3d588d9f6ac041476b094f97ff94ec30169d3d00000000000000000000000000000000000000000000000000004a46dfff9532",
          "blockHash": "0x436985ebd747554ce7ef71e88d938c741818d8af1d7a68a019d05686be08c5b8",
          "blockNumber": "0xe30986",
          "transactionHash": "0xcd6b823f980253d295f3ada0a6f5d47a4b7c7cbc93aadf802d2e880886819ec8",
          "transactionIndex": "0xa",
          "logIndex": "0xa",
          "removed": false
        },
        {
          "address": "0xc1868e054425d378095a003ecba3823a5d0135c9",
          "topics": [
            "0x07ea52d82345d6e838192107d8fd7123d9c2ec8e916cd0aad13fd2b60db24644"
          ],
          "data": "0x000000000000000000000000000000000000000000000000000000000000006000000000000000000000000000000000000000000000000000000000000000a000000000000000000000000000000000000000000000000000000000000000c00000000000000000000000000000000000000000000000000000000000000001000000000000000000000000e1a12515f9ab2764b887bf60b923ca494ebbb2d600000000000000000000000000000000000000000000000000000000000000000000000000000000000000000000000000000000000000000000000000000001000000000000000000000000000000000000000000000000000003cb947eb288",
          "blockHash": "0x436985ebd747554ce7ef71e88d938c741818d8af1d7a68a019d05686be08c5b8",
          "blockNumber": "0xe30986",
          "transactionHash": "0xcd6b823f980253d295f3ada0a6f5d47a4b7c7cbc93aadf802d2e880886819ec8",
          "transactionIndex": "0xa",
          "logIndex": "0xb",
          "removed": false
        },
        {
          "address": "0x6edce65403992e310a62460808c4b910d972f10f",
          "topics": [
            "0x1ab700d4ced0c005b164c0f789fd09fcbb0156d4c2041b8a3bfbcd961cd1567f"
          ],
          "data": "0x00000000000000000000000000000000000000000000000000000000000000600000000000000000000000000000000000000000000000000000000000000160000000000000000000000000c1868e054425d378095a003ecba3823a5d0135c900000000000000000000000000000000000000000000000000000000000000d101000000000000000100009d350000000000000000000000002d92992ea05d38a254b6c26ed9dc5933b5fb8c5c00009d280000000000000000000000006aba63870bf8bdf3888b5f794ddf7de2aeda5060022e30d722769277fe25f36b915e218588a927c5668b2a18501845e0557f81a90000000000000000000000000000000000000000000000000000000000000020000000000000000000000000000000000000000000000000000000000000000b537472696e67576f726b73000000000000000000000000000000000000000000000000000000000000000000000000000000000000000000000000000000000000000000000000000000000000001600030100110100000000000000000000000000015f9000000000000000000000",
          "blockHash": "0x436985ebd747554ce7ef71e88d938c741818d8af1d7a68a019d05686be08c5b8",
          "blockNumber": "0xe30986",
          "transactionHash": "0xcd6b823f980253d295f3ada0a6f5d47a4b7c7cbc93aadf802d2e880886819ec8",
          "transactionIndex": "0xa",
          "logIndex": "0xc",
          "removed": false
        }
      ],
      "logsBloom": "0x20000000000000000000000000000000000000000000000000000000000000000000080000000200200000000000000000000000000000000000000000040000000000000000000000000000000000000000000000200000000000020000000000000000000000008200000000000000000000000000000000000000000000000000000000000020000000080000000000000000000000000000000000000000000000008000000000100000000000000000000000400000000440000000000080000000000000000000000000000000000000000000000000000000000000000000040000000000400004000000002000000000000000000000000000000000",
      "type": "0x2",
      "transactionHash": "0xcd6b823f980253d295f3ada0a6f5d47a4b7c7cbc93aadf802d2e880886819ec8",
      "transactionIndex": "0xa",
      "blockHash": "0x436985ebd747554ce7ef71e88d938c741818d8af1d7a68a019d05686be08c5b8",
      "blockNumber": "0xe30986",
      "gasUsed": "0xb4bd7",
      "effectiveGasPrice": "0xece38",
      "from": "0xb0efd2b19a5698a9c830548ac22708a28c9d4552",
      "to": "0x2d92992ea05d38a254b6c26ed9dc5933b5fb8c5c",
      "contractAddress": null,
      "l1BaseFeeScalar": "0x44d",
      "l1BlobBaseFee": "0x878e91113d",
      "l1BlobBaseFeeScalar": "0xa118b",
      "l1Fee": "0x300f7133afd0",
      "l1GasPrice": "0xaa3e41bff",
      "l1GasUsed": "0x894"
    }
  ],
  "libraries": [],
  "pending": [],
  "returns": {},
  "timestamp": 1725526513,
  "chain": 84532,
  "commit": "8370d5b"
}