{
  "transactions": [
    {
      "hash": "0xa0082ba5175396cf1f77b2d9a17c7a6fc9a8d9e44c9cb86ff2e3a19fd04367a1",
      "transactionType": "CALL",
      "contractName": null,
      "contractAddress": "0x948ee90e44f83ee3f84b7f91230e17bfa0d0cd41",
      "function": "verifyProject(string,string,string,string)",
      "arguments": [
        "test",
        "testy",
        "testytest",
        "testtytest"
      ],
      "transaction": {
        "from": "0xb0efd2b19a5698a9c830548ac22708a28c9d4552",
        "to": "0x948ee90e44f83ee3f84b7f91230e17bfa0d0cd41",
        "gas": "0xf438b",
        "value": "0x16345785d8a0000",
        "input": "0xbef6c21e000000000000000000000000000000000000000000000000000000000000008000000000000000000000000000000000000000000000000000000000000000c000000000000000000000000000000000000000000000000000000000000001000000000000000000000000000000000000000000000000000000000000000140000000000000000000000000000000000000000000000000000000000000000474657374000000000000000000000000000000000000000000000000000000000000000000000000000000000000000000000000000000000000000000000005746573747900000000000000000000000000000000000000000000000000000000000000000000000000000000000000000000000000000000000000000000097465737479746573740000000000000000000000000000000000000000000000000000000000000000000000000000000000000000000000000000000000000a7465737474797465737400000000000000000000000000000000000000000000",
        "nonce": "0x67",
        "chainId": "0x14a34"
      },
      "additionalContracts": [],
      "isFixedGasLimit": false
    }
  ],
  "receipts": [
    {
      "status": "0x1",
      "cumulativeGasUsed": "0x1f12b3",
      "logs": [
        {
          "address": "0x4e4af2a21ebf62850fd99eb6253e1efbb56098cd",
          "topics": [
            "0x38b331f00373c8b0f9af5a4273ca1b91e894fec999bfa4ec787e8c90a5c8b05c"
          ],
          "data": "0x000000000000000000000000000000000000000000000000000000000000046900000000000000000000000000000000000000000000000000000000000000400000000000000000000000000000000000000000000000000000000000000000",
          "blockHash": "0xbd1163606f647cf2082ec963d17f8fb9cec5d30439659559dbb496f60a135239",
          "blockNumber": "0xe2ee92",
          "transactionHash": "0xa0082ba5175396cf1f77b2d9a17c7a6fc9a8d9e44c9cb86ff2e3a19fd04367a1",
          "transactionIndex": "0x9",
          "logIndex": "0x16",
          "removed": false
        },
        {
          "address": "0xc1868e054425d378095a003ecba3823a5d0135c9",
          "topics": [
            "0x61ed099e74a97a1d7f8bb0952a88ca8b7b8ebd00c126ea04671f92a81213318a"
          ],
          "data": "0x0000000000000000000000008a3d588d9f6ac041476b094f97ff94ec30169d3d000000000000000000000000000000000000000000000000000053b662dbb522",
          "blockHash": "0xbd1163606f647cf2082ec963d17f8fb9cec5d30439659559dbb496f60a135239",
          "blockNumber": "0xe2ee92",
          "transactionHash": "0xa0082ba5175396cf1f77b2d9a17c7a6fc9a8d9e44c9cb86ff2e3a19fd04367a1",
          "transactionIndex": "0x9",
          "logIndex": "0x17",
          "removed": false
        },
        {
          "address": "0xc1868e054425d378095a003ecba3823a5d0135c9",
          "topics": [
            "0x07ea52d82345d6e838192107d8fd7123d9c2ec8e916cd0aad13fd2b60db24644"
          ],
          "data": "0x000000000000000000000000000000000000000000000000000000000000006000000000000000000000000000000000000000000000000000000000000000a000000000000000000000000000000000000000000000000000000000000000c00000000000000000000000000000000000000000000000000000000000000001000000000000000000000000e1a12515f9ab2764b887bf60b923ca494ebbb2d60000000000000000000000000000000000000000000000000000000000000000000000000000000000000000000000000000000000000000000000000000000100000000000000000000000000000000000000000000000000000ca4635070a8",
          "blockHash": "0xbd1163606f647cf2082ec963d17f8fb9cec5d30439659559dbb496f60a135239",
          "blockNumber": "0xe2ee92",
          "transactionHash": "0xa0082ba5175396cf1f77b2d9a17c7a6fc9a8d9e44c9cb86ff2e3a19fd04367a1",
          "transactionIndex": "0x9",
          "logIndex": "0x18",
          "removed": false
        },
        {
          "address": "0x6edce65403992e310a62460808c4b910d972f10f",
          "topics": [
            "0x1ab700d4ced0c005b164c0f789fd09fcbb0156d4c2041b8a3bfbcd961cd1567f"
          ],
          "data": "0x00000000000000000000000000000000000000000000000000000000000000600000000000000000000000000000000000000000000000000000000000000120000000000000000000000000c1868e054425d378095a003ecba3823a5d0135c9000000000000000000000000000000000000000000000000000000000000009101000000000000000300009d35000000000000000000000000948ee90e44f83ee3f84b7f91230e17bfa0d0cd4100009d27000000000000000000000000ab1f48f42b7f3b34b590e7ae39d96aa3ee790406aa898ea39499ee835e0e0a0010537eb54e1c3213a654cf1880a6d37d5c4f4f04000000000000000000000000b0efd2b19a5698a9c830548ac22708a28c9d4552000000000000000000000000000000000000000000000000000000000000000000000000000000000000000000001600030100110100000000000000000000000000004e2000000000000000000000",
          "blockHash": "0xbd1163606f647cf2082ec963d17f8fb9cec5d30439659559dbb496f60a135239",
          "blockNumber": "0xe2ee92",
          "transactionHash": "0xa0082ba5175396cf1f77b2d9a17c7a6fc9a8d9e44c9cb86ff2e3a19fd04367a1",
          "transactionIndex": "0x9",
          "logIndex": "0x19",
          "removed": false
        }
      ],
      "logsBloom": "0x20000000000000000000000000000000000000000000000000000000000000000000080000000200200000000000000000000000000000000000000000040000000000000000000000000000000000000000000000200000000000020000000000000000000000008200000000000000000000000000000000000000000000000000000000000020000000080000000000000000000000000000000000000000000000008000000000100000000000000000000000400000000440000000000080000000000000000000000000000000000000000000000000000000000000000000040000000000400004000000002000000000000000000000000000000000",
      "type": "0x2",
      "transactionHash": "0xa0082ba5175396cf1f77b2d9a17c7a6fc9a8d9e44c9cb86ff2e3a19fd04367a1",
      "transactionIndex": "0x9",
      "blockHash": "0xbd1163606f647cf2082ec963d17f8fb9cec5d30439659559dbb496f60a135239",
      "blockNumber": "0xe2ee92",
      "gasUsed": "0xb0cff",
      "effectiveGasPrice": "0x28a7",
      "from": "0xb0efd2b19a5698a9c830548ac22708a28c9d4552",
      "to": "0x948ee90e44f83ee3f84b7f91230e17bfa0d0cd41",
      "contractAddress": null,
      "l1BaseFeeScalar": "0x44d",
      "l1BlobBaseFee": "0x1e7e04b8a9",
      "l1BlobBaseFeeScalar": "0xa118b",
      "l1Fee": "0xa03fed396ff",
      "l1GasPrice": "0x1e077292c",
      "l1GasUsed": "0x7f3"
    }
  ],
  "libraries": [],
  "pending": [],
  "returns": {},
  "timestamp": 1725512714,
  "chain": 84532,
  "commit": "8370d5b"
}