{
  "transactions": [
    {
      "hash": "0x4051fba979d83f2dce46aaebedb33f3baa4037a7a8c73928cec515e576397ebb",
      "transactionType": "CALL",
      "contractName": null,
      "contractAddress": "0x0e54e9e87148422da6074dc101012ab05f51aa57",
      "function": "verifyProject(string,string,string,string)",
      "arguments": [
        "StringWorks",
        "testy",
        "testytest",
        "testtytest"
      ],
      "transaction": {
        "from": "0x12b2434a1022d5787bf06056f2885fe35de62bf8",
        "to": "0x0e54e9e87148422da6074dc101012ab05f51aa57",
        "gas": "0xf9a5a",
        "value": "0xb1a2bc2ec50000",
        "input": "0xbef6c21e000000000000000000000000000000000000000000000000000000000000008000000000000000000000000000000000000000000000000000000000000000c000000000000000000000000000000000000000000000000000000000000001000000000000000000000000000000000000000000000000000000000000000140000000000000000000000000000000000000000000000000000000000000000b537472696e67576f726b730000000000000000000000000000000000000000000000000000000000000000000000000000000000000000000000000000000005746573747900000000000000000000000000000000000000000000000000000000000000000000000000000000000000000000000000000000000000000000097465737479746573740000000000000000000000000000000000000000000000000000000000000000000000000000000000000000000000000000000000000a7465737474797465737400000000000000000000000000000000000000000000",
        "nonce": "0x85",
        "chainId": "0x14a34"
      },
      "additionalContracts": [],
      "isFixedGasLimit": false
    }
  ],
  "receipts": [
    {
      "status": "0x1",
      "cumulativeGasUsed": "0x2adb8a",
      "logs": [
        {
          "address": "0x4e4af2a21ebf62850fd99eb6253e1efbb56098cd",
          "topics": [
            "0x38b331f00373c8b0f9af5a4273ca1b91e894fec999bfa4ec787e8c90a5c8b05c"
          ],
          "data": "0x000000000000000000000000000000000000000000000000000000000000047900000000000000000000000000000000000000000000000000000000000000400000000000000000000000000000000000000000000000000000000000000000",
          "blockHash": "0xc24de1accd97533232ae6f20c92b3200d2a0a7f6e512905dabe3c07544946eb1",
          "blockNumber": "0xe31163",
          "transactionHash": "0x4051fba979d83f2dce46aaebedb33f3baa4037a7a8c73928cec515e576397ebb",
          "transactionIndex": "0x7",
          "logIndex": "0x24",
          "removed": false
        },
        {
          "address": "0xc1868e054425d378095a003ecba3823a5d0135c9",
          "topics": [
            "0x61ed099e74a97a1d7f8bb0952a88ca8b7b8ebd00c126ea04671f92a81213318a"
          ],
          "data": "0x0000000000000000000000008a3d588d9f6ac041476b094f97ff94ec30169d3d00000000000000000000000000000000000000000000000000004a46dfff9532",
          "blockHash": "0xc24de1accd97533232ae6f20c92b3200d2a0a7f6e512905dabe3c07544946eb1",
          "blockNumber": "0xe31163",
          "transactionHash": "0x4051fba979d83f2dce46aaebedb33f3baa4037a7a8c73928cec515e576397ebb",
          "transactionIndex": "0x7",
          "logIndex": "0x25",
          "removed": false
        },
        {
          "address": "0xc1868e054425d378095a003ecba3823a5d0135c9",
          "topics": [
            "0x07ea52d82345d6e838192107d8fd7123d9c2ec8e916cd0aad13fd2b60db24644"
          ],
          "data": "0x000000000000000000000000000000000000000000000000000000000000006000000000000000000000000000000000000000000000000000000000000000a000000000000000000000000000000000000000000000000000000000000000c00000000000000000000000000000000000000000000000000000000000000001000000000000000000000000e1a12515f9ab2764b887bf60b923ca494ebbb2d600000000000000000000000000000000000000000000000000000000000000000000000000000000000000000000000000000000000000000000000000000001000000000000000000000000000000000000000000000000000003cb947eb288",
          "blockHash": "0xc24de1accd97533232ae6f20c92b3200d2a0a7f6e512905dabe3c07544946eb1",
          "blockNumber": "0xe31163",
          "transactionHash": "0x4051fba979d83f2dce46aaebedb33f3baa4037a7a8c73928cec515e576397ebb",
          "transactionIndex": "0x7",
          "logIndex": "0x26",
          "removed": false
        },
        {
          "address": "0x6edce65403992e310a62460808c4b910d972f10f",
          "topics": [
            "0x1ab700d4ced0c005b164c0f789fd09fcbb0156d4c2041b8a3bfbcd961cd1567f"
          ],
          "data": "0x00000000000000000000000000000000000000000000000000000000000000600000000000000000000000000000000000000000000000000000000000000160000000000000000000000000c1868e054425d378095a003ecba3823a5d0135c900000000000000000000000000000000000000000000000000000000000000d101000000000000000100009d350000000000000000000000000e54e9e87148422da6074dc101012ab05f51aa5700009d28000000000000000000000000c8cf2e49634ce0cef0ff8331e3d139882469202aa0d6b2ffdf56539bb818d81fcc2b5829b900533bf1cf20dcade64cdc92be1c1c0000000000000000000000000000000000000000000000000000000000000020000000000000000000000000000000000000000000000000000000000000000b537472696e67576f726b73000000000000000000000000000000000000000000000000000000000000000000000000000000000000000000000000000000000000000000000000000000000000001600030100110100000000000000000000000000015f9000000000000000000000",
          "blockHash": "0xc24de1accd97533232ae6f20c92b3200d2a0a7f6e512905dabe3c07544946eb1",
          "blockNumber": "0xe31163",
          "transactionHash": "0x4051fba979d83f2dce46aaebedb33f3baa4037a7a8c73928cec515e576397ebb",
          "transactionIndex": "0x7",
          "logIndex": "0x27",
          "removed": false
        }
      ],
      "logsBloom": "0x20000000000000000000000000000000000000000000000000000000000000000000080000000200200000000000000000000000000000000000000000040000000000000000000000000000000000000000000000200000000000020000000000000000000000008200000000000000000000000000000000000000000000000000000000000020000000080000000000000000000000000000000000000000000000008000000000100000000000000000000000400000000440000000000080000000000000000000000000000000000000000000000000000000000000000000040000000000400004000000002000000000000000000000000000000000",
      "type": "0x2",
      "transactionHash": "0x4051fba979d83f2dce46aaebedb33f3baa4037a7a8c73928cec515e576397ebb",
      "transactionIndex": "0x7",
      "blockHash": "0xc24de1accd97533232ae6f20c92b3200d2a0a7f6e512905dabe3c07544946eb1",
      "blockNumber": "0xe31163",
      "gasUsed": "0xb4bd7",
      "effectiveGasPrice": "0xf436b",
      "blobGasUsed": "0x0",
      "from": "0x12b2434a1022d5787bf06056f2885fe35de62bf8",
      "to": "0x0e54e9e87148422da6074dc101012ab05f51aa57",
      "contractAddress": null,
      "l1BaseFeeScalar": "0x44d",
      "l1BlobBaseFee": "0x9e9ba3d45d",
      "l1BlobBaseFeeScalar": "0xa118b",
      "l1Fee": "0x37ddf468f618",
      "l1GasPrice": "0x9fc1b292e",
      "l1GasUsed": "0x886"
    }
  ],
  "libraries": [],
  "pending": [],
  "returns": {},
  "timestamp": 1725530540,
  "chain": 84532,
  "commit": "6821207"
}