{
  "transactions": [
    {
      "hash": "0x05a120ed58f3fad26692ef01a6a70792391c24c968f4c738c01f09f9c2786e7e",
      "transactionType": "CALL",
      "contractName": null,
      "contractAddress": "0xe4b0be62627747ac752669ebb93ee612ecfd73be",
      "function": "verifyProject(string,string,string,string)",
      "arguments": [
        "StringWorks",
        "testy",
        "testytest",
        "testtytest"
      ],
      "transaction": {
        "from": "0x9f7cc06b64a5ae410fe074acfe77d7151f7ba411",
        "to": "0xe4b0be62627747ac752669ebb93ee612ecfd73be",
        "gas": "0xf6865",
        "value": "0x11c37937e08000",
        "input": "0xbef6c21e000000000000000000000000000000000000000000000000000000000000008000000000000000000000000000000000000000000000000000000000000000c000000000000000000000000000000000000000000000000000000000000001000000000000000000000000000000000000000000000000000000000000000140000000000000000000000000000000000000000000000000000000000000000b537472696e67576f726b730000000000000000000000000000000000000000000000000000000000000000000000000000000000000000000000000000000005746573747900000000000000000000000000000000000000000000000000000000000000000000000000000000000000000000000000000000000000000000097465737479746573740000000000000000000000000000000000000000000000000000000000000000000000000000000000000000000000000000000000000a7465737474797465737400000000000000000000000000000000000000000000",
        "nonce": "0x0",
        "chainId": "0x14a34"
      },
      "additionalContracts": [],
      "isFixedGasLimit": false
    }
  ],
  "receipts": [
    {
      "status": "0x1",
      "cumulativeGasUsed": "0x1ee845",
      "logs": [
        {
          "address": "0x4e4af2a21ebf62850fd99eb6253e1efbb56098cd",
          "topics": [
            "0x38b331f00373c8b0f9af5a4273ca1b91e894fec999bfa4ec787e8c90a5c8b05c"
          ],
          "data": "0x000000000000000000000000000000000000000000000000000000000000062c00000000000000000000000000000000000000000000000000000000000000400000000000000000000000000000000000000000000000000000000000000000",
          "blockHash": "0x06955d5333505b85d24d84416be1d3ebeca3b8c1a6d415c9ca5c39b55a65d0ca",
          "blockNumber": "0xe4a863",
          "transactionHash": "0x05a120ed58f3fad26692ef01a6a70792391c24c968f4c738c01f09f9c2786e7e",
          "transactionIndex": "0xc",
          "logIndex": "0x16",
          "removed": false
        },
        {
          "address": "0xc1868e054425d378095a003ecba3823a5d0135c9",
          "topics": [
            "0x61ed099e74a97a1d7f8bb0952a88ca8b7b8ebd00c126ea04671f92a81213318a"
          ],
          "data": "0x0000000000000000000000008a3d588d9f6ac041476b094f97ff94ec30169d3d000000000000000000000000000000000000000000000000000052b527e51874",
          "blockHash": "0x06955d5333505b85d24d84416be1d3ebeca3b8c1a6d415c9ca5c39b55a65d0ca",
          "blockNumber": "0xe4a863",
          "transactionHash": "0x05a120ed58f3fad26692ef01a6a70792391c24c968f4c738c01f09f9c2786e7e",
          "transactionIndex": "0xc",
          "logIndex": "0x17",
          "removed": false
        },
        {
          "address": "0xc1868e054425d378095a003ecba3823a5d0135c9",
          "topics": [
            "0x07ea52d82345d6e838192107d8fd7123d9c2ec8e916cd0aad13fd2b60db24644"
          ],
          "data": "0x000000000000000000000000000000000000000000000000000000000000006000000000000000000000000000000000000000000000000000000000000000a000000000000000000000000000000000000000000000000000000000000000c00000000000000000000000000000000000000000000000000000000000000001000000000000000000000000e1a12515f9ab2764b887bf60b923ca494ebbb2d60000000000000000000000000000000000000000000000000000000000000000000000000000000000000000000000000000000000000000000000000000000100000000000000000000000000000000000000000000000000000436eae6d28d",
          "blockHash": "0x06955d5333505b85d24d84416be1d3ebeca3b8c1a6d415c9ca5c39b55a65d0ca",
          "blockNumber": "0xe4a863",
          "transactionHash": "0x05a120ed58f3fad26692ef01a6a70792391c24c968f4c738c01f09f9c2786e7e",
          "transactionIndex": "0xc",
          "logIndex": "0x18",
          "removed": false
        },
        {
          "address": "0x6edce65403992e310a62460808c4b910d972f10f",
          "topics": [
            "0x1ab700d4ced0c005b164c0f789fd09fcbb0156d4c2041b8a3bfbcd961cd1567f"
          ],
          "data": "0x00000000000000000000000000000000000000000000000000000000000000600000000000000000000000000000000000000000000000000000000000000140000000000000000000000000c1868e054425d378095a003ecba3823a5d0135c900000000000000000000000000000000000000000000000000000000000000b101000000000000000200009d35000000000000000000000000e4b0be62627747ac752669ebb93ee612ecfd73be00009d28000000000000000000000000a6f21f0c90f316d8420bbf3897eb98227285d14bfad13ee3fe44966c793dff22e7638230bfb0312327df4875f2dbca33502d38990000000000000000000000009f7cc06b64a5ae410fe074acfe77d7151f7ba4110000000000000000000000000000000000000000000000000000000000000001000000000000000000000000000000000000000000000000000000000000000000000000000000000000000000002c00030100110100000000000000000000000000011170010013030000000000000000000000000000000111700000000000000000000000000000000000000000",
          "blockHash": "0x06955d5333505b85d24d84416be1d3ebeca3b8c1a6d415c9ca5c39b55a65d0ca",
          "blockNumber": "0xe4a863",
          "transactionHash": "0x05a120ed58f3fad26692ef01a6a70792391c24c968f4c738c01f09f9c2786e7e",
          "transactionIndex": "0xc",
          "logIndex": "0x19",
          "removed": false
        }
      ],
      "logsBloom": "0x20000000000000000000000000000000000000000000000000000000000000000000080000000200200000000000000000000000000000000000000000040000000000000000000000000000000000000000000000200000000000020000000000000000000000008200000000000000000000000000000000000000000000000000000000000020000000080000000000000000000000000000000000000000000000008000000000100000000000000000000000400000000440000000000080000000000000000000000000000000000000000000000000000000000000000000040000000000400004000000002000000000000000000000000000000000",
      "type": "0x2",
      "transactionHash": "0x05a120ed58f3fad26692ef01a6a70792391c24c968f4c738c01f09f9c2786e7e",
      "transactionIndex": "0xc",
      "blockHash": "0x06955d5333505b85d24d84416be1d3ebeca3b8c1a6d415c9ca5c39b55a65d0ca",
      "blockNumber": "0xe4a863",
      "gasUsed": "0xb27ad",
      "effectiveGasPrice": "0xd2f21",
      "from": "0x9f7cc06b64a5ae410fe074acfe77d7151f7ba411",
      "to": "0xe4b0be62627747ac752669ebb93ee612ecfd73be",
      "contractAddress": null,
      "l1BaseFeeScalar": "0x44d",
      "l1BlobBaseFee": "0x151919569",
      "l1BlobBaseFeeScalar": "0xa118b",
      "l1Fee": "0x73f3893376",
      "l1GasPrice": "0x116304d0",
      "l1GasUsed": "0x851"
    }
  ],
  "libraries": [],
  "pending": [],
  "returns": {},
  "timestamp": 1725738925,
  "chain": 84532,
  "commit": "67fd3b7"
}