{
  "transactions": [
    {
      "hash": "0xbb3ccaa807e6654229c4764b1b8f43f38703bf0c37ca972d7518f75b1fc1d501",
      "transactionType": "CALL",
      "contractName": null,
      "contractAddress": "0x2edd21000a84b174112a41189271b61104693952",
      "function": "verifyProject(string,string,string,string)",
      "arguments": [
        "StringWorks",
        "testy",
        "testytest",
        "testtytest"
      ],
      "transaction": {
        "from": "0x12b2434a1022d5787bf06056f2885fe35de62bf8",
        "to": "0x2edd21000a84b174112a41189271b61104693952",
        "gas": "0xfb5c9",
        "value": "0xe35fa931a0000",
        "input": "0xbef6c21e000000000000000000000000000000000000000000000000000000000000008000000000000000000000000000000000000000000000000000000000000000c000000000000000000000000000000000000000000000000000000000000001000000000000000000000000000000000000000000000000000000000000000140000000000000000000000000000000000000000000000000000000000000000b537472696e67576f726b730000000000000000000000000000000000000000000000000000000000000000000000000000000000000000000000000000000005746573747900000000000000000000000000000000000000000000000000000000000000000000000000000000000000000000000000000000000000000000097465737479746573740000000000000000000000000000000000000000000000000000000000000000000000000000000000000000000000000000000000000a7465737474797465737400000000000000000000000000000000000000000000",
        "nonce": "0xbd",
        "chainId": "0x14a34"
      },
      "additionalContracts": [],
      "isFixedGasLimit": false
    }
  ],
  "receipts": [
    {
      "status": "0x1",
      "cumulativeGasUsed": "0xeb5f8",
      "logs": [
        {
          "address": "0x4e4af2a21ebf62850fd99eb6253e1efbb56098cd",
          "topics": [
            "0x38b331f00373c8b0f9af5a4273ca1b91e894fec999bfa4ec787e8c90a5c8b05c"
          ],
          "data": "0x00000000000000000000000000000000000000000000000000000000000004d300000000000000000000000000000000000000000000000000000000000000400000000000000000000000000000000000000000000000000000000000000000",
          "blockHash": "0x3d113e57af2cf4e7199fb9aa8c1bc534490980c6219879f06c3746a9eb77af6a",
          "blockNumber": "0xe3cbce",
          "transactionHash": "0xbb3ccaa807e6654229c4764b1b8f43f38703bf0c37ca972d7518f75b1fc1d501",
          "transactionIndex": "0x3",
          "logIndex": "0x3",
          "removed": false
        },
        {
          "address": "0xc1868e054425d378095a003ecba3823a5d0135c9",
          "topics": [
            "0x61ed099e74a97a1d7f8bb0952a88ca8b7b8ebd00c126ea04671f92a81213318a"
          ],
          "data": "0x0000000000000000000000008a3d588d9f6ac041476b094f97ff94ec30169d3d00000000000000000000000000000000000000000000000000004a4b6a613bf2",
          "blockHash": "0x3d113e57af2cf4e7199fb9aa8c1bc534490980c6219879f06c3746a9eb77af6a",
          "blockNumber": "0xe3cbce",
          "transactionHash": "0xbb3ccaa807e6654229c4764b1b8f43f38703bf0c37ca972d7518f75b1fc1d501",
          "transactionIndex": "0x3",
          "logIndex": "0x4",
          "removed": false
        },
        {
          "address": "0xc1868e054425d378095a003ecba3823a5d0135c9",
          "topics": [
            "0x07ea52d82345d6e838192107d8fd7123d9c2ec8e916cd0aad13fd2b60db24644"
          ],
          "data": "0x000000000000000000000000000000000000000000000000000000000000006000000000000000000000000000000000000000000000000000000000000000a000000000000000000000000000000000000000000000000000000000000000c00000000000000000000000000000000000000000000000000000000000000001000000000000000000000000e1a12515f9ab2764b887bf60b923ca494ebbb2d600000000000000000000000000000000000000000000000000000000000000000000000000000000000000000000000000000000000000000000000000000001000000000000000000000000000000000000000000000000000003cb947eb288",
          "blockHash": "0x3d113e57af2cf4e7199fb9aa8c1bc534490980c6219879f06c3746a9eb77af6a",
          "blockNumber": "0xe3cbce",
          "transactionHash": "0xbb3ccaa807e6654229c4764b1b8f43f38703bf0c37ca972d7518f75b1fc1d501",
          "transactionIndex": "0x3",
          "logIndex": "0x5",
          "removed": false
        },
        {
          "address": "0x6edce65403992e310a62460808c4b910d972f10f",
          "topics": [
            "0x1ab700d4ced0c005b164c0f789fd09fcbb0156d4c2041b8a3bfbcd961cd1567f"
          ],
          "data": "0x00000000000000000000000000000000000000000000000000000000000000600000000000000000000000000000000000000000000000000000000000000140000000000000000000000000c1868e054425d378095a003ecba3823a5d0135c900000000000000000000000000000000000000000000000000000000000000b101000000000000000100009d350000000000000000000000002edd21000a84b174112a41189271b6110469395200009d280000000000000000000000004bbb9b855fe1e7ffbb283969d210c3841aed8076ddf9b52dce33222f23e450e081469d67ad59d3f1d63eb91a7d526f759c7085f200000000000000000000000012b2434a1022d5787bf06056f2885fe35de62bf80000000000000000000000000000000000000000000000000000000000000000000000000000000000000000000000000000000000000000000000000000000000000000000000000000000000002c0003010011010000000000000000000000000000d6d80100130300000000000000000000000000000000d6d80000000000000000000000000000000000000000",
          "blockHash": "0x3d113e57af2cf4e7199fb9aa8c1bc534490980c6219879f06c3746a9eb77af6a",
          "blockNumber": "0xe3cbce",
          "transactionHash": "0xbb3ccaa807e6654229c4764b1b8f43f38703bf0c37ca972d7518f75b1fc1d501",
          "transactionIndex": "0x3",
          "logIndex": "0x6",
          "removed": false
        }
      ],
      "logsBloom": "0x20000000000000000000000000000000000000000000000000000000000000000000080000000200200000000000000000000000000000000000000000040000000000000000000000000000000000000000000000200000000000020000000000000000000000008200000000000000000000000000000000000000000000000000000000000020000000080000000000000000000000000000000000000000000000008000000000100000000000000000000000400000000440000000000080000000000000000000000000000000000000000000000000000000000000000000040000000000400004000000002000000000000000000000000000000000",
      "type": "0x2",
      "transactionHash": "0xbb3ccaa807e6654229c4764b1b8f43f38703bf0c37ca972d7518f75b1fc1d501",
      "transactionIndex": "0x3",
      "blockHash": "0x3d113e57af2cf4e7199fb9aa8c1bc534490980c6219879f06c3746a9eb77af6a",
      "blockNumber": "0xe3cbce",
      "gasUsed": "0xb5fb4",
      "effectiveGasPrice": "0x8cca64",
      "blobGasUsed": "0x0",
      "from": "0x12b2434a1022d5787bf06056f2885fe35de62bf8",
      "to": "0x2edd21000a84b174112a41189271b61104693952",
      "contractAddress": null,
      "l1BaseFeeScalar": "0x44d",
      "l1BlobBaseFee": "0x48540a4664",
      "l1BlobBaseFeeScalar": "0xa118b",
      "l1Fee": "0x199fc5638ca0",
      "l1GasPrice": "0x3a64e7ca8",
      "l1GasUsed": "0x894"
    }
  ],
  "libraries": [],
  "pending": [],
  "returns": {},
  "timestamp": 1725625986,
  "chain": 84532,
  "commit": "dc78ae4"
}