{
  "transactions": [
    {
      "hash": "0xc243f88e9509632479e5f9c24b20c660b563975134cdc61b7fe56307860cc200",
      "transactionType": "CALL",
      "contractName": null,
      "contractAddress": "0x11a17e5d54a591465f925772868f3695422f7fea",
      "function": "verifyProject(string,string,string,string)",
      "arguments": [
        "StringWorks",
        "testy",
        "testytest",
        "testtytest"
      ],
      "transaction": {
        "from": "0x12b2434a1022d5787bf06056f2885fe35de62bf8",
        "to": "0x11a17e5d54a591465f925772868f3695422f7fea",
        "gas": "0x105081",
        "value": "0x11c37937e08000",
        "input": "0xbef6c21e000000000000000000000000000000000000000000000000000000000000008000000000000000000000000000000000000000000000000000000000000000c000000000000000000000000000000000000000000000000000000000000001000000000000000000000000000000000000000000000000000000000000000140000000000000000000000000000000000000000000000000000000000000000b537472696e67576f726b730000000000000000000000000000000000000000000000000000000000000000000000000000000000000000000000000000000005746573747900000000000000000000000000000000000000000000000000000000000000000000000000000000000000000000000000000000000000000000097465737479746573740000000000000000000000000000000000000000000000000000000000000000000000000000000000000000000000000000000000000a7465737474797465737400000000000000000000000000000000000000000000",
        "nonce": "0x105",
        "chainId": "0x14a34"
      },
      "additionalContracts": [],
      "isFixedGasLimit": false
    }
  ],
  "receipts": [
    {
      "status": "0x1",
      "cumulativeGasUsed": "0x129729",
      "logs": [
        {
          "address": "0x4e4af2a21ebf62850fd99eb6253e1efbb56098cd",
          "topics": [
            "0x38b331f00373c8b0f9af5a4273ca1b91e894fec999bfa4ec787e8c90a5c8b05c"
          ],
          "data": "0x00000000000000000000000000000000000000000000000000000000000005b200000000000000000000000000000000000000000000000000000000000000400000000000000000000000000000000000000000000000000000000000000000",
          "blockHash": "0x0666f9e0aa7f16ee02cae16dc4229cba4f3074281de079c9789b98b0679d404f",
          "blockNumber": "0xe46652",
          "transactionHash": "0xc243f88e9509632479e5f9c24b20c660b563975134cdc61b7fe56307860cc200",
          "transactionIndex": "0x7",
          "logIndex": "0x7",
          "removed": false
        },
        {
          "address": "0xc1868e054425d378095a003ecba3823a5d0135c9",
          "topics": [
            "0x61ed099e74a97a1d7f8bb0952a88ca8b7b8ebd00c126ea04671f92a81213318a"
          ],
          "data": "0x0000000000000000000000008a3d588d9f6ac041476b094f97ff94ec30169d3d000000000000000000000000000000000000000000000000000052b527e51874",
          "blockHash": "0x0666f9e0aa7f16ee02cae16dc4229cba4f3074281de079c9789b98b0679d404f",
          "blockNumber": "0xe46652",
          "transactionHash": "0xc243f88e9509632479e5f9c24b20c660b563975134cdc61b7fe56307860cc200",
          "transactionIndex": "0x7",
          "logIndex": "0x8",
          "removed": false
        },
        {
          "address": "0xc1868e054425d378095a003ecba3823a5d0135c9",
          "topics": [
            "0x07ea52d82345d6e838192107d8fd7123d9c2ec8e916cd0aad13fd2b60db24644"
          ],
          "data": "0x000000000000000000000000000000000000000000000000000000000000006000000000000000000000000000000000000000000000000000000000000000a000000000000000000000000000000000000000000000000000000000000000c00000000000000000000000000000000000000000000000000000000000000001000000000000000000000000e1a12515f9ab2764b887bf60b923ca494ebbb2d60000000000000000000000000000000000000000000000000000000000000000000000000000000000000000000000000000000000000000000000000000000100000000000000000000000000000000000000000000000000000436eae6d28d",
          "blockHash": "0x0666f9e0aa7f16ee02cae16dc4229cba4f3074281de079c9789b98b0679d404f",
          "blockNumber": "0xe46652",
          "transactionHash": "0xc243f88e9509632479e5f9c24b20c660b563975134cdc61b7fe56307860cc200",
          "transactionIndex": "0x7",
          "logIndex": "0x9",
          "removed": false
        },
        {
          "address": "0x6edce65403992e310a62460808c4b910d972f10f",
          "topics": [
            "0x1ab700d4ced0c005b164c0f789fd09fcbb0156d4c2041b8a3bfbcd961cd1567f"
          ],
          "data": "0x00000000000000000000000000000000000000000000000000000000000000600000000000000000000000000000000000000000000000000000000000000140000000000000000000000000c1868e054425d378095a003ecba3823a5d0135c900000000000000000000000000000000000000000000000000000000000000b101000000000000000200009d3500000000000000000000000011a17e5d54a591465f925772868f3695422f7fea00009d28000000000000000000000000a31cb24339725ccb5a50358ad77f66bdc02a613b6bac6d913b6a262ff59223d7df215531634dc4aa0789214e8cf3747b3c87f81200000000000000000000000012b2434a1022d5787bf06056f2885fe35de62bf80000000000000000000000000000000000000000000000000000000000000001000000000000000000000000000000000000000000000000000000000000000000000000000000000000000000002c00030100110100000000000000000000000000011170010013030000000000000000000000000000000111700000000000000000000000000000000000000000",
          "blockHash": "0x0666f9e0aa7f16ee02cae16dc4229cba4f3074281de079c9789b98b0679d404f",
          "blockNumber": "0xe46652",
          "transactionHash": "0xc243f88e9509632479e5f9c24b20c660b563975134cdc61b7fe56307860cc200",
          "transactionIndex": "0x7",
          "logIndex": "0xa",
          "removed": false
        }
      ],
      "logsBloom": "0x20000000000000000000000000000000000000000000000000000000000000000000080000000200200000000000000000000000000000000000000000040000000000000000000000000000000000000000000000200000000000020000000000000000000000008200000000000000000000000000000000000000000000000000000000000020000000080000000000000000000000000000000000000000000000008000000000100000000000000000000000400000000440000000000080000000000000000000000000000000000000000000000000000000000000000000040000000000400004000000002000000000000000000000000000000000",
      "type": "0x2",
      "transactionHash": "0xc243f88e9509632479e5f9c24b20c660b563975134cdc61b7fe56307860cc200",
      "transactionIndex": "0x7",
      "blockHash": "0x0666f9e0aa7f16ee02cae16dc4229cba4f3074281de079c9789b98b0679d404f",
      "blockNumber": "0xe46652",
      "gasUsed": "0xb27bb",
      "effectiveGasPrice": "0xc285dc",
      "from": "0x12b2434a1022d5787bf06056f2885fe35de62bf8",
      "to": "0x11a17e5d54a591465f925772868f3695422f7fea",
      "contractAddress": null,
      "l1BaseFeeScalar": "0x44d",
      "l1BlobBaseFee": "0x156a6a80b8",
      "l1BlobBaseFeeScalar": "0xa118b",
      "l1Fee": "0x7a2dfae1472",
      "l1GasPrice": "0x163f8dc18",
      "l1GasUsed": "0x8a1"
    }
  ],
  "libraries": [],
  "pending": [],
  "returns": {},
  "timestamp": 1725705098,
  "chain": 84532,
  "commit": "c44a2e9"
}