{
  "transactions": [
    {
      "hash": "0x87512cbb6912505484cc4a819db53b75ddd56927d0c33cb7c0ab716b3daf8eb4",
      "transactionType": "CALL",
      "contractName": null,
      "contractAddress": "0x0ecb68e0fc16a881fe1ec43eacaae03786818d18",
      "function": "verifyProject(string,string,string,string)",
      "arguments": [
        "StringWorks",
        "testy",
        "testytest",
        "testtytest"
      ],
      "transaction": {
        "from": "0x12b2434a1022d5787bf06056f2885fe35de62bf8",
        "to": "0x0ecb68e0fc16a881fe1ec43eacaae03786818d18",
        "gas": "0xfb5a1",
        "value": "0x11c37937e08000",
        "input": "0xbef6c21e000000000000000000000000000000000000000000000000000000000000008000000000000000000000000000000000000000000000000000000000000000c000000000000000000000000000000000000000000000000000000000000001000000000000000000000000000000000000000000000000000000000000000140000000000000000000000000000000000000000000000000000000000000000b537472696e67576f726b730000000000000000000000000000000000000000000000000000000000000000000000000000000000000000000000000000000005746573747900000000000000000000000000000000000000000000000000000000000000000000000000000000000000000000000000000000000000000000097465737479746573740000000000000000000000000000000000000000000000000000000000000000000000000000000000000000000000000000000000000a7465737474797465737400000000000000000000000000000000000000000000",
        "nonce": "0x100",
        "chainId": "0x14a34"
      },
      "additionalContracts": [],
      "isFixedGasLimit": false
    }
  ],
  "receipts": [
    {
      "status": "0x1",
      "cumulativeGasUsed": "0x86311f",
      "logs": [
        {
          "address": "0x4e4af2a21ebf62850fd99eb6253e1efbb56098cd",
          "topics": [
            "0x38b331f00373c8b0f9af5a4273ca1b91e894fec999bfa4ec787e8c90a5c8b05c"
          ],
          "data": "0x000000000000000000000000000000000000000000000000000000000000058100000000000000000000000000000000000000000000000000000000000000400000000000000000000000000000000000000000000000000000000000000000",
          "blockHash": "0x31ef0637c668e57043df14d0006ea890d71614ede37f9450d01d72a3e6d67916",
          "blockNumber": "0xe461b0",
          "transactionHash": "0x87512cbb6912505484cc4a819db53b75ddd56927d0c33cb7c0ab716b3daf8eb4",
          "transactionIndex": "0x4",
          "logIndex": "0x35",
          "removed": false
        },
        {
          "address": "0xc1868e054425d378095a003ecba3823a5d0135c9",
          "topics": [
            "0x61ed099e74a97a1d7f8bb0952a88ca8b7b8ebd00c126ea04671f92a81213318a"
          ],
          "data": "0x0000000000000000000000008a3d588d9f6ac041476b094f97ff94ec30169d3d000000000000000000000000000000000000000000000000000052b527e51874",
          "blockHash": "0x31ef0637c668e57043df14d0006ea890d71614ede37f9450d01d72a3e6d67916",
          "blockNumber": "0xe461b0",
          "transactionHash": "0x87512cbb6912505484cc4a819db53b75ddd56927d0c33cb7c0ab716b3daf8eb4",
          "transactionIndex": "0x4",
          "logIndex": "0x36",
          "removed": false
        },
        {
          "address": "0xc1868e054425d378095a003ecba3823a5d0135c9",
          "topics": [
            "0x07ea52d82345d6e838192107d8fd7123d9c2ec8e916cd0aad13fd2b60db24644"
          ],
          "data": "0x000000000000000000000000000000000000000000000000000000000000006000000000000000000000000000000000000000000000000000000000000000a000000000000000000000000000000000000000000000000000000000000000c00000000000000000000000000000000000000000000000000000000000000001000000000000000000000000e1a12515f9ab2764b887bf60b923ca494ebbb2d60000000000000000000000000000000000000000000000000000000000000000000000000000000000000000000000000000000000000000000000000000000100000000000000000000000000000000000000000000000000000436eae6d28d",
          "blockHash": "0x31ef0637c668e57043df14d0006ea890d71614ede37f9450d01d72a3e6d67916",
          "blockNumber": "0xe461b0",
          "transactionHash": "0x87512cbb6912505484cc4a819db53b75ddd56927d0c33cb7c0ab716b3daf8eb4",
          "transactionIndex": "0x4",
          "logIndex": "0x37",
          "removed": false
        },
        {
          "address": "0x6edce65403992e310a62460808c4b910d972f10f",
          "topics": [
            "0x1ab700d4ced0c005b164c0f789fd09fcbb0156d4c2041b8a3bfbcd961cd1567f"
          ],
          "data": "0x00000000000000000000000000000000000000000000000000000000000000600000000000000000000000000000000000000000000000000000000000000140000000000000000000000000c1868e054425d378095a003ecba3823a5d0135c900000000000000000000000000000000000000000000000000000000000000b101000000000000000100009d350000000000000000000000000ecb68e0fc16a881fe1ec43eacaae03786818d1800009d28000000000000000000000000c63cf8a07427bd4c64698b0133662df463d14bf8bb1a1478aeaa4950d21603bca0e3169807cdb42fe212454e5c6700017093b40800000000000000000000000012b2434a1022d5787bf06056f2885fe35de62bf80000000000000000000000000000000000000000000000000000000000000000000000000000000000000000000000000000000000000000000000000000000000000000000000000000000000002c00030100110100000000000000000000000000011170010013030000000000000000000000000000000111700000000000000000000000000000000000000000",
          "blockHash": "0x31ef0637c668e57043df14d0006ea890d71614ede37f9450d01d72a3e6d67916",
          "blockNumber": "0xe461b0",
          "transactionHash": "0x87512cbb6912505484cc4a819db53b75ddd56927d0c33cb7c0ab716b3daf8eb4",
          "transactionIndex": "0x4",
          "logIndex": "0x38",
          "removed": false
        }
      ],
      "logsBloom": "0x20000000000000000000000000000000000000000000000000000000000000000000080000000200200000000000000000000000000000000000000000040000000000000000000000000000000000000000000000200000000000020000000000000000000000008200000000000000000000000000000000000000000000000000000000000020000000080000000000000000000000000000000000000000000000008000000000100000000000000000000000400000000440000000000080000000000000000000000000000000000000000000000000000000000000000000040000000000400004000000002000000000000000000000000000000000",
      "type": "0x2",
      "transactionHash": "0x87512cbb6912505484cc4a819db53b75ddd56927d0c33cb7c0ab716b3daf8eb4",
      "transactionIndex": "0x4",
      "blockHash": "0x31ef0637c668e57043df14d0006ea890d71614ede37f9450d01d72a3e6d67916",
      "blockNumber": "0xe461b0",
      "gasUsed": "0xb5f97",
      "effectiveGasPrice": "0x8091a9",
      "from": "0x12b2434a1022d5787bf06056f2885fe35de62bf8",
      "to": "0x0ecb68e0fc16a881fe1ec43eacaae03786818d18",
      "contractAddress": null,
      "l1BaseFeeScalar": "0x44d",
      "l1BlobBaseFee": "0x36f2b31b51",
      "l1BlobBaseFeeScalar": "0xa118b",
      "l1Fee": "0x1357f6524d2b",
      "l1GasPrice": "0x24b7b79b3",
      "l1GasUsed": "0x886"
    }
  ],
  "libraries": [],
  "pending": [],
  "returns": {},
  "timestamp": 1725702726,
  "chain": 84532,
  "commit": "c44a2e9"
}