{
  "transactions": [
    {
      "hash": "0x2b25a5004afc1f0c7c2c0ca869a62a4892fcd1e455f7cdc53a3ac69b31d47595",
      "transactionType": "CALL",
      "contractName": null,
      "contractAddress": "0x577b9dde50b5bddf19c73e1d6553cd0460d9baec",
      "function": "verifyProject(string,string,string,string)",
      "arguments": [
        "test",
        "testy",
        "testytest",
        "testtytest"
      ],
      "transaction": {
        "from": "0xb0efd2b19a5698a9c830548ac22708a28c9d4552",
        "to": "0x577b9dde50b5bddf19c73e1d6553cd0460d9baec",
        "gas": "0x1084d5",
        "value": "0x16345785d8a0000",
        "input": "0xbef6c21e000000000000000000000000000000000000000000000000000000000000008000000000000000000000000000000000000000000000000000000000000000c000000000000000000000000000000000000000000000000000000000000001000000000000000000000000000000000000000000000000000000000000000140000000000000000000000000000000000000000000000000000000000000000474657374000000000000000000000000000000000000000000000000000000000000000000000000000000000000000000000000000000000000000000000005746573747900000000000000000000000000000000000000000000000000000000000000000000000000000000000000000000000000000000000000000000097465737479746573740000000000000000000000000000000000000000000000000000000000000000000000000000000000000000000000000000000000000a7465737474797465737400000000000000000000000000000000000000000000",
        "nonce": "0x83",
        "chainId": "0x14a34"
      },
      "additionalContracts": [],
      "isFixedGasLimit": false
    }
  ],
  "receipts": [
    {
      "status": "0x1",
      "cumulativeGasUsed": "0x211e85",
      "logs": [
        {
          "address": "0x4e4af2a21ebf62850fd99eb6253e1efbb56098cd",
          "topics": [
            "0x38b331f00373c8b0f9af5a4273ca1b91e894fec999bfa4ec787e8c90a5c8b05c"
          ],
          "data": "0x000000000000000000000000000000000000000000000000000000000000046e00000000000000000000000000000000000000000000000000000000000000400000000000000000000000000000000000000000000000000000000000000000",
          "blockHash": "0x6f8356653f698452e6558bc3323a6e587bb4798ba00b0d84db254a82f994055f",
          "blockNumber": "0xe302f3",
          "transactionHash": "0x2b25a5004afc1f0c7c2c0ca869a62a4892fcd1e455f7cdc53a3ac69b31d47595",
          "transactionIndex": "0x6",
          "logIndex": "0xe",
          "removed": false
        },
        {
          "address": "0xc1868e054425d378095a003ecba3823a5d0135c9",
          "topics": [
            "0x61ed099e74a97a1d7f8bb0952a88ca8b7b8ebd00c126ea04671f92a81213318a"
          ],
          "data": "0x0000000000000000000000008a3d588d9f6ac041476b094f97ff94ec30169d3d00000000000000000000000000000000000000000000000000004a46dfff9532",
          "blockHash": "0x6f8356653f698452e6558bc3323a6e587bb4798ba00b0d84db254a82f994055f",
          "blockNumber": "0xe302f3",
          "transactionHash": "0x2b25a5004afc1f0c7c2c0ca869a62a4892fcd1e455f7cdc53a3ac69b31d47595",
          "transactionIndex": "0x6",
          "logIndex": "0xf",
          "removed": false
        },
        {
          "address": "0xc1868e054425d378095a003ecba3823a5d0135c9",
          "topics": [
            "0x07ea52d82345d6e838192107d8fd7123d9c2ec8e916cd0aad13fd2b60db24644"
          ],
          "data": "0x000000000000000000000000000000000000000000000000000000000000006000000000000000000000000000000000000000000000000000000000000000a000000000000000000000000000000000000000000000000000000000000000c00000000000000000000000000000000000000000000000000000000000000001000000000000000000000000e1a12515f9ab2764b887bf60b923ca494ebbb2d600000000000000000000000000000000000000000000000000000000000000000000000000000000000000000000000000000000000000000000000000000001000000000000000000000000000000000000000000000000000003cb947eb288",
          "blockHash": "0x6f8356653f698452e6558bc3323a6e587bb4798ba00b0d84db254a82f994055f",
          "blockNumber": "0xe302f3",
          "transactionHash": "0x2b25a5004afc1f0c7c2c0ca869a62a4892fcd1e455f7cdc53a3ac69b31d47595",
          "transactionIndex": "0x6",
          "logIndex": "0x10",
          "removed": false
        },
        {
          "address": "0x6edce65403992e310a62460808c4b910d972f10f",
          "topics": [
            "0x1ab700d4ced0c005b164c0f789fd09fcbb0156d4c2041b8a3bfbcd961cd1567f"
          ],
          "data": "0x00000000000000000000000000000000000000000000000000000000000000600000000000000000000000000000000000000000000000000000000000000160000000000000000000000000c1868e054425d378095a003ecba3823a5d0135c900000000000000000000000000000000000000000000000000000000000000d101000000000000000100009d35000000000000000000000000577b9dde50b5bddf19c73e1d6553cd0460d9baec00009d28000000000000000000000000673db44c3b7a8297499b4660f152d47a91a85630b58fd6d81de31b76758d5f5df54cfdd8c52c4412fa8bc47377ca293e0bb21196000000000000000000000000000000000000000000000000000000000000002000000000000000000000000000000000000000000000000000000000000000047465737400000000000000000000000000000000000000000000000000000000000000000000000000000000000000000000000000000000000000000000000000000000000000000000000000001600030100110100000000000000000000000000015f9000000000000000000000",
          "blockHash": "0x6f8356653f698452e6558bc3323a6e587bb4798ba00b0d84db254a82f994055f",
          "blockNumber": "0xe302f3",
          "transactionHash": "0x2b25a5004afc1f0c7c2c0ca869a62a4892fcd1e455f7cdc53a3ac69b31d47595",
          "transactionIndex": "0x6",
          "logIndex": "0x11",
          "removed": false
        }
      ],
      "logsBloom": "0x20000000000000000000000000000000000000000000000000000000000000000000080000000200200000000000000000000000000000000000000000040000000000000000000000000000000000000000000000200000000000020000000000000000000000008200000000000000000000000000000000000000000000000000000000000020000000080000000000000000000000000000000000000000000000008000000000100000000000000000000000400000000440000000000080000000000000000000000000000000000000000000000000000000000000000000040000000000400004000000002000000000000000000000000000000000",
      "type": "0x2",
      "transactionHash": "0x2b25a5004afc1f0c7c2c0ca869a62a4892fcd1e455f7cdc53a3ac69b31d47595",
      "transactionIndex": "0x6",
      "blockHash": "0x6f8356653f698452e6558bc3323a6e587bb4798ba00b0d84db254a82f994055f",
      "blockNumber": "0xe302f3",
      "gasUsed": "0xb4b83",
      "effectiveGasPrice": "0xf435e",
      "from": "0xb0efd2b19a5698a9c830548ac22708a28c9d4552",
      "to": "0x577b9dde50b5bddf19c73e1d6553cd0460d9baec",
      "contractAddress": null,
      "l1BaseFeeScalar": "0x44d",
      "l1BlobBaseFee": "0x98806356d5",
      "l1BlobBaseFeeScalar": "0xa118b",
      "l1Fee": "0x336afb35238b",
      "l1GasPrice": "0xa6a64c324",
      "l1GasUsed": "0x829"
    }
  ],
  "libraries": [],
  "pending": [],
  "returns": {},
  "timestamp": 1725523147,
  "chain": 84532,
  "commit": "8370d5b"
}