{
  "transactions": [
    {
      "hash": "0x99d79fa19043d8d6202e377746dea5bec335930915f876c5658eae2321c58b45",
      "transactionType": "CALL",
      "contractName": null,
      "contractAddress": "0x5500999e37499c94e216bc1d829164734a1bba5a",
      "function": "verifyProject(string,string,string,string)",
      "arguments": [
        "StringWorks",
        "testy",
        "testytest",
        "testtytest"
      ],
      "transaction": {
        "from": "0x12b2434a1022d5787bf06056f2885fe35de62bf8",
        "to": "0x5500999e37499c94e216bc1d829164734a1bba5a",
        "gas": "0xfb5a2",
        "value": "0xe35fa931a0000",
        "input": "0xbef6c21e000000000000000000000000000000000000000000000000000000000000008000000000000000000000000000000000000000000000000000000000000000c000000000000000000000000000000000000000000000000000000000000001000000000000000000000000000000000000000000000000000000000000000140000000000000000000000000000000000000000000000000000000000000000b537472696e67576f726b730000000000000000000000000000000000000000000000000000000000000000000000000000000000000000000000000000000005746573747900000000000000000000000000000000000000000000000000000000000000000000000000000000000000000000000000000000000000000000097465737479746573740000000000000000000000000000000000000000000000000000000000000000000000000000000000000000000000000000000000000a7465737474797465737400000000000000000000000000000000000000000000",
        "nonce": "0xdb",
        "chainId": "0x14a34"
      },
      "additionalContracts": [],
      "isFixedGasLimit": false
    }
  ],
  "receipts": [
    {
      "status": "0x1",
      "cumulativeGasUsed": "0x1db10c",
      "logs": [
        {
          "address": "0x4e4af2a21ebf62850fd99eb6253e1efbb56098cd",
          "topics": [
            "0x38b331f00373c8b0f9af5a4273ca1b91e894fec999bfa4ec787e8c90a5c8b05c"
          ],
          "data": "0x00000000000000000000000000000000000000000000000000000000000004ef00000000000000000000000000000000000000000000000000000000000000400000000000000000000000000000000000000000000000000000000000000000",
          "blockHash": "0x006659e770a0bc2e0a54ff3abe0e2f5bd6cbce8a1d56ceec79531a1df264da1f",
          "blockNumber": "0xe3e03d",
          "transactionHash": "0x99d79fa19043d8d6202e377746dea5bec335930915f876c5658eae2321c58b45",
          "transactionIndex": "0x6",
          "logIndex": "0x1b",
          "removed": false
        },
        {
          "address": "0xc1868e054425d378095a003ecba3823a5d0135c9",
          "topics": [
            "0x61ed099e74a97a1d7f8bb0952a88ca8b7b8ebd00c126ea04671f92a81213318a"
          ],
          "data": "0x0000000000000000000000008a3d588d9f6ac041476b094f97ff94ec30169d3d00000000000000000000000000000000000000000000000000004a4b6a613bf2",
          "blockHash": "0x006659e770a0bc2e0a54ff3abe0e2f5bd6cbce8a1d56ceec79531a1df264da1f",
          "blockNumber": "0xe3e03d",
          "transactionHash": "0x99d79fa19043d8d6202e377746dea5bec335930915f876c5658eae2321c58b45",
          "transactionIndex": "0x6",
          "logIndex": "0x1c",
          "removed": false
        },
        {
          "address": "0xc1868e054425d378095a003ecba3823a5d0135c9",
          "topics": [
            "0x07ea52d82345d6e838192107d8fd7123d9c2ec8e916cd0aad13fd2b60db24644"
          ],
          "data": "0x000000000000000000000000000000000000000000000000000000000000006000000000000000000000000000000000000000000000000000000000000000a000000000000000000000000000000000000000000000000000000000000000c00000000000000000000000000000000000000000000000000000000000000001000000000000000000000000e1a12515f9ab2764b887bf60b923ca494ebbb2d600000000000000000000000000000000000000000000000000000000000000000000000000000000000000000000000000000000000000000000000000000001000000000000000000000000000000000000000000000000000003cb947eb288",
          "blockHash": "0x006659e770a0bc2e0a54ff3abe0e2f5bd6cbce8a1d56ceec79531a1df264da1f",
          "blockNumber": "0xe3e03d",
          "transactionHash": "0x99d79fa19043d8d6202e377746dea5bec335930915f876c5658eae2321c58b45",
          "transactionIndex": "0x6",
          "logIndex": "0x1d",
          "removed": false
        },
        {
          "address": "0x6edce65403992e310a62460808c4b910d972f10f",
          "topics": [
            "0x1ab700d4ced0c005b164c0f789fd09fcbb0156d4c2041b8a3bfbcd961cd1567f"
          ],
          "data": "0x00000000000000000000000000000000000000000000000000000000000000600000000000000000000000000000000000000000000000000000000000000140000000000000000000000000c1868e054425d378095a003ecba3823a5d0135c900000000000000000000000000000000000000000000000000000000000000b101000000000000000100009d350000000000000000000000005500999e37499c94e216bc1d829164734a1bba5a00009d280000000000000000000000009edda1aa2dcf2f2177636994a5945f972dc6b99a64c3c5e1e8989cda31e70898e733a8dfe6764eca8129f11c44895154742a602400000000000000000000000012b2434a1022d5787bf06056f2885fe35de62bf80000000000000000000000000000000000000000000000000000000000000000000000000000000000000000000000000000000000000000000000000000000000000000000000000000000000002c0003010011010000000000000000000000000000d6d80100130300000000000000000000000000000000d6d80000000000000000000000000000000000000000",
          "blockHash": "0x006659e770a0bc2e0a54ff3abe0e2f5bd6cbce8a1d56ceec79531a1df264da1f",
          "blockNumber": "0xe3e03d",
          "transactionHash": "0x99d79fa19043d8d6202e377746dea5bec335930915f876c5658eae2321c58b45",
          "transactionIndex": "0x6",
          "logIndex": "0x1e",
          "removed": false
        }
      ],
      "logsBloom": "0x20000000000000000000000000000000000000000000000000000000000000000000080000000200200000000000000000000000000000000000000000040000000000000000000000000000000000000000000000200000000000020000000000000000000000008200000000000000000000000000000000000000000000000000000000000020000000080000000000000000000000000000000000000000000000008000000000100000000000000000000000400000000440000000000080000000000000000000000000000000000000000000000000000000000000000000040000000000400004000000002000000000000000000000000000000000",
      "type": "0x2",
      "transactionHash": "0x99d79fa19043d8d6202e377746dea5bec335930915f876c5658eae2321c58b45",
      "transactionIndex": "0x6",
      "blockHash": "0x006659e770a0bc2e0a54ff3abe0e2f5bd6cbce8a1d56ceec79531a1df264da1f",
      "blockNumber": "0xe3e03d",
      "gasUsed": "0xb5f98",
      "effectiveGasPrice": "0x8eaa90",
      "from": "0x12b2434a1022d5787bf06056f2885fe35de62bf8",
      "to": "0x5500999e37499c94e216bc1d829164734a1bba5a",
      "contractAddress": null,
      "l1BaseFeeScalar": "0x44d",
      "l1BlobBaseFee": "0xd0c6b252ef",
      "l1BlobBaseFeeScalar": "0xa118b",
      "l1Fee": "0x4897e1646b04",
      "l1GasPrice": "0x8861b4ea7",
      "l1GasUsed": "0x86c"
    }
  ],
  "libraries": [],
  "pending": [],
  "returns": {},
  "timestamp": 1725636448,
  "chain": 84532,
  "commit": "dc78ae4"
}