{
  "transactions": [
    {
      "hash": "0x162908db8ae832f87bb78ac3a7259c0f19b0417bddbadcf1dfc923e1a6dbe161",
      "transactionType": "CALL",
      "contractName": null,
      "contractAddress": "0x25ca228de14d25efaacb6c1634d036a768871ba2",
      "function": "verifyProject(string,string,string,string)",
      "arguments": [
        "test",
        "testy",
        "testytest",
        "testtytest"
      ],
      "transaction": {
        "from": "0x12b2434a1022d5787bf06056f2885fe35de62bf8",
        "to": "0x25ca228de14d25efaacb6c1634d036a768871ba2",
        "gas": "0x107b19",
        "value": "0x6a94d74f430000",
        "input": "0xbef6c21e000000000000000000000000000000000000000000000000000000000000008000000000000000000000000000000000000000000000000000000000000000c000000000000000000000000000000000000000000000000000000000000001000000000000000000000000000000000000000000000000000000000000000140000000000000000000000000000000000000000000000000000000000000000474657374000000000000000000000000000000000000000000000000000000000000000000000000000000000000000000000000000000000000000000000005746573747900000000000000000000000000000000000000000000000000000000000000000000000000000000000000000000000000000000000000000000097465737479746573740000000000000000000000000000000000000000000000000000000000000000000000000000000000000000000000000000000000000a7465737474797465737400000000000000000000000000000000000000000000",
        "nonce": "0x5f",
        "chainId": "0x14a34"
      },
      "additionalContracts": [],
      "isFixedGasLimit": false
    }
  ],
  "receipts": [
    {
      "status": "0x1",
      "cumulativeGasUsed": "0x1f093d",
      "logs": [
        {
          "address": "0x4e4af2a21ebf62850fd99eb6253e1efbb56098cd",
          "topics": [
            "0x38b331f00373c8b0f9af5a4273ca1b91e894fec999bfa4ec787e8c90a5c8b05c"
          ],
          "data": "0x000000000000000000000000000000000000000000000000000000000000045500000000000000000000000000000000000000000000000000000000000000400000000000000000000000000000000000000000000000000000000000000000",
          "blockHash": "0x0b744305b888b381e781c7fcb703356a685bdaf2dc5356fc37578faad23dc52b",
          "blockNumber": "0xe2972b",
          "transactionHash": "0x162908db8ae832f87bb78ac3a7259c0f19b0417bddbadcf1dfc923e1a6dbe161",
          "transactionIndex": "0x8",
          "logIndex": "0xf",
          "removed": false
        },
        {
          "address": "0xc1868e054425d378095a003ecba3823a5d0135c9",
          "topics": [
            "0x61ed099e74a97a1d7f8bb0952a88ca8b7b8ebd00c126ea04671f92a81213318a"
          ],
          "data": "0x0000000000000000000000008a3d588d9f6ac041476b094f97ff94ec30169d3d000000000000000000000000000000000000000000000000000053b662dbb522",
          "blockHash": "0x0b744305b888b381e781c7fcb703356a685bdaf2dc5356fc37578faad23dc52b",
          "blockNumber": "0xe2972b",
          "transactionHash": "0x162908db8ae832f87bb78ac3a7259c0f19b0417bddbadcf1dfc923e1a6dbe161",
          "transactionIndex": "0x8",
          "logIndex": "0x10",
          "removed": false
        },
        {
          "address": "0xc1868e054425d378095a003ecba3823a5d0135c9",
          "topics": [
            "0x07ea52d82345d6e838192107d8fd7123d9c2ec8e916cd0aad13fd2b60db24644"
          ],
          "data": "0x000000000000000000000000000000000000000000000000000000000000006000000000000000000000000000000000000000000000000000000000000000a000000000000000000000000000000000000000000000000000000000000000c00000000000000000000000000000000000000000000000000000000000000001000000000000000000000000e1a12515f9ab2764b887bf60b923ca494ebbb2d60000000000000000000000000000000000000000000000000000000000000000000000000000000000000000000000000000000000000000000000000000000100000000000000000000000000000000000000000000000000000ca4635070a8",
          "blockHash": "0x0b744305b888b381e781c7fcb703356a685bdaf2dc5356fc37578faad23dc52b",
          "blockNumber": "0xe2972b",
          "transactionHash": "0x162908db8ae832f87bb78ac3a7259c0f19b0417bddbadcf1dfc923e1a6dbe161",
          "transactionIndex": "0x8",
          "logIndex": "0x11",
          "removed": false
        },
        {
          "address": "0x6edce65403992e310a62460808c4b910d972f10f",
          "topics": [
            "0x1ab700d4ced0c005b164c0f789fd09fcbb0156d4c2041b8a3bfbcd961cd1567f"
          ],
          "data": "0x00000000000000000000000000000000000000000000000000000000000000600000000000000000000000000000000000000000000000000000000000000120000000000000000000000000c1868e054425d378095a003ecba3823a5d0135c9000000000000000000000000000000000000000000000000000000000000009101000000000000000100009d3500000000000000000000000025ca228de14d25efaacb6c1634d036a768871ba200009d27000000000000000000000000d520d0de26c369cb34d27e5534cd39afebaa1509b167a51d310b92ee421b2232ffff961756fa5ee412401fad647e1ed48e7ad8f000000000000000000000000012b2434a1022d5787bf06056f2885fe35de62bf8000000000000000000000000000000000000000000000000000000000000000000000000000000000000000000001600030100110100000000000000000000000000004e2000000000000000000000",
          "blockHash": "0x0b744305b888b381e781c7fcb703356a685bdaf2dc5356fc37578faad23dc52b",
          "blockNumber": "0xe2972b",
          "transactionHash": "0x162908db8ae832f87bb78ac3a7259c0f19b0417bddbadcf1dfc923e1a6dbe161",
          "transactionIndex": "0x8",
          "logIndex": "0x12",
          "removed": false
        }
      ],
      "logsBloom": "0x20000000000000000000000000000000000000000000000000000000000000000000080000000200200000000000000000000000000000000000000000040000000000000000000000000000000000000000000000200000000000020000000000000000000000008200000000000000000000000000000000000000000000000000000000000020000000080000000000000000000000000000000000000000000000008000000000100000000000000000000000400000000440000000000080000000000000000000000000000000000000000000000000000000000000000000040000000000400004000000002000000000000000000000000000000000",
      "type": "0x2",
      "transactionHash": "0x162908db8ae832f87bb78ac3a7259c0f19b0417bddbadcf1dfc923e1a6dbe161",
      "transactionIndex": "0x8",
      "blockHash": "0x0b744305b888b381e781c7fcb703356a685bdaf2dc5356fc37578faad23dc52b",
      "blockNumber": "0xe2972b",
      "gasUsed": "0xb44db",
      "effectiveGasPrice": "0xc3956",
      "blobGasUsed": "0x0",
      "from": "0x12b2434a1022d5787bf06056f2885fe35de62bf8",
      "to": "0x25ca228de14d25efaacb6c1634d036a768871ba2",
      "contractAddress": null,
      "l1BaseFeeScalar": "0x44d",
      "l1BlobBaseFee": "0xc8bcfbb476",
      "l1BlobBaseFeeScalar": "0xa118b",
      "l1Fee": "0x42c72b01ef44",
      "l1GasPrice": "0x99d4d33b1",
      "l1GasUsed": "0x80e"
    }
  ],
  "libraries": [],
  "pending": [],
  "returns": {},
  "timestamp": 1725467966,
  "chain": 84532,
  "commit": "da4a4b9"
}