{
  "transactions": [
    {
      "hash": "0x70ddcac18ab44ccee74689c2e11cc17c5bb9fe8d58a6b42fd4433f94e1c75dc3",
      "transactionType": "CALL",
      "contractName": null,
      "contractAddress": "0x948ee90e44f83ee3f84b7f91230e17bfa0d0cd41",
      "function": "verifyProject(string,string,string,string)",
      "arguments": [
        "test",
        "testy",
        "testytest",
        "testtytest"
      ],
      "transaction": {
        "from": "0x12b2434a1022d5787bf06056f2885fe35de62bf8",
        "to": "0x948ee90e44f83ee3f84b7f91230e17bfa0d0cd41",
        "gas": "0x107b19",
        "value": "0x6a94d74f430000",
        "input": "0xbef6c21e000000000000000000000000000000000000000000000000000000000000008000000000000000000000000000000000000000000000000000000000000000c000000000000000000000000000000000000000000000000000000000000001000000000000000000000000000000000000000000000000000000000000000140000000000000000000000000000000000000000000000000000000000000000474657374000000000000000000000000000000000000000000000000000000000000000000000000000000000000000000000000000000000000000000000005746573747900000000000000000000000000000000000000000000000000000000000000000000000000000000000000000000000000000000000000000000097465737479746573740000000000000000000000000000000000000000000000000000000000000000000000000000000000000000000000000000000000000a7465737474797465737400000000000000000000000000000000000000000000",
        "nonce": "0x64",
        "chainId": "0x14a34"
      },
      "additionalContracts": [],
      "isFixedGasLimit": false
    }
  ],
  "receipts": [
    {
      "status": "0x1",
      "cumulativeGasUsed": "0x1250d3",
      "logs": [
        {
          "address": "0x4e4af2a21ebf62850fd99eb6253e1efbb56098cd",
          "topics": [
            "0x38b331f00373c8b0f9af5a4273ca1b91e894fec999bfa4ec787e8c90a5c8b05c"
          ],
          "data": "0x000000000000000000000000000000000000000000000000000000000000045600000000000000000000000000000000000000000000000000000000000000400000000000000000000000000000000000000000000000000000000000000000",
          "blockHash": "0xe348b853ac00308c9e5d137690cd76207d23d1163c0d048b81872539594e1d12",
          "blockNumber": "0xe2a0bc",
          "transactionHash": "0x70ddcac18ab44ccee74689c2e11cc17c5bb9fe8d58a6b42fd4433f94e1c75dc3",
          "transactionIndex": "0x6",
          "logIndex": "0x6",
          "removed": false
        },
        {
          "address": "0xc1868e054425d378095a003ecba3823a5d0135c9",
          "topics": [
            "0x61ed099e74a97a1d7f8bb0952a88ca8b7b8ebd00c126ea04671f92a81213318a"
          ],
          "data": "0x0000000000000000000000008a3d588d9f6ac041476b094f97ff94ec30169d3d000000000000000000000000000000000000000000000000000053b662dbb522",
          "blockHash": "0xe348b853ac00308c9e5d137690cd76207d23d1163c0d048b81872539594e1d12",
          "blockNumber": "0xe2a0bc",
          "transactionHash": "0x70ddcac18ab44ccee74689c2e11cc17c5bb9fe8d58a6b42fd4433f94e1c75dc3",
          "transactionIndex": "0x6",
          "logIndex": "0x7",
          "removed": false
        },
        {
          "address": "0xc1868e054425d378095a003ecba3823a5d0135c9",
          "topics": [
            "0x07ea52d82345d6e838192107d8fd7123d9c2ec8e916cd0aad13fd2b60db24644"
          ],
          "data": "0x000000000000000000000000000000000000000000000000000000000000006000000000000000000000000000000000000000000000000000000000000000a000000000000000000000000000000000000000000000000000000000000000c00000000000000000000000000000000000000000000000000000000000000001000000000000000000000000e1a12515f9ab2764b887bf60b923ca494ebbb2d60000000000000000000000000000000000000000000000000000000000000000000000000000000000000000000000000000000000000000000000000000000100000000000000000000000000000000000000000000000000000ca4635070a8",
          "blockHash": "0xe348b853ac00308c9e5d137690cd76207d23d1163c0d048b81872539594e1d12",
          "blockNumber": "0xe2a0bc",
          "transactionHash": "0x70ddcac18ab44ccee74689c2e11cc17c5bb9fe8d58a6b42fd4433f94e1c75dc3",
          "transactionIndex": "0x6",
          "logIndex": "0x8",
          "removed": false
        },
        {
          "address": "0x6edce65403992e310a62460808c4b910d972f10f",
          "topics": [
            "0x1ab700d4ced0c005b164c0f789fd09fcbb0156d4c2041b8a3bfbcd961cd1567f"
          ],
          "data": "0x00000000000000000000000000000000000000000000000000000000000000600000000000000000000000000000000000000000000000000000000000000120000000000000000000000000c1868e054425d378095a003ecba3823a5d0135c9000000000000000000000000000000000000000000000000000000000000009101000000000000000100009d35000000000000000000000000948ee90e44f83ee3f84b7f91230e17bfa0d0cd4100009d27000000000000000000000000ab1f48f42b7f3b34b590e7ae39d96aa3ee7904063d7b60037d491a6ec4e1bb357939e0e9f8929aed4efb9a384423296d1dbd7b1100000000000000000000000012b2434a1022d5787bf06056f2885fe35de62bf8000000000000000000000000000000000000000000000000000000000000000000000000000000000000000000001600030100110100000000000000000000000000004e2000000000000000000000",
          "blockHash": "0xe348b853ac00308c9e5d137690cd76207d23d1163c0d048b81872539594e1d12",
          "blockNumber": "0xe2a0bc",
          "transactionHash": "0x70ddcac18ab44ccee74689c2e11cc17c5bb9fe8d58a6b42fd4433f94e1c75dc3",
          "transactionIndex": "0x6",
          "logIndex": "0x9",
          "removed": false
        }
      ],
      "logsBloom": "0x20000000000000000000000000000000000000000000000000000000000000000000080000000200200000000000000000000000000000000000000000040000000000000000000000000000000000000000000000200000000000020000000000000000000000008200000000000000000000000000000000000000000000000000000000000020000000080000000000000000000000000000000000000000000000008000000000100000000000000000000000400000000440000000000080000000000000000000000000000000000000000000000000000000000000000000040000000000400004000000002000000000000000000000000000000000",
      "type": "0x2",
      "transactionHash": "0x70ddcac18ab44ccee74689c2e11cc17c5bb9fe8d58a6b42fd4433f94e1c75dc3",
      "transactionIndex": "0x6",
      "blockHash": "0xe348b853ac00308c9e5d137690cd76207d23d1163c0d048b81872539594e1d12",
      "blockNumber": "0xe2a0bc",
      "gasUsed": "0xb44db",
      "effectiveGasPrice": "0xf436d",
      "blobGasUsed": "0x0",
      "from": "0x12b2434a1022d5787bf06056f2885fe35de62bf8",
      "to": "0x948ee90e44f83ee3f84b7f91230e17bfa0d0cd41",
      "contractAddress": null,
      "l1BaseFeeScalar": "0x44d",
      "l1BlobBaseFee": "0x12942e9ac9b",
      "l1BlobBaseFeeScalar": "0xa118b",
      "l1Fee": "0x62d034631d2e",
      "l1GasPrice": "0x5dc52e776",
      "l1GasUsed": "0x80e"
    }
  ],
  "libraries": [],
  "pending": [],
  "returns": {},
  "timestamp": 1725472863,
  "chain": 84532,
  "commit": "da4a4b9"
}