{
  "transactions": [
    {
      "hash": "0x2470470ca598ed9350acd16bceefbb425580b30f9dd2630b35e4293d34ca26df",
      "transactionType": "CALL",
      "contractName": null,
      "contractAddress": "0xbd3f14bb6ebe6833c8ee5fc69730d803923d2f1c",
      "function": "verifyProject(string,string,string,string)",
      "arguments": [
        "StringWorks",
        "testy",
        "testytest",
        "testtytest"
      ],
      "transaction": {
        "from": "0x12b2434a1022d5787bf06056f2885fe35de62bf8",
        "to": "0xbd3f14bb6ebe6833c8ee5fc69730d803923d2f1c",
        "gas": "0x10a21e",
        "value": "0x11c37937e08000",
        "input": "0xbef6c21e000000000000000000000000000000000000000000000000000000000000008000000000000000000000000000000000000000000000000000000000000000c000000000000000000000000000000000000000000000000000000000000001000000000000000000000000000000000000000000000000000000000000000140000000000000000000000000000000000000000000000000000000000000000b537472696e67576f726b730000000000000000000000000000000000000000000000000000000000000000000000000000000000000000000000000000000005746573747900000000000000000000000000000000000000000000000000000000000000000000000000000000000000000000000000000000000000000000097465737479746573740000000000000000000000000000000000000000000000000000000000000000000000000000000000000000000000000000000000000a7465737474797465737400000000000000000000000000000000000000000000",
        "nonce": "0x10a",
        "chainId": "0x14a34"
      },
      "additionalContracts": [],
      "isFixedGasLimit": false
    }
  ],
  "receipts": [
    {
      "status": "0x1",
      "cumulativeGasUsed": "0x1259b6b",
      "logs": [
        {
          "address": "0x4e4af2a21ebf62850fd99eb6253e1efbb56098cd",
          "topics": [
            "0x38b331f00373c8b0f9af5a4273ca1b91e894fec999bfa4ec787e8c90a5c8b05c"
          ],
          "data": "0x00000000000000000000000000000000000000000000000000000000000005db00000000000000000000000000000000000000000000000000000000000000400000000000000000000000000000000000000000000000000000000000000000",
          "blockHash": "0x95001dc922fdea10411a08f76fb6dfe6f3b540a04b18b3ee4fda911b0df629d6",
          "blockNumber": "0xe49cc8",
          "transactionHash": "0x2470470ca598ed9350acd16bceefbb425580b30f9dd2630b35e4293d34ca26df",
          "transactionIndex": "0x19",
          "logIndex": "0xa4",
          "removed": false
        },
        {
          "address": "0xc1868e054425d378095a003ecba3823a5d0135c9",
          "topics": [
            "0x61ed099e74a97a1d7f8bb0952a88ca8b7b8ebd00c126ea04671f92a81213318a"
          ],
          "data": "0x0000000000000000000000008a3d588d9f6ac041476b094f97ff94ec30169d3d000000000000000000000000000000000000000000000000000052b527e51874",
          "blockHash": "0x95001dc922fdea10411a08f76fb6dfe6f3b540a04b18b3ee4fda911b0df629d6",
          "blockNumber": "0xe49cc8",
          "transactionHash": "0x2470470ca598ed9350acd16bceefbb425580b30f9dd2630b35e4293d34ca26df",
          "transactionIndex": "0x19",
          "logIndex": "0xa5",
          "removed": false
        },
        {
          "address": "0xc1868e054425d378095a003ecba3823a5d0135c9",
          "topics": [
            "0x07ea52d82345d6e838192107d8fd7123d9c2ec8e916cd0aad13fd2b60db24644"
          ],
          "data": "0x000000000000000000000000000000000000000000000000000000000000006000000000000000000000000000000000000000000000000000000000000000a000000000000000000000000000000000000000000000000000000000000000c00000000000000000000000000000000000000000000000000000000000000001000000000000000000000000e1a12515f9ab2764b887bf60b923ca494ebbb2d60000000000000000000000000000000000000000000000000000000000000000000000000000000000000000000000000000000000000000000000000000000100000000000000000000000000000000000000000000000000000436eae6d28d",
          "blockHash": "0x95001dc922fdea10411a08f76fb6dfe6f3b540a04b18b3ee4fda911b0df629d6",
          "blockNumber": "0xe49cc8",
          "transactionHash": "0x2470470ca598ed9350acd16bceefbb425580b30f9dd2630b35e4293d34ca26df",
          "transactionIndex": "0x19",
          "logIndex": "0xa6",
          "removed": false
        },
        {
          "address": "0x6edce65403992e310a62460808c4b910d972f10f",
          "topics": [
            "0x1ab700d4ced0c005b164c0f789fd09fcbb0156d4c2041b8a3bfbcd961cd1567f"
          ],
          "data": "0x00000000000000000000000000000000000000000000000000000000000000600000000000000000000000000000000000000000000000000000000000000140000000000000000000000000c1868e054425d378095a003ecba3823a5d0135c900000000000000000000000000000000000000000000000000000000000000b101000000000000000100009d35000000000000000000000000bd3f14bb6ebe6833c8ee5fc69730d803923d2f1c00009d2800000000000000000000000032c3ff2525706a5425ab000b05dcdff561ff8c58649c727737548ffbb5180e86b1d63923b81446c345cbdf34b4c21256bf0cdb6f00000000000000000000000012b2434a1022d5787bf06056f2885fe35de62bf80000000000000000000000000000000000000000000000000000000000000000000000000000000000000000000000000000000000000000000000000000000000000000000000000000000000002c00030100110100000000000000000000000000011170010013030000000000000000000000000000000111700000000000000000000000000000000000000000",
          "blockHash": "0x95001dc922fdea10411a08f76fb6dfe6f3b540a04b18b3ee4fda911b0df629d6",
          "blockNumber": "0xe49cc8",
          "transactionHash": "0x2470470ca598ed9350acd16bceefbb425580b30f9dd2630b35e4293d34ca26df",
          "transactionIndex": "0x19",
          "logIndex": "0xa7",
          "removed": false
        }
      ],
      "logsBloom": "0x20000000000000000000000000000000000000000000000000000000000000000000080000000200200000000000000000000000000000000000000000040000000000000000000000000000000000000000000000200000000000020000000000000000000000008200000000000000000000000000000000000000000000000000000000000020000000080000000000000000000000000000000000000000000000008000000000100000000000000000000000400000000440000000000080000000000000000000000000000000000000000000000000000000000000000000040000000000400004000000002000000000000000000000000000000000",
      "type": "0x2",
      "transactionHash": "0x2470470ca598ed9350acd16bceefbb425580b30f9dd2630b35e4293d34ca26df",
      "transactionIndex": "0x19",
      "blockHash": "0x95001dc922fdea10411a08f76fb6dfe6f3b540a04b18b3ee4fda911b0df629d6",
      "blockNumber": "0xe49cc8",
      "gasUsed": "0xb5f89",
      "effectiveGasPrice": "0x72018e",
      "from": "0x12b2434a1022d5787bf06056f2885fe35de62bf8",
      "to": "0xbd3f14bb6ebe6833c8ee5fc69730d803923d2f1c",
      "contractAddress": null,
      "l1BaseFeeScalar": "0x44d",
      "l1BlobBaseFee": "0x10ebc90eff",
      "l1BlobBaseFeeScalar": "0xa118b",
      "l1Fee": "0x5e1f36c3279",
      "l1GasPrice": "0x960e416e",
      "l1GasUsed": "0x86c"
    }
  ],
  "libraries": [],
  "pending": [],
  "returns": {},
  "timestamp": 1725732983,
  "chain": 84532,
  "commit": "67fd3b7"
}