{
  "transactions": [
    {
      "hash": "0x51a94c9ecfe435aa98f88bdf63126a30791b079d591fcf430fc755e2ffb3790b",
      "transactionType": "CALL",
      "contractName": null,
      "contractAddress": "0x0ecb68e0fc16a881fe1ec43eacaae03786818d18",
      "function": "verifyProject(string,string,string,string)",
      "arguments": [
        "StringWorks",
        "testy",
        "testytest",
        "testtytest"
      ],
      "transaction": {
        "from": "0x6680dfd1c6a4867476b2e60da89354ac93272878",
        "to": "0x0ecb68e0fc16a881fe1ec43eacaae03786818d18",
        "gas": "0x105081",
        "value": "0x11c37937e08000",
        "input": "0xbef6c21e000000000000000000000000000000000000000000000000000000000000008000000000000000000000000000000000000000000000000000000000000000c000000000000000000000000000000000000000000000000000000000000001000000000000000000000000000000000000000000000000000000000000000140000000000000000000000000000000000000000000000000000000000000000b537472696e67576f726b730000000000000000000000000000000000000000000000000000000000000000000000000000000000000000000000000000000005746573747900000000000000000000000000000000000000000000000000000000000000000000000000000000000000000000000000000000000000000000097465737479746573740000000000000000000000000000000000000000000000000000000000000000000000000000000000000000000000000000000000000a7465737474797465737400000000000000000000000000000000000000000000",
        "nonce": "0x0",
        "chainId": "0x14a34"
      },
      "additionalContracts": [],
      "isFixedGasLimit": false
    }
  ],
  "receipts": [
    {
      "status": "0x1",
      "cumulativeGasUsed": "0x140c49",
      "logs": [
        {
          "address": "0x4e4af2a21ebf62850fd99eb6253e1efbb56098cd",
          "topics": [
            "0x38b331f00373c8b0f9af5a4273ca1b91e894fec999bfa4ec787e8c90a5c8b05c"
          ],
          "data": "0x00000000000000000000000000000000000000000000000000000000000005a600000000000000000000000000000000000000000000000000000000000000400000000000000000000000000000000000000000000000000000000000000000",
          "blockHash": "0x24d934703eed47349c2c5b482bc2367c21e9b01b9dbfd07404f01cfa074171b2",
          "blockNumber": "0xe4623e",
          "transactionHash": "0x51a94c9ecfe435aa98f88bdf63126a30791b079d591fcf430fc755e2ffb3790b",
          "transactionIndex": "0x5",
          "logIndex": "0x7",
          "removed": false
        },
        {
          "address": "0xc1868e054425d378095a003ecba3823a5d0135c9",
          "topics": [
            "0x61ed099e74a97a1d7f8bb0952a88ca8b7b8ebd00c126ea04671f92a81213318a"
          ],
          "data": "0x0000000000000000000000008a3d588d9f6ac041476b094f97ff94ec30169d3d000000000000000000000000000000000000000000000000000052b527e51874",
          "blockHash": "0x24d934703eed47349c2c5b482bc2367c21e9b01b9dbfd07404f01cfa074171b2",
          "blockNumber": "0xe4623e",
          "transactionHash": "0x51a94c9ecfe435aa98f88bdf63126a30791b079d591fcf430fc755e2ffb3790b",
          "transactionIndex": "0x5",
          "logIndex": "0x8",
          "removed": false
        },
        {
          "address": "0xc1868e054425d378095a003ecba3823a5d0135c9",
          "topics": [
            "0x07ea52d82345d6e838192107d8fd7123d9c2ec8e916cd0aad13fd2b60db24644"
          ],
          "data": "0x000000000000000000000000000000000000000000000000000000000000006000000000000000000000000000000000000000000000000000000000000000a000000000000000000000000000000000000000000000000000000000000000c00000000000000000000000000000000000000000000000000000000000000001000000000000000000000000e1a12515f9ab2764b887bf60b923ca494ebbb2d60000000000000000000000000000000000000000000000000000000000000000000000000000000000000000000000000000000000000000000000000000000100000000000000000000000000000000000000000000000000000436eae6d28d",
          "blockHash": "0x24d934703eed47349c2c5b482bc2367c21e9b01b9dbfd07404f01cfa074171b2",
          "blockNumber": "0xe4623e",
          "transactionHash": "0x51a94c9ecfe435aa98f88bdf63126a30791b079d591fcf430fc755e2ffb3790b",
          "transactionIndex": "0x5",
          "logIndex": "0x9",
          "removed": false
        },
        {
          "address": "0x6edce65403992e310a62460808c4b910d972f10f",
          "topics": [
            "0x1ab700d4ced0c005b164c0f789fd09fcbb0156d4c2041b8a3bfbcd961cd1567f"
          ],
          "data": "0x00000000000000000000000000000000000000000000000000000000000000600000000000000000000000000000000000000000000000000000000000000140000000000000000000000000c1868e054425d378095a003ecba3823a5d0135c900000000000000000000000000000000000000000000000000000000000000b101000000000000000200009d350000000000000000000000000ecb68e0fc16a881fe1ec43eacaae03786818d1800009d28000000000000000000000000c63cf8a07427bd4c64698b0133662df463d14bf8d339bd6825546d02035ca3ad96894b24f4c59e9504bd88b52810532f55c59b3e0000000000000000000000006680dfd1c6a4867476b2e60da89354ac932728780000000000000000000000000000000000000000000000000000000000000001000000000000000000000000000000000000000000000000000000000000000000000000000000000000000000002c00030100110100000000000000000000000000011170010013030000000000000000000000000000000111700000000000000000000000000000000000000000",
          "blockHash": "0x24d934703eed47349c2c5b482bc2367c21e9b01b9dbfd07404f01cfa074171b2",
          "blockNumber": "0xe4623e",
          "transactionHash": "0x51a94c9ecfe435aa98f88bdf63126a30791b079d591fcf430fc755e2ffb3790b",
          "transactionIndex": "0x5",
          "logIndex": "0xa",
          "removed": false
        }
      ],
      "logsBloom": "0x20000000000000000000000000000000000000000000000000000000000000000000080000000200200000000000000000000000000000000000000000040000000000000000000000000000000000000000000000200000000000020000000000000000000000008200000000000000000000000000000000000000000000000000000000000020000000080000000000000000000000000000000000000000000000008000000000100000000000000000000000400000000440000000000080000000000000000000000000000000000000000000000000000000000000000000040000000000400004000000002000000000000000000000000000000000",
      "type": "0x2",
      "transactionHash": "0x51a94c9ecfe435aa98f88bdf63126a30791b079d591fcf430fc755e2ffb3790b",
      "transactionIndex": "0x5",
      "blockHash": "0x24d934703eed47349c2c5b482bc2367c21e9b01b9dbfd07404f01cfa074171b2",
      "blockNumber": "0xe4623e",
      "gasUsed": "0xb27bb",
      "effectiveGasPrice": "0x8185a9",
      "from": "0x6680dfd1c6a4867476b2e60da89354ac93272878",
      "to": "0x0ecb68e0fc16a881fe1ec43eacaae03786818d18",
      "contractAddress": null,
      "l1BaseFeeScalar": "0x44d",
      "l1BlobBaseFee": "0x29be853273",
      "l1BlobBaseFeeScalar": "0xa118b",
      "l1Fee": "0xe9e03a8218c",
      "l1GasPrice": "0x3061fd618",
      "l1GasUsed": "0x879"
    }
  ],
  "libraries": [],
  "pending": [],
  "returns": {},
  "timestamp": 1725703011,
  "chain": 84532,
  "commit": "c44a2e9"
}