{
  "transactions": [
    {
      "hash": "0x6e5ce46376be5d116caf3a40a54b15bf017dcf8ed23c652412ecd28ddec3a83f",
      "transactionType": "CALL",
      "contractName": null,
      "contractAddress": "0x0742e003fbe108fd92f7b089cdce906a9a143e2c",
      "function": "verifyProject(string,string,string,string)",
      "arguments": [
        "StringWorks",
        "testy",
        "testytest",
        "testtytest"
      ],
      "transaction": {
        "from": "0x12b2434a1022d5787bf06056f2885fe35de62bf8",
        "to": "0x0742e003fbe108fd92f7b089cdce906a9a143e2c",
        "gas": "0x105081",
        "value": "0xe35fa931a0000",
        "input": "0xbef6c21e000000000000000000000000000000000000000000000000000000000000008000000000000000000000000000000000000000000000000000000000000000c000000000000000000000000000000000000000000000000000000000000001000000000000000000000000000000000000000000000000000000000000000140000000000000000000000000000000000000000000000000000000000000000b537472696e67576f726b730000000000000000000000000000000000000000000000000000000000000000000000000000000000000000000000000000000005746573747900000000000000000000000000000000000000000000000000000000000000000000000000000000000000000000000000000000000000000000097465737479746573740000000000000000000000000000000000000000000000000000000000000000000000000000000000000000000000000000000000000a7465737474797465737400000000000000000000000000000000000000000000",
        "nonce": "0xfb",
        "chainId": "0x14a34"
      },
      "additionalContracts": [],
      "isFixedGasLimit": false
    }
  ],
  "receipts": [
    {
      "status": "0x1",
      "cumulativeGasUsed": "0x9938c8",
      "logs": [
        {
          "address": "0x4e4af2a21ebf62850fd99eb6253e1efbb56098cd",
          "topics": [
            "0x38b331f00373c8b0f9af5a4273ca1b91e894fec999bfa4ec787e8c90a5c8b05c"
          ],
          "data": "0x000000000000000000000000000000000000000000000000000000000000056600000000000000000000000000000000000000000000000000000000000000400000000000000000000000000000000000000000000000000000000000000000",
          "blockHash": "0x18ffe2f8116c212de66cea2f03d522c754d9c224ff2c4750966fbe712f3c0a40",
          "blockNumber": "0xe45fc3",
          "transactionHash": "0x6e5ce46376be5d116caf3a40a54b15bf017dcf8ed23c652412ecd28ddec3a83f",
          "transactionIndex": "0x6",
          "logIndex": "0x3e",
          "removed": false
        },
        {
          "address": "0xc1868e054425d378095a003ecba3823a5d0135c9",
          "topics": [
            "0x61ed099e74a97a1d7f8bb0952a88ca8b7b8ebd00c126ea04671f92a81213318a"
          ],
          "data": "0x0000000000000000000000008a3d588d9f6ac041476b094f97ff94ec30169d3d000000000000000000000000000000000000000000000000000052c322a7d0b4",
          "blockHash": "0x18ffe2f8116c212de66cea2f03d522c754d9c224ff2c4750966fbe712f3c0a40",
          "blockNumber": "0xe45fc3",
          "transactionHash": "0x6e5ce46376be5d116caf3a40a54b15bf017dcf8ed23c652412ecd28ddec3a83f",
          "transactionIndex": "0x6",
          "logIndex": "0x3f",
          "removed": false
        },
        {
          "address": "0xc1868e054425d378095a003ecba3823a5d0135c9",
          "topics": [
            "0x07ea52d82345d6e838192107d8fd7123d9c2ec8e916cd0aad13fd2b60db24644"
          ],
          "data": "0x000000000000000000000000000000000000000000000000000000000000006000000000000000000000000000000000000000000000000000000000000000a000000000000000000000000000000000000000000000000000000000000000c00000000000000000000000000000000000000000000000000000000000000001000000000000000000000000e1a12515f9ab2764b887bf60b923ca494ebbb2d60000000000000000000000000000000000000000000000000000000000000000000000000000000000000000000000000000000000000000000000000000000100000000000000000000000000000000000000000000000000000436eae6d28d",
          "blockHash": "0x18ffe2f8116c212de66cea2f03d522c754d9c224ff2c4750966fbe712f3c0a40",
          "blockNumber": "0xe45fc3",
          "transactionHash": "0x6e5ce46376be5d116caf3a40a54b15bf017dcf8ed23c652412ecd28ddec3a83f",
          "transactionIndex": "0x6",
          "logIndex": "0x40",
          "removed": false
        },
        {
          "address": "0x6edce65403992e310a62460808c4b910d972f10f",
          "topics": [
            "0x1ab700d4ced0c005b164c0f789fd09fcbb0156d4c2041b8a3bfbcd961cd1567f"
          ],
          "data": "0x00000000000000000000000000000000000000000000000000000000000000600000000000000000000000000000000000000000000000000000000000000140000000000000000000000000c1868e054425d378095a003ecba3823a5d0135c900000000000000000000000000000000000000000000000000000000000000b101000000000000000200009d350000000000000000000000000742e003fbe108fd92f7b089cdce906a9a143e2c00009d28000000000000000000000000c121edef7be2bc9ea7e8bc6d697bd6af3730a26671b9bd6073660ea60c792caa68d46ed80656b66923fc66bc3dfbe5e8919e0a3000000000000000000000000012b2434a1022d5787bf06056f2885fe35de62bf80000000000000000000000000000000000000000000000000000000000000001000000000000000000000000000000000000000000000000000000000000000000000000000000000000000000002c000301001101000000000000000000000000000186a0010013030000000000000000000000000000000186a00000000000000000000000000000000000000000",
          "blockHash": "0x18ffe2f8116c212de66cea2f03d522c754d9c224ff2c4750966fbe712f3c0a40",
          "blockNumber": "0xe45fc3",
          "transactionHash": "0x6e5ce46376be5d116caf3a40a54b15bf017dcf8ed23c652412ecd28ddec3a83f",
          "transactionIndex": "0x6",
          "logIndex": "0x41",
          "removed": false
        }
      ],
      "logsBloom": "0x20000000000000000000000000000000000000000000000000000000000000000000080000000200200000000000000000000000000000000000000000040000000000000000000000000000000000000000000000200000000000020000000000000000000000008200000000000000000000000000000000000000000000000000000000000020000000080000000000000000000000000000000000000000000000008000000000100000000000000000000000400000000440000000000080000000000000000000000000000000000000000000000000000000000000000000040000000000400004000000002000000000000000000000000000000000",
      "type": "0x2",
      "transactionHash": "0x6e5ce46376be5d116caf3a40a54b15bf017dcf8ed23c652412ecd28ddec3a83f",
      "transactionIndex": "0x6",
      "blockHash": "0x18ffe2f8116c212de66cea2f03d522c754d9c224ff2c4750966fbe712f3c0a40",
      "blockNumber": "0xe45fc3",
      "gasUsed": "0xb27bb",
      "effectiveGasPrice": "0x85bc66",
      "from": "0x12b2434a1022d5787bf06056f2885fe35de62bf8",
      "to": "0x0742e003fbe108fd92f7b089cdce906a9a143e2c",
      "contractAddress": null,
      "l1BaseFeeScalar": "0x44d",
      "l1BlobBaseFee": "0x515e8ba0ee",
      "l1BlobBaseFeeScalar": "0xa118b",
      "l1Fee": "0x1cd3de505754",
      "l1GasPrice": "0x4286c3aed",
      "l1GasUsed": "0x894"
    }
  ],
  "libraries": [],
  "pending": [],
  "returns": {},
  "timestamp": 1725701740,
  "chain": 84532,
  "commit": "c44a2e9"
}