{
  "transactions": [
    {
      "hash": null,
      "transactionType": "CALL",
      "contractName": null,
      "contractAddress": "0xe4b0be62627747ac752669ebb93ee612ecfd73be",
      "function": "verifyProject(string,string,string,string)",
      "arguments": [
        "StringWorks",
        "testy",
        "testytest",
        "testtytest"
      ],
      "transaction": {
        "from": "0x12b2434a1022d5787bf06056f2885fe35de62bf8",
        "to": "0xe4b0be62627747ac752669ebb93ee612ecfd73be",
        "gas": "0xf6865",
        "value": "0x11c37937e08000",
        "input": "0xbef6c21e000000000000000000000000000000000000000000000000000000000000008000000000000000000000000000000000000000000000000000000000000000c000000000000000000000000000000000000000000000000000000000000001000000000000000000000000000000000000000000000000000000000000000140000000000000000000000000000000000000000000000000000000000000000b537472696e67576f726b730000000000000000000000000000000000000000000000000000000000000000000000000000000000000000000000000000000005746573747900000000000000000000000000000000000000000000000000000000000000000000000000000000000000000000000000000000000000000000097465737479746573740000000000000000000000000000000000000000000000000000000000000000000000000000000000000000000000000000000000000a7465737474797465737400000000000000000000000000000000000000000000",
        "nonce": "0x112",
        "chainId": "0x14a34"
      },
      "additionalContracts": [],
      "isFixedGasLimit": false
    }
  ],
  "receipts": [],
  "libraries": [],
  "pending": [],
  "returns": {},
  "timestamp": 1725738350,
  "chain": 84532,
  "commit": "67fd3b7"
}