{
  "transactions": [
    {
      "hash": "0x2b075911638e5462ec54e8bf0d6b8f1547208f3387b3c733e68674f84c2ab4e3",
      "transactionType": "CALL",
      "contractName": null,
      "contractAddress": "0x675de6ca5a78b3c4acb19cd38e5a02a92da1b5f3",
      "function": "verifyProject(string,string,string,string)",
      "arguments": [
        "StringWorks",
        "testy",
        "testytest",
        "testtytest"
      ],
      "transaction": {
        "from": "0x12b2434a1022d5787bf06056f2885fe35de62bf8",
        "to": "0x675de6ca5a78b3c4acb19cd38e5a02a92da1b5f3",
        "gas": "0xf9a5a",
        "value": "0x1c6bf526340000",
        "input": "0xbef6c21e000000000000000000000000000000000000000000000000000000000000008000000000000000000000000000000000000000000000000000000000000000c000000000000000000000000000000000000000000000000000000000000001000000000000000000000000000000000000000000000000000000000000000140000000000000000000000000000000000000000000000000000000000000000b537472696e67576f726b730000000000000000000000000000000000000000000000000000000000000000000000000000000000000000000000000000000005746573747900000000000000000000000000000000000000000000000000000000000000000000000000000000000000000000000000000000000000000000097465737479746573740000000000000000000000000000000000000000000000000000000000000000000000000000000000000000000000000000000000000a7465737474797465737400000000000000000000000000000000000000000000",
        "nonce": "0x93",
        "chainId": "0x14a34"
      },
      "additionalContracts": [],
      "isFixedGasLimit": false
    }
  ],
  "receipts": [
    {
      "status": "0x1",
      "cumulativeGasUsed": "0x23595a",
      "logs": [
        {
          "address": "0x4e4af2a21ebf62850fd99eb6253e1efbb56098cd",
          "topics": [
            "0x38b331f00373c8b0f9af5a4273ca1b91e894fec999bfa4ec787e8c90a5c8b05c"
          ],
          "data": "0x000000000000000000000000000000000000000000000000000000000000047b00000000000000000000000000000000000000000000000000000000000000400000000000000000000000000000000000000000000000000000000000000000",
          "blockHash": "0x00fb19a71b8cc2bec72bea4f1a0678ede4d18436d71bc48aae8b3e3eb7ebfa3a",
          "blockNumber": "0xe31bd5",
          "transactionHash": "0x2b075911638e5462ec54e8bf0d6b8f1547208f3387b3c733e68674f84c2ab4e3",
          "transactionIndex": "0xa",
          "logIndex": "0x15",
          "removed": false
        },
        {
          "address": "0xc1868e054425d378095a003ecba3823a5d0135c9",
          "topics": [
            "0x61ed099e74a97a1d7f8bb0952a88ca8b7b8ebd00c126ea04671f92a81213318a"
          ],
          "data": "0x0000000000000000000000008a3d588d9f6ac041476b094f97ff94ec30169d3d00000000000000000000000000000000000000000000000000004a3eb8635462",
          "blockHash": "0x00fb19a71b8cc2bec72bea4f1a0678ede4d18436d71bc48aae8b3e3eb7ebfa3a",
          "blockNumber": "0xe31bd5",
          "transactionHash": "0x2b075911638e5462ec54e8bf0d6b8f1547208f3387b3c733e68674f84c2ab4e3",
          "transactionIndex": "0xa",
          "logIndex": "0x16",
          "removed": false
        },
        {
          "address": "0xc1868e054425d378095a003ecba3823a5d0135c9",
          "topics": [
            "0x07ea52d82345d6e838192107d8fd7123d9c2ec8e916cd0aad13fd2b60db24644"
          ],
          "data": "0x000000000000000000000000000000000000000000000000000000000000006000000000000000000000000000000000000000000000000000000000000000a000000000000000000000000000000000000000000000000000000000000000c00000000000000000000000000000000000000000000000000000000000000001000000000000000000000000e1a12515f9ab2764b887bf60b923ca494ebbb2d600000000000000000000000000000000000000000000000000000000000000000000000000000000000000000000000000000000000000000000000000000001000000000000000000000000000000000000000000000000000003cb947eb288",
          "blockHash": "0x00fb19a71b8cc2bec72bea4f1a0678ede4d18436d71bc48aae8b3e3eb7ebfa3a",
          "blockNumber": "0xe31bd5",
          "transactionHash": "0x2b075911638e5462ec54e8bf0d6b8f1547208f3387b3c733e68674f84c2ab4e3",
          "transactionIndex": "0xa",
          "logIndex": "0x17",
          "removed": false
        },
        {
          "address": "0x6edce65403992e310a62460808c4b910d972f10f",
          "topics": [
            "0x1ab700d4ced0c005b164c0f789fd09fcbb0156d4c2041b8a3bfbcd961cd1567f"
          ],
          "data": "0x00000000000000000000000000000000000000000000000000000000000000600000000000000000000000000000000000000000000000000000000000000160000000000000000000000000c1868e054425d378095a003ecba3823a5d0135c900000000000000000000000000000000000000000000000000000000000000d101000000000000000100009d35000000000000000000000000675de6ca5a78b3c4acb19cd38e5a02a92da1b5f300009d28000000000000000000000000ba9e54606a67147ad0fb9defbae2d461dde8acc5b793eea8301ad85332cd06cddbf7988120bc047da71dccdaff4e17cb944673a90000000000000000000000000000000000000000000000000000000000000020000000000000000000000000000000000000000000000000000000000000000b537472696e67576f726b7300000000000000000000000000000000000000000000000000000000000000000000000000000000000000000000000000000000000000000000000000000000000000160003010011010000000000000000000000000000d6d800000000000000000000",
          "blockHash": "0x00fb19a71b8cc2bec72bea4f1a0678ede4d18436d71bc48aae8b3e3eb7ebfa3a",
          "blockNumber": "0xe31bd5",
          "transactionHash": "0x2b075911638e5462ec54e8bf0d6b8f1547208f3387b3c733e68674f84c2ab4e3",
          "transactionIndex": "0xa",
          "logIndex": "0x18",
          "removed": false
        }
      ],
      "logsBloom": "0x20000000000000000000000000000000000000000000000000000000000000000000080000000200200000000000000000000000000000000000000000040000000000000000000000000000000000000000000000200000000000020000000000000000000000008200000000000000000000000000000000000000000000000000000000000020000000080000000000000000000000000000000000000000000000008000000000100000000000000000000000400000000440000000000080000000000000000000000000000000000000000000000000000000000000000000040000000000400004000000002000000000000000000000000000000000",
      "type": "0x2",
      "transactionHash": "0x2b075911638e5462ec54e8bf0d6b8f1547208f3387b3c733e68674f84c2ab4e3",
      "transactionIndex": "0xa",
      "blockHash": "0x00fb19a71b8cc2bec72bea4f1a0678ede4d18436d71bc48aae8b3e3eb7ebfa3a",
      "blockNumber": "0xe31bd5",
      "gasUsed": "0xb4bd7",
      "effectiveGasPrice": "0x149",
      "blobGasUsed": "0x0",
      "from": "0x12b2434a1022d5787bf06056f2885fe35de62bf8",
      "to": "0x675de6ca5a78b3c4acb19cd38e5a02a92da1b5f3",
      "contractAddress": null,
      "l1BaseFeeScalar": "0x44d",
      "l1BlobBaseFee": "0x112d00d34d4",
      "l1BlobBaseFeeScalar": "0xa118b",
      "l1Fee": "0x5e5df2bacd65",
      "l1GasPrice": "0xb1054f865",
      "l1GasUsed": "0x851"
    }
  ],
  "libraries": [],
  "pending": [],
  "returns": {},
  "timestamp": 1725535889,
  "chain": 84532,
  "commit": "6821207"
}