{
  "transactions": [
    {
      "hash": "0x78dc2b8ec43627d841322a312722b7b64e4f86bfe487a5bba5a546f5c1247224",
      "transactionType": "CALL",
      "contractName": null,
      "contractAddress": "0x5713f4ea2591f1bca73a49c206bcccc243a1bfb4",
      "function": "verifyProject(string,string,string,string)",
      "arguments": [
        "test",
        "testy",
        "testytest",
        "testtytest"
      ],
      "transaction": {
        "from": "0xb0efd2b19a5698a9c830548ac22708a28c9d4552",
        "to": "0x5713f4ea2591f1bca73a49c206bcccc243a1bfb4",
        "gas": "0xf9041",
        "value": "0x16345785d8a0000",
        "input": "0xbef6c21e000000000000000000000000000000000000000000000000000000000000008000000000000000000000000000000000000000000000000000000000000000c000000000000000000000000000000000000000000000000000000000000001000000000000000000000000000000000000000000000000000000000000000140000000000000000000000000000000000000000000000000000000000000000474657374000000000000000000000000000000000000000000000000000000000000000000000000000000000000000000000000000000000000000000000005746573747900000000000000000000000000000000000000000000000000000000000000000000000000000000000000000000000000000000000000000000097465737479746573740000000000000000000000000000000000000000000000000000000000000000000000000000000000000000000000000000000000000a7465737474797465737400000000000000000000000000000000000000000000",
        "nonce": "0x88",
        "chainId": "0x14a34"
      },
      "additionalContracts": [],
      "isFixedGasLimit": false
    }
  ],
  "receipts": [
    {
      "status": "0x1",
      "cumulativeGasUsed": "0xd5bf6",
      "logs": [
        {
          "address": "0x4e4af2a21ebf62850fd99eb6253e1efbb56098cd",
          "topics": [
            "0x38b331f00373c8b0f9af5a4273ca1b91e894fec999bfa4ec787e8c90a5c8b05c"
          ],
          "data": "0x000000000000000000000000000000000000000000000000000000000000047000000000000000000000000000000000000000000000000000000000000000400000000000000000000000000000000000000000000000000000000000000000",
          "blockHash": "0x5b1fb27e66885b254d1a429633070e9d0aa959637ead9e8bdc2558e67c263de7",
          "blockNumber": "0xe3042c",
          "transactionHash": "0x78dc2b8ec43627d841322a312722b7b64e4f86bfe487a5bba5a546f5c1247224",
          "transactionIndex": "0x2",
          "logIndex": "0x1",
          "removed": false
        },
        {
          "address": "0xc1868e054425d378095a003ecba3823a5d0135c9",
          "topics": [
            "0x61ed099e74a97a1d7f8bb0952a88ca8b7b8ebd00c126ea04671f92a81213318a"
          ],
          "data": "0x0000000000000000000000008a3d588d9f6ac041476b094f97ff94ec30169d3d00000000000000000000000000000000000000000000000000004a46a2ebbd32",
          "blockHash": "0x5b1fb27e66885b254d1a429633070e9d0aa959637ead9e8bdc2558e67c263de7",
          "blockNumber": "0xe3042c",
          "transactionHash": "0x78dc2b8ec43627d841322a312722b7b64e4f86bfe487a5bba5a546f5c1247224",
          "transactionIndex": "0x2",
          "logIndex": "0x2",
          "removed": false
        },
        {
          "address": "0xc1868e054425d378095a003ecba3823a5d0135c9",
          "topics": [
            "0x07ea52d82345d6e838192107d8fd7123d9c2ec8e916cd0aad13fd2b60db24644"
          ],
          "data": "0x000000000000000000000000000000000000000000000000000000000000006000000000000000000000000000000000000000000000000000000000000000a000000000000000000000000000000000000000000000000000000000000000c00000000000000000000000000000000000000000000000000000000000000001000000000000000000000000e1a12515f9ab2764b887bf60b923ca494ebbb2d600000000000000000000000000000000000000000000000000000000000000000000000000000000000000000000000000000000000000000000000000000001000000000000000000000000000000000000000000000000000003cb947eb288",
          "blockHash": "0x5b1fb27e66885b254d1a429633070e9d0aa959637ead9e8bdc2558e67c263de7",
          "blockNumber": "0xe3042c",
          "transactionHash": "0x78dc2b8ec43627d841322a312722b7b64e4f86bfe487a5bba5a546f5c1247224",
          "transactionIndex": "0x2",
          "logIndex": "0x3",
          "removed": false
        },
        {
          "address": "0x6edce65403992e310a62460808c4b910d972f10f",
          "topics": [
            "0x1ab700d4ced0c005b164c0f789fd09fcbb0156d4c2041b8a3bfbcd961cd1567f"
          ],
          "data": "0x00000000000000000000000000000000000000000000000000000000000000600000000000000000000000000000000000000000000000000000000000000120000000000000000000000000c1868e054425d378095a003ecba3823a5d0135c9000000000000000000000000000000000000000000000000000000000000009101000000000000000100009d350000000000000000000000005713f4ea2591f1bca73a49c206bcccc243a1bfb400009d28000000000000000000000000881e8454bbb85ed10d9c73969e528bc1bb5f83b0429d6e49f31dbf8ab3798b3b9c3792ff83c30ea3d73a3adadb5c746b56758ebb000000000000000000000000b0efd2b19a5698a9c830548ac22708a28c9d4552000000000000000000000000000000000000000000000000000000000000000000000000000000000000000000001600030100110100000000000000000000000000015f9000000000000000000000",
          "blockHash": "0x5b1fb27e66885b254d1a429633070e9d0aa959637ead9e8bdc2558e67c263de7",
          "blockNumber": "0xe3042c",
          "transactionHash": "0x78dc2b8ec43627d841322a312722b7b64e4f86bfe487a5bba5a546f5c1247224",
          "transactionIndex": "0x2",
          "logIndex": "0x4",
          "removed": false
        }
      ],
      "logsBloom": "0x20000000000000000000000000000000000000000000000000000000000000000000080000000200200000000000000000000000000000000000000000040000000000000000000000000000000000000000000000200000000000020000000000000000000000008200000000000000000000000000000000000000000000000000000000000020000000080000000000000000000000000000000000000000000000008000000000100000000000000000000000400000000440000000000080000000000000000000000000000000000000000000000000000000000000000000040000000000400004000000002000000000000000000000000000000000",
      "type": "0x2",
      "transactionHash": "0x78dc2b8ec43627d841322a312722b7b64e4f86bfe487a5bba5a546f5c1247224",
      "transactionIndex": "0x2",
      "blockHash": "0x5b1fb27e66885b254d1a429633070e9d0aa959637ead9e8bdc2558e67c263de7",
      "blockNumber": "0xe3042c",
      "gasUsed": "0xb4488",
      "effectiveGasPrice": "0xf435f",
      "from": "0xb0efd2b19a5698a9c830548ac22708a28c9d4552",
      "to": "0x5713f4ea2591f1bca73a49c206bcccc243a1bfb4",
      "contractAddress": null,
      "l1BaseFeeScalar": "0x44d",
      "l1BlobBaseFee": "0xc8bcfbb476",
      "l1BlobBaseFeeScalar": "0xa118b",
      "l1Fee": "0x43b83efa27af",
      "l1GasPrice": "0x11f584b8e9",
      "l1GasUsed": "0x829"
    }
  ],
  "libraries": [],
  "pending": [],
  "returns": {},
  "timestamp": 1725523773,
  "chain": 84532,
  "commit": "8370d5b"
}