{
  "transactions": [
    {
      "hash": "0xae60b32c68d02556e54ac064f1b3a32264d3e35021aae79aec7d5fa2de343147",
      "transactionType": "CALL",
      "contractName": null,
      "contractAddress": "0x73ff31a6d2f86b96d9b2d929c1c849595fcb20ce",
      "function": "verifyProject(string,string,string,string)",
      "arguments": [
        "test",
        "testy",
        "testytest",
        "testtytest"
      ],
      "transaction": {
        "from": "0xb0efd2b19a5698a9c830548ac22708a28c9d4552",
        "to": "0x73ff31a6d2f86b96d9b2d929c1c849595fcb20ce",
        "gas": "0xf90bb",
        "value": "0x16345785d8a0000",
        "input": "0xbef6c21e000000000000000000000000000000000000000000000000000000000000008000000000000000000000000000000000000000000000000000000000000000c000000000000000000000000000000000000000000000000000000000000001000000000000000000000000000000000000000000000000000000000000000140000000000000000000000000000000000000000000000000000000000000000474657374000000000000000000000000000000000000000000000000000000000000000000000000000000000000000000000000000000000000000000000005746573747900000000000000000000000000000000000000000000000000000000000000000000000000000000000000000000000000000000000000000000097465737479746573740000000000000000000000000000000000000000000000000000000000000000000000000000000000000000000000000000000000000a7465737474797465737400000000000000000000000000000000000000000000",
        "nonce": "0x66",
        "chainId": "0x14a34"
      },
      "additionalContracts": [],
      "isFixedGasLimit": false
    }
  ],
  "receipts": [
    {
      "status": "0x1",
      "cumulativeGasUsed": "0x405511",
      "logs": [
        {
          "address": "0x4e4af2a21ebf62850fd99eb6253e1efbb56098cd",
          "topics": [
            "0x38b331f00373c8b0f9af5a4273ca1b91e894fec999bfa4ec787e8c90a5c8b05c"
          ],
          "data": "0x000000000000000000000000000000000000000000000000000000000000046800000000000000000000000000000000000000000000000000000000000000400000000000000000000000000000000000000000000000000000000000000000",
          "blockHash": "0xe0239a9a0f5a5d0dfcd25fec571ac5516bbf4b320e35ef76eb1bfdad12e5a396",
          "blockNumber": "0xe2ee01",
          "transactionHash": "0xae60b32c68d02556e54ac064f1b3a32264d3e35021aae79aec7d5fa2de343147",
          "transactionIndex": "0x9",
          "logIndex": "0x1e",
          "removed": false
        },
        {
          "address": "0xc1868e054425d378095a003ecba3823a5d0135c9",
          "topics": [
            "0x61ed099e74a97a1d7f8bb0952a88ca8b7b8ebd00c126ea04671f92a81213318a"
          ],
          "data": "0x0000000000000000000000008a3d588d9f6ac041476b094f97ff94ec30169d3d00000000000000000000000000000000000000000000000000004a41fa002a72",
          "blockHash": "0xe0239a9a0f5a5d0dfcd25fec571ac5516bbf4b320e35ef76eb1bfdad12e5a396",
          "blockNumber": "0xe2ee01",
          "transactionHash": "0xae60b32c68d02556e54ac064f1b3a32264d3e35021aae79aec7d5fa2de343147",
          "transactionIndex": "0x9",
          "logIndex": "0x1f",
          "removed": false
        },
        {
          "address": "0xc1868e054425d378095a003ecba3823a5d0135c9",
          "topics": [
            "0x07ea52d82345d6e838192107d8fd7123d9c2ec8e916cd0aad13fd2b60db24644"
          ],
          "data": "0x000000000000000000000000000000000000000000000000000000000000006000000000000000000000000000000000000000000000000000000000000000a000000000000000000000000000000000000000000000000000000000000000c00000000000000000000000000000000000000000000000000000000000000001000000000000000000000000e1a12515f9ab2764b887bf60b923ca494ebbb2d600000000000000000000000000000000000000000000000000000000000000000000000000000000000000000000000000000000000000000000000000000001000000000000000000000000000000000000000000000000000003cb947eb288",
          "blockHash": "0xe0239a9a0f5a5d0dfcd25fec571ac5516bbf4b320e35ef76eb1bfdad12e5a396",
          "blockNumber": "0xe2ee01",
          "transactionHash": "0xae60b32c68d02556e54ac064f1b3a32264d3e35021aae79aec7d5fa2de343147",
          "transactionIndex": "0x9",
          "logIndex": "0x20",
          "removed": false
        },
        {
          "address": "0x6edce65403992e310a62460808c4b910d972f10f",
          "topics": [
            "0x1ab700d4ced0c005b164c0f789fd09fcbb0156d4c2041b8a3bfbcd961cd1567f"
          ],
          "data": "0x00000000000000000000000000000000000000000000000000000000000000600000000000000000000000000000000000000000000000000000000000000120000000000000000000000000c1868e054425d378095a003ecba3823a5d0135c9000000000000000000000000000000000000000000000000000000000000009101000000000000000100009d3500000000000000000000000073ff31a6d2f86b96d9b2d929c1c849595fcb20ce00009d2800000000000000000000000058e294d6b380552c0cd1c6fed755e2260342b12fdf59921420e0d10bf4431aaf7940f40341fd52c7e8d20fcbca30fd872090745b000000000000000000000000b0efd2b19a5698a9c830548ac22708a28c9d455200000000000000000000000000000000000000000000000000000000000000000000000000000000000000000000160003010011010000000000000000000000000001117000000000000000000000",
          "blockHash": "0xe0239a9a0f5a5d0dfcd25fec571ac5516bbf4b320e35ef76eb1bfdad12e5a396",
          "blockNumber": "0xe2ee01",
          "transactionHash": "0xae60b32c68d02556e54ac064f1b3a32264d3e35021aae79aec7d5fa2de343147",
          "transactionIndex": "0x9",
          "logIndex": "0x21",
          "removed": false
        }
      ],
      "logsBloom": "0x20000000000000000000000000000000000000000000000000000000000000000000080000000200200000000000000000000000000000000000000000040000000000000000000000000000000000000000000000200000000000020000000000000000000000008200000000000000000000000000000000000000000000000000000000000020000000080000000000000000000000000000000000000000000000008000000000100000000000000000000000400000000440000000000080000000000000000000000000000000000000000000000000000000000000000000040000000000400004000000002000000000000000000000000000000000",
      "type": "0x2",
      "transactionHash": "0xae60b32c68d02556e54ac064f1b3a32264d3e35021aae79aec7d5fa2de343147",
      "transactionIndex": "0x9",
      "blockHash": "0xe0239a9a0f5a5d0dfcd25fec571ac5516bbf4b320e35ef76eb1bfdad12e5a396",
      "blockNumber": "0xe2ee01",
      "gasUsed": "0xb44e0",
      "effectiveGasPrice": "0x187db",
      "from": "0xb0efd2b19a5698a9c830548ac22708a28c9d4552",
      "to": "0x73ff31a6d2f86b96d9b2d929c1c849595fcb20ce",
      "contractAddress": null,
      "l1BaseFeeScalar": "0x44d",
      "l1BlobBaseFee": "0x2d2778da6c",
      "l1BlobBaseFeeScalar": "0xa118b",
      "l1Fee": "0xf1e950b3455",
      "l1GasPrice": "0x24338ee1f",
      "l1GasUsed": "0x81b"
    }
  ],
  "libraries": [],
  "pending": [],
  "returns": {},
  "timestamp": 1725512424,
  "chain": 84532,
  "commit": "8370d5b"
}