{
  "transactions": [
    {
      "hash": "0x0eb346a20272c201e549230f8869d43ad6126d52593ba747acbba8709cbc5d8a",
      "transactionType": "CALL",
      "contractName": null,
      "contractAddress": "0x552d6e78c0491667403d41e2bc153d488859ab76",
      "function": "verifyProject(string,string,string,string)",
      "arguments": [
        "StringWorks",
        "testy",
        "testytest",
        "testtytest"
      ],
      "transaction": {
        "from": "0x12b2434a1022d5787bf06056f2885fe35de62bf8",
        "to": "0x552d6e78c0491667403d41e2bc153d488859ab76",
        "gas": "0x10966b",
        "value": "0x1c6bf526340000",
        "input": "0xbef6c21e000000000000000000000000000000000000000000000000000000000000008000000000000000000000000000000000000000000000000000000000000000c000000000000000000000000000000000000000000000000000000000000001000000000000000000000000000000000000000000000000000000000000000140000000000000000000000000000000000000000000000000000000000000000b537472696e67576f726b730000000000000000000000000000000000000000000000000000000000000000000000000000000000000000000000000000000005746573747900000000000000000000000000000000000000000000000000000000000000000000000000000000000000000000000000000000000000000000097465737479746573740000000000000000000000000000000000000000000000000000000000000000000000000000000000000000000000000000000000000a7465737474797465737400000000000000000000000000000000000000000000",
        "nonce": "0x9d",
        "chainId": "0x14a34"
      },
      "additionalContracts": [],
      "isFixedGasLimit": false
    }
  ],
  "receipts": [
    {
      "status": "0x1",
      "cumulativeGasUsed": "0x18118f",
      "logs": [
        {
          "address": "0x4e4af2a21ebf62850fd99eb6253e1efbb56098cd",
          "topics": [
            "0x38b331f00373c8b0f9af5a4273ca1b91e894fec999bfa4ec787e8c90a5c8b05c"
          ],
          "data": "0x000000000000000000000000000000000000000000000000000000000000048000000000000000000000000000000000000000000000000000000000000000400000000000000000000000000000000000000000000000000000000000000000",
          "blockHash": "0x9910a699f98d8c2729605fca9637b36207d2e0eef7eb8959cde31517875b603d",
          "blockNumber": "0xe32440",
          "transactionHash": "0x0eb346a20272c201e549230f8869d43ad6126d52593ba747acbba8709cbc5d8a",
          "transactionIndex": "0xa",
          "logIndex": "0x7",
          "removed": false
        },
        {
          "address": "0xc1868e054425d378095a003ecba3823a5d0135c9",
          "topics": [
            "0x61ed099e74a97a1d7f8bb0952a88ca8b7b8ebd00c126ea04671f92a81213318a"
          ],
          "data": "0x0000000000000000000000008a3d588d9f6ac041476b094f97ff94ec30169d3d00000000000000000000000000000000000000000000000000004a4b6a613bf2",
          "blockHash": "0x9910a699f98d8c2729605fca9637b36207d2e0eef7eb8959cde31517875b603d",
          "blockNumber": "0xe32440",
          "transactionHash": "0x0eb346a20272c201e549230f8869d43ad6126d52593ba747acbba8709cbc5d8a",
          "transactionIndex": "0xa",
          "logIndex": "0x8",
          "removed": false
        },
        {
          "address": "0xc1868e054425d378095a003ecba3823a5d0135c9",
          "topics": [
            "0x07ea52d82345d6e838192107d8fd7123d9c2ec8e916cd0aad13fd2b60db24644"
          ],
          "data": "0x000000000000000000000000000000000000000000000000000000000000006000000000000000000000000000000000000000000000000000000000000000a000000000000000000000000000000000000000000000000000000000000000c00000000000000000000000000000000000000000000000000000000000000001000000000000000000000000e1a12515f9ab2764b887bf60b923ca494ebbb2d600000000000000000000000000000000000000000000000000000000000000000000000000000000000000000000000000000000000000000000000000000001000000000000000000000000000000000000000000000000000003cb947eb288",
          "blockHash": "0x9910a699f98d8c2729605fca9637b36207d2e0eef7eb8959cde31517875b603d",
          "blockNumber": "0xe32440",
          "transactionHash": "0x0eb346a20272c201e549230f8869d43ad6126d52593ba747acbba8709cbc5d8a",
          "transactionIndex": "0xa",
          "logIndex": "0x9",
          "removed": false
        },
        {
          "address": "0x6edce65403992e310a62460808c4b910d972f10f",
          "topics": [
            "0x1ab700d4ced0c005b164c0f789fd09fcbb0156d4c2041b8a3bfbcd961cd1567f"
          ],
          "data": "0x00000000000000000000000000000000000000000000000000000000000000600000000000000000000000000000000000000000000000000000000000000140000000000000000000000000c1868e054425d378095a003ecba3823a5d0135c900000000000000000000000000000000000000000000000000000000000000b101000000000000000100009d35000000000000000000000000552d6e78c0491667403d41e2bc153d488859ab7600009d280000000000000000000000005704084a6f0dab197fbddc8ae7637846419b3dcee3a00be3cfbc50b083d5175c577b7dec260eb7a1aae65039a99b17537eff415600000000000000000000000012b2434a1022d5787bf06056f2885fe35de62bf80000000000000000000000000000000000000000000000000000000000000000000000000000000000000000000000000000000000000000000000000000000000000000000000000000000000002c0003010011010000000000000000000000000000d6d80100130300000000000000000000000000000000d6d80000000000000000000000000000000000000000",
          "blockHash": "0x9910a699f98d8c2729605fca9637b36207d2e0eef7eb8959cde31517875b603d",
          "blockNumber": "0xe32440",
          "transactionHash": "0x0eb346a20272c201e549230f8869d43ad6126d52593ba747acbba8709cbc5d8a",
          "transactionIndex": "0xa",
          "logIndex": "0xa",
          "removed": false
        }
      ],
      "logsBloom": "0x20000000000000000000000000000000000000000000000000000000000000000000080000000200200000000000000000000000000000000000000000040000000000000000000000000000000000000000000000200000000000020000000000000000000000008200000000000000000000000000000000000000000000000000000000000020000000080000000000000000000000000000000000000000000000008000000000100000000000000000000000400000000440000000000080000000000000000000000000000000000000000000000000000000000000000000040000000000400004000000002000000000000000000000000000000000",
      "type": "0x2",
      "transactionHash": "0x0eb346a20272c201e549230f8869d43ad6126d52593ba747acbba8709cbc5d8a",
      "transactionIndex": "0xa",
      "blockHash": "0x9910a699f98d8c2729605fca9637b36207d2e0eef7eb8959cde31517875b603d",
      "blockNumber": "0xe32440",
      "gasUsed": "0xb5789",
      "effectiveGasPrice": "0xf4354",
      "blobGasUsed": "0x0",
      "from": "0x12b2434a1022d5787bf06056f2885fe35de62bf8",
      "to": "0x552d6e78c0491667403d41e2bc153d488859ab76",
      "contractAddress": null,
      "l1BaseFeeScalar": "0x44d",
      "l1BlobBaseFee": "0x217acb8943d",
      "l1BlobBaseFeeScalar": "0xa118b",
      "l1Fee": "0xbc8d553c7fe4",
      "l1GasPrice": "0x13d52c443a",
      "l1GasUsed": "0x886"
    }
  ],
  "libraries": [],
  "pending": [],
  "returns": {},
  "timestamp": 1725540200,
  "chain": 84532,
  "commit": "c5b011b"
}