{
  "transactions": [
    {
      "hash": "0xabe0a58acdaeccef868eff246b0ed0f4f4daa7e0533489fb3f4340188ba34c35",
      "transactionType": "CALL",
      "contractName": null,
      "contractAddress": "0x1de322762f4c930cef3268fbfb7f12bd72d33227",
      "function": "verifyProject(string,string,string,string)",
      "arguments": [
        "test",
        "testy",
        "testytest",
        "testtytest"
      ],
      "transaction": {
        "from": "0xb0efd2b19a5698a9c830548ac22708a28c9d4552",
        "to": "0x1de322762f4c930cef3268fbfb7f12bd72d33227",
        "gas": "0xf9098",
        "value": "0x16345785d8a0000",
        "input": "0xbef6c21e000000000000000000000000000000000000000000000000000000000000008000000000000000000000000000000000000000000000000000000000000000c000000000000000000000000000000000000000000000000000000000000001000000000000000000000000000000000000000000000000000000000000000140000000000000000000000000000000000000000000000000000000000000000474657374000000000000000000000000000000000000000000000000000000000000000000000000000000000000000000000000000000000000000000000005746573747900000000000000000000000000000000000000000000000000000000000000000000000000000000000000000000000000000000000000000000097465737479746573740000000000000000000000000000000000000000000000000000000000000000000000000000000000000000000000000000000000000a7465737474797465737400000000000000000000000000000000000000000000",
        "nonce": "0x74",
        "chainId": "0x14a34"
      },
      "additionalContracts": [],
      "isFixedGasLimit": false
    }
  ],
  "receipts": [
    {
      "status": "0x1",
      "cumulativeGasUsed": "0x439242",
      "logs": [
        {
          "address": "0x4e4af2a21ebf62850fd99eb6253e1efbb56098cd",
          "topics": [
            "0x38b331f00373c8b0f9af5a4273ca1b91e894fec999bfa4ec787e8c90a5c8b05c"
          ],
          "data": "0x000000000000000000000000000000000000000000000000000000000000046b00000000000000000000000000000000000000000000000000000000000000400000000000000000000000000000000000000000000000000000000000000000",
          "blockHash": "0x61b7807e74bce83437327af25354060cbed78210d79a781c40a5f9dad9e574f0",
          "blockNumber": "0xe2fb62",
          "transactionHash": "0xabe0a58acdaeccef868eff246b0ed0f4f4daa7e0533489fb3f4340188ba34c35",
          "transactionIndex": "0x9",
          "logIndex": "0x7",
          "removed": false
        },
        {
          "address": "0xc1868e054425d378095a003ecba3823a5d0135c9",
          "topics": [
            "0x61ed099e74a97a1d7f8bb0952a88ca8b7b8ebd00c126ea04671f92a81213318a"
          ],
          "data": "0x0000000000000000000000008a3d588d9f6ac041476b094f97ff94ec30169d3d00000000000000000000000000000000000000000000000000004a41fa002a72",
          "blockHash": "0x61b7807e74bce83437327af25354060cbed78210d79a781c40a5f9dad9e574f0",
          "blockNumber": "0xe2fb62",
          "transactionHash": "0xabe0a58acdaeccef868eff246b0ed0f4f4daa7e0533489fb3f4340188ba34c35",
          "transactionIndex": "0x9",
          "logIndex": "0x8",
          "removed": false
        },
        {
          "address": "0xc1868e054425d378095a003ecba3823a5d0135c9",
          "topics": [
            "0x07ea52d82345d6e838192107d8fd7123d9c2ec8e916cd0aad13fd2b60db24644"
          ],
          "data": "0x000000000000000000000000000000000000000000000000000000000000006000000000000000000000000000000000000000000000000000000000000000a000000000000000000000000000000000000000000000000000000000000000c00000000000000000000000000000000000000000000000000000000000000001000000000000000000000000e1a12515f9ab2764b887bf60b923ca494ebbb2d600000000000000000000000000000000000000000000000000000000000000000000000000000000000000000000000000000000000000000000000000000001000000000000000000000000000000000000000000000000000003cb947eb288",
          "blockHash": "0x61b7807e74bce83437327af25354060cbed78210d79a781c40a5f9dad9e574f0",
          "blockNumber": "0xe2fb62",
          "transactionHash": "0xabe0a58acdaeccef868eff246b0ed0f4f4daa7e0533489fb3f4340188ba34c35",
          "transactionIndex": "0x9",
          "logIndex": "0x9",
          "removed": false
        },
        {
          "address": "0x6edce65403992e310a62460808c4b910d972f10f",
          "topics": [
            "0x1ab700d4ced0c005b164c0f789fd09fcbb0156d4c2041b8a3bfbcd961cd1567f"
          ],
          "data": "0x00000000000000000000000000000000000000000000000000000000000000600000000000000000000000000000000000000000000000000000000000000120000000000000000000000000c1868e054425d378095a003ecba3823a5d0135c9000000000000000000000000000000000000000000000000000000000000009101000000000000000100009d350000000000000000000000001de322762f4c930cef3268fbfb7f12bd72d3322700009d280000000000000000000000002fa6a8cd34b524e038e998771347049365c006585a0ef7738df19a20994e3ef4b7ba6510b0faab302b0d7d91b2bea81746451f3e000000000000000000000000b0efd2b19a5698a9c830548ac22708a28c9d455200000000000000000000000000000000000000000000000000000000000000000000000000000000000000000000160003010011010000000000000000000000000001117000000000000000000000",
          "blockHash": "0x61b7807e74bce83437327af25354060cbed78210d79a781c40a5f9dad9e574f0",
          "blockNumber": "0xe2fb62",
          "transactionHash": "0xabe0a58acdaeccef868eff246b0ed0f4f4daa7e0533489fb3f4340188ba34c35",
          "transactionIndex": "0x9",
          "logIndex": "0xa",
          "removed": false
        }
      ],
      "logsBloom": "0x20000000000000000000000000000000000000000000000000000000000000000000080000000200200000000000000000000000000000000000000000040000000000000000000000000000000000000000000000200000000000020000000000000000000000008200000000000000000000000000000000000000000000000000000000000020000000080000000000000000000000000000000000000000000000008000000000100000000000000000000000400000000440000000000080000000000000000000000000000000000000000000000000000000000000000000040000000000400004000000002000000000000000000000000000000000",
      "type": "0x2",
      "transactionHash": "0xabe0a58acdaeccef868eff246b0ed0f4f4daa7e0533489fb3f4340188ba34c35",
      "transactionIndex": "0x9",
      "blockHash": "0x61b7807e74bce83437327af25354060cbed78210d79a781c40a5f9dad9e574f0",
      "blockNumber": "0xe2fb62",
      "gasUsed": "0xb44c7",
      "effectiveGasPrice": "0x438",
      "from": "0xb0efd2b19a5698a9c830548ac22708a28c9d4552",
      "to": "0x1de322762f4c930cef3268fbfb7f12bd72d33227",
      "contractAddress": null,
      "l1BaseFeeScalar": "0x44d",
      "l1BlobBaseFee": "0x187493bd4e5",
      "l1BlobBaseFeeScalar": "0xa118b",
      "l1Fee": "0x80854682865a",
      "l1GasPrice": "0x17c518ec47",
      "l1GasUsed": "0x7f3"
    }
  ],
  "libraries": [],
  "pending": [],
  "returns": {},
  "timestamp": 1725519273,
  "chain": 84532,
  "commit": "8370d5b"
}