{
  "transactions": [
    {
      "hash": "0x2413865b6e0e93b854f39ce104eacc73ef2f1991040bd4bcbcfc63c2794793d4",
      "transactionType": "CALL",
      "contractName": null,
      "contractAddress": "0xbb9e6eb4494a7186a71ddd68500823782bd9d5aa",
      "function": "verifyProject(string,string,string,string)",
      "arguments": [
        "testProjectNameBetterBeWorking",
        "testy",
        "testytest",
        "testtytest"
      ],
      "transaction": {
        "from": "0xb0efd2b19a5698a9c830548ac22708a28c9d4552",
        "to": "0xbb9e6eb4494a7186a71ddd68500823782bd9d5aa",
        "gas": "0x10869d",
        "value": "0x16345785d8a0000",
        "input": "0xbef6c21e000000000000000000000000000000000000000000000000000000000000008000000000000000000000000000000000000000000000000000000000000000c000000000000000000000000000000000000000000000000000000000000001000000000000000000000000000000000000000000000000000000000000000140000000000000000000000000000000000000000000000000000000000000001e7465737450726f6a6563744e616d654265747465724265576f726b696e6700000000000000000000000000000000000000000000000000000000000000000005746573747900000000000000000000000000000000000000000000000000000000000000000000000000000000000000000000000000000000000000000000097465737479746573740000000000000000000000000000000000000000000000000000000000000000000000000000000000000000000000000000000000000a7465737474797465737400000000000000000000000000000000000000000000",
        "nonce": "0x92",
        "chainId": "0x14a34"
      },
      "additionalContracts": [],
      "isFixedGasLimit": false
    }
  ],
  "receipts": [
    {
      "status": "0x1",
      "cumulativeGasUsed": "0x12501c",
      "logs": [
        {
          "address": "0x4e4af2a21ebf62850fd99eb6253e1efbb56098cd",
          "topics": [
            "0x38b331f00373c8b0f9af5a4273ca1b91e894fec999bfa4ec787e8c90a5c8b05c"
          ],
          "data": "0x000000000000000000000000000000000000000000000000000000000000047200000000000000000000000000000000000000000000000000000000000000400000000000000000000000000000000000000000000000000000000000000000",
          "blockHash": "0xeae035216361dec30b201751489eb73a4b55332cb903cf43bdf4247ef4ca9ef8",
          "blockNumber": "0xe307cd",
          "transactionHash": "0x2413865b6e0e93b854f39ce104eacc73ef2f1991040bd4bcbcfc63c2794793d4",
          "transactionIndex": "0x5",
          "logIndex": "0x3",
          "removed": false
        },
        {
          "address": "0xc1868e054425d378095a003ecba3823a5d0135c9",
          "topics": [
            "0x61ed099e74a97a1d7f8bb0952a88ca8b7b8ebd00c126ea04671f92a81213318a"
          ],
          "data": "0x0000000000000000000000008a3d588d9f6ac041476b094f97ff94ec30169d3d00000000000000000000000000000000000000000000000000004a46dfff9532",
          "blockHash": "0xeae035216361dec30b201751489eb73a4b55332cb903cf43bdf4247ef4ca9ef8",
          "blockNumber": "0xe307cd",
          "transactionHash": "0x2413865b6e0e93b854f39ce104eacc73ef2f1991040bd4bcbcfc63c2794793d4",
          "transactionIndex": "0x5",
          "logIndex": "0x4",
          "removed": false
        },
        {
          "address": "0xc1868e054425d378095a003ecba3823a5d0135c9",
          "topics": [
            "0x07ea52d82345d6e838192107d8fd7123d9c2ec8e916cd0aad13fd2b60db24644"
          ],
          "data": "0x000000000000000000000000000000000000000000000000000000000000006000000000000000000000000000000000000000000000000000000000000000a000000000000000000000000000000000000000000000000000000000000000c00000000000000000000000000000000000000000000000000000000000000001000000000000000000000000e1a12515f9ab2764b887bf60b923ca494ebbb2d600000000000000000000000000000000000000000000000000000000000000000000000000000000000000000000000000000000000000000000000000000001000000000000000000000000000000000000000000000000000003cb947eb288",
          "blockHash": "0xeae035216361dec30b201751489eb73a4b55332cb903cf43bdf4247ef4ca9ef8",
          "blockNumber": "0xe307cd",
          "transactionHash": "0x2413865b6e0e93b854f39ce104eacc73ef2f1991040bd4bcbcfc63c2794793d4",
          "transactionIndex": "0x5",
          "logIndex": "0x5",
          "removed": false
        },
        {
          "address": "0x6edce65403992e310a62460808c4b910d972f10f",
          "topics": [
            "0x1ab700d4ced0c005b164c0f789fd09fcbb0156d4c2041b8a3bfbcd961cd1567f"
          ],
          "data": "0x00000000000000000000000000000000000000000000000000000000000000600000000000000000000000000000000000000000000000000000000000000160000000000000000000000000c1868e054425d378095a003ecba3823a5d0135c900000000000000000000000000000000000000000000000000000000000000d101000000000000000100009d35000000000000000000000000bb9e6eb4494a7186a71ddd68500823782bd9d5aa00009d280000000000000000000000009888bba3730ed2cf060b38f4e3e6654b45a5dd04630f946ecef29910f25d25ea76123d4406c4dd9703bfc6bf95b598b2d877a8f60000000000000000000000000000000000000000000000000000000000000020000000000000000000000000000000000000000000000000000000000000001e7465737450726f6a6563744e616d654265747465724265576f726b696e670000000000000000000000000000000000000000000000000000000000000000000000000000000000000000000000001600030100110100000000000000000000000000015f9000000000000000000000",
          "blockHash": "0xeae035216361dec30b201751489eb73a4b55332cb903cf43bdf4247ef4ca9ef8",
          "blockNumber": "0xe307cd",
          "transactionHash": "0x2413865b6e0e93b854f39ce104eacc73ef2f1991040bd4bcbcfc63c2794793d4",
          "transactionIndex": "0x5",
          "logIndex": "0x6",
          "removed": false
        }
      ],
      "logsBloom": "0x20000000000000000000000000000000000000000000000000000000000000000000080000000200200000000000000000000000000000000000000000040000000000000000000000000000000000000000000000200000000000020000000000000000000000008200000000000000000000000000000000000000000000000000000000000020000000080000000000000000000000000000000000000000000000008000000000100000000000000000000000400000000440000000000080000000000000000000000000000000000000000000000000000000000000000000040000000000400004000000002000000000000000000000000000000000",
      "type": "0x2",
      "transactionHash": "0x2413865b6e0e93b854f39ce104eacc73ef2f1991040bd4bcbcfc63c2794793d4",
      "transactionIndex": "0x5",
      "blockHash": "0xeae035216361dec30b201751489eb73a4b55332cb903cf43bdf4247ef4ca9ef8",
      "blockNumber": "0xe307cd",
      "gasUsed": "0xb4cbb",
      "effectiveGasPrice": "0x155",
      "from": "0xb0efd2b19a5698a9c830548ac22708a28c9d4552",
      "to": "0xbb9e6eb4494a7186a71ddd68500823782bd9d5aa",
      "contractAddress": null,
      "l1BaseFeeScalar": "0x44d",
      "l1BlobBaseFee": "0xe1d49b5da2",
      "l1BlobBaseFeeScalar": "0xa118b",
      "l1Fee": "0x55639294d7aa",
      "l1GasPrice": "0xd55bd8a79",
      "l1GasUsed": "0x927"
    }
  ],
  "libraries": [],
  "pending": [],
  "returns": {},
  "timestamp": 1725525630,
  "chain": 84532,
  "commit": "8370d5b"
}