{
  "transactions": [
    {
      "hash": "0x89b14f0fb469e06e9fa8d26b1f080a4ae7a0223803e06d46433340beed46cadf",
      "transactionType": "CALL",
      "contractName": null,
      "contractAddress": "0xd1ab93cb9edcf68e33d541f5a5d929657b473fe0",
      "function": "setAttestationsEid(uint32)",
      "arguments": [
        "40245"
      ],
      "transaction": {
        "from": "0x12b2434a1022d5787bf06056f2885fe35de62bf8",
        "to": "0xd1ab93cb9edcf68e33d541f5a5d929657b473fe0",
        "gas": "0xa518",
        "value": "0x0",
        "input": "0x1f6a64770000000000000000000000000000000000000000000000000000000000009d35",
        "nonce": "0x62",
        "chainId": "0xaa37dc"
      },
      "additionalContracts": [],
      "isFixedGasLimit": false
    },
    {
      "hash": "0x393be4d30b55cfc49d8f0b208f89bdfa6f5ecf47ae74ea7a1c37ecc02769a004",
      "transactionType": "CALL",
      "contractName": null,
      "contractAddress": "0xd1ab93cb9edcf68e33d541f5a5d929657b473fe0",
      "function": "setPeer(uint32,bytes32)",
      "arguments": [
        "40245",
        "0x000000000000000000000000c0ce627692bc7a9849f8507e6df3d32360c2551f"
      ],
      "transaction": {
        "from": "0x12b2434a1022d5787bf06056f2885fe35de62bf8",
        "to": "0xd1ab93cb9edcf68e33d541f5a5d929657b473fe0",
        "gas": "0x10205",
        "value": "0x0",
        "input": "0x3400288b0000000000000000000000000000000000000000000000000000000000009d35000000000000000000000000c0ce627692bc7a9849f8507e6df3d32360c2551f",
        "nonce": "0x63",
        "chainId": "0xaa37dc"
      },
      "additionalContracts": [],
      "isFixedGasLimit": false
    }
  ],
  "receipts": [
    {
      "status": "0x1",
      "cumulativeGasUsed": "0x1608ec",
      "logs": [],
      "logsBloom": "0x00000000000000000000000000000000000000000000000000000000000000000000000000000000000000000000000000000000000000000000000000000000000000000000000000000000000000000000000000000000000000000000000000000000000000000000000000000000000000000000000000000000000000000000000000000000000000000000000000000000000000000000000000000000000000000000000000000000000000000000000000000000000000000000000000000000000000000000000000000000000000000000000000000000000000000000000000000000000000000000000000000000000000000000000000000000",
      "type": "0x2",
      "transactionHash": "0x89b14f0fb469e06e9fa8d26b1f080a4ae7a0223803e06d46433340beed46cadf",
      "transactionIndex": "0x5",
      "blockHash": "0x0263cf27d15534afb518e51e7bd6f103384ee0f282be60f5286aec4f4e9c7b7d",
      "blockNumber": "0x102151b",
      "gasUsed": "0x70e3",
      "effectiveGasPrice": "0xf6a97",
      "from": "0x12b2434a1022d5787bf06056f2885fe35de62bf8",
      "to": "0xd1ab93cb9edcf68e33d541f5a5d929657b473fe0",
      "contractAddress": null,
      "l1BaseFeeScalar": "0x1db0",
      "l1BlobBaseFee": "0x30d7bb9b75",
      "l1BlobBaseFeeScalar": "0xd2730",
      "l1Fee": "0x1099939d70ff",
      "l1GasPrice": "0x33c1cb7eb",
      "l1GasUsed": "0x640"
    },
    {
      "status": "0x1",
      "cumulativeGasUsed": "0x16c3ba",
      "logs": [
        {
          "address": "0xd1ab93cb9edcf68e33d541f5a5d929657b473fe0",
          "topics": [
            "0x238399d427b947898edb290f5ff0f9109849b1c3ba196a42e35f00c50a54b98b"
          ],
          "data": "0x0000000000000000000000000000000000000000000000000000000000009d35000000000000000000000000c0ce627692bc7a9849f8507e6df3d32360c2551f",
          "blockHash": "0x0263cf27d15534afb518e51e7bd6f103384ee0f282be60f5286aec4f4e9c7b7d",
          "blockNumber": "0x102151b",
          "transactionHash": "0x393be4d30b55cfc49d8f0b208f89bdfa6f5ecf47ae74ea7a1c37ecc02769a004",
          "transactionIndex": "0x6",
          "logIndex": "0x1f",
          "removed": false
        }
      ],
      "logsBloom": "0x00000000000000000000000000000000000000000000000000000000000000000000000000000000000000000000000000000800000000000800000000000000000000000000000000000000000000000000000000000000000000000000000000000000000000000000000000000000000000000000000000000000000000000000080000000000000000000000000000000000000000000000000000000000000000000000000000000002000000000000000000000000000002000000000000000000000000000000000000000000000000000000000000040000000000000000000000000000000000000000000000000000000000000000000000000000",
      "type": "0x2",
      "transactionHash": "0x393be4d30b55cfc49d8f0b208f89bdfa6f5ecf47ae74ea7a1c37ecc02769a004",
      "transactionIndex": "0x6",
      "blockHash": "0x0263cf27d15534afb518e51e7bd6f103384ee0f282be60f5286aec4f4e9c7b7d",
      "blockNumber": "0x102151b",
      "gasUsed": "0xbace",
      "effectiveGasPrice": "0xf6a97",
      "from": "0x12b2434a1022d5787bf06056f2885fe35de62bf8",
      "to": "0xd1ab93cb9edcf68e33d541f5a5d929657b473fe0",
      "contractAddress": null,
      "l1BaseFeeScalar": "0x1db0",
      "l1BlobBaseFee": "0x30d7bb9b75",
      "l1BlobBaseFeeScalar": "0xd2730",
      "l1Fee": "0x1099939d70ff",
      "l1GasPrice": "0x33c1cb7eb",
      "l1GasUsed": "0x640"
    }
  ],
  "libraries": [],
  "pending": [],
  "returns": {},
  "timestamp": 1725629928,
  "chain": 11155420,
  "commit": "dc78ae4"
}