{
  "transactions": [
    {
      "hash": "0xcef42327812eab54780e7576957d05e5827354c4b8513f9f87fd5509b5f67ac0",
      "transactionType": "CALL",
      "contractName": null,
      "contractAddress": "0xa8fc227dcc5cef05bfdd726e88e6e237c043f0b2",
      "function": "setAttestationsEid(uint32)",
      "arguments": [
        "40245"
      ],
      "transaction": {
        "from": "0x12b2434a1022d5787bf06056f2885fe35de62bf8",
        "to": "0xa8fc227dcc5cef05bfdd726e88e6e237c043f0b2",
        "gas": "0xa518",
        "value": "0x0",
        "input": "0x1f6a64770000000000000000000000000000000000000000000000000000000000009d35",
        "nonce": "0xa4",
        "chainId": "0xaa37dc"
      },
      "additionalContracts": [],
      "isFixedGasLimit": false
    },
    {
      "hash": "0xc78d22e56506de9347dbb415fec3dc135842d79c5ebaa5a812d48449bea45889",
      "transactionType": "CALL",
      "contractName": null,
      "contractAddress": "0xa8fc227dcc5cef05bfdd726e88e6e237c043f0b2",
      "function": "setPeer(uint32,bytes32)",
      "arguments": [
        "40245",
        "0x000000000000000000000000c32b58a3aa4b65cbef6c64691e20b15e5553aca4"
      ],
      "transaction": {
        "from": "0x12b2434a1022d5787bf06056f2885fe35de62bf8",
        "to": "0xa8fc227dcc5cef05bfdd726e88e6e237c043f0b2",
        "gas": "0x10205",
        "value": "0x0",
        "input": "0x3400288b0000000000000000000000000000000000000000000000000000000000009d35000000000000000000000000c32b58a3aa4b65cbef6c64691e20b15e5553aca4",
        "nonce": "0xa5",
        "chainId": "0xaa37dc"
      },
      "additionalContracts": [],
      "isFixedGasLimit": false
    }
  ],
  "receipts": [
    {
      "status": "0x1",
      "cumulativeGasUsed": "0x4054e7",
      "logs": [],
      "logsBloom": "0x00000000000000000000000000000000000000000000000000000000000000000000000000000000000000000000000000000000000000000000000000000000000000000000000000000000000000000000000000000000000000000000000000000000000000000000000000000000000000000000000000000000000000000000000000000000000000000000000000000000000000000000000000000000000000000000000000000000000000000000000000000000000000000000000000000000000000000000000000000000000000000000000000000000000000000000000000000000000000000000000000000000000000000000000000000000",
      "type": "0x2",
      "transactionHash": "0xcef42327812eab54780e7576957d05e5827354c4b8513f9f87fd5509b5f67ac0",
      "transactionIndex": "0x9",
      "blockHash": "0xf1093a7a78f4787cb89c945eebc41a2d694ef5a64e0b7871aa6f393c8560625c",
      "blockNumber": "0x10232c8",
      "gasUsed": "0x70e3",
      "effectiveGasPrice": "0xf6aa4",
      "from": "0x12b2434a1022d5787bf06056f2885fe35de62bf8",
      "to": "0xa8fc227dcc5cef05bfdd726e88e6e237c043f0b2",
      "contractAddress": null,
      "l1BaseFeeScalar": "0x1db0",
      "l1BlobBaseFee": "0x32cc680154",
      "l1BlobBaseFeeScalar": "0xd2730",
      "l1Fee": "0x113dabcce291",
      "l1GasPrice": "0x2dd8d0c96",
      "l1GasUsed": "0x640"
    },
    {
      "status": "0x1",
      "cumulativeGasUsed": "0x410fb5",
      "logs": [
        {
          "address": "0xa8fc227dcc5cef05bfdd726e88e6e237c043f0b2",
          "topics": [
            "0x238399d427b947898edb290f5ff0f9109849b1c3ba196a42e35f00c50a54b98b"
          ],
          "data": "0x0000000000000000000000000000000000000000000000000000000000009d35000000000000000000000000c32b58a3aa4b65cbef6c64691e20b15e5553aca4",
          "blockHash": "0xf1093a7a78f4787cb89c945eebc41a2d694ef5a64e0b7871aa6f393c8560625c",
          "blockNumber": "0x10232c8",
          "transactionHash": "0xc78d22e56506de9347dbb415fec3dc135842d79c5ebaa5a812d48449bea45889",
          "transactionIndex": "0xa",
          "logIndex": "0x31",
          "removed": false
        }
      ],
      "logsBloom": "0x00000000000000000000000000000000000000000000100000000000000000000000000000000000000000000000000000000000000000000800000000000000000000000000000000000000000000000000000000000000000000000000000000000000000000000000000000000000000000000000000000000000000000000000000000000020000000000000000000000000000000000000000000000000000000000000000000000010000000000000000000000000000002000000000000000000000000000000000000000000000000000000000000040000000000000000000000000000000000000000000000000000000000000000000000000000",
      "type": "0x2",
      "transactionHash": "0xc78d22e56506de9347dbb415fec3dc135842d79c5ebaa5a812d48449bea45889",
      "transactionIndex": "0xa",
      "blockHash": "0xf1093a7a78f4787cb89c945eebc41a2d694ef5a64e0b7871aa6f393c8560625c",
      "blockNumber": "0x10232c8",
      "gasUsed": "0xbace",
      "effectiveGasPrice": "0xf6aa4",
      "from": "0x12b2434a1022d5787bf06056f2885fe35de62bf8",
      "to": "0xa8fc227dcc5cef05bfdd726e88e6e237c043f0b2",
      "contractAddress": null,
      "l1BaseFeeScalar": "0x1db0",
      "l1BlobBaseFee": "0x32cc680154",
      "l1BlobBaseFeeScalar": "0xd2730",
      "l1Fee": "0x113dabcce291",
      "l1GasPrice": "0x2dd8d0c96",
      "l1GasUsed": "0x640"
    }
  ],
  "libraries": [],
  "pending": [],
  "returns": {},
  "timestamp": 1725645122,
  "chain": 11155420,
  "commit": "dc78ae4"
}