{
  "transactions": [
    {
      "hash": "0xb94ce401530151813637b46083d0e3a6c2a9fcd862b0fbf8bcf84bf620632589",
      "transactionType": "CALL",
      "contractName": null,
      "contractAddress": "0xc121edef7be2bc9ea7e8bc6d697bd6af3730a266",
      "function": "setAttestationsEid(uint32)",
      "arguments": [
        "40245"
      ],
      "transaction": {
        "from": "0x12b2434a1022d5787bf06056f2885fe35de62bf8",
        "to": "0xc121edef7be2bc9ea7e8bc6d697bd6af3730a266",
        "gas": "0xa518",
        "value": "0x0",
        "input": "0x1f6a64770000000000000000000000000000000000000000000000000000000000009d35",
        "nonce": "0xae",
        "chainId": "0xaa37dc"
      },
      "additionalContracts": [],
      "isFixedGasLimit": false
    },
    {
      "hash": "0x982980895db6ebf56c8c0e602682dce10b72cb36b14e3c7aeb4574f2e878cc61",
      "transactionType": "CALL",
      "contractName": null,
      "contractAddress": "0xc121edef7be2bc9ea7e8bc6d697bd6af3730a266",
      "function": "setPeer(uint32,bytes32)",
      "arguments": [
        "40245",
        "0x0000000000000000000000000742e003fbe108fd92f7b089cdce906a9a143e2c"
      ],
      "transaction": {
        "from": "0x12b2434a1022d5787bf06056f2885fe35de62bf8",
        "to": "0xc121edef7be2bc9ea7e8bc6d697bd6af3730a266",
        "gas": "0x10205",
        "value": "0x0",
        "input": "0x3400288b0000000000000000000000000000000000000000000000000000000000009d350000000000000000000000000742e003fbe108fd92f7b089cdce906a9a143e2c",
        "nonce": "0xaf",
        "chainId": "0xaa37dc"
      },
      "additionalContracts": [],
      "isFixedGasLimit": false
    }
  ],
  "receipts": [
    {
      "status": "0x1",
      "cumulativeGasUsed": "0x5744a2",
      "logs": [],
      "logsBloom": "0x00000000000000000000000000000000000000000000000000000000000000000000000000000000000000000000000000000000000000000000000000000000000000000000000000000000000000000000000000000000000000000000000000000000000000000000000000000000000000000000000000000000000000000000000000000000000000000000000000000000000000000000000000000000000000000000000000000000000000000000000000000000000000000000000000000000000000000000000000000000000000000000000000000000000000000000000000000000000000000000000000000000000000000000000000000000",
      "type": "0x2",
      "transactionHash": "0xb94ce401530151813637b46083d0e3a6c2a9fcd862b0fbf8bcf84bf620632589",
      "transactionIndex": "0x5",
      "blockHash": "0x397364432d0fda08fb77642dfb1e23ca485ca93b591475552eb88ccd289d7074",
      "blockNumber": "0x1029699",
      "gasUsed": "0x70e3",
      "effectiveGasPrice": "0xf6b41",
      "from": "0x12b2434a1022d5787bf06056f2885fe35de62bf8",
      "to": "0xc121edef7be2bc9ea7e8bc6d697bd6af3730a266",
      "contractAddress": null,
      "l1BaseFeeScalar": "0x1db0",
      "l1BlobBaseFee": "0x11993d0609",
      "l1BlobBaseFeeScalar": "0xd2730",
      "l1Fee": "0x6000041287d",
      "l1GasPrice": "0x1900ee0f8",
      "l1GasUsed": "0x640"
    },
    {
      "status": "0x1",
      "cumulativeGasUsed": "0x57ff70",
      "logs": [
        {
          "address": "0xc121edef7be2bc9ea7e8bc6d697bd6af3730a266",
          "topics": [
            "0x238399d427b947898edb290f5ff0f9109849b1c3ba196a42e35f00c50a54b98b"
          ],
          "data": "0x0000000000000000000000000000000000000000000000000000000000009d350000000000000000000000000742e003fbe108fd92f7b089cdce906a9a143e2c",
          "blockHash": "0x397364432d0fda08fb77642dfb1e23ca485ca93b591475552eb88ccd289d7074",
          "blockNumber": "0x1029699",
          "transactionHash": "0x982980895db6ebf56c8c0e602682dce10b72cb36b14e3c7aeb4574f2e878cc61",
          "transactionIndex": "0x6",
          "logIndex": "0x50",
          "removed": false
        }
      ],
      "logsBloom": "0x00000000000000000000000000000000000000000000000000000000000000000000000000000000000000004000000000000000000000000800000000000000000000100000000000000000000000000000000000000000000000000000000000000000000000000000000000000000000100000000000000000000000000000000000000000000000000000000000000000000000000000000000000000000000000000000000000000000000000000000000000000000000002000000000000000000000000000000000000000000000000000000000000040000000000000000000000000000000000000000000000000000000000000000000000000000",
      "type": "0x2",
      "transactionHash": "0x982980895db6ebf56c8c0e602682dce10b72cb36b14e3c7aeb4574f2e878cc61",
      "transactionIndex": "0x6",
      "blockHash": "0x397364432d0fda08fb77642dfb1e23ca485ca93b591475552eb88ccd289d7074",
      "blockNumber": "0x1029699",
      "gasUsed": "0xbace",
      "effectiveGasPrice": "0xf6b41",
      "from": "0x12b2434a1022d5787bf06056f2885fe35de62bf8",
      "to": "0xc121edef7be2bc9ea7e8bc6d697bd6af3730a266",
      "contractAddress": null,
      "l1BaseFeeScalar": "0x1db0",
      "l1BlobBaseFee": "0x11993d0609",
      "l1BlobBaseFeeScalar": "0xd2730",
      "l1Fee": "0x6000041287d",
      "l1GasPrice": "0x1900ee0f8",
      "l1GasUsed": "0x640"
    }
  ],
  "libraries": [],
  "pending": [],
  "returns": {},
  "timestamp": 1725696228,
  "chain": 11155420,
  "commit": "c44a2e9"
}