{
  "transactions": [
    {
      "hash": "0xc5b3dcf2df7ce6c8c859a60987116f4c8f1a48ca5c1ab72d3ea7c0dfe9ef4ee2",
      "transactionType": "CALL",
      "contractName": null,
      "contractAddress": "0xac6734a2b13acf243f4c8b9aeda303d0fe544bd1",
      "function": "setAttestationsEid(uint32)",
      "arguments": [
        "40245"
      ],
      "transaction": {
        "from": "0x12b2434a1022d5787bf06056f2885fe35de62bf8",
        "to": "0xac6734a2b13acf243f4c8b9aeda303d0fe544bd1",
        "gas": "0xa518",
        "value": "0x0",
        "input": "0x1f6a64770000000000000000000000000000000000000000000000000000000000009d35",
        "nonce": "0x82",
        "chainId": "0xaa37dc"
      },
      "additionalContracts": [],
      "isFixedGasLimit": false
    },
    {
      "hash": "0x1fcd9458746e0e451868cec1664b6224a8af040da48b8222e4f761f19d2d9507",
      "transactionType": "CALL",
      "contractName": null,
      "contractAddress": "0xac6734a2b13acf243f4c8b9aeda303d0fe544bd1",
      "function": "setPeer(uint32,bytes32)",
      "arguments": [
        "40245",
        "0x0000000000000000000000005500999e37499c94e216bc1d829164734a1bba5a"
      ],
      "transaction": {
        "from": "0x12b2434a1022d5787bf06056f2885fe35de62bf8",
        "to": "0xac6734a2b13acf243f4c8b9aeda303d0fe544bd1",
        "gas": "0x11121",
        "value": "0x0",
        "input": "0x3400288b0000000000000000000000000000000000000000000000000000000000009d350000000000000000000000005500999e37499c94e216bc1d829164734a1bba5a",
        "nonce": "0x83",
        "chainId": "0xaa37dc"
      },
      "additionalContracts": [],
      "isFixedGasLimit": false
    }
  ],
  "receipts": [
    {
      "status": "0x1",
      "cumulativeGasUsed": "0x148af4",
      "logs": [],
      "logsBloom": "0x00000000000000000000000000000000000000000000000000000000000000000000000000000000000000000000000000000000000000000000000000000000000000000000000000000000000000000000000000000000000000000000000000000000000000000000000000000000000000000000000000000000000000000000000000000000000000000000000000000000000000000000000000000000000000000000000000000000000000000000000000000000000000000000000000000000000000000000000000000000000000000000000000000000000000000000000000000000000000000000000000000000000000000000000000000000",
      "type": "0x2",
      "transactionHash": "0xc5b3dcf2df7ce6c8c859a60987116f4c8f1a48ca5c1ab72d3ea7c0dfe9ef4ee2",
      "transactionIndex": "0x3",
      "blockHash": "0x6daa58593f1e3dcc648a49e1a8bdb0cb4aefdd1ae0ca7f82b044863fdf1232a9",
      "blockNumber": "0x1022201",
      "gasUsed": "0x70e3",
      "effectiveGasPrice": "0xf6a90",
      "from": "0x12b2434a1022d5787bf06056f2885fe35de62bf8",
      "to": "0xac6734a2b13acf243f4c8b9aeda303d0fe544bd1",
      "contractAddress": null,
      "l1BaseFeeScalar": "0x1db0",
      "l1BlobBaseFee": "0xd0c6b252ef",
      "l1BlobBaseFeeScalar": "0xd2730",
      "l1Fee": "0x46d9fba2d47e",
      "l1GasPrice": "0xba27c715d",
      "l1GasUsed": "0x640"
    },
    {
      "status": "0x1",
      "cumulativeGasUsed": "0x1545b6",
      "logs": [
        {
          "address": "0xac6734a2b13acf243f4c8b9aeda303d0fe544bd1",
          "topics": [
            "0x238399d427b947898edb290f5ff0f9109849b1c3ba196a42e35f00c50a54b98b"
          ],
          "data": "0x0000000000000000000000000000000000000000000000000000000000009d350000000000000000000000005500999e37499c94e216bc1d829164734a1bba5a",
          "blockHash": "0x6daa58593f1e3dcc648a49e1a8bdb0cb4aefdd1ae0ca7f82b044863fdf1232a9",
          "blockNumber": "0x1022201",
          "transactionHash": "0x1fcd9458746e0e451868cec1664b6224a8af040da48b8222e4f761f19d2d9507",
          "transactionIndex": "0x4",
          "logIndex": "0x19",
          "removed": false
        }
      ],
      "logsBloom": "0x00000000000000000000000000000000000000000000000000000000000000000000000000000000000000000000000000000000000000000800010000000000000000000000000000000000000000000000000000000000000000000000000000000000000000000000000000000000000000000000000000000000000000000000000000000000000000000000000000000000000000000000000000000000000000000000000000000000000000000000000000000000000002000000000000000000000000000000000000000000000000000000000000040000000000000000000000000000000000000000000000000000020000010000000000000000",
      "type": "0x2",
      "transactionHash": "0x1fcd9458746e0e451868cec1664b6224a8af040da48b8222e4f761f19d2d9507",
      "transactionIndex": "0x4",
      "blockHash": "0x6daa58593f1e3dcc648a49e1a8bdb0cb4aefdd1ae0ca7f82b044863fdf1232a9",
      "blockNumber": "0x1022201",
      "gasUsed": "0xbac2",
      "effectiveGasPrice": "0xf6a90",
      "from": "0x12b2434a1022d5787bf06056f2885fe35de62bf8",
      "to": "0xac6734a2b13acf243f4c8b9aeda303d0fe544bd1",
      "contractAddress": null,
      "l1BaseFeeScalar": "0x1db0",
      "l1BlobBaseFee": "0xd0c6b252ef",
      "l1BlobBaseFeeScalar": "0xd2730",
      "l1Fee": "0x46d9fba2d47e",
      "l1GasPrice": "0xba27c715d",
      "l1GasUsed": "0x640"
    }
  ],
  "libraries": [],
  "pending": [],
  "returns": {},
  "timestamp": 1725636533,
  "chain": 11155420,
  "commit": "dc78ae4"
}