{
  "transactions": [
    {
      "hash": "0x3134bbffa90024500a15dd03f63c6730bdc9fed082f7650ce7308fc74fcc792d",
      "transactionType": "CALL",
      "contractName": null,
      "contractAddress": "0xecfcaee7dce18423baef31b0fdfe90a881e08777",
      "function": "setAttestationsEid(uint32)",
      "arguments": [
        "40245"
      ],
      "transaction": {
        "from": "0x12b2434a1022d5787bf06056f2885fe35de62bf8",
        "to": "0xecfcaee7dce18423baef31b0fdfe90a881e08777",
        "gas": "0xa518",
        "value": "0x0",
        "input": "0x1f6a64770000000000000000000000000000000000000000000000000000000000009d35",
        "nonce": "0x8b",
        "chainId": "0xaa37dc"
      },
      "additionalContracts": [],
      "isFixedGasLimit": false
    },
    {
      "hash": "0x5b34ed757d8c19a33a3e03f80a4a34a37f0806074a1708a47eb68b26cd6d2e3f",
      "transactionType": "CALL",
      "contractName": null,
      "contractAddress": "0xecfcaee7dce18423baef31b0fdfe90a881e08777",
      "function": "setPeer(uint32,bytes32)",
      "arguments": [
        "40245",
        "0x00000000000000000000000099375a951b5efd15e7af1436339e9d0d369ea00f"
      ],
      "transaction": {
        "from": "0x12b2434a1022d5787bf06056f2885fe35de62bf8",
        "to": "0xecfcaee7dce18423baef31b0fdfe90a881e08777",
        "gas": "0x10205",
        "value": "0x0",
        "input": "0x3400288b0000000000000000000000000000000000000000000000000000000000009d3500000000000000000000000099375a951b5efd15e7af1436339e9d0d369ea00f",
        "nonce": "0x8c",
        "chainId": "0xaa37dc"
      },
      "additionalContracts": [],
      "isFixedGasLimit": false
    }
  ],
  "receipts": [
    {
      "status": "0x1",
      "cumulativeGasUsed": "0x54256a",
      "logs": [],
      "logsBloom": "0x00000000000000000000000000000000000000000000000000000000000000000000000000000000000000000000000000000000000000000000000000000000000000000000000000000000000000000000000000000000000000000000000000000000000000000000000000000000000000000000000000000000000000000000000000000000000000000000000000000000000000000000000000000000000000000000000000000000000000000000000000000000000000000000000000000000000000000000000000000000000000000000000000000000000000000000000000000000000000000000000000000000000000000000000000000000",
      "type": "0x2",
      "transactionHash": "0x3134bbffa90024500a15dd03f63c6730bdc9fed082f7650ce7308fc74fcc792d",
      "transactionIndex": "0xb",
      "blockHash": "0x186abe910e5fd882889e090ef59711e0c7c507230b40bad7bba53c6e34bd092a",
      "blockNumber": "0x1022ab1",
      "gasUsed": "0x70e3",
      "effectiveGasPrice": "0xf6a79",
      "from": "0x12b2434a1022d5787bf06056f2885fe35de62bf8",
      "to": "0xecfcaee7dce18423baef31b0fdfe90a881e08777",
      "contractAddress": null,
      "l1BaseFeeScalar": "0x1db0",
      "l1BlobBaseFee": "0x6b1b4fab51",
      "l1BlobBaseFeeScalar": "0xd2730",
      "l1Fee": "0x24555ee7e6d4",
      "l1GasPrice": "0x5a7e28565",
      "l1GasUsed": "0x640"
    },
    {
      "status": "0x1",
      "cumulativeGasUsed": "0x54e038",
      "logs": [
        {
          "address": "0xecfcaee7dce18423baef31b0fdfe90a881e08777",
          "topics": [
            "0x238399d427b947898edb290f5ff0f9109849b1c3ba196a42e35f00c50a54b98b"
          ],
          "data": "0x0000000000000000000000000000000000000000000000000000000000009d3500000000000000000000000099375a951b5efd15e7af1436339e9d0d369ea00f",
          "blockHash": "0x186abe910e5fd882889e090ef59711e0c7c507230b40bad7bba53c6e34bd092a",
          "blockNumber": "0x1022ab1",
          "transactionHash": "0x5b34ed757d8c19a33a3e03f80a4a34a37f0806074a1708a47eb68b26cd6d2e3f",
          "transactionIndex": "0xc",
          "logIndex": "0x45",
          "removed": false
        }
      ],
      "logsBloom": "0x00000000000000000000000000000000000000000000000000000000000000000000000000000000000000000000000000000000000000000800000000000000000000000000000000000000000000000000000000000000000000000000000000000000000000000000000000000004000000000000000000000000000000000000000000000000000000000080000000000000000000000000000000000000000000000000000000000000000000000000000000000000000002000000000000000000000000000000000000000000000000000000000000040000000000000000000000000000000000000000000000000000000000000000800000000000",
      "type": "0x2",
      "transactionHash": "0x5b34ed757d8c19a33a3e03f80a4a34a37f0806074a1708a47eb68b26cd6d2e3f",
      "transactionIndex": "0xc",
      "blockHash": "0x186abe910e5fd882889e090ef59711e0c7c507230b40bad7bba53c6e34bd092a",
      "blockNumber": "0x1022ab1",
      "gasUsed": "0xbace",
      "effectiveGasPrice": "0xf6a79",
      "from": "0x12b2434a1022d5787bf06056f2885fe35de62bf8",
      "to": "0xecfcaee7dce18423baef31b0fdfe90a881e08777",
      "contractAddress": null,
      "l1BaseFeeScalar": "0x1db0",
      "l1BlobBaseFee": "0x6b1b4fab51",
      "l1BlobBaseFeeScalar": "0xd2730",
      "l1Fee": "0x24555ee7e6d4",
      "l1GasPrice": "0x5a7e28565",
      "l1GasUsed": "0x640"
    }
  ],
  "libraries": [],
  "pending": [],
  "returns": {},
  "timestamp": 1725640982,
  "chain": 11155420,
  "commit": "dc78ae4"
}