{
  "transactions": [
    {
      "hash": "0x43f141a6acae733ce3820421a5fec7e1b2e6e92a4a81d5786098ff374d7c8957",
      "transactionType": "CALL",
      "contractName": null,
      "contractAddress": "0x6da70c3c286e44f8965c0c26d7d47dba074e9db0",
      "function": "setPeer(uint32,bytes32)",
      "arguments": [
        "40245",
        "0x000000000000000000000000651f45d00c1fecbc345f7ee708ffe4ab57aa46f6"
      ],
      "transaction": {
        "from": "0x12b2434a1022d5787bf06056f2885fe35de62bf8",
        "to": "0x6da70c3c286e44f8965c0c26d7d47dba074e9db0",
        "gas": "0x10205",
        "value": "0x0",
        "input": "0x3400288b0000000000000000000000000000000000000000000000000000000000009d35000000000000000000000000651f45d00c1fecbc345f7ee708ffe4ab57aa46f6",
        "nonce": "0x43",
        "chainId": "0xaa37dc"
      },
      "additionalContracts": [],
      "isFixedGasLimit": false
    },
    {
      "hash": "0x15859b75570a892d712f122f82f749145bc758a41147e4235311f4721bc0b3d6",
      "transactionType": "CALL",
      "contractName": null,
      "contractAddress": "0x6da70c3c286e44f8965c0c26d7d47dba074e9db0",
      "function": "setAttestationsEid(uint32)",
      "arguments": [
        "40245"
      ],
      "transaction": {
        "from": "0x12b2434a1022d5787bf06056f2885fe35de62bf8",
        "to": "0x6da70c3c286e44f8965c0c26d7d47dba074e9db0",
        "gas": "0xa518",
        "value": "0x0",
        "input": "0x1f6a64770000000000000000000000000000000000000000000000000000000000009d35",
        "nonce": "0x44",
        "chainId": "0xaa37dc"
      },
      "additionalContracts": [],
      "isFixedGasLimit": false
    }
  ],
  "receipts": [
    {
      "status": "0x1",
      "cumulativeGasUsed": "0xbb23f",
      "logs": [
        {
          "address": "0x6da70c3c286e44f8965c0c26d7d47dba074e9db0",
          "topics": [
            "0x238399d427b947898edb290f5ff0f9109849b1c3ba196a42e35f00c50a54b98b"
          ],
          "data": "0x0000000000000000000000000000000000000000000000000000000000009d35000000000000000000000000651f45d00c1fecbc345f7ee708ffe4ab57aa46f6",
          "blockHash": "0xdcc8912d77f010aae9a7621ae40042c9bad50f2b56ed520857923ba558ef5890",
          "blockNumber": "0x1019e85",
          "transactionHash": "0x43f141a6acae733ce3820421a5fec7e1b2e6e92a4a81d5786098ff374d7c8957",
          "transactionIndex": "0x4",
          "logIndex": "0xf",
          "removed": false
        }
      ],
      "logsBloom": "0x00000000000000000000000000000000000000000000000000000000000000000000000000000000000000000000000000000000000000000800000000000000000000000000000000000000000000000000000000000000000000000000000000000000000000000000000000000000000000000000000000000000000000000000000000000000000000000000000000000000000000000000000000000000000000000000000000000000000000000000000000400000000002000000000000000000000000000000000000000000000000000000000000040000000000040000000000000000000000000000000000000000000000000000000000000008",
      "type": "0x2",
      "transactionHash": "0x43f141a6acae733ce3820421a5fec7e1b2e6e92a4a81d5786098ff374d7c8957",
      "transactionIndex": "0x4",
      "blockHash": "0xdcc8912d77f010aae9a7621ae40042c9bad50f2b56ed520857923ba558ef5890",
      "blockNumber": "0x1019e85",
      "gasUsed": "0xbace",
      "effectiveGasPrice": "0xf437b",
      "from": "0x12b2434a1022d5787bf06056f2885fe35de62bf8",
      "to": "0x6da70c3c286e44f8965c0c26d7d47dba074e9db0",
      "contractAddress": null,
      "l1BaseFeeScalar": "0x1db0",
      "l1BlobBaseFee": "0x1083b7a2674",
      "l1BlobBaseFeeScalar": "0xd2730",
      "l1Fee": "0x58fe5c79ba76",
      "l1GasPrice": "0x7482372b",
      "l1GasUsed": "0x640"
    },
    {
      "status": "0x1",
      "cumulativeGasUsed": "0xc2322",
      "logs": [],
      "logsBloom": "0x00000000000000000000000000000000000000000000000000000000000000000000000000000000000000000000000000000000000000000000000000000000000000000000000000000000000000000000000000000000000000000000000000000000000000000000000000000000000000000000000000000000000000000000000000000000000000000000000000000000000000000000000000000000000000000000000000000000000000000000000000000000000000000000000000000000000000000000000000000000000000000000000000000000000000000000000000000000000000000000000000000000000000000000000000000000",
      "type": "0x2",
      "transactionHash": "0x15859b75570a892d712f122f82f749145bc758a41147e4235311f4721bc0b3d6",
      "transactionIndex": "0x5",
      "blockHash": "0xdcc8912d77f010aae9a7621ae40042c9bad50f2b56ed520857923ba558ef5890",
      "blockNumber": "0x1019e85",
      "gasUsed": "0x70e3",
      "effectiveGasPrice": "0xf437b",
      "from": "0x12b2434a1022d5787bf06056f2885fe35de62bf8",
      "to": "0x6da70c3c286e44f8965c0c26d7d47dba074e9db0",
      "contractAddress": null,
      "l1BaseFeeScalar": "0x1db0",
      "l1BlobBaseFee": "0x1083b7a2674",
      "l1BlobBaseFeeScalar": "0xd2730",
      "l1Fee": "0x58fe5c79ba76",
      "l1GasPrice": "0x7482372b",
      "l1GasUsed": "0x640"
    }
  ],
  "libraries": [],
  "pending": [],
  "returns": {},
  "timestamp": 1725569208,
  "chain": 11155420,
  "commit": "2f89147"
}