{
  "transactions": [
    {
      "hash": "0x3b2c011d6ec045c4c82c828f407f4fc6c037626b924ac0214904d9e42d31b438",
      "transactionType": "CALL",
      "contractName": null,
      "contractAddress": "0x17a67922a3cdd02d8518f53392d953b6671eccaf",
      "function": "setAttestationsEid(uint32)",
      "arguments": [
        "40245"
      ],
      "transaction": {
        "from": "0x12b2434a1022d5787bf06056f2885fe35de62bf8",
        "to": "0x17a67922a3cdd02d8518f53392d953b6671eccaf",
        "gas": "0xa518",
        "value": "0x0",
        "input": "0x1f6a64770000000000000000000000000000000000000000000000000000000000009d35",
        "nonce": "0x6b",
        "chainId": "0xaa37dc"
      },
      "additionalContracts": [],
      "isFixedGasLimit": false
    },
    {
      "hash": "0x9f73f5fb9a5e0a9c0c3faff5504c687e8735646a05c2628597de5b67d8fc13ca",
      "transactionType": "CALL",
      "contractName": null,
      "contractAddress": "0x17a67922a3cdd02d8518f53392d953b6671eccaf",
      "function": "setPeer(uint32,bytes32)",
      "arguments": [
        "40245",
        "0x0000000000000000000000009947652885db3849caeecf489eca492e5f08ceb7"
      ],
      "transaction": {
        "from": "0x12b2434a1022d5787bf06056f2885fe35de62bf8",
        "to": "0x17a67922a3cdd02d8518f53392d953b6671eccaf",
        "gas": "0x10205",
        "value": "0x0",
        "input": "0x3400288b0000000000000000000000000000000000000000000000000000000000009d350000000000000000000000009947652885db3849caeecf489eca492e5f08ceb7",
        "nonce": "0x6c",
        "chainId": "0xaa37dc"
      },
      "additionalContracts": [],
      "isFixedGasLimit": false
    }
  ],
  "receipts": [
    {
      "status": "0x1",
      "cumulativeGasUsed": "0x12e3bc",
      "logs": [],
      "logsBloom": "0x00000000000000000000000000000000000000000000000000000000000000000000000000000000000000000000000000000000000000000000000000000000000000000000000000000000000000000000000000000000000000000000000000000000000000000000000000000000000000000000000000000000000000000000000000000000000000000000000000000000000000000000000000000000000000000000000000000000000000000000000000000000000000000000000000000000000000000000000000000000000000000000000000000000000000000000000000000000000000000000000000000000000000000000000000000000",
      "type": "0x2",
      "transactionHash": "0x3b2c011d6ec045c4c82c828f407f4fc6c037626b924ac0214904d9e42d31b438",
      "transactionIndex": "0x3",
      "blockHash": "0xaf377ee43bf413faf158cdfc421062449ec54cd7aaf486375a63796d4d363a62",
      "blockNumber": "0x10217f9",
      "gasUsed": "0x70e3",
      "effectiveGasPrice": "0xf6a93",
      "from": "0x12b2434a1022d5787bf06056f2885fe35de62bf8",
      "to": "0x17a67922a3cdd02d8518f53392d953b6671eccaf",
      "contractAddress": null,
      "l1BaseFeeScalar": "0x1db0",
      "l1BlobBaseFee": "0x112d00d34d4",
      "l1BlobBaseFeeScalar": "0xd2730",
      "l1Fee": "0x5cb95a30f0d6",
      "l1GasPrice": "0x3fcffaba2",
      "l1GasUsed": "0x640"
    },
    {
      "status": "0x1",
      "cumulativeGasUsed": "0x139e8a",
      "logs": [
        {
          "address": "0x17a67922a3cdd02d8518f53392d953b6671eccaf",
          "topics": [
            "0x238399d427b947898edb290f5ff0f9109849b1c3ba196a42e35f00c50a54b98b"
          ],
          "data": "0x0000000000000000000000000000000000000000000000000000000000009d350000000000000000000000009947652885db3849caeecf489eca492e5f08ceb7",
          "blockHash": "0xaf377ee43bf413faf158cdfc421062449ec54cd7aaf486375a63796d4d363a62",
          "blockNumber": "0x10217f9",
          "transactionHash": "0x9f73f5fb9a5e0a9c0c3faff5504c687e8735646a05c2628597de5b67d8fc13ca",
          "transactionIndex": "0x4",
          "logIndex": "0x1b",
          "removed": false
        }
      ],
      "logsBloom": "0x00000000000000000000000000000000000000000000000000000000000000000000000000000000000000000000000000000000000000000800000000000000000000000000000000000000000000000000000000000000000000000000000000000000000000000000000000000000000000000000000000000010020000000000000000000000000000000000000000000000000000008000000000000000000000000000000000000000000000000000000000000000000002000000000000000000000000000000000000000000000000000000000000040000000000000000000000000000000000000000000000000000000000000000000000000000",
      "type": "0x2",
      "transactionHash": "0x9f73f5fb9a5e0a9c0c3faff5504c687e8735646a05c2628597de5b67d8fc13ca",
      "transactionIndex": "0x4",
      "blockHash": "0xaf377ee43bf413faf158cdfc421062449ec54cd7aaf486375a63796d4d363a62",
      "blockNumber": "0x10217f9",
      "gasUsed": "0xbace",
      "effectiveGasPrice": "0xf6a93",
      "from": "0x12b2434a1022d5787bf06056f2885fe35de62bf8",
      "to": "0x17a67922a3cdd02d8518f53392d953b6671eccaf",
      "contractAddress": null,
      "l1BaseFeeScalar": "0x1db0",
      "l1BlobBaseFee": "0x112d00d34d4",
      "l1BlobBaseFeeScalar": "0xd2730",
      "l1Fee": "0x5cb95a30f0d6",
      "l1GasPrice": "0x3fcffaba2",
      "l1GasUsed": "0x640"
    }
  ],
  "libraries": [],
  "pending": [],
  "returns": {},
  "timestamp": 1725631397,
  "chain": 11155420,
  "commit": "dc78ae4"
}