{
  "transactions": [
    {
      "hash": "0xce6e976878a4f141c4448c362b95235835f352f89ffe31934f77a4c98ce66802",
      "transactionType": "CALL",
      "contractName": null,
      "contractAddress": "0x56efc51670dfbdbdfb2464e182edb2b72a5d4954",
      "function": "setAttestationsEid(uint32)",
      "arguments": [
        "40245"
      ],
      "transaction": {
        "from": "0x12b2434a1022d5787bf06056f2885fe35de62bf8",
        "to": "0x56efc51670dfbdbdfb2464e182edb2b72a5d4954",
        "gas": "0xa518",
        "value": "0x0",
        "input": "0x1f6a64770000000000000000000000000000000000000000000000000000000000009d35",
        "nonce": "0x92",
        "chainId": "0xaa37dc"
      },
      "additionalContracts": [],
      "isFixedGasLimit": false
    },
    {
      "hash": "0x526a2e9bf971c8f4233cc72ca7e2916618a5e73a8a5799bd768c1e3e12f63a02",
      "transactionType": "CALL",
      "contractName": null,
      "contractAddress": "0x56efc51670dfbdbdfb2464e182edb2b72a5d4954",
      "function": "setPeer(uint32,bytes32)",
      "arguments": [
        "40245",
        "0x0000000000000000000000002a17c4869fc313082a4a8b8f19c1950720f767a5"
      ],
      "transaction": {
        "from": "0x12b2434a1022d5787bf06056f2885fe35de62bf8",
        "to": "0x56efc51670dfbdbdfb2464e182edb2b72a5d4954",
        "gas": "0x10205",
        "value": "0x0",
        "input": "0x3400288b0000000000000000000000000000000000000000000000000000000000009d350000000000000000000000002a17c4869fc313082a4a8b8f19c1950720f767a5",
        "nonce": "0x93",
        "chainId": "0xaa37dc"
      },
      "additionalContracts": [],
      "isFixedGasLimit": false
    }
  ],
  "receipts": [
    {
      "status": "0x1",
      "cumulativeGasUsed": "0x1b0683",
      "logs": [],
      "logsBloom": "0x00000000000000000000000000000000000000000000000000000000000000000000000000000000000000000000000000000000000000000000000000000000000000000000000000000000000000000000000000000000000000000000000000000000000000000000000000000000000000000000000000000000000000000000000000000000000000000000000000000000000000000000000000000000000000000000000000000000000000000000000000000000000000000000000000000000000000000000000000000000000000000000000000000000000000000000000000000000000000000000000000000000000000000000000000000000",
      "type": "0x2",
      "transactionHash": "0xce6e976878a4f141c4448c362b95235835f352f89ffe31934f77a4c98ce66802",
      "transactionIndex": "0x7",
      "blockHash": "0xcd383dd32aecf4acf0d16ebf04242c9e6e382f0d130e44a1f7aceb9ba08d7578",
      "blockNumber": "0x1022c9d",
      "gasUsed": "0x70e3",
      "effectiveGasPrice": "0xf435f",
      "from": "0x12b2434a1022d5787bf06056f2885fe35de62bf8",
      "to": "0x56efc51670dfbdbdfb2464e182edb2b72a5d4954",
      "contractAddress": null,
      "l1BaseFeeScalar": "0x1db0",
      "l1BlobBaseFee": "0x73db1e1bf1",
      "l1BlobBaseFeeScalar": "0xd2730",
      "l1Fee": "0x275d57acae01",
      "l1GasPrice": "0x7728ea83d",
      "l1GasUsed": "0x640"
    },
    {
      "status": "0x1",
      "cumulativeGasUsed": "0x1bc151",
      "logs": [
        {
          "address": "0x56efc51670dfbdbdfb2464e182edb2b72a5d4954",
          "topics": [
            "0x238399d427b947898edb290f5ff0f9109849b1c3ba196a42e35f00c50a54b98b"
          ],
          "data": "0x0000000000000000000000000000000000000000000000000000000000009d350000000000000000000000002a17c4869fc313082a4a8b8f19c1950720f767a5",
          "blockHash": "0xcd383dd32aecf4acf0d16ebf04242c9e6e382f0d130e44a1f7aceb9ba08d7578",
          "blockNumber": "0x1022c9d",
          "transactionHash": "0x526a2e9bf971c8f4233cc72ca7e2916618a5e73a8a5799bd768c1e3e12f63a02",
          "transactionIndex": "0x8",
          "logIndex": "0x21",
          "removed": false
        }
      ],
      "logsBloom": "0x00000000400000000000000000004000000000000000000000000000000000000000000000000000000000000000000000000000000000000800000000000000000000000000000000000000000000000000000000000000000000000000000000000000000000000000000000000000000000000000000000000000000000000000000000000000000000000020000000000000000000000000000000000000000000000000000000000000000000000000000000000000000002000000000000000000000000000000000000000000000000000000000000040000000000000000000000000000000000000000000000000000000000000000000000000000",
      "type": "0x2",
      "transactionHash": "0x526a2e9bf971c8f4233cc72ca7e2916618a5e73a8a5799bd768c1e3e12f63a02",
      "transactionIndex": "0x8",
      "blockHash": "0xcd383dd32aecf4acf0d16ebf04242c9e6e382f0d130e44a1f7aceb9ba08d7578",
      "blockNumber": "0x1022c9d",
      "gasUsed": "0xbace",
      "effectiveGasPrice": "0xf435f",
      "from": "0x12b2434a1022d5787bf06056f2885fe35de62bf8",
      "to": "0x56efc51670dfbdbdfb2464e182edb2b72a5d4954",
      "contractAddress": null,
      "l1BaseFeeScalar": "0x1db0",
      "l1BlobBaseFee": "0x73db1e1bf1",
      "l1BlobBaseFeeScalar": "0xd2730",
      "l1Fee": "0x275d57acae01",
      "l1GasPrice": "0x7728ea83d",
      "l1GasUsed": "0x640"
    }
  ],
  "libraries": [],
  "pending": [],
  "returns": {},
  "timestamp": 1725641965,
  "chain": 11155420,
  "commit": "dc78ae4"
}