{
  "transactions": [
    {
      "hash": "0xf01f027de480e04d4176b0584e8c13bca783b7ee2ac7cf20f019fbaefce608c3",
      "transactionType": "CALL",
      "contractName": null,
      "contractAddress": "0x92d5f7e540e2f6174bee3b42ef102fbdb259f3ef",
      "function": "setAttestationsEid(uint32)",
      "arguments": [
        "40245"
      ],
      "transaction": {
        "from": "0x12b2434a1022d5787bf06056f2885fe35de62bf8",
        "to": "0x92d5f7e540e2f6174bee3b42ef102fbdb259f3ef",
        "gas": "0xa518",
        "value": "0x0",
        "input": "0x1f6a64770000000000000000000000000000000000000000000000000000000000009d35",
        "nonce": "0x49",
        "chainId": "0xaa37dc"
      },
      "additionalContracts": [],
      "isFixedGasLimit": false
    },
    {
      "hash": "0x4d0202e86c26b656b036d536f1b6b9bc52142a94cb7c1fa4a8a0a3d25b9fcb11",
      "transactionType": "CALL",
      "contractName": null,
      "contractAddress": "0x92d5f7e540e2f6174bee3b42ef102fbdb259f3ef",
      "function": "setPeer(uint32,bytes32)",
      "arguments": [
        "40245",
        "0x00000000000000000000000012cec32dfbfb19586a926ff3b8e45608176dda1a"
      ],
      "transaction": {
        "from": "0x12b2434a1022d5787bf06056f2885fe35de62bf8",
        "to": "0x92d5f7e540e2f6174bee3b42ef102fbdb259f3ef",
        "gas": "0x10205",
        "value": "0x0",
        "input": "0x3400288b0000000000000000000000000000000000000000000000000000000000009d3500000000000000000000000012cec32dfbfb19586a926ff3b8e45608176dda1a",
        "nonce": "0x4a",
        "chainId": "0xaa37dc"
      },
      "additionalContracts": [],
      "isFixedGasLimit": false
    }
  ],
  "receipts": [
    {
      "status": "0x1",
      "cumulativeGasUsed": "0x5a6f3",
      "logs": [],
      "logsBloom": "0x00000000000000000000000000000000000000000000000000000000000000000000000000000000000000000000000000000000000000000000000000000000000000000000000000000000000000000000000000000000000000000000000000000000000000000000000000000000000000000000000000000000000000000000000000000000000000000000000000000000000000000000000000000000000000000000000000000000000000000000000000000000000000000000000000000000000000000000000000000000000000000000000000000000000000000000000000000000000000000000000000000000000000000000000000000000",
      "type": "0x2",
      "transactionHash": "0xf01f027de480e04d4176b0584e8c13bca783b7ee2ac7cf20f019fbaefce608c3",
      "transactionIndex": "0x3",
      "blockHash": "0x7a8a33cbbc9dc21e8078c810b04b4b98d9f15212ad3a5261d4843799a1ccca6b",
      "blockNumber": "0x1020197",
      "gasUsed": "0x70e3",
      "effectiveGasPrice": "0xf6a5f",
      "from": "0x12b2434a1022d5787bf06056f2885fe35de62bf8",
      "to": "0x92d5f7e540e2f6174bee3b42ef102fbdb259f3ef",
      "contractAddress": null,
      "l1BaseFeeScalar": "0x1db0",
      "l1BlobBaseFee": "0x4b397535f8",
      "l1BlobBaseFeeScalar": "0xd2730",
      "l1Fee": "0x197b8a61e489",
      "l1GasPrice": "0x3391fe6bf",
      "l1GasUsed": "0x640"
    },
    {
      "status": "0x1",
      "cumulativeGasUsed": "0x661c1",
      "logs": [
        {
          "address": "0x92d5f7e540e2f6174bee3b42ef102fbdb259f3ef",
          "topics": [
            "0x238399d427b947898edb290f5ff0f9109849b1c3ba196a42e35f00c50a54b98b"
          ],
          "data": "0x0000000000000000000000000000000000000000000000000000000000009d3500000000000000000000000012cec32dfbfb19586a926ff3b8e45608176dda1a",
          "blockHash": "0x7a8a33cbbc9dc21e8078c810b04b4b98d9f15212ad3a5261d4843799a1ccca6b",
          "blockNumber": "0x1020197",
          "transactionHash": "0x4d0202e86c26b656b036d536f1b6b9bc52142a94cb7c1fa4a8a0a3d25b9fcb11",
          "transactionIndex": "0x4",
          "logIndex": "0x6",
          "removed": false
        }
      ],
      "logsBloom": "0x00000000000000000000000000000000000000000000000000000000000000000000000000000000000000000000000000000000000000000800000000000000000000000000000000000000000000000000000000000000000000000400000000000000000000000000000000000000000000000000000000000000000000000000000000000000000000000000000000000000000000000000000000004000000000000000000000000000000000000000000000000000000102000000000000000000000000000000000000000000000000000000000000040000000000000000000000000000000000000000000000000000000000000000000000000000",
      "type": "0x2",
      "transactionHash": "0x4d0202e86c26b656b036d536f1b6b9bc52142a94cb7c1fa4a8a0a3d25b9fcb11",
      "transactionIndex": "0x4",
      "blockHash": "0x7a8a33cbbc9dc21e8078c810b04b4b98d9f15212ad3a5261d4843799a1ccca6b",
      "blockNumber": "0x1020197",
      "gasUsed": "0xbace",
      "effectiveGasPrice": "0xf6a5f",
      "from": "0x12b2434a1022d5787bf06056f2885fe35de62bf8",
      "to": "0x92d5f7e540e2f6174bee3b42ef102fbdb259f3ef",
      "contractAddress": null,
      "l1BaseFeeScalar": "0x1db0",
      "l1BlobBaseFee": "0x4b397535f8",
      "l1BlobBaseFeeScalar": "0xd2730",
      "l1Fee": "0x197b8a61e489",
      "l1GasPrice": "0x3391fe6bf",
      "l1GasUsed": "0x640"
    }
  ],
  "libraries": [],
  "pending": [],
  "returns": {},
  "timestamp": 1725619938,
  "chain": 11155420,
  "commit": "dc78ae4"
}