{
  "transactions": [
    {
      "hash": "0xa0972ff1da683a543b0c6a3a2b8735decd635dded1a77c7c5c09e8c3083529c3",
      "transactionType": "CALL",
      "contractName": null,
      "contractAddress": "0xd95e48a59098c53aa070fc026970f44e9175b4e1",
      "function": "setAttestationsEid(uint32)",
      "arguments": [
        "40245"
      ],
      "transaction": {
        "from": "0x12b2434a1022d5787bf06056f2885fe35de62bf8",
        "to": "0xd95e48a59098c53aa070fc026970f44e9175b4e1",
        "gas": "0xa518",
        "value": "0x0",
        "input": "0x1f6a64770000000000000000000000000000000000000000000000000000000000009d35",
        "nonce": "0x50",
        "chainId": "0xaa37dc"
      },
      "additionalContracts": [],
      "isFixedGasLimit": false
    },
    {
      "hash": "0x0ef3332b89ee4302f703db72f7c7f986606a9a0c928ab8fec14002f9cb9d573f",
      "transactionType": "CALL",
      "contractName": null,
      "contractAddress": "0xd95e48a59098c53aa070fc026970f44e9175b4e1",
      "function": "setPeer(uint32,bytes32)",
      "arguments": [
        "40245",
        "0x000000000000000000000000f47d259df9b4b79b802f920f0e9688754a0597ee"
      ],
      "transaction": {
        "from": "0x12b2434a1022d5787bf06056f2885fe35de62bf8",
        "to": "0xd95e48a59098c53aa070fc026970f44e9175b4e1",
        "gas": "0x10205",
        "value": "0x0",
        "input": "0x3400288b0000000000000000000000000000000000000000000000000000000000009d35000000000000000000000000f47d259df9b4b79b802f920f0e9688754a0597ee",
        "nonce": "0x51",
        "chainId": "0xaa37dc"
      },
      "additionalContracts": [],
      "isFixedGasLimit": false
    }
  ],
  "receipts": [
    {
      "status": "0x1",
      "cumulativeGasUsed": "0x860e0",
      "logs": [],
      "logsBloom": "0x00000000000000000000000000000000000000000000000000000000000000000000000000000000000000000000000000000000000000000000000000000000000000000000000000000000000000000000000000000000000000000000000000000000000000000000000000000000000000000000000000000000000000000000000000000000000000000000000000000000000000000000000000000000000000000000000000000000000000000000000000000000000000000000000000000000000000000000000000000000000000000000000000000000000000000000000000000000000000000000000000000000000000000000000000000000",
      "type": "0x2",
      "transactionHash": "0xa0972ff1da683a543b0c6a3a2b8735decd635dded1a77c7c5c09e8c3083529c3",
      "transactionIndex": "0x5",
      "blockHash": "0x3687fadeaf24fc2b812be4f7763d93fe74f85f781852e570279585acf7297a8b",
      "blockNumber": "0x10203e1",
      "gasUsed": "0x70e3",
      "effectiveGasPrice": "0xf4345",
      "from": "0x12b2434a1022d5787bf06056f2885fe35de62bf8",
      "to": "0xd95e48a59098c53aa070fc026970f44e9175b4e1",
      "contractAddress": null,
      "l1BaseFeeScalar": "0x1db0",
      "l1BlobBaseFee": "0x32cc680154",
      "l1BlobBaseFeeScalar": "0xd2730",
      "l1Fee": "0x112e7f596488",
      "l1GasPrice": "0x19e1b2161",
      "l1GasUsed": "0x640"
    },
    {
      "status": "0x1",
      "cumulativeGasUsed": "0x91bae",
      "logs": [
        {
          "address": "0xd95e48a59098c53aa070fc026970f44e9175b4e1",
          "topics": [
            "0x238399d427b947898edb290f5ff0f9109849b1c3ba196a42e35f00c50a54b98b"
          ],
          "data": "0x0000000000000000000000000000000000000000000000000000000000009d35000000000000000000000000f47d259df9b4b79b802f920f0e9688754a0597ee",
          "blockHash": "0x3687fadeaf24fc2b812be4f7763d93fe74f85f781852e570279585acf7297a8b",
          "blockNumber": "0x10203e1",
          "transactionHash": "0x0ef3332b89ee4302f703db72f7c7f986606a9a0c928ab8fec14002f9cb9d573f",
          "transactionIndex": "0x6",
          "logIndex": "0xa",
          "removed": false
        }
      ],
      "logsBloom": "0x00000000000000000000000000000000000000000000000000000000000000000000000000000000000000000000000008000000000000000800000000000000000000000000000000000000000000000000000000000000000000000000000000000000000000000000000000000000000000000000000000000000000000000000000000000000000000000002000000000000000000000000000000000000000000000000000000000000000000000000000000000000000002000000000000000000000000000000000000000000000000000004000000040000000000000000000000000000000000000000000000000000000000000000000000000000",
      "type": "0x2",
      "transactionHash": "0x0ef3332b89ee4302f703db72f7c7f986606a9a0c928ab8fec14002f9cb9d573f",
      "transactionIndex": "0x6",
      "blockHash": "0x3687fadeaf24fc2b812be4f7763d93fe74f85f781852e570279585acf7297a8b",
      "blockNumber": "0x10203e1",
      "gasUsed": "0xbace",
      "effectiveGasPrice": "0xf4345",
      "from": "0x12b2434a1022d5787bf06056f2885fe35de62bf8",
      "to": "0xd95e48a59098c53aa070fc026970f44e9175b4e1",
      "contractAddress": null,
      "l1BaseFeeScalar": "0x1db0",
      "l1BlobBaseFee": "0x32cc680154",
      "l1BlobBaseFeeScalar": "0xd2730",
      "l1Fee": "0x112e7f596488",
      "l1GasPrice": "0x19e1b2161",
      "l1GasUsed": "0x640"
    }
  ],
  "libraries": [],
  "pending": [],
  "returns": {},
  "timestamp": 1725621104,
  "chain": 11155420,
  "commit": "dc78ae4"
}