{
  "transactions": [
    {
      "hash": "0x4cce3b9265c48c2b840ccce57338ba313b1af321ea330da3dac3b8f301e0b374",
      "transactionType": "CALL",
      "contractName": null,
      "contractAddress": "0x510a34176fc0cafd03a7386a77aee41ac7bd7a09",
      "function": "setAttestationsEid(uint32)",
      "arguments": [
        "40245"
      ],
      "transaction": {
        "from": "0x12b2434a1022d5787bf06056f2885fe35de62bf8",
        "to": "0x510a34176fc0cafd03a7386a77aee41ac7bd7a09",
        "gas": "0xa518",
        "value": "0x0",
        "input": "0x1f6a64770000000000000000000000000000000000000000000000000000000000009d35",
        "nonce": "0x74",
        "chainId": "0xaa37dc"
      },
      "additionalContracts": [],
      "isFixedGasLimit": false
    },
    {
      "hash": "0x0bb8d76218baf77eef5a307e38cebc43adfbde26d7ac59abd3436c72ab144766",
      "transactionType": "CALL",
      "contractName": null,
      "contractAddress": "0x510a34176fc0cafd03a7386a77aee41ac7bd7a09",
      "function": "setPeer(uint32,bytes32)",
      "arguments": [
        "40245",
        "0x00000000000000000000000077c2247f13a9e2640b1c362426546216451c288f"
      ],
      "transaction": {
        "from": "0x12b2434a1022d5787bf06056f2885fe35de62bf8",
        "to": "0x510a34176fc0cafd03a7386a77aee41ac7bd7a09",
        "gas": "0x10205",
        "value": "0x0",
        "input": "0x3400288b0000000000000000000000000000000000000000000000000000000000009d3500000000000000000000000077c2247f13a9e2640b1c362426546216451c288f",
        "nonce": "0x75",
        "chainId": "0xaa37dc"
      },
      "additionalContracts": [],
      "isFixedGasLimit": false
    }
  ],
  "receipts": [
    {
      "status": "0x1",
      "cumulativeGasUsed": "0xc60af",
      "logs": [],
      "logsBloom": "0x00000000000000000000000000000000000000000000000000000000000000000000000000000000000000000000000000000000000000000000000000000000000000000000000000000000000000000000000000000000000000000000000000000000000000000000000000000000000000000000000000000000000000000000000000000000000000000000000000000000000000000000000000000000000000000000000000000000000000000000000000000000000000000000000000000000000000000000000000000000000000000000000000000000000000000000000000000000000000000000000000000000000000000000000000000000",
      "type": "0x2",
      "transactionHash": "0x4cce3b9265c48c2b840ccce57338ba313b1af321ea330da3dac3b8f301e0b374",
      "transactionIndex": "0x4",
      "blockHash": "0x85d34f5a7ffcae50547d58ac4b63c0902183ed61b865017f34946b0289a29fb0",
      "blockNumber": "0x1021b03",
      "gasUsed": "0x70e3",
      "effectiveGasPrice": "0xf6ac6",
      "from": "0x12b2434a1022d5787bf06056f2885fe35de62bf8",
      "to": "0x510a34176fc0cafd03a7386a77aee41ac7bd7a09",
      "contractAddress": null,
      "l1BaseFeeScalar": "0x1db0",
      "l1BlobBaseFee": "0xb9942c91c7",
      "l1BlobBaseFeeScalar": "0xd2730",
      "l1Fee": "0x3ed817187393",
      "l1GasPrice": "0x77ff1037c",
      "l1GasUsed": "0x640"
    },
    {
      "status": "0x1",
      "cumulativeGasUsed": "0xd1b7d",
      "logs": [
        {
          "address": "0x510a34176fc0cafd03a7386a77aee41ac7bd7a09",
          "topics": [
            "0x238399d427b947898edb290f5ff0f9109849b1c3ba196a42e35f00c50a54b98b"
          ],
          "data": "0x0000000000000000000000000000000000000000000000000000000000009d3500000000000000000000000077c2247f13a9e2640b1c362426546216451c288f",
          "blockHash": "0x85d34f5a7ffcae50547d58ac4b63c0902183ed61b865017f34946b0289a29fb0",
          "blockNumber": "0x1021b03",
          "transactionHash": "0x0bb8d76218baf77eef5a307e38cebc43adfbde26d7ac59abd3436c72ab144766",
          "transactionIndex": "0x5",
          "logIndex": "0x11",
          "removed": false
        }
      ],
      "logsBloom": "0x00000000000000000000000000000000000008000000000000000000000000000000000000000000000000000000000000000000000000000800000000000000000000000000000000000000000000000000000000000000000000000000000000000000000000000000000000000000000000000000000000000000000000000000000000000000000000000000000000000000000000000000000000000800000000000000000000000000000000000000000000000000000002000000000000000100000000000000000000000000000000000000000000040000000000000000000000000000000000000000000000000000000000000000000000000000",
      "type": "0x2",
      "transactionHash": "0x0bb8d76218baf77eef5a307e38cebc43adfbde26d7ac59abd3436c72ab144766",
      "transactionIndex": "0x5",
      "blockHash": "0x85d34f5a7ffcae50547d58ac4b63c0902183ed61b865017f34946b0289a29fb0",
      "blockNumber": "0x1021b03",
      "gasUsed": "0xbace",
      "effectiveGasPrice": "0xf6ac6",
      "from": "0x12b2434a1022d5787bf06056f2885fe35de62bf8",
      "to": "0x510a34176fc0cafd03a7386a77aee41ac7bd7a09",
      "contractAddress": null,
      "l1BaseFeeScalar": "0x1db0",
      "l1BlobBaseFee": "0xb9942c91c7",
      "l1BlobBaseFeeScalar": "0xd2730",
      "l1Fee": "0x3ed817187393",
      "l1GasPrice": "0x77ff1037c",
      "l1GasUsed": "0x640"
    }
  ],
  "libraries": [],
  "pending": [],
  "returns": {},
  "timestamp": 1725632954,
  "chain": 11155420,
  "commit": "dc78ae4"
}