{
  "transactions": [
    {
      "hash": "0x71d69f056a92b33311854d40ae9c5de210f76036e391187abfa4fe8980b61213",
      "transactionType": "CALL",
      "contractName": null,
      "contractAddress": "0x141ea5d5536d81123b4f34fc3f3aebd9603aa1ab",
      "function": "setPeer(uint32,bytes32)",
      "arguments": [
        "40245",
        "0x000000000000000000000000c1291707f5af0abeac2bf483053330bf1798189d"
      ],
      "transaction": {
        "from": "0x12b2434a1022d5787bf06056f2885fe35de62bf8",
        "to": "0x141ea5d5536d81123b4f34fc3f3aebd9603aa1ab",
        "gas": "0xada4",
        "value": "0x0",
        "input": "0x3400288b0000000000000000000000000000000000000000000000000000000000009d35000000000000000000000000c1291707f5af0abeac2bf483053330bf1798189d",
        "nonce": "0x1e",
        "chainId": "0xaa37dc"
      },
      "additionalContracts": [],
      "isFixedGasLimit": false
    },
    {
      "hash": "0x9c6ffa27816fdd52d22282aaa6cf91646d9fb6627529592c8b8d69f554f7fc26",
      "transactionType": "CALL",
      "contractName": null,
      "contractAddress": "0xc1291707f5af0abeac2bf483053330bf1798189d",
      "function": "setPeer(uint32,bytes32)",
      "arguments": [
        "40245",
        "0x000000000000000000000000141ea5d5536d81123b4f34fc3f3aebd9603aa1ab"
      ],
      "transaction": {
        "from": "0x12b2434a1022d5787bf06056f2885fe35de62bf8",
        "to": "0xc1291707f5af0abeac2bf483053330bf1798189d",
        "gas": "0x110f3",
        "value": "0x0",
        "input": "0x3400288b0000000000000000000000000000000000000000000000000000000000009d35000000000000000000000000141ea5d5536d81123b4f34fc3f3aebd9603aa1ab",
        "nonce": "0x1f",
        "chainId": "0xaa37dc"
      },
      "additionalContracts": [],
      "isFixedGasLimit": false
    }
  ],
  "receipts": [
    {
      "status": "0x1",
      "cumulativeGasUsed": "0x29064f",
      "logs": [
        {
          "address": "0x141ea5d5536d81123b4f34fc3f3aebd9603aa1ab",
          "topics": [
            "0x238399d427b947898edb290f5ff0f9109849b1c3ba196a42e35f00c50a54b98b"
          ],
          "data": "0x0000000000000000000000000000000000000000000000000000000000009d35000000000000000000000000c1291707f5af0abeac2bf483053330bf1798189d",
          "blockHash": "0x43f48fcdb56486fae5dee743d3a08ce5d7303070bea007f2066159bd7832b4d5",
          "blockNumber": "0x100f615",
          "transactionHash": "0x71d69f056a92b33311854d40ae9c5de210f76036e391187abfa4fe8980b61213",
          "transactionIndex": "0x5",
          "logIndex": "0x1c",
          "removed": false
        }
      ],
      "logsBloom": "0x00000000000000000000000000000000000000000000000000000000000000000000000000000000000000000000000000000000000000000800000000000000000000000000000000000000000000000000000000000000000000000000000000000000000000000000000000020000000000000000100000000000000000000000000000000000000000000000000000000000000000000000000000000000000000000000000000000000000000000000000000020000000002000000000000000000000000000000000000000000000000000000000000040000000000000000000000000000000000000000000000000000000000000000000000000000",
      "type": "0x2",
      "transactionHash": "0x71d69f056a92b33311854d40ae9c5de210f76036e391187abfa4fe8980b61213",
      "transactionIndex": "0x5",
      "blockHash": "0x43f48fcdb56486fae5dee743d3a08ce5d7303070bea007f2066159bd7832b4d5",
      "blockNumber": "0x100f615",
      "gasUsed": "0x76bb",
      "effectiveGasPrice": "0xf6a58",
      "from": "0x12b2434a1022d5787bf06056f2885fe35de62bf8",
      "to": "0x141ea5d5536d81123b4f34fc3f3aebd9603aa1ab",
      "contractAddress": null,
      "l1BaseFeeScalar": "0x1db0",
      "l1BlobBaseFee": "0x104502a8fc",
      "l1BlobBaseFeeScalar": "0xd2730",
      "l1Fee": "0x58f4012f321",
      "l1GasPrice": "0x1b62c2cd5",
      "l1GasUsed": "0x640"
    },
    {
      "status": "0x1",
      "cumulativeGasUsed": "0x29c0f1",
      "logs": [
        {
          "address": "0xc1291707f5af0abeac2bf483053330bf1798189d",
          "topics": [
            "0x238399d427b947898edb290f5ff0f9109849b1c3ba196a42e35f00c50a54b98b"
          ],
          "data": "0x0000000000000000000000000000000000000000000000000000000000009d35000000000000000000000000141ea5d5536d81123b4f34fc3f3aebd9603aa1ab",
          "blockHash": "0x43f48fcdb56486fae5dee743d3a08ce5d7303070bea007f2066159bd7832b4d5",
          "blockNumber": "0x100f615",
          "transactionHash": "0x9c6ffa27816fdd52d22282aaa6cf91646d9fb6627529592c8b8d69f554f7fc26",
          "transactionIndex": "0x6",
          "logIndex": "0x1d",
          "removed": false
        }
      ],
      "logsBloom": "0x00000000002000000000000000000000000000000000000000000000000000000000000000000000000000000000000000000000000000000800000000000000000004000000000000000000000000000000000000000000000020000000000000000000000000000000000000000000000000000000000000000000000000000000000000000000000000000000000000000000000000000000000000000000000000000000000000000000000000000000000000000000000002000000000000000000000000000000000000000000000000000000000000040000000000000000000000000000000000000000000000000000000000000000000000000000",
      "type": "0x2",
      "transactionHash": "0x9c6ffa27816fdd52d22282aaa6cf91646d9fb6627529592c8b8d69f554f7fc26",
      "transactionIndex": "0x6",
      "blockHash": "0x43f48fcdb56486fae5dee743d3a08ce5d7303070bea007f2066159bd7832b4d5",
      "blockNumber": "0x100f615",
      "gasUsed": "0xbaa2",
      "effectiveGasPrice": "0xf6a58",
      "from": "0x12b2434a1022d5787bf06056f2885fe35de62bf8",
      "to": "0xc1291707f5af0abeac2bf483053330bf1798189d",
      "contractAddress": null,
      "l1BaseFeeScalar": "0x1db0",
      "l1BlobBaseFee": "0x104502a8fc",
      "l1BlobBaseFeeScalar": "0xd2730",
      "l1Fee": "0x58f4012f321",
      "l1GasPrice": "0x1b62c2cd5",
      "l1GasUsed": "0x640"
    }
  ],
  "libraries": [],
  "pending": [],
  "returns": {},
  "timestamp": 1725482973,
  "chain": 11155420,
  "commit": "da4a4b9"
}