{
  "transactions": [
    {
      "hash": "0xed754999b1e80d4bd1aff03c66bb0aa7ac532552962738ab76503257d997461c",
      "transactionType": "CALL",
      "contractName": null,
      "contractAddress": "0xe734076f9b3c4af1920e92b218b4c3691a1b02d7",
      "function": "setAttestationsEid(uint32)",
      "arguments": [
        "40245"
      ],
      "transaction": {
        "from": "0xb0efd2b19a5698a9c830548ac22708a28c9d4552",
        "to": "0xe734076f9b3c4af1920e92b218b4c3691a1b02d7",
        "gas": "0xa518",
        "value": "0x0",
        "input": "0x1f6a64770000000000000000000000000000000000000000000000000000000000009d35",
        "nonce": "0x5a",
        "chainId": "0xaa37dc"
      },
      "additionalContracts": [],
      "isFixedGasLimit": false
    },
    {
      "hash": "0xe8ea00f5abf78901a6f3b48905c0dd34c302265608b0bd45eee26568ac65eb09",
      "transactionType": "CALL",
      "contractName": null,
      "contractAddress": "0xe734076f9b3c4af1920e92b218b4c3691a1b02d7",
      "function": "setPeer(uint32,bytes32)",
      "arguments": [
        "40245",
        "0x0000000000000000000000004f395890169559fdebe3f6da8822e86aa7ef390f"
      ],
      "transaction": {
        "from": "0xb0efd2b19a5698a9c830548ac22708a28c9d4552",
        "to": "0xe734076f9b3c4af1920e92b218b4c3691a1b02d7",
        "gas": "0x10205",
        "value": "0x0",
        "input": "0x3400288b0000000000000000000000000000000000000000000000000000000000009d350000000000000000000000004f395890169559fdebe3f6da8822e86aa7ef390f",
        "nonce": "0x5b",
        "chainId": "0xaa37dc"
      },
      "additionalContracts": [],
      "isFixedGasLimit": false
    }
  ],
  "receipts": [
    {
      "status": "0x1",
      "cumulativeGasUsed": "0x2cdf76",
      "logs": [],
      "logsBloom": "0x00000000000000000000000000000000000000000000000000000000000000000000000000000000000000000000000000000000000000000000000000000000000000000000000000000000000000000000000000000000000000000000000000000000000000000000000000000000000000000000000000000000000000000000000000000000000000000000000000000000000000000000000000000000000000000000000000000000000000000000000000000000000000000000000000000000000000000000000000000000000000000000000000000000000000000000000000000000000000000000000000000000000000000000000000000000",
      "type": "0x2",
      "transactionHash": "0xed754999b1e80d4bd1aff03c66bb0aa7ac532552962738ab76503257d997461c",
      "transactionIndex": "0x5",
      "blockHash": "0xf1d4e8c78ffab33c81875b77b9144a780e55dc2f9b204a7fe7cb056e76fe5ba4",
      "blockNumber": "0x10239a7",
      "gasUsed": "0x70e3",
      "effectiveGasPrice": "0xf6a8a",
      "from": "0xb0efd2b19a5698a9c830548ac22708a28c9d4552",
      "to": "0xe734076f9b3c4af1920e92b218b4c3691a1b02d7",
      "contractAddress": null,
      "l1BaseFeeScalar": "0x1db0",
      "l1BlobBaseFee": "0x1817b7d5fd",
      "l1BlobBaseFeeScalar": "0xd2730",
      "l1Fee": "0x829a96aceeb",
      "l1GasPrice": "0x10f0febac",
      "l1GasUsed": "0x640"
    },
    {
      "status": "0x1",
      "cumulativeGasUsed": "0x2d9a44",
      "logs": [
        {
          "address": "0xe734076f9b3c4af1920e92b218b4c3691a1b02d7",
          "topics": [
            "0x238399d427b947898edb290f5ff0f9109849b1c3ba196a42e35f00c50a54b98b"
          ],
          "data": "0x0000000000000000000000000000000000000000000000000000000000009d350000000000000000000000004f395890169559fdebe3f6da8822e86aa7ef390f",
          "blockHash": "0xf1d4e8c78ffab33c81875b77b9144a780e55dc2f9b204a7fe7cb056e76fe5ba4",
          "blockNumber": "0x10239a7",
          "transactionHash": "0xe8ea00f5abf78901a6f3b48905c0dd34c302265608b0bd45eee26568ac65eb09",
          "transactionIndex": "0x6",
          "logIndex": "0x1e",
          "removed": false
        }
      ],
      "logsBloom": "0x00000000000000000000000000000000000000000000020000000000000000000000000000000000000000020000000000000000000000000800000000000000000000000000000000000000000000000000000000000000000000000000000000000000000000000000000000000000000000000000000000000000000000000000000000000000000000000000000000000000000000000000000000000000000000000000000004000000000000000000000000000000000002000000000000000000000000000000000000000000000000000000000000040000000000000000000000000000000000000000000000000000000000000000000000000000",
      "type": "0x2",
      "transactionHash": "0xe8ea00f5abf78901a6f3b48905c0dd34c302265608b0bd45eee26568ac65eb09",
      "transactionIndex": "0x6",
      "blockHash": "0xf1d4e8c78ffab33c81875b77b9144a780e55dc2f9b204a7fe7cb056e76fe5ba4",
      "blockNumber": "0x10239a7",
      "gasUsed": "0xbace",
      "effectiveGasPrice": "0xf6a8a",
      "from": "0xb0efd2b19a5698a9c830548ac22708a28c9d4552",
      "to": "0xe734076f9b3c4af1920e92b218b4c3691a1b02d7",
      "contractAddress": null,
      "l1BaseFeeScalar": "0x1db0",
      "l1BlobBaseFee": "0x1817b7d5fd",
      "l1BlobBaseFeeScalar": "0xd2730",
      "l1Fee": "0x829a96aceeb",
      "l1GasPrice": "0x10f0febac",
      "l1GasUsed": "0x640"
    }
  ],
  "libraries": [],
  "pending": [],
  "returns": {},
  "timestamp": 1725648639,
  "chain": 11155420,
  "commit": "37e882d"
}