{
  "transactions": [
    {
      "hash": "0x564b34316717d94bdfb27b3127219f261f755d851db4fdb3ce03aa4b850cc15c",
      "transactionType": "CALL",
      "contractName": null,
      "contractAddress": "0xa2a60468c228c363db665d0016b6e5002efb835a",
      "function": "setAttestationsEid(uint32)",
      "arguments": [
        "40245"
      ],
      "transaction": {
        "from": "0x12b2434a1022d5787bf06056f2885fe35de62bf8",
        "to": "0xa2a60468c228c363db665d0016b6e5002efb835a",
        "gas": "0xa518",
        "value": "0x0",
        "input": "0x1f6a64770000000000000000000000000000000000000000000000000000000000009d35",
        "nonce": "0x7b",
        "chainId": "0xaa37dc"
      },
      "additionalContracts": [],
      "isFixedGasLimit": false
    },
    {
      "hash": "0x2452a2a2dde1df5c5492019dff25b2cba2caad1dd97995bd8ed62a762e318b17",
      "transactionType": "CALL",
      "contractName": null,
      "contractAddress": "0xa2a60468c228c363db665d0016b6e5002efb835a",
      "function": "setPeer(uint32,bytes32)",
      "arguments": [
        "40245",
        "0x000000000000000000000000cf184468a463270f45dfb5c1315a8d7413ac9f41"
      ],
      "transaction": {
        "from": "0x12b2434a1022d5787bf06056f2885fe35de62bf8",
        "to": "0xa2a60468c228c363db665d0016b6e5002efb835a",
        "gas": "0x10205",
        "value": "0x0",
        "input": "0x3400288b0000000000000000000000000000000000000000000000000000000000009d35000000000000000000000000cf184468a463270f45dfb5c1315a8d7413ac9f41",
        "nonce": "0x7c",
        "chainId": "0xaa37dc"
      },
      "additionalContracts": [],
      "isFixedGasLimit": false
    }
  ],
  "receipts": [
    {
      "status": "0x1",
      "cumulativeGasUsed": "0x12ea1a",
      "logs": [],
      "logsBloom": "0x00000000000000000000000000000000000000000000000000000000000000000000000000000000000000000000000000000000000000000000000000000000000000000000000000000000000000000000000000000000000000000000000000000000000000000000000000000000000000000000000000000000000000000000000000000000000000000000000000000000000000000000000000000000000000000000000000000000000000000000000000000000000000000000000000000000000000000000000000000000000000000000000000000000000000000000000000000000000000000000000000000000000000000000000000000000",
      "type": "0x2",
      "transactionHash": "0x564b34316717d94bdfb27b3127219f261f755d851db4fdb3ce03aa4b850cc15c",
      "transactionIndex": "0x3",
      "blockHash": "0xcff05a80e11ebcf9d0548b2efe8f2c72392f68d331f6edae0fdef1f5348d6132",
      "blockNumber": "0x1021f40",
      "gasUsed": "0x70e3",
      "effectiveGasPrice": "0xf6a9a",
      "from": "0x12b2434a1022d5787bf06056f2885fe35de62bf8",
      "to": "0xa2a60468c228c363db665d0016b6e5002efb835a",
      "contractAddress": null,
      "l1BaseFeeScalar": "0x1db0",
      "l1BlobBaseFee": "0x217acb8943d",
      "l1BlobBaseFeeScalar": "0xd2730",
      "l1Fee": "0xb4eaa498a361",
      "l1GasPrice": "0xb788450eb",
      "l1GasUsed": "0x640"
    },
    {
      "status": "0x1",
      "cumulativeGasUsed": "0x13a4e8",
      "logs": [
        {
          "address": "0xa2a60468c228c363db665d0016b6e5002efb835a",
          "topics": [
            "0x238399d427b947898edb290f5ff0f9109849b1c3ba196a42e35f00c50a54b98b"
          ],
          "data": "0x0000000000000000000000000000000000000000000000000000000000009d35000000000000000000000000cf184468a463270f45dfb5c1315a8d7413ac9f41",
          "blockHash": "0xcff05a80e11ebcf9d0548b2efe8f2c72392f68d331f6edae0fdef1f5348d6132",
          "blockNumber": "0x1021f40",
          "transactionHash": "0x2452a2a2dde1df5c5492019dff25b2cba2caad1dd97995bd8ed62a762e318b17",
          "transactionIndex": "0x4",
          "logIndex": "0x1b",
          "removed": false
        }
      ],
      "logsBloom": "0x00400000000000000000000000000000000000000000000000000000000000000000000000000000000000000000000000000000000000000800000000000000000000000000000000000000000000000000000000000000000000000000000000000000000000000000000000000000000000000000000000000000000000000000000000000000000000000000000000000000000000000000000000000000000000000000000000000000000000000000000200000000000002000000000000000000000000000000000000000000000000000100000000040000000000000000000000000000000000000000000000000000000000000000000000000000",
      "type": "0x2",
      "transactionHash": "0x2452a2a2dde1df5c5492019dff25b2cba2caad1dd97995bd8ed62a762e318b17",
      "transactionIndex": "0x4",
      "blockHash": "0xcff05a80e11ebcf9d0548b2efe8f2c72392f68d331f6edae0fdef1f5348d6132",
      "blockNumber": "0x1021f40",
      "gasUsed": "0xbace",
      "effectiveGasPrice": "0xf6a9a",
      "from": "0x12b2434a1022d5787bf06056f2885fe35de62bf8",
      "to": "0xa2a60468c228c363db665d0016b6e5002efb835a",
      "contractAddress": null,
      "l1BaseFeeScalar": "0x1db0",
      "l1BlobBaseFee": "0x217acb8943d",
      "l1BlobBaseFeeScalar": "0xd2730",
      "l1Fee": "0xb4eaa498a361",
      "l1GasPrice": "0xb788450eb",
      "l1GasUsed": "0x640"
    }
  ],
  "libraries": [],
  "pending": [],
  "returns": {},
  "timestamp": 1725635122,
  "chain": 11155420,
  "commit": "dc78ae4"
}