{
  "transactions": [
    {
      "hash": "0x79af763078599e1106ce0bb7c98f64001d421ee3e5429c6d6d5c742349d06791",
      "transactionType": "CALL",
      "contractName": null,
      "contractAddress": "0xfe4754206abd49ae46ada8b45878353d7bdd1b32",
      "function": "setAttestationsEid(uint32)",
      "arguments": [
        "40245"
      ],
      "transaction": {
        "from": "0x12b2434a1022d5787bf06056f2885fe35de62bf8",
        "to": "0xfe4754206abd49ae46ada8b45878353d7bdd1b32",
        "gas": "0xa518",
        "value": "0x0",
        "input": "0x1f6a64770000000000000000000000000000000000000000000000000000000000009d35",
        "nonce": "0x9b",
        "chainId": "0xaa37dc"
      },
      "additionalContracts": [],
      "isFixedGasLimit": false
    },
    {
      "hash": "0x8b685f035a5d3bd3985d5668e3a599e78cc10fd7f811b6a4851631a295e059d3",
      "transactionType": "CALL",
      "contractName": null,
      "contractAddress": "0xfe4754206abd49ae46ada8b45878353d7bdd1b32",
      "function": "setPeer(uint32,bytes32)",
      "arguments": [
        "40245",
        "0x000000000000000000000000a01d29bf2555850f2758c28b5c6ea2012297d5dd"
      ],
      "transaction": {
        "from": "0x12b2434a1022d5787bf06056f2885fe35de62bf8",
        "to": "0xfe4754206abd49ae46ada8b45878353d7bdd1b32",
        "gas": "0x10205",
        "value": "0x0",
        "input": "0x3400288b0000000000000000000000000000000000000000000000000000000000009d35000000000000000000000000a01d29bf2555850f2758c28b5c6ea2012297d5dd",
        "nonce": "0x9c",
        "chainId": "0xaa37dc"
      },
      "additionalContracts": [],
      "isFixedGasLimit": false
    }
  ],
  "receipts": [
    {
      "status": "0x1",
      "cumulativeGasUsed": "0x2d7c6b",
      "logs": [],
      "logsBloom": "0x00000000000000000000000000000000000000000000000000000000000000000000000000000000000000000000000000000000000000000000000000000000000000000000000000000000000000000000000000000000000000000000000000000000000000000000000000000000000000000000000000000000000000000000000000000000000000000000000000000000000000000000000000000000000000000000000000000000000000000000000000000000000000000000000000000000000000000000000000000000000000000000000000000000000000000000000000000000000000000000000000000000000000000000000000000000",
      "type": "0x2",
      "transactionHash": "0x79af763078599e1106ce0bb7c98f64001d421ee3e5429c6d6d5c742349d06791",
      "transactionIndex": "0x6",
      "blockHash": "0x383ea79a1569fc4ff657acef3881025b699959ee487d34c761be26f98cc61749",
      "blockNumber": "0x1022eeb",
      "gasUsed": "0x70e3",
      "effectiveGasPrice": "0xf6a85",
      "from": "0x12b2434a1022d5787bf06056f2885fe35de62bf8",
      "to": "0xfe4754206abd49ae46ada8b45878353d7bdd1b32",
      "contractAddress": null,
      "l1BaseFeeScalar": "0x1db0",
      "l1BlobBaseFee": "0x3b6fc4ce0f",
      "l1BlobBaseFeeScalar": "0xd2730",
      "l1Fee": "0x1439ae21c9e5",
      "l1GasPrice": "0x476030886",
      "l1GasUsed": "0x640"
    },
    {
      "status": "0x1",
      "cumulativeGasUsed": "0x2e3739",
      "logs": [
        {
          "address": "0xfe4754206abd49ae46ada8b45878353d7bdd1b32",
          "topics": [
            "0x238399d427b947898edb290f5ff0f9109849b1c3ba196a42e35f00c50a54b98b"
          ],
          "data": "0x0000000000000000000000000000000000000000000000000000000000009d35000000000000000000000000a01d29bf2555850f2758c28b5c6ea2012297d5dd",
          "blockHash": "0x383ea79a1569fc4ff657acef3881025b699959ee487d34c761be26f98cc61749",
          "blockNumber": "0x1022eeb",
          "transactionHash": "0x8b685f035a5d3bd3985d5668e3a599e78cc10fd7f811b6a4851631a295e059d3",
          "transactionIndex": "0x7",
          "logIndex": "0x31",
          "removed": false
        }
      ],
      "logsBloom": "0x00000000000000000000000000000000000000000000000000000000000000000000000000000000000000000000000000000000000000000800000400000000000000000000000000000000000000000000000000000000000000000000000000000000000000000000000000000000000000000000000000000000000000000008000000000000000000000000000000000000000000000000000000000000000000000000000000000000000000000000000040000000000002000000000000000000000000000000000000000000000000000000000000040000000000000000000000000000000000000000000000000000000000000000000000000000",
      "type": "0x2",
      "transactionHash": "0x8b685f035a5d3bd3985d5668e3a599e78cc10fd7f811b6a4851631a295e059d3",
      "transactionIndex": "0x7",
      "blockHash": "0x383ea79a1569fc4ff657acef3881025b699959ee487d34c761be26f98cc61749",
      "blockNumber": "0x1022eeb",
      "gasUsed": "0xbace",
      "effectiveGasPrice": "0xf6a85",
      "from": "0x12b2434a1022d5787bf06056f2885fe35de62bf8",
      "to": "0xfe4754206abd49ae46ada8b45878353d7bdd1b32",
      "contractAddress": null,
      "l1BaseFeeScalar": "0x1db0",
      "l1BlobBaseFee": "0x3b6fc4ce0f",
      "l1BlobBaseFeeScalar": "0xd2730",
      "l1Fee": "0x1439ae21c9e5",
      "l1GasPrice": "0x476030886",
      "l1GasUsed": "0x640"
    }
  ],
  "libraries": [],
  "pending": [],
  "returns": {},
  "timestamp": 1725643146,
  "chain": 11155420,
  "commit": "dc78ae4"
}