{
  "transactions": [
    {
      "hash": "0xb45b415dd0e4ded15604228d867931a727f6fb734ed92afe4d00a1b5ae7bf562",
      "transactionType": "CALL",
      "contractName": null,
      "contractAddress": "0xa2fbe87da6119b428c22927bac4183cb2bc718a3",
      "function": "setAttestationsEid(uint32)",
      "arguments": [
        "40245"
      ],
      "transaction": {
        "from": "0x12b2434a1022d5787bf06056f2885fe35de62bf8",
        "to": "0xa2fbe87da6119b428c22927bac4183cb2bc718a3",
        "gas": "0xa518",
        "value": "0x0",
        "input": "0x1f6a64770000000000000000000000000000000000000000000000000000000000009d35",
        "nonce": "0x59",
        "chainId": "0xaa37dc"
      },
      "additionalContracts": [],
      "isFixedGasLimit": false
    },
    {
      "hash": "0x18ae8c6270a26fbe9c95d4f66017adc9d3428474756590b154b130ee56e767e8",
      "transactionType": "CALL",
      "contractName": null,
      "contractAddress": "0xa2fbe87da6119b428c22927bac4183cb2bc718a3",
      "function": "setPeer(uint32,bytes32)",
      "arguments": [
        "40245",
        "0x0000000000000000000000002edd21000a84b174112a41189271b61104693952"
      ],
      "transaction": {
        "from": "0x12b2434a1022d5787bf06056f2885fe35de62bf8",
        "to": "0xa2fbe87da6119b428c22927bac4183cb2bc718a3",
        "gas": "0x11121",
        "value": "0x0",
        "input": "0x3400288b0000000000000000000000000000000000000000000000000000000000009d350000000000000000000000002edd21000a84b174112a41189271b61104693952",
        "nonce": "0x5a",
        "chainId": "0xaa37dc"
      },
      "additionalContracts": [],
      "isFixedGasLimit": false
    }
  ],
  "receipts": [
    {
      "status": "0x1",
      "cumulativeGasUsed": "0xdc934",
      "logs": [],
      "logsBloom": "0x00000000000000000000000000000000000000000000000000000000000000000000000000000000000000000000000000000000000000000000000000000000000000000000000000000000000000000000000000000000000000000000000000000000000000000000000000000000000000000000000000000000000000000000000000000000000000000000000000000000000000000000000000000000000000000000000000000000000000000000000000000000000000000000000000000000000000000000000000000000000000000000000000000000000000000000000000000000000000000000000000000000000000000000000000000000",
      "type": "0x2",
      "transactionHash": "0xb45b415dd0e4ded15604228d867931a727f6fb734ed92afe4d00a1b5ae7bf562",
      "transactionIndex": "0x3",
      "blockHash": "0x74df7dd379e89c6d71cae434a0bc44e7a31b9cb9a53bb74a989c3b8c44fce084",
      "blockNumber": "0x1020dc4",
      "gasUsed": "0x70e3",
      "effectiveGasPrice": "0xf6a5e",
      "from": "0x12b2434a1022d5787bf06056f2885fe35de62bf8",
      "to": "0xa2fbe87da6119b428c22927bac4183cb2bc718a3",
      "contractAddress": null,
      "l1BaseFeeScalar": "0x1db0",
      "l1BlobBaseFee": "0x515e8ba0ee",
      "l1BlobBaseFeeScalar": "0xd2730",
      "l1Fee": "0x1b8204e9a734",
      "l1GasPrice": "0x24d22e30e",
      "l1GasUsed": "0x640"
    },
    {
      "status": "0x1",
      "cumulativeGasUsed": "0xe83f6",
      "logs": [
        {
          "address": "0xa2fbe87da6119b428c22927bac4183cb2bc718a3",
          "topics": [
            "0x238399d427b947898edb290f5ff0f9109849b1c3ba196a42e35f00c50a54b98b"
          ],
          "data": "0x0000000000000000000000000000000000000000000000000000000000009d350000000000000000000000002edd21000a84b174112a41189271b61104693952",
          "blockHash": "0x74df7dd379e89c6d71cae434a0bc44e7a31b9cb9a53bb74a989c3b8c44fce084",
          "blockNumber": "0x1020dc4",
          "transactionHash": "0x18ae8c6270a26fbe9c95d4f66017adc9d3428474756590b154b130ee56e767e8",
          "transactionIndex": "0x4",
          "logIndex": "0x13",
          "removed": false
        }
      ],
      "logsBloom": "0x00000000000000000000000000000000000000000000000000000000000000000000000000000000000000000000000000000000000080000800000000000000000000000000000000000000000000000000000000000000004000000000000000000000000000000000000000000000000000000000000000000000000000000000000000000000000000000000000000000000000000000000000000000000000000000000040000000000000000000000000000000000000002000000000000000000000000000000000000000000000000000000000000040000000000000000000000000000000000000000000000000000000000000000000000000000",
      "type": "0x2",
      "transactionHash": "0x18ae8c6270a26fbe9c95d4f66017adc9d3428474756590b154b130ee56e767e8",
      "transactionIndex": "0x4",
      "blockHash": "0x74df7dd379e89c6d71cae434a0bc44e7a31b9cb9a53bb74a989c3b8c44fce084",
      "blockNumber": "0x1020dc4",
      "gasUsed": "0xbac2",
      "effectiveGasPrice": "0xf6a5e",
      "from": "0x12b2434a1022d5787bf06056f2885fe35de62bf8",
      "to": "0xa2fbe87da6119b428c22927bac4183cb2bc718a3",
      "contractAddress": null,
      "l1BaseFeeScalar": "0x1db0",
      "l1BlobBaseFee": "0x515e8ba0ee",
      "l1BlobBaseFeeScalar": "0xd2730",
      "l1Fee": "0x1b8204e9a734",
      "l1GasPrice": "0x24d22e30e",
      "l1GasUsed": "0x640"
    }
  ],
  "libraries": [],
  "pending": [],
  "returns": {},
  "timestamp": 1725626171,
  "chain": 11155420,
  "commit": "dc78ae4"
}