{
  "transactions": [
    {
      "hash": "0x1906a65c4e705089f43a0ccbc1da09c2e1b7047c958fda9a617668904c899e83",
      "transactionType": "CALL",
      "contractName": null,
      "contractAddress": "0x4e9de77b9bfce417399b512d02f422af093ebd97",
      "function": "setPeer(uint32,bytes32)",
      "arguments": [
        "40245",
        "0x0000000000000000000000003f8ad995e6205c8761a8514d3fec8797e69698d9"
      ],
      "transaction": {
        "from": "0xb0efd2b19a5698a9c830548ac22708a28c9d4552",
        "to": "0x4e9de77b9bfce417399b512d02f422af093ebd97",
        "gas": "0x10008",
        "value": "0x0",
        "input": "0x3400288b0000000000000000000000000000000000000000000000000000000000009d350000000000000000000000003f8ad995e6205c8761a8514d3fec8797e69698d9",
        "nonce": "0x17",
        "chainId": "0x128"
      },
      "additionalContracts": [],
      "isFixedGasLimit": false
    },
    {
      "hash": "0x55d1298d0a3be5d3a9f36660a5afe8228a68e3239945cbc33a66d81a772d427b",
      "transactionType": "CALL",
      "contractName": null,
      "contractAddress": "0x4e9de77b9bfce417399b512d02f422af093ebd97",
      "function": "setAdapterAddresses(address[])",
      "arguments": [
        "[0x58E294d6B380552C0Cd1c6fEd755E2260342b12F]"
      ],
      "transaction": {
        "from": "0xb0efd2b19a5698a9c830548ac22708a28c9d4552",
        "to": "0x4e9de77b9bfce417399b512d02f422af093ebd97",
        "gas": "0x17cbc",
        "value": "0x0",
        "input": "0xa324b2f70000000000000000000000000000000000000000000000000000000000000020000000000000000000000000000000000000000000000000000000000000000100000000000000000000000058e294d6b380552c0cd1c6fed755e2260342b12f",
        "nonce": "0x18",
        "chainId": "0x128"
      },
      "additionalContracts": [],
      "isFixedGasLimit": false
    }
  ],
  "receipts": [
    {
      "status": "0x1",
      "cumulativeGasUsed": "0x1fd6b",
      "logs": [
        {
          "address": "0x4e9de77b9bfce417399b512d02f422af093ebd97",
          "topics": [
            "0x238399d427b947898edb290f5ff0f9109849b1c3ba196a42e35f00c50a54b98b"
          ],
          "data": "0x0000000000000000000000000000000000000000000000000000000000009d350000000000000000000000003f8ad995e6205c8761a8514d3fec8797e69698d9",
          "blockHash": "0x0d044a2538bebe01bbff23dee22ea32546e0dc8a628824734b4944bed5efb98d",
          "blockNumber": "0x8705b1",
          "transactionHash": "0x1906a65c4e705089f43a0ccbc1da09c2e1b7047c958fda9a617668904c899e83",
          "transactionIndex": "0x3",
          "logIndex": "0x0",
          "removed": false
        }
      ],
      "logsBloom": "0x00000000000000000000000000000000000000000000000000000000000000000000000000000000000000000000000000000000000000000800000000000000000000000000000000000000000000000000000000000000000000000000020000000000000000000000000000000000000000000000000000000000000000000000000000000000000000000000000000000000000000000000000000000000000000000000000000080000000000000000000000000000000002000000000000000000000000000000000000000000000000000000000000040000000000000000000000000002000000000000000000000000000000000000000000000000",
      "type": "0x2",
      "transactionHash": "0x1906a65c4e705089f43a0ccbc1da09c2e1b7047c958fda9a617668904c899e83",
      "transactionIndex": "0x3",
      "blockHash": "0x0d044a2538bebe01bbff23dee22ea32546e0dc8a628824734b4944bed5efb98d",
      "blockNumber": "0x8705b1",
      "gasUsed": "0xccd4",
      "effectiveGasPrice": "0x1a7c0741800",
      "from": "0xb0efd2b19a5698a9c830548ac22708a28c9d4552",
      "to": "0x4e9de77b9bfce417399b512d02f422af093ebd97",
      "contractAddress": "0x4e9de77b9bfce417399b512d02f422af093ebd97",
      "root": "0x56e81f171bcc55a6ff8345e692c0f86e5b48e01b996cadc001622fb5e363b421"
    },
    {
      "status": "0x1",
      "cumulativeGasUsed": "0x1fd6b",
      "logs": [
        {
          "address": "0x4e9de77b9bfce417399b512d02f422af093ebd97",
          "topics": [
            "0xe3b79b0152415c3a6a3b843b01948e52a65cb32668a2bbccef929ed5956669a5"
          ],
          "data": "0x0000000000000000000000000000000000000000000000000000000000000020000000000000000000000000000000000000000000000000000000000000000100000000000000000000000058e294d6b380552c0cd1c6fed755e2260342b12f",
          "blockHash": "0x0d044a2538bebe01bbff23dee22ea32546e0dc8a628824734b4944bed5efb98d",
          "blockNumber": "0x8705b1",
          "transactionHash": "0x55d1298d0a3be5d3a9f36660a5afe8228a68e3239945cbc33a66d81a772d427b",
          "transactionIndex": "0x5",
          "logIndex": "0x0",
          "removed": false
        }
      ],
      "logsBloom": "0x00000000000000000000000000000000000000000000000000000000000000000000000000000000008000000000000000000000000000000000000000000000000000000000000000000000000000000000000000000000000000000000020000000000000000000000000000000000000000000000000000000000000000000000001000001000000000000000000000000000000000000000000000000000000000000000000000080000000000000000000000000000000000000000000000000000000000000000000000000000000000000000000000000000000000000000000000000002000000000000000000000000000000000000000000000000",
      "type": "0x2",
      "transactionHash": "0x55d1298d0a3be5d3a9f36660a5afe8228a68e3239945cbc33a66d81a772d427b",
      "transactionIndex": "0x5",
      "blockHash": "0x0d044a2538bebe01bbff23dee22ea32546e0dc8a628824734b4944bed5efb98d",
      "blockNumber": "0x8705b1",
      "gasUsed": "0x13097",
      "effectiveGasPrice": "0x1a7c0741800",
      "from": "0xb0efd2b19a5698a9c830548ac22708a28c9d4552",
      "to": "0x4e9de77b9bfce417399b512d02f422af093ebd97",
      "contractAddress": "0x4e9de77b9bfce417399b512d02f422af093ebd97",
      "root": "0x56e81f171bcc55a6ff8345e692c0f86e5b48e01b996cadc001622fb5e363b421"
    }
  ],
  "libraries": [],
  "pending": [],
  "returns": {},
  "timestamp": 1725656813,
  "chain": 296,
  "commit": "37e882d"
}