{
  "transactions": [
    {
      "hash": "0x340c750f4edc28a2f6df6bf7021a3a506dc30c58cca088700b56dc88f48f351f",
      "transactionType": "CALL",
      "contractName": null,
      "contractAddress": "0x330b96b0153ec84a9d5b27a7a7e7047f9c898717",
      "function": "setPeer(uint32,bytes32)",
      "arguments": [
        "40245",
        "0x000000000000000000000000053d81199c95e265f2e369e4afc4b30eb8b228c3"
      ],
      "transaction": {
        "from": "0xb0efd2b19a5698a9c830548ac22708a28c9d4552",
        "to": "0x330b96b0153ec84a9d5b27a7a7e7047f9c898717",
        "gas": "0x10008",
        "value": "0x0",
        "input": "0x3400288b0000000000000000000000000000000000000000000000000000000000009d35000000000000000000000000053d81199c95e265f2e369e4afc4b30eb8b228c3",
        "nonce": "0xc",
        "chainId": "0x128"
      },
      "additionalContracts": [],
      "isFixedGasLimit": false
    },
    {
      "hash": "0x567db21c3e56df21eedf52680880fd3576e6eb1d4023b1e285e2408f7eab6c22",
      "transactionType": "CALL",
      "contractName": null,
      "contractAddress": "0x330b96b0153ec84a9d5b27a7a7e7047f9c898717",
      "function": "setAdapterAddresses(address[])",
      "arguments": [
        "[0xD163189d9ADd5eE1b740846E2b736823aA8D069c]"
      ],
      "transaction": {
        "from": "0xb0efd2b19a5698a9c830548ac22708a28c9d4552",
        "to": "0x330b96b0153ec84a9d5b27a7a7e7047f9c898717",
        "gas": "0x17cbc",
        "value": "0x0",
        "input": "0xa324b2f700000000000000000000000000000000000000000000000000000000000000200000000000000000000000000000000000000000000000000000000000000001000000000000000000000000d163189d9add5ee1b740846e2b736823aa8d069c",
        "nonce": "0xd",
        "chainId": "0x128"
      },
      "additionalContracts": [],
      "isFixedGasLimit": false
    }
  ],
  "receipts": [
    {
      "status": "0x1",
      "cumulativeGasUsed": "0x1fd6b",
      "logs": [
        {
          "address": "0x330b96b0153ec84a9d5b27a7a7e7047f9c898717",
          "topics": [
            "0x238399d427b947898edb290f5ff0f9109849b1c3ba196a42e35f00c50a54b98b"
          ],
          "data": "0x0000000000000000000000000000000000000000000000000000000000009d35000000000000000000000000053d81199c95e265f2e369e4afc4b30eb8b228c3",
          "blockHash": "0x91fa08aed80a6cfbbbf088a318756cbb78bcb7e680ccce0aa76064ea09edad60",
          "blockNumber": "0x870101",
          "transactionHash": "0x340c750f4edc28a2f6df6bf7021a3a506dc30c58cca088700b56dc88f48f351f",
          "transactionIndex": "0x0",
          "logIndex": "0x0",
          "removed": false
        }
      ],
      "logsBloom": "0x00000000000000000000000000000000000000000000000000000000000000000000000000000000000000000000000000000000000000000800000000000000000000000000800000000000000000000000000000000000000000000000000000000000000000000000000000000000000000000000000000000000000000000000000000000000000000000000000000000000000000000010000000000000000000000000000000000000000000000000000000000000000002000000000000000000000000000001000000000000000000000000000000040000000000000000000000000000000000000000000000000000000000000000000000000000",
      "type": "0x2",
      "transactionHash": "0x340c750f4edc28a2f6df6bf7021a3a506dc30c58cca088700b56dc88f48f351f",
      "transactionIndex": "0x0",
      "blockHash": "0x91fa08aed80a6cfbbbf088a318756cbb78bcb7e680ccce0aa76064ea09edad60",
      "blockNumber": "0x870101",
      "gasUsed": "0xccd4",
      "effectiveGasPrice": "0x1a7c0741800",
      "from": "0xb0efd2b19a5698a9c830548ac22708a28c9d4552",
      "to": "0x330b96b0153ec84a9d5b27a7a7e7047f9c898717",
      "contractAddress": "0x330b96b0153ec84a9d5b27a7a7e7047f9c898717",
      "root": "0x56e81f171bcc55a6ff8345e692c0f86e5b48e01b996cadc001622fb5e363b421"
    },
    {
      "status": "0x1",
      "cumulativeGasUsed": "0x1fd6b",
      "logs": [
        {
          "address": "0x330b96b0153ec84a9d5b27a7a7e7047f9c898717",
          "topics": [
            "0xe3b79b0152415c3a6a3b843b01948e52a65cb32668a2bbccef929ed5956669a5"
          ],
          "data": "0x00000000000000000000000000000000000000000000000000000000000000200000000000000000000000000000000000000000000000000000000000000001000000000000000000000000d163189d9add5ee1b740846e2b736823aa8d069c",
          "blockHash": "0x91fa08aed80a6cfbbbf088a318756cbb78bcb7e680ccce0aa76064ea09edad60",
          "blockNumber": "0x870101",
          "transactionHash": "0x567db21c3e56df21eedf52680880fd3576e6eb1d4023b1e285e2408f7eab6c22",
          "transactionIndex": "0x1",
          "logIndex": "0x0",
          "removed": false
        }
      ],
      "logsBloom": "0x00000000000000000000000000000000000000000000000000000000000000000000000000000000008000000000000000000000000000000000000000000000000000000000800000000000000000000000000000000000000000000000000000000000000000000000000000000000000000000000000000000000000000000000001000001000000000000000000000000000000000000010000000000000000000000000000000000000000000000000000000000000000000000000000000000000000000000001000000000000000000000000000000000000000000000000000000000000000000000000000000000000000000000000000000000000",
      "type": "0x2",
      "transactionHash": "0x567db21c3e56df21eedf52680880fd3576e6eb1d4023b1e285e2408f7eab6c22",
      "transactionIndex": "0x1",
      "blockHash": "0x91fa08aed80a6cfbbbf088a318756cbb78bcb7e680ccce0aa76064ea09edad60",
      "blockNumber": "0x870101",
      "gasUsed": "0x13097",
      "effectiveGasPrice": "0x1a7c0741800",
      "from": "0xb0efd2b19a5698a9c830548ac22708a28c9d4552",
      "to": "0x330b96b0153ec84a9d5b27a7a7e7047f9c898717",
      "contractAddress": "0x330b96b0153ec84a9d5b27a7a7e7047f9c898717",
      "root": "0x56e81f171bcc55a6ff8345e692c0f86e5b48e01b996cadc001622fb5e363b421"
    }
  ],
  "libraries": [],
  "pending": [],
  "returns": {},
  "timestamp": 1725654368,
  "chain": 296,
  "commit": "37e882d"
}