{
  "transactions": [
    {
      "hash": "0x2e0f0cbe770948e1ec8a18f31a40344ef395b338168c561d648501882350c79f",
      "transactionType": "CALL",
      "contractName": null,
      "contractAddress": "0x425631ddcf82700a85627da00c4afe1e6fd752d5",
      "function": "queueAirdropWithEqualDistribution(uint256,address[],uint32)",
      "arguments": [
        "1",
        "[0x0000000000000000000000000000000000000000]",
        "84532"
      ],
      "transaction": {
        "from": "0x9f7cc06b64a5ae410fe074acfe77d7151f7ba411",
        "to": "0x425631ddcf82700a85627da00c4afe1e6fd752d5",
        "gas": "0x2afb8",
        "value": "0x0",
        "input": "0xc6e23189000000000000000000000000000000000000000000000000000000000000000100000000000000000000000000000000000000000000000000000000000000600000000000000000000000000000000000000000000000000000000000014a3400000000000000000000000000000000000000000000000000000000000000010000000000000000000000000000000000000000000000000000000000000000",
        "nonce": "0x2",
        "chainId": "0xaa37dc"
      },
      "additionalContracts": [],
      "isFixedGasLimit": false
    }
  ],
  "receipts": [
    {
      "status": "0x1",
      "cumulativeGasUsed": "0x196fa0",
      "logs": [
        {
          "address": "0x425631ddcf82700a85627da00c4afe1e6fd752d5",
          "topics": [
            "0xf2ca44c469337968c6c9b4875f69c652e591056b46cc130222914a4ee68a9e40"
          ],
          "data": "0x000000000000000000000000000000000000000000000000000000000000000100000000000000000000000000000000000000000000000000000000000000600000000000000000000000000000000000000000000000000000000000014a3400000000000000000000000000000000000000000000000000000000000000010000000000000000000000000000000000000000000000000000000000000000",
          "blockHash": "0x9bc99b864a48127aad1dfc12d2849ae7e10f73f66cef249789ea093bf3d796a9",
          "blockNumber": "0x102eb19",
          "transactionHash": "0x2e0f0cbe770948e1ec8a18f31a40344ef395b338168c561d648501882350c79f",
          "transactionIndex": "0x4",
          "logIndex": "0x17",
          "removed": false
        }
      ],
      "logsBloom": "0x00000000000000000000000000000000000000000000000000000000000000000000000000000000020000000000000000000000000000000000000000000000000000000000000000000000000000000000000000000000002000000000000000000000000000000000000000000000200000000000000000000000000002000000000000000000000000000000000000000000000000000000000000000000000000000000000000000000000000000000000000020000000000000000000000000000000000000000000000000000000000000000000000000000000000000000000000000000000000000000000000000000000000000000000000000100",
      "type": "0x2",
      "transactionHash": "0x2e0f0cbe770948e1ec8a18f31a40344ef395b338168c561d648501882350c79f",
      "transactionIndex": "0x4",
      "blockHash": "0x9bc99b864a48127aad1dfc12d2849ae7e10f73f66cef249789ea093bf3d796a9",
      "blockNumber": "0x102eb19",
      "gasUsed": "0x1f1e6",
      "effectiveGasPrice": "0xf6a73",
      "from": "0x9f7cc06b64a5ae410fe074acfe77d7151f7ba411",
      "to": "0x425631ddcf82700a85627da00c4afe1e6fd752d5",
      "contractAddress": null,
      "l1BaseFeeScalar": "0x1db0",
      "l1BlobBaseFee": "0x18af8a639",
      "l1BlobBaseFeeScalar": "0xd2730",
      "l1Fee": "0x86b4b7d579",
      "l1GasPrice": "0x24091ed0",
      "l1GasUsed": "0x640"
    }
  ],
  "libraries": [],
  "pending": [],
  "returns": {},
  "timestamp": 1725739493,
  "chain": 11155420,
  "commit": "67fd3b7"
}