{
  "transactions": [
    {
      "hash": "0x131edff6afe80810501551eda2705abc13b32c020db400071381f41d66ed0971",
      "transactionType": "CALL",
      "contractName": null,
      "contractAddress": "0x12280143a5ce8c7b9e5d5d9dac240166fda88717",
      "function": "setPeer(uint32,bytes32)",
      "arguments": [
        "40245",
        "0x000000000000000000000000dfde2e0bba70ff6bac79cd66770d3d6a0ba24222"
      ],
      "transaction": {
        "from": "0x12b2434a1022d5787bf06056f2885fe35de62bf8",
        "to": "0x12280143a5ce8c7b9e5d5d9dac240166fda88717",
        "gas": "0x10014",
        "value": "0x0",
        "input": "0x3400288b0000000000000000000000000000000000000000000000000000000000009d35000000000000000000000000dfde2e0bba70ff6bac79cd66770d3d6a0ba24222",
        "nonce": "0x29",
        "chainId": "0xaa37dc"
      },
      "additionalContracts": [],
      "isFixedGasLimit": false
    },
    {
      "hash": "0xadc92b0af99a0d354b80b5330b22717488a6409fab5fc0549b9633d4626bfe88",
      "transactionType": "CALL",
      "contractName": null,
      "contractAddress": "0x12280143a5ce8c7b9e5d5d9dac240166fda88717",
      "function": "setAdapterAddresses(address[])",
      "arguments": [
        "[0x4390bbad9F2cd8F4E28C8B48435c24023823d442]"
      ],
      "transaction": {
        "from": "0x12b2434a1022d5787bf06056f2885fe35de62bf8",
        "to": "0x12280143a5ce8c7b9e5d5d9dac240166fda88717",
        "gas": "0x1737e",
        "value": "0x0",
        "input": "0xa324b2f7000000000000000000000000000000000000000000000000000000000000002000000000000000000000000000000000000000000000000000000000000000010000000000000000000000004390bbad9f2cd8f4e28c8b48435c24023823d442",
        "nonce": "0x2a",
        "chainId": "0xaa37dc"
      },
      "additionalContracts": [],
      "isFixedGasLimit": false
    }
  ],
  "receipts": [
    {
      "status": "0x1",
      "cumulativeGasUsed": "0x13c787",
      "logs": [
        {
          "address": "0x12280143a5ce8c7b9e5d5d9dac240166fda88717",
          "topics": [
            "0x238399d427b947898edb290f5ff0f9109849b1c3ba196a42e35f00c50a54b98b"
          ],
          "data": "0x0000000000000000000000000000000000000000000000000000000000009d35000000000000000000000000dfde2e0bba70ff6bac79cd66770d3d6a0ba24222",
          "blockHash": "0x7395abf79fedc9170d876cd990d7f37671e8518c913990a53069407a070747fb",
          "blockNumber": "0x1015c6f",
          "transactionHash": "0x131edff6afe80810501551eda2705abc13b32c020db400071381f41d66ed0971",
          "transactionIndex": "0x4",
          "logIndex": "0x1a",
          "removed": false
        }
      ],
      "logsBloom": "0x00000000000000000000000000000000000000000000000080000000000000000000000000000000000000000000000000000000000000000800000000000000000000000000000000000000000000000000000000000000000000000000000000000000000000000000000000000000000000000000000000000000000000000000000000000000000000000000000000000080000000000000000000000000000000000000000000000000000000000000000000000000000002000000002000000000000000000000000000000000000000000000000000040000000000000000000000000000000000000000000000000000000000000000000000000000",
      "type": "0x2",
      "transactionHash": "0x131edff6afe80810501551eda2705abc13b32c020db400071381f41d66ed0971",
      "transactionIndex": "0x4",
      "blockHash": "0x7395abf79fedc9170d876cd990d7f37671e8518c913990a53069407a070747fb",
      "blockNumber": "0x1015c6f",
      "gasUsed": "0xb966",
      "effectiveGasPrice": "0xf6a6c",
      "from": "0x12b2434a1022d5787bf06056f2885fe35de62bf8",
      "to": "0x12280143a5ce8c7b9e5d5d9dac240166fda88717",
      "contractAddress": null,
      "l1BaseFeeScalar": "0x1db0",
      "l1BlobBaseFee": "0xe1d49b5da2",
      "l1BlobBaseFeeScalar": "0xd2730",
      "l1Fee": "0x4c7c95e94c3e",
      "l1GasPrice": "0x95fef16f2",
      "l1GasUsed": "0x640"
    },
    {
      "status": "0x1",
      "cumulativeGasUsed": "0x14d47c",
      "logs": [],
      "logsBloom": "0x00000000000000000000000000000000000000000000000000000000000000000000000000000000000000000000000000000000000000000000000000000000000000000000000000000000000000000000000000000000000000000000000000000000000000000000000000000000000000000000000000000000000000000000000000000000000000000000000000000000000000000000000000000000000000000000000000000000000000000000000000000000000000000000000000000000000000000000000000000000000000000000000000000000000000000000000000000000000000000000000000000000000000000000000000000000",
      "type": "0x2",
      "transactionHash": "0xadc92b0af99a0d354b80b5330b22717488a6409fab5fc0549b9633d4626bfe88",
      "transactionIndex": "0x5",
      "blockHash": "0x7395abf79fedc9170d876cd990d7f37671e8518c913990a53069407a070747fb",
      "blockNumber": "0x1015c6f",
      "gasUsed": "0x10cf5",
      "effectiveGasPrice": "0xf6a6c",
      "from": "0x12b2434a1022d5787bf06056f2885fe35de62bf8",
      "to": "0x12280143a5ce8c7b9e5d5d9dac240166fda88717",
      "contractAddress": null,
      "l1BaseFeeScalar": "0x1db0",
      "l1BlobBaseFee": "0xe1d49b5da2",
      "l1BlobBaseFeeScalar": "0xd2730",
      "l1Fee": "0x4c7c95e94c3e",
      "l1GasPrice": "0x95fef16f2",
      "l1GasUsed": "0x640"
    }
  ],
  "libraries": [],
  "pending": [],
  "returns": {},
  "timestamp": 1725535371,
  "chain": 11155420,
  "commit": "6821207"
}