{
  "transactions": [
    {
      "hash": "0x1edd40ef2cc5ddcbf5d77ca05aae8635f1ca608e51fb7c872a9ddb6efdb89f0d",
      "transactionType": "CALL",
      "contractName": null,
      "contractAddress": "0x881e8454bbb85ed10d9c73969e528bc1bb5f83b0",
      "function": "setPeer(uint32,bytes32)",
      "arguments": [
        "40245",
        "0x0000000000000000000000005713f4ea2591f1bca73a49c206bcccc243a1bfb4"
      ],
      "transaction": {
        "from": "0xb0efd2b19a5698a9c830548ac22708a28c9d4552",
        "to": "0x881e8454bbb85ed10d9c73969e528bc1bb5f83b0",
        "gas": "0x10008",
        "value": "0x0",
        "input": "0x3400288b0000000000000000000000000000000000000000000000000000000000009d350000000000000000000000005713f4ea2591f1bca73a49c206bcccc243a1bfb4",
        "nonce": "0x34",
        "chainId": "0xaa37dc"
      },
      "additionalContracts": [],
      "isFixedGasLimit": false
    },
    {
      "hash": "0xb1cb8b94ac933db08b513bd69f999e22e2a0ca03de13a0431c9fc75ef09fa50c",
      "transactionType": "CALL",
      "contractName": null,
      "contractAddress": "0x881e8454bbb85ed10d9c73969e528bc1bb5f83b0",
      "function": "setAdapterAddresses(address[])",
      "arguments": [
        "[0x2f4D67203726C55EF7e6b2b59a255913C98c447f]"
      ],
      "transaction": {
        "from": "0xb0efd2b19a5698a9c830548ac22708a28c9d4552",
        "to": "0x881e8454bbb85ed10d9c73969e528bc1bb5f83b0",
        "gas": "0x188e1",
        "value": "0x0",
        "input": "0xa324b2f7000000000000000000000000000000000000000000000000000000000000002000000000000000000000000000000000000000000000000000000000000000010000000000000000000000002f4d67203726c55ef7e6b2b59a255913c98c447f",
        "nonce": "0x35",
        "chainId": "0xaa37dc"
      },
      "additionalContracts": [],
      "isFixedGasLimit": false
    }
  ],
  "receipts": [
    {
      "status": "0x1",
      "cumulativeGasUsed": "0x59d95",
      "logs": [
        {
          "address": "0x881e8454bbb85ed10d9c73969e528bc1bb5f83b0",
          "topics": [
            "0x238399d427b947898edb290f5ff0f9109849b1c3ba196a42e35f00c50a54b98b"
          ],
          "data": "0x0000000000000000000000000000000000000000000000000000000000009d350000000000000000000000005713f4ea2591f1bca73a49c206bcccc243a1bfb4",
          "blockHash": "0xc26ecccf262bd36d503a27e76c6452a49d505f270d4fef32fffd186d1667a929",
          "blockNumber": "0x10145ab",
          "transactionHash": "0x1edd40ef2cc5ddcbf5d77ca05aae8635f1ca608e51fb7c872a9ddb6efdb89f0d",
          "transactionIndex": "0x2",
          "logIndex": "0x6",
          "removed": false
        }
      ],
      "logsBloom": "0x00000000000000000000000000000000000000000000000000000000000000000000000000000000000000000000000000000000000000000800020000000000000000000000000000000000000000400000000000000000000000000000000000000000000000000001000000000000000000000000000000000000000000000000000000000000000000000000000000000000000000000000000000000000000000000000000000000000000000000000000000000000000002000000000000000000000000000000000000000000000000000000000000040000000000000000000000000000000000000000000000000000000000000000000000000000",
      "type": "0x2",
      "transactionHash": "0x1edd40ef2cc5ddcbf5d77ca05aae8635f1ca608e51fb7c872a9ddb6efdb89f0d",
      "transactionIndex": "0x2",
      "blockHash": "0xc26ecccf262bd36d503a27e76c6452a49d505f270d4fef32fffd186d1667a929",
      "blockNumber": "0x10145ab",
      "gasUsed": "0xb95e",
      "effectiveGasPrice": "0x68e78b0",
      "from": "0xb0efd2b19a5698a9c830548ac22708a28c9d4552",
      "to": "0x881e8454bbb85ed10d9c73969e528bc1bb5f83b0",
      "contractAddress": null,
      "l1BaseFeeScalar": "0x1db0",
      "l1BlobBaseFee": "0xa4f57ccd96",
      "l1BlobBaseFeeScalar": "0xd2730",
      "l1Fee": "0x383c9f0c379e",
      "l1GasPrice": "0xe91b4b844",
      "l1GasUsed": "0x640"
    },
    {
      "status": "0x1",
      "cumulativeGasUsed": "0x6aa38",
      "logs": [],
      "logsBloom": "0x00000000000000000000000000000000000000000000000000000000000000000000000000000000000000000000000000000000000000000000000000000000000000000000000000000000000000000000000000000000000000000000000000000000000000000000000000000000000000000000000000000000000000000000000000000000000000000000000000000000000000000000000000000000000000000000000000000000000000000000000000000000000000000000000000000000000000000000000000000000000000000000000000000000000000000000000000000000000000000000000000000000000000000000000000000000",
      "type": "0x2",
      "transactionHash": "0xb1cb8b94ac933db08b513bd69f999e22e2a0ca03de13a0431c9fc75ef09fa50c",
      "transactionIndex": "0x3",
      "blockHash": "0xc26ecccf262bd36d503a27e76c6452a49d505f270d4fef32fffd186d1667a929",
      "blockNumber": "0x10145ab",
      "gasUsed": "0x10ca3",
      "effectiveGasPrice": "0x68e78b0",
      "from": "0xb0efd2b19a5698a9c830548ac22708a28c9d4552",
      "to": "0x881e8454bbb85ed10d9c73969e528bc1bb5f83b0",
      "contractAddress": null,
      "l1BaseFeeScalar": "0x1db0",
      "l1BlobBaseFee": "0xa4f57ccd96",
      "l1BlobBaseFeeScalar": "0xd2730",
      "l1Fee": "0x383c9f0c379e",
      "l1GasPrice": "0xe91b4b844",
      "l1GasUsed": "0x640"
    }
  ],
  "libraries": [],
  "pending": [],
  "returns": {},
  "timestamp": 1725523719,
  "chain": 11155420,
  "commit": "8370d5b"
}