{
  "transactions": [
    {
      "hash": "0x0f68ea90ecb68dc2ad6ba8e1bb68affaef210afd24bf34a5ed48bf80dd4dd1a3",
      "transactionType": "CALL",
      "contractName": null,
      "contractAddress": "0x8fcbe84da945a1641e5e3ff1e09df2cf286573c5",
      "function": "setPeer(uint32,bytes32)",
      "arguments": [
        "40245",
        "0x0000000000000000000000001ab2fbaf0208d6f60f3220dfa911e1c2025aba77"
      ],
      "transaction": {
        "from": "0xb0efd2b19a5698a9c830548ac22708a28c9d4552",
        "to": "0x8fcbe84da945a1641e5e3ff1e09df2cf286573c5",
        "gas": "0x10008",
        "value": "0x0",
        "input": "0x3400288b0000000000000000000000000000000000000000000000000000000000009d350000000000000000000000001ab2fbaf0208d6f60f3220dfa911e1c2025aba77",
        "nonce": "0x28",
        "chainId": "0xaa37dc"
      },
      "additionalContracts": [],
      "isFixedGasLimit": false
    },
    {
      "hash": "0xe33ccee87908a2f8bb82b773b568916ed29aeb5cdeb3a1558c8b477ecc9d006a",
      "transactionType": "CALL",
      "contractName": null,
      "contractAddress": "0x8fcbe84da945a1641e5e3ff1e09df2cf286573c5",
      "function": "setAdapterAddresses(address[])",
      "arguments": [
        "[0x0db9516a5062D263bc51e86EC1B076F8DA705A27]"
      ],
      "transaction": {
        "from": "0xb0efd2b19a5698a9c830548ac22708a28c9d4552",
        "to": "0x8fcbe84da945a1641e5e3ff1e09df2cf286573c5",
        "gas": "0x188e1",
        "value": "0x0",
        "input": "0xa324b2f7000000000000000000000000000000000000000000000000000000000000002000000000000000000000000000000000000000000000000000000000000000010000000000000000000000000db9516a5062d263bc51e86ec1b076f8da705a27",
        "nonce": "0x29",
        "chainId": "0xaa37dc"
      },
      "additionalContracts": [],
      "isFixedGasLimit": false
    }
  ],
  "receipts": [
    {
      "status": "0x1",
      "cumulativeGasUsed": "0x131221",
      "logs": [
        {
          "address": "0x8fcbe84da945a1641e5e3ff1e09df2cf286573c5",
          "topics": [
            "0x238399d427b947898edb290f5ff0f9109849b1c3ba196a42e35f00c50a54b98b"
          ],
          "data": "0x0000000000000000000000000000000000000000000000000000000000009d350000000000000000000000001ab2fbaf0208d6f60f3220dfa911e1c2025aba77",
          "blockHash": "0xbce1461a978f00a004968718cf618dc87d98c87907820f73f514046e4f120f9c",
          "blockNumber": "0x1013ebb",
          "transactionHash": "0x0f68ea90ecb68dc2ad6ba8e1bb68affaef210afd24bf34a5ed48bf80dd4dd1a3",
          "transactionIndex": "0x3",
          "logIndex": "0x1b",
          "removed": false
        }
      ],
      "logsBloom": "0x00000000000000000000000000000000000000000000000000000000004000000000000000000000000000000000000000000000000000000800000000000000000000000000000000000000000000000000000000000000000000000040000000000000004000000000000000000000000000000000000000000000000000000000000000000000000000000000000000000000000000000000000000000000000000000000000000000000000000000000000000000000000002000000000000000000000000000000000000000000000000000000000000040000000000000000000000000000000000000000000000000000000000000000000000000000",
      "type": "0x2",
      "transactionHash": "0x0f68ea90ecb68dc2ad6ba8e1bb68affaef210afd24bf34a5ed48bf80dd4dd1a3",
      "transactionIndex": "0x3",
      "blockHash": "0xbce1461a978f00a004968718cf618dc87d98c87907820f73f514046e4f120f9c",
      "blockNumber": "0x1013ebb",
      "gasUsed": "0xb95e",
      "effectiveGasPrice": "0xf6a95",
      "from": "0xb0efd2b19a5698a9c830548ac22708a28c9d4552",
      "to": "0x8fcbe84da945a1641e5e3ff1e09df2cf286573c5",
      "contractAddress": null,
      "l1BaseFeeScalar": "0x1db0",
      "l1BlobBaseFee": "0x1c9d2ba8146",
      "l1BlobBaseFeeScalar": "0xd2730",
      "l1Fee": "0x9b383192a2e0",
      "l1GasPrice": "0x165ae47c5e",
      "l1GasUsed": "0x640"
    },
    {
      "status": "0x1",
      "cumulativeGasUsed": "0x141ec4",
      "logs": [],
      "logsBloom": "0x00000000000000000000000000000000000000000000000000000000000000000000000000000000000000000000000000000000000000000000000000000000000000000000000000000000000000000000000000000000000000000000000000000000000000000000000000000000000000000000000000000000000000000000000000000000000000000000000000000000000000000000000000000000000000000000000000000000000000000000000000000000000000000000000000000000000000000000000000000000000000000000000000000000000000000000000000000000000000000000000000000000000000000000000000000000",
      "type": "0x2",
      "transactionHash": "0xe33ccee87908a2f8bb82b773b568916ed29aeb5cdeb3a1558c8b477ecc9d006a",
      "transactionIndex": "0x4",
      "blockHash": "0xbce1461a978f00a004968718cf618dc87d98c87907820f73f514046e4f120f9c",
      "blockNumber": "0x1013ebb",
      "gasUsed": "0x10ca3",
      "effectiveGasPrice": "0xf6a95",
      "from": "0xb0efd2b19a5698a9c830548ac22708a28c9d4552",
      "to": "0x8fcbe84da945a1641e5e3ff1e09df2cf286573c5",
      "contractAddress": null,
      "l1BaseFeeScalar": "0x1db0",
      "l1BlobBaseFee": "0x1c9d2ba8146",
      "l1BlobBaseFeeScalar": "0xd2730",
      "l1Fee": "0x9b383192a2e0",
      "l1GasPrice": "0x165ae47c5e",
      "l1GasUsed": "0x640"
    }
  ],
  "libraries": [],
  "pending": [],
  "returns": {},
  "timestamp": 1725520166,
  "chain": 11155420,
  "commit": "8370d5b"
}