{
  "transactions": [
    {
      "hash": "0xfda336609f071a69b38ca8d4473ad64be5b75ddd75ae9bce3d1e7ef610381892",
      "transactionType": "CALL",
      "contractName": null,
      "contractAddress": "0xcd8d0a671230d8fe06d420d1d537d0b3d37bef87",
      "function": "setPeer(uint32,bytes32)",
      "arguments": [
        "40245",
        "0x000000000000000000000000868aa7e6a8c5b594e4c142b3c139c50ef0007920"
      ],
      "transaction": {
        "from": "0xb0efd2b19a5698a9c830548ac22708a28c9d4552",
        "to": "0xcd8d0a671230d8fe06d420d1d537d0b3d37bef87",
        "gas": "0x10f07",
        "value": "0x0",
        "input": "0x3400288b0000000000000000000000000000000000000000000000000000000000009d35000000000000000000000000868aa7e6a8c5b594e4c142b3c139c50ef0007920",
        "nonce": "0x51",
        "chainId": "0xaa37dc"
      },
      "additionalContracts": [],
      "isFixedGasLimit": false
    },
    {
      "hash": "0xef6f2b5edf58943b70ac3683e7260f3a2089994c22412f9c66661fd122480f1e",
      "transactionType": "CALL",
      "contractName": null,
      "contractAddress": "0xcd8d0a671230d8fe06d420d1d537d0b3d37bef87",
      "function": "setAdapterAddresses(address[])",
      "arguments": [
        "[0x966B9FB633C55FC65A8F6975f0849671e782d4d4]"
      ],
      "transaction": {
        "from": "0xb0efd2b19a5698a9c830548ac22708a28c9d4552",
        "to": "0xcd8d0a671230d8fe06d420d1d537d0b3d37bef87",
        "gas": "0x17cbc",
        "value": "0x0",
        "input": "0xa324b2f700000000000000000000000000000000000000000000000000000000000000200000000000000000000000000000000000000000000000000000000000000001000000000000000000000000966b9fb633c55fc65a8f6975f0849671e782d4d4",
        "nonce": "0x52",
        "chainId": "0xaa37dc"
      },
      "additionalContracts": [],
      "isFixedGasLimit": false
    }
  ],
  "receipts": [
    {
      "status": "0x1",
      "cumulativeGasUsed": "0x130930",
      "logs": [
        {
          "address": "0xcd8d0a671230d8fe06d420d1d537d0b3d37bef87",
          "topics": [
            "0x238399d427b947898edb290f5ff0f9109849b1c3ba196a42e35f00c50a54b98b"
          ],
          "data": "0x0000000000000000000000000000000000000000000000000000000000009d35000000000000000000000000868aa7e6a8c5b594e4c142b3c139c50ef0007920",
          "blockHash": "0x27249cc52ef6a7546f9ffd6f1eb7ed72029c18a41626985f096aee1d6afde784",
          "blockNumber": "0x102378b",
          "transactionHash": "0xfda336609f071a69b38ca8d4473ad64be5b75ddd75ae9bce3d1e7ef610381892",
          "transactionIndex": "0x4",
          "logIndex": "0x15",
          "removed": false
        }
      ],
      "logsBloom": "0x00000000000000000000000000000000000000000000000000000000000000000000000000000000000000000000000000000000000000000800000000000000000000000000000000000000000000000000000000000000000000000000000000000000000000000000400000000000000000000000000000000000000000000000000000000000000000000000000000000000000000000000000000000000000000000000000000000000000000000000000000000000000002000000800000000000000000000000000000000000000000000000000000040000000000000000000000000000000010000000000000000000000000000000000000000000",
      "type": "0x2",
      "transactionHash": "0xfda336609f071a69b38ca8d4473ad64be5b75ddd75ae9bce3d1e7ef610381892",
      "transactionIndex": "0x4",
      "blockHash": "0x27249cc52ef6a7546f9ffd6f1eb7ed72029c18a41626985f096aee1d6afde784",
      "blockNumber": "0x102378b",
      "gasUsed": "0xb952",
      "effectiveGasPrice": "0xf6aad",
      "from": "0xb0efd2b19a5698a9c830548ac22708a28c9d4552",
      "to": "0xcd8d0a671230d8fe06d420d1d537d0b3d37bef87",
      "contractAddress": null,
      "l1BaseFeeScalar": "0x1db0",
      "l1BlobBaseFee": "0x2ef655e2eb",
      "l1BlobBaseFeeScalar": "0xd2730",
      "l1Fee": "0xfe3b9d4cc1d",
      "l1GasPrice": "0x19c368fc9",
      "l1GasUsed": "0x640"
    },
    {
      "status": "0x1",
      "cumulativeGasUsed": "0x141cd6",
      "logs": [
        {
          "address": "0xcd8d0a671230d8fe06d420d1d537d0b3d37bef87",
          "topics": [
            "0xe3b79b0152415c3a6a3b843b01948e52a65cb32668a2bbccef929ed5956669a5"
          ],
          "data": "0x00000000000000000000000000000000000000000000000000000000000000200000000000000000000000000000000000000000000000000000000000000001000000000000000000000000966b9fb633c55fc65a8f6975f0849671e782d4d4",
          "blockHash": "0x27249cc52ef6a7546f9ffd6f1eb7ed72029c18a41626985f096aee1d6afde784",
          "blockNumber": "0x102378b",
          "transactionHash": "0xef6f2b5edf58943b70ac3683e7260f3a2089994c22412f9c66661fd122480f1e",
          "transactionIndex": "0x5",
          "logIndex": "0x16",
          "removed": false
        }
      ],
      "logsBloom": "0x00000000000000000000000000000000000000000000000000000000000000000000000000000000008000000000000000000000000000000000000000000000000000000000000000000000000000000000000000000000000000000000000000000000000000000000400000000000000000000000000000000000000000000000001000001000000000000000000000000000000000000000000000000000000000000000000000000000000000000000000000000000000000000000800000000000000000000000000000000000000000000000000000000000000000000000000000000000000010000000000000000000000000000000000000000000",
      "type": "0x2",
      "transactionHash": "0xef6f2b5edf58943b70ac3683e7260f3a2089994c22412f9c66661fd122480f1e",
      "transactionIndex": "0x5",
      "blockHash": "0x27249cc52ef6a7546f9ffd6f1eb7ed72029c18a41626985f096aee1d6afde784",
      "blockNumber": "0x102378b",
      "gasUsed": "0x113a6",
      "effectiveGasPrice": "0xf6aad",
      "from": "0xb0efd2b19a5698a9c830548ac22708a28c9d4552",
      "to": "0xcd8d0a671230d8fe06d420d1d537d0b3d37bef87",
      "contractAddress": null,
      "l1BaseFeeScalar": "0x1db0",
      "l1BlobBaseFee": "0x2ef655e2eb",
      "l1BlobBaseFeeScalar": "0xd2730",
      "l1Fee": "0xfe3b9d4cc1d",
      "l1GasPrice": "0x19c368fc9",
      "l1GasUsed": "0x640"
    }
  ],
  "libraries": [],
  "pending": [],
  "returns": {},
  "timestamp": 1725647561,
  "chain": 11155420,
  "commit": "37e882d"
}