{
  "transactions": [
    {
      "hash": "0x76c479d2f5107ae971f1b1c1f24f156e22b6a47433a09520d9cec4ace522efb1",
      "transactionType": "CALL",
      "contractName": null,
      "contractAddress": "0x89ad215ef488e254b804162c83d6bc7de0e1519c",
      "function": "setPeer(uint32,bytes32)",
      "arguments": [
        "40245",
        "0x00000000000000000000000085482d447fad3820477611baf3eb52ed209323d1"
      ],
      "transaction": {
        "from": "0x12b2434a1022d5787bf06056f2885fe35de62bf8",
        "to": "0x89ad215ef488e254b804162c83d6bc7de0e1519c",
        "gas": "0x10008",
        "value": "0x0",
        "input": "0x3400288b0000000000000000000000000000000000000000000000000000000000009d3500000000000000000000000085482d447fad3820477611baf3eb52ed209323d1",
        "nonce": "0x3c",
        "chainId": "0xaa37dc"
      },
      "additionalContracts": [],
      "isFixedGasLimit": false
    },
    {
      "hash": "0x71fbfea0b6828e3f669bab04298eaea9945b0e5edfeacce7bbfb2e4b0b549ebb",
      "transactionType": "CALL",
      "contractName": null,
      "contractAddress": "0x89ad215ef488e254b804162c83d6bc7de0e1519c",
      "function": "setAdapterAddresses(address[])",
      "arguments": [
        "[0xc90218Fd15Ab567357041018Dcb35932b00379ab]"
      ],
      "transaction": {
        "from": "0x12b2434a1022d5787bf06056f2885fe35de62bf8",
        "to": "0x89ad215ef488e254b804162c83d6bc7de0e1519c",
        "gas": "0x18901",
        "value": "0x0",
        "input": "0xa324b2f700000000000000000000000000000000000000000000000000000000000000200000000000000000000000000000000000000000000000000000000000000001000000000000000000000000c90218fd15ab567357041018dcb35932b00379ab",
        "nonce": "0x3d",
        "chainId": "0xaa37dc"
      },
      "additionalContracts": [],
      "isFixedGasLimit": false
    }
  ],
  "receipts": [
    {
      "status": "0x1",
      "cumulativeGasUsed": "0xdd511",
      "logs": [
        {
          "address": "0x89ad215ef488e254b804162c83d6bc7de0e1519c",
          "topics": [
            "0x238399d427b947898edb290f5ff0f9109849b1c3ba196a42e35f00c50a54b98b"
          ],
          "data": "0x0000000000000000000000000000000000000000000000000000000000009d3500000000000000000000000085482d447fad3820477611baf3eb52ed209323d1",
          "blockHash": "0x527c6cb01e25fb96cdcb8121a68263eafb9ec19b023cac8e9b8090e7a07ac4bf",
          "blockNumber": "0x1017442",
          "transactionHash": "0x76c479d2f5107ae971f1b1c1f24f156e22b6a47433a09520d9cec4ace522efb1",
          "transactionIndex": "0x2",
          "logIndex": "0x14",
          "removed": false
        }
      ],
      "logsBloom": "0x00000000000000000000000000000000000000000000000000000000000000000000000040000000000000000000000000000000000000000800000000000000000000000000000000000000000000000000000000000000000000000000000000000000000000000000000000000000000000000000000020000000000000000000000000000000000000000000000000000000000000000000000000000000000000000000000000000000000000000000000000000000000002000000000000001000000000000000000000000000000000000000000000040000000000000000000000000000000000000000000000000000000000000000000000000000",
      "type": "0x2",
      "transactionHash": "0x76c479d2f5107ae971f1b1c1f24f156e22b6a47433a09520d9cec4ace522efb1",
      "transactionIndex": "0x2",
      "blockHash": "0x527c6cb01e25fb96cdcb8121a68263eafb9ec19b023cac8e9b8090e7a07ac4bf",
      "blockNumber": "0x1017442",
      "gasUsed": "0xb95e",
      "effectiveGasPrice": "0xf6a7a",
      "from": "0x12b2434a1022d5787bf06056f2885fe35de62bf8",
      "to": "0x89ad215ef488e254b804162c83d6bc7de0e1519c",
      "contractAddress": null,
      "l1BaseFeeScalar": "0x1db0",
      "l1BlobBaseFee": "0x196f433a5ce",
      "l1BlobBaseFeeScalar": "0xd2730",
      "l1Fee": "0x89aa9453447e",
      "l1GasPrice": "0xd6ac7e27c",
      "l1GasUsed": "0x640"
    },
    {
      "status": "0x1",
      "cumulativeGasUsed": "0xee1ca",
      "logs": [],
      "logsBloom": "0x00000000000000000000000000000000000000000000000000000000000000000000000000000000000000000000000000000000000000000000000000000000000000000000000000000000000000000000000000000000000000000000000000000000000000000000000000000000000000000000000000000000000000000000000000000000000000000000000000000000000000000000000000000000000000000000000000000000000000000000000000000000000000000000000000000000000000000000000000000000000000000000000000000000000000000000000000000000000000000000000000000000000000000000000000000000",
      "type": "0x2",
      "transactionHash": "0x71fbfea0b6828e3f669bab04298eaea9945b0e5edfeacce7bbfb2e4b0b549ebb",
      "transactionIndex": "0x3",
      "blockHash": "0x527c6cb01e25fb96cdcb8121a68263eafb9ec19b023cac8e9b8090e7a07ac4bf",
      "blockNumber": "0x1017442",
      "gasUsed": "0x10cb9",
      "effectiveGasPrice": "0xf6a7a",
      "from": "0x12b2434a1022d5787bf06056f2885fe35de62bf8",
      "to": "0x89ad215ef488e254b804162c83d6bc7de0e1519c",
      "contractAddress": null,
      "l1BaseFeeScalar": "0x1db0",
      "l1BlobBaseFee": "0x196f433a5ce",
      "l1BlobBaseFeeScalar": "0xd2730",
      "l1Fee": "0x89aa9453447e",
      "l1GasPrice": "0xd6ac7e27c",
      "l1GasUsed": "0x640"
    }
  ],
  "libraries": [],
  "pending": [],
  "returns": {},
  "timestamp": 1725547569,
  "chain": 11155420,
  "commit": "e864c3f"
}