{
  "transactions": [
    {
      "hash": "0x620935459b03b49ba7c0166e2c8e011a8293282d66bfcda52f83448addf0067b",
      "transactionType": "CALL",
      "contractName": null,
      "contractAddress": "0xda3420ca7b915c607313d332d038ceddcd810973",
      "function": "setPeer(uint32,bytes32)",
      "arguments": [
        "40245",
        "0x000000000000000000000000e0cc98a717c6d885df973db1cac4a2b7694ab87c"
      ],
      "transaction": {
        "from": "0x12b2434a1022d5787bf06056f2885fe35de62bf8",
        "to": "0xda3420ca7b915c607313d332d038ceddcd810973",
        "gas": "0x10041",
        "value": "0x0",
        "input": "0x3400288b0000000000000000000000000000000000000000000000000000000000009d35000000000000000000000000e0cc98a717c6d885df973db1cac4a2b7694ab87c",
        "nonce": "0x5",
        "chainId": "0xaa37dc"
      },
      "additionalContracts": [],
      "isFixedGasLimit": false
    },
    {
      "hash": "0x753b378892db957126a5457454841e7c09c6012f5c4ecf772f531a12a9b48fc0",
      "transactionType": "CALL",
      "contractName": null,
      "contractAddress": "0xda3420ca7b915c607313d332d038ceddcd810973",
      "function": "setAdapterAddress(address)",
      "arguments": [
        "0xb3510615D958438b2A4AcCad2D0bDF782E333281"
      ],
      "transaction": {
        "from": "0x12b2434a1022d5787bf06056f2885fe35de62bf8",
        "to": "0xda3420ca7b915c607313d332d038ceddcd810973",
        "gas": "0xecf4",
        "value": "0x0",
        "input": "0x736eede5000000000000000000000000b3510615d958438b2a4accad2d0bdf782e333281",
        "nonce": "0x6",
        "chainId": "0xaa37dc"
      },
      "additionalContracts": [],
      "isFixedGasLimit": false
    }
  ],
  "receipts": [
    {
      "status": "0x1",
      "cumulativeGasUsed": "0x2bc59",
      "logs": [
        {
          "address": "0xda3420ca7b915c607313d332d038ceddcd810973",
          "topics": [
            "0x238399d427b947898edb290f5ff0f9109849b1c3ba196a42e35f00c50a54b98b"
          ],
          "data": "0x0000000000000000000000000000000000000000000000000000000000009d35000000000000000000000000e0cc98a717c6d885df973db1cac4a2b7694ab87c",
          "blockHash": "0x7a0919ccae74db5f6c18ff9116e6447a68b92fcd85d7b1511b2f998c51d0abf4",
          "blockNumber": "0x100d660",
          "transactionHash": "0x620935459b03b49ba7c0166e2c8e011a8293282d66bfcda52f83448addf0067b",
          "transactionIndex": "0x2",
          "logIndex": "0x2",
          "removed": false
        }
      ],
      "logsBloom": "0x00000000000000000000000000000000000000000000000000000000000000000000000000000000000000000000000000000000000000000800000000000000000000000000000000000000000000000000000000000000000000000000000000001000000000000000000000000000000000000000000000000000000000000000000000000000000000000000000000000000000000000000001000000200000000000000000000000000000000000000000000000000000002000000000000000000000000000000000000000000000000000000000000040000000000000000000000000000000000000000000000000000000000000000000000000000",
      "type": "0x2",
      "transactionHash": "0x620935459b03b49ba7c0166e2c8e011a8293282d66bfcda52f83448addf0067b",
      "transactionIndex": "0x2",
      "blockHash": "0x7a0919ccae74db5f6c18ff9116e6447a68b92fcd85d7b1511b2f998c51d0abf4",
      "blockNumber": "0x100d660",
      "gasUsed": "0xb987",
      "effectiveGasPrice": "0xf6a68",
      "from": "0x12b2434a1022d5787bf06056f2885fe35de62bf8",
      "to": "0xda3420ca7b915c607313d332d038ceddcd810973",
      "contractAddress": null,
      "l1BaseFeeScalar": "0x1db0",
      "l1BlobBaseFee": "0x9e9ba3d45d",
      "l1BlobBaseFeeScalar": "0xd2730",
      "l1Fee": "0x35d73d1acb1d",
      "l1GasPrice": "0x925b8d890",
      "l1GasUsed": "0x640"
    },
    {
      "status": "0x1",
      "cumulativeGasUsed": "0x367e7",
      "logs": [],
      "logsBloom": "0x00000000000000000000000000000000000000000000000000000000000000000000000000000000000000000000000000000000000000000000000000000000000000000000000000000000000000000000000000000000000000000000000000000000000000000000000000000000000000000000000000000000000000000000000000000000000000000000000000000000000000000000000000000000000000000000000000000000000000000000000000000000000000000000000000000000000000000000000000000000000000000000000000000000000000000000000000000000000000000000000000000000000000000000000000000000",
      "type": "0x2",
      "transactionHash": "0x753b378892db957126a5457454841e7c09c6012f5c4ecf772f531a12a9b48fc0",
      "transactionIndex": "0x3",
      "blockHash": "0x7a0919ccae74db5f6c18ff9116e6447a68b92fcd85d7b1511b2f998c51d0abf4",
      "blockNumber": "0x100d660",
      "gasUsed": "0xab8e",
      "effectiveGasPrice": "0xf6a68",
      "from": "0x12b2434a1022d5787bf06056f2885fe35de62bf8",
      "to": "0xda3420ca7b915c607313d332d038ceddcd810973",
      "contractAddress": null,
      "l1BaseFeeScalar": "0x1db0",
      "l1BlobBaseFee": "0x9e9ba3d45d",
      "l1BlobBaseFeeScalar": "0xd2730",
      "l1Fee": "0x35d73d1acb1d",
      "l1GasPrice": "0x925b8d890",
      "l1GasUsed": "0x640"
    }
  ],
  "libraries": [],
  "pending": [],
  "returns": {},
  "timestamp": 1725466739,
  "chain": 11155420,
  "commit": "da4a4b9"
}