{
  "transactions": [
    {
      "hash": "0xc28e3d6e9193742035032e0ced7aded03dd36d3f655c7b4d5a312f4bda6d75cc",
      "transactionType": "CALL",
      "contractName": null,
      "contractAddress": "0xf2594001eb8183923a9a21ca5868e65318000ae5",
      "function": "setPeer(uint32,bytes32)",
      "arguments": [
        "40245",
        "0x0000000000000000000000002a17c4869fc313082a4a8b8f19c1950720f767a5"
      ],
      "transaction": {
        "from": "0x12b2434a1022d5787bf06056f2885fe35de62bf8",
        "to": "0xf2594001eb8183923a9a21ca5868e65318000ae5",
        "gas": "0x10008",
        "value": "0x0",
        "input": "0x3400288b0000000000000000000000000000000000000000000000000000000000009d350000000000000000000000002a17c4869fc313082a4a8b8f19c1950720f767a5",
        "nonce": "0x90",
        "chainId": "0xaa37dc"
      },
      "additionalContracts": [],
      "isFixedGasLimit": false
    },
    {
      "hash": "0xdaa81bc9db4753ed79630320378d9314210771db8de8943d695e522de77abbe6",
      "transactionType": "CALL",
      "contractName": null,
      "contractAddress": "0xf2594001eb8183923a9a21ca5868e65318000ae5",
      "function": "setAdapterAddresses(address[])",
      "arguments": [
        "[0x56Efc51670dfbDbDFB2464e182Edb2b72a5d4954]"
      ],
      "transaction": {
        "from": "0x12b2434a1022d5787bf06056f2885fe35de62bf8",
        "to": "0xf2594001eb8183923a9a21ca5868e65318000ae5",
        "gas": "0x17cbc",
        "value": "0x0",
        "input": "0xa324b2f70000000000000000000000000000000000000000000000000000000000000020000000000000000000000000000000000000000000000000000000000000000100000000000000000000000056efc51670dfbdbdfb2464e182edb2b72a5d4954",
        "nonce": "0x91",
        "chainId": "0xaa37dc"
      },
      "additionalContracts": [],
      "isFixedGasLimit": false
    }
  ],
  "receipts": [
    {
      "status": "0x1",
      "cumulativeGasUsed": "0x9d674",
      "logs": [
        {
          "address": "0xf2594001eb8183923a9a21ca5868e65318000ae5",
          "topics": [
            "0x238399d427b947898edb290f5ff0f9109849b1c3ba196a42e35f00c50a54b98b"
          ],
          "data": "0x0000000000000000000000000000000000000000000000000000000000009d350000000000000000000000002a17c4869fc313082a4a8b8f19c1950720f767a5",
          "blockHash": "0x9853bb71f38b2a223696b0e5d1d5eefe099f362421a3f067dea13b5cbd635b45",
          "blockNumber": "0x1022c3f",
          "transactionHash": "0xc28e3d6e9193742035032e0ced7aded03dd36d3f655c7b4d5a312f4bda6d75cc",
          "transactionIndex": "0x3",
          "logIndex": "0xc",
          "removed": false
        }
      ],
      "logsBloom": "0x00000000000000000000000000000000000000000000000000000000000000000000000000000000000000000000000000000000000000000800000000000000000000000000000000200000000000000000000000000000000000000000000000000000000000000000000000000001000000000000000000000000000000000000000000000000000000000000000000000000000000000000000000000000000000000000000000000000000000000000000000000000000002000000000000000000000000000000000000000000000000000000000000040001000000000000000000000000000000000000000000000000000000000000000000000000",
      "type": "0x2",
      "transactionHash": "0xc28e3d6e9193742035032e0ced7aded03dd36d3f655c7b4d5a312f4bda6d75cc",
      "transactionIndex": "0x3",
      "blockHash": "0x9853bb71f38b2a223696b0e5d1d5eefe099f362421a3f067dea13b5cbd635b45",
      "blockNumber": "0x1022c3f",
      "gasUsed": "0xb95e",
      "effectiveGasPrice": "0x34ede04",
      "from": "0x12b2434a1022d5787bf06056f2885fe35de62bf8",
      "to": "0xf2594001eb8183923a9a21ca5868e65318000ae5",
      "contractAddress": null,
      "l1BaseFeeScalar": "0x1db0",
      "l1BlobBaseFee": "0x8cfc1fba87",
      "l1BlobBaseFeeScalar": "0xd2730",
      "l1Fee": "0x2fdd475266ce",
      "l1GasPrice": "0x841578ad4",
      "l1GasUsed": "0x640"
    },
    {
      "status": "0x1",
      "cumulativeGasUsed": "0xaea1a",
      "logs": [
        {
          "address": "0xf2594001eb8183923a9a21ca5868e65318000ae5",
          "topics": [
            "0xe3b79b0152415c3a6a3b843b01948e52a65cb32668a2bbccef929ed5956669a5"
          ],
          "data": "0x0000000000000000000000000000000000000000000000000000000000000020000000000000000000000000000000000000000000000000000000000000000100000000000000000000000056efc51670dfbdbdfb2464e182edb2b72a5d4954",
          "blockHash": "0x9853bb71f38b2a223696b0e5d1d5eefe099f362421a3f067dea13b5cbd635b45",
          "blockNumber": "0x1022c3f",
          "transactionHash": "0xdaa81bc9db4753ed79630320378d9314210771db8de8943d695e522de77abbe6",
          "transactionIndex": "0x4",
          "logIndex": "0xd",
          "removed": false
        }
      ],
      "logsBloom": "0x00000000000000000000000000000000000000000000000000000000000000000000000000000000008000000000000000000000000000000000000000000000000000000000000000200000000000000000000000000000000000000000000000000000000000000000000000000001000000000000000000000000000000000000001000001000000000000000000000000000000000000000000000000000000000000000000000000000000000000000000000000000000000000000000000000000000000000000000000000000000000000000000000000001000000000000000000000000000000000000000000000000000000000000000000000000",
      "type": "0x2",
      "transactionHash": "0xdaa81bc9db4753ed79630320378d9314210771db8de8943d695e522de77abbe6",
      "transactionIndex": "0x4",
      "blockHash": "0x9853bb71f38b2a223696b0e5d1d5eefe099f362421a3f067dea13b5cbd635b45",
      "blockNumber": "0x1022c3f",
      "gasUsed": "0x113a6",
      "effectiveGasPrice": "0x34ede04",
      "from": "0x12b2434a1022d5787bf06056f2885fe35de62bf8",
      "to": "0xf2594001eb8183923a9a21ca5868e65318000ae5",
      "contractAddress": null,
      "l1BaseFeeScalar": "0x1db0",
      "l1BlobBaseFee": "0x8cfc1fba87",
      "l1BlobBaseFeeScalar": "0xd2730",
      "l1Fee": "0x2fdd475266ce",
      "l1GasPrice": "0x841578ad4",
      "l1GasUsed": "0x640"
    }
  ],
  "libraries": [],
  "pending": [],
  "returns": {},
  "timestamp": 1725641777,
  "chain": 11155420,
  "commit": "dc78ae4"
}