{
  "transactions": [
    {
      "hash": "0x882814372d6704aed737dc97cd02900fcaec40d5acb80546896c837f8e3638b8",
      "transactionType": "CALL",
      "contractName": null,
      "contractAddress": "0xc8cf2e49634ce0cef0ff8331e3d139882469202a",
      "function": "setPeer(uint32,bytes32)",
      "arguments": [
        "40245",
        "0x0000000000000000000000000e54e9e87148422da6074dc101012ab05f51aa57"
      ],
      "transaction": {
        "from": "0x12b2434a1022d5787bf06056f2885fe35de62bf8",
        "to": "0xc8cf2e49634ce0cef0ff8331e3d139882469202a",
        "gas": "0x10008",
        "value": "0x0",
        "input": "0x3400288b0000000000000000000000000000000000000000000000000000000000009d350000000000000000000000000e54e9e87148422da6074dc101012ab05f51aa57",
        "nonce": "0x22",
        "chainId": "0xaa37dc"
      },
      "additionalContracts": [],
      "isFixedGasLimit": false
    },
    {
      "hash": "0x2bd6423d34396c455a1a1a099e7eec3bd56cfdb1b86055e7490b6bc5a7793352",
      "transactionType": "CALL",
      "contractName": null,
      "contractAddress": "0xc8cf2e49634ce0cef0ff8331e3d139882469202a",
      "function": "setAdapterAddresses(address[])",
      "arguments": [
        "[0x09dc432D56616A204B79ABAd351D84aD78153d5D]"
      ],
      "transaction": {
        "from": "0x12b2434a1022d5787bf06056f2885fe35de62bf8",
        "to": "0xc8cf2e49634ce0cef0ff8331e3d139882469202a",
        "gas": "0x18926",
        "value": "0x0",
        "input": "0xa324b2f70000000000000000000000000000000000000000000000000000000000000020000000000000000000000000000000000000000000000000000000000000000100000000000000000000000009dc432d56616a204b79abad351d84ad78153d5d",
        "nonce": "0x23",
        "chainId": "0xaa37dc"
      },
      "additionalContracts": [],
      "isFixedGasLimit": false
    }
  ],
  "receipts": [
    {
      "status": "0x1",
      "cumulativeGasUsed": "0x8d1a5",
      "logs": [
        {
          "address": "0xc8cf2e49634ce0cef0ff8331e3d139882469202a",
          "topics": [
            "0x238399d427b947898edb290f5ff0f9109849b1c3ba196a42e35f00c50a54b98b"
          ],
          "data": "0x0000000000000000000000000000000000000000000000000000000000009d350000000000000000000000000e54e9e87148422da6074dc101012ab05f51aa57",
          "blockHash": "0x3f2f9c922737f6d43b299bade5840eb0bc23cc75da95cf8750128e55c4f5f149",
          "blockNumber": "0x1015285",
          "transactionHash": "0x882814372d6704aed737dc97cd02900fcaec40d5acb80546896c837f8e3638b8",
          "transactionIndex": "0x2",
          "logIndex": "0xb",
          "removed": false
        }
      ],
      "logsBloom": "0x00000000000000000000000000000000000000000000000000000000000000000000000000000000000100000000000000000000000000000800000000000000000000000000000000000000000000000000000000000000000000000000000000000000000000000000000000000000000000000000000000000000000000000000000000000000000000000000000000000000000000000000000000008000000000000000000000000000000000000000000000000000000002000000000000000000000000000000000000000000000000000080000000040000000000000000000000000000000000000000000000000000000000000000000000000000",
      "type": "0x2",
      "transactionHash": "0x882814372d6704aed737dc97cd02900fcaec40d5acb80546896c837f8e3638b8",
      "transactionIndex": "0x2",
      "blockHash": "0x3f2f9c922737f6d43b299bade5840eb0bc23cc75da95cf8750128e55c4f5f149",
      "blockNumber": "0x1015285",
      "gasUsed": "0xb95e",
      "effectiveGasPrice": "0xf6a81",
      "from": "0x12b2434a1022d5787bf06056f2885fe35de62bf8",
      "to": "0xc8cf2e49634ce0cef0ff8331e3d139882469202a",
      "contractAddress": null,
      "l1BaseFeeScalar": "0x1db0",
      "l1BlobBaseFee": "0x9e9ba3d45d",
      "l1BlobBaseFeeScalar": "0xd2730",
      "l1Fee": "0x35dda2e9665f",
      "l1GasPrice": "0x9ac68fe98",
      "l1GasUsed": "0x640"
    },
    {
      "status": "0x1",
      "cumulativeGasUsed": "0x9de77",
      "logs": [],
      "logsBloom": "0x00000000000000000000000000000000000000000000000000000000000000000000000000000000000000000000000000000000000000000000000000000000000000000000000000000000000000000000000000000000000000000000000000000000000000000000000000000000000000000000000000000000000000000000000000000000000000000000000000000000000000000000000000000000000000000000000000000000000000000000000000000000000000000000000000000000000000000000000000000000000000000000000000000000000000000000000000000000000000000000000000000000000000000000000000000000",
      "type": "0x2",
      "transactionHash": "0x2bd6423d34396c455a1a1a099e7eec3bd56cfdb1b86055e7490b6bc5a7793352",
      "transactionIndex": "0x3",
      "blockHash": "0x3f2f9c922737f6d43b299bade5840eb0bc23cc75da95cf8750128e55c4f5f149",
      "blockNumber": "0x1015285",
      "gasUsed": "0x10cd2",
      "effectiveGasPrice": "0xf6a81",
      "from": "0x12b2434a1022d5787bf06056f2885fe35de62bf8",
      "to": "0xc8cf2e49634ce0cef0ff8331e3d139882469202a",
      "contractAddress": null,
      "l1BaseFeeScalar": "0x1db0",
      "l1BlobBaseFee": "0x9e9ba3d45d",
      "l1BlobBaseFeeScalar": "0xd2730",
      "l1Fee": "0x35dda2e9665f",
      "l1GasPrice": "0x9ac68fe98",
      "l1GasUsed": "0x640"
    }
  ],
  "libraries": [],
  "pending": [],
  "returns": {},
  "timestamp": 1725530301,
  "chain": 11155420,
  "commit": "6821207"
}