{
  "transactions": [
    {
      "hash": "0xb637f146318e815f5917badc25498a9ba8532d73f9d338817eaeaa6e11892249",
      "transactionType": "CALL",
      "contractName": null,
      "contractAddress": "0xa7f96a7ba1b3ee324dd9d9b115efea827be67d2a",
      "function": "setPeer(uint32,bytes32)",
      "arguments": [
        "40245",
        "0x00000000000000000000000033e21b633fe6f91baba56d5b08591f572b9cee73"
      ],
      "transaction": {
        "from": "0xb0efd2b19a5698a9c830548ac22708a28c9d4552",
        "to": "0xa7f96a7ba1b3ee324dd9d9b115efea827be67d2a",
        "gas": "0x10008",
        "value": "0x0",
        "input": "0x3400288b0000000000000000000000000000000000000000000000000000000000009d3500000000000000000000000033e21b633fe6f91baba56d5b08591f572b9cee73",
        "nonce": "0x49",
        "chainId": "0xaa37dc"
      },
      "additionalContracts": [],
      "isFixedGasLimit": false
    },
    {
      "hash": "0x3a89f7a2fac2c01489643cfc408b6aa5c716456d18f43b42f90837a6cde12828",
      "transactionType": "CALL",
      "contractName": null,
      "contractAddress": "0xa7f96a7ba1b3ee324dd9d9b115efea827be67d2a",
      "function": "setAdapterAddresses(address[])",
      "arguments": [
        "[0xB2315a96B687E1dce36cc87bc0050D8E65775D22]"
      ],
      "transaction": {
        "from": "0xb0efd2b19a5698a9c830548ac22708a28c9d4552",
        "to": "0xa7f96a7ba1b3ee324dd9d9b115efea827be67d2a",
        "gas": "0x18901",
        "value": "0x0",
        "input": "0xa324b2f700000000000000000000000000000000000000000000000000000000000000200000000000000000000000000000000000000000000000000000000000000001000000000000000000000000b2315a96b687e1dce36cc87bc0050d8e65775d22",
        "nonce": "0x4a",
        "chainId": "0xaa37dc"
      },
      "additionalContracts": [],
      "isFixedGasLimit": false
    }
  ],
  "receipts": [
    {
      "status": "0x1",
      "cumulativeGasUsed": "0x208a38",
      "logs": [
        {
          "address": "0xa7f96a7ba1b3ee324dd9d9b115efea827be67d2a",
          "topics": [
            "0x238399d427b947898edb290f5ff0f9109849b1c3ba196a42e35f00c50a54b98b"
          ],
          "data": "0x0000000000000000000000000000000000000000000000000000000000009d3500000000000000000000000033e21b633fe6f91baba56d5b08591f572b9cee73",
          "blockHash": "0x40d112afeb6ba66e4c7e173704640e007e847fbb4de61f8031025602a59db8da",
          "blockNumber": "0x1018ac8",
          "transactionHash": "0xb637f146318e815f5917badc25498a9ba8532d73f9d338817eaeaa6e11892249",
          "transactionIndex": "0x3",
          "logIndex": "0x31",
          "removed": false
        }
      ],
      "logsBloom": "0x00000000000000000000000000000000000000000000000000000000000000000000000000000000000000000000000000000000000000000810000000000000000000000000000000000000000000000000000000000000000000000000000000000000000000000000000000000000000000000000000000000000000000000010000000000000000000000000000000000000000000000000000000000000000000000000000000000000000000000000000000000000000002000000000000000000000000000000000000000000000000000000000000040000000000000000000010000000000000000000000000000000000000000000000000000000",
      "type": "0x2",
      "transactionHash": "0xb637f146318e815f5917badc25498a9ba8532d73f9d338817eaeaa6e11892249",
      "transactionIndex": "0x3",
      "blockHash": "0x40d112afeb6ba66e4c7e173704640e007e847fbb4de61f8031025602a59db8da",
      "blockNumber": "0x1018ac8",
      "gasUsed": "0xb95e",
      "effectiveGasPrice": "0xf6a66",
      "from": "0xb0efd2b19a5698a9c830548ac22708a28c9d4552",
      "to": "0xa7f96a7ba1b3ee324dd9d9b115efea827be67d2a",
      "contractAddress": null,
      "l1BaseFeeScalar": "0x1db0",
      "l1BlobBaseFee": "0x2c11c394256",
      "l1BlobBaseFeeScalar": "0xd2730",
      "l1Fee": "0xed8f86b6019a",
      "l1GasPrice": "0x2e15254d6",
      "l1GasUsed": "0x640"
    },
    {
      "status": "0x1",
      "cumulativeGasUsed": "0x2196f1",
      "logs": [],
      "logsBloom": "0x00000000000000000000000000000000000000000000000000000000000000000000000000000000000000000000000000000000000000000000000000000000000000000000000000000000000000000000000000000000000000000000000000000000000000000000000000000000000000000000000000000000000000000000000000000000000000000000000000000000000000000000000000000000000000000000000000000000000000000000000000000000000000000000000000000000000000000000000000000000000000000000000000000000000000000000000000000000000000000000000000000000000000000000000000000000",
      "type": "0x2",
      "transactionHash": "0x3a89f7a2fac2c01489643cfc408b6aa5c716456d18f43b42f90837a6cde12828",
      "transactionIndex": "0x4",
      "blockHash": "0x40d112afeb6ba66e4c7e173704640e007e847fbb4de61f8031025602a59db8da",
      "blockNumber": "0x1018ac8",
      "gasUsed": "0x10cb9",
      "effectiveGasPrice": "0xf6a66",
      "from": "0xb0efd2b19a5698a9c830548ac22708a28c9d4552",
      "to": "0xa7f96a7ba1b3ee324dd9d9b115efea827be67d2a",
      "contractAddress": null,
      "l1BaseFeeScalar": "0x1db0",
      "l1BlobBaseFee": "0x2c11c394256",
      "l1BlobBaseFeeScalar": "0xd2730",
      "l1Fee": "0xed8f86b6019a",
      "l1GasPrice": "0x2e15254d6",
      "l1GasUsed": "0x640"
    }
  ],
  "libraries": [],
  "pending": [],
  "returns": {},
  "timestamp": 1725559106,
  "chain": 11155420,
  "commit": "a4c618d"
}