{
  "transactions": [
    {
      "hash": "0x5a994b91c6a3040f9060dcd85307749bd7360121e74e9249e2cd081ae6ab1932",
      "transactionType": "CALL",
      "contractName": null,
      "contractAddress": "0xa6f21f0c90f316d8420bbf3897eb98227285d14b",
      "function": "setPeer(uint32,bytes32)",
      "arguments": [
        "40245",
        "0x000000000000000000000000e4b0be62627747ac752669ebb93ee612ecfd73be"
      ],
      "transaction": {
        "from": "0x6680dfd1c6a4867476b2e60da89354ac93272878",
        "to": "0xa6f21f0c90f316d8420bbf3897eb98227285d14b",
        "gas": "0x10008",
        "value": "0x0",
        "input": "0x3400288b0000000000000000000000000000000000000000000000000000000000009d35000000000000000000000000e4b0be62627747ac752669ebb93ee612ecfd73be",
        "nonce": "0x11",
        "chainId": "0xaa37dc"
      },
      "additionalContracts": [],
      "isFixedGasLimit": false
    },
    {
      "hash": "0xad5609e0c5e0c2c8de4fbff3103c28c5d088804d7d1df3787a03a05c63833682",
      "transactionType": "CALL",
      "contractName": null,
      "contractAddress": "0x425631ddcf82700a85627da00c4afe1e6fd752d5",
      "function": "setPeer(uint32,bytes32)",
      "arguments": [
        "40232",
        "0x0000000000000000000000004c90332f18716c69a76799cb30db3ca085ac80a3"
      ],
      "transaction": {
        "from": "0x6680dfd1c6a4867476b2e60da89354ac93272878",
        "to": "0x425631ddcf82700a85627da00c4afe1e6fd752d5",
        "gas": "0x10224",
        "value": "0x0",
        "input": "0x3400288b0000000000000000000000000000000000000000000000000000000000009d280000000000000000000000004c90332f18716c69a76799cb30db3ca085ac80a3",
        "nonce": "0x12",
        "chainId": "0xaa37dc"
      },
      "additionalContracts": [],
      "isFixedGasLimit": false
    },
    {
      "hash": "0xe8027df17ed4f7ef5e05d5b9f933da3a29fc64a8c846c1dd0e5a57fd54d60cc8",
      "transactionType": "CALL",
      "contractName": null,
      "contractAddress": "0x4c90332f18716c69a76799cb30db3ca085ac80a3",
      "function": "setPeer(uint32,bytes32)",
      "arguments": [
        "40245",
        "0x000000000000000000000000425631ddcf82700a85627da00c4afe1e6fd752d5"
      ],
      "transaction": {
        "from": "0x6680dfd1c6a4867476b2e60da89354ac93272878",
        "to": "0x4c90332f18716c69a76799cb30db3ca085ac80a3",
        "gas": "0x10032",
        "value": "0x0",
        "input": "0x3400288b0000000000000000000000000000000000000000000000000000000000009d35000000000000000000000000425631ddcf82700a85627da00c4afe1e6fd752d5",
        "nonce": "0x13",
        "chainId": "0xaa37dc"
      },
      "additionalContracts": [],
      "isFixedGasLimit": false
    },
    {
      "hash": "0xd1f89dd434d650223dcd686ac432438bc714495814024953440b0cc214cb7b7e",
      "transactionType": "CALL",
      "contractName": null,
      "contractAddress": "0x425631ddcf82700a85627da00c4afe1e6fd752d5",
      "function": "setComposerSecondEid(uint32)",
      "arguments": [
        "40232"
      ],
      "transaction": {
        "from": "0x6680dfd1c6a4867476b2e60da89354ac93272878",
        "to": "0x425631ddcf82700a85627da00c4afe1e6fd752d5",
        "gas": "0xf6c2",
        "value": "0x0",
        "input": "0x066af8ce0000000000000000000000000000000000000000000000000000000000009d28",
        "nonce": "0x14",
        "chainId": "0xaa37dc"
      },
      "additionalContracts": [],
      "isFixedGasLimit": false
    },
    {
      "hash": "0xc7bb2f6e8f0c4fe23ad39d2502a5150582dab95dc43af97e693a4d457f725d30",
      "transactionType": "CALL",
      "contractName": null,
      "contractAddress": "0xa6f21f0c90f316d8420bbf3897eb98227285d14b",
      "function": "setAdapterAddresses(address[])",
      "arguments": [
        "[0x425631DdcF82700a85627DA00c4afE1e6FD752d5]"
      ],
      "transaction": {
        "from": "0x6680dfd1c6a4867476b2e60da89354ac93272878",
        "to": "0xa6f21f0c90f316d8420bbf3897eb98227285d14b",
        "gas": "0x17c7d",
        "value": "0x0",
        "input": "0xa324b2f700000000000000000000000000000000000000000000000000000000000000200000000000000000000000000000000000000000000000000000000000000001000000000000000000000000425631ddcf82700a85627da00c4afe1e6fd752d5",
        "nonce": "0x15",
        "chainId": "0xaa37dc"
      },
      "additionalContracts": [],
      "isFixedGasLimit": false
    },
    {
      "hash": "0x97de865fe76f27a979cd5105b054ef9ee59989015a2d1778801e4c24237010bd",
      "transactionType": "CALL",
      "contractName": null,
      "contractAddress": "0x4c90332f18716c69a76799cb30db3ca085ac80a3",
      "function": "setAttestationsAddress(address)",
      "arguments": [
        "0xe4B0BE62627747Ac752669eBb93Ee612ECFd73bE"
      ],
      "transaction": {
        "from": "0x6680dfd1c6a4867476b2e60da89354ac93272878",
        "to": "0x4c90332f18716c69a76799cb30db3ca085ac80a3",
        "gas": "0xfdb1",
        "value": "0x0",
        "input": "0x172e09e8000000000000000000000000e4b0be62627747ac752669ebb93ee612ecfd73be",
        "nonce": "0x16",
        "chainId": "0xaa37dc"
      },
      "additionalContracts": [],
      "isFixedGasLimit": false
    }
  ],
  "receipts": [
    {
      "status": "0x1",
      "cumulativeGasUsed": "0x1334dc",
      "logs": [
        {
          "address": "0xa6f21f0c90f316d8420bbf3897eb98227285d14b",
          "topics": [
            "0x238399d427b947898edb290f5ff0f9109849b1c3ba196a42e35f00c50a54b98b"
          ],
          "data": "0x0000000000000000000000000000000000000000000000000000000000009d35000000000000000000000000e4b0be62627747ac752669ebb93ee612ecfd73be",
          "blockHash": "0xd09c593cd575785586cda92bec90b0cb2779e20e5657518708334fd8d7d85fa5",
          "blockNumber": "0x102e814",
          "transactionHash": "0x5a994b91c6a3040f9060dcd85307749bd7360121e74e9249e2cd081ae6ab1932",
          "transactionIndex": "0x3",
          "logIndex": "0x1b",
          "removed": false
        }
      ],
      "logsBloom": "0x00000000000000000000000000000000000000000000000000000000000000000000000000000000000000000000000000000000000000000800000000000000000000000000000000000000000000000008000000000000000000000000000000000000000000000000000000000000000000000000000000000000000000000000000000000000000000000000000000000000000000000000000000000002000000000000000000000000000000000000000000000000000002000000000000000000000000000000000000000000000000000000000000040000000000000000000000000000000000000000000000000800000000000000000000000000",
      "type": "0x2",
      "transactionHash": "0x5a994b91c6a3040f9060dcd85307749bd7360121e74e9249e2cd081ae6ab1932",
      "transactionIndex": "0x3",
      "blockHash": "0xd09c593cd575785586cda92bec90b0cb2779e20e5657518708334fd8d7d85fa5",
      "blockNumber": "0x102e814",
      "gasUsed": "0xb95e",
      "effectiveGasPrice": "0xf6a84",
      "from": "0x6680dfd1c6a4867476b2e60da89354ac93272878",
      "to": "0xa6f21f0c90f316d8420bbf3897eb98227285d14b",
      "contractAddress": null,
      "l1BaseFeeScalar": "0x1db0",
      "l1BlobBaseFee": "0x278aaebf5",
      "l1BlobBaseFeeScalar": "0xd2730",
      "l1Fee": "0xd58a2785ec",
      "l1GasPrice": "0xab51769",
      "l1GasUsed": "0x640"
    },
    {
      "status": "0x1",
      "cumulativeGasUsed": "0x13efc0",
      "logs": [
        {
          "address": "0x425631ddcf82700a85627da00c4afe1e6fd752d5",
          "topics": [
            "0x238399d427b947898edb290f5ff0f9109849b1c3ba196a42e35f00c50a54b98b"
          ],
          "data": "0x0000000000000000000000000000000000000000000000000000000000009d280000000000000000000000004c90332f18716c69a76799cb30db3ca085ac80a3",
          "blockHash": "0xd09c593cd575785586cda92bec90b0cb2779e20e5657518708334fd8d7d85fa5",
          "blockNumber": "0x102e814",
          "transactionHash": "0xad5609e0c5e0c2c8de4fbff3103c28c5d088804d7d1df3787a03a05c63833682",
          "transactionIndex": "0x4",
          "logIndex": "0x1c",
          "removed": false
        }
      ],
      "logsBloom": "0x00000000000000000000000000000000000000000000000000000000000000000000000000000000020000000000000000000000000000000800000000000000000000000000000000000000000000000000000000000000000000000000000000000000000000000000000000000000000000000000000000000000000000000000000000000000000000000000000000000000000000000000000000000000000000000000000000000000000000000000000000020000000002000000000000000000000000000000000000000000000000000000000000040000000000000000000000000000000000000000000000000000000000000000000000000100",
      "type": "0x2",
      "transactionHash": "0xad5609e0c5e0c2c8de4fbff3103c28c5d088804d7d1df3787a03a05c63833682",
      "transactionIndex": "0x4",
      "blockHash": "0xd09c593cd575785586cda92bec90b0cb2779e20e5657518708334fd8d7d85fa5",
      "blockNumber": "0x102e814",
      "gasUsed": "0xbae4",
      "effectiveGasPrice": "0xf6a84",
      "from": "0x6680dfd1c6a4867476b2e60da89354ac93272878",
      "to": "0x425631ddcf82700a85627da00c4afe1e6fd752d5",
      "contractAddress": null,
      "l1BaseFeeScalar": "0x1db0",
      "l1BlobBaseFee": "0x278aaebf5",
      "l1BlobBaseFeeScalar": "0xd2730",
      "l1Fee": "0xd58a2785ec",
      "l1GasPrice": "0xab51769",
      "l1GasUsed": "0x640"
    },
    {
      "status": "0x1",
      "cumulativeGasUsed": "0x14a93c",
      "logs": [
        {
          "address": "0x4c90332f18716c69a76799cb30db3ca085ac80a3",
          "topics": [
            "0x238399d427b947898edb290f5ff0f9109849b1c3ba196a42e35f00c50a54b98b"
          ],
          "data": "0x0000000000000000000000000000000000000000000000000000000000009d35000000000000000000000000425631ddcf82700a85627da00c4afe1e6fd752d5",
          "blockHash": "0xd09c593cd575785586cda92bec90b0cb2779e20e5657518708334fd8d7d85fa5",
          "blockNumber": "0x102e814",
          "transactionHash": "0xe8027df17ed4f7ef5e05d5b9f933da3a29fc64a8c846c1dd0e5a57fd54d60cc8",
          "transactionIndex": "0x5",
          "logIndex": "0x1d",
          "removed": false
        }
      ],
      "logsBloom": "0x00000000000000000000000000000000000000000000000000000000000000000000000000000000000000000000000000000000000000000800000000000000000000000000000000000000000000000000000000000000000000000000000000000000000000000000000000000000000000000000000000000000000000000000000000000000000000000000000000000000002000000000000000000000000000008000000000000000000000000000000000000000000002000000000000000000000000000000000100000000000000000000000000040000000000000000000000000000000000000000000000000000000000000000000000000000",
      "type": "0x2",
      "transactionHash": "0xe8027df17ed4f7ef5e05d5b9f933da3a29fc64a8c846c1dd0e5a57fd54d60cc8",
      "transactionIndex": "0x5",
      "blockHash": "0xd09c593cd575785586cda92bec90b0cb2779e20e5657518708334fd8d7d85fa5",
      "blockNumber": "0x102e814",
      "gasUsed": "0xb97c",
      "effectiveGasPrice": "0xf6a84",
      "from": "0x6680dfd1c6a4867476b2e60da89354ac93272878",
      "to": "0x4c90332f18716c69a76799cb30db3ca085ac80a3",
      "contractAddress": null,
      "l1BaseFeeScalar": "0x1db0",
      "l1BlobBaseFee": "0x278aaebf5",
      "l1BlobBaseFeeScalar": "0xd2730",
      "l1Fee": "0xd58a2785ec",
      "l1GasPrice": "0xab51769",
      "l1GasUsed": "0x640"
    },
    {
      "status": "0x1",
      "cumulativeGasUsed": "0x155be3",
      "logs": [],
      "logsBloom": "0x00000000000000000000000000000000000000000000000000000000000000000000000000000000000000000000000000000000000000000000000000000000000000000000000000000000000000000000000000000000000000000000000000000000000000000000000000000000000000000000000000000000000000000000000000000000000000000000000000000000000000000000000000000000000000000000000000000000000000000000000000000000000000000000000000000000000000000000000000000000000000000000000000000000000000000000000000000000000000000000000000000000000000000000000000000000",
      "type": "0x2",
      "transactionHash": "0xd1f89dd434d650223dcd686ac432438bc714495814024953440b0cc214cb7b7e",
      "transactionIndex": "0x6",
      "blockHash": "0xd09c593cd575785586cda92bec90b0cb2779e20e5657518708334fd8d7d85fa5",
      "blockNumber": "0x102e814",
      "gasUsed": "0xb2a7",
      "effectiveGasPrice": "0xf6a84",
      "from": "0x6680dfd1c6a4867476b2e60da89354ac93272878",
      "to": "0x425631ddcf82700a85627da00c4afe1e6fd752d5",
      "contractAddress": null,
      "l1BaseFeeScalar": "0x1db0",
      "l1BlobBaseFee": "0x278aaebf5",
      "l1BlobBaseFeeScalar": "0xd2730",
      "l1Fee": "0xd58a2785ec",
      "l1GasPrice": "0xab51769",
      "l1GasUsed": "0x640"
    },
    {
      "status": "0x1",
      "cumulativeGasUsed": "0x166f5b",
      "logs": [
        {
          "address": "0xa6f21f0c90f316d8420bbf3897eb98227285d14b",
          "topics": [
            "0xe3b79b0152415c3a6a3b843b01948e52a65cb32668a2bbccef929ed5956669a5"
          ],
          "data": "0x00000000000000000000000000000000000000000000000000000000000000200000000000000000000000000000000000000000000000000000000000000001000000000000000000000000425631ddcf82700a85627da00c4afe1e6fd752d5",
          "blockHash": "0xd09c593cd575785586cda92bec90b0cb2779e20e5657518708334fd8d7d85fa5",
          "blockNumber": "0x102e814",
          "transactionHash": "0xc7bb2f6e8f0c4fe23ad39d2502a5150582dab95dc43af97e693a4d457f725d30",
          "transactionIndex": "0x7",
          "logIndex": "0x1e",
          "removed": false
        }
      ],
      "logsBloom": "0x00000000000000000000000000000000000000000000000000000000000000000000000000000000008000000000000000000000000000000000000000000000000000000000000000000000000000000008000000000000000000000000000000000000000000000000000000000000000000000000000000000000000000000000001000001000000000000000000000000000000000000000000000000002000000000000000000000000000000000000000000000000000000000000000000000000000000000000000000000000000000000000000000000000000000000000000000000000000000000000000000000800000000000000000000000000",
      "type": "0x2",
      "transactionHash": "0xc7bb2f6e8f0c4fe23ad39d2502a5150582dab95dc43af97e693a4d457f725d30",
      "transactionIndex": "0x7",
      "blockHash": "0xd09c593cd575785586cda92bec90b0cb2779e20e5657518708334fd8d7d85fa5",
      "blockNumber": "0x102e814",
      "gasUsed": "0x11378",
      "effectiveGasPrice": "0xf6a84",
      "from": "0x6680dfd1c6a4867476b2e60da89354ac93272878",
      "to": "0xa6f21f0c90f316d8420bbf3897eb98227285d14b",
      "contractAddress": null,
      "l1BaseFeeScalar": "0x1db0",
      "l1BlobBaseFee": "0x278aaebf5",
      "l1BlobBaseFeeScalar": "0xd2730",
      "l1Fee": "0xd58a2785ec",
      "l1GasPrice": "0xab51769",
      "l1GasUsed": "0x640"
    },
    {
      "status": "0x1",
      "cumulativeGasUsed": "0x172707",
      "logs": [
        {
          "address": "0x4c90332f18716c69a76799cb30db3ca085ac80a3",
          "topics": [
            "0xed8fe6238b8d547d84eb2703482dd6770869bc9d6683c696c9bf0c2e42e3fdbe"
          ],
          "data": "0x000000000000000000000000e4b0be62627747ac752669ebb93ee612ecfd73be",
          "blockHash": "0xd09c593cd575785586cda92bec90b0cb2779e20e5657518708334fd8d7d85fa5",
          "blockNumber": "0x102e814",
          "transactionHash": "0x97de865fe76f27a979cd5105b054ef9ee59989015a2d1778801e4c24237010bd",
          "transactionIndex": "0x8",
          "logIndex": "0x1f",
          "removed": false
        }
      ],
      "logsBloom": "0x00000000000400000000000000000000000000000000000000000000000000000080000000000000000000000000000000000000000000000000000000000000000000000000000000000000000000000000000000000000000000000000000000000000800000000000000000000000000000000000000000000000000000000000000000000000000000000000000000000000002000000000000000000000000000008000000000000000000000000000000000000000000000000000000000000000000000000000000100000000000000000000000000000000000000000000000000000000000000000000000000000000000000000000000000000000",
      "type": "0x2",
      "transactionHash": "0x97de865fe76f27a979cd5105b054ef9ee59989015a2d1778801e4c24237010bd",
      "transactionIndex": "0x8",
      "blockHash": "0xd09c593cd575785586cda92bec90b0cb2779e20e5657518708334fd8d7d85fa5",
      "blockNumber": "0x102e814",
      "gasUsed": "0xb7ac",
      "effectiveGasPrice": "0xf6a84",
      "from": "0x6680dfd1c6a4867476b2e60da89354ac93272878",
      "to": "0x4c90332f18716c69a76799cb30db3ca085ac80a3",
      "contractAddress": null,
      "l1BaseFeeScalar": "0x1db0",
      "l1BlobBaseFee": "0x278aaebf5",
      "l1BlobBaseFeeScalar": "0xd2730",
      "l1Fee": "0xd58a2785ec",
      "l1GasPrice": "0xab51769",
      "l1GasUsed": "0x640"
    }
  ],
  "libraries": [],
  "pending": [],
  "returns": {},
  "timestamp": 1725737947,
  "chain": 11155420,
  "commit": "67fd3b7"
}