{
  "transactions": [
    {
      "hash": "0x4b77965db3234baf5f2b101b1577927135aea86c55d79c3c0d8da37e108796f2",
      "transactionType": "CALL",
      "contractName": null,
      "contractAddress": "0xa9479fe837ef3b57f74c0af0d42e233c49f6e405",
      "function": "setPeer(uint32,bytes32)",
      "arguments": [
        "40245",
        "0x000000000000000000000000573cb0c3f0e8a307640c7a479bd1814d91274a5b"
      ],
      "transaction": {
        "from": "0xb0efd2b19a5698a9c830548ac22708a28c9d4552",
        "to": "0xa9479fe837ef3b57f74c0af0d42e233c49f6e405",
        "gas": "0x10041",
        "value": "0x0",
        "input": "0x3400288b0000000000000000000000000000000000000000000000000000000000009d35000000000000000000000000573cb0c3f0e8a307640c7a479bd1814d91274a5b",
        "nonce": "0xd",
        "chainId": "0xaa37dc"
      },
      "additionalContracts": [],
      "isFixedGasLimit": false
    },
    {
      "hash": "0x02e0617a6d1eb6cc2b3e43cd8aa3dce15ac79fbf14feb4a6cf436c27f468ccfa",
      "transactionType": "CALL",
      "contractName": null,
      "contractAddress": "0xa9479fe837ef3b57f74c0af0d42e233c49f6e405",
      "function": "setAdapterAddress(address)",
      "arguments": [
        "0xD163189d9ADd5eE1b740846E2b736823aA8D069c"
      ],
      "transaction": {
        "from": "0xb0efd2b19a5698a9c830548ac22708a28c9d4552",
        "to": "0xa9479fe837ef3b57f74c0af0d42e233c49f6e405",
        "gas": "0xecf4",
        "value": "0x0",
        "input": "0x736eede5000000000000000000000000d163189d9add5ee1b740846e2b736823aa8d069c",
        "nonce": "0xe",
        "chainId": "0xaa37dc"
      },
      "additionalContracts": [],
      "isFixedGasLimit": false
    }
  ],
  "receipts": [
    {
      "status": "0x1",
      "cumulativeGasUsed": "0x164f6",
      "logs": [
        {
          "address": "0xa9479fe837ef3b57f74c0af0d42e233c49f6e405",
          "topics": [
            "0x238399d427b947898edb290f5ff0f9109849b1c3ba196a42e35f00c50a54b98b"
          ],
          "data": "0x0000000000000000000000000000000000000000000000000000000000009d35000000000000000000000000573cb0c3f0e8a307640c7a479bd1814d91274a5b",
          "blockHash": "0x6a490353dbf57eaedf8b82a51588a813d0353f8e85c0f9629cb293f66c317478",
          "blockNumber": "0x1012636",
          "transactionHash": "0x4b77965db3234baf5f2b101b1577927135aea86c55d79c3c0d8da37e108796f2",
          "transactionIndex": "0x1",
          "logIndex": "0x0",
          "removed": false
        }
      ],
      "logsBloom": "0x00000000000000000000000000000000000000000000000000000000000000000000000000000000000000000000000000000000000000000800000000000000000000002000000000000000000000000000000000000000000000000000000000000000000000000000000000000000000000000000000000000000000000000000000000000000000000000000000000000000000000000000000000000000000000000000000000000000000000800000000000000000000002000000000000000000000000000000000000000000000000000000000000040000000000000000000000002000000000000000000000000000000000000000000000000000",
      "type": "0x2",
      "transactionHash": "0x4b77965db3234baf5f2b101b1577927135aea86c55d79c3c0d8da37e108796f2",
      "transactionIndex": "0x1",
      "blockHash": "0x6a490353dbf57eaedf8b82a51588a813d0353f8e85c0f9629cb293f66c317478",
      "blockNumber": "0x1012636",
      "gasUsed": "0xb987",
      "effectiveGasPrice": "0xf6a98",
      "from": "0xb0efd2b19a5698a9c830548ac22708a28c9d4552",
      "to": "0xa9479fe837ef3b57f74c0af0d42e233c49f6e405",
      "contractAddress": null,
      "l1BaseFeeScalar": "0x1db0",
      "l1BlobBaseFee": "0x2b6a6dd626",
      "l1BlobBaseFeeScalar": "0xd2730",
      "l1Fee": "0xec3d440c175",
      "l1GasPrice": "0x31335a96e",
      "l1GasUsed": "0x640"
    },
    {
      "status": "0x1",
      "cumulativeGasUsed": "0x21084",
      "logs": [],
      "logsBloom": "0x00000000000000000000000000000000000000000000000000000000000000000000000000000000000000000000000000000000000000000000000000000000000000000000000000000000000000000000000000000000000000000000000000000000000000000000000000000000000000000000000000000000000000000000000000000000000000000000000000000000000000000000000000000000000000000000000000000000000000000000000000000000000000000000000000000000000000000000000000000000000000000000000000000000000000000000000000000000000000000000000000000000000000000000000000000000",
      "type": "0x2",
      "transactionHash": "0x02e0617a6d1eb6cc2b3e43cd8aa3dce15ac79fbf14feb4a6cf436c27f468ccfa",
      "transactionIndex": "0x2",
      "blockHash": "0x6a490353dbf57eaedf8b82a51588a813d0353f8e85c0f9629cb293f66c317478",
      "blockNumber": "0x1012636",
      "gasUsed": "0xab8e",
      "effectiveGasPrice": "0xf6a98",
      "from": "0xb0efd2b19a5698a9c830548ac22708a28c9d4552",
      "to": "0xa9479fe837ef3b57f74c0af0d42e233c49f6e405",
      "contractAddress": null,
      "l1BaseFeeScalar": "0x1db0",
      "l1BlobBaseFee": "0x2b6a6dd626",
      "l1BlobBaseFeeScalar": "0xd2730",
      "l1Fee": "0xec3d440c175",
      "l1GasPrice": "0x31335a96e",
      "l1GasUsed": "0x640"
    }
  ],
  "libraries": [],
  "pending": [],
  "returns": {},
  "timestamp": 1725507613,
  "chain": 11155420,
  "commit": "8370d5b"
}