{
  "transactions": [
    {
      "hash": "0x9bb859a6f0b88020fcc9a1eca7a7afd17bea577c588fa7ba0dd3c8c90eed6806",
      "transactionType": "CALL",
      "contractName": null,
      "contractAddress": "0x58e294d6b380552c0cd1c6fed755e2260342b12f",
      "function": "setPeer(uint32,bytes32)",
      "arguments": [
        "40245",
        "0x00000000000000000000000073ff31a6d2f86b96d9b2d929c1c849595fcb20ce"
      ],
      "transaction": {
        "from": "0xb0efd2b19a5698a9c830548ac22708a28c9d4552",
        "to": "0x58e294d6b380552c0cd1c6fed755e2260342b12f",
        "gas": "0x9d69",
        "value": "0x0",
        "input": "0x3400288b0000000000000000000000000000000000000000000000000000000000009d3500000000000000000000000073ff31a6d2f86b96d9b2d929c1c849595fcb20ce",
        "nonce": "0x1b",
        "chainId": "0xaa37dc"
      },
      "additionalContracts": [],
      "isFixedGasLimit": false
    },
    {
      "hash": "0xcc917a692e4172904087ed293d9def06bd0c984fcd30fba20fe33238ff72024b",
      "transactionType": "CALL",
      "contractName": null,
      "contractAddress": "0x58e294d6b380552c0cd1c6fed755e2260342b12f",
      "function": "setAdapterAddresses(address[])",
      "arguments": [
        "[0xEB45856A3Ff8e52e824D40568339FE70a3ce1Fe6]"
      ],
      "transaction": {
        "from": "0xb0efd2b19a5698a9c830548ac22708a28c9d4552",
        "to": "0x58e294d6b380552c0cd1c6fed755e2260342b12f",
        "gas": "0xb580",
        "value": "0x0",
        "input": "0xa324b2f700000000000000000000000000000000000000000000000000000000000000200000000000000000000000000000000000000000000000000000000000000001000000000000000000000000eb45856a3ff8e52e824d40568339fe70a3ce1fe6",
        "nonce": "0x1c",
        "chainId": "0xaa37dc"
      },
      "additionalContracts": [],
      "isFixedGasLimit": false
    }
  ],
  "receipts": [
    {
      "status": "0x1",
      "cumulativeGasUsed": "0x389fbd",
      "logs": [
        {
          "address": "0x58e294d6b380552c0cd1c6fed755e2260342b12f",
          "topics": [
            "0x238399d427b947898edb290f5ff0f9109849b1c3ba196a42e35f00c50a54b98b"
          ],
          "data": "0x0000000000000000000000000000000000000000000000000000000000009d3500000000000000000000000073ff31a6d2f86b96d9b2d929c1c849595fcb20ce",
          "blockHash": "0x1367294e0ad719ad7d2b61d3d4c4e4a783c216d6c0499cecee9890f45c2b5b4a",
          "blockNumber": "0x10132b1",
          "transactionHash": "0x9bb859a6f0b88020fcc9a1eca7a7afd17bea577c588fa7ba0dd3c8c90eed6806",
          "transactionIndex": "0x6",
          "logIndex": "0x30",
          "removed": false
        }
      ],
      "logsBloom": "0x00000000000000000000000000000000000000000000000000000000000000000000000000000000000000000000000000000000000000000800000000000000000000000000000000000000000000000000000000000000000000000000000000000000000000000000000000000000000000000000000000000000000000008000000000000000000000000000000000000000000000000000000000000000000000000000000000000000000000200000000000020000000002000000000000000000000000000000000000000000000000000000000000040000000000000000000000000000000000000000000000000000000000000000000000000000",
      "type": "0x2",
      "transactionHash": "0x9bb859a6f0b88020fcc9a1eca7a7afd17bea577c588fa7ba0dd3c8c90eed6806",
      "transactionIndex": "0x6",
      "blockHash": "0x1367294e0ad719ad7d2b61d3d4c4e4a783c216d6c0499cecee9890f45c2b5b4a",
      "blockNumber": "0x10132b1",
      "gasUsed": "0x6ba2",
      "effectiveGasPrice": "0xf6a7d",
      "from": "0xb0efd2b19a5698a9c830548ac22708a28c9d4552",
      "to": "0x58e294d6b380552c0cd1c6fed755e2260342b12f",
      "contractAddress": null,
      "l1BaseFeeScalar": "0x1db0",
      "l1BlobBaseFee": "0x2b6a6dd626",
      "l1BlobBaseFeeScalar": "0xd2730",
      "l1Fee": "0xec78137e858",
      "l1GasPrice": "0x3609775e4",
      "l1GasUsed": "0x640"
    },
    {
      "status": "0x1",
      "cumulativeGasUsed": "0x49d73f",
      "logs": [],
      "logsBloom": "0x00000000000000000000000000000000000000000000000000000000000000000000000000000000000000000000000000000000000000000000000000000000000000000000000000000000000000000000000000000000000000000000000000000000000000000000000000000000000000000000000000000000000000000000000000000000000000000000000000000000000000000000000000000000000000000000000000000000000000000000000000000000000000000000000000000000000000000000000000000000000000000000000000000000000000000000000000000000000000000000000000000000000000000000000000000000",
      "type": "0x2",
      "transactionHash": "0xcc917a692e4172904087ed293d9def06bd0c984fcd30fba20fe33238ff72024b",
      "transactionIndex": "0x8",
      "blockHash": "0x1367294e0ad719ad7d2b61d3d4c4e4a783c216d6c0499cecee9890f45c2b5b4a",
      "blockNumber": "0x10132b1",
      "gasUsed": "0x7c1b",
      "effectiveGasPrice": "0xf6a7d",
      "from": "0xb0efd2b19a5698a9c830548ac22708a28c9d4552",
      "to": "0x58e294d6b380552c0cd1c6fed755e2260342b12f",
      "contractAddress": null,
      "l1BaseFeeScalar": "0x1db0",
      "l1BlobBaseFee": "0x2b6a6dd626",
      "l1BlobBaseFeeScalar": "0xd2730",
      "l1Fee": "0xec78137e858",
      "l1GasPrice": "0x3609775e4",
      "l1GasUsed": "0x640"
    }
  ],
  "libraries": [],
  "pending": [],
  "returns": {},
  "timestamp": 1725514003,
  "chain": 11155420,
  "commit": "8370d5b"
}