{
  "transactions": [
    {
      "hash": "0xd56ff4d43ed9ddcc8253fad4dbabd86c233d27fde1bb0a63106548dc472fc35f",
      "transactionType": "CALL",
      "contractName": null,
      "contractAddress": "0x9888bba3730ed2cf060b38f4e3e6654b45a5dd04",
      "function": "setPeer(uint32,bytes32)",
      "arguments": [
        "40245",
        "0x000000000000000000000000bb9e6eb4494a7186a71ddd68500823782bd9d5aa"
      ],
      "transaction": {
        "from": "0xb0efd2b19a5698a9c830548ac22708a28c9d4552",
        "to": "0x9888bba3730ed2cf060b38f4e3e6654b45a5dd04",
        "gas": "0x10008",
        "value": "0x0",
        "input": "0x3400288b0000000000000000000000000000000000000000000000000000000000009d35000000000000000000000000bb9e6eb4494a7186a71ddd68500823782bd9d5aa",
        "nonce": "0x41",
        "chainId": "0xaa37dc"
      },
      "additionalContracts": [],
      "isFixedGasLimit": false
    },
    {
      "hash": "0xcb516787989b02a3bb4824818b42fa708e02048df8f752817f1412fc01600f63",
      "transactionType": "CALL",
      "contractName": null,
      "contractAddress": "0x9888bba3730ed2cf060b38f4e3e6654b45a5dd04",
      "function": "setAdapterAddresses(address[])",
      "arguments": [
        "[0xB9Ae968cbD21C327f37a3D4248eA2D57EF81938D]"
      ],
      "transaction": {
        "from": "0xb0efd2b19a5698a9c830548ac22708a28c9d4552",
        "to": "0x9888bba3730ed2cf060b38f4e3e6654b45a5dd04",
        "gas": "0x18926",
        "value": "0x0",
        "input": "0xa324b2f700000000000000000000000000000000000000000000000000000000000000200000000000000000000000000000000000000000000000000000000000000001000000000000000000000000b9ae968cbd21c327f37a3d4248ea2d57ef81938d",
        "nonce": "0x42",
        "chainId": "0xaa37dc"
      },
      "additionalContracts": [],
      "isFixedGasLimit": false
    }
  ],
  "receipts": [
    {
      "status": "0x1",
      "cumulativeGasUsed": "0x22dcb4",
      "logs": [
        {
          "address": "0x9888bba3730ed2cf060b38f4e3e6654b45a5dd04",
          "topics": [
            "0x238399d427b947898edb290f5ff0f9109849b1c3ba196a42e35f00c50a54b98b"
          ],
          "data": "0x0000000000000000000000000000000000000000000000000000000000009d35000000000000000000000000bb9e6eb4494a7186a71ddd68500823782bd9d5aa",
          "blockHash": "0xd4079d4917629dcc5820779c8537201995b21064b7d6f11b019dc07db0b83fbb",
          "blockNumber": "0x101494f",
          "transactionHash": "0xd56ff4d43ed9ddcc8253fad4dbabd86c233d27fde1bb0a63106548dc472fc35f",
          "transactionIndex": "0x5",
          "logIndex": "0x33",
          "removed": false
        }
      ],
      "logsBloom": "0x00000000000000000000000000000000000000000000000000000000000000000000000000000000000000000000000000000000000000000880000000000000000000000000000000000000000000000000000000000000000000000000000000000000000000000000000000000000020400000000000000000000000000000000000000000000000000000000000000000000000000000000000000000000000000000000000000000000000000000000000000000000000002000000000000000000000000000000000000000000000000000000000000040000000000000000000000000000000000000000000000000000000000000000000000000000",
      "type": "0x2",
      "transactionHash": "0xd56ff4d43ed9ddcc8253fad4dbabd86c233d27fde1bb0a63106548dc472fc35f",
      "transactionIndex": "0x5",
      "blockHash": "0xd4079d4917629dcc5820779c8537201995b21064b7d6f11b019dc07db0b83fbb",
      "blockNumber": "0x101494f",
      "gasUsed": "0xb95e",
      "effectiveGasPrice": "0x34ef19a",
      "from": "0xb0efd2b19a5698a9c830548ac22708a28c9d4552",
      "to": "0x9888bba3730ed2cf060b38f4e3e6654b45a5dd04",
      "contractAddress": null,
      "l1BaseFeeScalar": "0x1db0",
      "l1BlobBaseFee": "0x92a1525e2d",
      "l1BlobBaseFeeScalar": "0xd2730",
      "l1Fee": "0x32045802dd70",
      "l1GasPrice": "0xd8df92fe1",
      "l1GasUsed": "0x640"
    },
    {
      "status": "0x1",
      "cumulativeGasUsed": "0x23e986",
      "logs": [],
      "logsBloom": "0x00000000000000000000000000000000000000000000000000000000000000000000000000000000000000000000000000000000000000000000000000000000000000000000000000000000000000000000000000000000000000000000000000000000000000000000000000000000000000000000000000000000000000000000000000000000000000000000000000000000000000000000000000000000000000000000000000000000000000000000000000000000000000000000000000000000000000000000000000000000000000000000000000000000000000000000000000000000000000000000000000000000000000000000000000000000",
      "type": "0x2",
      "transactionHash": "0xcb516787989b02a3bb4824818b42fa708e02048df8f752817f1412fc01600f63",
      "transactionIndex": "0x6",
      "blockHash": "0xd4079d4917629dcc5820779c8537201995b21064b7d6f11b019dc07db0b83fbb",
      "blockNumber": "0x101494f",
      "gasUsed": "0x10cd2",
      "effectiveGasPrice": "0x34ef19a",
      "from": "0xb0efd2b19a5698a9c830548ac22708a28c9d4552",
      "to": "0x9888bba3730ed2cf060b38f4e3e6654b45a5dd04",
      "contractAddress": null,
      "l1BaseFeeScalar": "0x1db0",
      "l1BlobBaseFee": "0x92a1525e2d",
      "l1BlobBaseFeeScalar": "0xd2730",
      "l1Fee": "0x32045802dd70",
      "l1GasPrice": "0xd8df92fe1",
      "l1GasUsed": "0x640"
    }
  ],
  "libraries": [],
  "pending": [],
  "returns": {},
  "timestamp": 1725525582,
  "chain": 11155420,
  "commit": "8370d5b"
}