{
  "transactions": [
    {
      "hash": "0xff0bb5ea8614bf2cc900d62a6ce435fed02e46d871242787ea2425ca0986f253",
      "transactionType": "CALL",
      "contractName": null,
      "contractAddress": "0xff9b415be451a95a36f0609b51389119112e525f",
      "function": "setPeer(uint32,bytes32)",
      "arguments": [
        "40245",
        "0x00000000000000000000000011208843dd830377259f754155a013098ae81fea"
      ],
      "transaction": {
        "from": "0x6680dfd1c6a4867476b2e60da89354ac93272878",
        "to": "0xff9b415be451a95a36f0609b51389119112e525f",
        "gas": "0x10008",
        "value": "0x0",
        "input": "0x3400288b0000000000000000000000000000000000000000000000000000000000009d3500000000000000000000000011208843dd830377259f754155a013098ae81fea",
        "nonce": "0x6",
        "chainId": "0xaa37dc"
      },
      "additionalContracts": [],
      "isFixedGasLimit": false
    },
    {
      "hash": "0xc30ed8c908880b11b848fe4b38d1035590f6fff1955fb2e2946052daee1ae027",
      "transactionType": "CALL",
      "contractName": null,
      "contractAddress": "0xccb5bc7326336e7ce7a0030b69529b1d2f9bc7a5",
      "function": "setPeer(uint32,bytes32)",
      "arguments": [
        "40232",
        "0x000000000000000000000000644341c5705fc721ca63131be918d363a084aa3a"
      ],
      "transaction": {
        "from": "0x6680dfd1c6a4867476b2e60da89354ac93272878",
        "to": "0xccb5bc7326336e7ce7a0030b69529b1d2f9bc7a5",
        "gas": "0x10224",
        "value": "0x0",
        "input": "0x3400288b0000000000000000000000000000000000000000000000000000000000009d28000000000000000000000000644341c5705fc721ca63131be918d363a084aa3a",
        "nonce": "0x7",
        "chainId": "0xaa37dc"
      },
      "additionalContracts": [],
      "isFixedGasLimit": false
    },
    {
      "hash": "0xc9646202dd906e9ddb766ec7e1d6a46e026d4c39783461ada9c393dfa7b3500c",
      "transactionType": "CALL",
      "contractName": null,
      "contractAddress": "0x644341c5705fc721ca63131be918d363a084aa3a",
      "function": "setPeer(uint32,bytes32)",
      "arguments": [
        "40245",
        "0x000000000000000000000000ccb5bc7326336e7ce7a0030b69529b1d2f9bc7a5"
      ],
      "transaction": {
        "from": "0x6680dfd1c6a4867476b2e60da89354ac93272878",
        "to": "0x644341c5705fc721ca63131be918d363a084aa3a",
        "gas": "0x10032",
        "value": "0x0",
        "input": "0x3400288b0000000000000000000000000000000000000000000000000000000000009d35000000000000000000000000ccb5bc7326336e7ce7a0030b69529b1d2f9bc7a5",
        "nonce": "0x8",
        "chainId": "0xaa37dc"
      },
      "additionalContracts": [],
      "isFixedGasLimit": false
    },
    {
      "hash": "0x5b838705750a4579dc3730ecb0b3f2ae74b7058aa5af3b725d33a3efd19817b1",
      "transactionType": "CALL",
      "contractName": null,
      "contractAddress": "0xccb5bc7326336e7ce7a0030b69529b1d2f9bc7a5",
      "function": "setComposerSecondEid(uint32)",
      "arguments": [
        "40232"
      ],
      "transaction": {
        "from": "0x6680dfd1c6a4867476b2e60da89354ac93272878",
        "to": "0xccb5bc7326336e7ce7a0030b69529b1d2f9bc7a5",
        "gas": "0xf6c2",
        "value": "0x0",
        "input": "0x066af8ce0000000000000000000000000000000000000000000000000000000000009d28",
        "nonce": "0x9",
        "chainId": "0xaa37dc"
      },
      "additionalContracts": [],
      "isFixedGasLimit": false
    },
    {
      "hash": "0x2065d90a7466d65de1ff87803ba28e5dad195ded160fb65b2829f2e8756aaabd",
      "transactionType": "CALL",
      "contractName": null,
      "contractAddress": "0xff9b415be451a95a36f0609b51389119112e525f",
      "function": "setAdapterAddresses(address[])",
      "arguments": [
        "[0xCCb5bc7326336e7cE7a0030b69529B1d2F9Bc7A5]"
      ],
      "transaction": {
        "from": "0x6680dfd1c6a4867476b2e60da89354ac93272878",
        "to": "0xff9b415be451a95a36f0609b51389119112e525f",
        "gas": "0x17c7d",
        "value": "0x0",
        "input": "0xa324b2f700000000000000000000000000000000000000000000000000000000000000200000000000000000000000000000000000000000000000000000000000000001000000000000000000000000ccb5bc7326336e7ce7a0030b69529b1d2f9bc7a5",
        "nonce": "0xa",
        "chainId": "0xaa37dc"
      },
      "additionalContracts": [],
      "isFixedGasLimit": false
    },
    {
      "hash": "0x5fe60f0e7649ceb03e49f71e5d9d893b47d52df60e065cfc544e4f56646129c1",
      "transactionType": "CALL",
      "contractName": null,
      "contractAddress": "0x644341c5705fc721ca63131be918d363a084aa3a",
      "function": "setAttestationsAddress(address)",
      "arguments": [
        "0x11208843dd830377259f754155A013098aE81FEa"
      ],
      "transaction": {
        "from": "0x6680dfd1c6a4867476b2e60da89354ac93272878",
        "to": "0x644341c5705fc721ca63131be918d363a084aa3a",
        "gas": "0xfdb1",
        "value": "0x0",
        "input": "0x172e09e800000000000000000000000011208843dd830377259f754155a013098ae81fea",
        "nonce": "0xb",
        "chainId": "0xaa37dc"
      },
      "additionalContracts": [],
      "isFixedGasLimit": false
    }
  ],
  "receipts": [
    {
      "status": "0x1",
      "cumulativeGasUsed": "0x3830e1",
      "logs": [
        {
          "address": "0xff9b415be451a95a36f0609b51389119112e525f",
          "topics": [
            "0x238399d427b947898edb290f5ff0f9109849b1c3ba196a42e35f00c50a54b98b"
          ],
          "data": "0x0000000000000000000000000000000000000000000000000000000000009d3500000000000000000000000011208843dd830377259f754155a013098ae81fea",
          "blockHash": "0xa8af6063cc3237ee69d547e4fe19cecd5683bb15f406641b7e94e230ab74965c",
          "blockNumber": "0x102e59d",
          "transactionHash": "0xff0bb5ea8614bf2cc900d62a6ce435fed02e46d871242787ea2425ca0986f253",
          "transactionIndex": "0x5",
          "logIndex": "0x2d",
          "removed": false
        }
      ],
      "logsBloom": "0x00000000000000000000000000000000000000000000000000000000000000000000000000000001000000000000000000000000000000000800000000000000000000000000000000000000000000000000000000000000000000000000000000000000000000000000000000000000000000000000000000100000000000000000000000000000000000000000000000000000000000000000000000000000000000020000000000000000000000000000000000000000000002000000000000000000000000000000000000000000000000000000000000040000000000000000000000000000000000000000000000000000000000000000000000000000",
      "type": "0x2",
      "transactionHash": "0xff0bb5ea8614bf2cc900d62a6ce435fed02e46d871242787ea2425ca0986f253",
      "transactionIndex": "0x5",
      "blockHash": "0xa8af6063cc3237ee69d547e4fe19cecd5683bb15f406641b7e94e230ab74965c",
      "blockNumber": "0x102e59d",
      "gasUsed": "0xb95e",
      "effectiveGasPrice": "0xf6a90",
      "from": "0x6680dfd1c6a4867476b2e60da89354ac93272878",
      "to": "0xff9b415be451a95a36f0609b51389119112e525f",
      "contractAddress": null,
      "l1BaseFeeScalar": "0x1db0",
      "l1BlobBaseFee": "0x502994693",
      "l1BlobBaseFeeScalar": "0xd2730",
      "l1Fee": "0x1b0b1e97f44",
      "l1GasPrice": "0x1142f98c",
      "l1GasUsed": "0x640"
    },
    {
      "status": "0x1",
      "cumulativeGasUsed": "0x38ebc5",
      "logs": [
        {
          "address": "0xccb5bc7326336e7ce7a0030b69529b1d2f9bc7a5",
          "topics": [
            "0x238399d427b947898edb290f5ff0f9109849b1c3ba196a42e35f00c50a54b98b"
          ],
          "data": "0x0000000000000000000000000000000000000000000000000000000000009d28000000000000000000000000644341c5705fc721ca63131be918d363a084aa3a",
          "blockHash": "0xa8af6063cc3237ee69d547e4fe19cecd5683bb15f406641b7e94e230ab74965c",
          "blockNumber": "0x102e59d",
          "transactionHash": "0xc30ed8c908880b11b848fe4b38d1035590f6fff1955fb2e2946052daee1ae027",
          "transactionIndex": "0x6",
          "logIndex": "0x2e",
          "removed": false
        }
      ],
      "logsBloom": "0x00000000000000000000000000000000000000000000000000000000000000000000000000000000000000000000000000200000000000000800000000000000000000000000000000000000000000000000008000000000000000000000000000000000000000000000000000000000020000000000000000000000000000000000000000000000000000000000000000000000000000000000000000000000000000000000000000000000000000000000000000000000000002000000000000000000000000000000000000000000000000000000000000040000000000000000000000000000000000000000000000000000000000000000000000000000",
      "type": "0x2",
      "transactionHash": "0xc30ed8c908880b11b848fe4b38d1035590f6fff1955fb2e2946052daee1ae027",
      "transactionIndex": "0x6",
      "blockHash": "0xa8af6063cc3237ee69d547e4fe19cecd5683bb15f406641b7e94e230ab74965c",
      "blockNumber": "0x102e59d",
      "gasUsed": "0xbae4",
      "effectiveGasPrice": "0xf6a90",
      "from": "0x6680dfd1c6a4867476b2e60da89354ac93272878",
      "to": "0xccb5bc7326336e7ce7a0030b69529b1d2f9bc7a5",
      "contractAddress": null,
      "l1BaseFeeScalar": "0x1db0",
      "l1BlobBaseFee": "0x502994693",
      "l1BlobBaseFeeScalar": "0xd2730",
      "l1Fee": "0x1b0b1e97f44",
      "l1GasPrice": "0x1142f98c",
      "l1GasUsed": "0x640"
    },
    {
      "status": "0x1",
      "cumulativeGasUsed": "0x39a541",
      "logs": [
        {
          "address": "0x644341c5705fc721ca63131be918d363a084aa3a",
          "topics": [
            "0x238399d427b947898edb290f5ff0f9109849b1c3ba196a42e35f00c50a54b98b"
          ],
          "data": "0x0000000000000000000000000000000000000000000000000000000000009d35000000000000000000000000ccb5bc7326336e7ce7a0030b69529b1d2f9bc7a5",
          "blockHash": "0xa8af6063cc3237ee69d547e4fe19cecd5683bb15f406641b7e94e230ab74965c",
          "blockNumber": "0x102e59d",
          "transactionHash": "0xc9646202dd906e9ddb766ec7e1d6a46e026d4c39783461ada9c393dfa7b3500c",
          "transactionIndex": "0x7",
          "logIndex": "0x2f",
          "removed": false
        }
      ],
      "logsBloom": "0x00000000000000000000000000000000400000000000000000000000000000004000000000000000000000000000000000000000000000000800000200000000000000000000000000000000000000000000000000000000000000000000000000000000000000000000000000000000000000000000000000000000000000000000000000000000000000000000000000000000000000000000000000000000000000000000000000000000000000000000000000000000000002000000000000000000000000000000000000000000000000000000000000040000000000000000000000000000000000000000000000000000000000000000000000000000",
      "type": "0x2",
      "transactionHash": "0xc9646202dd906e9ddb766ec7e1d6a46e026d4c39783461ada9c393dfa7b3500c",
      "transactionIndex": "0x7",
      "blockHash": "0xa8af6063cc3237ee69d547e4fe19cecd5683bb15f406641b7e94e230ab74965c",
      "blockNumber": "0x102e59d",
      "gasUsed": "0xb97c",
      "effectiveGasPrice": "0xf6a90",
      "from": "0x6680dfd1c6a4867476b2e60da89354ac93272878",
      "to": "0x644341c5705fc721ca63131be918d363a084aa3a",
      "contractAddress": null,
      "l1BaseFeeScalar": "0x1db0",
      "l1BlobBaseFee": "0x502994693",
      "l1BlobBaseFeeScalar": "0xd2730",
      "l1Fee": "0x1b0b1e97f44",
      "l1GasPrice": "0x1142f98c",
      "l1GasUsed": "0x640"
    },
    {
      "status": "0x1",
      "cumulativeGasUsed": "0x3a57e8",
      "logs": [],
      "logsBloom": "0x00000000000000000000000000000000000000000000000000000000000000000000000000000000000000000000000000000000000000000000000000000000000000000000000000000000000000000000000000000000000000000000000000000000000000000000000000000000000000000000000000000000000000000000000000000000000000000000000000000000000000000000000000000000000000000000000000000000000000000000000000000000000000000000000000000000000000000000000000000000000000000000000000000000000000000000000000000000000000000000000000000000000000000000000000000000",
      "type": "0x2",
      "transactionHash": "0x5b838705750a4579dc3730ecb0b3f2ae74b7058aa5af3b725d33a3efd19817b1",
      "transactionIndex": "0x8",
      "blockHash": "0xa8af6063cc3237ee69d547e4fe19cecd5683bb15f406641b7e94e230ab74965c",
      "blockNumber": "0x102e59d",
      "gasUsed": "0xb2a7",
      "effectiveGasPrice": "0xf6a90",
      "from": "0x6680dfd1c6a4867476b2e60da89354ac93272878",
      "to": "0xccb5bc7326336e7ce7a0030b69529b1d2f9bc7a5",
      "contractAddress": null,
      "l1BaseFeeScalar": "0x1db0",
      "l1BlobBaseFee": "0x502994693",
      "l1BlobBaseFeeScalar": "0xd2730",
      "l1Fee": "0x1b0b1e97f44",
      "l1GasPrice": "0x1142f98c",
      "l1GasUsed": "0x640"
    },
    {
      "status": "0x1",
      "cumulativeGasUsed": "0x3b6b60",
      "logs": [
        {
          "address": "0xff9b415be451a95a36f0609b51389119112e525f",
          "topics": [
            "0xe3b79b0152415c3a6a3b843b01948e52a65cb32668a2bbccef929ed5956669a5"
          ],
          "data": "0x00000000000000000000000000000000000000000000000000000000000000200000000000000000000000000000000000000000000000000000000000000001000000000000000000000000ccb5bc7326336e7ce7a0030b69529b1d2f9bc7a5",
          "blockHash": "0xa8af6063cc3237ee69d547e4fe19cecd5683bb15f406641b7e94e230ab74965c",
          "blockNumber": "0x102e59d",
          "transactionHash": "0x2065d90a7466d65de1ff87803ba28e5dad195ded160fb65b2829f2e8756aaabd",
          "transactionIndex": "0x9",
          "logIndex": "0x30",
          "removed": false
        }
      ],
      "logsBloom": "0x00000000000000000000000000000000000000000000000000000000000000000000000000000001008000000000000000000000000000000000000000000000000000000000000000000000000000000000000000000000000000000000000000000000000000000000000000000000000000000000000000100000000000000000001000001000000000000000000000000000000000000000000000000000000000020000000000000000000000000000000000000000000000000000000000000000000000000000000000000000000000000000000000000000000000000000000000000000000000000000000000000000000000000000000000000000",
      "type": "0x2",
      "transactionHash": "0x2065d90a7466d65de1ff87803ba28e5dad195ded160fb65b2829f2e8756aaabd",
      "transactionIndex": "0x9",
      "blockHash": "0xa8af6063cc3237ee69d547e4fe19cecd5683bb15f406641b7e94e230ab74965c",
      "blockNumber": "0x102e59d",
      "gasUsed": "0x11378",
      "effectiveGasPrice": "0xf6a90",
      "from": "0x6680dfd1c6a4867476b2e60da89354ac93272878",
      "to": "0xff9b415be451a95a36f0609b51389119112e525f",
      "contractAddress": null,
      "l1BaseFeeScalar": "0x1db0",
      "l1BlobBaseFee": "0x502994693",
      "l1BlobBaseFeeScalar": "0xd2730",
      "l1Fee": "0x1b0b1e97f44",
      "l1GasPrice": "0x1142f98c",
      "l1GasUsed": "0x640"
    },
    {
      "status": "0x1",
      "cumulativeGasUsed": "0x3c230c",
      "logs": [
        {
          "address": "0x644341c5705fc721ca63131be918d363a084aa3a",
          "topics": [
            "0xed8fe6238b8d547d84eb2703482dd6770869bc9d6683c696c9bf0c2e42e3fdbe"
          ],
          "data": "0x00000000000000000000000011208843dd830377259f754155a013098ae81fea",
          "blockHash": "0xa8af6063cc3237ee69d547e4fe19cecd5683bb15f406641b7e94e230ab74965c",
          "blockNumber": "0x102e59d",
          "transactionHash": "0x5fe60f0e7649ceb03e49f71e5d9d893b47d52df60e065cfc544e4f56646129c1",
          "transactionIndex": "0xa",
          "logIndex": "0x31",
          "removed": false
        }
      ],
      "logsBloom": "0x00000000000400000000000000000000400000000000000000000000000000004080000000000000000000000000000000000000000000000000000200000000000000000000000000000000000000000000000000000000000000000000000000000000800000000000000000000000000000000000000000000000000000000000000000000000000000000000000000000000000000000000000000000000000000000000000000000000000000000000000000000000000000000000000000000000000000000000000000000000000000000000000000000000000000000000000000000000000000000000000000000000000000000000000000000000",
      "type": "0x2",
      "transactionHash": "0x5fe60f0e7649ceb03e49f71e5d9d893b47d52df60e065cfc544e4f56646129c1",
      "transactionIndex": "0xa",
      "blockHash": "0xa8af6063cc3237ee69d547e4fe19cecd5683bb15f406641b7e94e230ab74965c",
      "blockNumber": "0x102e59d",
      "gasUsed": "0xb7ac",
      "effectiveGasPrice": "0xf6a90",
      "from": "0x6680dfd1c6a4867476b2e60da89354ac93272878",
      "to": "0x644341c5705fc721ca63131be918d363a084aa3a",
      "contractAddress": null,
      "l1BaseFeeScalar": "0x1db0",
      "l1BlobBaseFee": "0x502994693",
      "l1BlobBaseFeeScalar": "0xd2730",
      "l1Fee": "0x1b0b1e97f44",
      "l1GasPrice": "0x1142f98c",
      "l1GasUsed": "0x640"
    }
  ],
  "libraries": [],
  "pending": [],
  "returns": {},
  "timestamp": 1725736685,
  "chain": 11155420,
  "commit": "67fd3b7"
}