{
  "transactions": [
    {
      "hash": "0xb690da2ca83d6e621b52ba48772681aca551c71dbffe52a43b13aaa9eaadb6a0",
      "transactionType": "CALL",
      "contractName": null,
      "contractAddress": "0x5fdbfde0332b5023ab49548d8239ef8f7190f221",
      "function": "setPeer(uint32,bytes32)",
      "arguments": [
        "40245",
        "0x000000000000000000000000f47d259df9b4b79b802f920f0e9688754a0597ee"
      ],
      "transaction": {
        "from": "0x12b2434a1022d5787bf06056f2885fe35de62bf8",
        "to": "0x5fdbfde0332b5023ab49548d8239ef8f7190f221",
        "gas": "0x10008",
        "value": "0x0",
        "input": "0x3400288b0000000000000000000000000000000000000000000000000000000000009d35000000000000000000000000f47d259df9b4b79b802f920f0e9688754a0597ee",
        "nonce": "0x4e",
        "chainId": "0xaa37dc"
      },
      "additionalContracts": [],
      "isFixedGasLimit": false
    },
    {
      "hash": "0x7c186a99fe99c49e293e4c67e603851feaf24de9b23f936d9b873a82add8291b",
      "transactionType": "CALL",
      "contractName": null,
      "contractAddress": "0x5fdbfde0332b5023ab49548d8239ef8f7190f221",
      "function": "setAdapterAddresses(address[])",
      "arguments": [
        "[0xD95e48a59098C53Aa070Fc026970F44e9175b4e1]"
      ],
      "transaction": {
        "from": "0x12b2434a1022d5787bf06056f2885fe35de62bf8",
        "to": "0x5fdbfde0332b5023ab49548d8239ef8f7190f221",
        "gas": "0x17cbc",
        "value": "0x0",
        "input": "0xa324b2f700000000000000000000000000000000000000000000000000000000000000200000000000000000000000000000000000000000000000000000000000000001000000000000000000000000d95e48a59098c53aa070fc026970f44e9175b4e1",
        "nonce": "0x4f",
        "chainId": "0xaa37dc"
      },
      "additionalContracts": [],
      "isFixedGasLimit": false
    }
  ],
  "receipts": [
    {
      "status": "0x1",
      "cumulativeGasUsed": "0xde47e",
      "logs": [
        {
          "address": "0x5fdbfde0332b5023ab49548d8239ef8f7190f221",
          "topics": [
            "0x238399d427b947898edb290f5ff0f9109849b1c3ba196a42e35f00c50a54b98b"
          ],
          "data": "0x0000000000000000000000000000000000000000000000000000000000009d35000000000000000000000000f47d259df9b4b79b802f920f0e9688754a0597ee",
          "blockHash": "0x7d5b7ce8aab6a2dfa59f56a240dba1103f372e1798181db046c871d3f7146b31",
          "blockNumber": "0x1020349",
          "transactionHash": "0xb690da2ca83d6e621b52ba48772681aca551c71dbffe52a43b13aaa9eaadb6a0",
          "transactionIndex": "0x3",
          "logIndex": "0x11",
          "removed": false
        }
      ],
      "logsBloom": "0x00000000000000000000000000000000000000000000000000000000000000000000000000000000000000000000000000008000000000000800000000000000000000000000000000000000000000000000000000000000000000000000000008000000000000000000000000000000000000000000000000000000000000400000000000000000000000000000000000000000000000000000000000000000000000000000000000000000000000000000000000000000000002000000000000000000000000000000000000000000000000000000000000040000000000000000000000000000000000000000000000000000000000000000000000000000",
      "type": "0x2",
      "transactionHash": "0xb690da2ca83d6e621b52ba48772681aca551c71dbffe52a43b13aaa9eaadb6a0",
      "transactionIndex": "0x3",
      "blockHash": "0x7d5b7ce8aab6a2dfa59f56a240dba1103f372e1798181db046c871d3f7146b31",
      "blockNumber": "0x1020349",
      "gasUsed": "0xb95e",
      "effectiveGasPrice": "0x6754b36",
      "from": "0x12b2434a1022d5787bf06056f2885fe35de62bf8",
      "to": "0x5fdbfde0332b5023ab49548d8239ef8f7190f221",
      "contractAddress": null,
      "l1BaseFeeScalar": "0x1db0",
      "l1BlobBaseFee": "0x3dd1098c99",
      "l1BlobBaseFeeScalar": "0xd2730",
      "l1Fee": "0x14ea7c500191",
      "l1GasPrice": "0x2213cfdfc",
      "l1GasUsed": "0x640"
    },
    {
      "status": "0x1",
      "cumulativeGasUsed": "0xef824",
      "logs": [
        {
          "address": "0x5fdbfde0332b5023ab49548d8239ef8f7190f221",
          "topics": [
            "0xe3b79b0152415c3a6a3b843b01948e52a65cb32668a2bbccef929ed5956669a5"
          ],
          "data": "0x00000000000000000000000000000000000000000000000000000000000000200000000000000000000000000000000000000000000000000000000000000001000000000000000000000000d95e48a59098c53aa070fc026970f44e9175b4e1",
          "blockHash": "0x7d5b7ce8aab6a2dfa59f56a240dba1103f372e1798181db046c871d3f7146b31",
          "blockNumber": "0x1020349",
          "transactionHash": "0x7c186a99fe99c49e293e4c67e603851feaf24de9b23f936d9b873a82add8291b",
          "transactionIndex": "0x4",
          "logIndex": "0x12",
          "removed": false
        }
      ],
      "logsBloom": "0x00000000000000000000000000000000000000000000000000000000000000000000000000000000008000000000000000008000000000000000000000000000000000000000000000000000000000000000000000000000000000000000000008000000000000000000000000000000000000000000000000000000000000400000001000001000000000000000000000000000000000000000000000000000000000000000000000000000000000000000000000000000000000000000000000000000000000000000000000000000000000000000000000000000000000000000000000000000000000000000000000000000000000000000000000000000",
      "type": "0x2",
      "transactionHash": "0x7c186a99fe99c49e293e4c67e603851feaf24de9b23f936d9b873a82add8291b",
      "transactionIndex": "0x4",
      "blockHash": "0x7d5b7ce8aab6a2dfa59f56a240dba1103f372e1798181db046c871d3f7146b31",
      "blockNumber": "0x1020349",
      "gasUsed": "0x113a6",
      "effectiveGasPrice": "0x6754b36",
      "from": "0x12b2434a1022d5787bf06056f2885fe35de62bf8",
      "to": "0x5fdbfde0332b5023ab49548d8239ef8f7190f221",
      "contractAddress": null,
      "l1BaseFeeScalar": "0x1db0",
      "l1BlobBaseFee": "0x3dd1098c99",
      "l1BlobBaseFeeScalar": "0xd2730",
      "l1Fee": "0x14ea7c500191",
      "l1GasPrice": "0x2213cfdfc",
      "l1GasUsed": "0x640"
    }
  ],
  "libraries": [],
  "pending": [],
  "returns": {},
  "timestamp": 1725620805,
  "chain": 11155420,
  "commit": "dc78ae4"
}