{
  "transactions": [
    {
      "hash": "0xe95cc3b3f949c2a2df8c59d2ce56dc730adb1ec2d171c72b82c1466a886e539d",
      "transactionType": "CALL",
      "contractName": null,
      "contractAddress": "0x2fa6a8cd34b524e038e998771347049365c00658",
      "function": "setPeer(uint32,bytes32)",
      "arguments": [
        "40245",
        "0x0000000000000000000000001de322762f4c930cef3268fbfb7f12bd72d33227"
      ],
      "transaction": {
        "from": "0xb0efd2b19a5698a9c830548ac22708a28c9d4552",
        "to": "0x2fa6a8cd34b524e038e998771347049365c00658",
        "gas": "0x10008",
        "value": "0x0",
        "input": "0x3400288b0000000000000000000000000000000000000000000000000000000000009d350000000000000000000000001de322762f4c930cef3268fbfb7f12bd72d33227",
        "nonce": "0x24",
        "chainId": "0xaa37dc"
      },
      "additionalContracts": [],
      "isFixedGasLimit": false
    },
    {
      "hash": "0xd2cb819531966603d12bd66baa5d8075b02eac903721b8031633ba9ac6a3d444",
      "transactionType": "CALL",
      "contractName": null,
      "contractAddress": "0x2fa6a8cd34b524e038e998771347049365c00658",
      "function": "setAdapterAddresses(address[])",
      "arguments": [
        "[0x57c7359DFcCB6a943d1d3fAb535A3ae0e5c23A75]"
      ],
      "transaction": {
        "from": "0xb0efd2b19a5698a9c830548ac22708a28c9d4552",
        "to": "0x2fa6a8cd34b524e038e998771347049365c00658",
        "gas": "0x188e1",
        "value": "0x0",
        "input": "0xa324b2f70000000000000000000000000000000000000000000000000000000000000020000000000000000000000000000000000000000000000000000000000000000100000000000000000000000057c7359dfccb6a943d1d3fab535a3ae0e5c23a75",
        "nonce": "0x25",
        "chainId": "0xaa37dc"
      },
      "additionalContracts": [],
      "isFixedGasLimit": false
    }
  ],
  "receipts": [
    {
      "status": "0x1",
      "cumulativeGasUsed": "0x2bced6",
      "logs": [
        {
          "address": "0x2fa6a8cd34b524e038e998771347049365c00658",
          "topics": [
            "0x238399d427b947898edb290f5ff0f9109849b1c3ba196a42e35f00c50a54b98b"
          ],
          "data": "0x0000000000000000000000000000000000000000000000000000000000009d350000000000000000000000001de322762f4c930cef3268fbfb7f12bd72d33227",
          "blockHash": "0x63b124beb8f596e9f36e2755f28007fb5f0cad8297558f85283a534ee20b4e7e",
          "blockNumber": "0x1013ce7",
          "transactionHash": "0xe95cc3b3f949c2a2df8c59d2ce56dc730adb1ec2d171c72b82c1466a886e539d",
          "transactionIndex": "0x6",
          "logIndex": "0x3c",
          "removed": false
        }
      ],
      "logsBloom": "0x00000000000000010000000000000000000000000000000000000000000000000000000000000000000000000000000000000000000000000800000000000000000000000000040000000000000000000000000000000000000000000000000000000000000000000000000000000000000000000000000000000000000000000000000000000000000000000000000000000000000000000000000000000000000000000000000000000000000000000000000000000001000002000000000000000000000000000000000000000000000000000000000000040000000000000000000000000000000000000000000000000000000000000000000000000000",
      "type": "0x2",
      "transactionHash": "0xe95cc3b3f949c2a2df8c59d2ce56dc730adb1ec2d171c72b82c1466a886e539d",
      "transactionIndex": "0x6",
      "blockHash": "0x63b124beb8f596e9f36e2755f28007fb5f0cad8297558f85283a534ee20b4e7e",
      "blockNumber": "0x1013ce7",
      "gasUsed": "0xb95e",
      "effectiveGasPrice": "0xf6a78",
      "from": "0xb0efd2b19a5698a9c830548ac22708a28c9d4552",
      "to": "0x2fa6a8cd34b524e038e998771347049365c00658",
      "contractAddress": null,
      "l1BaseFeeScalar": "0x1db0",
      "l1BlobBaseFee": "0x169bc9f5e86",
      "l1BlobBaseFeeScalar": "0xd2730",
      "l1Fee": "0x7ab0601c5814",
      "l1GasPrice": "0x12a3d89780",
      "l1GasUsed": "0x640"
    },
    {
      "status": "0x1",
      "cumulativeGasUsed": "0x2cdb79",
      "logs": [],
      "logsBloom": "0x00000000000000000000000000000000000000000000000000000000000000000000000000000000000000000000000000000000000000000000000000000000000000000000000000000000000000000000000000000000000000000000000000000000000000000000000000000000000000000000000000000000000000000000000000000000000000000000000000000000000000000000000000000000000000000000000000000000000000000000000000000000000000000000000000000000000000000000000000000000000000000000000000000000000000000000000000000000000000000000000000000000000000000000000000000000",
      "type": "0x2",
      "transactionHash": "0xd2cb819531966603d12bd66baa5d8075b02eac903721b8031633ba9ac6a3d444",
      "transactionIndex": "0x7",
      "blockHash": "0x63b124beb8f596e9f36e2755f28007fb5f0cad8297558f85283a534ee20b4e7e",
      "blockNumber": "0x1013ce7",
      "gasUsed": "0x10ca3",
      "effectiveGasPrice": "0xf6a78",
      "from": "0xb0efd2b19a5698a9c830548ac22708a28c9d4552",
      "to": "0x2fa6a8cd34b524e038e998771347049365c00658",
      "contractAddress": null,
      "l1BaseFeeScalar": "0x1db0",
      "l1BlobBaseFee": "0x169bc9f5e86",
      "l1BlobBaseFeeScalar": "0xd2730",
      "l1Fee": "0x7ab0601c5814",
      "l1GasPrice": "0x12a3d89780",
      "l1GasUsed": "0x640"
    }
  ],
  "libraries": [],
  "pending": [],
  "returns": {},
  "timestamp": 1725519231,
  "chain": 11155420,
  "commit": "8370d5b"
}