{
  "transactions": [
    {
      "hash": "0xf14f7765ab6b7a8dd38aa57ef222f566989818c22e973ac9418cba5efee65ac2",
      "transactionType": "CALL",
      "contractName": null,
      "contractAddress": "0x1c20792631db832310a6b66a6b9623ea0738a3ca",
      "function": "setPeer(uint32,bytes32)",
      "arguments": [
        "40245",
        "0x00000000000000000000000056ed2eef6cd8a4aceb19061805bd1194ade79ca4"
      ],
      "transaction": {
        "from": "0x12b2434a1022d5787bf06056f2885fe35de62bf8",
        "to": "0x1c20792631db832310a6b66a6b9623ea0738a3ca",
        "gas": "0x10008",
        "value": "0x0",
        "input": "0x3400288b0000000000000000000000000000000000000000000000000000000000009d3500000000000000000000000056ed2eef6cd8a4aceb19061805bd1194ade79ca4",
        "nonce": "0xcb",
        "chainId": "0xaa37dc"
      },
      "additionalContracts": [],
      "isFixedGasLimit": false
    },
    {
      "hash": "0xea694eb9678d65472496a8706df0fa567b0c17dfeb28ef00290c0685ed7d9d51",
      "transactionType": "CALL",
      "contractName": null,
      "contractAddress": "0xce36df1fa4de65cedda45c800134e82121cc00a3",
      "function": "setPeer(uint32,bytes32)",
      "arguments": [
        "40232",
        "0x00000000000000000000000038ea59ae56acbae5a100282bd0f975cc9118ab95"
      ],
      "transaction": {
        "from": "0x12b2434a1022d5787bf06056f2885fe35de62bf8",
        "to": "0xce36df1fa4de65cedda45c800134e82121cc00a3",
        "gas": "0x10213",
        "value": "0x0",
        "input": "0x3400288b0000000000000000000000000000000000000000000000000000000000009d2800000000000000000000000038ea59ae56acbae5a100282bd0f975cc9118ab95",
        "nonce": "0xcc",
        "chainId": "0xaa37dc"
      },
      "additionalContracts": [],
      "isFixedGasLimit": false
    },
    {
      "hash": "0xc45f459c53a497d8f8a52d18674262f1757e7c7c5d8b27377e6c3e54915e4435",
      "transactionType": "CALL",
      "contractName": null,
      "contractAddress": "0x38ea59ae56acbae5a100282bd0f975cc9118ab95",
      "function": "setPeer(uint32,bytes32)",
      "arguments": [
        "40245",
        "0x000000000000000000000000ce36df1fa4de65cedda45c800134e82121cc00a3"
      ],
      "transaction": {
        "from": "0x12b2434a1022d5787bf06056f2885fe35de62bf8",
        "to": "0x38ea59ae56acbae5a100282bd0f975cc9118ab95",
        "gas": "0x10022",
        "value": "0x0",
        "input": "0x3400288b0000000000000000000000000000000000000000000000000000000000009d35000000000000000000000000ce36df1fa4de65cedda45c800134e82121cc00a3",
        "nonce": "0xcd",
        "chainId": "0xaa37dc"
      },
      "additionalContracts": [],
      "isFixedGasLimit": false
    },
    {
      "hash": "0x475fe680e0bc9b5b25ec4e8c7f814c50e3ee3fb97796a585cc2379c0a4c4bc80",
      "transactionType": "CALL",
      "contractName": null,
      "contractAddress": "0xce36df1fa4de65cedda45c800134e82121cc00a3",
      "function": "setComposerSecondEid(uint32)",
      "arguments": [
        "40232"
      ],
      "transaction": {
        "from": "0x12b2434a1022d5787bf06056f2885fe35de62bf8",
        "to": "0xce36df1fa4de65cedda45c800134e82121cc00a3",
        "gas": "0xf6c2",
        "value": "0x0",
        "input": "0x066af8ce0000000000000000000000000000000000000000000000000000000000009d28",
        "nonce": "0xce",
        "chainId": "0xaa37dc"
      },
      "additionalContracts": [],
      "isFixedGasLimit": false
    },
    {
      "hash": "0x77462afcc8e3297b6b28c2f2008a646034d4e575dbfe04d5663507db5cdf1d94",
      "transactionType": "CALL",
      "contractName": null,
      "contractAddress": "0x1c20792631db832310a6b66a6b9623ea0738a3ca",
      "function": "setAdapterAddresses(address[])",
      "arguments": [
        "[0xCE36dF1fA4De65cEddA45C800134e82121cC00a3]"
      ],
      "transaction": {
        "from": "0x12b2434a1022d5787bf06056f2885fe35de62bf8",
        "to": "0x1c20792631db832310a6b66a6b9623ea0738a3ca",
        "gas": "0x17c6c",
        "value": "0x0",
        "input": "0xa324b2f700000000000000000000000000000000000000000000000000000000000000200000000000000000000000000000000000000000000000000000000000000001000000000000000000000000ce36df1fa4de65cedda45c800134e82121cc00a3",
        "nonce": "0xcf",
        "chainId": "0xaa37dc"
      },
      "additionalContracts": [],
      "isFixedGasLimit": false
    },
    {
      "hash": "0xf2a00e1044ffac3bb7a50a049614e933d81eb9f010606bed2546ef1e05c4bbe4",
      "transactionType": "CALL",
      "contractName": null,
      "contractAddress": "0x38ea59ae56acbae5a100282bd0f975cc9118ab95",
      "function": "setAttestationsAddress(address)",
      "arguments": [
        "0x56eD2eEf6cd8a4AceB19061805bD1194AdE79cA4"
      ],
      "transaction": {
        "from": "0x12b2434a1022d5787bf06056f2885fe35de62bf8",
        "to": "0x38ea59ae56acbae5a100282bd0f975cc9118ab95",
        "gas": "0xfdb1",
        "value": "0x0",
        "input": "0x172e09e800000000000000000000000056ed2eef6cd8a4aceb19061805bd1194ade79ca4",
        "nonce": "0xd0",
        "chainId": "0xaa37dc"
      },
      "additionalContracts": [],
      "isFixedGasLimit": false
    }
  ],
  "receipts": [
    {
      "status": "0x1",
      "cumulativeGasUsed": "0x235caa",
      "logs": [
        {
          "address": "0x1c20792631db832310a6b66a6b9623ea0738a3ca",
          "topics": [
            "0x238399d427b947898edb290f5ff0f9109849b1c3ba196a42e35f00c50a54b98b"
          ],
          "data": "0x0000000000000000000000000000000000000000000000000000000000009d3500000000000000000000000056ed2eef6cd8a4aceb19061805bd1194ade79ca4",
          "blockHash": "0x5225cf3f0414508a6cc88c56fca974577ea37f50044572b21666593c728a9425",
          "blockNumber": "0x102e134",
          "transactionHash": "0xf14f7765ab6b7a8dd38aa57ef222f566989818c22e973ac9418cba5efee65ac2",
          "transactionIndex": "0x5",
          "logIndex": "0x21",
          "removed": false
        }
      ],
      "logsBloom": "0x00000000000000000000000000000000000000000000000000000000000000000000000000000000000000000000000000000000000000000800000000000000000000000000000000000000000000000000000000000000000000000000000000000000000000000000000000000000000000000000000000000000000000000000000000000000000000000000000000000000000000000000000000000000000080000000000000000800000000000400000000000000000002000000000000000000000000000000000000000000000000000000000000040000000000000000000000000000000000000000000000000000000000000000000000000000",
      "type": "0x2",
      "transactionHash": "0xf14f7765ab6b7a8dd38aa57ef222f566989818c22e973ac9418cba5efee65ac2",
      "transactionIndex": "0x5",
      "blockHash": "0x5225cf3f0414508a6cc88c56fca974577ea37f50044572b21666593c728a9425",
      "blockNumber": "0x102e134",
      "gasUsed": "0xb95e",
      "effectiveGasPrice": "0xf6a92",
      "from": "0x12b2434a1022d5787bf06056f2885fe35de62bf8",
      "to": "0x1c20792631db832310a6b66a6b9623ea0738a3ca",
      "contractAddress": null,
      "l1BaseFeeScalar": "0x1db0",
      "l1BlobBaseFee": "0x10ebc90eff",
      "l1BlobBaseFeeScalar": "0xd2730",
      "l1Fee": "0x5b8ad097c37",
      "l1GasPrice": "0x800dd41f",
      "l1GasUsed": "0x640"
    },
    {
      "status": "0x1",
      "cumulativeGasUsed": "0x241782",
      "logs": [
        {
          "address": "0xce36df1fa4de65cedda45c800134e82121cc00a3",
          "topics": [
            "0x238399d427b947898edb290f5ff0f9109849b1c3ba196a42e35f00c50a54b98b"
          ],
          "data": "0x0000000000000000000000000000000000000000000000000000000000009d2800000000000000000000000038ea59ae56acbae5a100282bd0f975cc9118ab95",
          "blockHash": "0x5225cf3f0414508a6cc88c56fca974577ea37f50044572b21666593c728a9425",
          "blockNumber": "0x102e134",
          "transactionHash": "0xea694eb9678d65472496a8706df0fa567b0c17dfeb28ef00290c0685ed7d9d51",
          "transactionIndex": "0x6",
          "logIndex": "0x22",
          "removed": false
        }
      ],
      "logsBloom": "0x00000000000000000000000000000000000000000000000000000000000000000000000000000000000080000000000000000000000000000800000000000000000000000080000000000000000000000000000000000000000000000000000000000000000000000000000000000000000000000400000000000000000000000000000000000000000000000000000000000000000000000000000000000000000000000000000000000000000000000000000000000000000002000000000000000000000000000000000000000000000000000000000000040000000000000000000000000000000000000000000000000000000000000000000000000000",
      "type": "0x2",
      "transactionHash": "0xea694eb9678d65472496a8706df0fa567b0c17dfeb28ef00290c0685ed7d9d51",
      "transactionIndex": "0x6",
      "blockHash": "0x5225cf3f0414508a6cc88c56fca974577ea37f50044572b21666593c728a9425",
      "blockNumber": "0x102e134",
      "gasUsed": "0xbad8",
      "effectiveGasPrice": "0xf6a92",
      "from": "0x12b2434a1022d5787bf06056f2885fe35de62bf8",
      "to": "0xce36df1fa4de65cedda45c800134e82121cc00a3",
      "contractAddress": null,
      "l1BaseFeeScalar": "0x1db0",
      "l1BlobBaseFee": "0x10ebc90eff",
      "l1BlobBaseFeeScalar": "0xd2730",
      "l1Fee": "0x5b8ad097c37",
      "l1GasPrice": "0x800dd41f",
      "l1GasUsed": "0x640"
    },
    {
      "status": "0x1",
      "cumulativeGasUsed": "0x24d0f2",
      "logs": [
        {
          "address": "0x38ea59ae56acbae5a100282bd0f975cc9118ab95",
          "topics": [
            "0x238399d427b947898edb290f5ff0f9109849b1c3ba196a42e35f00c50a54b98b"
          ],
          "data": "0x0000000000000000000000000000000000000000000000000000000000009d35000000000000000000000000ce36df1fa4de65cedda45c800134e82121cc00a3",
          "blockHash": "0x5225cf3f0414508a6cc88c56fca974577ea37f50044572b21666593c728a9425",
          "blockNumber": "0x102e134",
          "transactionHash": "0xc45f459c53a497d8f8a52d18674262f1757e7c7c5d8b27377e6c3e54915e4435",
          "transactionIndex": "0x7",
          "logIndex": "0x23",
          "removed": false
        }
      ],
      "logsBloom": "0x00000000000010000000000000000000000000000000000000000000000000000000000000000000000000000000000000000000000000000800100000000000000000000000000000000000000000000000000000000000000000000000000000000000000000000000000000000000000000000000000000000000000000000000000000000000000000000000000020000000000000000000000000000000000000000000000000000000000000000000000000000000000002000000000000000000000000000000000000000000000000000000000000040000000000000000000000000000000000000000000000000000000000000000000000000000",
      "type": "0x2",
      "transactionHash": "0xc45f459c53a497d8f8a52d18674262f1757e7c7c5d8b27377e6c3e54915e4435",
      "transactionIndex": "0x7",
      "blockHash": "0x5225cf3f0414508a6cc88c56fca974577ea37f50044572b21666593c728a9425",
      "blockNumber": "0x102e134",
      "gasUsed": "0xb970",
      "effectiveGasPrice": "0xf6a92",
      "from": "0x12b2434a1022d5787bf06056f2885fe35de62bf8",
      "to": "0x38ea59ae56acbae5a100282bd0f975cc9118ab95",
      "contractAddress": null,
      "l1BaseFeeScalar": "0x1db0",
      "l1BlobBaseFee": "0x10ebc90eff",
      "l1BlobBaseFeeScalar": "0xd2730",
      "l1Fee": "0x5b8ad097c37",
      "l1GasPrice": "0x800dd41f",
      "l1GasUsed": "0x640"
    },
    {
      "status": "0x1",
      "cumulativeGasUsed": "0x258399",
      "logs": [],
      "logsBloom": "0x00000000000000000000000000000000000000000000000000000000000000000000000000000000000000000000000000000000000000000000000000000000000000000000000000000000000000000000000000000000000000000000000000000000000000000000000000000000000000000000000000000000000000000000000000000000000000000000000000000000000000000000000000000000000000000000000000000000000000000000000000000000000000000000000000000000000000000000000000000000000000000000000000000000000000000000000000000000000000000000000000000000000000000000000000000000",
      "type": "0x2",
      "transactionHash": "0x475fe680e0bc9b5b25ec4e8c7f814c50e3ee3fb97796a585cc2379c0a4c4bc80",
      "transactionIndex": "0x8",
      "blockHash": "0x5225cf3f0414508a6cc88c56fca974577ea37f50044572b21666593c728a9425",
      "blockNumber": "0x102e134",
      "gasUsed": "0xb2a7",
      "effectiveGasPrice": "0xf6a92",
      "from": "0x12b2434a1022d5787bf06056f2885fe35de62bf8",
      "to": "0xce36df1fa4de65cedda45c800134e82121cc00a3",
      "contractAddress": null,
      "l1BaseFeeScalar": "0x1db0",
      "l1BlobBaseFee": "0x10ebc90eff",
      "l1BlobBaseFeeScalar": "0xd2730",
      "l1Fee": "0x5b8ad097c37",
      "l1GasPrice": "0x800dd41f",
      "l1GasUsed": "0x640"
    },
    {
      "status": "0x1",
      "cumulativeGasUsed": "0x269705",
      "logs": [
        {
          "address": "0x1c20792631db832310a6b66a6b9623ea0738a3ca",
          "topics": [
            "0xe3b79b0152415c3a6a3b843b01948e52a65cb32668a2bbccef929ed5956669a5"
          ],
          "data": "0x00000000000000000000000000000000000000000000000000000000000000200000000000000000000000000000000000000000000000000000000000000001000000000000000000000000ce36df1fa4de65cedda45c800134e82121cc00a3",
          "blockHash": "0x5225cf3f0414508a6cc88c56fca974577ea37f50044572b21666593c728a9425",
          "blockNumber": "0x102e134",
          "transactionHash": "0x77462afcc8e3297b6b28c2f2008a646034d4e575dbfe04d5663507db5cdf1d94",
          "transactionIndex": "0x9",
          "logIndex": "0x24",
          "removed": false
        }
      ],
      "logsBloom": "0x00000000000000000000000000000000000000000000000000000000000000000000000000000000008000000000000000000000000000000000000000000000000000000000000000000000000000000000000000000000000000000000000000000000000000000000000000000000000000000000000000000000000000000000001000001000000000000000000000000000000000000000000000000000000080000000000000000800000000000400000000000000000000000000000000000000000000000000000000000000000000000000000000000000000000000000000000000000000000000000000000000000000000000000000000000000",
      "type": "0x2",
      "transactionHash": "0x77462afcc8e3297b6b28c2f2008a646034d4e575dbfe04d5663507db5cdf1d94",
      "transactionIndex": "0x9",
      "blockHash": "0x5225cf3f0414508a6cc88c56fca974577ea37f50044572b21666593c728a9425",
      "blockNumber": "0x102e134",
      "gasUsed": "0x1136c",
      "effectiveGasPrice": "0xf6a92",
      "from": "0x12b2434a1022d5787bf06056f2885fe35de62bf8",
      "to": "0x1c20792631db832310a6b66a6b9623ea0738a3ca",
      "contractAddress": null,
      "l1BaseFeeScalar": "0x1db0",
      "l1BlobBaseFee": "0x10ebc90eff",
      "l1BlobBaseFeeScalar": "0xd2730",
      "l1Fee": "0x5b8ad097c37",
      "l1GasPrice": "0x800dd41f",
      "l1GasUsed": "0x640"
    },
    {
      "status": "0x1",
      "cumulativeGasUsed": "0x274eb1",
      "logs": [
        {
          "address": "0x38ea59ae56acbae5a100282bd0f975cc9118ab95",
          "topics": [
            "0xed8fe6238b8d547d84eb2703482dd6770869bc9d6683c696c9bf0c2e42e3fdbe"
          ],
          "data": "0x00000000000000000000000056ed2eef6cd8a4aceb19061805bd1194ade79ca4",
          "blockHash": "0x5225cf3f0414508a6cc88c56fca974577ea37f50044572b21666593c728a9425",
          "blockNumber": "0x102e134",
          "transactionHash": "0xf2a00e1044ffac3bb7a50a049614e933d81eb9f010606bed2546ef1e05c4bbe4",
          "transactionIndex": "0xa",
          "logIndex": "0x25",
          "removed": false
        }
      ],
      "logsBloom": "0x00000000000410000000000000000000000000000000000000000000000000000080000000000000000000000000000000000000000000000000100000000000000000000000000000000000000000000000000000000000000000000000000000000000800000000000000000000000000000000000000000000000000000000000000000000000000000000000000020000000000000000000000000000000000000000000000000000000000000000000000000000000000000000000000000000000000000000000000000000000000000000000000000000000000000000000000000000000000000000000000000000000000000000000000000000000",
      "type": "0x2",
      "transactionHash": "0xf2a00e1044ffac3bb7a50a049614e933d81eb9f010606bed2546ef1e05c4bbe4",
      "transactionIndex": "0xa",
      "blockHash": "0x5225cf3f0414508a6cc88c56fca974577ea37f50044572b21666593c728a9425",
      "blockNumber": "0x102e134",
      "gasUsed": "0xb7ac",
      "effectiveGasPrice": "0xf6a92",
      "from": "0x12b2434a1022d5787bf06056f2885fe35de62bf8",
      "to": "0x38ea59ae56acbae5a100282bd0f975cc9118ab95",
      "contractAddress": null,
      "l1BaseFeeScalar": "0x1db0",
      "l1BlobBaseFee": "0x10ebc90eff",
      "l1BlobBaseFeeScalar": "0xd2730",
      "l1Fee": "0x5b8ad097c37",
      "l1GasPrice": "0x800dd41f",
      "l1GasUsed": "0x640"
    }
  ],
  "libraries": [],
  "pending": [],
  "returns": {},
  "timestamp": 1725734428,
  "chain": 11155420,
  "commit": "67fd3b7"
}