{
  "transactions": [
    {
      "hash": "0x78bb41b788a4a2be6d7638e14c71c466beb712aaa44ac42bfebc511e784c0f1d",
      "transactionType": "CALL",
      "contractName": null,
      "contractAddress": "0xd9c0269b0d6a8200f10c2a9a0a85ba400761befd",
      "function": "setPeer(uint32,bytes32)",
      "arguments": [
        "40245",
        "0x000000000000000000000000cf184468a463270f45dfb5c1315a8d7413ac9f41"
      ],
      "transaction": {
        "from": "0x12b2434a1022d5787bf06056f2885fe35de62bf8",
        "to": "0xd9c0269b0d6a8200f10c2a9a0a85ba400761befd",
        "gas": "0x10008",
        "value": "0x0",
        "input": "0x3400288b0000000000000000000000000000000000000000000000000000000000009d35000000000000000000000000cf184468a463270f45dfb5c1315a8d7413ac9f41",
        "nonce": "0x79",
        "chainId": "0xaa37dc"
      },
      "additionalContracts": [],
      "isFixedGasLimit": false
    },
    {
      "hash": "0x885b33c0fcd9f6b59129b2f2231789bc3caea23063ecef594c699298b8825847",
      "transactionType": "CALL",
      "contractName": null,
      "contractAddress": "0xd9c0269b0d6a8200f10c2a9a0a85ba400761befd",
      "function": "setAdapterAddresses(address[])",
      "arguments": [
        "[0xa2a60468c228c363dB665d0016B6E5002efb835A]"
      ],
      "transaction": {
        "from": "0x12b2434a1022d5787bf06056f2885fe35de62bf8",
        "to": "0xd9c0269b0d6a8200f10c2a9a0a85ba400761befd",
        "gas": "0x17c9b",
        "value": "0x0",
        "input": "0xa324b2f700000000000000000000000000000000000000000000000000000000000000200000000000000000000000000000000000000000000000000000000000000001000000000000000000000000a2a60468c228c363db665d0016b6e5002efb835a",
        "nonce": "0x7a",
        "chainId": "0xaa37dc"
      },
      "additionalContracts": [],
      "isFixedGasLimit": false
    }
  ],
  "receipts": [
    {
      "status": "0x1",
      "cumulativeGasUsed": "0x103de9",
      "logs": [
        {
          "address": "0xd9c0269b0d6a8200f10c2a9a0a85ba400761befd",
          "topics": [
            "0x238399d427b947898edb290f5ff0f9109849b1c3ba196a42e35f00c50a54b98b"
          ],
          "data": "0x0000000000000000000000000000000000000000000000000000000000009d35000000000000000000000000cf184468a463270f45dfb5c1315a8d7413ac9f41",
          "blockHash": "0x9f9f726f969292f194e435923330fb086ccd32cc355e19a4448179993884d131",
          "blockNumber": "0x1021ef2",
          "transactionHash": "0x78bb41b788a4a2be6d7638e14c71c466beb712aaa44ac42bfebc511e784c0f1d",
          "transactionIndex": "0x3",
          "logIndex": "0x16",
          "removed": false
        }
      ],
      "logsBloom": "0x00000000000000000000000000000000000000000000000000000000000000000000000000000000000000000000000000000000000000000800000000000000000000000000000000000000000000000000000000000000000000000000000000000000000000000000000000000000000000000000000000000000000001000040000000000000000000000000000000000000000000000000000000000000000000000000000000000000000000000000000000000000000002000000000000000000000000000000000000000000000000000000000000040000000000000000000000000000000000000000000000000000000000001000000000000000",
      "type": "0x2",
      "transactionHash": "0x78bb41b788a4a2be6d7638e14c71c466beb712aaa44ac42bfebc511e784c0f1d",
      "transactionIndex": "0x3",
      "blockHash": "0x9f9f726f969292f194e435923330fb086ccd32cc355e19a4448179993884d131",
      "blockNumber": "0x1021ef2",
      "gasUsed": "0xb95e",
      "effectiveGasPrice": "0xf6aa5",
      "from": "0x12b2434a1022d5787bf06056f2885fe35de62bf8",
      "to": "0xd9c0269b0d6a8200f10c2a9a0a85ba400761befd",
      "contractAddress": null,
      "l1BaseFeeScalar": "0x1db0",
      "l1BlobBaseFee": "0x22d1fc72345",
      "l1BlobBaseFeeScalar": "0xd2730",
      "l1Fee": "0xbc3c6856a48c",
      "l1GasPrice": "0xd831a360a",
      "l1GasUsed": "0x640"
    },
    {
      "status": "0x1",
      "cumulativeGasUsed": "0x115177",
      "logs": [
        {
          "address": "0xd9c0269b0d6a8200f10c2a9a0a85ba400761befd",
          "topics": [
            "0xe3b79b0152415c3a6a3b843b01948e52a65cb32668a2bbccef929ed5956669a5"
          ],
          "data": "0x00000000000000000000000000000000000000000000000000000000000000200000000000000000000000000000000000000000000000000000000000000001000000000000000000000000a2a60468c228c363db665d0016b6e5002efb835a",
          "blockHash": "0x9f9f726f969292f194e435923330fb086ccd32cc355e19a4448179993884d131",
          "blockNumber": "0x1021ef2",
          "transactionHash": "0x885b33c0fcd9f6b59129b2f2231789bc3caea23063ecef594c699298b8825847",
          "transactionIndex": "0x4",
          "logIndex": "0x17",
          "removed": false
        }
      ],
      "logsBloom": "0x00000000000000000000000000000000000000000000000000000000000000000000000000000000008000000000000000000000000000000000000000000000000000000000000000000000000000000000000000000000000000000000000000000000000000000000000000000000000000000000000000000000000001000040001000001000000000000000000000000000000000000000000000000000000000000000000000000000000000000000000000000000000000000000000000000000000000000000000000000000000000000000000000000000000000000000000000000000000000000000000000000000000000001000000000000000",
      "type": "0x2",
      "transactionHash": "0x885b33c0fcd9f6b59129b2f2231789bc3caea23063ecef594c699298b8825847",
      "transactionIndex": "0x4",
      "blockHash": "0x9f9f726f969292f194e435923330fb086ccd32cc355e19a4448179993884d131",
      "blockNumber": "0x1021ef2",
      "gasUsed": "0x1138e",
      "effectiveGasPrice": "0xf6aa5",
      "from": "0x12b2434a1022d5787bf06056f2885fe35de62bf8",
      "to": "0xd9c0269b0d6a8200f10c2a9a0a85ba400761befd",
      "contractAddress": null,
      "l1BaseFeeScalar": "0x1db0",
      "l1BlobBaseFee": "0x22d1fc72345",
      "l1BlobBaseFeeScalar": "0xd2730",
      "l1Fee": "0xbc3c6856a48c",
      "l1GasPrice": "0xd831a360a",
      "l1GasUsed": "0x640"
    }
  ],
  "libraries": [],
  "pending": [],
  "returns": {},
  "timestamp": 1725634967,
  "chain": 11155420,
  "commit": "dc78ae4"
}