{
  "transactions": [
    {
      "hash": "0x63f57102e71ee810d0a75656264f28b1c8b83221fe254a47dbf5d55ac8cc04e2",
      "transactionType": "CALL",
      "contractName": null,
      "contractAddress": "0xc63cf8a07427bd4c64698b0133662df463d14bf8",
      "function": "setPeer(uint32,bytes32)",
      "arguments": [
        "40245",
        "0x0000000000000000000000000ecb68e0fc16a881fe1ec43eacaae03786818d18"
      ],
      "transaction": {
        "from": "0x12b2434a1022d5787bf06056f2885fe35de62bf8",
        "to": "0xc63cf8a07427bd4c64698b0133662df463d14bf8",
        "gas": "0x10008",
        "value": "0x0",
        "input": "0x3400288b0000000000000000000000000000000000000000000000000000000000009d350000000000000000000000000ecb68e0fc16a881fe1ec43eacaae03786818d18",
        "nonce": "0xb3",
        "chainId": "0xaa37dc"
      },
      "additionalContracts": [],
      "isFixedGasLimit": false
    },
    {
      "hash": "0xf1696f1797a1134491d842008781489126ac39c4a84ffb83026dac56433c4028",
      "transactionType": "CALL",
      "contractName": null,
      "contractAddress": "0xc63cf8a07427bd4c64698b0133662df463d14bf8",
      "function": "setAdapterAddresses(address[])",
      "arguments": [
        "[0xF47D259DF9b4B79B802f920f0e9688754A0597ee]"
      ],
      "transaction": {
        "from": "0x12b2434a1022d5787bf06056f2885fe35de62bf8",
        "to": "0xc63cf8a07427bd4c64698b0133662df463d14bf8",
        "gas": "0x17cbc",
        "value": "0x0",
        "input": "0xa324b2f700000000000000000000000000000000000000000000000000000000000000200000000000000000000000000000000000000000000000000000000000000001000000000000000000000000f47d259df9b4b79b802f920f0e9688754a0597ee",
        "nonce": "0xb4",
        "chainId": "0xaa37dc"
      },
      "additionalContracts": [],
      "isFixedGasLimit": false
    }
  ],
  "receipts": [
    {
      "status": "0x1",
      "cumulativeGasUsed": "0x137130",
      "logs": [
        {
          "address": "0xc63cf8a07427bd4c64698b0133662df463d14bf8",
          "topics": [
            "0x238399d427b947898edb290f5ff0f9109849b1c3ba196a42e35f00c50a54b98b"
          ],
          "data": "0x0000000000000000000000000000000000000000000000000000000000009d350000000000000000000000000ecb68e0fc16a881fe1ec43eacaae03786818d18",
          "blockHash": "0x9b9dfd37002d8174b86369d8c4586a090c9dd70a4e0c6a36767626cae903ce2e",
          "blockNumber": "0x102a318",
          "transactionHash": "0x63f57102e71ee810d0a75656264f28b1c8b83221fe254a47dbf5d55ac8cc04e2",
          "transactionIndex": "0x4",
          "logIndex": "0xe",
          "removed": false
        }
      ],
      "logsBloom": "0x00001000000000000000000000000000000000000000000000000000000000000000000000000000000000000000000000000000000000000800000000000000000000000000000000000000000000000000000000000000000000000000000000000000000000000000000000000000000000000000000000000000000000000000000000000000000000200000000000000000000000000000000000000000000000000000000000000000000080000000000000000000000002000000000000000000000000000000000000000000000000000000000000040000000000000000000000000000000000000000000000000000000000000000000000000000",
      "type": "0x2",
      "transactionHash": "0x63f57102e71ee810d0a75656264f28b1c8b83221fe254a47dbf5d55ac8cc04e2",
      "transactionIndex": "0x4",
      "blockHash": "0x9b9dfd37002d8174b86369d8c4586a090c9dd70a4e0c6a36767626cae903ce2e",
      "blockNumber": "0x102a318",
      "gasUsed": "0xb95e",
      "effectiveGasPrice": "0xf6af2",
      "from": "0x12b2434a1022d5787bf06056f2885fe35de62bf8",
      "to": "0xc63cf8a07427bd4c64698b0133662df463d14bf8",
      "contractAddress": null,
      "l1BaseFeeScalar": "0x1db0",
      "l1BlobBaseFee": "0x2ef655e2eb",
      "l1BlobBaseFeeScalar": "0xd2730",
      "l1Fee": "0xff163fcc0ee",
      "l1GasPrice": "0x2bbe3f3eb",
      "l1GasUsed": "0x640"
    },
    {
      "status": "0x1",
      "cumulativeGasUsed": "0x1484d6",
      "logs": [
        {
          "address": "0xc63cf8a07427bd4c64698b0133662df463d14bf8",
          "topics": [
            "0xe3b79b0152415c3a6a3b843b01948e52a65cb32668a2bbccef929ed5956669a5"
          ],
          "data": "0x00000000000000000000000000000000000000000000000000000000000000200000000000000000000000000000000000000000000000000000000000000001000000000000000000000000f47d259df9b4b79b802f920f0e9688754a0597ee",
          "blockHash": "0x9b9dfd37002d8174b86369d8c4586a090c9dd70a4e0c6a36767626cae903ce2e",
          "blockNumber": "0x102a318",
          "transactionHash": "0xf1696f1797a1134491d842008781489126ac39c4a84ffb83026dac56433c4028",
          "transactionIndex": "0x5",
          "logIndex": "0xf",
          "removed": false
        }
      ],
      "logsBloom": "0x00001000000000000000000000000000000000000000000000000000000000000000000000000000008000000000000000000000000000000000000000000000000000000000000000000000000000000000000000000000000000000000000000000000000000000000000000000000000000000000000000000000000000000000001000001000000000200000000000000000000000000000000000000000000000000000000000000000000080000000000000000000000000000000000000000000000000000000000000000000000000000000000000000000000000000000000000000000000000000000000000000000000000000000000000000000",
      "type": "0x2",
      "transactionHash": "0xf1696f1797a1134491d842008781489126ac39c4a84ffb83026dac56433c4028",
      "transactionIndex": "0x5",
      "blockHash": "0x9b9dfd37002d8174b86369d8c4586a090c9dd70a4e0c6a36767626cae903ce2e",
      "blockNumber": "0x102a318",
      "gasUsed": "0x113a6",
      "effectiveGasPrice": "0xf6af2",
      "from": "0x12b2434a1022d5787bf06056f2885fe35de62bf8",
      "to": "0xc63cf8a07427bd4c64698b0133662df463d14bf8",
      "contractAddress": null,
      "l1BaseFeeScalar": "0x1db0",
      "l1BlobBaseFee": "0x2ef655e2eb",
      "l1BlobBaseFeeScalar": "0xd2730",
      "l1Fee": "0xff163fcc0ee",
      "l1GasPrice": "0x2bbe3f3eb",
      "l1GasUsed": "0x640"
    }
  ],
  "libraries": [],
  "pending": [],
  "returns": {},
  "timestamp": 1725702628,
  "chain": 11155420,
  "commit": "c44a2e9"
}