{
  "transactions": [
    {
      "hash": "0xd216b50b65223c30deb830fa93cd591f4ecc7595afe58b9898f286784770406f",
      "transactionType": "CALL",
      "contractName": null,
      "contractAddress": "0x9059f80ef69c1b54b76a4f66a9df1745637600aa",
      "function": "setPeer(uint32,bytes32)",
      "arguments": [
        "40245",
        "0x0000000000000000000000004f395890169559fdebe3f6da8822e86aa7ef390f"
      ],
      "transaction": {
        "from": "0xb0efd2b19a5698a9c830548ac22708a28c9d4552",
        "to": "0x9059f80ef69c1b54b76a4f66a9df1745637600aa",
        "gas": "0x10008",
        "value": "0x0",
        "input": "0x3400288b0000000000000000000000000000000000000000000000000000000000009d350000000000000000000000004f395890169559fdebe3f6da8822e86aa7ef390f",
        "nonce": "0x58",
        "chainId": "0xaa37dc"
      },
      "additionalContracts": [],
      "isFixedGasLimit": false
    },
    {
      "hash": "0x97a4100067887270352f78c63149e185dabfa7a9c8b6392b620c6d8bbecb9c9f",
      "transactionType": "CALL",
      "contractName": null,
      "contractAddress": "0x9059f80ef69c1b54b76a4f66a9df1745637600aa",
      "function": "setAdapterAddresses(address[])",
      "arguments": [
        "[0xe734076F9B3C4Af1920e92B218B4C3691a1b02d7]"
      ],
      "transaction": {
        "from": "0xb0efd2b19a5698a9c830548ac22708a28c9d4552",
        "to": "0x9059f80ef69c1b54b76a4f66a9df1745637600aa",
        "gas": "0x17cbc",
        "value": "0x0",
        "input": "0xa324b2f700000000000000000000000000000000000000000000000000000000000000200000000000000000000000000000000000000000000000000000000000000001000000000000000000000000e734076f9b3c4af1920e92b218b4c3691a1b02d7",
        "nonce": "0x59",
        "chainId": "0xaa37dc"
      },
      "additionalContracts": [],
      "isFixedGasLimit": false
    }
  ],
  "receipts": [
    {
      "status": "0x1",
      "cumulativeGasUsed": "0x3a6b11",
      "logs": [
        {
          "address": "0x9059f80ef69c1b54b76a4f66a9df1745637600aa",
          "topics": [
            "0x238399d427b947898edb290f5ff0f9109849b1c3ba196a42e35f00c50a54b98b"
          ],
          "data": "0x0000000000000000000000000000000000000000000000000000000000009d350000000000000000000000004f395890169559fdebe3f6da8822e86aa7ef390f",
          "blockHash": "0xab785acfbaf594c97a35232e87715ed913b8e04b8e567f124edcabddee83a422",
          "blockNumber": "0x1023921",
          "transactionHash": "0xd216b50b65223c30deb830fa93cd591f4ecc7595afe58b9898f286784770406f",
          "transactionIndex": "0x4",
          "logIndex": "0x22",
          "removed": false
        }
      ],
      "logsBloom": "0x00000000000000000000000000000000000000000000000000000000000000000000000000000000000000000000000000000000000000000800000000000000000000000000000000000000000000000000000000000000000000000000000000800000000000000000000000000000000000800000000000000000000000000000000000000000000000000000000000000000000000000000000000000000000000000000000000000000000000000000000000000000000002000000000000000000000000000000000000000000000000000000000000040000000000001000000000000000000000000000000000000000000000000000000000000000",
      "type": "0x2",
      "transactionHash": "0xd216b50b65223c30deb830fa93cd591f4ecc7595afe58b9898f286784770406f",
      "transactionIndex": "0x4",
      "blockHash": "0xab785acfbaf594c97a35232e87715ed913b8e04b8e567f124edcabddee83a422",
      "blockNumber": "0x1023921",
      "gasUsed": "0xb95e",
      "effectiveGasPrice": "0xf6aa5",
      "from": "0xb0efd2b19a5698a9c830548ac22708a28c9d4552",
      "to": "0x9059f80ef69c1b54b76a4f66a9df1745637600aa",
      "contractAddress": null,
      "l1BaseFeeScalar": "0x1db0",
      "l1BlobBaseFee": "0x1e7e04b8a9",
      "l1BlobBaseFeeScalar": "0xd2730",
      "l1Fee": "0xa5780242e2c",
      "l1GasPrice": "0x1916d4bd4",
      "l1GasUsed": "0x640"
    },
    {
      "status": "0x1",
      "cumulativeGasUsed": "0x3b7eb7",
      "logs": [
        {
          "address": "0x9059f80ef69c1b54b76a4f66a9df1745637600aa",
          "topics": [
            "0xe3b79b0152415c3a6a3b843b01948e52a65cb32668a2bbccef929ed5956669a5"
          ],
          "data": "0x00000000000000000000000000000000000000000000000000000000000000200000000000000000000000000000000000000000000000000000000000000001000000000000000000000000e734076f9b3c4af1920e92b218b4c3691a1b02d7",
          "blockHash": "0xab785acfbaf594c97a35232e87715ed913b8e04b8e567f124edcabddee83a422",
          "blockNumber": "0x1023921",
          "transactionHash": "0x97a4100067887270352f78c63149e185dabfa7a9c8b6392b620c6d8bbecb9c9f",
          "transactionIndex": "0x5",
          "logIndex": "0x23",
          "removed": false
        }
      ],
      "logsBloom": "0x00000000000000000000000000000000000000000000000000000000000000000000000000000000008000000000000000000000000000000000000000000000000000000000000000000000000000000000000000000000000000000000000000800000000000000000000000000000000000800000000000000000000000000000001000001000000000000000000000000000000000000000000000000000000000000000000000000000000000000000000000000000000000000000000000000000000000000000000000000000000000000000000000000000000000001000000000000000000000000000000000000000000000000000000000000000",
      "type": "0x2",
      "transactionHash": "0x97a4100067887270352f78c63149e185dabfa7a9c8b6392b620c6d8bbecb9c9f",
      "transactionIndex": "0x5",
      "blockHash": "0xab785acfbaf594c97a35232e87715ed913b8e04b8e567f124edcabddee83a422",
      "blockNumber": "0x1023921",
      "gasUsed": "0x113a6",
      "effectiveGasPrice": "0xf6aa5",
      "from": "0xb0efd2b19a5698a9c830548ac22708a28c9d4552",
      "to": "0x9059f80ef69c1b54b76a4f66a9df1745637600aa",
      "contractAddress": null,
      "l1BaseFeeScalar": "0x1db0",
      "l1BlobBaseFee": "0x1e7e04b8a9",
      "l1BlobBaseFeeScalar": "0xd2730",
      "l1Fee": "0xa5780242e2c",
      "l1GasPrice": "0x1916d4bd4",
      "l1GasUsed": "0x640"
    }
  ],
  "libraries": [],
  "pending": [],
  "returns": {},
  "timestamp": 1725648371,
  "chain": 11155420,
  "commit": "37e882d"
}