{
  "transactions": [
    {
      "hash": "0x1d26f8bc1f30a6b4ce6c92dac8423e2a0e6ff4459bd9cb1c2fc182725c8cfa21",
      "transactionType": "CALL",
      "contractName": null,
      "contractAddress": "0xab1f48f42b7f3b34b590e7ae39d96aa3ee790406",
      "function": "setPeer(uint32,bytes32)",
      "arguments": [
        "40245",
        "0x000000000000000000000000948ee90e44f83ee3f84b7f91230e17bfa0d0cd41"
      ],
      "transaction": {
        "from": "0x12b2434a1022d5787bf06056f2885fe35de62bf8",
        "to": "0xab1f48f42b7f3b34b590e7ae39d96aa3ee790406",
        "gas": "0x10041",
        "value": "0x0",
        "input": "0x3400288b0000000000000000000000000000000000000000000000000000000000009d35000000000000000000000000948ee90e44f83ee3f84b7f91230e17bfa0d0cd41",
        "nonce": "0xc",
        "chainId": "0xaa37dc"
      },
      "additionalContracts": [],
      "isFixedGasLimit": false
    },
    {
      "hash": "0x7c78b8959563e7a282c1a43b7778d0267ad2b9e1983c8aa39c9eec9c7f2a4410",
      "transactionType": "CALL",
      "contractName": null,
      "contractAddress": "0xab1f48f42b7f3b34b590e7ae39d96aa3ee790406",
      "function": "setAdapterAddress(address)",
      "arguments": [
        "0x385928e1e9648EF02ec4a44670e9B0D5AFD8e499"
      ],
      "transaction": {
        "from": "0x12b2434a1022d5787bf06056f2885fe35de62bf8",
        "to": "0xab1f48f42b7f3b34b590e7ae39d96aa3ee790406",
        "gas": "0xecf4",
        "value": "0x0",
        "input": "0x736eede5000000000000000000000000385928e1e9648ef02ec4a44670e9b0d5afd8e499",
        "nonce": "0xd",
        "chainId": "0xaa37dc"
      },
      "additionalContracts": [],
      "isFixedGasLimit": false
    }
  ],
  "receipts": [
    {
      "status": "0x1",
      "cumulativeGasUsed": "0x16502",
      "logs": [
        {
          "address": "0xab1f48f42b7f3b34b590e7ae39d96aa3ee790406",
          "topics": [
            "0x238399d427b947898edb290f5ff0f9109849b1c3ba196a42e35f00c50a54b98b"
          ],
          "data": "0x0000000000000000000000000000000000000000000000000000000000009d35000000000000000000000000948ee90e44f83ee3f84b7f91230e17bfa0d0cd41",
          "blockHash": "0x75c579f79816460a7e075c0418f76f5c8eae2cfd56dc724c3e4d9262ffe72ba9",
          "blockNumber": "0x100e219",
          "transactionHash": "0x1d26f8bc1f30a6b4ce6c92dac8423e2a0e6ff4459bd9cb1c2fc182725c8cfa21",
          "transactionIndex": "0x1",
          "logIndex": "0x0",
          "removed": false
        }
      ],
      "logsBloom": "0x00000000000000000000000000000000000000000000000000000000000000000000000000000000000000000000000000000000000000000800000000000000000000000000000000000000000000000000000000004000000000000000000000000000000000000000000000000000000000000000000000000000000000000040000000000000000000000000000000000000000000000000000000000000000000000000000000000000000000000000000000000000000002000000000000000000000000000000000000000000000000000000000000044000000000000000000000000000000000000000000000000000000000000000000000000000",
      "type": "0x2",
      "transactionHash": "0x1d26f8bc1f30a6b4ce6c92dac8423e2a0e6ff4459bd9cb1c2fc182725c8cfa21",
      "transactionIndex": "0x1",
      "blockHash": "0x75c579f79816460a7e075c0418f76f5c8eae2cfd56dc724c3e4d9262ffe72ba9",
      "blockNumber": "0x100e219",
      "gasUsed": "0xb987",
      "effectiveGasPrice": "0x68e7888",
      "from": "0x12b2434a1022d5787bf06056f2885fe35de62bf8",
      "to": "0xab1f48f42b7f3b34b590e7ae39d96aa3ee790406",
      "contractAddress": null,
      "l1BaseFeeScalar": "0x1db0",
      "l1BlobBaseFee": "0x112d00d34d4",
      "l1BlobBaseFeeScalar": "0xd2730",
      "l1Fee": "0x5ccd311e41cc",
      "l1GasPrice": "0x59eac7322",
      "l1GasUsed": "0x640"
    },
    {
      "status": "0x1",
      "cumulativeGasUsed": "0x21090",
      "logs": [],
      "logsBloom": "0x00000000000000000000000000000000000000000000000000000000000000000000000000000000000000000000000000000000000000000000000000000000000000000000000000000000000000000000000000000000000000000000000000000000000000000000000000000000000000000000000000000000000000000000000000000000000000000000000000000000000000000000000000000000000000000000000000000000000000000000000000000000000000000000000000000000000000000000000000000000000000000000000000000000000000000000000000000000000000000000000000000000000000000000000000000000",
      "type": "0x2",
      "transactionHash": "0x7c78b8959563e7a282c1a43b7778d0267ad2b9e1983c8aa39c9eec9c7f2a4410",
      "transactionIndex": "0x2",
      "blockHash": "0x75c579f79816460a7e075c0418f76f5c8eae2cfd56dc724c3e4d9262ffe72ba9",
      "blockNumber": "0x100e219",
      "gasUsed": "0xab8e",
      "effectiveGasPrice": "0x68e7888",
      "from": "0x12b2434a1022d5787bf06056f2885fe35de62bf8",
      "to": "0xab1f48f42b7f3b34b590e7ae39d96aa3ee790406",
      "contractAddress": null,
      "l1BaseFeeScalar": "0x1db0",
      "l1BlobBaseFee": "0x112d00d34d4",
      "l1BlobBaseFeeScalar": "0xd2730",
      "l1Fee": "0x5ccd311e41cc",
      "l1GasPrice": "0x59eac7322",
      "l1GasUsed": "0x640"
    }
  ],
  "libraries": [],
  "pending": [],
  "returns": {},
  "timestamp": 1725472742,
  "chain": 11155420,
  "commit": "da4a4b9"
}