{
  "transactions": [
    {
      "hash": "0x046d33c414bbee731f84c83845240efdc058232b959c9cb276406988df065a3d",
      "transactionType": "CALL",
      "contractName": null,
      "contractAddress": "0x4bbb9b855fe1e7ffbb283969d210c3841aed8076",
      "function": "setPeer(uint32,bytes32)",
      "arguments": [
        "40245",
        "0x0000000000000000000000002edd21000a84b174112a41189271b61104693952"
      ],
      "transaction": {
        "from": "0x12b2434a1022d5787bf06056f2885fe35de62bf8",
        "to": "0x4bbb9b855fe1e7ffbb283969d210c3841aed8076",
        "gas": "0x10f07",
        "value": "0x0",
        "input": "0x3400288b0000000000000000000000000000000000000000000000000000000000009d350000000000000000000000002edd21000a84b174112a41189271b61104693952",
        "nonce": "0x57",
        "chainId": "0xaa37dc"
      },
      "additionalContracts": [],
      "isFixedGasLimit": false
    },
    {
      "hash": "0x548ece6f6ecbd74861d52268bb75bd93f6d7cb672ce6339bd37bd29aa42c7b05",
      "transactionType": "CALL",
      "contractName": null,
      "contractAddress": "0x4bbb9b855fe1e7ffbb283969d210c3841aed8076",
      "function": "setAdapterAddresses(address[])",
      "arguments": [
        "[0xA2fBE87Da6119B428C22927baC4183cB2Bc718a3]"
      ],
      "transaction": {
        "from": "0x12b2434a1022d5787bf06056f2885fe35de62bf8",
        "to": "0x4bbb9b855fe1e7ffbb283969d210c3841aed8076",
        "gas": "0x17cbc",
        "value": "0x0",
        "input": "0xa324b2f700000000000000000000000000000000000000000000000000000000000000200000000000000000000000000000000000000000000000000000000000000001000000000000000000000000a2fbe87da6119b428c22927bac4183cb2bc718a3",
        "nonce": "0x58",
        "chainId": "0xaa37dc"
      },
      "additionalContracts": [],
      "isFixedGasLimit": false
    }
  ],
  "receipts": [
    {
      "status": "0x1",
      "cumulativeGasUsed": "0x1848cd",
      "logs": [
        {
          "address": "0x4bbb9b855fe1e7ffbb283969d210c3841aed8076",
          "topics": [
            "0x238399d427b947898edb290f5ff0f9109849b1c3ba196a42e35f00c50a54b98b"
          ],
          "data": "0x0000000000000000000000000000000000000000000000000000000000009d350000000000000000000000002edd21000a84b174112a41189271b61104693952",
          "blockHash": "0x80dd7591fd7558adaf8919a181fd3f313d8d59ef6ab0ecc9a249fd06fa7ce3c2",
          "blockNumber": "0x1020d39",
          "transactionHash": "0x046d33c414bbee731f84c83845240efdc058232b959c9cb276406988df065a3d",
          "transactionIndex": "0x4",
          "logIndex": "0x23",
          "removed": false
        }
      ],
      "logsBloom": "0x00000000000000000000000000000000000000000000000000000000000000000000000000000000000000000000004000000000000000000800000000000000000000000000000000000000000000000000000000000000000000000000000000000000000000000000000000000000000000000000000000000000000000000000000000000000000000000000000000000000000000000000002000000000000000000000000000000000000000000000000000000000000002000000000000000000000000000000000000000000000000000000000000040000000000000000000000040000000000000000000000000000000000000000000000000000",
      "type": "0x2",
      "transactionHash": "0x046d33c414bbee731f84c83845240efdc058232b959c9cb276406988df065a3d",
      "transactionIndex": "0x4",
      "blockHash": "0x80dd7591fd7558adaf8919a181fd3f313d8d59ef6ab0ecc9a249fd06fa7ce3c2",
      "blockNumber": "0x1020d39",
      "gasUsed": "0xb952",
      "effectiveGasPrice": "0xf6a5b",
      "from": "0x12b2434a1022d5787bf06056f2885fe35de62bf8",
      "to": "0x4bbb9b855fe1e7ffbb283969d210c3841aed8076",
      "contractAddress": null,
      "l1BaseFeeScalar": "0x1db0",
      "l1BlobBaseFee": "0x48540a4664",
      "l1BlobBaseFeeScalar": "0xd2730",
      "l1Fee": "0x187d8783361f",
      "l1GasPrice": "0x2dd4b375c",
      "l1GasUsed": "0x640"
    },
    {
      "status": "0x1",
      "cumulativeGasUsed": "0x195c73",
      "logs": [
        {
          "address": "0x4bbb9b855fe1e7ffbb283969d210c3841aed8076",
          "topics": [
            "0xe3b79b0152415c3a6a3b843b01948e52a65cb32668a2bbccef929ed5956669a5"
          ],
          "data": "0x00000000000000000000000000000000000000000000000000000000000000200000000000000000000000000000000000000000000000000000000000000001000000000000000000000000a2fbe87da6119b428c22927bac4183cb2bc718a3",
          "blockHash": "0x80dd7591fd7558adaf8919a181fd3f313d8d59ef6ab0ecc9a249fd06fa7ce3c2",
          "blockNumber": "0x1020d39",
          "transactionHash": "0x548ece6f6ecbd74861d52268bb75bd93f6d7cb672ce6339bd37bd29aa42c7b05",
          "transactionIndex": "0x5",
          "logIndex": "0x24",
          "removed": false
        }
      ],
      "logsBloom": "0x00000000000000000000000000000000000000000000000000000000000000000000000000000000008000000000004000000000000000000000000000000000000000000000000000000000000000000000000000000000000000000000000000000000000000000000000000000000000000000000000000000000000000000000001000001000000000000000000000000000000000000000002000000000000000000000000000000000000000000000000000000000000000000000000000000000000000000000000000000000000000000000000000000000000000000000000000040000000000000000000000000000000000000000000000000000",
      "type": "0x2",
      "transactionHash": "0x548ece6f6ecbd74861d52268bb75bd93f6d7cb672ce6339bd37bd29aa42c7b05",
      "transactionIndex": "0x5",
      "blockHash": "0x80dd7591fd7558adaf8919a181fd3f313d8d59ef6ab0ecc9a249fd06fa7ce3c2",
      "blockNumber": "0x1020d39",
      "gasUsed": "0x113a6",
      "effectiveGasPrice": "0xf6a5b",
      "from": "0x12b2434a1022d5787bf06056f2885fe35de62bf8",
      "to": "0x4bbb9b855fe1e7ffbb283969d210c3841aed8076",
      "contractAddress": null,
      "l1BaseFeeScalar": "0x1db0",
      "l1BlobBaseFee": "0x48540a4664",
      "l1BlobBaseFeeScalar": "0xd2730",
      "l1Fee": "0x187d8783361f",
      "l1GasPrice": "0x2dd4b375c",
      "l1GasUsed": "0x640"
    }
  ],
  "libraries": [],
  "pending": [],
  "returns": {},
  "timestamp": 1725625893,
  "chain": 11155420,
  "commit": "dc78ae4"
}