{
  "transactions": [
    {
      "hash": "0x891cb38adbdfdba36cce7377a1312fdcc5d24a951f0225c52b7563e6df06d4ca",
      "transactionType": "CALL",
      "contractName": null,
      "contractAddress": "0x301c96ec196fb6e1fe8b7eb777f317e5261b37eb",
      "function": "setPeer(uint32,bytes32)",
      "arguments": [
        "40245",
        "0x0000000000000000000000009947652885db3849caeecf489eca492e5f08ceb7"
      ],
      "transaction": {
        "from": "0x12b2434a1022d5787bf06056f2885fe35de62bf8",
        "to": "0x301c96ec196fb6e1fe8b7eb777f317e5261b37eb",
        "gas": "0x10008",
        "value": "0x0",
        "input": "0x3400288b0000000000000000000000000000000000000000000000000000000000009d350000000000000000000000009947652885db3849caeecf489eca492e5f08ceb7",
        "nonce": "0x69",
        "chainId": "0xaa37dc"
      },
      "additionalContracts": [],
      "isFixedGasLimit": false
    },
    {
      "hash": "0xa24ae03d151b2eeb2e857b102cc89328067f12a92a8a8eabfa300a303fcd51bb",
      "transactionType": "CALL",
      "contractName": null,
      "contractAddress": "0x301c96ec196fb6e1fe8b7eb777f317e5261b37eb",
      "function": "setAdapterAddresses(address[])",
      "arguments": [
        "[0x17A67922a3CdD02D8518F53392d953B6671ecCaf]"
      ],
      "transaction": {
        "from": "0x12b2434a1022d5787bf06056f2885fe35de62bf8",
        "to": "0x301c96ec196fb6e1fe8b7eb777f317e5261b37eb",
        "gas": "0x17cbc",
        "value": "0x0",
        "input": "0xa324b2f70000000000000000000000000000000000000000000000000000000000000020000000000000000000000000000000000000000000000000000000000000000100000000000000000000000017a67922a3cdd02d8518f53392d953b6671eccaf",
        "nonce": "0x6a",
        "chainId": "0xaa37dc"
      },
      "additionalContracts": [],
      "isFixedGasLimit": false
    }
  ],
  "receipts": [
    {
      "status": "0x1",
      "cumulativeGasUsed": "0x24db66",
      "logs": [
        {
          "address": "0x301c96ec196fb6e1fe8b7eb777f317e5261b37eb",
          "topics": [
            "0x238399d427b947898edb290f5ff0f9109849b1c3ba196a42e35f00c50a54b98b"
          ],
          "data": "0x0000000000000000000000000000000000000000000000000000000000009d350000000000000000000000009947652885db3849caeecf489eca492e5f08ceb7",
          "blockHash": "0x57415ceee162578124932426f113298387411f2510bff435960c1b21c52f0fc5",
          "blockNumber": "0x1021734",
          "transactionHash": "0x891cb38adbdfdba36cce7377a1312fdcc5d24a951f0225c52b7563e6df06d4ca",
          "transactionIndex": "0x4",
          "logIndex": "0x1e",
          "removed": false
        }
      ],
      "logsBloom": "0x00000000000000000000080000000000000000000000000000000000000000000000000000000000000000000000000000000000000000000800000000000000000000000000000000000000000000000000000000000000000000000000000000000000000000000000000000000000000000000000000000000000000000000000004000000000000000000000000000000000000000000000000000000000000000000000000000000000000000000000000000000000000002000000000000000000000000000000000000000000000000000000000040040000000000000000000000000000000000000000000000000000000000000000000000000000",
      "type": "0x2",
      "transactionHash": "0x891cb38adbdfdba36cce7377a1312fdcc5d24a951f0225c52b7563e6df06d4ca",
      "transactionIndex": "0x4",
      "blockHash": "0x57415ceee162578124932426f113298387411f2510bff435960c1b21c52f0fc5",
      "blockNumber": "0x1021734",
      "gasUsed": "0xb95e",
      "effectiveGasPrice": "0xf6a96",
      "from": "0x12b2434a1022d5787bf06056f2885fe35de62bf8",
      "to": "0x301c96ec196fb6e1fe8b7eb777f317e5261b37eb",
      "contractAddress": null,
      "l1BaseFeeScalar": "0x1db0",
      "l1BlobBaseFee": "0x1ef38b0960a",
      "l1BlobBaseFeeScalar": "0xd2730",
      "l1Fee": "0xa6fe9a3e47c7",
      "l1GasPrice": "0x524158bc7",
      "l1GasUsed": "0x640"
    },
    {
      "status": "0x1",
      "cumulativeGasUsed": "0x25ef0c",
      "logs": [
        {
          "address": "0x301c96ec196fb6e1fe8b7eb777f317e5261b37eb",
          "topics": [
            "0xe3b79b0152415c3a6a3b843b01948e52a65cb32668a2bbccef929ed5956669a5"
          ],
          "data": "0x0000000000000000000000000000000000000000000000000000000000000020000000000000000000000000000000000000000000000000000000000000000100000000000000000000000017a67922a3cdd02d8518f53392d953b6671eccaf",
          "blockHash": "0x57415ceee162578124932426f113298387411f2510bff435960c1b21c52f0fc5",
          "blockNumber": "0x1021734",
          "transactionHash": "0xa24ae03d151b2eeb2e857b102cc89328067f12a92a8a8eabfa300a303fcd51bb",
          "transactionIndex": "0x5",
          "logIndex": "0x1f",
          "removed": false
        }
      ],
      "logsBloom": "0x00000000000000000000080000000000000000000000000000000000000000000000000000000000008000000000000000000000000000000000000000000000000000000000000000000000000000000000000000000000000000000000000000000000000000000000000000000000000000000000000000000000000000000000005000001000000000000000000000000000000000000000000000000000000000000000000000000000000000000000000000000000000000000000000000000000000000000000000000000000000000000000000040000000000000000000000000000000000000000000000000000000000000000000000000000000",
      "type": "0x2",
      "transactionHash": "0xa24ae03d151b2eeb2e857b102cc89328067f12a92a8a8eabfa300a303fcd51bb",
      "transactionIndex": "0x5",
      "blockHash": "0x57415ceee162578124932426f113298387411f2510bff435960c1b21c52f0fc5",
      "blockNumber": "0x1021734",
      "gasUsed": "0x113a6",
      "effectiveGasPrice": "0xf6a96",
      "from": "0x12b2434a1022d5787bf06056f2885fe35de62bf8",
      "to": "0x301c96ec196fb6e1fe8b7eb777f317e5261b37eb",
      "contractAddress": null,
      "l1BaseFeeScalar": "0x1db0",
      "l1BlobBaseFee": "0x1ef38b0960a",
      "l1BlobBaseFeeScalar": "0xd2730",
      "l1Fee": "0xa6fe9a3e47c7",
      "l1GasPrice": "0x524158bc7",
      "l1GasUsed": "0x640"
    }
  ],
  "libraries": [],
  "pending": [],
  "returns": {},
  "timestamp": 1725631003,
  "chain": 11155420,
  "commit": "dc78ae4"
}