{
  "transactions": [
    {
      "hash": "0xb550467ccc6d7a9a0022bb0099a58fe79187b42e78653a8b95741722e4934071",
      "transactionType": "CALL",
      "contractName": null,
      "contractAddress": "0x14636fe21e5ab1071768218ce59358d238462212",
      "function": "setPeer(uint32,bytes32)",
      "arguments": [
        "40245",
        "0x00000000000000000000000077c2247f13a9e2640b1c362426546216451c288f"
      ],
      "transaction": {
        "from": "0x12b2434a1022d5787bf06056f2885fe35de62bf8",
        "to": "0x14636fe21e5ab1071768218ce59358d238462212",
        "gas": "0x10008",
        "value": "0x0",
        "input": "0x3400288b0000000000000000000000000000000000000000000000000000000000009d3500000000000000000000000077c2247f13a9e2640b1c362426546216451c288f",
        "nonce": "0x72",
        "chainId": "0xaa37dc"
      },
      "additionalContracts": [],
      "isFixedGasLimit": false
    },
    {
      "hash": "0x15b7971526d7ffecdd3f6694089a93b26bd983617be52d5bd838327dc21219f4",
      "transactionType": "CALL",
      "contractName": null,
      "contractAddress": "0x14636fe21e5ab1071768218ce59358d238462212",
      "function": "setAdapterAddresses(address[])",
      "arguments": [
        "[0x510a34176fC0CAfD03a7386a77aeE41aC7bd7a09]"
      ],
      "transaction": {
        "from": "0x12b2434a1022d5787bf06056f2885fe35de62bf8",
        "to": "0x14636fe21e5ab1071768218ce59358d238462212",
        "gas": "0x17cbc",
        "value": "0x0",
        "input": "0xa324b2f700000000000000000000000000000000000000000000000000000000000000200000000000000000000000000000000000000000000000000000000000000001000000000000000000000000510a34176fc0cafd03a7386a77aee41ac7bd7a09",
        "nonce": "0x73",
        "chainId": "0xaa37dc"
      },
      "additionalContracts": [],
      "isFixedGasLimit": false
    }
  ],
  "receipts": [
    {
      "status": "0x1",
      "cumulativeGasUsed": "0x4fb590",
      "logs": [
        {
          "address": "0x14636fe21e5ab1071768218ce59358d238462212",
          "topics": [
            "0x238399d427b947898edb290f5ff0f9109849b1c3ba196a42e35f00c50a54b98b"
          ],
          "data": "0x0000000000000000000000000000000000000000000000000000000000009d3500000000000000000000000077c2247f13a9e2640b1c362426546216451c288f",
          "blockHash": "0xdd77a414ea15578c0c33036e261e61f2fdf109759b707fe5335bae4d7c749c76",
          "blockNumber": "0x1021a3d",
          "transactionHash": "0xb550467ccc6d7a9a0022bb0099a58fe79187b42e78653a8b95741722e4934071",
          "transactionIndex": "0x7",
          "logIndex": "0x64",
          "removed": false
        }
      ],
      "logsBloom": "0x00000000000000000000000000000000000000000000000000200000000000000000000000000000000000000000000000000000000000000800000000000000000000000000000000000000000000000400000000000000000000000000000000000000000000000000000000002000000000000000000000000000000000000000000000000000000000000000000000000000000000000000000000000000000000000000000000000000000000000000000000000000000002000000000000000000000000000000000000000000000000000000000000040000000000000000000000000000000000000000000000000000000000000000000000000000",
      "type": "0x2",
      "transactionHash": "0xb550467ccc6d7a9a0022bb0099a58fe79187b42e78653a8b95741722e4934071",
      "transactionIndex": "0x7",
      "blockHash": "0xdd77a414ea15578c0c33036e261e61f2fdf109759b707fe5335bae4d7c749c76",
      "blockNumber": "0x1021a3d",
      "gasUsed": "0xb95e",
      "effectiveGasPrice": "0xf6ab8",
      "from": "0x12b2434a1022d5787bf06056f2885fe35de62bf8",
      "to": "0x14636fe21e5ab1071768218ce59358d238462212",
      "contractAddress": null,
      "l1BaseFeeScalar": "0x1db0",
      "l1BlobBaseFee": "0xeadf88d1f3",
      "l1BlobBaseFeeScalar": "0xd2730",
      "l1Fee": "0x4f5adbe4f5d3",
      "l1GasPrice": "0x5a839c74b",
      "l1GasUsed": "0x640"
    },
    {
      "status": "0x1",
      "cumulativeGasUsed": "0x50c936",
      "logs": [
        {
          "address": "0x14636fe21e5ab1071768218ce59358d238462212",
          "topics": [
            "0xe3b79b0152415c3a6a3b843b01948e52a65cb32668a2bbccef929ed5956669a5"
          ],
          "data": "0x00000000000000000000000000000000000000000000000000000000000000200000000000000000000000000000000000000000000000000000000000000001000000000000000000000000510a34176fc0cafd03a7386a77aee41ac7bd7a09",
          "blockHash": "0xdd77a414ea15578c0c33036e261e61f2fdf109759b707fe5335bae4d7c749c76",
          "blockNumber": "0x1021a3d",
          "transactionHash": "0x15b7971526d7ffecdd3f6694089a93b26bd983617be52d5bd838327dc21219f4",
          "transactionIndex": "0x8",
          "logIndex": "0x65",
          "removed": false
        }
      ],
      "logsBloom": "0x00000000000000000000000000000000000000000000000000200000000000000000000000000000008000000000000000000000000000000000000000000000000000000000000000000000000000000400000000000000000000000000000000000000000000000000000000002000000000000000000000000000000000000000001000001000000000000000000000000000000000000000000000000000000000000000000000000000000000000000000000000000000000000000000000000000000000000000000000000000000000000000000000000000000000000000000000000000000000000000000000000000000000000000000000000000",
      "type": "0x2",
      "transactionHash": "0x15b7971526d7ffecdd3f6694089a93b26bd983617be52d5bd838327dc21219f4",
      "transactionIndex": "0x8",
      "blockHash": "0xdd77a414ea15578c0c33036e261e61f2fdf109759b707fe5335bae4d7c749c76",
      "blockNumber": "0x1021a3d",
      "gasUsed": "0x113a6",
      "effectiveGasPrice": "0xf6ab8",
      "from": "0x12b2434a1022d5787bf06056f2885fe35de62bf8",
      "to": "0x14636fe21e5ab1071768218ce59358d238462212",
      "contractAddress": null,
      "l1BaseFeeScalar": "0x1db0",
      "l1BlobBaseFee": "0xeadf88d1f3",
      "l1BlobBaseFeeScalar": "0xd2730",
      "l1Fee": "0x4f5adbe4f5d3",
      "l1GasPrice": "0x5a839c74b",
      "l1GasUsed": "0x640"
    }
  ],
  "libraries": [],
  "pending": [],
  "returns": {},
  "timestamp": 1725632558,
  "chain": 11155420,
  "commit": "dc78ae4"
}