{
  "transactions": [
    {
      "hash": "0xeb40194aa929e2e243a1d85a70aa1417ded22928eea5696bf4d9a489214467fc",
      "transactionType": "CALL",
      "contractName": null,
      "contractAddress": "0x9edda1aa2dcf2f2177636994a5945f972dc6b99a",
      "function": "setPeer(uint32,bytes32)",
      "arguments": [
        "40245",
        "0x0000000000000000000000005500999e37499c94e216bc1d829164734a1bba5a"
      ],
      "transaction": {
        "from": "0x12b2434a1022d5787bf06056f2885fe35de62bf8",
        "to": "0x9edda1aa2dcf2f2177636994a5945f972dc6b99a",
        "gas": "0x10f07",
        "value": "0x0",
        "input": "0x3400288b0000000000000000000000000000000000000000000000000000000000009d350000000000000000000000005500999e37499c94e216bc1d829164734a1bba5a",
        "nonce": "0x80",
        "chainId": "0xaa37dc"
      },
      "additionalContracts": [],
      "isFixedGasLimit": false
    },
    {
      "hash": "0xf3f830f3aef1493fc763724849088a46e54f3f46cc86d5cba1969e9e6393152e",
      "transactionType": "CALL",
      "contractName": null,
      "contractAddress": "0x9edda1aa2dcf2f2177636994a5945f972dc6b99a",
      "function": "setAdapterAddresses(address[])",
      "arguments": [
        "[0xac6734a2B13ACf243F4c8b9aEda303D0fe544bd1]"
      ],
      "transaction": {
        "from": "0x12b2434a1022d5787bf06056f2885fe35de62bf8",
        "to": "0x9edda1aa2dcf2f2177636994a5945f972dc6b99a",
        "gas": "0x17cbc",
        "value": "0x0",
        "input": "0xa324b2f700000000000000000000000000000000000000000000000000000000000000200000000000000000000000000000000000000000000000000000000000000001000000000000000000000000ac6734a2b13acf243f4c8b9aeda303d0fe544bd1",
        "nonce": "0x81",
        "chainId": "0xaa37dc"
      },
      "additionalContracts": [],
      "isFixedGasLimit": false
    }
  ],
  "receipts": [
    {
      "status": "0x1",
      "cumulativeGasUsed": "0x36abce",
      "logs": [
        {
          "address": "0x9edda1aa2dcf2f2177636994a5945f972dc6b99a",
          "topics": [
            "0x238399d427b947898edb290f5ff0f9109849b1c3ba196a42e35f00c50a54b98b"
          ],
          "data": "0x0000000000000000000000000000000000000000000000000000000000009d350000000000000000000000005500999e37499c94e216bc1d829164734a1bba5a",
          "blockHash": "0xc2781f7f511b3315f7ff66ca99414eaa9ebb9fc9d03b315eaea6683a8f86776f",
          "blockNumber": "0x10221b5",
          "transactionHash": "0xeb40194aa929e2e243a1d85a70aa1417ded22928eea5696bf4d9a489214467fc",
          "transactionIndex": "0x6",
          "logIndex": "0x36",
          "removed": false
        }
      ],
      "logsBloom": "0x00000000000000000000000000000000000000000000000000000000000000000000000000000000000000000000000000000000000000000800000000000000000000000000400000000000000000000000000000000000000000000000000000000000000000000000000000000000000000000000000000000000000000000000000000000000000000000000000000000000000000000000000000000000000000000000000000000000000000000000000000002000000002000000000000000000000000000000000000000000000000000000000000040000000000000000000000000000000000000000000000000000000000080000000000000000",
      "type": "0x2",
      "transactionHash": "0xeb40194aa929e2e243a1d85a70aa1417ded22928eea5696bf4d9a489214467fc",
      "transactionIndex": "0x6",
      "blockHash": "0xc2781f7f511b3315f7ff66ca99414eaa9ebb9fc9d03b315eaea6683a8f86776f",
      "blockNumber": "0x10221b5",
      "gasUsed": "0xb952",
      "effectiveGasPrice": "0xf6a9d",
      "from": "0x12b2434a1022d5787bf06056f2885fe35de62bf8",
      "to": "0x9edda1aa2dcf2f2177636994a5945f972dc6b99a",
      "contractAddress": null,
      "l1BaseFeeScalar": "0x1db0",
      "l1BlobBaseFee": "0xe1d49b5da2",
      "l1BlobBaseFeeScalar": "0xd2730",
      "l1Fee": "0x4c8eb58f50ed",
      "l1GasPrice": "0xadd7be67d",
      "l1GasUsed": "0x640"
    },
    {
      "status": "0x1",
      "cumulativeGasUsed": "0x37bf74",
      "logs": [
        {
          "address": "0x9edda1aa2dcf2f2177636994a5945f972dc6b99a",
          "topics": [
            "0xe3b79b0152415c3a6a3b843b01948e52a65cb32668a2bbccef929ed5956669a5"
          ],
          "data": "0x00000000000000000000000000000000000000000000000000000000000000200000000000000000000000000000000000000000000000000000000000000001000000000000000000000000ac6734a2b13acf243f4c8b9aeda303d0fe544bd1",
          "blockHash": "0xc2781f7f511b3315f7ff66ca99414eaa9ebb9fc9d03b315eaea6683a8f86776f",
          "blockNumber": "0x10221b5",
          "transactionHash": "0xf3f830f3aef1493fc763724849088a46e54f3f46cc86d5cba1969e9e6393152e",
          "transactionIndex": "0x7",
          "logIndex": "0x37",
          "removed": false
        }
      ],
      "logsBloom": "0x00000000000000000000000000000000000000000000000000000000000000000000000000000000008000000000000000000000000000000000000000000000000000000000400000000000000000000000000000000000000000000000000000000000000000000000000000000000000000000000000000000000000000000000001000001000000000000000000000000000000000000000000000000000000000000000000000000000000000000000000000002000000000000000000000000000000000000000000000000000000000000000000000000000000000000000000000000000000000000000000000000000000000080000000000000000",
      "type": "0x2",
      "transactionHash": "0xf3f830f3aef1493fc763724849088a46e54f3f46cc86d5cba1969e9e6393152e",
      "transactionIndex": "0x7",
      "blockHash": "0xc2781f7f511b3315f7ff66ca99414eaa9ebb9fc9d03b315eaea6683a8f86776f",
      "blockNumber": "0x10221b5",
      "gasUsed": "0x113a6",
      "effectiveGasPrice": "0xf6a9d",
      "from": "0x12b2434a1022d5787bf06056f2885fe35de62bf8",
      "to": "0x9edda1aa2dcf2f2177636994a5945f972dc6b99a",
      "contractAddress": null,
      "l1BaseFeeScalar": "0x1db0",
      "l1BlobBaseFee": "0xe1d49b5da2",
      "l1BlobBaseFeeScalar": "0xd2730",
      "l1Fee": "0x4c8eb58f50ed",
      "l1GasPrice": "0xadd7be67d",
      "l1GasUsed": "0x640"
    }
  ],
  "libraries": [],
  "pending": [],
  "returns": {},
  "timestamp": 1725636381,
  "chain": 11155420,
  "commit": "dc78ae4"
}