{
  "transactions": [
    {
      "hash": "0x2a3c774d64e2db94ca601dadbc300803e5588138083468d0f90b6472d84be998",
      "transactionType": "CALL",
      "contractName": null,
      "contractAddress": "0x58e294d6b380552c0cd1c6fed755e2260342b12f",
      "function": "setPeer(uint32,bytes32)",
      "arguments": [
        "40245",
        "0x00000000000000000000000073ff31a6d2f86b96d9b2d929c1c849595fcb20ce"
      ],
      "transaction": {
        "from": "0xb0efd2b19a5698a9c830548ac22708a28c9d4552",
        "to": "0x58e294d6b380552c0cd1c6fed755e2260342b12f",
        "gas": "0x10008",
        "value": "0x0",
        "input": "0x3400288b0000000000000000000000000000000000000000000000000000000000009d3500000000000000000000000073ff31a6d2f86b96d9b2d929c1c849595fcb20ce",
        "nonce": "0x18",
        "chainId": "0xaa37dc"
      },
      "additionalContracts": [],
      "isFixedGasLimit": false
    },
    {
      "hash": "0xf8ea509556fe48dff56f31cf749a3669eb400f5e46a5fa42dc54d0cf2fb1a143",
      "transactionType": "CALL",
      "contractName": null,
      "contractAddress": "0x58e294d6b380552c0cd1c6fed755e2260342b12f",
      "function": "setAdapterAddresses(address[])",
      "arguments": [
        "[0x9e1194b91a794BAefAaB313ec892800a280c9836]"
      ],
      "transaction": {
        "from": "0xb0efd2b19a5698a9c830548ac22708a28c9d4552",
        "to": "0x58e294d6b380552c0cd1c6fed755e2260342b12f",
        "gas": "0x188e1",
        "value": "0x0",
        "input": "0xa324b2f7000000000000000000000000000000000000000000000000000000000000002000000000000000000000000000000000000000000000000000000000000000010000000000000000000000009e1194b91a794baefaab313ec892800a280c9836",
        "nonce": "0x19",
        "chainId": "0xaa37dc"
      },
      "additionalContracts": [],
      "isFixedGasLimit": false
    }
  ],
  "receipts": [
    {
      "status": "0x1",
      "cumulativeGasUsed": "0x26f921",
      "logs": [
        {
          "address": "0x58e294d6b380552c0cd1c6fed755e2260342b12f",
          "topics": [
            "0x238399d427b947898edb290f5ff0f9109849b1c3ba196a42e35f00c50a54b98b"
          ],
          "data": "0x0000000000000000000000000000000000000000000000000000000000009d3500000000000000000000000073ff31a6d2f86b96d9b2d929c1c849595fcb20ce",
          "blockHash": "0x4840f333e5247b846f3c41979875b4574a4b855c58dc339897143735476a7799",
          "blockNumber": "0x1012f18",
          "transactionHash": "0x2a3c774d64e2db94ca601dadbc300803e5588138083468d0f90b6472d84be998",
          "transactionIndex": "0x5",
          "logIndex": "0x2b",
          "removed": false
        }
      ],
      "logsBloom": "0x00000000000000000000000000000000000000000000000000000000000000000000000000000000000000000000000000000000000000000800000000000000000000000000000000000000000000000000000000000000000000000000000000000000000000000000000000000000000000000000000000000000000000008000000000000000000000000000000000000000000000000000000000000000000000000000000000000000000000200000000000020000000002000000000000000000000000000000000000000000000000000000000000040000000000000000000000000000000000000000000000000000000000000000000000000000",
      "type": "0x2",
      "transactionHash": "0x2a3c774d64e2db94ca601dadbc300803e5588138083468d0f90b6472d84be998",
      "transactionIndex": "0x5",
      "blockHash": "0x4840f333e5247b846f3c41979875b4574a4b855c58dc339897143735476a7799",
      "blockNumber": "0x1012f18",
      "gasUsed": "0xb95e",
      "effectiveGasPrice": "0xf6a8c",
      "from": "0xb0efd2b19a5698a9c830548ac22708a28c9d4552",
      "to": "0x58e294d6b380552c0cd1c6fed755e2260342b12f",
      "contractAddress": null,
      "l1BaseFeeScalar": "0x1db0",
      "l1BlobBaseFee": "0x23ad68e864",
      "l1BlobBaseFeeScalar": "0xd2730",
      "l1Fee": "0xc1ce9db19e6",
      "l1GasPrice": "0x219547399",
      "l1GasUsed": "0x640"
    },
    {
      "status": "0x1",
      "cumulativeGasUsed": "0x2805c4",
      "logs": [],
      "logsBloom": "0x00000000000000000000000000000000000000000000000000000000000000000000000000000000000000000000000000000000000000000000000000000000000000000000000000000000000000000000000000000000000000000000000000000000000000000000000000000000000000000000000000000000000000000000000000000000000000000000000000000000000000000000000000000000000000000000000000000000000000000000000000000000000000000000000000000000000000000000000000000000000000000000000000000000000000000000000000000000000000000000000000000000000000000000000000000000",
      "type": "0x2",
      "transactionHash": "0xf8ea509556fe48dff56f31cf749a3669eb400f5e46a5fa42dc54d0cf2fb1a143",
      "transactionIndex": "0x6",
      "blockHash": "0x4840f333e5247b846f3c41979875b4574a4b855c58dc339897143735476a7799",
      "blockNumber": "0x1012f18",
      "gasUsed": "0x10ca3",
      "effectiveGasPrice": "0xf6a8c",
      "from": "0xb0efd2b19a5698a9c830548ac22708a28c9d4552",
      "to": "0x58e294d6b380552c0cd1c6fed755e2260342b12f",
      "contractAddress": null,
      "l1BaseFeeScalar": "0x1db0",
      "l1BlobBaseFee": "0x23ad68e864",
      "l1BlobBaseFeeScalar": "0xd2730",
      "l1Fee": "0xc1ce9db19e6",
      "l1GasPrice": "0x219547399",
      "l1GasUsed": "0x640"
    }
  ],
  "libraries": [],
  "pending": [],
  "returns": {},
  "timestamp": 1725512161,
  "chain": 11155420,
  "commit": "8370d5b"
}