{
  "transactions": [
    {
      "hash": "0x79e4e65cf0dcaae54f839cad14823e39f56eab3b8d7630138378851113d75761",
      "transactionType": "CALL",
      "contractName": null,
      "contractAddress": "0xcd8d0a671230d8fe06d420d1d537d0b3d37bef87",
      "function": "setPeer(uint32,bytes32)",
      "arguments": [
        "40245",
        "0x000000000000000000000000868aa7e6a8c5b594e4c142b3c139c50ef0007920"
      ],
      "transaction": {
        "from": "0xb0efd2b19a5698a9c830548ac22708a28c9d4552",
        "to": "0xcd8d0a671230d8fe06d420d1d537d0b3d37bef87",
        "gas": "0x9499",
        "value": "0x0",
        "input": "0x3400288b0000000000000000000000000000000000000000000000000000000000009d35000000000000000000000000868aa7e6a8c5b594e4c142b3c139c50ef0007920",
        "nonce": "0x53",
        "chainId": "0xaa37dc"
      },
      "additionalContracts": [],
      "isFixedGasLimit": false
    },
    {
      "hash": "0x7a45b452c71229a7e03a77e4b04992c3ab968aaa41d8774e654bdb5ae489bcfa",
      "transactionType": "CALL",
      "contractName": null,
      "contractAddress": "0xcd8d0a671230d8fe06d420d1d537d0b3d37bef87",
      "function": "setAdapterAddresses(address[])",
      "arguments": [
        "[0x966B9FB633C55FC65A8F6975f0849671e782d4d4]"
      ],
      "transaction": {
        "from": "0xb0efd2b19a5698a9c830548ac22708a28c9d4552",
        "to": "0xcd8d0a671230d8fe06d420d1d537d0b3d37bef87",
        "gas": "0xa5fe",
        "value": "0x0",
        "input": "0xa324b2f700000000000000000000000000000000000000000000000000000000000000200000000000000000000000000000000000000000000000000000000000000001000000000000000000000000966b9fb633c55fc65a8f6975f0849671e782d4d4",
        "nonce": "0x54",
        "chainId": "0xaa37dc"
      },
      "additionalContracts": [],
      "isFixedGasLimit": false
    }
  ],
  "receipts": [
    {
      "status": "0x1",
      "cumulativeGasUsed": "0x98865",
      "logs": [
        {
          "address": "0xcd8d0a671230d8fe06d420d1d537d0b3d37bef87",
          "topics": [
            "0x238399d427b947898edb290f5ff0f9109849b1c3ba196a42e35f00c50a54b98b"
          ],
          "data": "0x0000000000000000000000000000000000000000000000000000000000009d35000000000000000000000000868aa7e6a8c5b594e4c142b3c139c50ef0007920",
          "blockHash": "0xcc2705eddff31cdaa4c55daeec389df8b57b036ca14405f3a935ddea805ee3b2",
          "blockNumber": "0x10238a5",
          "transactionHash": "0x79e4e65cf0dcaae54f839cad14823e39f56eab3b8d7630138378851113d75761",
          "transactionIndex": "0x3",
          "logIndex": "0xc",
          "removed": false
        }
      ],
      "logsBloom": "0x00000000000000000000000000000000000000000000000000000000000000000000000000000000000000000000000000000000000000000800000000000000000000000000000000000000000000000000000000000000000000000000000000000000000000000000400000000000000000000000000000000000000000000000000000000000000000000000000000000000000000000000000000000000000000000000000000000000000000000000000000000000000002000000800000000000000000000000000000000000000000000000000000040000000000000000000000000000000010000000000000000000000000000000000000000000",
      "type": "0x2",
      "transactionHash": "0x79e4e65cf0dcaae54f839cad14823e39f56eab3b8d7630138378851113d75761",
      "transactionIndex": "0x3",
      "blockHash": "0xcc2705eddff31cdaa4c55daeec389df8b57b036ca14405f3a935ddea805ee3b2",
      "blockNumber": "0x10238a5",
      "gasUsed": "0x6b96",
      "effectiveGasPrice": "0xf6a9e",
      "from": "0xb0efd2b19a5698a9c830548ac22708a28c9d4552",
      "to": "0xcd8d0a671230d8fe06d420d1d537d0b3d37bef87",
      "contractAddress": null,
      "l1BaseFeeScalar": "0x1db0",
      "l1BlobBaseFee": "0x251b2107c1",
      "l1BlobBaseFeeScalar": "0xd2730",
      "l1Fee": "0xc9073997514",
      "l1GasPrice": "0x17931a1d2",
      "l1GasUsed": "0x640"
    },
    {
      "status": "0x1",
      "cumulativeGasUsed": "0xa0093",
      "logs": [
        {
          "address": "0xcd8d0a671230d8fe06d420d1d537d0b3d37bef87",
          "topics": [
            "0xe3b79b0152415c3a6a3b843b01948e52a65cb32668a2bbccef929ed5956669a5"
          ],
          "data": "0x00000000000000000000000000000000000000000000000000000000000000200000000000000000000000000000000000000000000000000000000000000001000000000000000000000000966b9fb633c55fc65a8f6975f0849671e782d4d4",
          "blockHash": "0xcc2705eddff31cdaa4c55daeec389df8b57b036ca14405f3a935ddea805ee3b2",
          "blockNumber": "0x10238a5",
          "transactionHash": "0x7a45b452c71229a7e03a77e4b04992c3ab968aaa41d8774e654bdb5ae489bcfa",
          "transactionIndex": "0x4",
          "logIndex": "0xd",
          "removed": false
        }
      ],
      "logsBloom": "0x00000000000000000000000000000000000000000000000000000000000000000000000000000000008000000000000000000000000000000000000000000000000000000000000000000000000000000000000000000000000000000000000000000000000000000000400000000000000000000000000000000000000000000000001000001000000000000000000000000000000000000000000000000000000000000000000000000000000000000000000000000000000000000000800000000000000000000000000000000000000000000000000000000000000000000000000000000000000010000000000000000000000000000000000000000000",
      "type": "0x2",
      "transactionHash": "0x7a45b452c71229a7e03a77e4b04992c3ab968aaa41d8774e654bdb5ae489bcfa",
      "transactionIndex": "0x4",
      "blockHash": "0xcc2705eddff31cdaa4c55daeec389df8b57b036ca14405f3a935ddea805ee3b2",
      "blockNumber": "0x10238a5",
      "gasUsed": "0x782e",
      "effectiveGasPrice": "0xf6a9e",
      "from": "0xb0efd2b19a5698a9c830548ac22708a28c9d4552",
      "to": "0xcd8d0a671230d8fe06d420d1d537d0b3d37bef87",
      "contractAddress": null,
      "l1BaseFeeScalar": "0x1db0",
      "l1BlobBaseFee": "0x251b2107c1",
      "l1BlobBaseFeeScalar": "0xd2730",
      "l1Fee": "0xc9073997514",
      "l1GasPrice": "0x17931a1d2",
      "l1GasUsed": "0x640"
    }
  ],
  "libraries": [],
  "pending": [],
  "returns": {},
  "timestamp": 1725648123,
  "chain": 11155420,
  "commit": "37e882d"
}