{
  "transactions": [
    {
      "hash": "0xf7b51fcf5649fbc321834c913534b5e1f5542ac695dcd28b3ac8ab9de2210780",
      "transactionType": "CALL",
      "contractName": null,
      "contractAddress": "0xf12670a627e38b84e97064b8d303ae43960979b8",
      "function": "setPeer(uint32,bytes32)",
      "arguments": [
        "40245",
        "0x0000000000000000000000004a1cc361e462a8c90a938ac7d6283dfeb57fa560"
      ],
      "transaction": {
        "from": "0xb0efd2b19a5698a9c830548ac22708a28c9d4552",
        "to": "0xf12670a627e38b84e97064b8d303ae43960979b8",
        "gas": "0x10014",
        "value": "0x0",
        "input": "0x3400288b0000000000000000000000000000000000000000000000000000000000009d350000000000000000000000004a1cc361e462a8c90a938ac7d6283dfeb57fa560",
        "nonce": "0x3a",
        "chainId": "0xaa37dc"
      },
      "additionalContracts": [],
      "isFixedGasLimit": false
    },
    {
      "hash": "0xf125d26475545e2bd42e3df29be92aa3e7684df6da7938e034f97471f78a5c59",
      "transactionType": "CALL",
      "contractName": null,
      "contractAddress": "0xf12670a627e38b84e97064b8d303ae43960979b8",
      "function": "setAdapterAddresses(address[])",
      "arguments": [
        "[0x7922A9731bFe3c9A73f5758cA016C6Febb7e3F5a]"
      ],
      "transaction": {
        "from": "0xb0efd2b19a5698a9c830548ac22708a28c9d4552",
        "to": "0xf12670a627e38b84e97064b8d303ae43960979b8",
        "gas": "0x1737e",
        "value": "0x0",
        "input": "0xa324b2f7000000000000000000000000000000000000000000000000000000000000002000000000000000000000000000000000000000000000000000000000000000010000000000000000000000007922a9731bfe3c9a73f5758ca016c6febb7e3f5a",
        "nonce": "0x3b",
        "chainId": "0xaa37dc"
      },
      "additionalContracts": [],
      "isFixedGasLimit": false
    }
  ],
  "receipts": [
    {
      "status": "0x1",
      "cumulativeGasUsed": "0xea3ec",
      "logs": [
        {
          "address": "0xf12670a627e38b84e97064b8d303ae43960979b8",
          "topics": [
            "0x238399d427b947898edb290f5ff0f9109849b1c3ba196a42e35f00c50a54b98b"
          ],
          "data": "0x0000000000000000000000000000000000000000000000000000000000009d350000000000000000000000004a1cc361e462a8c90a938ac7d6283dfeb57fa560",
          "blockHash": "0x2003773fbf05eea7370749eb898f1138f8c36f8b543e8fb0ae4af7144ca0bd72",
          "blockNumber": "0x10147e4",
          "transactionHash": "0xf7b51fcf5649fbc321834c913534b5e1f5542ac695dcd28b3ac8ab9de2210780",
          "transactionIndex": "0x4",
          "logIndex": "0x13",
          "removed": false
        }
      ],
      "logsBloom": "0x00000000000000100000000000000000000000000000000000000000000000000000000000000000000000000000000000000000000000000800000000000000000000000000000000000000000000000000000000000000000000000000000000000000000000000000000000000000000000000000000002000000000000000000000000000000000000000000000000000000000000000000000000000000000000000000000000000000000000000000000000000000000002000000000000100000000000000000000000000000000000000000000000040000000000000000000000000000000000000000000000000000000000000000000000000000",
      "type": "0x2",
      "transactionHash": "0xf7b51fcf5649fbc321834c913534b5e1f5542ac695dcd28b3ac8ab9de2210780",
      "transactionIndex": "0x4",
      "blockHash": "0x2003773fbf05eea7370749eb898f1138f8c36f8b543e8fb0ae4af7144ca0bd72",
      "blockNumber": "0x10147e4",
      "gasUsed": "0xb966",
      "effectiveGasPrice": "0xf6a90",
      "from": "0xb0efd2b19a5698a9c830548ac22708a28c9d4552",
      "to": "0xf12670a627e38b84e97064b8d303ae43960979b8",
      "contractAddress": null,
      "l1BaseFeeScalar": "0x1db0",
      "l1BlobBaseFee": "0x1083b7a2674",
      "l1BlobBaseFeeScalar": "0xd2730",
      "l1Fee": "0x5a1d6681ff54",
      "l1GasPrice": "0x180f705e84",
      "l1GasUsed": "0x640"
    },
    {
      "status": "0x1",
      "cumulativeGasUsed": "0xfb0e1",
      "logs": [],
      "logsBloom": "0x00000000000000000000000000000000000000000000000000000000000000000000000000000000000000000000000000000000000000000000000000000000000000000000000000000000000000000000000000000000000000000000000000000000000000000000000000000000000000000000000000000000000000000000000000000000000000000000000000000000000000000000000000000000000000000000000000000000000000000000000000000000000000000000000000000000000000000000000000000000000000000000000000000000000000000000000000000000000000000000000000000000000000000000000000000000",
      "type": "0x2",
      "transactionHash": "0xf125d26475545e2bd42e3df29be92aa3e7684df6da7938e034f97471f78a5c59",
      "transactionIndex": "0x5",
      "blockHash": "0x2003773fbf05eea7370749eb898f1138f8c36f8b543e8fb0ae4af7144ca0bd72",
      "blockNumber": "0x10147e4",
      "gasUsed": "0x10cf5",
      "effectiveGasPrice": "0xf6a90",
      "from": "0xb0efd2b19a5698a9c830548ac22708a28c9d4552",
      "to": "0xf12670a627e38b84e97064b8d303ae43960979b8",
      "contractAddress": null,
      "l1BaseFeeScalar": "0x1db0",
      "l1BlobBaseFee": "0x1083b7a2674",
      "l1BlobBaseFeeScalar": "0xd2730",
      "l1Fee": "0x5a1d6681ff54",
      "l1GasPrice": "0x180f705e84",
      "l1GasUsed": "0x640"
    }
  ],
  "libraries": [],
  "pending": [],
  "returns": {},
  "timestamp": 1725524856,
  "chain": 11155420,
  "commit": "8370d5b"
}