{
  "transactions": [
    {
      "hash": "0xb5b34f0b8b85cc7dc1889f1e64c5e5d8a6c24d87f0a6a5477d467f731b4a5f9b",
      "transactionType": "CALL",
      "contractName": null,
      "contractAddress": "0x57c550921592cbfb32e3c51422224b68e8f2c00c",
      "function": "setPeer(uint32,bytes32)",
      "arguments": [
        "40245",
        "0x00000000000000000000000051aed1b696d630063f5f7c1733f3b429c92f9465"
      ],
      "transaction": {
        "from": "0x12b2434a1022d5787bf06056f2885fe35de62bf8",
        "to": "0x57c550921592cbfb32e3c51422224b68e8f2c00c",
        "gas": "0x10008",
        "value": "0x0",
        "input": "0x3400288b0000000000000000000000000000000000000000000000000000000000009d3500000000000000000000000051aed1b696d630063f5f7c1733f3b429c92f9465",
        "nonce": "0x26",
        "chainId": "0xaa37dc"
      },
      "additionalContracts": [],
      "isFixedGasLimit": false
    },
    {
      "hash": "0x4d807df6ed2b501b3181cb26e7da224bc1fc502111e770f4f12b2c1c62b84d7a",
      "transactionType": "CALL",
      "contractName": null,
      "contractAddress": "0x57c550921592cbfb32e3c51422224b68e8f2c00c",
      "function": "setAdapterAddresses(address[])",
      "arguments": [
        "[0x4390bbad9F2cd8F4E28C8B48435c24023823d442]"
      ],
      "transaction": {
        "from": "0x12b2434a1022d5787bf06056f2885fe35de62bf8",
        "to": "0x57c550921592cbfb32e3c51422224b68e8f2c00c",
        "gas": "0x18926",
        "value": "0x0",
        "input": "0xa324b2f7000000000000000000000000000000000000000000000000000000000000002000000000000000000000000000000000000000000000000000000000000000010000000000000000000000004390bbad9f2cd8f4e28c8b48435c24023823d442",
        "nonce": "0x27",
        "chainId": "0xaa37dc"
      },
      "additionalContracts": [],
      "isFixedGasLimit": false
    }
  ],
  "receipts": [
    {
      "status": "0x1",
      "cumulativeGasUsed": "0x13c82f",
      "logs": [
        {
          "address": "0x57c550921592cbfb32e3c51422224b68e8f2c00c",
          "topics": [
            "0x238399d427b947898edb290f5ff0f9109849b1c3ba196a42e35f00c50a54b98b"
          ],
          "data": "0x0000000000000000000000000000000000000000000000000000000000009d3500000000000000000000000051aed1b696d630063f5f7c1733f3b429c92f9465",
          "blockHash": "0xbdff9abbf9b94261122a68ef8d254b4780e85a004485ff613f7e1f1f53b02e30",
          "blockNumber": "0x10157c8",
          "transactionHash": "0xb5b34f0b8b85cc7dc1889f1e64c5e5d8a6c24d87f0a6a5477d467f731b4a5f9b",
          "transactionIndex": "0x5",
          "logIndex": "0x1c",
          "removed": false
        }
      ],
      "logsBloom": "0x0000000000000000000000000000000000000000000000000000000000000000000000000000000000000000000000000000000000000000080000000000000000000000000000000000000000000000000000000000000000000000000000000a000000000000000000000000000000000020000000000000000000000000000000000000000000000000000000000000000000000000000000000000000000000000000000000000000000000000000000000000000000000002000000000000000000000000000000000000000000000000000000000000040000000000000000000000000000000000000000000000000000000000000000000000000000",
      "type": "0x2",
      "transactionHash": "0xb5b34f0b8b85cc7dc1889f1e64c5e5d8a6c24d87f0a6a5477d467f731b4a5f9b",
      "transactionIndex": "0x5",
      "blockHash": "0xbdff9abbf9b94261122a68ef8d254b4780e85a004485ff613f7e1f1f53b02e30",
      "blockNumber": "0x10157c8",
      "gasUsed": "0xb95e",
      "effectiveGasPrice": "0xf6a7f",
      "from": "0x12b2434a1022d5787bf06056f2885fe35de62bf8",
      "to": "0x57c550921592cbfb32e3c51422224b68e8f2c00c",
      "contractAddress": null,
      "l1BaseFeeScalar": "0x1db0",
      "l1BlobBaseFee": "0x1083b7a2674",
      "l1BlobBaseFeeScalar": "0xd2730",
      "l1Fee": "0x5979eeade302",
      "l1GasPrice": "0xa9e0173c4",
      "l1GasUsed": "0x640"
    },
    {
      "status": "0x1",
      "cumulativeGasUsed": "0x14d501",
      "logs": [],
      "logsBloom": "0x00000000000000000000000000000000000000000000000000000000000000000000000000000000000000000000000000000000000000000000000000000000000000000000000000000000000000000000000000000000000000000000000000000000000000000000000000000000000000000000000000000000000000000000000000000000000000000000000000000000000000000000000000000000000000000000000000000000000000000000000000000000000000000000000000000000000000000000000000000000000000000000000000000000000000000000000000000000000000000000000000000000000000000000000000000000",
      "type": "0x2",
      "transactionHash": "0x4d807df6ed2b501b3181cb26e7da224bc1fc502111e770f4f12b2c1c62b84d7a",
      "transactionIndex": "0x6",
      "blockHash": "0xbdff9abbf9b94261122a68ef8d254b4780e85a004485ff613f7e1f1f53b02e30",
      "blockNumber": "0x10157c8",
      "gasUsed": "0x10cd2",
      "effectiveGasPrice": "0xf6a7f",
      "from": "0x12b2434a1022d5787bf06056f2885fe35de62bf8",
      "to": "0x57c550921592cbfb32e3c51422224b68e8f2c00c",
      "contractAddress": null,
      "l1BaseFeeScalar": "0x1db0",
      "l1BlobBaseFee": "0x1083b7a2674",
      "l1BlobBaseFeeScalar": "0xd2730",
      "l1Fee": "0x5979eeade302",
      "l1GasPrice": "0xa9e0173c4",
      "l1GasUsed": "0x640"
    }
  ],
  "libraries": [],
  "pending": [],
  "returns": {},
  "timestamp": 1725532996,
  "chain": 11155420,
  "commit": "6821207"
}