{
  "transactions": [
    {
      "hash": "0xb6e9fec2ec557d33503ce30639115fd23a9bf2bd3fefe104bcdc2795e0227249",
      "transactionType": "CALL",
      "contractName": null,
      "contractAddress": "0x673db44c3b7a8297499b4660f152d47a91a85630",
      "function": "setPeer(uint32,bytes32)",
      "arguments": [
        "40245",
        "0x000000000000000000000000577b9dde50b5bddf19c73e1d6553cd0460d9baec"
      ],
      "transaction": {
        "from": "0xb0efd2b19a5698a9c830548ac22708a28c9d4552",
        "to": "0x673db44c3b7a8297499b4660f152d47a91a85630",
        "gas": "0x10014",
        "value": "0x0",
        "input": "0x3400288b0000000000000000000000000000000000000000000000000000000000009d35000000000000000000000000577b9dde50b5bddf19c73e1d6553cd0460d9baec",
        "nonce": "0x30",
        "chainId": "0xaa37dc"
      },
      "additionalContracts": [],
      "isFixedGasLimit": false
    },
    {
      "hash": "0x5f4b70f90b82575463aab274388af579fb1eb5343a4f6049b530192a32ac79e7",
      "transactionType": "CALL",
      "contractName": null,
      "contractAddress": "0x673db44c3b7a8297499b4660f152d47a91a85630",
      "function": "setAdapterAddresses(address[])",
      "arguments": [
        "[0x7a0F0BA7EcD29B846d4CBf5De7F1caF68A68cdfa]"
      ],
      "transaction": {
        "from": "0xb0efd2b19a5698a9c830548ac22708a28c9d4552",
        "to": "0x673db44c3b7a8297499b4660f152d47a91a85630",
        "gas": "0x1735f",
        "value": "0x0",
        "input": "0xa324b2f7000000000000000000000000000000000000000000000000000000000000002000000000000000000000000000000000000000000000000000000000000000010000000000000000000000007a0f0ba7ecd29b846d4cbf5de7f1caf68a68cdfa",
        "nonce": "0x31",
        "chainId": "0xaa37dc"
      },
      "additionalContracts": [],
      "isFixedGasLimit": false
    }
  ],
  "receipts": [
    {
      "status": "0x1",
      "cumulativeGasUsed": "0x117b79",
      "logs": [
        {
          "address": "0x673db44c3b7a8297499b4660f152d47a91a85630",
          "topics": [
            "0x238399d427b947898edb290f5ff0f9109849b1c3ba196a42e35f00c50a54b98b"
          ],
          "data": "0x0000000000000000000000000000000000000000000000000000000000009d35000000000000000000000000577b9dde50b5bddf19c73e1d6553cd0460d9baec",
          "blockHash": "0xe6169108d43b3961596850de5763851922b441d4543470ee193fea743a5128d5",
          "blockNumber": "0x1014478",
          "transactionHash": "0xb6e9fec2ec557d33503ce30639115fd23a9bf2bd3fefe104bcdc2795e0227249",
          "transactionIndex": "0x5",
          "logIndex": "0x18",
          "removed": false
        }
      ],
      "logsBloom": "0x00000000000000001000000000000000000000000000000000000000000000000000000000000000000000000000000000000000000000000800000000000000008000000000000000000000000000000000000000000000000000000000000000000000000000000000000000000000000000000000000000000000000000000000000000000000000000000000000000000000000000000000000000000000000000000000000000000000010000000000000000000000000002000000000000000000000000000000000000000000000000000000000000040000000000000000000000000000000000000000000000000000000000000000000000000000",
      "type": "0x2",
      "transactionHash": "0xb6e9fec2ec557d33503ce30639115fd23a9bf2bd3fefe104bcdc2795e0227249",
      "transactionIndex": "0x5",
      "blockHash": "0xe6169108d43b3961596850de5763851922b441d4543470ee193fea743a5128d5",
      "blockNumber": "0x1014478",
      "gasUsed": "0xb966",
      "effectiveGasPrice": "0xf6a86",
      "from": "0xb0efd2b19a5698a9c830548ac22708a28c9d4552",
      "to": "0x673db44c3b7a8297499b4660f152d47a91a85630",
      "contractAddress": null,
      "l1BaseFeeScalar": "0x1db0",
      "l1BlobBaseFee": "0x98806356d5",
      "l1BlobBaseFeeScalar": "0xd2730",
      "l1Fee": "0x33ebe39356c0",
      "l1GasPrice": "0xc071f49b4",
      "l1GasUsed": "0x640"
    },
    {
      "status": "0x1",
      "cumulativeGasUsed": "0x128858",
      "logs": [],
      "logsBloom": "0x00000000000000000000000000000000000000000000000000000000000000000000000000000000000000000000000000000000000000000000000000000000000000000000000000000000000000000000000000000000000000000000000000000000000000000000000000000000000000000000000000000000000000000000000000000000000000000000000000000000000000000000000000000000000000000000000000000000000000000000000000000000000000000000000000000000000000000000000000000000000000000000000000000000000000000000000000000000000000000000000000000000000000000000000000000000",
      "type": "0x2",
      "transactionHash": "0x5f4b70f90b82575463aab274388af579fb1eb5343a4f6049b530192a32ac79e7",
      "transactionIndex": "0x6",
      "blockHash": "0xe6169108d43b3961596850de5763851922b441d4543470ee193fea743a5128d5",
      "blockNumber": "0x1014478",
      "gasUsed": "0x10cdf",
      "effectiveGasPrice": "0xf6a86",
      "from": "0xb0efd2b19a5698a9c830548ac22708a28c9d4552",
      "to": "0x673db44c3b7a8297499b4660f152d47a91a85630",
      "contractAddress": null,
      "l1BaseFeeScalar": "0x1db0",
      "l1BlobBaseFee": "0x98806356d5",
      "l1BlobBaseFeeScalar": "0xd2730",
      "l1Fee": "0x33ebe39356c0",
      "l1GasPrice": "0xc071f49b4",
      "l1GasUsed": "0x640"
    }
  ],
  "libraries": [],
  "pending": [],
  "returns": {},
  "timestamp": 1725523106,
  "chain": 11155420,
  "commit": "8370d5b"
}