{
  "transactions": [
    {
      "hash": "0xb7d3b04585fe7c1b7f2311fea524c6b226efff968a15b82b3df17cbe9d4a8538",
      "transactionType": "CALL",
      "contractName": null,
      "contractAddress": "0x3255d41116a0bba5247aae9184f435547afb8d1c",
      "function": "setPeer(uint32,bytes32)",
      "arguments": [
        "40245",
        "0x000000000000000000000000d9c0269b0d6a8200f10c2a9a0a85ba400761befd"
      ],
      "transaction": {
        "from": "0x12b2434a1022d5787bf06056f2885fe35de62bf8",
        "to": "0x3255d41116a0bba5247aae9184f435547afb8d1c",
        "gas": "0x10f43",
        "value": "0x0",
        "input": "0x3400288b0000000000000000000000000000000000000000000000000000000000009d35000000000000000000000000d9c0269b0d6a8200f10c2a9a0a85ba400761befd",
        "nonce": "0x18",
        "chainId": "0xaa37dc"
      },
      "additionalContracts": [],
      "isFixedGasLimit": false
    },
    {
      "hash": "0x34fbcb0ec556b42c275834d0f867f59a91ccc16a5fdcf212a03ecf8e3d54e425",
      "transactionType": "CALL",
      "contractName": null,
      "contractAddress": "0x3255d41116a0bba5247aae9184f435547afb8d1c",
      "function": "setAdapterAddress(address)",
      "arguments": [
        "0x0000000000000000000000000000000000000000"
      ],
      "transaction": {
        "from": "0x12b2434a1022d5787bf06056f2885fe35de62bf8",
        "to": "0x3255d41116a0bba5247aae9184f435547afb8d1c",
        "gas": "0x87d7",
        "value": "0x0",
        "input": "0x736eede50000000000000000000000000000000000000000000000000000000000000000",
        "nonce": "0x19",
        "chainId": "0xaa37dc"
      },
      "additionalContracts": [],
      "isFixedGasLimit": false
    }
  ],
  "receipts": [
    {
      "status": "0x1",
      "cumulativeGasUsed": "0x18c5c0",
      "logs": [
        {
          "address": "0x3255d41116a0bba5247aae9184f435547afb8d1c",
          "topics": [
            "0x238399d427b947898edb290f5ff0f9109849b1c3ba196a42e35f00c50a54b98b"
          ],
          "data": "0x0000000000000000000000000000000000000000000000000000000000009d35000000000000000000000000d9c0269b0d6a8200f10c2a9a0a85ba400761befd",
          "blockHash": "0x7ca45922e6629d2c679ca01d6fc6704e9b9411a112cf8a26abc0039061e56e56",
          "blockNumber": "0x100f073",
          "transactionHash": "0xb7d3b04585fe7c1b7f2311fea524c6b226efff968a15b82b3df17cbe9d4a8538",
          "transactionIndex": "0x5",
          "logIndex": "0x18",
          "removed": false
        }
      ],
      "logsBloom": "0x00000000000000000000000000000000002000000000000000000000000000008000000000000000000000000000000000000000000000000800000000000000000000000000000000000000000000000000000000000000000000000000000000000000000000000000000000000000000000000000000000000000000000000000000000000000000000000000000000000000000000000000000000000000000000000000000000000000000000000000000000000000000002000000000000000000000000000000400000000000000000000000000000040000000000000000000000000000000000000000000000000000000000000000000000000000",
      "type": "0x2",
      "transactionHash": "0xb7d3b04585fe7c1b7f2311fea524c6b226efff968a15b82b3df17cbe9d4a8538",
      "transactionIndex": "0x5",
      "blockHash": "0x7ca45922e6629d2c679ca01d6fc6704e9b9411a112cf8a26abc0039061e56e56",
      "blockNumber": "0x100f073",
      "gasUsed": "0xb97b",
      "effectiveGasPrice": "0xf6a56",
      "from": "0x12b2434a1022d5787bf06056f2885fe35de62bf8",
      "to": "0x3255d41116a0bba5247aae9184f435547afb8d1c",
      "contractAddress": null,
      "l1BaseFeeScalar": "0x1db0",
      "l1BlobBaseFee": "0x32cc680154",
      "l1BlobBaseFeeScalar": "0xd2730",
      "l1Fee": "0x112d5b79afcd",
      "l1GasPrice": "0x1861a6af0",
      "l1GasUsed": "0x640"
    },
    {
      "status": "0x1",
      "cumulativeGasUsed": "0x1922a2",
      "logs": [],
      "logsBloom": "0x00000000000000000000000000000000000000000000000000000000000000000000000000000000000000000000000000000000000000000000000000000000000000000000000000000000000000000000000000000000000000000000000000000000000000000000000000000000000000000000000000000000000000000000000000000000000000000000000000000000000000000000000000000000000000000000000000000000000000000000000000000000000000000000000000000000000000000000000000000000000000000000000000000000000000000000000000000000000000000000000000000000000000000000000000000000",
      "type": "0x2",
      "transactionHash": "0x34fbcb0ec556b42c275834d0f867f59a91ccc16a5fdcf212a03ecf8e3d54e425",
      "transactionIndex": "0x6",
      "blockHash": "0x7ca45922e6629d2c679ca01d6fc6704e9b9411a112cf8a26abc0039061e56e56",
      "blockNumber": "0x100f073",
      "gasUsed": "0x5ce2",
      "effectiveGasPrice": "0xf6a56",
      "from": "0x12b2434a1022d5787bf06056f2885fe35de62bf8",
      "to": "0x3255d41116a0bba5247aae9184f435547afb8d1c",
      "contractAddress": null,
      "l1BaseFeeScalar": "0x1db0",
      "l1BlobBaseFee": "0x32cc680154",
      "l1BlobBaseFeeScalar": "0xd2730",
      "l1Fee": "0x112d5b79afcd",
      "l1GasPrice": "0x1861a6af0",
      "l1GasUsed": "0x640"
    }
  ],
  "libraries": [],
  "pending": [],
  "returns": {},
  "timestamp": 1725480083,
  "chain": 11155420,
  "commit": "da4a4b9"
}