{
  "transactions": [
    {
      "hash": "0xfaf9360403c1fac18bc51e951150272565191ad2b2e4f8cb26a1d939ea1c8f4a",
      "transactionType": "CALL",
      "contractName": null,
      "contractAddress": "0x6015bb11856889ae9e96e9635ca0d6757f44b71b",
      "function": "setPeer(uint32,bytes32)",
      "arguments": [
        "40245",
        "0x0000000000000000000000005a70ce8e9dd57b1fbe6b77ae40d3d81206229fa7"
      ],
      "transaction": {
        "from": "0x12b2434a1022d5787bf06056f2885fe35de62bf8",
        "to": "0x6015bb11856889ae9e96e9635ca0d6757f44b71b",
        "gas": "0x10008",
        "value": "0x0",
        "input": "0x3400288b0000000000000000000000000000000000000000000000000000000000009d350000000000000000000000005a70ce8e9dd57b1fbe6b77ae40d3d81206229fa7",
        "nonce": "0x38",
        "chainId": "0xaa37dc"
      },
      "additionalContracts": [],
      "isFixedGasLimit": false
    },
    {
      "hash": "0x8bed81d8bcf1dc7b10746757fea0c474ac4828d1b8f7879bfe7557ce08c4a633",
      "transactionType": "CALL",
      "contractName": null,
      "contractAddress": "0x6015bb11856889ae9e96e9635ca0d6757f44b71b",
      "function": "setAdapterAddresses(address[])",
      "arguments": [
        "[0xe473EffDC30EdBFb68990A517A21307d287CcbB3]"
      ],
      "transaction": {
        "from": "0x12b2434a1022d5787bf06056f2885fe35de62bf8",
        "to": "0x6015bb11856889ae9e96e9635ca0d6757f44b71b",
        "gas": "0x17349",
        "value": "0x0",
        "input": "0xa324b2f700000000000000000000000000000000000000000000000000000000000000200000000000000000000000000000000000000000000000000000000000000001000000000000000000000000e473effdc30edbfb68990a517a21307d287ccbb3",
        "nonce": "0x39",
        "chainId": "0xaa37dc"
      },
      "additionalContracts": [],
      "isFixedGasLimit": false
    }
  ],
  "receipts": [
    {
      "status": "0x1",
      "cumulativeGasUsed": "0x12a258",
      "logs": [
        {
          "address": "0x6015bb11856889ae9e96e9635ca0d6757f44b71b",
          "topics": [
            "0x238399d427b947898edb290f5ff0f9109849b1c3ba196a42e35f00c50a54b98b"
          ],
          "data": "0x0000000000000000000000000000000000000000000000000000000000009d350000000000000000000000005a70ce8e9dd57b1fbe6b77ae40d3d81206229fa7",
          "blockHash": "0x23630917216f9f620c227bf8d4aa27761610a0b46771e345704f35c6bd109dd1",
          "blockNumber": "0x1016736",
          "transactionHash": "0xfaf9360403c1fac18bc51e951150272565191ad2b2e4f8cb26a1d939ea1c8f4a",
          "transactionIndex": "0x4",
          "logIndex": "0x19",
          "removed": false
        }
      ],
      "logsBloom": "0x00000000000000000000000000000000000000000000000000000000000200000000000000000000000000000000000000000000000000000800000000000000000000000000000000000000000000000000000000000000000000000000000000000000000000000000000000000000000000020000000000000000000000000000000000000000000000000000000000000000000000000000000000000000000000000000000000000000000000000000000000000000000002000000000000000000000000000000000000000000000000000000000000040000000000000000000000000000000000000000000000000000000000000000000002000000",
      "type": "0x2",
      "transactionHash": "0xfaf9360403c1fac18bc51e951150272565191ad2b2e4f8cb26a1d939ea1c8f4a",
      "transactionIndex": "0x4",
      "blockHash": "0x23630917216f9f620c227bf8d4aa27761610a0b46771e345704f35c6bd109dd1",
      "blockNumber": "0x1016736",
      "gasUsed": "0xb95e",
      "effectiveGasPrice": "0xf6a76",
      "from": "0x12b2434a1022d5787bf06056f2885fe35de62bf8",
      "to": "0x6015bb11856889ae9e96e9635ca0d6757f44b71b",
      "contractAddress": null,
      "l1BaseFeeScalar": "0x1db0",
      "l1BlobBaseFee": "0x112d00d34d4",
      "l1BlobBaseFeeScalar": "0xd2730",
      "l1Fee": "0x5d683d077669",
      "l1GasPrice": "0x125ecfa0b9",
      "l1GasUsed": "0x640"
    },
    {
      "status": "0x1",
      "cumulativeGasUsed": "0x13af27",
      "logs": [],
      "logsBloom": "0x00000000000000000000000000000000000000000000000000000000000000000000000000000000000000000000000000000000000000000000000000000000000000000000000000000000000000000000000000000000000000000000000000000000000000000000000000000000000000000000000000000000000000000000000000000000000000000000000000000000000000000000000000000000000000000000000000000000000000000000000000000000000000000000000000000000000000000000000000000000000000000000000000000000000000000000000000000000000000000000000000000000000000000000000000000000",
      "type": "0x2",
      "transactionHash": "0x8bed81d8bcf1dc7b10746757fea0c474ac4828d1b8f7879bfe7557ce08c4a633",
      "transactionIndex": "0x5",
      "blockHash": "0x23630917216f9f620c227bf8d4aa27761610a0b46771e345704f35c6bd109dd1",
      "blockNumber": "0x1016736",
      "gasUsed": "0x10ccf",
      "effectiveGasPrice": "0xf6a76",
      "from": "0x12b2434a1022d5787bf06056f2885fe35de62bf8",
      "to": "0x6015bb11856889ae9e96e9635ca0d6757f44b71b",
      "contractAddress": null,
      "l1BaseFeeScalar": "0x1db0",
      "l1BlobBaseFee": "0x112d00d34d4",
      "l1BlobBaseFeeScalar": "0xd2730",
      "l1Fee": "0x5d683d077669",
      "l1GasPrice": "0x125ecfa0b9",
      "l1GasUsed": "0x640"
    }
  ],
  "libraries": [],
  "pending": [],
  "returns": {},
  "timestamp": 1725540889,
  "chain": 11155420,
  "commit": "c5b011b"
}