{
  "transactions": [
    {
      "hash": "0x8ab27332b81a3291fb6d7774e60f70e3a5c856b6d19c8e26fdbd1e9fee63a6ba",
      "transactionType": "CALL",
      "contractName": null,
      "contractAddress": "0x21384b160486b69949fc197a2971606876c1fcf9",
      "function": "setPeer(uint32,bytes32)",
      "arguments": [
        "40245",
        "0x000000000000000000000000e3421207bcee400b16fb6be9fdeae5340935048c"
      ],
      "transaction": {
        "from": "0xb0efd2b19a5698a9c830548ac22708a28c9d4552",
        "to": "0x21384b160486b69949fc197a2971606876c1fcf9",
        "gas": "0x10014",
        "value": "0x0",
        "input": "0x3400288b0000000000000000000000000000000000000000000000000000000000009d35000000000000000000000000e3421207bcee400b16fb6be9fdeae5340935048c",
        "nonce": "0x2c",
        "chainId": "0xaa37dc"
      },
      "additionalContracts": [],
      "isFixedGasLimit": false
    },
    {
      "hash": "0xc3ab395a2bd314c18de882a742b3a0ac63388ea371617b5df7700c4aeb7aec92",
      "transactionType": "CALL",
      "contractName": null,
      "contractAddress": "0x21384b160486b69949fc197a2971606876c1fcf9",
      "function": "setAdapterAddresses(address[])",
      "arguments": [
        "[0xD6E616349465C81e147A5CF0CF756D1E36f2B524]"
      ],
      "transaction": {
        "from": "0xb0efd2b19a5698a9c830548ac22708a28c9d4552",
        "to": "0x21384b160486b69949fc197a2971606876c1fcf9",
        "gas": "0x1733d",
        "value": "0x0",
        "input": "0xa324b2f700000000000000000000000000000000000000000000000000000000000000200000000000000000000000000000000000000000000000000000000000000001000000000000000000000000d6e616349465c81e147a5cf0cf756d1e36f2b524",
        "nonce": "0x2d",
        "chainId": "0xaa37dc"
      },
      "additionalContracts": [],
      "isFixedGasLimit": false
    }
  ],
  "receipts": [
    {
      "status": "0x1",
      "cumulativeGasUsed": "0x561c3e",
      "logs": [
        {
          "address": "0x21384b160486b69949fc197a2971606876c1fcf9",
          "topics": [
            "0x238399d427b947898edb290f5ff0f9109849b1c3ba196a42e35f00c50a54b98b"
          ],
          "data": "0x0000000000000000000000000000000000000000000000000000000000009d35000000000000000000000000e3421207bcee400b16fb6be9fdeae5340935048c",
          "blockHash": "0x967918a4d002d2e094d33f9b5e1486bb9447b2922cf91513d4f741221ac47d29",
          "blockNumber": "0x1014131",
          "transactionHash": "0x8ab27332b81a3291fb6d7774e60f70e3a5c856b6d19c8e26fdbd1e9fee63a6ba",
          "transactionIndex": "0x7",
          "logIndex": "0x82",
          "removed": false
        }
      ],
      "logsBloom": "0x00000000000000000000000000000000000000000800000000000000000000000000000000000000000000000000000000000000000000000800000000000000000000000000000000000000000000000000000000000000000000000000000000000000000000000000000000000000000000000000000000000000000000000000000000000000000000000000000000000000000000000000000000000000000000000000000000000000000000008000000000000000000002000000000000000000000000000000000000000000000000000000000000040000000000000000000000000000000000000000000000000000000000000000000000000080",
      "type": "0x2",
      "transactionHash": "0x8ab27332b81a3291fb6d7774e60f70e3a5c856b6d19c8e26fdbd1e9fee63a6ba",
      "transactionIndex": "0x7",
      "blockHash": "0x967918a4d002d2e094d33f9b5e1486bb9447b2922cf91513d4f741221ac47d29",
      "blockNumber": "0x1014131",
      "gasUsed": "0xb966",
      "effectiveGasPrice": "0xf6a9c",
      "from": "0xb0efd2b19a5698a9c830548ac22708a28c9d4552",
      "to": "0x21384b160486b69949fc197a2971606876c1fcf9",
      "contractAddress": null,
      "l1BaseFeeScalar": "0x1db0",
      "l1BlobBaseFee": "0xc8bcfbb476",
      "l1BlobBaseFeeScalar": "0xd2730",
      "l1Fee": "0x4460fd9d2128",
      "l1GasPrice": "0x108f15795e",
      "l1GasUsed": "0x640"
    },
    {
      "status": "0x1",
      "cumulativeGasUsed": "0x572904",
      "logs": [],
      "logsBloom": "0x00000000000000000000000000000000000000000000000000000000000000000000000000000000000000000000000000000000000000000000000000000000000000000000000000000000000000000000000000000000000000000000000000000000000000000000000000000000000000000000000000000000000000000000000000000000000000000000000000000000000000000000000000000000000000000000000000000000000000000000000000000000000000000000000000000000000000000000000000000000000000000000000000000000000000000000000000000000000000000000000000000000000000000000000000000000",
      "type": "0x2",
      "transactionHash": "0xc3ab395a2bd314c18de882a742b3a0ac63388ea371617b5df7700c4aeb7aec92",
      "transactionIndex": "0x8",
      "blockHash": "0x967918a4d002d2e094d33f9b5e1486bb9447b2922cf91513d4f741221ac47d29",
      "blockNumber": "0x1014131",
      "gasUsed": "0x10cc6",
      "effectiveGasPrice": "0xf6a9c",
      "from": "0xb0efd2b19a5698a9c830548ac22708a28c9d4552",
      "to": "0x21384b160486b69949fc197a2971606876c1fcf9",
      "contractAddress": null,
      "l1BaseFeeScalar": "0x1db0",
      "l1BlobBaseFee": "0xc8bcfbb476",
      "l1BlobBaseFeeScalar": "0xd2730",
      "l1Fee": "0x4460fd9d2128",
      "l1GasPrice": "0x108f15795e",
      "l1GasUsed": "0x640"
    }
  ],
  "libraries": [],
  "pending": [],
  "returns": {},
  "timestamp": 1725521428,
  "chain": 11155420,
  "commit": "8370d5b"
}