{
  "transactions": [
    {
      "hash": "0xe0a8844a6a2b3c08522adfdcf45272f168aabbe4353432b94d9af67bc7cfae0a",
      "transactionType": "CALL",
      "contractName": null,
      "contractAddress": "0x6aba63870bf8bdf3888b5f794ddf7de2aeda5060",
      "function": "setPeer(uint32,bytes32)",
      "arguments": [
        "40245",
        "0x0000000000000000000000002d92992ea05d38a254b6c26ed9dc5933b5fb8c5c"
      ],
      "transaction": {
        "from": "0xb0efd2b19a5698a9c830548ac22708a28c9d4552",
        "to": "0x6aba63870bf8bdf3888b5f794ddf7de2aeda5060",
        "gas": "0x10008",
        "value": "0x0",
        "input": "0x3400288b0000000000000000000000000000000000000000000000000000000000009d350000000000000000000000002d92992ea05d38a254b6c26ed9dc5933b5fb8c5c",
        "nonce": "0x45",
        "chainId": "0xaa37dc"
      },
      "additionalContracts": [],
      "isFixedGasLimit": false
    },
    {
      "hash": "0x058d2fdeead176b1f8afd8baa57dcae0ffe3c3f6ba11a8a12ad625c12c16a586",
      "transactionType": "CALL",
      "contractName": null,
      "contractAddress": "0x6aba63870bf8bdf3888b5f794ddf7de2aeda5060",
      "function": "setAdapterAddresses(address[])",
      "arguments": [
        "[0xA621DaF0941E7428Ce7a739a536B6E3954a1d01C]"
      ],
      "transaction": {
        "from": "0xb0efd2b19a5698a9c830548ac22708a28c9d4552",
        "to": "0x6aba63870bf8bdf3888b5f794ddf7de2aeda5060",
        "gas": "0x18926",
        "value": "0x0",
        "input": "0xa324b2f700000000000000000000000000000000000000000000000000000000000000200000000000000000000000000000000000000000000000000000000000000001000000000000000000000000a621daf0941e7428ce7a739a536b6e3954a1d01c",
        "nonce": "0x46",
        "chainId": "0xaa37dc"
      },
      "additionalContracts": [],
      "isFixedGasLimit": false
    }
  ],
  "receipts": [
    {
      "status": "0x1",
      "cumulativeGasUsed": "0x16a371",
      "logs": [
        {
          "address": "0x6aba63870bf8bdf3888b5f794ddf7de2aeda5060",
          "topics": [
            "0x238399d427b947898edb290f5ff0f9109849b1c3ba196a42e35f00c50a54b98b"
          ],
          "data": "0x0000000000000000000000000000000000000000000000000000000000009d350000000000000000000000002d92992ea05d38a254b6c26ed9dc5933b5fb8c5c",
          "blockHash": "0x9247fae8ece8287597b6be6dc12b61e36c56facaa9b5fabe1c8de6fa2f228f72",
          "blockNumber": "0x1014b0e",
          "transactionHash": "0xe0a8844a6a2b3c08522adfdcf45272f168aabbe4353432b94d9af67bc7cfae0a",
          "transactionIndex": "0x3",
          "logIndex": "0x20",
          "removed": false
        }
      ],
      "logsBloom": "0x00000000000000000000000000000000000000000000000000000000000000000000000000000000000000000000004000000000000000000800000000000000000000000000000000000000000000000000000004000000000000000000000000000000000000000000000000000000000000000000000000000000000000000000000000000000000000000000000000000000000000000000000000000000000000000000000000000000000000000000000000000000000002000000000000000000000000000000000000000000000000000000000000040000000000000000000000000000000000000000000000000000000000000000010000000000",
      "type": "0x2",
      "transactionHash": "0xe0a8844a6a2b3c08522adfdcf45272f168aabbe4353432b94d9af67bc7cfae0a",
      "transactionIndex": "0x3",
      "blockHash": "0x9247fae8ece8287597b6be6dc12b61e36c56facaa9b5fabe1c8de6fa2f228f72",
      "blockNumber": "0x1014b0e",
      "gasUsed": "0xb95e",
      "effectiveGasPrice": "0xf6a95",
      "from": "0xb0efd2b19a5698a9c830548ac22708a28c9d4552",
      "to": "0x6aba63870bf8bdf3888b5f794ddf7de2aeda5060",
      "contractAddress": null,
      "l1BaseFeeScalar": "0x1db0",
      "l1BlobBaseFee": "0xa4f57ccd96",
      "l1BlobBaseFeeScalar": "0xd2730",
      "l1Fee": "0x381498c6cab3",
      "l1GasPrice": "0xb4715bf4f",
      "l1GasUsed": "0x640"
    },
    {
      "status": "0x1",
      "cumulativeGasUsed": "0x17b043",
      "logs": [],
      "logsBloom": "0x00000000000000000000000000000000000000000000000000000000000000000000000000000000000000000000000000000000000000000000000000000000000000000000000000000000000000000000000000000000000000000000000000000000000000000000000000000000000000000000000000000000000000000000000000000000000000000000000000000000000000000000000000000000000000000000000000000000000000000000000000000000000000000000000000000000000000000000000000000000000000000000000000000000000000000000000000000000000000000000000000000000000000000000000000000000",
      "type": "0x2",
      "transactionHash": "0x058d2fdeead176b1f8afd8baa57dcae0ffe3c3f6ba11a8a12ad625c12c16a586",
      "transactionIndex": "0x4",
      "blockHash": "0x9247fae8ece8287597b6be6dc12b61e36c56facaa9b5fabe1c8de6fa2f228f72",
      "blockNumber": "0x1014b0e",
      "gasUsed": "0x10cd2",
      "effectiveGasPrice": "0xf6a95",
      "from": "0xb0efd2b19a5698a9c830548ac22708a28c9d4552",
      "to": "0x6aba63870bf8bdf3888b5f794ddf7de2aeda5060",
      "contractAddress": null,
      "l1BaseFeeScalar": "0x1db0",
      "l1BlobBaseFee": "0xa4f57ccd96",
      "l1BlobBaseFeeScalar": "0xd2730",
      "l1Fee": "0x381498c6cab3",
      "l1GasPrice": "0xb4715bf4f",
      "l1GasUsed": "0x640"
    }
  ],
  "libraries": [],
  "pending": [],
  "returns": {},
  "timestamp": 1725526477,
  "chain": 11155420,
  "commit": "8370d5b"
}