{
  "transactions": [
    {
      "hash": null,
      "transactionType": "CALL",
      "contractName": null,
      "contractAddress": "0x141ea5d5536d81123b4f34fc3f3aebd9603aa1ab",
      "function": "setPeer(uint32,bytes32)",
      "arguments": [
        "40245",
        "0x0000000000000000000000002aef4ab12a5b8dbd420abc44ce5c3ac562352526"
      ],
      "transaction": {
        "from": "0x12b2434a1022d5787bf06056f2885fe35de62bf8",
        "to": "0x141ea5d5536d81123b4f34fc3f3aebd9603aa1ab",
        "gas": "0x10041",
        "value": "0x0",
        "input": "0x3400288b0000000000000000000000000000000000000000000000000000000000009d350000000000000000000000002aef4ab12a5b8dbd420abc44ce5c3ac562352526",
        "nonce": "0x1c",
        "chainId": "0xaa37dc"
      },
      "additionalContracts": [],
      "isFixedGasLimit": false
    },
    {
      "hash": null,
      "transactionType": "CALL",
      "contractName": null,
      "contractAddress": "0x141ea5d5536d81123b4f34fc3f3aebd9603aa1ab",
      "function": "setAdapterAddress(address)",
      "arguments": [
        "0xc1291707f5Af0aBEaC2bf483053330BF1798189d"
      ],
      "transaction": {
        "from": "0x12b2434a1022d5787bf06056f2885fe35de62bf8",
        "to": "0x141ea5d5536d81123b4f34fc3f3aebd9603aa1ab",
        "gas": "0xecf4",
        "value": "0x0",
        "input": "0x736eede5000000000000000000000000c1291707f5af0abeac2bf483053330bf1798189d",
        "nonce": "0x1d",
        "chainId": "0xaa37dc"
      },
      "additionalContracts": [],
      "isFixedGasLimit": false
    }
  ],
  "receipts": [],
  "libraries": [],
  "pending": [],
  "returns": {},
  "timestamp": 1725481621,
  "chain": 11155420,
  "commit": "da4a4b9"
}