{
  "transactions": [
    {
      "hash": "0xff3645cfedba13de75c342b264ecd6cc41654d593e152623131fa93e8c940c1a",
      "transactionType": "CALL",
      "contractName": null,
      "contractAddress": "0xd520d0de26c369cb34d27e5534cd39afebaa1509",
      "function": "setPeer(uint32,bytes32)",
      "arguments": [
        "40245",
        "0x00000000000000000000000025ca228de14d25efaacb6c1634d036a768871ba2"
      ],
      "transaction": {
        "from": "0x12b2434a1022d5787bf06056f2885fe35de62bf8",
        "to": "0xd520d0de26c369cb34d27e5534cd39afebaa1509",
        "gas": "0x10041",
        "value": "0x0",
        "input": "0x3400288b0000000000000000000000000000000000000000000000000000000000009d3500000000000000000000000025ca228de14d25efaacb6c1634d036a768871ba2",
        "nonce": "0x9",
        "chainId": "0xaa37dc"
      },
      "additionalContracts": [],
      "isFixedGasLimit": false
    },
    {
      "hash": "0x63e7a218305f032a0c6b23261ff15d8eb38a100283cfcb8bee8b64ea1fb9462c",
      "transactionType": "CALL",
      "contractName": null,
      "contractAddress": "0xd520d0de26c369cb34d27e5534cd39afebaa1509",
      "function": "setAdapterAddress(address)",
      "arguments": [
        "0x385928e1e9648EF02ec4a44670e9B0D5AFD8e499"
      ],
      "transaction": {
        "from": "0x12b2434a1022d5787bf06056f2885fe35de62bf8",
        "to": "0xd520d0de26c369cb34d27e5534cd39afebaa1509",
        "gas": "0xecf4",
        "value": "0x0",
        "input": "0x736eede5000000000000000000000000385928e1e9648ef02ec4a44670e9b0d5afd8e499",
        "nonce": "0xa",
        "chainId": "0xaa37dc"
      },
      "additionalContracts": [],
      "isFixedGasLimit": false
    }
  ],
  "receipts": [
    {
      "status": "0x1",
      "cumulativeGasUsed": "0x9b252",
      "logs": [
        {
          "address": "0xd520d0de26c369cb34d27e5534cd39afebaa1509",
          "topics": [
            "0x238399d427b947898edb290f5ff0f9109849b1c3ba196a42e35f00c50a54b98b"
          ],
          "data": "0x0000000000000000000000000000000000000000000000000000000000009d3500000000000000000000000025ca228de14d25efaacb6c1634d036a768871ba2",
          "blockHash": "0xa90b413255d74be7d1883a081fe213684aae4e518e2e436b156c0af0b36f9f0f",
          "blockNumber": "0x100d873",
          "transactionHash": "0xff3645cfedba13de75c342b264ecd6cc41654d593e152623131fa93e8c940c1a",
          "transactionIndex": "0x3",
          "logIndex": "0x6",
          "removed": false
        }
      ],
      "logsBloom": "0x00000000000000000000000000000000000000000000000000000000000000000000000000000000000000000000000000000000000000000a00000000000000000000000000000000000000000000000000000000000000000000000000000000000000000000000000000000000000000000000000000000000000000000000000000000000000000000000000000000200000000000000000000000000000008000000000000000000000000000000000000000000000000002000000000000000000000000000000000000000000000000000000000000040000000000000000000000000000000000000000000000000000000000000000000000000000",
      "type": "0x2",
      "transactionHash": "0xff3645cfedba13de75c342b264ecd6cc41654d593e152623131fa93e8c940c1a",
      "transactionIndex": "0x3",
      "blockHash": "0xa90b413255d74be7d1883a081fe213684aae4e518e2e436b156c0af0b36f9f0f",
      "blockNumber": "0x100d873",
      "gasUsed": "0xb987",
      "effectiveGasPrice": "0xf6a70",
      "from": "0x12b2434a1022d5787bf06056f2885fe35de62bf8",
      "to": "0xd520d0de26c369cb34d27e5534cd39afebaa1509",
      "contractAddress": null,
      "l1BaseFeeScalar": "0x1db0",
      "l1BlobBaseFee": "0xb9942c91c7",
      "l1BlobBaseFeeScalar": "0xd2730",
      "l1Fee": "0x3edff748c35d",
      "l1GasPrice": "0x825bf1785",
      "l1GasUsed": "0x640"
    },
    {
      "status": "0x1",
      "cumulativeGasUsed": "0x11e522",
      "logs": [],
      "logsBloom": "0x00000000000000000000000000000000000000000000000000000000000000000000000000000000000000000000000000000000000000000000000000000000000000000000000000000000000000000000000000000000000000000000000000000000000000000000000000000000000000000000000000000000000000000000000000000000000000000000000000000000000000000000000000000000000000000000000000000000000000000000000000000000000000000000000000000000000000000000000000000000000000000000000000000000000000000000000000000000000000000000000000000000000000000000000000000000",
      "type": "0x2",
      "transactionHash": "0x63e7a218305f032a0c6b23261ff15d8eb38a100283cfcb8bee8b64ea1fb9462c",
      "transactionIndex": "0x5",
      "blockHash": "0xa90b413255d74be7d1883a081fe213684aae4e518e2e436b156c0af0b36f9f0f",
      "blockNumber": "0x100d873",
      "gasUsed": "0xab8e",
      "effectiveGasPrice": "0xf6a70",
      "from": "0x12b2434a1022d5787bf06056f2885fe35de62bf8",
      "to": "0xd520d0de26c369cb34d27e5534cd39afebaa1509",
      "contractAddress": null,
      "l1BaseFeeScalar": "0x1db0",
      "l1BlobBaseFee": "0xb9942c91c7",
      "l1BlobBaseFeeScalar": "0xd2730",
      "l1Fee": "0x3edff748c35d",
      "l1GasPrice": "0x825bf1785",
      "l1GasUsed": "0x640"
    }
  ],
  "libraries": [],
  "pending": [],
  "returns": {},
  "timestamp": 1725467795,
  "chain": 11155420,
  "commit": "da4a4b9"
}