{
  "transactions": [
    {
      "hash": "0xac90a01fd9e37c94fad167d16ffc41788a07531b975790a8b81e422e95b7c8b3",
      "transactionType": "CALL",
      "contractName": null,
      "contractAddress": "0x4ad1c96cb3689ec85c8902358b90a231081eb7a8",
      "function": "setPeer(uint32,bytes32)",
      "arguments": [
        "40245",
        "0x000000000000000000000000c32b58a3aa4b65cbef6c64691e20b15e5553aca4"
      ],
      "transaction": {
        "from": "0x12b2434a1022d5787bf06056f2885fe35de62bf8",
        "to": "0x4ad1c96cb3689ec85c8902358b90a231081eb7a8",
        "gas": "0x10008",
        "value": "0x0",
        "input": "0x3400288b0000000000000000000000000000000000000000000000000000000000009d35000000000000000000000000c32b58a3aa4b65cbef6c64691e20b15e5553aca4",
        "nonce": "0xa2",
        "chainId": "0xaa37dc"
      },
      "additionalContracts": [],
      "isFixedGasLimit": false
    },
    {
      "hash": "0xadcf42339c43fa328ac8e8983cf0f14986dbb2dee148083375e0ef37d141cd1d",
      "transactionType": "CALL",
      "contractName": null,
      "contractAddress": "0x4ad1c96cb3689ec85c8902358b90a231081eb7a8",
      "function": "setAdapterAddresses(address[])",
      "arguments": [
        "[0xa8fc227DCC5cEf05bFdd726e88E6E237C043F0B2]"
      ],
      "transaction": {
        "from": "0x12b2434a1022d5787bf06056f2885fe35de62bf8",
        "to": "0x4ad1c96cb3689ec85c8902358b90a231081eb7a8",
        "gas": "0x17cbc",
        "value": "0x0",
        "input": "0xa324b2f700000000000000000000000000000000000000000000000000000000000000200000000000000000000000000000000000000000000000000000000000000001000000000000000000000000a8fc227dcc5cef05bfdd726e88e6e237c043f0b2",
        "nonce": "0xa3",
        "chainId": "0xaa37dc"
      },
      "additionalContracts": [],
      "isFixedGasLimit": false
    }
  ],
  "receipts": [
    {
      "status": "0x1",
      "cumulativeGasUsed": "0xd5d7a",
      "logs": [
        {
          "address": "0x4ad1c96cb3689ec85c8902358b90a231081eb7a8",
          "topics": [
            "0x238399d427b947898edb290f5ff0f9109849b1c3ba196a42e35f00c50a54b98b"
          ],
          "data": "0x0000000000000000000000000000000000000000000000000000000000009d35000000000000000000000000c32b58a3aa4b65cbef6c64691e20b15e5553aca4",
          "blockHash": "0x818b9488c13e14b7ddfc1c90adbd3b3317488585be87d3e5a40ce1e90b4ab3ea",
          "blockNumber": "0x1023226",
          "transactionHash": "0xac90a01fd9e37c94fad167d16ffc41788a07531b975790a8b81e422e95b7c8b3",
          "transactionIndex": "0x4",
          "logIndex": "0x12",
          "removed": false
        }
      ],
      "logsBloom": "0x00000000000000000000000000000000000000000000000000000000000000000000000000000000000000000000000000000000000000000800000000000000000000000000000010000000000000000000000000000001000000000000000000000000000000000000000000040000000000000000000000000000000000000000000000000000000000000000000000000000000000000000000000000000000000000000000000000000000000000000000000000000000002000000000000000000000000000000000000000000000000000000000000040000000000000000000000000000000000000000000000000000000000000000000000000000",
      "type": "0x2",
      "transactionHash": "0xac90a01fd9e37c94fad167d16ffc41788a07531b975790a8b81e422e95b7c8b3",
      "transactionIndex": "0x4",
      "blockHash": "0x818b9488c13e14b7ddfc1c90adbd3b3317488585be87d3e5a40ce1e90b4ab3ea",
      "blockNumber": "0x1023226",
      "gasUsed": "0xb95e",
      "effectiveGasPrice": "0xf6a97",
      "from": "0x12b2434a1022d5787bf06056f2885fe35de62bf8",
      "to": "0x4ad1c96cb3689ec85c8902358b90a231081eb7a8",
      "contractAddress": null,
      "l1BaseFeeScalar": "0x1db0",
      "l1BlobBaseFee": "0x30d7bb9b75",
      "l1BlobBaseFeeScalar": "0xd2730",
      "l1Fee": "0x10980dc34ae2",
      "l1GasPrice": "0x31c0d4e0c",
      "l1GasUsed": "0x640"
    },
    {
      "status": "0x1",
      "cumulativeGasUsed": "0xe7120",
      "logs": [
        {
          "address": "0x4ad1c96cb3689ec85c8902358b90a231081eb7a8",
          "topics": [
            "0xe3b79b0152415c3a6a3b843b01948e52a65cb32668a2bbccef929ed5956669a5"
          ],
          "data": "0x00000000000000000000000000000000000000000000000000000000000000200000000000000000000000000000000000000000000000000000000000000001000000000000000000000000a8fc227dcc5cef05bfdd726e88e6e237c043f0b2",
          "blockHash": "0x818b9488c13e14b7ddfc1c90adbd3b3317488585be87d3e5a40ce1e90b4ab3ea",
          "blockNumber": "0x1023226",
          "transactionHash": "0xadcf42339c43fa328ac8e8983cf0f14986dbb2dee148083375e0ef37d141cd1d",
          "transactionIndex": "0x5",
          "logIndex": "0x13",
          "removed": false
        }
      ],
      "logsBloom": "0x00000000000000000000000000000000000000000000000000000000000000000000000000000000008000000000000000000000000000000000000000000000000000000000000010000000000000000000000000000001000000000000000000000000000000000000000000040000000000000000000000000000000000000000001000001000000000000000000000000000000000000000000000000000000000000000000000000000000000000000000000000000000000000000000000000000000000000000000000000000000000000000000000000000000000000000000000000000000000000000000000000000000000000000000000000000",
      "type": "0x2",
      "transactionHash": "0xadcf42339c43fa328ac8e8983cf0f14986dbb2dee148083375e0ef37d141cd1d",
      "transactionIndex": "0x5",
      "blockHash": "0x818b9488c13e14b7ddfc1c90adbd3b3317488585be87d3e5a40ce1e90b4ab3ea",
      "blockNumber": "0x1023226",
      "gasUsed": "0x113a6",
      "effectiveGasPrice": "0xf6a97",
      "from": "0x12b2434a1022d5787bf06056f2885fe35de62bf8",
      "to": "0x4ad1c96cb3689ec85c8902358b90a231081eb7a8",
      "contractAddress": null,
      "l1BaseFeeScalar": "0x1db0",
      "l1BlobBaseFee": "0x30d7bb9b75",
      "l1BlobBaseFeeScalar": "0xd2730",
      "l1Fee": "0x10980dc34ae2",
      "l1GasPrice": "0x31c0d4e0c",
      "l1GasUsed": "0x640"
    }
  ],
  "libraries": [],
  "pending": [],
  "returns": {},
  "timestamp": 1725644798,
  "chain": 11155420,
  "commit": "dc78ae4"
}