{
  "transactions": [
    {
      "hash": "0x3104443b5ceb14e8cf54d94cb2b74922279c9c43cc217ae1f48459dae4fe9061",
      "transactionType": "CALL",
      "contractName": null,
      "contractAddress": "0x23960ee69b04e9dc87ae3d5e1e7799c6028edc16",
      "function": "setPeer(uint32,bytes32)",
      "arguments": [
        "40245",
        "0x00000000000000000000000066cb88c2c4e68ed626855da33a2969bd4f4e5540"
      ],
      "transaction": {
        "from": "0x12b2434a1022d5787bf06056f2885fe35de62bf8",
        "to": "0x23960ee69b04e9dc87ae3d5e1e7799c6028edc16",
        "gas": "0x10008",
        "value": "0x0",
        "input": "0x3400288b0000000000000000000000000000000000000000000000000000000000009d3500000000000000000000000066cb88c2c4e68ed626855da33a2969bd4f4e5540",
        "nonce": "0x30",
        "chainId": "0xaa37dc"
      },
      "additionalContracts": [],
      "isFixedGasLimit": false
    },
    {
      "hash": "0x280f82d9761ce444880555e1315bd6d65b959ee290c6d04f9a01c99f964352a3",
      "transactionType": "CALL",
      "contractName": null,
      "contractAddress": "0x23960ee69b04e9dc87ae3d5e1e7799c6028edc16",
      "function": "setAdapterAddresses(address[])",
      "arguments": [
        "[0xB8CEc1a1f2986E36284bC42Aa862b812150dD754]"
      ],
      "transaction": {
        "from": "0x12b2434a1022d5787bf06056f2885fe35de62bf8",
        "to": "0x23960ee69b04e9dc87ae3d5e1e7799c6028edc16",
        "gas": "0x18926",
        "value": "0x0",
        "input": "0xa324b2f700000000000000000000000000000000000000000000000000000000000000200000000000000000000000000000000000000000000000000000000000000001000000000000000000000000b8cec1a1f2986e36284bc42aa862b812150dd754",
        "nonce": "0x31",
        "chainId": "0xaa37dc"
      },
      "additionalContracts": [],
      "isFixedGasLimit": false
    }
  ],
  "receipts": [
    {
      "status": "0x1",
      "cumulativeGasUsed": "0xa02ff",
      "logs": [
        {
          "address": "0x23960ee69b04e9dc87ae3d5e1e7799c6028edc16",
          "topics": [
            "0x238399d427b947898edb290f5ff0f9109849b1c3ba196a42e35f00c50a54b98b"
          ],
          "data": "0x0000000000000000000000000000000000000000000000000000000000009d3500000000000000000000000066cb88c2c4e68ed626855da33a2969bd4f4e5540",
          "blockHash": "0xf34547acfdf853e5b228ff2ffcfffe7245bd0fbe1586934e1dac615653bc2519",
          "blockNumber": "0x1016274",
          "transactionHash": "0x3104443b5ceb14e8cf54d94cb2b74922279c9c43cc217ae1f48459dae4fe9061",
          "transactionIndex": "0x3",
          "logIndex": "0xc",
          "removed": false
        }
      ],
      "logsBloom": "0x00000000000000000000000000000000000000000020000000000000000000000000000000000000000000000000000000000000000000000800000000008000000000000000000000000000000000000000000000000000000000000000000000000000000000000000000000000000000000000000000000000000000000000000000000000000000000000000000000000000000000000000000000000000000000000000000000000000000000000000000000000000000002000000000000000000000000000000000000000000000000000000000000040000040000000000000000000000000000000000000000000000000000000000000000000000",
      "type": "0x2",
      "transactionHash": "0x3104443b5ceb14e8cf54d94cb2b74922279c9c43cc217ae1f48459dae4fe9061",
      "transactionIndex": "0x3",
      "blockHash": "0xf34547acfdf853e5b228ff2ffcfffe7245bd0fbe1586934e1dac615653bc2519",
      "blockNumber": "0x1016274",
      "gasUsed": "0xb95e",
      "effectiveGasPrice": "0xf6a77",
      "from": "0x12b2434a1022d5787bf06056f2885fe35de62bf8",
      "to": "0x23960ee69b04e9dc87ae3d5e1e7799c6028edc16",
      "contractAddress": null,
      "l1BaseFeeScalar": "0x1db0",
      "l1BlobBaseFee": "0xd0c6b252ef",
      "l1BlobBaseFeeScalar": "0xd2730",
      "l1Fee": "0x46ff48912639",
      "l1GasPrice": "0xeb3c29159",
      "l1GasUsed": "0x640"
    },
    {
      "status": "0x1",
      "cumulativeGasUsed": "0xb0fd1",
      "logs": [],
      "logsBloom": "0x00000000000000000000000000000000000000000000000000000000000000000000000000000000000000000000000000000000000000000000000000000000000000000000000000000000000000000000000000000000000000000000000000000000000000000000000000000000000000000000000000000000000000000000000000000000000000000000000000000000000000000000000000000000000000000000000000000000000000000000000000000000000000000000000000000000000000000000000000000000000000000000000000000000000000000000000000000000000000000000000000000000000000000000000000000000",
      "type": "0x2",
      "transactionHash": "0x280f82d9761ce444880555e1315bd6d65b959ee290c6d04f9a01c99f964352a3",
      "transactionIndex": "0x4",
      "blockHash": "0xf34547acfdf853e5b228ff2ffcfffe7245bd0fbe1586934e1dac615653bc2519",
      "blockNumber": "0x1016274",
      "gasUsed": "0x10cd2",
      "effectiveGasPrice": "0xf6a77",
      "from": "0x12b2434a1022d5787bf06056f2885fe35de62bf8",
      "to": "0x23960ee69b04e9dc87ae3d5e1e7799c6028edc16",
      "contractAddress": null,
      "l1BaseFeeScalar": "0x1db0",
      "l1BlobBaseFee": "0xd0c6b252ef",
      "l1BlobBaseFeeScalar": "0xd2730",
      "l1Fee": "0x46ff48912639",
      "l1GasPrice": "0xeb3c29159",
      "l1GasUsed": "0x640"
    }
  ],
  "libraries": [],
  "pending": [],
  "returns": {},
  "timestamp": 1725538459,
  "chain": 11155420,
  "commit": "09f4066"
}