{
  "transactions": [
    {
      "hash": "0x4813663d48003b7ce8b3254ef8bc4a79b79de1930758deda50de69903dcf3c28",
      "transactionType": "CALL",
      "contractName": null,
      "contractAddress": "0xe212e41b3c12d9ef789076e0d9edcc12659a01ad",
      "function": "setPeer(uint32,bytes32)",
      "arguments": [
        "40245",
        "0x000000000000000000000000c0ce627692bc7a9849f8507e6df3d32360c2551f"
      ],
      "transaction": {
        "from": "0x12b2434a1022d5787bf06056f2885fe35de62bf8",
        "to": "0xe212e41b3c12d9ef789076e0d9edcc12659a01ad",
        "gas": "0x10008",
        "value": "0x0",
        "input": "0x3400288b0000000000000000000000000000000000000000000000000000000000009d35000000000000000000000000c0ce627692bc7a9849f8507e6df3d32360c2551f",
        "nonce": "0x60",
        "chainId": "0xaa37dc"
      },
      "additionalContracts": [],
      "isFixedGasLimit": false
    },
    {
      "hash": "0x7c7f50831feda5d87623c80a17bc89bd91229aae4f38e517a68f4cf1f8f6daf3",
      "transactionType": "CALL",
      "contractName": null,
      "contractAddress": "0xe212e41b3c12d9ef789076e0d9edcc12659a01ad",
      "function": "setAdapterAddresses(address[])",
      "arguments": [
        "[0xD1AB93CB9EDCf68e33d541F5A5D929657B473fe0]"
      ],
      "transaction": {
        "from": "0x12b2434a1022d5787bf06056f2885fe35de62bf8",
        "to": "0xe212e41b3c12d9ef789076e0d9edcc12659a01ad",
        "gas": "0x17cbc",
        "value": "0x0",
        "input": "0xa324b2f700000000000000000000000000000000000000000000000000000000000000200000000000000000000000000000000000000000000000000000000000000001000000000000000000000000d1ab93cb9edcf68e33d541f5a5d929657b473fe0",
        "nonce": "0x61",
        "chainId": "0xaa37dc"
      },
      "additionalContracts": [],
      "isFixedGasLimit": false
    }
  ],
  "receipts": [
    {
      "status": "0x1",
      "cumulativeGasUsed": "0x2bf065",
      "logs": [
        {
          "address": "0xe212e41b3c12d9ef789076e0d9edcc12659a01ad",
          "topics": [
            "0x238399d427b947898edb290f5ff0f9109849b1c3ba196a42e35f00c50a54b98b"
          ],
          "data": "0x0000000000000000000000000000000000000000000000000000000000009d35000000000000000000000000c0ce627692bc7a9849f8507e6df3d32360c2551f",
          "blockHash": "0xdd1b143dba9831fdd16dbb344f7645ef37bd48dbb4994e4cdd7b642295e46027",
          "blockNumber": "0x10214e2",
          "transactionHash": "0x4813663d48003b7ce8b3254ef8bc4a79b79de1930758deda50de69903dcf3c28",
          "transactionIndex": "0x7",
          "logIndex": "0x31",
          "removed": false
        }
      ],
      "logsBloom": "0x00000000000000000000000000000000000000000000000000000000000000000000000000000000000000000000000000000000000000000800000000000000000000000000000000000000000000000000000008000000000000000000000000000000000000000000000000000000000000000000000000000000000000000400000000000000000000000000000000000000000000000000000000000000000000000000000000000000000000000000000000000000000002000000000000000000000000000000000000000000000000000000000000040000000000000000000000000100000000000000000000000000000000000000000000000000",
      "type": "0x2",
      "transactionHash": "0x4813663d48003b7ce8b3254ef8bc4a79b79de1930758deda50de69903dcf3c28",
      "transactionIndex": "0x7",
      "blockHash": "0xdd1b143dba9831fdd16dbb344f7645ef37bd48dbb4994e4cdd7b642295e46027",
      "blockNumber": "0x10214e2",
      "gasUsed": "0xb95e",
      "effectiveGasPrice": "0xf6a9b",
      "from": "0x12b2434a1022d5787bf06056f2885fe35de62bf8",
      "to": "0xe212e41b3c12d9ef789076e0d9edcc12659a01ad",
      "contractAddress": null,
      "l1BaseFeeScalar": "0x1db0",
      "l1BlobBaseFee": "0x36f2b31b51",
      "l1BlobBaseFeeScalar": "0xd2730",
      "l1Fee": "0x12aa2ccb9671",
      "l1GasPrice": "0x36cea3ef1",
      "l1GasUsed": "0x640"
    },
    {
      "status": "0x1",
      "cumulativeGasUsed": "0x2d040b",
      "logs": [
        {
          "address": "0xe212e41b3c12d9ef789076e0d9edcc12659a01ad",
          "topics": [
            "0xe3b79b0152415c3a6a3b843b01948e52a65cb32668a2bbccef929ed5956669a5"
          ],
          "data": "0x00000000000000000000000000000000000000000000000000000000000000200000000000000000000000000000000000000000000000000000000000000001000000000000000000000000d1ab93cb9edcf68e33d541f5a5d929657b473fe0",
          "blockHash": "0xdd1b143dba9831fdd16dbb344f7645ef37bd48dbb4994e4cdd7b642295e46027",
          "blockNumber": "0x10214e2",
          "transactionHash": "0x7c7f50831feda5d87623c80a17bc89bd91229aae4f38e517a68f4cf1f8f6daf3",
          "transactionIndex": "0x8",
          "logIndex": "0x32",
          "removed": false
        }
      ],
      "logsBloom": "0x00000000000000000000000000000000000000000000000000000000000000000000000000000000008000000000000000000000000000000000000000000000000000000000000000000000000000000000000008000000000000000000000000000000000000000000000000000000000000000000000000000000000000000400001000001000000000000000000000000000000000000000000000000000000000000000000000000000000000000000000000000000000000000000000000000000000000000000000000000000000000000000000000000000000000000000000000000100000000000000000000000000000000000000000000000000",
      "type": "0x2",
      "transactionHash": "0x7c7f50831feda5d87623c80a17bc89bd91229aae4f38e517a68f4cf1f8f6daf3",
      "transactionIndex": "0x8",
      "blockHash": "0xdd1b143dba9831fdd16dbb344f7645ef37bd48dbb4994e4cdd7b642295e46027",
      "blockNumber": "0x10214e2",
      "gasUsed": "0x113a6",
      "effectiveGasPrice": "0xf6a9b",
      "from": "0x12b2434a1022d5787bf06056f2885fe35de62bf8",
      "to": "0xe212e41b3c12d9ef789076e0d9edcc12659a01ad",
      "contractAddress": null,
      "l1BaseFeeScalar": "0x1db0",
      "l1BlobBaseFee": "0x36f2b31b51",
      "l1BlobBaseFeeScalar": "0xd2730",
      "l1Fee": "0x12aa2ccb9671",
      "l1GasPrice": "0x36cea3ef1",
      "l1GasUsed": "0x640"
    }
  ],
  "libraries": [],
  "pending": [],
  "returns": {},
  "timestamp": 1725629815,
  "chain": 11155420,
  "commit": "dc78ae4"
}