{
  "transactions": [
    {
      "hash": "0x0b5bc293b30bae39fb79d7920df8268b99f0aba790f92ff45b5228aa755857db",
      "transactionType": "CALL",
      "contractName": null,
      "contractAddress": "0xc20e195e4e6901b363b3efdeca0c0a9b3db9f736",
      "function": "setPeer(uint32,bytes32)",
      "arguments": [
        "40245",
        "0x000000000000000000000000e6eacdcdec037b404a4c0211924b0fcfc4ca23aa"
      ],
      "transaction": {
        "from": "0xb0efd2b19a5698a9c830548ac22708a28c9d4552",
        "to": "0xc20e195e4e6901b363b3efdeca0c0a9b3db9f736",
        "gas": "0x10008",
        "value": "0x0",
        "input": "0x3400288b0000000000000000000000000000000000000000000000000000000000009d35000000000000000000000000e6eacdcdec037b404a4c0211924b0fcfc4ca23aa",
        "nonce": "0x20",
        "chainId": "0xaa37dc"
      },
      "additionalContracts": [],
      "isFixedGasLimit": false
    },
    {
      "hash": "0xd32f4904d5c1393f0d33f5a06cb85f4d4b44f4537084891159351be9910936ea",
      "transactionType": "CALL",
      "contractName": null,
      "contractAddress": "0xc20e195e4e6901b363b3efdeca0c0a9b3db9f736",
      "function": "setAdapterAddresses(address[])",
      "arguments": [
        "[0x37AC77eD4c1BfE035FbF626A97e46CddD93DacEc]"
      ],
      "transaction": {
        "from": "0xb0efd2b19a5698a9c830548ac22708a28c9d4552",
        "to": "0xc20e195e4e6901b363b3efdeca0c0a9b3db9f736",
        "gas": "0x188e1",
        "value": "0x0",
        "input": "0xa324b2f70000000000000000000000000000000000000000000000000000000000000020000000000000000000000000000000000000000000000000000000000000000100000000000000000000000037ac77ed4c1bfe035fbf626a97e46cddd93dacec",
        "nonce": "0x21",
        "chainId": "0xaa37dc"
      },
      "additionalContracts": [],
      "isFixedGasLimit": false
    }
  ],
  "receipts": [
    {
      "status": "0x1",
      "cumulativeGasUsed": "0x239724",
      "logs": [
        {
          "address": "0xc20e195e4e6901b363b3efdeca0c0a9b3db9f736",
          "topics": [
            "0x238399d427b947898edb290f5ff0f9109849b1c3ba196a42e35f00c50a54b98b"
          ],
          "data": "0x0000000000000000000000000000000000000000000000000000000000009d35000000000000000000000000e6eacdcdec037b404a4c0211924b0fcfc4ca23aa",
          "blockHash": "0x02bb20e4b292956806583d3a43fe4dce4dda29a0510fe82c1d344abe1145e664",
          "blockNumber": "0x1013870",
          "transactionHash": "0x0b5bc293b30bae39fb79d7920df8268b99f0aba790f92ff45b5228aa755857db",
          "transactionIndex": "0x5",
          "logIndex": "0x29",
          "removed": false
        }
      ],
      "logsBloom": "0x00000000000000000000000000000000000000000000000000000000010000000000000000000000000000000000000000000000000000000800000000000000000000000000000000000000200000000000000000000000000000000000000000000000000000000000000000000000000000000000000000000000000000000000000000000000000000000000000000000000000000000000000000000000000000000000000000000000000000000000000000000000000002000000000000000000000000000000000000000000000000000000000000040000000000000000000000000000000000000000080000000000000000000000000000000000",
      "type": "0x2",
      "transactionHash": "0x0b5bc293b30bae39fb79d7920df8268b99f0aba790f92ff45b5228aa755857db",
      "transactionIndex": "0x5",
      "blockHash": "0x02bb20e4b292956806583d3a43fe4dce4dda29a0510fe82c1d344abe1145e664",
      "blockNumber": "0x1013870",
      "gasUsed": "0xb95e",
      "effectiveGasPrice": "0xf6a86",
      "from": "0xb0efd2b19a5698a9c830548ac22708a28c9d4552",
      "to": "0xc20e195e4e6901b363b3efdeca0c0a9b3db9f736",
      "contractAddress": null,
      "l1BaseFeeScalar": "0x1db0",
      "l1BlobBaseFee": "0x7d51e334d4",
      "l1BlobBaseFeeScalar": "0xd2730",
      "l1Fee": "0x2a91a3f75bad",
      "l1GasPrice": "0x7d16b66f2",
      "l1GasUsed": "0x640"
    },
    {
      "status": "0x1",
      "cumulativeGasUsed": "0x24a3c7",
      "logs": [],
      "logsBloom": "0x00000000000000000000000000000000000000000000000000000000000000000000000000000000000000000000000000000000000000000000000000000000000000000000000000000000000000000000000000000000000000000000000000000000000000000000000000000000000000000000000000000000000000000000000000000000000000000000000000000000000000000000000000000000000000000000000000000000000000000000000000000000000000000000000000000000000000000000000000000000000000000000000000000000000000000000000000000000000000000000000000000000000000000000000000000000",
      "type": "0x2",
      "transactionHash": "0xd32f4904d5c1393f0d33f5a06cb85f4d4b44f4537084891159351be9910936ea",
      "transactionIndex": "0x6",
      "blockHash": "0x02bb20e4b292956806583d3a43fe4dce4dda29a0510fe82c1d344abe1145e664",
      "blockNumber": "0x1013870",
      "gasUsed": "0x10ca3",
      "effectiveGasPrice": "0xf6a86",
      "from": "0xb0efd2b19a5698a9c830548ac22708a28c9d4552",
      "to": "0xc20e195e4e6901b363b3efdeca0c0a9b3db9f736",
      "contractAddress": null,
      "l1BaseFeeScalar": "0x1db0",
      "l1BlobBaseFee": "0x7d51e334d4",
      "l1BlobBaseFeeScalar": "0xd2730",
      "l1Fee": "0x2a91a3f75bad",
      "l1GasPrice": "0x7d16b66f2",
      "l1GasUsed": "0x640"
    }
  ],
  "libraries": [],
  "pending": [],
  "returns": {},
  "timestamp": 1725516945,
  "chain": 11155420,
  "commit": "8370d5b"
}