{
  "transactions": [
    {
      "hash": "0xdcf0cc6cc160659a375c220349c0c33c26e1e9e099c69fe9e4e22f15c9f1336f",
      "transactionType": "CALL",
      "contractName": null,
      "contractAddress": "0x51aed1b696d630063f5f7c1733f3b429c92f9465",
      "function": "setPeer(uint32,bytes32)",
      "arguments": [
        "40245",
        "0x00000000000000000000000099375a951b5efd15e7af1436339e9d0d369ea00f"
      ],
      "transaction": {
        "from": "0x12b2434a1022d5787bf06056f2885fe35de62bf8",
        "to": "0x51aed1b696d630063f5f7c1733f3b429c92f9465",
        "gas": "0x10008",
        "value": "0x0",
        "input": "0x3400288b0000000000000000000000000000000000000000000000000000000000009d3500000000000000000000000099375a951b5efd15e7af1436339e9d0d369ea00f",
        "nonce": "0x89",
        "chainId": "0xaa37dc"
      },
      "additionalContracts": [],
      "isFixedGasLimit": false
    },
    {
      "hash": "0x327ab1a39e97409bc957cba4f563f31ab8b9c0399142e55c3f0357847ca3804f",
      "transactionType": "CALL",
      "contractName": null,
      "contractAddress": "0x51aed1b696d630063f5f7c1733f3b429c92f9465",
      "function": "setAdapterAddresses(address[])",
      "arguments": [
        "[0xeCfcaeE7DCE18423baEF31b0FdFe90A881E08777]"
      ],
      "transaction": {
        "from": "0x12b2434a1022d5787bf06056f2885fe35de62bf8",
        "to": "0x51aed1b696d630063f5f7c1733f3b429c92f9465",
        "gas": "0x17cbc",
        "value": "0x0",
        "input": "0xa324b2f700000000000000000000000000000000000000000000000000000000000000200000000000000000000000000000000000000000000000000000000000000001000000000000000000000000ecfcaee7dce18423baef31b0fdfe90a881e08777",
        "nonce": "0x8a",
        "chainId": "0xaa37dc"
      },
      "additionalContracts": [],
      "isFixedGasLimit": false
    }
  ],
  "receipts": [
    {
      "status": "0x1",
      "cumulativeGasUsed": "0x3c6862",
      "logs": [
        {
          "address": "0x51aed1b696d630063f5f7c1733f3b429c92f9465",
          "topics": [
            "0x238399d427b947898edb290f5ff0f9109849b1c3ba196a42e35f00c50a54b98b"
          ],
          "data": "0x0000000000000000000000000000000000000000000000000000000000009d3500000000000000000000000099375a951b5efd15e7af1436339e9d0d369ea00f",
          "blockHash": "0x96e1fea93302e37674889443fa94681096de3c75e941d6de6934c21cc1b08771",
          "blockNumber": "0x1022983",
          "transactionHash": "0xdcf0cc6cc160659a375c220349c0c33c26e1e9e099c69fe9e4e22f15c9f1336f",
          "transactionIndex": "0x8",
          "logIndex": "0x28",
          "removed": false
        }
      ],
      "logsBloom": "0x00000000000000000000000000000000000000000000000000000000000000000000000000000000000000000000000000000000000000000800000000000000000000000000000000000000000000000000000000000000000000040000000000000000000000000000000000000000000000000000000000000000000000000000000000000000000000000000000000000000000000000000000000000000000000000000000000000000000000000000000000800000000002000000000000000000000000000000000000000000000000000000000000040000000000000000000000000000000000002000000000000000000000000000000000000000",
      "type": "0x2",
      "transactionHash": "0xdcf0cc6cc160659a375c220349c0c33c26e1e9e099c69fe9e4e22f15c9f1336f",
      "transactionIndex": "0x8",
      "blockHash": "0x96e1fea93302e37674889443fa94681096de3c75e941d6de6934c21cc1b08771",
      "blockNumber": "0x1022983",
      "gasUsed": "0xb95e",
      "effectiveGasPrice": "0xf56d2",
      "from": "0x12b2434a1022d5787bf06056f2885fe35de62bf8",
      "to": "0x51aed1b696d630063f5f7c1733f3b429c92f9465",
      "contractAddress": null,
      "l1BaseFeeScalar": "0x1db0",
      "l1BlobBaseFee": "0xb9942c91c7",
      "l1BlobBaseFeeScalar": "0xd2730",
      "l1Fee": "0x3ecc369ccf18",
      "l1GasPrice": "0x685e6d87c",
      "l1GasUsed": "0x640"
    },
    {
      "status": "0x1",
      "cumulativeGasUsed": "0x3d7c08",
      "logs": [
        {
          "address": "0x51aed1b696d630063f5f7c1733f3b429c92f9465",
          "topics": [
            "0xe3b79b0152415c3a6a3b843b01948e52a65cb32668a2bbccef929ed5956669a5"
          ],
          "data": "0x00000000000000000000000000000000000000000000000000000000000000200000000000000000000000000000000000000000000000000000000000000001000000000000000000000000ecfcaee7dce18423baef31b0fdfe90a881e08777",
          "blockHash": "0x96e1fea93302e37674889443fa94681096de3c75e941d6de6934c21cc1b08771",
          "blockNumber": "0x1022983",
          "transactionHash": "0x327ab1a39e97409bc957cba4f563f31ab8b9c0399142e55c3f0357847ca3804f",
          "transactionIndex": "0x9",
          "logIndex": "0x29",
          "removed": false
        }
      ],
      "logsBloom": "0x00000000000000000000000000000000000000000000000000000000000000000000000000000000008000000000000000000000000000000000000000000000000000000000000000000000000000000000000000000000000000040000000000000000000000000000000000000000000000000000000000000000000000000000001000001000000000000000000000000000000000000000000000000000000000000000000000000000000000000000000000800000000000000000000000000000000000000000000000000000000000000000000000000000000000000000000000000000000000002000000000000000000000000000000000000000",
      "type": "0x2",
      "transactionHash": "0x327ab1a39e97409bc957cba4f563f31ab8b9c0399142e55c3f0357847ca3804f",
      "transactionIndex": "0x9",
      "blockHash": "0x96e1fea93302e37674889443fa94681096de3c75e941d6de6934c21cc1b08771",
      "blockNumber": "0x1022983",
      "gasUsed": "0x113a6",
      "effectiveGasPrice": "0xf56d2",
      "from": "0x12b2434a1022d5787bf06056f2885fe35de62bf8",
      "to": "0x51aed1b696d630063f5f7c1733f3b429c92f9465",
      "contractAddress": null,
      "l1BaseFeeScalar": "0x1db0",
      "l1BlobBaseFee": "0xb9942c91c7",
      "l1BlobBaseFeeScalar": "0xd2730",
      "l1Fee": "0x3ecc369ccf18",
      "l1GasPrice": "0x685e6d87c",
      "l1GasUsed": "0x640"
    }
  ],
  "libraries": [],
  "pending": [],
  "returns": {},
  "timestamp": 1725640377,
  "chain": 11155420,
  "commit": "dc78ae4"
}