{
  "transactions": [
    {
      "hash": "0x96a794aaa3165bbea2226116c36110eeb338303992e4e7c3fc7ac6d54993846d",
      "transactionType": "CALL",
      "contractName": null,
      "contractAddress": "0x5704084a6f0dab197fbddc8ae7637846419b3dce",
      "function": "setPeer(uint32,bytes32)",
      "arguments": [
        "40245",
        "0x000000000000000000000000552d6e78c0491667403d41e2bc153d488859ab76"
      ],
      "transaction": {
        "from": "0x12b2434a1022d5787bf06056f2885fe35de62bf8",
        "to": "0x5704084a6f0dab197fbddc8ae7637846419b3dce",
        "gas": "0x10008",
        "value": "0x0",
        "input": "0x3400288b0000000000000000000000000000000000000000000000000000000000009d35000000000000000000000000552d6e78c0491667403d41e2bc153d488859ab76",
        "nonce": "0x34",
        "chainId": "0xaa37dc"
      },
      "additionalContracts": [],
      "isFixedGasLimit": false
    },
    {
      "hash": "0xfb5fe93216f38fe8eccdaa51dab337fe4f0e4238b8bb88237cebe0375dcf7ae8",
      "transactionType": "CALL",
      "contractName": null,
      "contractAddress": "0x5704084a6f0dab197fbddc8ae7637846419b3dce",
      "function": "setAdapterAddresses(address[])",
      "arguments": [
        "[0x8e00aB2AAf2b77E4D5249A16ed532E3622196c57]"
      ],
      "transaction": {
        "from": "0x12b2434a1022d5787bf06056f2885fe35de62bf8",
        "to": "0x5704084a6f0dab197fbddc8ae7637846419b3dce",
        "gas": "0x1890f",
        "value": "0x0",
        "input": "0xa324b2f7000000000000000000000000000000000000000000000000000000000000002000000000000000000000000000000000000000000000000000000000000000010000000000000000000000008e00ab2aaf2b77e4d5249a16ed532e3622196c57",
        "nonce": "0x35",
        "chainId": "0xaa37dc"
      },
      "additionalContracts": [],
      "isFixedGasLimit": false
    }
  ],
  "receipts": [
    {
      "status": "0x1",
      "cumulativeGasUsed": "0x9ece1",
      "logs": [
        {
          "address": "0x5704084a6f0dab197fbddc8ae7637846419b3dce",
          "topics": [
            "0x238399d427b947898edb290f5ff0f9109849b1c3ba196a42e35f00c50a54b98b"
          ],
          "data": "0x0000000000000000000000000000000000000000000000000000000000009d35000000000000000000000000552d6e78c0491667403d41e2bc153d488859ab76",
          "blockHash": "0xd3654c1725c50a438e7cd1b3a722e17328bf79186f66f666780e34cd0c1cf608",
          "blockNumber": "0x101656c",
          "transactionHash": "0x96a794aaa3165bbea2226116c36110eeb338303992e4e7c3fc7ac6d54993846d",
          "transactionIndex": "0x3",
          "logIndex": "0xc",
          "removed": false
        }
      ],
      "logsBloom": "0x00000000000000000000000000000000000000000000000000000000000000000000000000000000000000000000000000000000000000000800000000000000000000000000000000000000000000000000000000000000000000000000000000000000000000000000000000000000000000000000000000000000000000000000000000000000000000000000000000000000000000000000000000000000000000000000000000000000000000000000000000000000020002000000000000000000000000000000000000000000000000000000000000040000000000000200000000000000000000000000020000000000000000000000000000000000",
      "type": "0x2",
      "transactionHash": "0x96a794aaa3165bbea2226116c36110eeb338303992e4e7c3fc7ac6d54993846d",
      "transactionIndex": "0x3",
      "blockHash": "0xd3654c1725c50a438e7cd1b3a722e17328bf79186f66f666780e34cd0c1cf608",
      "blockNumber": "0x101656c",
      "gasUsed": "0xb95e",
      "effectiveGasPrice": "0xf6a67",
      "from": "0x12b2434a1022d5787bf06056f2885fe35de62bf8",
      "to": "0x5704084a6f0dab197fbddc8ae7637846419b3dce",
      "contractAddress": null,
      "l1BaseFeeScalar": "0x1db0",
      "l1BlobBaseFee": "0x1dc27c01b6d",
      "l1BlobBaseFeeScalar": "0xd2730",
      "l1Fee": "0xa1611ddabb41",
      "l1GasPrice": "0x16154da63f",
      "l1GasUsed": "0x640"
    },
    {
      "status": "0x1",
      "cumulativeGasUsed": "0xaf9a4",
      "logs": [],
      "logsBloom": "0x00000000000000000000000000000000000000000000000000000000000000000000000000000000000000000000000000000000000000000000000000000000000000000000000000000000000000000000000000000000000000000000000000000000000000000000000000000000000000000000000000000000000000000000000000000000000000000000000000000000000000000000000000000000000000000000000000000000000000000000000000000000000000000000000000000000000000000000000000000000000000000000000000000000000000000000000000000000000000000000000000000000000000000000000000000000",
      "type": "0x2",
      "transactionHash": "0xfb5fe93216f38fe8eccdaa51dab337fe4f0e4238b8bb88237cebe0375dcf7ae8",
      "transactionIndex": "0x4",
      "blockHash": "0xd3654c1725c50a438e7cd1b3a722e17328bf79186f66f666780e34cd0c1cf608",
      "blockNumber": "0x101656c",
      "gasUsed": "0x10cc3",
      "effectiveGasPrice": "0xf6a67",
      "from": "0x12b2434a1022d5787bf06056f2885fe35de62bf8",
      "to": "0x5704084a6f0dab197fbddc8ae7637846419b3dce",
      "contractAddress": null,
      "l1BaseFeeScalar": "0x1db0",
      "l1BlobBaseFee": "0x1dc27c01b6d",
      "l1BlobBaseFeeScalar": "0xd2730",
      "l1Fee": "0xa1611ddabb41",
      "l1GasPrice": "0x16154da63f",
      "l1GasUsed": "0x640"
    }
  ],
  "libraries": [],
  "pending": [],
  "returns": {},
  "timestamp": 1725539979,
  "chain": 11155420,
  "commit": "c5b011b"
}