{
  "transactions": [
    {
      "hash": "0x1873f095e35ec88e47f6405af20f195ff2535fc15b83e4365c0cdb648dad51bc",
      "transactionType": "CALL",
      "contractName": null,
      "contractAddress": "0x04699fb77e5a5bdeec4374e6589b348b1d7ea90e",
      "function": "setPeer(uint32,bytes32)",
      "arguments": [
        "40245",
        "0x0000000000000000000000000742e003fbe108fd92f7b089cdce906a9a143e2c"
      ],
      "transaction": {
        "from": "0x12b2434a1022d5787bf06056f2885fe35de62bf8",
        "to": "0x04699fb77e5a5bdeec4374e6589b348b1d7ea90e",
        "gas": "0x10008",
        "value": "0x0",
        "input": "0x3400288b0000000000000000000000000000000000000000000000000000000000009d350000000000000000000000000742e003fbe108fd92f7b089cdce906a9a143e2c",
        "nonce": "0xac",
        "chainId": "0xaa37dc"
      },
      "additionalContracts": [],
      "isFixedGasLimit": false
    },
    {
      "hash": "0x6765c8859eca53bc42bc0d733ea002879a3a79d5126085dc8567172313fbf4fc",
      "transactionType": "CALL",
      "contractName": null,
      "contractAddress": "0x04699fb77e5a5bdeec4374e6589b348b1d7ea90e",
      "function": "setAdapterAddresses(address[])",
      "arguments": [
        "[0xc121eDef7bE2Bc9ea7E8Bc6D697bD6AF3730A266]"
      ],
      "transaction": {
        "from": "0x12b2434a1022d5787bf06056f2885fe35de62bf8",
        "to": "0x04699fb77e5a5bdeec4374e6589b348b1d7ea90e",
        "gas": "0x17cbc",
        "value": "0x0",
        "input": "0xa324b2f700000000000000000000000000000000000000000000000000000000000000200000000000000000000000000000000000000000000000000000000000000001000000000000000000000000c121edef7be2bc9ea7e8bc6d697bd6af3730a266",
        "nonce": "0xad",
        "chainId": "0xaa37dc"
      },
      "additionalContracts": [],
      "isFixedGasLimit": false
    }
  ],
  "receipts": [
    {
      "status": "0x1",
      "cumulativeGasUsed": "0x239e5b",
      "logs": [
        {
          "address": "0x04699fb77e5a5bdeec4374e6589b348b1d7ea90e",
          "topics": [
            "0x238399d427b947898edb290f5ff0f9109849b1c3ba196a42e35f00c50a54b98b"
          ],
          "data": "0x0000000000000000000000000000000000000000000000000000000000009d350000000000000000000000000742e003fbe108fd92f7b089cdce906a9a143e2c",
          "blockHash": "0x71a032d7ad7a446229b9101bf5d6f95bc9913923eb2ec2774fd34f478c397cdb",
          "blockNumber": "0x1029681",
          "transactionHash": "0x1873f095e35ec88e47f6405af20f195ff2535fc15b83e4365c0cdb648dad51bc",
          "transactionIndex": "0x6",
          "logIndex": "0x2f",
          "removed": false
        }
      ],
      "logsBloom": "0x00000000000000000000000000000000000000000000000000000000000000000000000000000000000000000000000000000000000000000800000000000000000000000000000000000000000000000100000000000000000000000000000000000000000000000000000000000000000000000000000000000000000000000000000000000000000000000000000000000000000010000000000000000000000000000000000000000000000000000000000000000000000002000000000000000000000000000000000000000000000000000000000000040000000000000000020000000000000000000000000000000000000000000000000000000000",
      "type": "0x2",
      "transactionHash": "0x1873f095e35ec88e47f6405af20f195ff2535fc15b83e4365c0cdb648dad51bc",
      "transactionIndex": "0x6",
      "blockHash": "0x71a032d7ad7a446229b9101bf5d6f95bc9913923eb2ec2774fd34f478c397cdb",
      "blockNumber": "0x1029681",
      "gasUsed": "0xb95e",
      "effectiveGasPrice": "0xf6b3c",
      "from": "0x12b2434a1022d5787bf06056f2885fe35de62bf8",
      "to": "0x04699fb77e5a5bdeec4374e6589b348b1d7ea90e",
      "contractAddress": null,
      "l1BaseFeeScalar": "0x1db0",
      "l1BlobBaseFee": "0xfa4a801e5",
      "l1BlobBaseFeeScalar": "0xd2730",
      "l1Fee": "0x556abf2b5d2",
      "l1GasPrice": "0x17fc3b91a",
      "l1GasUsed": "0x640"
    },
    {
      "status": "0x1",
      "cumulativeGasUsed": "0x24b201",
      "logs": [
        {
          "address": "0x04699fb77e5a5bdeec4374e6589b348b1d7ea90e",
          "topics": [
            "0xe3b79b0152415c3a6a3b843b01948e52a65cb32668a2bbccef929ed5956669a5"
          ],
          "data": "0x00000000000000000000000000000000000000000000000000000000000000200000000000000000000000000000000000000000000000000000000000000001000000000000000000000000c121edef7be2bc9ea7e8bc6d697bd6af3730a266",
          "blockHash": "0x71a032d7ad7a446229b9101bf5d6f95bc9913923eb2ec2774fd34f478c397cdb",
          "blockNumber": "0x1029681",
          "transactionHash": "0x6765c8859eca53bc42bc0d733ea002879a3a79d5126085dc8567172313fbf4fc",
          "transactionIndex": "0x7",
          "logIndex": "0x30",
          "removed": false
        }
      ],
      "logsBloom": "0x00000000000000000000000000000000000000000000000000000000000000000000000000000000008000000000000000000000000000000000000000000000000000000000000000000000000000000100000000000000000000000000000000000000000000000000000000000000000000000000000000000000000000000000001000001000000000000000000000000000000010000000000000000000000000000000000000000000000000000000000000000000000000000000000000000000000000000000000000000000000000000000000000000000000000000000020000000000000000000000000000000000000000000000000000000000",
      "type": "0x2",
      "transactionHash": "0x6765c8859eca53bc42bc0d733ea002879a3a79d5126085dc8567172313fbf4fc",
      "transactionIndex": "0x7",
      "blockHash": "0x71a032d7ad7a446229b9101bf5d6f95bc9913923eb2ec2774fd34f478c397cdb",
      "blockNumber": "0x1029681",
      "gasUsed": "0x113a6",
      "effectiveGasPrice": "0xf6b3c",
      "from": "0x12b2434a1022d5787bf06056f2885fe35de62bf8",
      "to": "0x04699fb77e5a5bdeec4374e6589b348b1d7ea90e",
      "contractAddress": null,
      "l1BaseFeeScalar": "0x1db0",
      "l1BlobBaseFee": "0xfa4a801e5",
      "l1BlobBaseFeeScalar": "0xd2730",
      "l1Fee": "0x556abf2b5d2",
      "l1GasPrice": "0x17fc3b91a",
      "l1GasUsed": "0x640"
    }
  ],
  "libraries": [],
  "pending": [],
  "returns": {},
  "timestamp": 1725696180,
  "chain": 11155420,
  "commit": "c44a2e9"
}