{
  "transactions": [
    {
      "hash": "0xc5f3320518250670a06f305be185375d6fcf03eec13842eb847ef83925735bf1",
      "transactionType": "CALL",
      "contractName": null,
      "contractAddress": "0xa6047c2ac572c71824aff7e5faf2372cb0907045",
      "function": "setPeer(uint32,bytes32)",
      "arguments": [
        "40245",
        "0x0000000000000000000000004c43423d55dba56370448468096cea3b3cc2e88a"
      ],
      "transaction": {
        "from": "0x12b2434a1022d5787bf06056f2885fe35de62bf8",
        "to": "0xa6047c2ac572c71824aff7e5faf2372cb0907045",
        "gas": "0x10041",
        "value": "0x0",
        "input": "0x3400288b0000000000000000000000000000000000000000000000000000000000009d350000000000000000000000004c43423d55dba56370448468096cea3b3cc2e88a",
        "nonce": "0x15",
        "chainId": "0xaa37dc"
      },
      "additionalContracts": [],
      "isFixedGasLimit": false
    },
    {
      "hash": "0x5b2598d8c5318e17b8f2a8f00210ad974d3ba412a17d544a18c4c95b0b98f68a",
      "transactionType": "CALL",
      "contractName": null,
      "contractAddress": "0xa6047c2ac572c71824aff7e5faf2372cb0907045",
      "function": "setAdapterAddress(address)",
      "arguments": [
        "0x0000000000000000000000000000000000000000"
      ],
      "transaction": {
        "from": "0x12b2434a1022d5787bf06056f2885fe35de62bf8",
        "to": "0xa6047c2ac572c71824aff7e5faf2372cb0907045",
        "gas": "0x87d7",
        "value": "0x0",
        "input": "0x736eede50000000000000000000000000000000000000000000000000000000000000000",
        "nonce": "0x16",
        "chainId": "0xaa37dc"
      },
      "additionalContracts": [],
      "isFixedGasLimit": false
    }
  ],
  "receipts": [
    {
      "status": "0x1",
      "cumulativeGasUsed": "0x1909e",
      "logs": [
        {
          "address": "0xa6047c2ac572c71824aff7e5faf2372cb0907045",
          "topics": [
            "0x238399d427b947898edb290f5ff0f9109849b1c3ba196a42e35f00c50a54b98b"
          ],
          "data": "0x0000000000000000000000000000000000000000000000000000000000009d350000000000000000000000004c43423d55dba56370448468096cea3b3cc2e88a",
          "blockHash": "0x97a768768a799bf95c7dea252a6a407e51f55e954bad115ec112e713ab49a4c9",
          "blockNumber": "0x100ef4f",
          "transactionHash": "0xc5f3320518250670a06f305be185375d6fcf03eec13842eb847ef83925735bf1",
          "transactionIndex": "0x1",
          "logIndex": "0x0",
          "removed": false
        }
      ],
      "logsBloom": "0x00000000000000000000000000000000000000000000000000000000000000020000000000000000000000000000000000000000000000000800000000000000000000000000000000000000000000000000000000000000000000000000000000000000000000000000000000000000000000000000000000000000000000000000000000000000000000000000000000000000800000000000000000000000000000000000000000000000000000000000000000000000000002000000000000000000000000000000000000000000000000000000000000040200000000000000000000000000000000000000000000000000000000000000000000000000",
      "type": "0x2",
      "transactionHash": "0xc5f3320518250670a06f305be185375d6fcf03eec13842eb847ef83925735bf1",
      "transactionIndex": "0x1",
      "blockHash": "0x97a768768a799bf95c7dea252a6a407e51f55e954bad115ec112e713ab49a4c9",
      "blockNumber": "0x100ef4f",
      "gasUsed": "0xb987",
      "effectiveGasPrice": "0x302a5af",
      "from": "0x12b2434a1022d5787bf06056f2885fe35de62bf8",
      "to": "0xa6047c2ac572c71824aff7e5faf2372cb0907045",
      "contractAddress": null,
      "l1BaseFeeScalar": "0x1db0",
      "l1BlobBaseFee": "0x1c308568af",
      "l1BlobBaseFeeScalar": "0xd2730",
      "l1Fee": "0x98ff034a957",
      "l1GasPrice": "0x17af44dbd",
      "l1GasUsed": "0x640"
    },
    {
      "status": "0x1",
      "cumulativeGasUsed": "0x1ed80",
      "logs": [],
      "logsBloom": "0x00000000000000000000000000000000000000000000000000000000000000000000000000000000000000000000000000000000000000000000000000000000000000000000000000000000000000000000000000000000000000000000000000000000000000000000000000000000000000000000000000000000000000000000000000000000000000000000000000000000000000000000000000000000000000000000000000000000000000000000000000000000000000000000000000000000000000000000000000000000000000000000000000000000000000000000000000000000000000000000000000000000000000000000000000000000",
      "type": "0x2",
      "transactionHash": "0x5b2598d8c5318e17b8f2a8f00210ad974d3ba412a17d544a18c4c95b0b98f68a",
      "transactionIndex": "0x2",
      "blockHash": "0x97a768768a799bf95c7dea252a6a407e51f55e954bad115ec112e713ab49a4c9",
      "blockNumber": "0x100ef4f",
      "gasUsed": "0x5ce2",
      "effectiveGasPrice": "0x302a5af",
      "from": "0x12b2434a1022d5787bf06056f2885fe35de62bf8",
      "to": "0xa6047c2ac572c71824aff7e5faf2372cb0907045",
      "contractAddress": null,
      "l1BaseFeeScalar": "0x1db0",
      "l1BlobBaseFee": "0x1c308568af",
      "l1BlobBaseFeeScalar": "0xd2730",
      "l1Fee": "0x98ff034a957",
      "l1GasPrice": "0x17af44dbd",
      "l1GasUsed": "0x640"
    }
  ],
  "libraries": [],
  "pending": [],
  "returns": {},
  "timestamp": 1725479499,
  "chain": 11155420,
  "commit": "da4a4b9"
}