{
  "transactions": [
    {
      "hash": "0xf7e6c266f218f935e8358b84b985dec4701c55ca93458f543857ff2a14023cc7",
      "transactionType": "CALL",
      "contractName": null,
      "contractAddress": "0x6f5bdbe611ae3c84153bd9d2216ce076c2fbba18",
      "function": "setPeer(uint32,bytes32)",
      "arguments": [
        "40245",
        "0x0000000000000000000000000f2d5511be2a7c3c1a623212e6fb8ab91f1f79c4"
      ],
      "transaction": {
        "from": "0x12b2434a1022d5787bf06056f2885fe35de62bf8",
        "to": "0x6f5bdbe611ae3c84153bd9d2216ce076c2fbba18",
        "gas": "0x10041",
        "value": "0x0",
        "input": "0x3400288b0000000000000000000000000000000000000000000000000000000000009d350000000000000000000000000f2d5511be2a7c3c1a623212e6fb8ab91f1f79c4",
        "nonce": "0x12",
        "chainId": "0xaa37dc"
      },
      "additionalContracts": [],
      "isFixedGasLimit": false
    },
    {
      "hash": "0xfda2fcfdccf02a352734b0dd7066eaf35e5afd86b44702cf7f4f7cbfacc1093c",
      "transactionType": "CALL",
      "contractName": null,
      "contractAddress": "0x6f5bdbe611ae3c84153bd9d2216ce076c2fbba18",
      "function": "setAdapterAddress(address)",
      "arguments": [
        "0x0000000000000000000000000000000000000000"
      ],
      "transaction": {
        "from": "0x12b2434a1022d5787bf06056f2885fe35de62bf8",
        "to": "0x6f5bdbe611ae3c84153bd9d2216ce076c2fbba18",
        "gas": "0x87d7",
        "value": "0x0",
        "input": "0x736eede50000000000000000000000000000000000000000000000000000000000000000",
        "nonce": "0x13",
        "chainId": "0xaa37dc"
      },
      "additionalContracts": [],
      "isFixedGasLimit": false
    }
  ],
  "receipts": [
    {
      "status": "0x1",
      "cumulativeGasUsed": "0x1cfe31",
      "logs": [
        {
          "address": "0x6f5bdbe611ae3c84153bd9d2216ce076c2fbba18",
          "topics": [
            "0x238399d427b947898edb290f5ff0f9109849b1c3ba196a42e35f00c50a54b98b"
          ],
          "data": "0x0000000000000000000000000000000000000000000000000000000000009d350000000000000000000000000f2d5511be2a7c3c1a623212e6fb8ab91f1f79c4",
          "blockHash": "0xa00b13da556119b712c48502dd8476470439d51e7bb4227974d16e4bc508fbbc",
          "blockNumber": "0x100ed3e",
          "transactionHash": "0xf7e6c266f218f935e8358b84b985dec4701c55ca93458f543857ff2a14023cc7",
          "transactionIndex": "0x6",
          "logIndex": "0x1d",
          "removed": false
        }
      ],
      "logsBloom": "0x00000000000000000000000000000000000000000000000000000004000000000000000000000000000000000000000000000000000000000800000000000000000000000000000000000000000000000000000000000000000000000000000000000000000000000000000000000000000000000000000000000000000000000000000000000000000000000000000000000000000000000000000000000000000000000000000000000020000000000000000000000000000002000000000000000000000000000000000000000000000000000000000000040000000000000000000000000000020000000000000000000000000000000000000000000000",
      "type": "0x2",
      "transactionHash": "0xf7e6c266f218f935e8358b84b985dec4701c55ca93458f543857ff2a14023cc7",
      "transactionIndex": "0x6",
      "blockHash": "0xa00b13da556119b712c48502dd8476470439d51e7bb4227974d16e4bc508fbbc",
      "blockNumber": "0x100ed3e",
      "gasUsed": "0xb987",
      "effectiveGasPrice": "0xf6a5f",
      "from": "0x12b2434a1022d5787bf06056f2885fe35de62bf8",
      "to": "0x6f5bdbe611ae3c84153bd9d2216ce076c2fbba18",
      "contractAddress": null,
      "l1BaseFeeScalar": "0x1db0",
      "l1BlobBaseFee": "0x172a425933",
      "l1BlobBaseFeeScalar": "0xd2730",
      "l1Fee": "0x7e0774eb91d",
      "l1GasPrice": "0x19d66e103",
      "l1GasUsed": "0x640"
    },
    {
      "status": "0x1",
      "cumulativeGasUsed": "0x1d5b13",
      "logs": [],
      "logsBloom": "0x00000000000000000000000000000000000000000000000000000000000000000000000000000000000000000000000000000000000000000000000000000000000000000000000000000000000000000000000000000000000000000000000000000000000000000000000000000000000000000000000000000000000000000000000000000000000000000000000000000000000000000000000000000000000000000000000000000000000000000000000000000000000000000000000000000000000000000000000000000000000000000000000000000000000000000000000000000000000000000000000000000000000000000000000000000000",
      "type": "0x2",
      "transactionHash": "0xfda2fcfdccf02a352734b0dd7066eaf35e5afd86b44702cf7f4f7cbfacc1093c",
      "transactionIndex": "0x7",
      "blockHash": "0xa00b13da556119b712c48502dd8476470439d51e7bb4227974d16e4bc508fbbc",
      "blockNumber": "0x100ed3e",
      "gasUsed": "0x5ce2",
      "effectiveGasPrice": "0xf6a5f",
      "from": "0x12b2434a1022d5787bf06056f2885fe35de62bf8",
      "to": "0x6f5bdbe611ae3c84153bd9d2216ce076c2fbba18",
      "contractAddress": null,
      "l1BaseFeeScalar": "0x1db0",
      "l1BlobBaseFee": "0x172a425933",
      "l1BlobBaseFeeScalar": "0xd2730",
      "l1Fee": "0x7e0774eb91d",
      "l1GasPrice": "0x19d66e103",
      "l1GasUsed": "0x640"
    }
  ],
  "libraries": [],
  "pending": [],
  "returns": {},
  "timestamp": 1725478442,
  "chain": 11155420,
  "commit": "da4a4b9"
}