{
  "transactions": [
    {
      "hash": "0xbd1080e2746b350f881df034848a72ec2a56513dbce703fe41c3430a8498449b",
      "transactionType": "CALL",
      "contractName": null,
      "contractAddress": "0xa31cb24339725ccb5a50358ad77f66bdc02a613b",
      "function": "setPeer(uint32,bytes32)",
      "arguments": [
        "40245",
        "0x00000000000000000000000011a17e5d54a591465f925772868f3695422f7fea"
      ],
      "transaction": {
        "from": "0x12b2434a1022d5787bf06056f2885fe35de62bf8",
        "to": "0xa31cb24339725ccb5a50358ad77f66bdc02a613b",
        "gas": "0x10008",
        "value": "0x0",
        "input": "0x3400288b0000000000000000000000000000000000000000000000000000000000009d3500000000000000000000000011a17e5d54a591465f925772868f3695422f7fea",
        "nonce": "0xb8",
        "chainId": "0xaa37dc"
      },
      "additionalContracts": [],
      "isFixedGasLimit": false
    },
    {
      "hash": "0x2cf9a2106e9d9463dee3a4cca52fcadbe237221c7518949878739750c2226020",
      "transactionType": "CALL",
      "contractName": null,
      "contractAddress": "0xa31cb24339725ccb5a50358ad77f66bdc02a613b",
      "function": "setAdapterAddresses(address[])",
      "arguments": [
        "[0x09553565c26d6e5A27Db70692C0E1aFE2cA846E3]"
      ],
      "transaction": {
        "from": "0x12b2434a1022d5787bf06056f2885fe35de62bf8",
        "to": "0xa31cb24339725ccb5a50358ad77f66bdc02a613b",
        "gas": "0x17cbc",
        "value": "0x0",
        "input": "0xa324b2f70000000000000000000000000000000000000000000000000000000000000020000000000000000000000000000000000000000000000000000000000000000100000000000000000000000009553565c26d6e5a27db70692c0e1afe2ca846e3",
        "nonce": "0xb9",
        "chainId": "0xaa37dc"
      },
      "additionalContracts": [],
      "isFixedGasLimit": false
    }
  ],
  "receipts": [
    {
      "status": "0x1",
      "cumulativeGasUsed": "0x148cf3",
      "logs": [
        {
          "address": "0xa31cb24339725ccb5a50358ad77f66bdc02a613b",
          "topics": [
            "0x238399d427b947898edb290f5ff0f9109849b1c3ba196a42e35f00c50a54b98b"
          ],
          "data": "0x0000000000000000000000000000000000000000000000000000000000009d3500000000000000000000000011a17e5d54a591465f925772868f3695422f7fea",
          "blockHash": "0x11496c55bbf3573ac87850567527e3f80e0342a6b0b22399737aa800439b7bdd",
          "blockNumber": "0x102a64c",
          "transactionHash": "0xbd1080e2746b350f881df034848a72ec2a56513dbce703fe41c3430a8498449b",
          "transactionIndex": "0x4",
          "logIndex": "0x16",
          "removed": false
        }
      ],
      "logsBloom": "0x00000000000000000000000000000000000000000000000000000000000000000000000100000000000000000000000000000000000000000800000000000000000000000000000000000000000000000000000000000000000000000000000000000000000000000000000000000000000000000000000000000000000000000000000000000000000000000000000000000000000000400000000000000000000000000000000000000000000000000000000020000000000002000000000000000000000000000000000000000000000000000000000000040000000000000000000000000000000000000000000000000000000000000000000000000000",
      "type": "0x2",
      "transactionHash": "0xbd1080e2746b350f881df034848a72ec2a56513dbce703fe41c3430a8498449b",
      "transactionIndex": "0x4",
      "blockHash": "0x11496c55bbf3573ac87850567527e3f80e0342a6b0b22399737aa800439b7bdd",
      "blockNumber": "0x102a64c",
      "gasUsed": "0xb95e",
      "effectiveGasPrice": "0xf6ac0",
      "from": "0x12b2434a1022d5787bf06056f2885fe35de62bf8",
      "to": "0xa31cb24339725ccb5a50358ad77f66bdc02a613b",
      "contractAddress": null,
      "l1BaseFeeScalar": "0x1db0",
      "l1BlobBaseFee": "0x1d517c05bf",
      "l1BlobBaseFeeScalar": "0xd2730",
      "l1Fee": "0x9f2ccc99334",
      "l1GasPrice": "0x19bd82437",
      "l1GasUsed": "0x640"
    },
    {
      "status": "0x1",
      "cumulativeGasUsed": "0x15a099",
      "logs": [
        {
          "address": "0xa31cb24339725ccb5a50358ad77f66bdc02a613b",
          "topics": [
            "0xe3b79b0152415c3a6a3b843b01948e52a65cb32668a2bbccef929ed5956669a5"
          ],
          "data": "0x0000000000000000000000000000000000000000000000000000000000000020000000000000000000000000000000000000000000000000000000000000000100000000000000000000000009553565c26d6e5a27db70692c0e1afe2ca846e3",
          "blockHash": "0x11496c55bbf3573ac87850567527e3f80e0342a6b0b22399737aa800439b7bdd",
          "blockNumber": "0x102a64c",
          "transactionHash": "0x2cf9a2106e9d9463dee3a4cca52fcadbe237221c7518949878739750c2226020",
          "transactionIndex": "0x5",
          "logIndex": "0x17",
          "removed": false
        }
      ],
      "logsBloom": "0x00000000000000000000000000000000000000000000000000000000000000000000000100000000008000000000000000000000000000000000000000000000000000000000000000000000000000000000000000000000000000000000000000000000000000000000000000000000000000000000000000000000000000000000001000001000000000000000000000000000000000400000000000000000000000000000000000000000000000000000000020000000000000000000000000000000000000000000000000000000000000000000000000000000000000000000000000000000000000000000000000000000000000000000000000000000",
      "type": "0x2",
      "transactionHash": "0x2cf9a2106e9d9463dee3a4cca52fcadbe237221c7518949878739750c2226020",
      "transactionIndex": "0x5",
      "blockHash": "0x11496c55bbf3573ac87850567527e3f80e0342a6b0b22399737aa800439b7bdd",
      "blockNumber": "0x102a64c",
      "gasUsed": "0x113a6",
      "effectiveGasPrice": "0xf6ac0",
      "from": "0x12b2434a1022d5787bf06056f2885fe35de62bf8",
      "to": "0xa31cb24339725ccb5a50358ad77f66bdc02a613b",
      "contractAddress": null,
      "l1BaseFeeScalar": "0x1db0",
      "l1BlobBaseFee": "0x1d517c05bf",
      "l1BlobBaseFeeScalar": "0xd2730",
      "l1Fee": "0x9f2ccc99334",
      "l1GasPrice": "0x19bd82437",
      "l1GasUsed": "0x640"
    }
  ],
  "libraries": [],
  "pending": [],
  "returns": {},
  "timestamp": 1725704268,
  "chain": 11155420,
  "commit": "c44a2e9"
}