{
  "transactions": [
    {
      "hash": "0x83c09e9e671812468068114a0d3925e716746b1591e8ebfb25b600a73c53bf86",
      "transactionType": "CALL",
      "contractName": null,
      "contractAddress": "0xba9e54606a67147ad0fb9defbae2d461dde8acc5",
      "function": "setPeer(uint32,bytes32)",
      "arguments": [
        "40245",
        "0x000000000000000000000000675de6ca5a78b3c4acb19cd38e5a02a92da1b5f3"
      ],
      "transaction": {
        "from": "0x12b2434a1022d5787bf06056f2885fe35de62bf8",
        "to": "0xba9e54606a67147ad0fb9defbae2d461dde8acc5",
        "gas": "0x10014",
        "value": "0x0",
        "input": "0x3400288b0000000000000000000000000000000000000000000000000000000000009d35000000000000000000000000675de6ca5a78b3c4acb19cd38e5a02a92da1b5f3",
        "nonce": "0x2c",
        "chainId": "0xaa37dc"
      },
      "additionalContracts": [],
      "isFixedGasLimit": false
    },
    {
      "hash": "0x8f5b2cad7b197c6ce1504d2840d9ded9ed04cb5c85e07e9b5c71786224e02220",
      "transactionType": "CALL",
      "contractName": null,
      "contractAddress": "0xba9e54606a67147ad0fb9defbae2d461dde8acc5",
      "function": "setAdapterAddresses(address[])",
      "arguments": [
        "[0x4390bbad9F2cd8F4E28C8B48435c24023823d442]"
      ],
      "transaction": {
        "from": "0x12b2434a1022d5787bf06056f2885fe35de62bf8",
        "to": "0xba9e54606a67147ad0fb9defbae2d461dde8acc5",
        "gas": "0x1737e",
        "value": "0x0",
        "input": "0xa324b2f7000000000000000000000000000000000000000000000000000000000000002000000000000000000000000000000000000000000000000000000000000000010000000000000000000000004390bbad9f2cd8f4e28c8b48435c24023823d442",
        "nonce": "0x2d",
        "chainId": "0xaa37dc"
      },
      "additionalContracts": [],
      "isFixedGasLimit": false
    }
  ],
  "receipts": [
    {
      "status": "0x1",
      "cumulativeGasUsed": "0x73f23",
      "logs": [
        {
          "address": "0xba9e54606a67147ad0fb9defbae2d461dde8acc5",
          "topics": [
            "0x238399d427b947898edb290f5ff0f9109849b1c3ba196a42e35f00c50a54b98b"
          ],
          "data": "0x0000000000000000000000000000000000000000000000000000000000009d35000000000000000000000000675de6ca5a78b3c4acb19cd38e5a02a92da1b5f3",
          "blockHash": "0xd4a520e333e7517eb146ec0abbda247cb8806ae01cd5601e9995838d20c0f990",
          "blockNumber": "0x1015d51",
          "transactionHash": "0x83c09e9e671812468068114a0d3925e716746b1591e8ebfb25b600a73c53bf86",
          "transactionIndex": "0x3",
          "logIndex": "0x9",
          "removed": false
        }
      ],
      "logsBloom": "0x00000000000000000000000000000000000000000000000000000000000000000000000000000000000000000000000000000000000000000800000000000000000000000000000000000000000000000000000000000000000000000000000000000000000000000000000000000000000000000000000000000000000000000000000000000000000010010000000000000000000000000000000000000000000000000000000000000000000000000800000000000000000002000000000000000000000000000000000000000000000000000000000000040000000000000000000000000000000000000000000000000000000000000000000000000000",
      "type": "0x2",
      "transactionHash": "0x83c09e9e671812468068114a0d3925e716746b1591e8ebfb25b600a73c53bf86",
      "transactionIndex": "0x3",
      "blockHash": "0xd4a520e333e7517eb146ec0abbda247cb8806ae01cd5601e9995838d20c0f990",
      "blockNumber": "0x1015d51",
      "gasUsed": "0xb966",
      "effectiveGasPrice": "0xf6a79",
      "from": "0x12b2434a1022d5787bf06056f2885fe35de62bf8",
      "to": "0xba9e54606a67147ad0fb9defbae2d461dde8acc5",
      "contractAddress": null,
      "l1BaseFeeScalar": "0x1db0",
      "l1BlobBaseFee": "0xb26f1877d6",
      "l1BlobBaseFeeScalar": "0xd2730",
      "l1Fee": "0x3c9a08eccbe2",
      "l1GasPrice": "0xaf090f889",
      "l1GasUsed": "0x640"
    },
    {
      "status": "0x1",
      "cumulativeGasUsed": "0x84c18",
      "logs": [],
      "logsBloom": "0x00000000000000000000000000000000000000000000000000000000000000000000000000000000000000000000000000000000000000000000000000000000000000000000000000000000000000000000000000000000000000000000000000000000000000000000000000000000000000000000000000000000000000000000000000000000000000000000000000000000000000000000000000000000000000000000000000000000000000000000000000000000000000000000000000000000000000000000000000000000000000000000000000000000000000000000000000000000000000000000000000000000000000000000000000000000",
      "type": "0x2",
      "transactionHash": "0x8f5b2cad7b197c6ce1504d2840d9ded9ed04cb5c85e07e9b5c71786224e02220",
      "transactionIndex": "0x4",
      "blockHash": "0xd4a520e333e7517eb146ec0abbda247cb8806ae01cd5601e9995838d20c0f990",
      "blockNumber": "0x1015d51",
      "gasUsed": "0x10cf5",
      "effectiveGasPrice": "0xf6a79",
      "from": "0x12b2434a1022d5787bf06056f2885fe35de62bf8",
      "to": "0xba9e54606a67147ad0fb9defbae2d461dde8acc5",
      "contractAddress": null,
      "l1BaseFeeScalar": "0x1db0",
      "l1BlobBaseFee": "0xb26f1877d6",
      "l1BlobBaseFeeScalar": "0xd2730",
      "l1Fee": "0x3c9a08eccbe2",
      "l1GasPrice": "0xaf090f889",
      "l1GasUsed": "0x640"
    }
  ],
  "libraries": [],
  "pending": [],
  "returns": {},
  "timestamp": 1725535823,
  "chain": 11155420,
  "commit": "6821207"
}