{
  "transactions": [
    {
      "hash": "0xafd2cb87aa2529f91b78f6e181ee35af974a7ed4aa3a97fb0f97c949eaa52590",
      "transactionType": "CALL",
      "contractName": null,
      "contractAddress": "0x32c3ff2525706a5425ab000b05dcdff561ff8c58",
      "function": "setPeer(uint32,bytes32)",
      "arguments": [
        "40245",
        "0x000000000000000000000000bd3f14bb6ebe6833c8ee5fc69730d803923d2f1c"
      ],
      "transaction": {
        "from": "0x12b2434a1022d5787bf06056f2885fe35de62bf8",
        "to": "0x32c3ff2525706a5425ab000b05dcdff561ff8c58",
        "gas": "0x10008",
        "value": "0x0",
        "input": "0x3400288b0000000000000000000000000000000000000000000000000000000000009d35000000000000000000000000bd3f14bb6ebe6833c8ee5fc69730d803923d2f1c",
        "nonce": "0xbd",
        "chainId": "0xaa37dc"
      },
      "additionalContracts": [],
      "isFixedGasLimit": false
    },
    {
      "hash": "0x8c8cf83a3f44ec42dca64b942f10c9cd5414b6ed250a4fd0da234f64ae46687b",
      "transactionType": "CALL",
      "contractName": null,
      "contractAddress": "0x02183f24dbb2160f76c38abea119fbfb9a9fc339",
      "function": "setPeer(uint32,bytes32)",
      "arguments": [
        "40232",
        "0x0000000000000000000000006bb36b9c9fb8d34411928ade269e2788b53318b5"
      ],
      "transaction": {
        "from": "0x12b2434a1022d5787bf06056f2885fe35de62bf8",
        "to": "0x02183f24dbb2160f76c38abea119fbfb9a9fc339",
        "gas": "0x10224",
        "value": "0x0",
        "input": "0x3400288b0000000000000000000000000000000000000000000000000000000000009d280000000000000000000000006bb36b9c9fb8d34411928ade269e2788b53318b5",
        "nonce": "0xbe",
        "chainId": "0xaa37dc"
      },
      "additionalContracts": [],
      "isFixedGasLimit": false
    },
    {
      "hash": "0x62ad86b5454d9bbe92f3dc88d3c65c2bc7d94fde4d8d674fb40471289b27a3aa",
      "transactionType": "CALL",
      "contractName": null,
      "contractAddress": "0x6bb36b9c9fb8d34411928ade269e2788b53318b5",
      "function": "setPeer(uint32,bytes32)",
      "arguments": [
        "40245",
        "0x00000000000000000000000002183f24dbb2160f76c38abea119fbfb9a9fc339"
      ],
      "transaction": {
        "from": "0x12b2434a1022d5787bf06056f2885fe35de62bf8",
        "to": "0x6bb36b9c9fb8d34411928ade269e2788b53318b5",
        "gas": "0x10032",
        "value": "0x0",
        "input": "0x3400288b0000000000000000000000000000000000000000000000000000000000009d3500000000000000000000000002183f24dbb2160f76c38abea119fbfb9a9fc339",
        "nonce": "0xbf",
        "chainId": "0xaa37dc"
      },
      "additionalContracts": [],
      "isFixedGasLimit": false
    },
    {
      "hash": "0xec3638c38634a13849dbc2418bcd6bc9aaeeecf7a41cc3fd72988d20c03c0dfc",
      "transactionType": "CALL",
      "contractName": null,
      "contractAddress": "0x02183f24dbb2160f76c38abea119fbfb9a9fc339",
      "function": "setComposerSecondEid(uint32)",
      "arguments": [
        "40232"
      ],
      "transaction": {
        "from": "0x12b2434a1022d5787bf06056f2885fe35de62bf8",
        "to": "0x02183f24dbb2160f76c38abea119fbfb9a9fc339",
        "gas": "0xf6c2",
        "value": "0x0",
        "input": "0x066af8ce0000000000000000000000000000000000000000000000000000000000009d28",
        "nonce": "0xc0",
        "chainId": "0xaa37dc"
      },
      "additionalContracts": [],
      "isFixedGasLimit": false
    },
    {
      "hash": "0x998881233d2ac4bb23c938b4eab4ab867bb0a0b573e7fe234c2d25d86ce51bb1",
      "transactionType": "CALL",
      "contractName": null,
      "contractAddress": "0x32c3ff2525706a5425ab000b05dcdff561ff8c58",
      "function": "setAdapterAddresses(address[])",
      "arguments": [
        "[0x02183f24DBB2160f76c38AbEA119FBFB9A9fc339]"
      ],
      "transaction": {
        "from": "0x12b2434a1022d5787bf06056f2885fe35de62bf8",
        "to": "0x32c3ff2525706a5425ab000b05dcdff561ff8c58",
        "gas": "0x17c7d",
        "value": "0x0",
        "input": "0xa324b2f70000000000000000000000000000000000000000000000000000000000000020000000000000000000000000000000000000000000000000000000000000000100000000000000000000000002183f24dbb2160f76c38abea119fbfb9a9fc339",
        "nonce": "0xc1",
        "chainId": "0xaa37dc"
      },
      "additionalContracts": [],
      "isFixedGasLimit": false
    },
    {
      "hash": "0xda629f7ee7e58bd7feb7122fdd5b599f47c7373ed3b9ec283ba69b60ed4461e3",
      "transactionType": "CALL",
      "contractName": null,
      "contractAddress": "0x6bb36b9c9fb8d34411928ade269e2788b53318b5",
      "function": "setAttestationsAddress(address)",
      "arguments": [
        "0xbd3F14bb6EBe6833c8eE5fC69730d803923D2f1c"
      ],
      "transaction": {
        "from": "0x12b2434a1022d5787bf06056f2885fe35de62bf8",
        "to": "0x6bb36b9c9fb8d34411928ade269e2788b53318b5",
        "gas": "0xfdb1",
        "value": "0x0",
        "input": "0x172e09e8000000000000000000000000bd3f14bb6ebe6833c8ee5fc69730d803923d2f1c",
        "nonce": "0xc2",
        "chainId": "0xaa37dc"
      },
      "additionalContracts": [],
      "isFixedGasLimit": false
    }
  ],
  "receipts": [
    {
      "status": "0x1",
      "cumulativeGasUsed": "0x12a7d4",
      "logs": [
        {
          "address": "0x32c3ff2525706a5425ab000b05dcdff561ff8c58",
          "topics": [
            "0x238399d427b947898edb290f5ff0f9109849b1c3ba196a42e35f00c50a54b98b"
          ],
          "data": "0x0000000000000000000000000000000000000000000000000000000000009d35000000000000000000000000bd3f14bb6ebe6833c8ee5fc69730d803923d2f1c",
          "blockHash": "0x6270e24030dce5fa8e3bc5af75b77ee4376f4ac780a8137d92e41a62ca1ea7fc",
          "blockNumber": "0x102de1c",
          "transactionHash": "0xafd2cb87aa2529f91b78f6e181ee35af974a7ed4aa3a97fb0f97c949eaa52590",
          "transactionIndex": "0x3",
          "logIndex": "0x14",
          "removed": false
        }
      ],
      "logsBloom": "0x00000000000000000000000000000000000000000000000000000000000000000400000000000000000000000000000000000000000000000800000000000000000000000000000000000000000000000000000000000000000000000000000000000000000000000000000000000000000000000000000000000000000000000000000000000000000000000000000000000000000010000000000000000000000000000010000000000000000000000000000000000000000002000000000000000000000000000000000000000000000000000000000000040000000000000000000000000000000000000000000000000000000000000000000000000000",
      "type": "0x2",
      "transactionHash": "0xafd2cb87aa2529f91b78f6e181ee35af974a7ed4aa3a97fb0f97c949eaa52590",
      "transactionIndex": "0x3",
      "blockHash": "0x6270e24030dce5fa8e3bc5af75b77ee4376f4ac780a8137d92e41a62ca1ea7fc",
      "blockNumber": "0x102de1c",
      "gasUsed": "0xb95e",
      "effectiveGasPrice": "0xf6a96",
      "from": "0x12b2434a1022d5787bf06056f2885fe35de62bf8",
      "to": "0x32c3ff2525706a5425ab000b05dcdff561ff8c58",
      "contractAddress": null,
      "l1BaseFeeScalar": "0x1db0",
      "l1BlobBaseFee": "0xde7b1c5a8",
      "l1BlobBaseFeeScalar": "0xd2730",
      "l1Fee": "0x4b55bc418ce",
      "l1GasPrice": "0x8df31735",
      "l1GasUsed": "0x640"
    },
    {
      "status": "0x1",
      "cumulativeGasUsed": "0x1772f5",
      "logs": [
        {
          "address": "0x02183f24dbb2160f76c38abea119fbfb9a9fc339",
          "topics": [
            "0x238399d427b947898edb290f5ff0f9109849b1c3ba196a42e35f00c50a54b98b"
          ],
          "data": "0x0000000000000000000000000000000000000000000000000000000000009d280000000000000000000000006bb36b9c9fb8d34411928ade269e2788b53318b5",
          "blockHash": "0xfe67193a52c07ff379095c2ff50faf61ed657387758946d29a77d4930937fa48",
          "blockNumber": "0x102de1d",
          "transactionHash": "0x8c8cf83a3f44ec42dca64b942f10c9cd5414b6ed250a4fd0da234f64ae46687b",
          "transactionIndex": "0x4",
          "logIndex": "0x13",
          "removed": false
        }
      ],
      "logsBloom": "0x00000000000000000000000000000000000000000000000000000000000000000000000000000000000010000000000000000000000000000800000000000000000000000000000000000000000000000000000000000000000000000000000000000000000000000000000000000080000000000000000000000000000000000000000000000000000000000000000000000000000000000000000000000000000000000000000000000000000000000000000000000000000002000000000000000000000000000000000000000000000000000000000000040000000000000000000000000000000000000000000000000000080000000000000000000000",
      "type": "0x2",
      "transactionHash": "0x8c8cf83a3f44ec42dca64b942f10c9cd5414b6ed250a4fd0da234f64ae46687b",
      "transactionIndex": "0x4",
      "blockHash": "0xfe67193a52c07ff379095c2ff50faf61ed657387758946d29a77d4930937fa48",
      "blockNumber": "0x102de1d",
      "gasUsed": "0xbae4",
      "effectiveGasPrice": "0xf6a96",
      "from": "0x12b2434a1022d5787bf06056f2885fe35de62bf8",
      "to": "0x02183f24dbb2160f76c38abea119fbfb9a9fc339",
      "contractAddress": null,
      "l1BaseFeeScalar": "0x1db0",
      "l1BlobBaseFee": "0xde7b1c5a8",
      "l1BlobBaseFeeScalar": "0xd2730",
      "l1Fee": "0x4b55bc418ce",
      "l1GasPrice": "0x8df31735",
      "l1GasUsed": "0x640"
    },
    {
      "status": "0x1",
      "cumulativeGasUsed": "0x182c71",
      "logs": [
        {
          "address": "0x6bb36b9c9fb8d34411928ade269e2788b53318b5",
          "topics": [
            "0x238399d427b947898edb290f5ff0f9109849b1c3ba196a42e35f00c50a54b98b"
          ],
          "data": "0x0000000000000000000000000000000000000000000000000000000000009d3500000000000000000000000002183f24dbb2160f76c38abea119fbfb9a9fc339",
          "blockHash": "0xfe67193a52c07ff379095c2ff50faf61ed657387758946d29a77d4930937fa48",
          "blockNumber": "0x102de1d",
          "transactionHash": "0x62ad86b5454d9bbe92f3dc88d3c65c2bc7d94fde4d8d674fb40471289b27a3aa",
          "transactionIndex": "0x5",
          "logIndex": "0x14",
          "removed": false
        }
      ],
      "logsBloom": "0x00000000000000000000000000000000000000000000000000000000000000000000000000000000000000000000000000000000000000000800000000000000000000000000000000000000000000000000000000000000000000000000000000000000000000000000000000000000080000000000000000000000000000000000000000000000000000000000000000000000000000000000000000000000000000000000000000000000000000000000000000000000001002000000000000000000000000000000000000000000001000000000000000040000000000000000000000000000000000000000000000000000000000000000000000000000",
      "type": "0x2",
      "transactionHash": "0x62ad86b5454d9bbe92f3dc88d3c65c2bc7d94fde4d8d674fb40471289b27a3aa",
      "transactionIndex": "0x5",
      "blockHash": "0xfe67193a52c07ff379095c2ff50faf61ed657387758946d29a77d4930937fa48",
      "blockNumber": "0x102de1d",
      "gasUsed": "0xb97c",
      "effectiveGasPrice": "0xf6a96",
      "from": "0x12b2434a1022d5787bf06056f2885fe35de62bf8",
      "to": "0x6bb36b9c9fb8d34411928ade269e2788b53318b5",
      "contractAddress": null,
      "l1BaseFeeScalar": "0x1db0",
      "l1BlobBaseFee": "0xde7b1c5a8",
      "l1BlobBaseFeeScalar": "0xd2730",
      "l1Fee": "0x4b55bc418ce",
      "l1GasPrice": "0x8df31735",
      "l1GasUsed": "0x640"
    },
    {
      "status": "0x1",
      "cumulativeGasUsed": "0x18df18",
      "logs": [],
      "logsBloom": "0x00000000000000000000000000000000000000000000000000000000000000000000000000000000000000000000000000000000000000000000000000000000000000000000000000000000000000000000000000000000000000000000000000000000000000000000000000000000000000000000000000000000000000000000000000000000000000000000000000000000000000000000000000000000000000000000000000000000000000000000000000000000000000000000000000000000000000000000000000000000000000000000000000000000000000000000000000000000000000000000000000000000000000000000000000000000",
      "type": "0x2",
      "transactionHash": "0xec3638c38634a13849dbc2418bcd6bc9aaeeecf7a41cc3fd72988d20c03c0dfc",
      "transactionIndex": "0x6",
      "blockHash": "0xfe67193a52c07ff379095c2ff50faf61ed657387758946d29a77d4930937fa48",
      "blockNumber": "0x102de1d",
      "gasUsed": "0xb2a7",
      "effectiveGasPrice": "0xf6a96",
      "from": "0x12b2434a1022d5787bf06056f2885fe35de62bf8",
      "to": "0x02183f24dbb2160f76c38abea119fbfb9a9fc339",
      "contractAddress": null,
      "l1BaseFeeScalar": "0x1db0",
      "l1BlobBaseFee": "0xde7b1c5a8",
      "l1BlobBaseFeeScalar": "0xd2730",
      "l1Fee": "0x4b55bc418ce",
      "l1GasPrice": "0x8df31735",
      "l1GasUsed": "0x640"
    },
    {
      "status": "0x1",
      "cumulativeGasUsed": "0x19f290",
      "logs": [
        {
          "address": "0x32c3ff2525706a5425ab000b05dcdff561ff8c58",
          "topics": [
            "0xe3b79b0152415c3a6a3b843b01948e52a65cb32668a2bbccef929ed5956669a5"
          ],
          "data": "0x0000000000000000000000000000000000000000000000000000000000000020000000000000000000000000000000000000000000000000000000000000000100000000000000000000000002183f24dbb2160f76c38abea119fbfb9a9fc339",
          "blockHash": "0xfe67193a52c07ff379095c2ff50faf61ed657387758946d29a77d4930937fa48",
          "blockNumber": "0x102de1d",
          "transactionHash": "0x998881233d2ac4bb23c938b4eab4ab867bb0a0b573e7fe234c2d25d86ce51bb1",
          "transactionIndex": "0x7",
          "logIndex": "0x15",
          "removed": false
        }
      ],
      "logsBloom": "0x00000000000000000000000000000000000000000000000000000000000000000400000000000000008000000000000000000000000000000000000000000000000000000000000000000000000000000000000000000000000000000000000000000000000000000000000000000000000000000000000000000000000000000000001000001000000000000000000000000000000010000000000000000000000000000010000000000000000000000000000000000000000000000000000000000000000000000000000000000000000000000000000000000000000000000000000000000000000000000000000000000000000000000000000000000000",
      "type": "0x2",
      "transactionHash": "0x998881233d2ac4bb23c938b4eab4ab867bb0a0b573e7fe234c2d25d86ce51bb1",
      "transactionIndex": "0x7",
      "blockHash": "0xfe67193a52c07ff379095c2ff50faf61ed657387758946d29a77d4930937fa48",
      "blockNumber": "0x102de1d",
      "gasUsed": "0x11378",
      "effectiveGasPrice": "0xf6a96",
      "from": "0x12b2434a1022d5787bf06056f2885fe35de62bf8",
      "to": "0x32c3ff2525706a5425ab000b05dcdff561ff8c58",
      "contractAddress": null,
      "l1BaseFeeScalar": "0x1db0",
      "l1BlobBaseFee": "0xde7b1c5a8",
      "l1BlobBaseFeeScalar": "0xd2730",
      "l1Fee": "0x4b55bc418ce",
      "l1GasPrice": "0x8df31735",
      "l1GasUsed": "0x640"
    },
    {
      "status": "0x1",
      "cumulativeGasUsed": "0x1aaa3c",
      "logs": [
        {
          "address": "0x6bb36b9c9fb8d34411928ade269e2788b53318b5",
          "topics": [
            "0xed8fe6238b8d547d84eb2703482dd6770869bc9d6683c696c9bf0c2e42e3fdbe"
          ],
          "data": "0x000000000000000000000000bd3f14bb6ebe6833c8ee5fc69730d803923d2f1c",
          "blockHash": "0xfe67193a52c07ff379095c2ff50faf61ed657387758946d29a77d4930937fa48",
          "blockNumber": "0x102de1d",
          "transactionHash": "0xda629f7ee7e58bd7feb7122fdd5b599f47c7373ed3b9ec283ba69b60ed4461e3",
          "transactionIndex": "0x8",
          "logIndex": "0x16",
          "removed": false
        }
      ],
      "logsBloom": "0x00000000000400000000000000000000000000000000000000000000000000000080000000000000000000000000000000000000000000000000000000000000000000000000000000000000000000000000000000000000000000000000000000000000800000000000000000000000080000000000000000000000000000000000000000000000000000000000000000000000000000000000000000000000000000000000000000000000000000000000000000000000001000000000000000000000000000000000000000000000001000000000000000000000000000000000000000000000000000000000000000000000000000000000000000000000",
      "type": "0x2",
      "transactionHash": "0xda629f7ee7e58bd7feb7122fdd5b599f47c7373ed3b9ec283ba69b60ed4461e3",
      "transactionIndex": "0x8",
      "blockHash": "0xfe67193a52c07ff379095c2ff50faf61ed657387758946d29a77d4930937fa48",
      "blockNumber": "0x102de1d",
      "gasUsed": "0xb7ac",
      "effectiveGasPrice": "0xf6a96",
      "from": "0x12b2434a1022d5787bf06056f2885fe35de62bf8",
      "to": "0x6bb36b9c9fb8d34411928ade269e2788b53318b5",
      "contractAddress": null,
      "l1BaseFeeScalar": "0x1db0",
      "l1BlobBaseFee": "0xde7b1c5a8",
      "l1BlobBaseFeeScalar": "0xd2730",
      "l1Fee": "0x4b55bc418ce",
      "l1GasPrice": "0x8df31735",
      "l1GasUsed": "0x640"
    }
  ],
  "libraries": [],
  "pending": [],
  "returns": {},
  "timestamp": 1725732846,
  "chain": 11155420,
  "commit": "67fd3b7"
}