{
  "transactions": [
    {
      "hash": "0xdc31ac0c3a17889f8453f6622a4337eae6f4bd84aa420dc6de9b5a891b988115",
      "transactionType": "CALL",
      "contractName": null,
      "contractAddress": "0x26f36a778dbab00b9f9f3ded0dd7ad59c3a7847b",
      "function": "setPeer(uint32,bytes32)",
      "arguments": [
        "40245",
        "0x000000000000000000000000651f45d00c1fecbc345f7ee708ffe4ab57aa46f6"
      ],
      "transaction": {
        "from": "0x12b2434a1022d5787bf06056f2885fe35de62bf8",
        "to": "0x26f36a778dbab00b9f9f3ded0dd7ad59c3a7847b",
        "gas": "0x10008",
        "value": "0x0",
        "input": "0x3400288b0000000000000000000000000000000000000000000000000000000000009d35000000000000000000000000651f45d00c1fecbc345f7ee708ffe4ab57aa46f6",
        "nonce": "0x41",
        "chainId": "0xaa37dc"
      },
      "additionalContracts": [],
      "isFixedGasLimit": false
    },
    {
      "hash": "0x22f243650d92c728a52bbe2b0e8d64cbaa92f2b643989851e65f78acb27b3060",
      "transactionType": "CALL",
      "contractName": null,
      "contractAddress": "0x26f36a778dbab00b9f9f3ded0dd7ad59c3a7847b",
      "function": "setAdapterAddresses(address[])",
      "arguments": [
        "[0x6dA70c3c286e44F8965c0C26d7D47dba074e9DB0]"
      ],
      "transaction": {
        "from": "0x12b2434a1022d5787bf06056f2885fe35de62bf8",
        "to": "0x26f36a778dbab00b9f9f3ded0dd7ad59c3a7847b",
        "gas": "0x17cbc",
        "value": "0x0",
        "input": "0xa324b2f7000000000000000000000000000000000000000000000000000000000000002000000000000000000000000000000000000000000000000000000000000000010000000000000000000000006da70c3c286e44f8965c0c26d7d47dba074e9db0",
        "nonce": "0x42",
        "chainId": "0xaa37dc"
      },
      "additionalContracts": [],
      "isFixedGasLimit": false
    }
  ],
  "receipts": [
    {
      "status": "0x1",
      "cumulativeGasUsed": "0x2ddd0c",
      "logs": [
        {
          "address": "0x26f36a778dbab00b9f9f3ded0dd7ad59c3a7847b",
          "topics": [
            "0x238399d427b947898edb290f5ff0f9109849b1c3ba196a42e35f00c50a54b98b"
          ],
          "data": "0x0000000000000000000000000000000000000000000000000000000000009d35000000000000000000000000651f45d00c1fecbc345f7ee708ffe4ab57aa46f6",
          "blockHash": "0xf5046d0607c8f6eb53b900ced5b7303160f708cb099470d1a67ea9260c47e689",
          "blockNumber": "0x1019dc0",
          "transactionHash": "0xdc31ac0c3a17889f8453f6622a4337eae6f4bd84aa420dc6de9b5a891b988115",
          "transactionIndex": "0x5",
          "logIndex": "0x1f",
          "removed": false
        }
      ],
      "logsBloom": "0x00000000000000000000000000000000000000000000000000000000000000000000000000000000000000000000000000000000000000000800000000000000000000000000000000000000000000000000000000000000000000000000000000000000000000000000000000000000000000000000000000000000080000000000000000000000000000000000000000000000000000000000000000000000000000000000000000000000000000000000000000000000000002000000000000000000000000000000000000000000000000000000000000040000000000000000000000000000000000000000000000001000000000000000000000002000",
      "type": "0x2",
      "transactionHash": "0xdc31ac0c3a17889f8453f6622a4337eae6f4bd84aa420dc6de9b5a891b988115",
      "transactionIndex": "0x5",
      "blockHash": "0xf5046d0607c8f6eb53b900ced5b7303160f708cb099470d1a67ea9260c47e689",
      "blockNumber": "0x1019dc0",
      "gasUsed": "0xb95e",
      "effectiveGasPrice": "0xf43ac",
      "from": "0x12b2434a1022d5787bf06056f2885fe35de62bf8",
      "to": "0x26f36a778dbab00b9f9f3ded0dd7ad59c3a7847b",
      "contractAddress": null,
      "l1BaseFeeScalar": "0x1db0",
      "l1BlobBaseFee": "0x15bcf51524b",
      "l1BlobBaseFeeScalar": "0xd2730",
      "l1Fee": "0x7527256a9c0e",
      "l1GasPrice": "0xd13ad21b",
      "l1GasUsed": "0x640"
    },
    {
      "status": "0x1",
      "cumulativeGasUsed": "0x2ef0b2",
      "logs": [
        {
          "address": "0x26f36a778dbab00b9f9f3ded0dd7ad59c3a7847b",
          "topics": [
            "0xe3b79b0152415c3a6a3b843b01948e52a65cb32668a2bbccef929ed5956669a5"
          ],
          "data": "0x000000000000000000000000000000000000000000000000000000000000002000000000000000000000000000000000000000000000000000000000000000010000000000000000000000006da70c3c286e44f8965c0c26d7d47dba074e9db0",
          "blockHash": "0xf5046d0607c8f6eb53b900ced5b7303160f708cb099470d1a67ea9260c47e689",
          "blockNumber": "0x1019dc0",
          "transactionHash": "0x22f243650d92c728a52bbe2b0e8d64cbaa92f2b643989851e65f78acb27b3060",
          "transactionIndex": "0x6",
          "logIndex": "0x20",
          "removed": false
        }
      ],
      "logsBloom": "0x00000000000000000000000000000000000000000000000000000000000000000000000000000000008000000000000000000000000000000000000000000000000000000000000000000000000000000000000000000000000000000000000000000000000000000000000000000000000000000000000000000000080000000000001000001000000000000000000000000000000000000000000000000000000000000000000000000000000000000000000000000000000000000000000000000000000000000000000000000000000000000000000000000000000000000000000000000000000000000000000000001000000000000000000000002000",
      "type": "0x2",
      "transactionHash": "0x22f243650d92c728a52bbe2b0e8d64cbaa92f2b643989851e65f78acb27b3060",
      "transactionIndex": "0x6",
      "blockHash": "0xf5046d0607c8f6eb53b900ced5b7303160f708cb099470d1a67ea9260c47e689",
      "blockNumber": "0x1019dc0",
      "gasUsed": "0x113a6",
      "effectiveGasPrice": "0xf43ac",
      "from": "0x12b2434a1022d5787bf06056f2885fe35de62bf8",
      "to": "0x26f36a778dbab00b9f9f3ded0dd7ad59c3a7847b",
      "contractAddress": null,
      "l1BaseFeeScalar": "0x1db0",
      "l1BlobBaseFee": "0x15bcf51524b",
      "l1BlobBaseFeeScalar": "0xd2730",
      "l1Fee": "0x7527256a9c0e",
      "l1GasPrice": "0xd13ad21b",
      "l1GasUsed": "0x640"
    }
  ],
  "libraries": [],
  "pending": [],
  "returns": {},
  "timestamp": 1725568813,
  "chain": 11155420,
  "commit": "2f89147"
}