{
  "transactions": [
    {
      "hash": "0xde1620989bc945357f5a8784f1c85cde4b659a2c9cd50747cc2a62f17c03210d",
      "transactionType": "CALL",
      "contractName": null,
      "contractAddress": "0x141ea5d5536d81123b4f34fc3f3aebd9603aa1ab",
      "function": "setPeer(uint32,bytes32)",
      "arguments": [
        "40245",
        "0x0000000000000000000000002aef4ab12a5b8dbd420abc44ce5c3ac562352526"
      ],
      "transaction": {
        "from": "0x12b2434a1022d5787bf06056f2885fe35de62bf8",
        "to": "0x141ea5d5536d81123b4f34fc3f3aebd9603aa1ab",
        "gas": "0x10041",
        "value": "0x0",
        "input": "0x3400288b0000000000000000000000000000000000000000000000000000000000009d350000000000000000000000002aef4ab12a5b8dbd420abc44ce5c3ac562352526",
        "nonce": "0x1c",
        "chainId": "0xaa37dc"
      },
      "additionalContracts": [],
      "isFixedGasLimit": false
    },
    {
      "hash": "0xd02183a63925edfc9b9a29683fcdb5ac4a9b277a8e27c6a28519fb370b984a8a",
      "transactionType": "CALL",
      "contractName": null,
      "contractAddress": "0x141ea5d5536d81123b4f34fc3f3aebd9603aa1ab",
      "function": "setAdapterAddress(address)",
      "arguments": [
        "0xc1291707f5Af0aBEaC2bf483053330BF1798189d"
      ],
      "transaction": {
        "from": "0x12b2434a1022d5787bf06056f2885fe35de62bf8",
        "to": "0x141ea5d5536d81123b4f34fc3f3aebd9603aa1ab",
        "gas": "0xecf4",
        "value": "0x0",
        "input": "0x736eede5000000000000000000000000c1291707f5af0abeac2bf483053330bf1798189d",
        "nonce": "0x1d",
        "chainId": "0xaa37dc"
      },
      "additionalContracts": [],
      "isFixedGasLimit": false
    }
  ],
  "receipts": [
    {
      "status": "0x1",
      "cumulativeGasUsed": "0x1efa48",
      "logs": [
        {
          "address": "0x141ea5d5536d81123b4f34fc3f3aebd9603aa1ab",
          "topics": [
            "0x238399d427b947898edb290f5ff0f9109849b1c3ba196a42e35f00c50a54b98b"
          ],
          "data": "0x0000000000000000000000000000000000000000000000000000000000009d350000000000000000000000002aef4ab12a5b8dbd420abc44ce5c3ac562352526",
          "blockHash": "0xef1a2f7fb64b8b1c3e33fea3f001b38f331ea7eaf8c4674e9c3272af2971fa19",
          "blockNumber": "0x100f3a9",
          "transactionHash": "0xde1620989bc945357f5a8784f1c85cde4b659a2c9cd50747cc2a62f17c03210d",
          "transactionIndex": "0x5",
          "logIndex": "0x1a",
          "removed": false
        }
      ],
      "logsBloom": "0x00000000000000000000000000000000000000000000000000000000000000000000000000000000000000000000000000000000000000000800000000000000000000000000000000000000000000000000000000000000000000000000000000000000000000000000000000020000000000000000100000000000000000000000000000000000000000000000000000000000000000000000000000000000000000000000000000000000000000000000000000020000000002000000000000000000000000000000000000000000000000000000000000040000000000000000000000000000000000000000000000000000000000000000000000000000",
      "type": "0x2",
      "transactionHash": "0xde1620989bc945357f5a8784f1c85cde4b659a2c9cd50747cc2a62f17c03210d",
      "transactionIndex": "0x5",
      "blockHash": "0xef1a2f7fb64b8b1c3e33fea3f001b38f331ea7eaf8c4674e9c3272af2971fa19",
      "blockNumber": "0x100f3a9",
      "gasUsed": "0xb987",
      "effectiveGasPrice": "0xf6a5e",
      "from": "0x12b2434a1022d5787bf06056f2885fe35de62bf8",
      "to": "0x141ea5d5536d81123b4f34fc3f3aebd9603aa1ab",
      "contractAddress": null,
      "l1BaseFeeScalar": "0x1db0",
      "l1BlobBaseFee": "0xfa4a801e5",
      "l1BlobBaseFeeScalar": "0xd2730",
      "l1Fee": "0x554b8c409e0",
      "l1GasPrice": "0x156b69f2c",
      "l1GasUsed": "0x640"
    },
    {
      "status": "0x1",
      "cumulativeGasUsed": "0x1fa5d6",
      "logs": [],
      "logsBloom": "0x00000000000000000000000000000000000000000000000000000000000000000000000000000000000000000000000000000000000000000000000000000000000000000000000000000000000000000000000000000000000000000000000000000000000000000000000000000000000000000000000000000000000000000000000000000000000000000000000000000000000000000000000000000000000000000000000000000000000000000000000000000000000000000000000000000000000000000000000000000000000000000000000000000000000000000000000000000000000000000000000000000000000000000000000000000000",
      "type": "0x2",
      "transactionHash": "0xd02183a63925edfc9b9a29683fcdb5ac4a9b277a8e27c6a28519fb370b984a8a",
      "transactionIndex": "0x6",
      "blockHash": "0xef1a2f7fb64b8b1c3e33fea3f001b38f331ea7eaf8c4674e9c3272af2971fa19",
      "blockNumber": "0x100f3a9",
      "gasUsed": "0xab8e",
      "effectiveGasPrice": "0xf6a5e",
      "from": "0x12b2434a1022d5787bf06056f2885fe35de62bf8",
      "to": "0x141ea5d5536d81123b4f34fc3f3aebd9603aa1ab",
      "contractAddress": null,
      "l1BaseFeeScalar": "0x1db0",
      "l1BlobBaseFee": "0xfa4a801e5",
      "l1BlobBaseFeeScalar": "0xd2730",
      "l1Fee": "0x554b8c409e0",
      "l1GasPrice": "0x156b69f2c",
      "l1GasUsed": "0x640"
    }
  ],
  "libraries": [],
  "pending": [],
  "returns": {},
  "timestamp": 1725481727,
  "chain": 11155420,
  "commit": "da4a4b9"
}