{
  "transactions": [
    {
      "hash": "0x842a316aeb4f961975825628722d0556773c1a873d4d2e387e9907b6f883624f",
      "transactionType": "CALL",
      "contractName": null,
      "contractAddress": "0xea686366d6bb59e759fcab5cbd7b94963bf291e6",
      "function": "setPeer(uint32,bytes32)",
      "arguments": [
        "40245",
        "0x000000000000000000000000301c96ec196fb6e1fe8b7eb777f317e5261b37eb"
      ],
      "transaction": {
        "from": "0x12b2434a1022d5787bf06056f2885fe35de62bf8",
        "to": "0xea686366d6bb59e759fcab5cbd7b94963bf291e6",
        "gas": "0x10041",
        "value": "0x0",
        "input": "0x3400288b0000000000000000000000000000000000000000000000000000000000009d35000000000000000000000000301c96ec196fb6e1fe8b7eb777f317e5261b37eb",
        "nonce": "0xf",
        "chainId": "0xaa37dc"
      },
      "additionalContracts": [],
      "isFixedGasLimit": false
    },
    {
      "hash": "0xc5b523d171cfe8e62a7ff50b020db0e27f8530b3668d02602d5487842aa4571d",
      "transactionType": "CALL",
      "contractName": null,
      "contractAddress": "0xea686366d6bb59e759fcab5cbd7b94963bf291e6",
      "function": "setAdapterAddress(address)",
      "arguments": [
        "0x0000000000000000000000000000000000000000"
      ],
      "transaction": {
        "from": "0x12b2434a1022d5787bf06056f2885fe35de62bf8",
        "to": "0xea686366d6bb59e759fcab5cbd7b94963bf291e6",
        "gas": "0x87d7",
        "value": "0x0",
        "input": "0x736eede50000000000000000000000000000000000000000000000000000000000000000",
        "nonce": "0x10",
        "chainId": "0xaa37dc"
      },
      "additionalContracts": [],
      "isFixedGasLimit": false
    }
  ],
  "receipts": [
    {
      "status": "0x1",
      "cumulativeGasUsed": "0x1174f6",
      "logs": [
        {
          "address": "0xea686366d6bb59e759fcab5cbd7b94963bf291e6",
          "topics": [
            "0x238399d427b947898edb290f5ff0f9109849b1c3ba196a42e35f00c50a54b98b"
          ],
          "data": "0x0000000000000000000000000000000000000000000000000000000000009d35000000000000000000000000301c96ec196fb6e1fe8b7eb777f317e5261b37eb",
          "blockHash": "0xa9a63e1bb263af4d5e9670c7a2a549396605f21ad4d44f745fe284c8b54134c1",
          "blockNumber": "0x100e888",
          "transactionHash": "0x842a316aeb4f961975825628722d0556773c1a873d4d2e387e9907b6f883624f",
          "transactionIndex": "0x4",
          "logIndex": "0x18",
          "removed": false
        }
      ],
      "logsBloom": "0x00000000000000000000000000000000000000000000000000000000000000001000000000000000000000000000000000000000000000000800000080000000000000000000000000000000000000000000000000000000000000000000000000000000000000000000000000000000000000000000000000000000000000000000000000000000000000000000000000000000000000000000000000000000000000000000000000000000000000000000000000000000000002000000000000000000000000000000000000000000000000000000000000040000000000000000000040000000000000000000000000000000000000000000000000000000",
      "type": "0x2",
      "transactionHash": "0x842a316aeb4f961975825628722d0556773c1a873d4d2e387e9907b6f883624f",
      "transactionIndex": "0x4",
      "blockHash": "0xa9a63e1bb263af4d5e9670c7a2a549396605f21ad4d44f745fe284c8b54134c1",
      "blockNumber": "0x100e888",
      "gasUsed": "0xb987",
      "effectiveGasPrice": "0x302a630",
      "from": "0x12b2434a1022d5787bf06056f2885fe35de62bf8",
      "to": "0xea686366d6bb59e759fcab5cbd7b94963bf291e6",
      "contractAddress": null,
      "l1BaseFeeScalar": "0x1db0",
      "l1BlobBaseFee": "0x58042253b1",
      "l1BlobBaseFeeScalar": "0xd2730",
      "l1Fee": "0x1dbbb00c6ef4",
      "l1GasPrice": "0x207e8a1f5",
      "l1GasUsed": "0x640"
    },
    {
      "status": "0x1",
      "cumulativeGasUsed": "0x11d1d8",
      "logs": [],
      "logsBloom": "0x00000000000000000000000000000000000000000000000000000000000000000000000000000000000000000000000000000000000000000000000000000000000000000000000000000000000000000000000000000000000000000000000000000000000000000000000000000000000000000000000000000000000000000000000000000000000000000000000000000000000000000000000000000000000000000000000000000000000000000000000000000000000000000000000000000000000000000000000000000000000000000000000000000000000000000000000000000000000000000000000000000000000000000000000000000000",
      "type": "0x2",
      "transactionHash": "0xc5b523d171cfe8e62a7ff50b020db0e27f8530b3668d02602d5487842aa4571d",
      "transactionIndex": "0x5",
      "blockHash": "0xa9a63e1bb263af4d5e9670c7a2a549396605f21ad4d44f745fe284c8b54134c1",
      "blockNumber": "0x100e888",
      "gasUsed": "0x5ce2",
      "effectiveGasPrice": "0x302a630",
      "from": "0x12b2434a1022d5787bf06056f2885fe35de62bf8",
      "to": "0xea686366d6bb59e759fcab5cbd7b94963bf291e6",
      "contractAddress": null,
      "l1BaseFeeScalar": "0x1db0",
      "l1BlobBaseFee": "0x58042253b1",
      "l1BlobBaseFeeScalar": "0xd2730",
      "l1Fee": "0x1dbbb00c6ef4",
      "l1GasPrice": "0x207e8a1f5",
      "l1GasUsed": "0x640"
    }
  ],
  "libraries": [],
  "pending": [],
  "returns": {},
  "timestamp": 1725476035,
  "chain": 11155420,
  "commit": "da4a4b9"
}