{
  "transactions": [
    {
      "hash": "0x10f7ad7d668739404028bb18af911670068caa60802c933eabd5821af9f3fb1e",
      "transactionType": "CALL",
      "contractName": null,
      "contractAddress": "0xc181c1bc2e3be2c77777b6609d914dc7659650be",
      "function": "setPeer(uint32,bytes32)",
      "arguments": [
        "40245",
        "0x000000000000000000000000a01d29bf2555850f2758c28b5c6ea2012297d5dd"
      ],
      "transaction": {
        "from": "0x12b2434a1022d5787bf06056f2885fe35de62bf8",
        "to": "0xc181c1bc2e3be2c77777b6609d914dc7659650be",
        "gas": "0x10008",
        "value": "0x0",
        "input": "0x3400288b0000000000000000000000000000000000000000000000000000000000009d35000000000000000000000000a01d29bf2555850f2758c28b5c6ea2012297d5dd",
        "nonce": "0x99",
        "chainId": "0xaa37dc"
      },
      "additionalContracts": [],
      "isFixedGasLimit": false
    },
    {
      "hash": "0x214a9cd920c0a9c92bb8302f6f82cb5580dd1143429c10cbfc9b4357ed68bfcd",
      "transactionType": "CALL",
      "contractName": null,
      "contractAddress": "0xc181c1bc2e3be2c77777b6609d914dc7659650be",
      "function": "setAdapterAddresses(address[])",
      "arguments": [
        "[0xfE4754206AbD49Ae46ada8B45878353D7BDD1B32]"
      ],
      "transaction": {
        "from": "0x12b2434a1022d5787bf06056f2885fe35de62bf8",
        "to": "0xc181c1bc2e3be2c77777b6609d914dc7659650be",
        "gas": "0x17cbc",
        "value": "0x0",
        "input": "0xa324b2f700000000000000000000000000000000000000000000000000000000000000200000000000000000000000000000000000000000000000000000000000000001000000000000000000000000fe4754206abd49ae46ada8b45878353d7bdd1b32",
        "nonce": "0x9a",
        "chainId": "0xaa37dc"
      },
      "additionalContracts": [],
      "isFixedGasLimit": false
    }
  ],
  "receipts": [
    {
      "status": "0x1",
      "cumulativeGasUsed": "0x33b614",
      "logs": [
        {
          "address": "0xc181c1bc2e3be2c77777b6609d914dc7659650be",
          "topics": [
            "0x238399d427b947898edb290f5ff0f9109849b1c3ba196a42e35f00c50a54b98b"
          ],
          "data": "0x0000000000000000000000000000000000000000000000000000000000009d35000000000000000000000000a01d29bf2555850f2758c28b5c6ea2012297d5dd",
          "blockHash": "0x786c6be9b0d7542e599a41e5e2a930f3f1335e143174712bd07920e7ef48b814",
          "blockNumber": "0x1022e98",
          "transactionHash": "0x10f7ad7d668739404028bb18af911670068caa60802c933eabd5821af9f3fb1e",
          "transactionIndex": "0x6",
          "logIndex": "0x30",
          "removed": false
        }
      ],
      "logsBloom": "0x00000000000000000000000000000000000000000000000000000000000000000000000000000000000000000000000080000000000000001800000000000000000000000000000000000000000000000000000000000000000008000000000000000000000000000000000000000000000000000000000000000000000000000000000000000000000000000000000000000000000000000000000000000000000000000000000000000000000000000000000000000000000002000000000000000000000000000000000000000000000000000000000000040000000000000000000000000000000000000000000000000000000000000000000000000000",
      "type": "0x2",
      "transactionHash": "0x10f7ad7d668739404028bb18af911670068caa60802c933eabd5821af9f3fb1e",
      "transactionIndex": "0x6",
      "blockHash": "0x786c6be9b0d7542e599a41e5e2a930f3f1335e143174712bd07920e7ef48b814",
      "blockNumber": "0x1022e98",
      "gasUsed": "0xb95e",
      "effectiveGasPrice": "0xf6a83",
      "from": "0x12b2434a1022d5787bf06056f2885fe35de62bf8",
      "to": "0xc181c1bc2e3be2c77777b6609d914dc7659650be",
      "contractAddress": null,
      "l1BaseFeeScalar": "0x1db0",
      "l1BlobBaseFee": "0x404ab3bea1",
      "l1BlobBaseFeeScalar": "0xd2730",
      "l1Fee": "0x15d8f4ad035b",
      "l1GasPrice": "0x431bac9c9",
      "l1GasUsed": "0x640"
    },
    {
      "status": "0x1",
      "cumulativeGasUsed": "0x34c9ba",
      "logs": [
        {
          "address": "0xc181c1bc2e3be2c77777b6609d914dc7659650be",
          "topics": [
            "0xe3b79b0152415c3a6a3b843b01948e52a65cb32668a2bbccef929ed5956669a5"
          ],
          "data": "0x00000000000000000000000000000000000000000000000000000000000000200000000000000000000000000000000000000000000000000000000000000001000000000000000000000000fe4754206abd49ae46ada8b45878353d7bdd1b32",
          "blockHash": "0x786c6be9b0d7542e599a41e5e2a930f3f1335e143174712bd07920e7ef48b814",
          "blockNumber": "0x1022e98",
          "transactionHash": "0x214a9cd920c0a9c92bb8302f6f82cb5580dd1143429c10cbfc9b4357ed68bfcd",
          "transactionIndex": "0x7",
          "logIndex": "0x31",
          "removed": false
        }
      ],
      "logsBloom": "0x00000000000000000000000000000000000000000000000000000000000000000000000000000000008000000000000080000000000000001000000000000000000000000000000000000000000000000000000000000000000008000000000000000000000000000000000000000000000000000000000000000000000000000000001000001000000000000000000000000000000000000000000000000000000000000000000000000000000000000000000000000000000000000000000000000000000000000000000000000000000000000000000000000000000000000000000000000000000000000000000000000000000000000000000000000000",
      "type": "0x2",
      "transactionHash": "0x214a9cd920c0a9c92bb8302f6f82cb5580dd1143429c10cbfc9b4357ed68bfcd",
      "transactionIndex": "0x7",
      "blockHash": "0x786c6be9b0d7542e599a41e5e2a930f3f1335e143174712bd07920e7ef48b814",
      "blockNumber": "0x1022e98",
      "gasUsed": "0x113a6",
      "effectiveGasPrice": "0xf6a83",
      "from": "0x12b2434a1022d5787bf06056f2885fe35de62bf8",
      "to": "0xc181c1bc2e3be2c77777b6609d914dc7659650be",
      "contractAddress": null,
      "l1BaseFeeScalar": "0x1db0",
      "l1BlobBaseFee": "0x404ab3bea1",
      "l1BlobBaseFeeScalar": "0xd2730",
      "l1Fee": "0x15d8f4ad035b",
      "l1GasPrice": "0x431bac9c9",
      "l1GasUsed": "0x640"
    }
  ],
  "libraries": [],
  "pending": [],
  "returns": {},
  "timestamp": 1725642978,
  "chain": 11155420,
  "commit": "dc78ae4"
}