{
  "transactions": [
    {
      "hash": "0x217b04d158b18f8d50a65fdafdfab0b2b74e9a81c58e529ce37f65c12c3f7c8d",
      "transactionType": "CALL",
      "contractName": null,
      "contractAddress": "0x73ff31a6d2f86b96d9b2d929c1c849595fcb20ce",
      "function": "send(uint32,string)",
      "arguments": [
        "40232",
        "hi_there_dude_whytf_you_dont_work"
      ],
      "transaction": {
        "from": "0xb0efd2b19a5698a9c830548ac22708a28c9d4552",
        "to": "0x73ff31a6d2f86b96d9b2d929c1c849595fcb20ce",
        "gas": "0x4b4a5",
        "value": "0x8e1bc9bf040000",
        "input": "0xd3a3bedd0000000000000000000000000000000000000000000000000000000000009d280000000000000000000000000000000000000000000000000000000000000040000000000000000000000000000000000000000000000000000000000000002168695f74686572655f647564655f77687974665f796f755f646f6e745f776f726b00000000000000000000000000000000000000000000000000000000000000",
        "nonce": "0x68",
        "chainId": "0x14a34"
      },
      "additionalContracts": [],
      "isFixedGasLimit": false
    }
  ],
  "receipts": [
    {
      "status": "0x1",
      "cumulativeGasUsed": "0x184d45",
      "logs": [
        {
          "address": "0xc1868e054425d378095a003ecba3823a5d0135c9",
          "topics": [
            "0x61ed099e74a97a1d7f8bb0952a88ca8b7b8ebd00c126ea04671f92a81213318a"
          ],
          "data": "0x0000000000000000000000008a3d588d9f6ac041476b094f97ff94ec30169d3d00000000000000000000000000000000000000000000000000004a4001282512",
          "blockHash": "0x79fc31594fb54cd0a87aa0664a19084683a68569c7d389104b8deff818d6cc4a",
          "blockNumber": "0xe2ef31",
          "transactionHash": "0x217b04d158b18f8d50a65fdafdfab0b2b74e9a81c58e529ce37f65c12c3f7c8d",
          "transactionIndex": "0x4",
          "logIndex": "0x20",
          "removed": false
        },
        {
          "address": "0xc1868e054425d378095a003ecba3823a5d0135c9",
          "topics": [
            "0x07ea52d82345d6e838192107d8fd7123d9c2ec8e916cd0aad13fd2b60db24644"
          ],
          "data": "0x000000000000000000000000000000000000000000000000000000000000006000000000000000000000000000000000000000000000000000000000000000a000000000000000000000000000000000000000000000000000000000000000c00000000000000000000000000000000000000000000000000000000000000001000000000000000000000000e1a12515f9ab2764b887bf60b923ca494ebbb2d600000000000000000000000000000000000000000000000000000000000000000000000000000000000000000000000000000000000000000000000000000001000000000000000000000000000000000000000000000000000003cb947eb288",
          "blockHash": "0x79fc31594fb54cd0a87aa0664a19084683a68569c7d389104b8deff818d6cc4a",
          "blockNumber": "0xe2ef31",
          "transactionHash": "0x217b04d158b18f8d50a65fdafdfab0b2b74e9a81c58e529ce37f65c12c3f7c8d",
          "transactionIndex": "0x4",
          "logIndex": "0x21",
          "removed": false
        },
        {
          "address": "0x6edce65403992e310a62460808c4b910d972f10f",
          "topics": [
            "0x1ab700d4ced0c005b164c0f789fd09fcbb0156d4c2041b8a3bfbcd961cd1567f"
          ],
          "data": "0x00000000000000000000000000000000000000000000000000000000000000600000000000000000000000000000000000000000000000000000000000000180000000000000000000000000c1868e054425d378095a003ecba3823a5d0135c900000000000000000000000000000000000000000000000000000000000000f101000000000000000200009d3500000000000000000000000073ff31a6d2f86b96d9b2d929c1c849595fcb20ce00009d2800000000000000000000000058e294d6b380552c0cd1c6fed755e2260342b12f5f2c4f076a86b293dadee2a3cec1b03b68d4ade0219c1355e26c3713dea8d1420000000000000000000000000000000000000000000000000000000000000020000000000000000000000000000000000000000000000000000000000000002168695f74686572655f647564655f77687974665f796f755f646f6e745f776f726b0000000000000000000000000000000000000000000000000000000000000000000000000000000000000000000000000000000000000000000000000000000000000000000000000000000000160003010011010000000000000000000000000000ea6000000000000000000000",
          "blockHash": "0x79fc31594fb54cd0a87aa0664a19084683a68569c7d389104b8deff818d6cc4a",
          "blockNumber": "0xe2ef31",
          "transactionHash": "0x217b04d158b18f8d50a65fdafdfab0b2b74e9a81c58e529ce37f65c12c3f7c8d",
          "transactionIndex": "0x4",
          "logIndex": "0x22",
          "removed": false
        }
      ],
      "logsBloom": "0x00000000000000000000000000000000000000000000000000000000000000000000000000000200200000000000000000000000000000000000000000000000000000000000000000000000000000000000000000000000000000020000000000000000000000008200000000000000000000000000000000000000000000000000000000000020000000080000000000000000000000000000000000000000000000008000000000100000000000000000000000400000000440000000000080000000000000000000000000000000000000000000000000000000000000000000040000000000000000000000002000000000000000000000000000000000",
      "type": "0x2",
      "transactionHash": "0x217b04d158b18f8d50a65fdafdfab0b2b74e9a81c58e529ce37f65c12c3f7c8d",
      "transactionIndex": "0x4",
      "blockHash": "0x79fc31594fb54cd0a87aa0664a19084683a68569c7d389104b8deff818d6cc4a",
      "blockNumber": "0xe2ef31",
      "gasUsed": "0x337b1",
      "effectiveGasPrice": "0x1af",
      "from": "0xb0efd2b19a5698a9c830548ac22708a28c9d4552",
      "to": "0x73ff31a6d2f86b96d9b2d929c1c849595fcb20ce",
      "contractAddress": null,
      "l1BaseFeeScalar": "0x44d",
      "l1BlobBaseFee": "0x20fbab8dde",
      "l1BlobBaseFeeScalar": "0xa118b",
      "l1Fee": "0x99e881d1211",
      "l1GasPrice": "0x19316f7b4",
      "l1GasUsed": "0x710"
    }
  ],
  "libraries": [],
  "pending": [],
  "returns": {},
  "timestamp": 1725513032,
  "chain": 84532,
  "commit": "8370d5b"
}