{
  "transactions": [
    {
      "hash": "0x7ac95f9e272cd0709cff52823d86edb23d2207af6837b555a1d96f990a125db5",
      "transactionType": "CALL",
      "contractName": null,
      "contractAddress": "0x4be0e2e1d25df4fc983cf736c17730324ae01cb8",
      "function": "verifyProject(string,string,string,string)",
      "arguments": [
        "test",
        "testy",
        "testytest",
        "testtytest"
      ],
      "transaction": {
        "from": "0x12b2434a1022d5787bf06056f2885fe35de62bf8",
        "to": "0x4be0e2e1d25df4fc983cf736c17730324ae01cb8",
        "gas": "0x10871e",
        "value": "0x6a94d74f430000",
        "input": "0xbef6c21e000000000000000000000000000000000000000000000000000000000000008000000000000000000000000000000000000000000000000000000000000000c000000000000000000000000000000000000000000000000000000000000001000000000000000000000000000000000000000000000000000000000000000140000000000000000000000000000000000000000000000000000000000000000474657374000000000000000000000000000000000000000000000000000000000000000000000000000000000000000000000000000000000000000000000005746573747900000000000000000000000000000000000000000000000000000000000000000000000000000000000000000000000000000000000000000000097465737479746573740000000000000000000000000000000000000000000000000000000000000000000000000000000000000000000000000000000000000a7465737474797465737400000000000000000000000000000000000000000000",
        "nonce": "0x51",
        "chainId": "0x14a34"
      },
      "additionalContracts": [],
      "isFixedGasLimit": false
    }
  ],
  "receipts": [
    {
      "status": "0x1",
      "cumulativeGasUsed": "0x14893c",
      "logs": [
        {
          "address": "0x4e4af2a21ebf62850fd99eb6253e1efbb56098cd",
          "topics": [
            "0x38b331f00373c8b0f9af5a4273ca1b91e894fec999bfa4ec787e8c90a5c8b05c"
          ],
          "data": "0x000000000000000000000000000000000000000000000000000000000000045200000000000000000000000000000000000000000000000000000000000000400000000000000000000000000000000000000000000000000000000000000000",
          "blockHash": "0x12d9035ff125164dd2de2c9f27001a64063ae2e6229c929b193464f6e6b56ae8",
          "blockNumber": "0xe2802f",
          "transactionHash": "0x7ac95f9e272cd0709cff52823d86edb23d2207af6837b555a1d96f990a125db5",
          "transactionIndex": "0x3",
          "logIndex": "0x8",
          "removed": false
        },
        {
          "address": "0xc1868e054425d378095a003ecba3823a5d0135c9",
          "topics": [
            "0x61ed099e74a97a1d7f8bb0952a88ca8b7b8ebd00c126ea04671f92a81213318a"
          ],
          "data": "0x0000000000000000000000008a3d588d9f6ac041476b094f97ff94ec30169d3d000000000000000000000000000000000000000000000000001acbe7363d9ad3",
          "blockHash": "0x12d9035ff125164dd2de2c9f27001a64063ae2e6229c929b193464f6e6b56ae8",
          "blockNumber": "0xe2802f",
          "transactionHash": "0x7ac95f9e272cd0709cff52823d86edb23d2207af6837b555a1d96f990a125db5",
          "transactionIndex": "0x3",
          "logIndex": "0x9",
          "removed": false
        },
        {
          "address": "0xc1868e054425d378095a003ecba3823a5d0135c9",
          "topics": [
            "0x07ea52d82345d6e838192107d8fd7123d9c2ec8e916cd0aad13fd2b60db24644"
          ],
          "data": "0x000000000000000000000000000000000000000000000000000000000000006000000000000000000000000000000000000000000000000000000000000000a000000000000000000000000000000000000000000000000000000000000000c00000000000000000000000000000000000000000000000000000000000000001000000000000000000000000e1a12515f9ab2764b887bf60b923ca494ebbb2d6000000000000000000000000000000000000000000000000000000000000000000000000000000000000000000000000000000000000000000000000000000010000000000000000000000000000000000000000000000000018f426cbc5d6d9",
          "blockHash": "0x12d9035ff125164dd2de2c9f27001a64063ae2e6229c929b193464f6e6b56ae8",
          "blockNumber": "0xe2802f",
          "transactionHash": "0x7ac95f9e272cd0709cff52823d86edb23d2207af6837b555a1d96f990a125db5",
          "transactionIndex": "0x3",
          "logIndex": "0xa",
          "removed": false
        },
        {
          "address": "0x6edce65403992e310a62460808c4b910d972f10f",
          "topics": [
            "0x1ab700d4ced0c005b164c0f789fd09fcbb0156d4c2041b8a3bfbcd961cd1567f"
          ],
          "data": "0x00000000000000000000000000000000000000000000000000000000000000600000000000000000000000000000000000000000000000000000000000000120000000000000000000000000c1868e054425d378095a003ecba3823a5d0135c9000000000000000000000000000000000000000000000000000000000000009101000000000000000100009d350000000000000000000000004be0e2e1d25df4fc983cf736c17730324ae01cb800009ce1000000000000000000000000787e51491f5cc4b2b99bc3f931a9f2199f072e1ec0c8fb2dfcbf7c25a9e19694cb12ea0989af0c0f1d8038e03269a49a0e30ac5500000000000000000000000012b2434a1022d5787bf06056f2885fe35de62bf8000000000000000000000000000000000000000000000000000000000000000000000000000000000000000000001600030100110100000000000000000000000000004e2000000000000000000000",
          "blockHash": "0x12d9035ff125164dd2de2c9f27001a64063ae2e6229c929b193464f6e6b56ae8",
          "blockNumber": "0xe2802f",
          "transactionHash": "0x7ac95f9e272cd0709cff52823d86edb23d2207af6837b555a1d96f990a125db5",
          "transactionIndex": "0x3",
          "logIndex": "0xb",
          "removed": false
        }
      ],
      "logsBloom": "0x20000000000000000000000000000000000000000000000000000000000000000000080000000200200000000000000000000000000000000000000000040000000000000000000000000000000000000000000000200000000000020000000000000000000000008200000000000000000000000000000000000000000000000000000000000020000000080000000000000000000000000000000000000000000000008000000000100000000000000000000000400000000440000000000080000000000000000000000000000000000000000000000000000000000000000000040000000000400004000000002000000000000000000000000000000000",
      "type": "0x2",
      "transactionHash": "0x7ac95f9e272cd0709cff52823d86edb23d2207af6837b555a1d96f990a125db5",
      "transactionIndex": "0x3",
      "blockHash": "0x12d9035ff125164dd2de2c9f27001a64063ae2e6229c929b193464f6e6b56ae8",
      "blockNumber": "0xe2802f",
      "gasUsed": "0xb4d13",
      "effectiveGasPrice": "0xf4351",
      "blobGasUsed": "0x0",
      "from": "0x12b2434a1022d5787bf06056f2885fe35de62bf8",
      "to": "0x4be0e2e1d25df4fc983cf736c17730324ae01cb8",
      "contractAddress": null,
      "l1BaseFeeScalar": "0x44d",
      "l1BlobBaseFee": "0x22d1fc72345",
      "l1BlobBaseFeeScalar": "0xa118b",
      "l1Fee": "0xb9314d43d4fd",
      "l1GasPrice": "0xabac82d8d",
      "l1GasUsed": "0x80e"
    }
  ],
  "libraries": [],
  "pending": [],
  "returns": {},
  "timestamp": 1725456197,
  "chain": 84532,
  "commit": "da4a4b9"
}