{
  "transactions": [
    {
      "hash": "0x3aabc369553600f63d2ddc9c7fa1fbf905ce45c57fdc7ff4bdf72923e560863a",
      "transactionType": "CALL",
      "contractName": null,
      "contractAddress": "0x301c96ec196fb6e1fe8b7eb777f317e5261b37eb",
      "function": "send(uint32,string)",
      "arguments": [
        "40231",
        "hi_there_dude_whytf_you_dont_work"
      ],
      "transaction": {
        "from": "0x12b2434a1022d5787bf06056f2885fe35de62bf8",
        "to": "0x301c96ec196fb6e1fe8b7eb777f317e5261b37eb",
        "gas": "0x4cdf5",
        "value": "0xb1a2bc2ec50000",
        "input": "0xd3a3bedd0000000000000000000000000000000000000000000000000000000000009d270000000000000000000000000000000000000000000000000000000000000040000000000000000000000000000000000000000000000000000000000000002168695f74686572655f647564655f77687974665f796f755f646f6e745f776f726b00000000000000000000000000000000000000000000000000000000000000",
        "nonce": "0x6a",
        "chainId": "0x14a34"
      },
      "additionalContracts": [],
      "isFixedGasLimit": false
    }
  ],
  "receipts": [
    {
      "status": "0x1",
      "cumulativeGasUsed": "0x1e65c2",
      "logs": [
        {
          "address": "0xc1868e054425d378095a003ecba3823a5d0135c9",
          "topics": [
            "0x61ed099e74a97a1d7f8bb0952a88ca8b7b8ebd00c126ea04671f92a81213318a"
          ],
          "data": "0x0000000000000000000000008a3d588d9f6ac041476b094f97ff94ec30169d3d000000000000000000000000000000000000000000000000000058664d5b0522",
          "blockHash": "0xb6c084bac72379c03d2ba12653e11bb840fedbbdc2ad7e05d0029b6ff7fb8afb",
          "blockNumber": "0xe2a723",
          "transactionHash": "0x3aabc369553600f63d2ddc9c7fa1fbf905ce45c57fdc7ff4bdf72923e560863a",
          "transactionIndex": "0x5",
          "logIndex": "0x1e",
          "removed": false
        },
        {
          "address": "0xc1868e054425d378095a003ecba3823a5d0135c9",
          "topics": [
            "0x07ea52d82345d6e838192107d8fd7123d9c2ec8e916cd0aad13fd2b60db24644"
          ],
          "data": "0x000000000000000000000000000000000000000000000000000000000000006000000000000000000000000000000000000000000000000000000000000000a000000000000000000000000000000000000000000000000000000000000000c00000000000000000000000000000000000000000000000000000000000000001000000000000000000000000e1a12515f9ab2764b887bf60b923ca494ebbb2d60000000000000000000000000000000000000000000000000000000000000000000000000000000000000000000000000000000000000000000000000000000100000000000000000000000000000000000000000000000000000ca4635070a8",
          "blockHash": "0xb6c084bac72379c03d2ba12653e11bb840fedbbdc2ad7e05d0029b6ff7fb8afb",
          "blockNumber": "0xe2a723",
          "transactionHash": "0x3aabc369553600f63d2ddc9c7fa1fbf905ce45c57fdc7ff4bdf72923e560863a",
          "transactionIndex": "0x5",
          "logIndex": "0x1f",
          "removed": false
        },
        {
          "address": "0x6edce65403992e310a62460808c4b910d972f10f",
          "topics": [
            "0x1ab700d4ced0c005b164c0f789fd09fcbb0156d4c2041b8a3bfbcd961cd1567f"
          ],
          "data": "0x00000000000000000000000000000000000000000000000000000000000000600000000000000000000000000000000000000000000000000000000000000180000000000000000000000000c1868e054425d378095a003ecba3823a5d0135c900000000000000000000000000000000000000000000000000000000000000f101000000000000000100009d35000000000000000000000000301c96ec196fb6e1fe8b7eb777f317e5261b37eb00009d27000000000000000000000000ea686366d6bb59e759fcab5cbd7b94963bf291e63268c0680bdb9c67c41a15a7363a41557381cb4bf5e2e5960d37a3deee90604c0000000000000000000000000000000000000000000000000000000000000020000000000000000000000000000000000000000000000000000000000000002168695f74686572655f647564655f77687974665f796f755f646f6e745f776f726b0000000000000000000000000000000000000000000000000000000000000000000000000000000000000000000000000000000000000000000000000000000000000000000000000000000000160003010011010000000000000000000000000001117000000000000000000000",
          "blockHash": "0xb6c084bac72379c03d2ba12653e11bb840fedbbdc2ad7e05d0029b6ff7fb8afb",
          "blockNumber": "0xe2a723",
          "transactionHash": "0x3aabc369553600f63d2ddc9c7fa1fbf905ce45c57fdc7ff4bdf72923e560863a",
          "transactionIndex": "0x5",
          "logIndex": "0x20",
          "removed": false
        }
      ],
      "logsBloom": "0x00000000000000000000000000000000000000000000000000000000000000000000000000000200200000000000000000000000000000000000000000000000000000000000000000000000000000000000000000000000000000020000000000000000000000008200000000000000000000000000000000000000000000000000000000000020000000080000000000000000000000000000000000000000000000008000000000100000000000000000000000400000000440000000000080000000000000000000000000000000000000000000000000000000000000000000040000000000000000000000002000000000000000000000000000000000",
      "type": "0x2",
      "transactionHash": "0x3aabc369553600f63d2ddc9c7fa1fbf905ce45c57fdc7ff4bdf72923e560863a",
      "transactionIndex": "0x5",
      "blockHash": "0xb6c084bac72379c03d2ba12653e11bb840fedbbdc2ad7e05d0029b6ff7fb8afb",
      "blockNumber": "0xe2a723",
      "gasUsed": "0x37a78",
      "effectiveGasPrice": "0xa13bf",
      "blobGasUsed": "0x0",
      "from": "0x12b2434a1022d5787bf06056f2885fe35de62bf8",
      "to": "0x301c96ec196fb6e1fe8b7eb777f317e5261b37eb",
      "contractAddress": null,
      "l1BaseFeeScalar": "0x44d",
      "l1BlobBaseFee": "0x6304a6b4ac",
      "l1BlobBaseFeeScalar": "0xa118b",
      "l1Fee": "0x1d7e96e3fc4a",
      "l1GasPrice": "0x19e9bf2c6",
      "l1GasUsed": "0x738"
    }
  ],
  "libraries": [],
  "pending": [],
  "returns": {},
  "timestamp": 1725476140,
  "chain": 84532,
  "commit": "da4a4b9"
}