{
  "transactions": [
    {
      "hash": "0x029e6cfe290230057c2d3d8f609d83400df7df2cd817ec27c367d2086dcdb0a1",
      "transactionType": "CALL",
      "contractName": null,
      "contractAddress": "0xd9c0269b0d6a8200f10c2a9a0a85ba400761befd",
      "function": "send(uint32,string)",
      "arguments": [
        "40232",
        "hi_there_dude_whytf_you_dont_work"
      ],
      "transaction": {
        "from": "0x12b2434a1022d5787bf06056f2885fe35de62bf8",
        "to": "0xd9c0269b0d6a8200f10c2a9a0a85ba400761befd",
        "gas": "0x51676",
        "value": "0xb1a2bc2ec50000",
        "input": "0xd3a3bedd0000000000000000000000000000000000000000000000000000000000009d280000000000000000000000000000000000000000000000000000000000000040000000000000000000000000000000000000000000000000000000000000002168695f74686572655f647564655f77687974665f796f755f646f6e745f776f726b00000000000000000000000000000000000000000000000000000000000000",
        "nonce": "0x7a",
        "chainId": "0x14a34"
      },
      "additionalContracts": [],
      "isFixedGasLimit": false
    }
  ],
  "receipts": [
    {
      "status": "0x1",
      "cumulativeGasUsed": "0xc2844",
      "logs": [
        {
          "address": "0xc1868e054425d378095a003ecba3823a5d0135c9",
          "topics": [
            "0x61ed099e74a97a1d7f8bb0952a88ca8b7b8ebd00c126ea04671f92a81213318a"
          ],
          "data": "0x0000000000000000000000008a3d588d9f6ac041476b094f97ff94ec30169d3d00000000000000000000000000000000000000000000000000004a4001282512",
          "blockHash": "0x82ffc6c762bc3ed4f43f679e4e969118b711e6f57e5a77e361af888386f2f72e",
          "blockNumber": "0xe2aefc",
          "transactionHash": "0x029e6cfe290230057c2d3d8f609d83400df7df2cd817ec27c367d2086dcdb0a1",
          "transactionIndex": "0x6",
          "logIndex": "0x6",
          "removed": false
        },
        {
          "address": "0xc1868e054425d378095a003ecba3823a5d0135c9",
          "topics": [
            "0x07ea52d82345d6e838192107d8fd7123d9c2ec8e916cd0aad13fd2b60db24644"
          ],
          "data": "0x000000000000000000000000000000000000000000000000000000000000006000000000000000000000000000000000000000000000000000000000000000a000000000000000000000000000000000000000000000000000000000000000c00000000000000000000000000000000000000000000000000000000000000001000000000000000000000000e1a12515f9ab2764b887bf60b923ca494ebbb2d600000000000000000000000000000000000000000000000000000000000000000000000000000000000000000000000000000000000000000000000000000001000000000000000000000000000000000000000000000000000003cb947eb288",
          "blockHash": "0x82ffc6c762bc3ed4f43f679e4e969118b711e6f57e5a77e361af888386f2f72e",
          "blockNumber": "0xe2aefc",
          "transactionHash": "0x029e6cfe290230057c2d3d8f609d83400df7df2cd817ec27c367d2086dcdb0a1",
          "transactionIndex": "0x6",
          "logIndex": "0x7",
          "removed": false
        },
        {
          "address": "0x6edce65403992e310a62460808c4b910d972f10f",
          "topics": [
            "0x1ab700d4ced0c005b164c0f789fd09fcbb0156d4c2041b8a3bfbcd961cd1567f"
          ],
          "data": "0x00000000000000000000000000000000000000000000000000000000000000600000000000000000000000000000000000000000000000000000000000000180000000000000000000000000c1868e054425d378095a003ecba3823a5d0135c900000000000000000000000000000000000000000000000000000000000000f101000000000000000100009d35000000000000000000000000d9c0269b0d6a8200f10c2a9a0a85ba400761befd00009d280000000000000000000000003255d41116a0bba5247aae9184f435547afb8d1c779af2e67e3812bb6cf28dbe130a335393032831ca6e0daf1aafb3bfadf3f8230000000000000000000000000000000000000000000000000000000000000020000000000000000000000000000000000000000000000000000000000000002168695f74686572655f647564655f77687974665f796f755f646f6e745f776f726b0000000000000000000000000000000000000000000000000000000000000000000000000000000000000000000000000000000000000000000000000000000000000000000000000000000000160003010011010000000000000000000000000000ea6000000000000000000000",
          "blockHash": "0x82ffc6c762bc3ed4f43f679e4e969118b711e6f57e5a77e361af888386f2f72e",
          "blockNumber": "0xe2aefc",
          "transactionHash": "0x029e6cfe290230057c2d3d8f609d83400df7df2cd817ec27c367d2086dcdb0a1",
          "transactionIndex": "0x6",
          "logIndex": "0x8",
          "removed": false
        }
      ],
      "logsBloom": "0x00000000000000000000000000000000000000000000000000000000000000000000000000000200200000000000000000000000000000000000000000000000000000000000000000000000000000000000000000000000000000020000000000000000000000008200000000000000000000000000000000000000000000000000000000000020000000080000000000000000000000000000000000000000000000008000000000100000000000000000000000400000000440000000000080000000000000000000000000000000000000000000000000000000000000000000040000000000000000000000002000000000000000000000000000000000",
      "type": "0x2",
      "transactionHash": "0x029e6cfe290230057c2d3d8f609d83400df7df2cd817ec27c367d2086dcdb0a1",
      "transactionIndex": "0x6",
      "blockHash": "0x82ffc6c762bc3ed4f43f679e4e969118b711e6f57e5a77e361af888386f2f72e",
      "blockNumber": "0xe2aefc",
      "gasUsed": "0x37a93",
      "effectiveGasPrice": "0xe22fe",
      "blobGasUsed": "0x0",
      "from": "0x12b2434a1022d5787bf06056f2885fe35de62bf8",
      "to": "0xd9c0269b0d6a8200f10c2a9a0a85ba400761befd",
      "contractAddress": null,
      "l1BaseFeeScalar": "0x44d",
      "l1BlobBaseFee": "0x29be853273",
      "l1BlobBaseFeeScalar": "0xa118b",
      "l1Fee": "0xc70f3d5e8e9",
      "l1GasPrice": "0x18cc02f09",
      "l1GasUsed": "0x738"
    }
  ],
  "libraries": [],
  "pending": [],
  "returns": {},
  "timestamp": 1725480153,
  "chain": 84532,
  "commit": "da4a4b9"
}