{
  "transactions": [
    {
      "hash": "0xa422a9094cd054449055ec8a72fe885b65c0c4dc645647146f716b36998c02bb",
      "transactionType": "CALL",
      "contractName": null,
      "contractAddress": "0x948ee90e44f83ee3f84b7f91230e17bfa0d0cd41",
      "function": "send(uint32,string)",
      "arguments": [
        "40231",
        "hi_there_dude_whytf_you_dont_work"
      ],
      "transaction": {
        "from": "0x12b2434a1022d5787bf06056f2885fe35de62bf8",
        "to": "0x948ee90e44f83ee3f84b7f91230e17bfa0d0cd41",
        "gas": "0x471b1",
        "value": "0xb1a2bc2ec50000",
        "input": "0xd3a3bedd0000000000000000000000000000000000000000000000000000000000009d270000000000000000000000000000000000000000000000000000000000000040000000000000000000000000000000000000000000000000000000000000002168695f74686572655f647564655f77687974665f796f755f646f6e745f776f726b00000000000000000000000000000000000000000000000000000000000000",
        "nonce": "0x65",
        "chainId": "0x14a34"
      },
      "additionalContracts": [],
      "isFixedGasLimit": false
    }
  ],
  "receipts": [
    {
      "status": "0x1",
      "cumulativeGasUsed": "0x8c11c3",
      "logs": [
        {
          "address": "0xc1868e054425d378095a003ecba3823a5d0135c9",
          "topics": [
            "0x61ed099e74a97a1d7f8bb0952a88ca8b7b8ebd00c126ea04671f92a81213318a"
          ],
          "data": "0x0000000000000000000000008a3d588d9f6ac041476b094f97ff94ec30169d3d000000000000000000000000000000000000000000000000000053da2621b522",
          "blockHash": "0xc6a7d2b4b8de42dd860bb0711e17406888bbb9fa3bdf23f1f70d2ce127a4e258",
          "blockNumber": "0xe2a3c7",
          "transactionHash": "0xa422a9094cd054449055ec8a72fe885b65c0c4dc645647146f716b36998c02bb",
          "transactionIndex": "0x18",
          "logIndex": "0x2b",
          "removed": false
        },
        {
          "address": "0xc1868e054425d378095a003ecba3823a5d0135c9",
          "topics": [
            "0x07ea52d82345d6e838192107d8fd7123d9c2ec8e916cd0aad13fd2b60db24644"
          ],
          "data": "0x000000000000000000000000000000000000000000000000000000000000006000000000000000000000000000000000000000000000000000000000000000a000000000000000000000000000000000000000000000000000000000000000c00000000000000000000000000000000000000000000000000000000000000001000000000000000000000000e1a12515f9ab2764b887bf60b923ca494ebbb2d60000000000000000000000000000000000000000000000000000000000000000000000000000000000000000000000000000000000000000000000000000000100000000000000000000000000000000000000000000000000000ca4635070a8",
          "blockHash": "0xc6a7d2b4b8de42dd860bb0711e17406888bbb9fa3bdf23f1f70d2ce127a4e258",
          "blockNumber": "0xe2a3c7",
          "transactionHash": "0xa422a9094cd054449055ec8a72fe885b65c0c4dc645647146f716b36998c02bb",
          "transactionIndex": "0x18",
          "logIndex": "0x2c",
          "removed": false
        },
        {
          "address": "0x6edce65403992e310a62460808c4b910d972f10f",
          "topics": [
            "0x1ab700d4ced0c005b164c0f789fd09fcbb0156d4c2041b8a3bfbcd961cd1567f"
          ],
          "data": "0x00000000000000000000000000000000000000000000000000000000000000600000000000000000000000000000000000000000000000000000000000000180000000000000000000000000c1868e054425d378095a003ecba3823a5d0135c900000000000000000000000000000000000000000000000000000000000000f101000000000000000200009d35000000000000000000000000948ee90e44f83ee3f84b7f91230e17bfa0d0cd4100009d27000000000000000000000000ab1f48f42b7f3b34b590e7ae39d96aa3ee7904060f18655ed8bd61f1b31007b73220c1adf9a21678548b6cb4719d1804dc153a590000000000000000000000000000000000000000000000000000000000000020000000000000000000000000000000000000000000000000000000000000002168695f74686572655f647564655f77687974665f796f755f646f6e745f776f726b00000000000000000000000000000000000000000000000000000000000000000000000000000000000000000000000000000000000000000000000000000000000000000000000000000000001600030100110100000000000000000000000000004e2000000000000000000000",
          "blockHash": "0xc6a7d2b4b8de42dd860bb0711e17406888bbb9fa3bdf23f1f70d2ce127a4e258",
          "blockNumber": "0xe2a3c7",
          "transactionHash": "0xa422a9094cd054449055ec8a72fe885b65c0c4dc645647146f716b36998c02bb",
          "transactionIndex": "0x18",
          "logIndex": "0x2d",
          "removed": false
        }
      ],
      "logsBloom": "0x00000000000000000000000000000000000000000000000000000000000000000000000000000200200000000000000000000000000000000000000000000000000000000000000000000000000000000000000000000000000000020000000000000000000000008200000000000000000000000000000000000000000000000000000000000020000000080000000000000000000000000000000000000000000000008000000000100000000000000000000000400000000440000000000080000000000000000000000000000000000000000000000000000000000000000000040000000000000000000000002000000000000000000000000000000000",
      "type": "0x2",
      "transactionHash": "0xa422a9094cd054449055ec8a72fe885b65c0c4dc645647146f716b36998c02bb",
      "transactionIndex": "0x18",
      "blockHash": "0xc6a7d2b4b8de42dd860bb0711e17406888bbb9fa3bdf23f1f70d2ce127a4e258",
      "blockNumber": "0xe2a3c7",
      "gasUsed": "0x337ac",
      "effectiveGasPrice": "0x16a",
      "blobGasUsed": "0x0",
      "from": "0x12b2434a1022d5787bf06056f2885fe35de62bf8",
      "to": "0x948ee90e44f83ee3f84b7f91230e17bfa0d0cd41",
      "contractAddress": null,
      "l1BaseFeeScalar": "0x44d",
      "l1BlobBaseFee": "0xa4f57ccd96",
      "l1BlobBaseFeeScalar": "0xa118b",
      "l1Fee": "0x2fb9a6e9aa43",
      "l1GasPrice": "0x449d2d28d",
      "l1GasUsed": "0x702"
    }
  ],
  "libraries": [],
  "pending": [],
  "returns": {},
  "timestamp": 1725474416,
  "chain": 84532,
  "commit": "da4a4b9"
}