{
  "transactions": [
    {
      "hash": "0xd7be6d79bf52cd946463ef3167a9ca1fbb04870bfc700bcdc0a8bef69da325d4",
      "transactionType": "CALL",
      "contractName": null,
      "contractAddress": "0x2aef4ab12a5b8dbd420abc44ce5c3ac562352526",
      "function": "send(uint32,string)",
      "arguments": [
        "40232",
        "hi_there_dude_whytf_you_dont_work"
      ],
      "transaction": {
        "from": "0x12b2434a1022d5787bf06056f2885fe35de62bf8",
        "to": "0x2aef4ab12a5b8dbd420abc44ce5c3ac562352526",
        "gas": "0x471d7",
        "value": "0x8e1bc9bf040000",
        "input": "0xd3a3bedd0000000000000000000000000000000000000000000000000000000000009d280000000000000000000000000000000000000000000000000000000000000040000000000000000000000000000000000000000000000000000000000000002168695f74686572655f647564655f77687974665f796f755f646f6e745f776f726b00000000000000000000000000000000000000000000000000000000000000",
        "nonce": "0x80",
        "chainId": "0x14a34"
      },
      "additionalContracts": [],
      "isFixedGasLimit": false
    }
  ],
  "receipts": [
    {
      "status": "0x1",
      "cumulativeGasUsed": "0x1e33d9",
      "logs": [
        {
          "address": "0xc1868e054425d378095a003ecba3823a5d0135c9",
          "topics": [
            "0x61ed099e74a97a1d7f8bb0952a88ca8b7b8ebd00c126ea04671f92a81213318a"
          ],
          "data": "0x0000000000000000000000008a3d588d9f6ac041476b094f97ff94ec30169d3d00000000000000000000000000000000000000000000000000004a4001282512",
          "blockHash": "0xe53cdae42ba4389d3f7ab39999d8296115b60b17c507a822dc6fd335db9ca4c0",
          "blockNumber": "0xe2b5b1",
          "transactionHash": "0xd7be6d79bf52cd946463ef3167a9ca1fbb04870bfc700bcdc0a8bef69da325d4",
          "transactionIndex": "0xb",
          "logIndex": "0x21",
          "removed": false
        },
        {
          "address": "0xc1868e054425d378095a003ecba3823a5d0135c9",
          "topics": [
            "0x07ea52d82345d6e838192107d8fd7123d9c2ec8e916cd0aad13fd2b60db24644"
          ],
          "data": "0x000000000000000000000000000000000000000000000000000000000000006000000000000000000000000000000000000000000000000000000000000000a000000000000000000000000000000000000000000000000000000000000000c00000000000000000000000000000000000000000000000000000000000000001000000000000000000000000e1a12515f9ab2764b887bf60b923ca494ebbb2d600000000000000000000000000000000000000000000000000000000000000000000000000000000000000000000000000000000000000000000000000000001000000000000000000000000000000000000000000000000000003cb947eb288",
          "blockHash": "0xe53cdae42ba4389d3f7ab39999d8296115b60b17c507a822dc6fd335db9ca4c0",
          "blockNumber": "0xe2b5b1",
          "transactionHash": "0xd7be6d79bf52cd946463ef3167a9ca1fbb04870bfc700bcdc0a8bef69da325d4",
          "transactionIndex": "0xb",
          "logIndex": "0x22",
          "removed": false
        },
        {
          "address": "0x6edce65403992e310a62460808c4b910d972f10f",
          "topics": [
            "0x1ab700d4ced0c005b164c0f789fd09fcbb0156d4c2041b8a3bfbcd961cd1567f"
          ],
          "data": "0x00000000000000000000000000000000000000000000000000000000000000600000000000000000000000000000000000000000000000000000000000000180000000000000000000000000c1868e054425d378095a003ecba3823a5d0135c900000000000000000000000000000000000000000000000000000000000000f101000000000000000200009d350000000000000000000000002aef4ab12a5b8dbd420abc44ce5c3ac56235252600009d28000000000000000000000000141ea5d5536d81123b4f34fc3f3aebd9603aa1ab1942dcd5c3954194c82405d9f3f5333daf27b660f69158bb057549c066d133500000000000000000000000000000000000000000000000000000000000000020000000000000000000000000000000000000000000000000000000000000002168695f74686572655f647564655f77687974665f796f755f646f6e745f776f726b0000000000000000000000000000000000000000000000000000000000000000000000000000000000000000000000000000000000000000000000000000000000000000000000000000000000160003010011010000000000000000000000000000ea6000000000000000000000",
          "blockHash": "0xe53cdae42ba4389d3f7ab39999d8296115b60b17c507a822dc6fd335db9ca4c0",
          "blockNumber": "0xe2b5b1",
          "transactionHash": "0xd7be6d79bf52cd946463ef3167a9ca1fbb04870bfc700bcdc0a8bef69da325d4",
          "transactionIndex": "0xb",
          "logIndex": "0x23",
          "removed": false
        }
      ],
      "logsBloom": "0x00000000000000000000000000000000000000000000000000000000000000000000000000000200200000000000000000000000000000000000000000000000000000000000000000000000000000000000000000000000000000020000000000000000000000008200000000000000000000000000000000000000000000000000000000000020000000080000000000000000000000000000000000000000000000008000000000100000000000000000000000400000000440000000000080000000000000000000000000000000000000000000000000000000000000000000040000000000000000000000002000000000000000000000000000000000",
      "type": "0x2",
      "transactionHash": "0xd7be6d79bf52cd946463ef3167a9ca1fbb04870bfc700bcdc0a8bef69da325d4",
      "transactionIndex": "0xb",
      "blockHash": "0xe53cdae42ba4389d3f7ab39999d8296115b60b17c507a822dc6fd335db9ca4c0",
      "blockNumber": "0xe2b5b1",
      "gasUsed": "0x337c7",
      "effectiveGasPrice": "0xf435c",
      "blobGasUsed": "0x0",
      "from": "0x12b2434a1022d5787bf06056f2885fe35de62bf8",
      "to": "0x2aef4ab12a5b8dbd420abc44ce5c3ac562352526",
      "contractAddress": null,
      "l1BaseFeeScalar": "0x44d",
      "l1BlobBaseFee": "0x156a6a80b8",
      "l1BlobBaseFeeScalar": "0xa118b",
      "l1Fee": "0x6700c6a307d",
      "l1GasPrice": "0x1e6a387ed",
      "l1GasUsed": "0x745"
    }
  ],
  "libraries": [],
  "pending": [],
  "returns": {},
  "timestamp": 1725483593,
  "chain": 84532,
  "commit": "da4a4b9"
}