{
  "transactions": [
    {
      "hash": "0xfe041e0e7c6b249ae2a56c622be66b80e38c388eff878393785ec725d2787f1f",
      "transactionType": "CALL",
      "contractName": null,
      "contractAddress": "0xe0112d460c99b48fbcabe6148ff3f65ac60e2497",
      "function": "approve(address,uint256)",
      "arguments": [
        "0xD163189d9ADd5eE1b740846E2b736823aA8D069c",
        "2000000"
      ],
      "transaction": {
        "from": "0xb0efd2b19a5698a9c830548ac22708a28c9d4552",
        "to": "0xe0112d460c99b48fbcabe6148ff3f65ac60e2497",
        "gas": "0x94ae",
        "value": "0x0",
        "input": "0x095ea7b3000000000000000000000000d163189d9add5ee1b740846e2b736823aa8d069c00000000000000000000000000000000000000000000000000000000001e8480",
        "nonce": "0x12",
        "chainId": "0x128"
      },
      "additionalContracts": [],
      "isFixedGasLimit": false
    },
    {
      "hash": "0xa55c122cde9faa29f772b6c36aaff478d3ed380bee6cd6e3b1d7eb8a9d3bbad0",
      "transactionType": "CALL",
      "contractName": null,
      "contractAddress": "0xd163189d9add5ee1b740846e2b736823aa8d069c",
      "function": "lockTokens(uint256,uint256,uint256,uint32)",
      "arguments": [
        "0",
        "2000000",
        "1000000",
        "296"
      ],
      "transaction": {
        "from": "0xb0efd2b19a5698a9c830548ac22708a28c9d4552",
        "to": "0xd163189d9add5ee1b740846e2b736823aa8d069c",
        "gas": "0x8be16",
        "value": "0x2aa1efb94e0000",
        "input": "0xfb4f2057000000000000000000000000000000000000000000000000000000000000000000000000000000000000000000000000000000000000000000000000001e848000000000000000000000000000000000000000000000000000000000000f42400000000000000000000000000000000000000000000000000000000000000128",
        "nonce": "0x13",
        "chainId": "0x128"
      },
      "additionalContracts": [],
      "isFixedGasLimit": false
    }
  ],
  "receipts": [
    {
      "status": "0x1",
      "cumulativeGasUsed": "0x13aa6a",
      "logs": [
        {
          "address": "0xe0112d460c99b48fbcabe6148ff3f65ac60e2497",
          "topics": [
            "0x8c5be1e5ebec7d5bd14f71427d1e84f3dd0314c0f7b2291e5b200ac8c7c3b925",
            "0x000000000000000000000000b0efd2b19a5698a9c830548ac22708a28c9d4552",
            "0x000000000000000000000000d163189d9add5ee1b740846e2b736823aa8d069c"
          ],
          "data": "0x00000000000000000000000000000000000000000000000000000000001e8480",
          "blockHash": "0x6c2dd43668ec27abffab8eb330da37ae9ed27636285739e29f5d5b0e8f76fc15",
          "blockNumber": "0x8702a3",
          "transactionHash": "0xfe041e0e7c6b249ae2a56c622be66b80e38c388eff878393785ec725d2787f1f",
          "transactionIndex": "0x1",
          "logIndex": "0x0",
          "removed": false
        }
      ],
      "logsBloom": "0x00000000000000000000000000000000000000000000000000000000000000000000000000000000000040000000000000004000000000000000000000200000000000000800000000000000000000000000000000000201000000000000000000000000000000000000000400000000000000000000000040000000000000000000000400000000000000000000000000000000000000000000000000000000020000000000000000000000000004000000000000000000000000000000000000000000000000000000000000000000000000000000000000000000000000000010000000000000000000000000000000000000000000000000000000000000",
      "type": "0x2",
      "transactionHash": "0xfe041e0e7c6b249ae2a56c622be66b80e38c388eff878393785ec725d2787f1f",
      "transactionIndex": "0x1",
      "blockHash": "0x6c2dd43668ec27abffab8eb330da37ae9ed27636285739e29f5d5b0e8f76fc15",
      "blockNumber": "0x8702a3",
      "gasUsed": "0x76f2",
      "effectiveGasPrice": "0x1a7c0741800",
      "from": "0xb0efd2b19a5698a9c830548ac22708a28c9d4552",
      "to": "0xe0112d460c99b48fbcabe6148ff3f65ac60e2497",
      "contractAddress": "0xe0112d460c99b48fbcabe6148ff3f65ac60e2497",
      "root": "0x56e81f171bcc55a6ff8345e692c0f86e5b48e01b996cadc001622fb5e363b421"
    }
  ],
  "libraries": [],
  "pending": [],
  "returns": {},
  "timestamp": 1725655226,
  "chain": 296,
  "commit": "37e882d"
}