{
  "transactions": [
    {
      "hash": "0xbc690058eee59b0c916c8708b9a59326321e70ca4b735e8992f05f83ce8a2901",
      "transactionType": "CALL",
      "contractName": null,
      "contractAddress": "0xe0112d460c99b48fbcabe6148ff3f65ac60e2497",
      "function": "approve(address,uint256)",
      "arguments": [
        "0x58E294d6B380552C0Cd1c6fEd755E2260342b12F",
        "2000000"
      ],
      "transaction": {
        "from": "0xb0efd2b19a5698a9c830548ac22708a28c9d4552",
        "to": "0xe0112d460c99b48fbcabe6148ff3f65ac60e2497",
        "gas": "0xf7ca",
        "value": "0x0",
        "input": "0x095ea7b300000000000000000000000058e294d6b380552c0cd1c6fed755e2260342b12f00000000000000000000000000000000000000000000000000000000001e8480",
        "nonce": "0x1b",
        "chainId": "0x128"
      },
      "additionalContracts": [],
      "isFixedGasLimit": false
    },
    {
      "hash": "0x1030822eb8d91ef01226c45bacf5c6a2ba13503548e38523850be2de584aed82",
      "transactionType": "CALL",
      "contractName": null,
      "contractAddress": "0x58e294d6b380552c0cd1c6fed755e2260342b12f",
      "function": "lockTokens(uint256,uint256,uint256,uint32)",
      "arguments": [
        "0",
        "2000000",
        "1000000",
        "296"
      ],
      "transaction": {
        "from": "0xb0efd2b19a5698a9c830548ac22708a28c9d4552",
        "to": "0x58e294d6b380552c0cd1c6fed755e2260342b12f",
        "gas": "0x8b992",
        "value": "0x2aa1efb94e0000",
        "input": "0xfb4f2057000000000000000000000000000000000000000000000000000000000000000000000000000000000000000000000000000000000000000000000000001e848000000000000000000000000000000000000000000000000000000000000f42400000000000000000000000000000000000000000000000000000000000000128",
        "nonce": "0x1c",
        "chainId": "0x128"
      },
      "additionalContracts": [],
      "isFixedGasLimit": false
    }
  ],
  "receipts": [
    {
      "status": "0x1",
      "cumulativeGasUsed": "0x7c118",
      "logs": [
        {
          "address": "0xe0112d460c99b48fbcabe6148ff3f65ac60e2497",
          "topics": [
            "0x8c5be1e5ebec7d5bd14f71427d1e84f3dd0314c0f7b2291e5b200ac8c7c3b925",
            "0x000000000000000000000000b0efd2b19a5698a9c830548ac22708a28c9d4552",
            "0x00000000000000000000000058e294d6b380552c0cd1c6fed755e2260342b12f"
          ],
          "data": "0x00000000000000000000000000000000000000000000000000000000001e8480",
          "blockHash": "0x76465d673da0facfc0b694265f169585e70a0c7937def4d708a41991479a0930",
          "blockNumber": "0x8706bb",
          "transactionHash": "0xbc690058eee59b0c916c8708b9a59326321e70ca4b735e8992f05f83ce8a2901",
          "transactionIndex": "0x1",
          "logIndex": "0x0",
          "removed": false
        }
      ],
      "logsBloom": "0x00000000000000000000000000000000000000000000000000000000000000000080000000000000000000000000000000004000000000000000000000200000000000000000000000000000000000000000000000000201000000000000000000000000000000000000000400000000000000000001000000000000000000000000000400000000000000000000000000000000000000000000000000000000020000000000000000000000000004000000000000000000000000000000000000000000000000000000000000000000000000000000000000000000000000000010000000000000000000000000000000000002000000000000000000000000",
      "type": "0x2",
      "transactionHash": "0xbc690058eee59b0c916c8708b9a59326321e70ca4b735e8992f05f83ce8a2901",
      "transactionIndex": "0x1",
      "blockHash": "0x76465d673da0facfc0b694265f169585e70a0c7937def4d708a41991479a0930",
      "blockNumber": "0x8706bb",
      "gasUsed": "0xc63c",
      "effectiveGasPrice": "0x1a7c0741800",
      "from": "0xb0efd2b19a5698a9c830548ac22708a28c9d4552",
      "to": "0xe0112d460c99b48fbcabe6148ff3f65ac60e2497",
      "contractAddress": "0xe0112d460c99b48fbcabe6148ff3f65ac60e2497",
      "root": "0x56e81f171bcc55a6ff8345e692c0f86e5b48e01b996cadc001622fb5e363b421"
    }
  ],
  "libraries": [],
  "pending": [],
  "returns": {},
  "timestamp": 1725657349,
  "chain": 296,
  "commit": "37e882d"
}