{
  "transactions": [
    {
      "hash": "0x9d7b8b81db4ff762536d9693b28d152a7a7ce297797a7c38e248732cd047571a",
      "transactionType": "CALL",
      "contractName": null,
      "contractAddress": "0x09dc432d56616a204b79abad351d84ad78153d5d",
      "function": "send(uint32,string,bytes)",
      "arguments": [
        "40245",
        "0x348923423fuckyou",
        "0x00030100110100000000000000000000000000004e20"
      ],
      "transaction": {
        "from": "0x12b2434a1022d5787bf06056f2885fe35de62bf8",
        "to": "0x09dc432d56616a204b79abad351d84ad78153d5d",
        "gas": "0x4761f",
        "value": "0x2386f26fc10000",
        "input": "0xe0539e580000000000000000000000000000000000000000000000000000000000009d35000000000000000000000000000000000000000000000000000000000000006000000000000000000000000000000000000000000000000000000000000000a0000000000000000000000000000000000000000000000000000000000000001230783334383932333432336675636b796f750000000000000000000000000000000000000000000000000000000000000000000000000000000000000000001600030100110100000000000000000000000000004e2000000000000000000000",
        "nonce": "0x34",
        "chainId": "0xaa36a7"
      },
      "additionalContracts": [],
      "isFixedGasLimit": false
    }
  ],
  "receipts": [
    {
      "status": "0x1",
      "cumulativeGasUsed": "0xd6d919",
      "logs": [
        {
          "address": "0xcc1ae8cf5d3904cef3360a9532b477529b177cce",
          "topics": [
            "0x61ed099e74a97a1d7f8bb0952a88ca8b7b8ebd00c126ea04671f92a81213318a"
          ],
          "data": "0x000000000000000000000000718b92b5cb0a5552039b593faf724d182a881eda00000000000000000000000000000000000000000000000000004e52f368c37a",
          "blockHash": "0xa1d9b181342a0dc6da36d448312ad6cc0cf520a58f6024d551efeda70326f033",
          "blockNumber": "0x652fb8",
          "transactionHash": "0x9d7b8b81db4ff762536d9693b28d152a7a7ce297797a7c38e248732cd047571a",
          "transactionIndex": "0x51",
          "logIndex": "0x6c",
          "removed": false
        },
        {
          "address": "0xcc1ae8cf5d3904cef3360a9532b477529b177cce",
          "topics": [
            "0x07ea52d82345d6e838192107d8fd7123d9c2ec8e916cd0aad13fd2b60db24644"
          ],
          "data": "0x000000000000000000000000000000000000000000000000000000000000006000000000000000000000000000000000000000000000000000000000000000a000000000000000000000000000000000000000000000000000000000000000c000000000000000000000000000000000000000000000000000000000000000010000000000000000000000008eebf8b423b73bfca51a1db4b7354aa0bfca91930000000000000000000000000000000000000000000000000000000000000000000000000000000000000000000000000000000000000000000000000000000100000000000000000000000000000000000000000000000000000401019c06f3",
          "blockHash": "0xa1d9b181342a0dc6da36d448312ad6cc0cf520a58f6024d551efeda70326f033",
          "blockNumber": "0x652fb8",
          "transactionHash": "0x9d7b8b81db4ff762536d9693b28d152a7a7ce297797a7c38e248732cd047571a",
          "transactionIndex": "0x51",
          "logIndex": "0x6d",
          "removed": false
        },
        {
          "address": "0x6edce65403992e310a62460808c4b910d972f10f",
          "topics": [
            "0x1ab700d4ced0c005b164c0f789fd09fcbb0156d4c2041b8a3bfbcd961cd1567f"
          ],
          "data": "0x00000000000000000000000000000000000000000000000000000000000000600000000000000000000000000000000000000000000000000000000000000160000000000000000000000000cc1ae8cf5d3904cef3360a9532b477529b177cce00000000000000000000000000000000000000000000000000000000000000d101000000000000000200009ce100000000000000000000000009dc432d56616a204b79abad351d84ad78153d5d00009d3500000000000000000000000089ad215ef488e254b804162c83d6bc7de0e1519c075474984ad5a65f14e13c9adce188121fd5ecc8c49d89b026bd6444a45c89020000000000000000000000000000000000000000000000000000000000000020000000000000000000000000000000000000000000000000000000000000001230783334383932333432336675636b796f750000000000000000000000000000000000000000000000000000000000000000000000000000000000000000000000000000000000000000000000001600030100110100000000000000000000000000004e2000000000000000000000",
          "blockHash": "0xa1d9b181342a0dc6da36d448312ad6cc0cf520a58f6024d551efeda70326f033",
          "blockNumber": "0x652fb8",
          "transactionHash": "0x9d7b8b81db4ff762536d9693b28d152a7a7ce297797a7c38e248732cd047571a",
          "transactionIndex": "0x51",
          "logIndex": "0x6e",
          "removed": false
        }
      ],
      "logsBloom": "0x00000000000000000000000000000000000000000000000000000000000100000000000000000000200000000000000000000000000000000000000000000000000000000000000000000000000000000000000000000000000000000000000000000000000000008200000000000000000000000000000000000000000000000000000000000020000000080000000000000000000000000000000000000000000000008000000000100000000000000000000000400000000440000000000000000000000000000000000000000000000000080000000000000000000000000000040000000000000000000000002000000000000000000000000000000020",
      "type": "0x2",
      "transactionHash": "0x9d7b8b81db4ff762536d9693b28d152a7a7ce297797a7c38e248732cd047571a",
      "transactionIndex": "0x51",
      "blockHash": "0xa1d9b181342a0dc6da36d448312ad6cc0cf520a58f6024d551efeda70326f033",
      "blockNumber": "0x652fb8",
      "gasUsed": "0x33ae0",
      "effectiveGasPrice": "0xd31cf72be",
      "from": "0x12b2434a1022d5787bf06056f2885fe35de62bf8",
      "to": "0x09dc432d56616a204b79abad351d84ad78153d5d",
      "contractAddress": null
    }
  ],
  "libraries": [],
  "pending": [],
  "returns": {},
  "timestamp": 1725454134,
  "chain": 11155111,
  "commit": "da4a4b9"
}