{
  "transactions": [
    {
      "hash": "0x572653de8e6b8f5d0b0d9019e48aa6d033bf1d10e82edda51ec58f172a98eba3",
      "transactionType": "CALL",
      "contractName": null,
      "contractAddress": "0x09dc432d56616a204b79abad351d84ad78153d5d",
      "function": "send(uint32,string,bytes)",
      "arguments": [
        "40245",
        "hi_there",
        "0x00030100110100000000000000000000000000004e20"
      ],
      "transaction": {
        "from": "0x12b2434a1022d5787bf06056f2885fe35de62bf8",
        "to": "0x09dc432d56616a204b79abad351d84ad78153d5d",
        "gas": "0x4d1bc",
        "value": "0x16345785d8a0000",
        "input": "0xe0539e580000000000000000000000000000000000000000000000000000000000009d35000000000000000000000000000000000000000000000000000000000000006000000000000000000000000000000000000000000000000000000000000000a0000000000000000000000000000000000000000000000000000000000000000868695f7468657265000000000000000000000000000000000000000000000000000000000000000000000000000000000000000000000000000000000000001600030100110100000000000000000000000000004e2000000000000000000000",
        "nonce": "0x24",
        "chainId": "0xaa36a7"
      },
      "additionalContracts": [],
      "isFixedGasLimit": false
    }
  ],
  "receipts": [
    {
      "status": "0x1",
      "cumulativeGasUsed": "0x1c8243f",
      "logs": [
        {
          "address": "0xcc1ae8cf5d3904cef3360a9532b477529b177cce",
          "topics": [
            "0x61ed099e74a97a1d7f8bb0952a88ca8b7b8ebd00c126ea04671f92a81213318a"
          ],
          "data": "0x000000000000000000000000718b92b5cb0a5552039b593faf724d182a881eda000000000000000000000000000000000000000000000000000045f4b2c02e22",
          "blockHash": "0x0103776597b1156de3074453bf0b8c5df7b31d75b899ab4b425a205da5676258",
          "blockNumber": "0x64fd8a",
          "transactionHash": "0x572653de8e6b8f5d0b0d9019e48aa6d033bf1d10e82edda51ec58f172a98eba3",
          "transactionIndex": "0x73",
          "logIndex": "0x113",
          "removed": false
        },
        {
          "address": "0xcc1ae8cf5d3904cef3360a9532b477529b177cce",
          "topics": [
            "0x07ea52d82345d6e838192107d8fd7123d9c2ec8e916cd0aad13fd2b60db24644"
          ],
          "data": "0x000000000000000000000000000000000000000000000000000000000000006000000000000000000000000000000000000000000000000000000000000000a000000000000000000000000000000000000000000000000000000000000000c000000000000000000000000000000000000000000000000000000000000000010000000000000000000000008eebf8b423b73bfca51a1db4b7354aa0bfca91930000000000000000000000000000000000000000000000000000000000000000000000000000000000000000000000000000000000000000000000000000000100000000000000000000000000000000000000000000000000000395e4c6cc48",
          "blockHash": "0x0103776597b1156de3074453bf0b8c5df7b31d75b899ab4b425a205da5676258",
          "blockNumber": "0x64fd8a",
          "transactionHash": "0x572653de8e6b8f5d0b0d9019e48aa6d033bf1d10e82edda51ec58f172a98eba3",
          "transactionIndex": "0x73",
          "logIndex": "0x114",
          "removed": false
        },
        {
          "address": "0x6edce65403992e310a62460808c4b910d972f10f",
          "topics": [
            "0x1ab700d4ced0c005b164c0f789fd09fcbb0156d4c2041b8a3bfbcd961cd1567f"
          ],
          "data": "0x00000000000000000000000000000000000000000000000000000000000000600000000000000000000000000000000000000000000000000000000000000160000000000000000000000000cc1ae8cf5d3904cef3360a9532b477529b177cce00000000000000000000000000000000000000000000000000000000000000d101000000000000000100009ce100000000000000000000000009dc432d56616a204b79abad351d84ad78153d5d00009d3500000000000000000000000089ad215ef488e254b804162c83d6bc7de0e1519c65c9d7e942ead770b5ca2745e70fb01a5a9bfc31cc7a55a7229da235d3b25ad60000000000000000000000000000000000000000000000000000000000000020000000000000000000000000000000000000000000000000000000000000000868695f7468657265000000000000000000000000000000000000000000000000000000000000000000000000000000000000000000000000000000000000000000000000000000000000000000001600030100110100000000000000000000000000004e2000000000000000000000",
          "blockHash": "0x0103776597b1156de3074453bf0b8c5df7b31d75b899ab4b425a205da5676258",
          "blockNumber": "0x64fd8a",
          "transactionHash": "0x572653de8e6b8f5d0b0d9019e48aa6d033bf1d10e82edda51ec58f172a98eba3",
          "transactionIndex": "0x73",
          "logIndex": "0x115",
          "removed": false
        }
      ],
      "logsBloom": "0x00000000000000000000000000000000000000000000000000000000000100000000000000000000200000000000000000000000000000000000000000000000000000000000000000000000000000000000000000000000000000000000000000000000000000008200000000000000000000000000000000000000000000000000000000000020000000080000000000000000000000000000000000000000000000008000000000100000000000000000000000400000000440000000000000000000000000000000000000000000000000080000000000000000000000000000040000000000000000000000002000000000000000000000000000000020",
      "type": "0x2",
      "transactionHash": "0x572653de8e6b8f5d0b0d9019e48aa6d033bf1d10e82edda51ec58f172a98eba3",
      "transactionIndex": "0x73",
      "blockHash": "0x0103776597b1156de3074453bf0b8c5df7b31d75b899ab4b425a205da5676258",
      "blockNumber": "0x64fd8a",
      "gasUsed": "0x37d34",
      "effectiveGasPrice": "0x71f365bda",
      "from": "0x12b2434a1022d5787bf06056f2885fe35de62bf8",
      "to": "0x09dc432d56616a204b79abad351d84ad78153d5d",
      "contractAddress": null
    }
  ],
  "libraries": [],
  "pending": [],
  "returns": {},
  "timestamp": 1725275500,
  "chain": 11155111,
  "commit": "152a71d"
}