{
  "transactions": [
    {
      "hash": "0x557b040e07162947d0398f877c0d73d2ae5295207179c86bde8d4262ab1b5de0",
      "transactionType": "CALL",
      "contractName": null,
      "contractAddress": "0x89ad215ef488e254b804162c83d6bc7de0e1519c",
      "function": "setPeer(uint32,bytes32)",
      "arguments": [
        "40161",
        "0x00000000000000000000000009dc432d56616a204b79abad351d84ad78153d5d"
      ],
      "transaction": {
        "from": "0x12b2434a1022d5787bf06056f2885fe35de62bf8",
        "to": "0x89ad215ef488e254b804162c83d6bc7de0e1519c",
        "gas": "0x10181",
        "value": "0x0",
        "input": "0x3400288b0000000000000000000000000000000000000000000000000000000000009ce100000000000000000000000009dc432d56616a204b79abad351d84ad78153d5d",
        "nonce": "0x3b",
        "chainId": "0x14a34"
      },
      "additionalContracts": [],
      "isFixedGasLimit": false
    }
  ],
  "receipts": [
    {
      "status": "0x1",
      "cumulativeGasUsed": "0x26f6f6",
      "logs": [
        {
          "address": "0x89ad215ef488e254b804162c83d6bc7de0e1519c",
          "topics": [
            "0x238399d427b947898edb290f5ff0f9109849b1c3ba196a42e35f00c50a54b98b"
          ],
          "data": "0x0000000000000000000000000000000000000000000000000000000000009ce100000000000000000000000009dc432d56616a204b79abad351d84ad78153d5d",
          "blockHash": "0xcdb896f7c3f1787426c35d33d214583b94eafd977b2610db03f7e79e3046d1b7",
          "blockNumber": "0xe111d4",
          "transactionHash": "0x557b040e07162947d0398f877c0d73d2ae5295207179c86bde8d4262ab1b5de0",
          "transactionIndex": "0x9",
          "logIndex": "0x2f",
          "removed": false
        }
      ],
      "logsBloom": "0x00000000000000000000000000000000000000000000000000000000000000000000000040000000000000000000000000000000000000000800000000000000000000000000000000000000000000000000000000000000000000000000000000000000000000000000000000000000000000000000000020000000000000000000000000000000000000000000000000000000000000000000000000000000000000000000000000000000000000000000000000000000000002000000000000001000000000000000000000000000000000000000000000040000000000000000000000000000000000000000000000000000000000000000000000000000",
      "type": "0x2",
      "transactionHash": "0x557b040e07162947d0398f877c0d73d2ae5295207179c86bde8d4262ab1b5de0",
      "transactionIndex": "0x9",
      "blockHash": "0xcdb896f7c3f1787426c35d33d214583b94eafd977b2610db03f7e79e3046d1b7",
      "blockNumber": "0xe111d4",
      "gasUsed": "0xba6f",
      "effectiveGasPrice": "0x6d0",
      "blobGasUsed": "0x0",
      "from": "0x12b2434a1022d5787bf06056f2885fe35de62bf8",
      "to": "0x89ad215ef488e254b804162c83d6bc7de0e1519c",
      "contractAddress": null,
      "l1BaseFeeScalar": "0x44d",
      "l1BlobBaseFee": "0xeadf88d1f3",
      "l1BlobBaseFeeScalar": "0xa118b",
      "l1Fee": "0x3c9de98f8e16",
      "l1GasPrice": "0xb3ac3feae",
      "l1GasUsed": "0x640"
    }
  ],
  "libraries": [],
  "pending": [],
  "returns": {},
  "timestamp": 1725268623,
  "chain": 84532,
  "commit": "5d58611"
}