{
  "transactions": [
    {
      "hash": "0x18fdb9e0688d3075dae2968b27a65bd31c50bbef061e12e52cd3ccc77fc7d13c",
      "transactionType": "CALL",
      "contractName": null,
      "contractAddress": "0x5fd84259d66cd46123540766be93dfe6d43130d7",
      "function": "approve(address,uint256)",
      "arguments": [
        "0xD95e48a59098C53Aa070Fc026970F44e9175b4e1",
        "2000000"
      ],
      "transaction": {
        "from": "0x12b2434a1022d5787bf06056f2885fe35de62bf8",
        "to": "0x5fd84259d66cd46123540766be93dfe6d43130d7",
        "gas": "0x12b1b",
        "value": "0x0",
        "input": "0x095ea7b3000000000000000000000000d95e48a59098c53aa070fc026970f44e9175b4e100000000000000000000000000000000000000000000000000000000001e8480",
        "nonce": "0x52",
        "chainId": "0xaa37dc"
      },
      "additionalContracts": [],
      "isFixedGasLimit": false
    },
    {
      "hash": "0x588a2c9a379f3c1da75c33beacc516662fe8f856a554515e8d30280fc35d8339",
      "transactionType": "CALL",
      "contractName": null,
      "contractAddress": "0xd95e48a59098c53aa070fc026970f44e9175b4e1",
      "function": "lockTokens(uint256,uint256,uint256,uint32)",
      "arguments": [
        "0",
        "2000000",
        "1000000",
        "11155420"
      ],
      "transaction": {
        "from": "0x12b2434a1022d5787bf06056f2885fe35de62bf8",
        "to": "0xd95e48a59098c53aa070fc026970f44e9175b4e1",
        "gas": "0x97b72",
        "value": "0xaa87bee538000",
        "input": "0xfb4f2057000000000000000000000000000000000000000000000000000000000000000000000000000000000000000000000000000000000000000000000000001e848000000000000000000000000000000000000000000000000000000000000f42400000000000000000000000000000000000000000000000000000000000aa37dc",
        "nonce": "0x53",
        "chainId": "0xaa37dc"
      },
      "additionalContracts": [],
      "isFixedGasLimit": false
    }
  ],
  "receipts": [
    {
      "status": "0x1",
      "cumulativeGasUsed": "0x1434d1",
      "logs": [
        {
          "address": "0x5fd84259d66cd46123540766be93dfe6d43130d7",
          "topics": [
            "0x8c5be1e5ebec7d5bd14f71427d1e84f3dd0314c0f7b2291e5b200ac8c7c3b925",
            "0x00000000000000000000000012b2434a1022d5787bf06056f2885fe35de62bf8",
            "0x000000000000000000000000d95e48a59098c53aa070fc026970f44e9175b4e1"
          ],
          "data": "0x00000000000000000000000000000000000000000000000000000000001e8480",
          "blockHash": "0xec516e09acf565d124186d6c3fc2181b8e17b69abbe7ca63a7f722a81fb1c168",
          "blockNumber": "0x10206f2",
          "transactionHash": "0x18fdb9e0688d3075dae2968b27a65bd31c50bbef061e12e52cd3ccc77fc7d13c",
          "transactionIndex": "0x3",
          "logIndex": "0x1b",
          "removed": false
        }
      ],
      "logsBloom": "0x00020000000000000000000001000000000000000000000000000000000000000000000000000000000000000000000000000000000000000000020000200000010000000000000000000000200000000000000000000000000000000000000000000000000000000000000000000000000000200000000000000000000000000000000000000000000000000000000000000000000000000000000000000010020000000000000000000000000000000000000400000000000000000000000000000000000000000000000000000000000000000000000000000000000000000010000000000000000000000000000000000000000000000000000000000000",
      "type": "0x2",
      "transactionHash": "0x18fdb9e0688d3075dae2968b27a65bd31c50bbef061e12e52cd3ccc77fc7d13c",
      "transactionIndex": "0x3",
      "blockHash": "0xec516e09acf565d124186d6c3fc2181b8e17b69abbe7ca63a7f722a81fb1c168",
      "blockNumber": "0x10206f2",
      "gasUsed": "0xd88d",
      "effectiveGasPrice": "0x149ad2",
      "from": "0x12b2434a1022d5787bf06056f2885fe35de62bf8",
      "to": "0x5fd84259d66cd46123540766be93dfe6d43130d7",
      "contractAddress": null,
      "l1BaseFeeScalar": "0x1db0",
      "l1BlobBaseFee": "0x29be853273",
      "l1BlobBaseFeeScalar": "0xd2730",
      "l1Fee": "0xe496dc2c931",
      "l1GasPrice": "0x4dbb9ea14",
      "l1GasUsed": "0x640"
    },
    {
      "status": "0x1",
      "cumulativeGasUsed": "0x1ab09c",
      "logs": [
        {
          "address": "0x5fd84259d66cd46123540766be93dfe6d43130d7",
          "topics": [
            "0xddf252ad1be2c89b69c2b068fc378daa952ba7f163c4a11628f55a4df523b3ef",
            "0x00000000000000000000000012b2434a1022d5787bf06056f2885fe35de62bf8",
            "0x000000000000000000000000d95e48a59098c53aa070fc026970f44e9175b4e1"
          ],
          "data": "0x00000000000000000000000000000000000000000000000000000000001e8480",
          "blockHash": "0xec516e09acf565d124186d6c3fc2181b8e17b69abbe7ca63a7f722a81fb1c168",
          "blockNumber": "0x10206f2",
          "transactionHash": "0x588a2c9a379f3c1da75c33beacc516662fe8f856a554515e8d30280fc35d8339",
          "transactionIndex": "0x4",
          "logIndex": "0x1c",
          "removed": false
        },
        {
          "address": "0xd95e48a59098c53aa070fc026970f44e9175b4e1",
          "topics": [
            "0x8ec2296d09729265278dc14bc0bc96d35d996a514008369cc4e666e845ed6e2e"
          ],
          "data": "0x00000000000000000000000012b2434a1022d5787bf06056f2885fe35de62bf8000000000000000000000000000000000000000000000000000000000000000000000000000000000000000000000000000000000000000000000000001e84800000000000000000000000000000000000000000000000000000000000aa37dc",
          "blockHash": "0xec516e09acf565d124186d6c3fc2181b8e17b69abbe7ca63a7f722a81fb1c168",
          "blockNumber": "0x10206f2",
          "transactionHash": "0x588a2c9a379f3c1da75c33beacc516662fe8f856a554515e8d30280fc35d8339",
          "transactionIndex": "0x4",
          "logIndex": "0x1d",
          "removed": false
        },
        {
          "address": "0xb31d2cb502e25b30c651842c7c3293c51fe6d16f",
          "topics": [
            "0x61ed099e74a97a1d7f8bb0952a88ca8b7b8ebd00c126ea04671f92a81213318a"
          ],
          "data": "0x000000000000000000000000dc0d68899405673b932f0db7f8a49191491a5bcb00000000000000000000000000000000000000000000000000004a2a73d6e8be",
          "blockHash": "0xec516e09acf565d124186d6c3fc2181b8e17b69abbe7ca63a7f722a81fb1c168",
          "blockNumber": "0x10206f2",
          "transactionHash": "0x588a2c9a379f3c1da75c33beacc516662fe8f856a554515e8d30280fc35d8339",
          "transactionIndex": "0x4",
          "logIndex": "0x1e",
          "removed": false
        },
        {
          "address": "0xb31d2cb502e25b30c651842c7c3293c51fe6d16f",
          "topics": [
            "0x07ea52d82345d6e838192107d8fd7123d9c2ec8e916cd0aad13fd2b60db24644"
          ],
          "data": "0x000000000000000000000000000000000000000000000000000000000000006000000000000000000000000000000000000000000000000000000000000000a000000000000000000000000000000000000000000000000000000000000000c00000000000000000000000000000000000000000000000000000000000000001000000000000000000000000d680ec569f269aa7015f7979b4f1239b5aa4582c0000000000000000000000000000000000000000000000000000000000000000000000000000000000000000000000000000000000000000000000000000000100000000000000000000000000000000000000000000000000000482bc31fe21",
          "blockHash": "0xec516e09acf565d124186d6c3fc2181b8e17b69abbe7ca63a7f722a81fb1c168",
          "blockNumber": "0x10206f2",
          "transactionHash": "0x588a2c9a379f3c1da75c33beacc516662fe8f856a554515e8d30280fc35d8339",
          "transactionIndex": "0x4",
          "logIndex": "0x1f",
          "removed": false
        },
        {
          "address": "0x6edce65403992e310a62460808c4b910d972f10f",
          "topics": [
            "0x1ab700d4ced0c005b164c0f789fd09fcbb0156d4c2041b8a3bfbcd961cd1567f"
          ],
          "data": "0x00000000000000000000000000000000000000000000000000000000000000600000000000000000000000000000000000000000000000000000000000000120000000000000000000000000b31d2cb502e25b30c651842c7c3293c51fe6d16f000000000000000000000000000000000000000000000000000000000000009101000000000000000100009d28000000000000000000000000d95e48a59098c53aa070fc026970f44e9175b4e100009d35000000000000000000000000f47d259df9b4b79b802f920f0e9688754a0597eeeadba98e0772e2ff5457de72e6c3957b5da4b554e95fab87804f1354b8be223100000000000000000000000012b2434a1022d5787bf06056f2885fe35de62bf800000000000000000000000000000000000000000000000000000000000000000000000000000000000000000000160003010011010000000000000000000000000000d6d800000000000000000000",
          "blockHash": "0xec516e09acf565d124186d6c3fc2181b8e17b69abbe7ca63a7f722a81fb1c168",
          "blockNumber": "0x10206f2",
          "transactionHash": "0x588a2c9a379f3c1da75c33beacc516662fe8f856a554515e8d30280fc35d8339",
          "transactionIndex": "0x4",
          "logIndex": "0x20",
          "removed": false
        }
      ],
      "logsBloom": "0x00020100000000000000000001000000000000000000000000000000000000000000000000004000200000000000000008000000000000000000020000000000010100000000000000000008200000000000000000000000000000000000000000000000000000008210000000000000000000200000000000000010000000000000000000000020000000080002000000000000000000000000000000000010000000009000000000100000000000000000000400400000000440000000000000000002000000000000100000000000000000000004000000000000000000000000040000000000000000000000002000000000000000000000000000000000",
      "type": "0x2",
      "transactionHash": "0x588a2c9a379f3c1da75c33beacc516662fe8f856a554515e8d30280fc35d8339",
      "transactionIndex": "0x4",
      "blockHash": "0xec516e09acf565d124186d6c3fc2181b8e17b69abbe7ca63a7f722a81fb1c168",
      "blockNumber": "0x10206f2",
      "gasUsed": "0x67bcb",
      "effectiveGasPrice": "0x149ad2",
      "from": "0x12b2434a1022d5787bf06056f2885fe35de62bf8",
      "to": "0xd95e48a59098c53aa070fc026970f44e9175b4e1",
      "contractAddress": null,
      "l1BaseFeeScalar": "0x1db0",
      "l1BlobBaseFee": "0x29be853273",
      "l1BlobBaseFeeScalar": "0xd2730",
      "l1Fee": "0xe496dc2c931",
      "l1GasPrice": "0x4dbb9ea14",
      "l1GasUsed": "0x640"
    }
  ],
  "libraries": [],
  "pending": [],
  "returns": {},
  "timestamp": 1725622679,
  "chain": 11155420,
  "commit": "dc78ae4"
}