{
  "transactions": [
    {
      "hash": "0x69e3ef9afdb0ecd29a3d7e0282e8f96a91dc477ae102603617870752926ccd5f",
      "transactionType": "CALL",
      "contractName": null,
      "contractAddress": "0x5fd84259d66cd46123540766be93dfe6d43130d7",
      "function": "approve(address,uint256)",
      "arguments": [
        "0xA2fBE87Da6119B428C22927baC4183cB2Bc718a3",
        "2000000"
      ],
      "transaction": {
        "from": "0x12b2434a1022d5787bf06056f2885fe35de62bf8",
        "to": "0x5fd84259d66cd46123540766be93dfe6d43130d7",
        "gas": "0x12b1b",
        "value": "0x0",
        "input": "0x095ea7b3000000000000000000000000a2fbe87da6119b428c22927bac4183cb2bc718a300000000000000000000000000000000000000000000000000000000001e8480",
        "nonce": "0x5b",
        "chainId": "0xaa37dc"
      },
      "additionalContracts": [],
      "isFixedGasLimit": false
    },
    {
      "hash": "0xa7639d9e45b921602f0e282af510d14bf671d5078e4844aa60fd4c5642670659",
      "transactionType": "CALL",
      "contractName": null,
      "contractAddress": "0xa2fbe87da6119b428c22927bac4183cb2bc718a3",
      "function": "lockTokens(uint256,uint256,uint256,uint32)",
      "arguments": [
        "0",
        "2000000",
        "1000000",
        "11155420"
      ],
      "transaction": {
        "from": "0x12b2434a1022d5787bf06056f2885fe35de62bf8",
        "to": "0xa2fbe87da6119b428c22927bac4183cb2bc718a3",
        "gas": "0x9335f",
        "value": "0xaa87bee538000",
        "input": "0xfb4f2057000000000000000000000000000000000000000000000000000000000000000000000000000000000000000000000000000000000000000000000000001e848000000000000000000000000000000000000000000000000000000000000f42400000000000000000000000000000000000000000000000000000000000aa37dc",
        "nonce": "0x5c",
        "chainId": "0xaa37dc"
      },
      "additionalContracts": [],
      "isFixedGasLimit": false
    }
  ],
  "receipts": [
    {
      "status": "0x1",
      "cumulativeGasUsed": "0x3735f8",
      "logs": [
        {
          "address": "0x5fd84259d66cd46123540766be93dfe6d43130d7",
          "topics": [
            "0x8c5be1e5ebec7d5bd14f71427d1e84f3dd0314c0f7b2291e5b200ac8c7c3b925",
            "0x00000000000000000000000012b2434a1022d5787bf06056f2885fe35de62bf8",
            "0x000000000000000000000000a2fbe87da6119b428c22927bac4183cb2bc718a3"
          ],
          "data": "0x00000000000000000000000000000000000000000000000000000000001e8480",
          "blockHash": "0x5ac359881bd69b4a92d7bfb0ed70170ec635db7329a7e1d134fdd319e5cd4c0b",
          "blockNumber": "0x1020e3d",
          "transactionHash": "0x69e3ef9afdb0ecd29a3d7e0282e8f96a91dc477ae102603617870752926ccd5f",
          "transactionIndex": "0x4",
          "logIndex": "0x34",
          "removed": false
        }
      ],
      "logsBloom": "0x00000000000000000000000000000000000000000000000000000000000000000000000000000000000000000000000000000000000000000000020000200000000000000000000000000000200000000000000000000000000000000000000000000000000000000000000000000000008000200000000000000000000000000000000000000000000000000000000000000000000000000000000000000010020000000000000000000000000000000000000400000000000000000000000000000000000000000000000000000000000000000000000000000000000000000010000000000000000000000000000000080000000000000000000000000080",
      "type": "0x2",
      "transactionHash": "0x69e3ef9afdb0ecd29a3d7e0282e8f96a91dc477ae102603617870752926ccd5f",
      "transactionIndex": "0x4",
      "blockHash": "0x5ac359881bd69b4a92d7bfb0ed70170ec635db7329a7e1d134fdd319e5cd4c0b",
      "blockNumber": "0x1020e3d",
      "gasUsed": "0xd88d",
      "effectiveGasPrice": "0xf6a81",
      "from": "0x12b2434a1022d5787bf06056f2885fe35de62bf8",
      "to": "0x5fd84259d66cd46123540766be93dfe6d43130d7",
      "contractAddress": null,
      "l1BaseFeeScalar": "0x1db0",
      "l1BlobBaseFee": "0x515e8ba0ee",
      "l1BlobBaseFeeScalar": "0xd2730",
      "l1Fee": "0x1b80796cb4e4",
      "l1GasPrice": "0x22c9cd27f",
      "l1GasUsed": "0x640"
    },
    {
      "status": "0x1",
      "cumulativeGasUsed": "0x3d807b",
      "logs": [
        {
          "address": "0x5fd84259d66cd46123540766be93dfe6d43130d7",
          "topics": [
            "0xddf252ad1be2c89b69c2b068fc378daa952ba7f163c4a11628f55a4df523b3ef",
            "0x00000000000000000000000012b2434a1022d5787bf06056f2885fe35de62bf8",
            "0x000000000000000000000000a2fbe87da6119b428c22927bac4183cb2bc718a3"
          ],
          "data": "0x00000000000000000000000000000000000000000000000000000000001e8480",
          "blockHash": "0x5ac359881bd69b4a92d7bfb0ed70170ec635db7329a7e1d134fdd319e5cd4c0b",
          "blockNumber": "0x1020e3d",
          "transactionHash": "0xa7639d9e45b921602f0e282af510d14bf671d5078e4844aa60fd4c5642670659",
          "transactionIndex": "0x5",
          "logIndex": "0x35",
          "removed": false
        },
        {
          "address": "0xa2fbe87da6119b428c22927bac4183cb2bc718a3",
          "topics": [
            "0x8ec2296d09729265278dc14bc0bc96d35d996a514008369cc4e666e845ed6e2e"
          ],
          "data": "0x00000000000000000000000012b2434a1022d5787bf06056f2885fe35de62bf8000000000000000000000000000000000000000000000000000000000000000000000000000000000000000000000000000000000000000000000000001e84800000000000000000000000000000000000000000000000000000000000aa37dc",
          "blockHash": "0x5ac359881bd69b4a92d7bfb0ed70170ec635db7329a7e1d134fdd319e5cd4c0b",
          "blockNumber": "0x1020e3d",
          "transactionHash": "0xa7639d9e45b921602f0e282af510d14bf671d5078e4844aa60fd4c5642670659",
          "transactionIndex": "0x5",
          "logIndex": "0x36",
          "removed": false
        },
        {
          "address": "0xb31d2cb502e25b30c651842c7c3293c51fe6d16f",
          "topics": [
            "0x61ed099e74a97a1d7f8bb0952a88ca8b7b8ebd00c126ea04671f92a81213318a"
          ],
          "data": "0x000000000000000000000000dc0d68899405673b932f0db7f8a49191491a5bcb00000000000000000000000000000000000000000000000000004a7cb759b296",
          "blockHash": "0x5ac359881bd69b4a92d7bfb0ed70170ec635db7329a7e1d134fdd319e5cd4c0b",
          "blockNumber": "0x1020e3d",
          "transactionHash": "0xa7639d9e45b921602f0e282af510d14bf671d5078e4844aa60fd4c5642670659",
          "transactionIndex": "0x5",
          "logIndex": "0x37",
          "removed": false
        },
        {
          "address": "0xb31d2cb502e25b30c651842c7c3293c51fe6d16f",
          "topics": [
            "0x07ea52d82345d6e838192107d8fd7123d9c2ec8e916cd0aad13fd2b60db24644"
          ],
          "data": "0x000000000000000000000000000000000000000000000000000000000000006000000000000000000000000000000000000000000000000000000000000000a000000000000000000000000000000000000000000000000000000000000000c00000000000000000000000000000000000000000000000000000000000000001000000000000000000000000d680ec569f269aa7015f7979b4f1239b5aa4582c0000000000000000000000000000000000000000000000000000000000000000000000000000000000000000000000000000000000000000000000000000000100000000000000000000000000000000000000000000000000000482bc31fe21",
          "blockHash": "0x5ac359881bd69b4a92d7bfb0ed70170ec635db7329a7e1d134fdd319e5cd4c0b",
          "blockNumber": "0x1020e3d",
          "transactionHash": "0xa7639d9e45b921602f0e282af510d14bf671d5078e4844aa60fd4c5642670659",
          "transactionIndex": "0x5",
          "logIndex": "0x38",
          "removed": false
        },
        {
          "address": "0x6edce65403992e310a62460808c4b910d972f10f",
          "topics": [
            "0x1ab700d4ced0c005b164c0f789fd09fcbb0156d4c2041b8a3bfbcd961cd1567f"
          ],
          "data": "0x00000000000000000000000000000000000000000000000000000000000000600000000000000000000000000000000000000000000000000000000000000180000000000000000000000000b31d2cb502e25b30c651842c7c3293c51fe6d16f00000000000000000000000000000000000000000000000000000000000000f101000000000000000100009d28000000000000000000000000a2fbe87da6119b428c22927bac4183cb2bc718a300009d350000000000000000000000002edd21000a84b174112a41189271b6110469395269dbe6a7281fef4406cfa2c01045e2a6c821c80d58756cf94f9f4b3dcd95c3f900000000000000000000000012b2434a1022d5787bf06056f2885fe35de62bf8000000000000000000000000000000000000000000000000000000000000000000000000000000000000000000000000000000000000000000000000001e84800000000000000000000000005fd84259d66cd46123540766be93dfe6d43130d7000000000000000000000000000000000000000000000000000000000000000000000000000000000000000000001600030100110100000000000000000000000000015f9000000000000000000000",
          "blockHash": "0x5ac359881bd69b4a92d7bfb0ed70170ec635db7329a7e1d134fdd319e5cd4c0b",
          "blockNumber": "0x1020e3d",
          "transactionHash": "0xa7639d9e45b921602f0e282af510d14bf671d5078e4844aa60fd4c5642670659",
          "transactionIndex": "0x5",
          "logIndex": "0x39",
          "removed": false
        }
      ],
      "logsBloom": "0x00000100000000000000000000000000000000000000000000000000000000000000000000004000200000000000000000000000000080000000020000000000000100000000000000000008200000000000000000000000004000000000000000000000000000008210000000000000008000200000000000000010000000000000000000000020000000080000000000000000000000000000000000000010000000009000040000100000000000000000000400400000000440000000000000000002000000000000100000000000000000000000000000000000000000000000040000000000000000000000002000080000000000000000000000000080",
      "type": "0x2",
      "transactionHash": "0xa7639d9e45b921602f0e282af510d14bf671d5078e4844aa60fd4c5642670659",
      "transactionIndex": "0x5",
      "blockHash": "0x5ac359881bd69b4a92d7bfb0ed70170ec635db7329a7e1d134fdd319e5cd4c0b",
      "blockNumber": "0x1020e3d",
      "gasUsed": "0x64a83",
      "effectiveGasPrice": "0xf6a81",
      "from": "0x12b2434a1022d5787bf06056f2885fe35de62bf8",
      "to": "0xa2fbe87da6119b428c22927bac4183cb2bc718a3",
      "contractAddress": null,
      "l1BaseFeeScalar": "0x1db0",
      "l1BlobBaseFee": "0x515e8ba0ee",
      "l1BlobBaseFeeScalar": "0xd2730",
      "l1Fee": "0x1b80796cb4e4",
      "l1GasPrice": "0x22c9cd27f",
      "l1GasUsed": "0x640"
    }
  ],
  "libraries": [],
  "pending": [],
  "returns": {},
  "timestamp": 1725626414,
  "chain": 11155420,
  "commit": "dc78ae4"
}