{
  "transactions": [
    {
      "hash": "0xdfd14694ae120863f01ee0e553e05d78f0bc9133fc0d9a79521de037e3395e46",
      "transactionType": "CALL",
      "contractName": null,
      "contractAddress": "0x5fd84259d66cd46123540766be93dfe6d43130d7",
      "function": "approve(address,uint256)",
      "arguments": [
        "0x56Efc51670dfbDbDFB2464e182Edb2b72a5d4954",
        "2000000"
      ],
      "transaction": {
        "from": "0x12b2434a1022d5787bf06056f2885fe35de62bf8",
        "to": "0x5fd84259d66cd46123540766be93dfe6d43130d7",
        "gas": "0x12b1b",
        "value": "0x0",
        "input": "0x095ea7b300000000000000000000000056efc51670dfbdbdfb2464e182edb2b72a5d495400000000000000000000000000000000000000000000000000000000001e8480",
        "nonce": "0x94",
        "chainId": "0xaa37dc"
      },
      "additionalContracts": [],
      "isFixedGasLimit": false
    },
    {
      "hash": "0xba04a315c085fb47435a2f48b447425d456a4c714a8fafaba04283e1da74b6f0",
      "transactionType": "CALL",
      "contractName": null,
      "contractAddress": "0x56efc51670dfbdbdfb2464e182edb2b72a5d4954",
      "function": "lockTokens(uint256,uint256,uint256,uint32)",
      "arguments": [
        "0",
        "2000000",
        "1000000",
        "11155420"
      ],
      "transaction": {
        "from": "0x12b2434a1022d5787bf06056f2885fe35de62bf8",
        "to": "0x56efc51670dfbdbdfb2464e182edb2b72a5d4954",
        "gas": "0x87f3a",
        "value": "0x1ff973cafa8000",
        "input": "0xfb4f2057000000000000000000000000000000000000000000000000000000000000000000000000000000000000000000000000000000000000000000000000001e848000000000000000000000000000000000000000000000000000000000000f42400000000000000000000000000000000000000000000000000000000000aa37dc",
        "nonce": "0x95",
        "chainId": "0xaa37dc"
      },
      "additionalContracts": [],
      "isFixedGasLimit": false
    }
  ],
  "receipts": [
    {
      "status": "0x1",
      "cumulativeGasUsed": "0x1afb5e",
      "logs": [
        {
          "address": "0x5fd84259d66cd46123540766be93dfe6d43130d7",
          "topics": [
            "0x8c5be1e5ebec7d5bd14f71427d1e84f3dd0314c0f7b2291e5b200ac8c7c3b925",
            "0x00000000000000000000000012b2434a1022d5787bf06056f2885fe35de62bf8",
            "0x00000000000000000000000056efc51670dfbdbdfb2464e182edb2b72a5d4954"
          ],
          "data": "0x00000000000000000000000000000000000000000000000000000000001e8480",
          "blockHash": "0x7e4486452e18c7df956772f10602ac58854f51488e5b14c277d412c33a51a114",
          "blockNumber": "0x1022cfe",
          "transactionHash": "0xdfd14694ae120863f01ee0e553e05d78f0bc9133fc0d9a79521de037e3395e46",
          "transactionIndex": "0x4",
          "logIndex": "0x1b",
          "removed": false
        }
      ],
      "logsBloom": "0x00000000000000000000000000000000000000000000000000000000000000004000000000000000000000000000000000000000000000000000020000200000200000000000000000000000200000000000000000000000000000000000000000000000000000000000000000000000000000200000000000000000000000000000000000000000000000000000000000000000000000000000000000000010020000000000002000000000000000000000000400000000000000000000000000000000000000000000000000000000000000000000000000000000000000000010000000000000000000000000000000000000000000000000000000000000",
      "type": "0x2",
      "transactionHash": "0xdfd14694ae120863f01ee0e553e05d78f0bc9133fc0d9a79521de037e3395e46",
      "transactionIndex": "0x4",
      "blockHash": "0x7e4486452e18c7df956772f10602ac58854f51488e5b14c277d412c33a51a114",
      "blockNumber": "0x1022cfe",
      "gasUsed": "0xd88d",
      "effectiveGasPrice": "0xf6a72",
      "from": "0x12b2434a1022d5787bf06056f2885fe35de62bf8",
      "to": "0x5fd84259d66cd46123540766be93dfe6d43130d7",
      "contractAddress": null,
      "l1BaseFeeScalar": "0x1db0",
      "l1BlobBaseFee": "0x878e91113d",
      "l1BlobBaseFeeScalar": "0xd2730",
      "l1Fee": "0x2e0629801fac",
      "l1GasPrice": "0x7fd6a6432",
      "l1GasUsed": "0x640"
    },
    {
      "status": "0x1",
      "cumulativeGasUsed": "0x212232",
      "logs": [
        {
          "address": "0x5fd84259d66cd46123540766be93dfe6d43130d7",
          "topics": [
            "0xddf252ad1be2c89b69c2b068fc378daa952ba7f163c4a11628f55a4df523b3ef",
            "0x00000000000000000000000012b2434a1022d5787bf06056f2885fe35de62bf8",
            "0x00000000000000000000000056efc51670dfbdbdfb2464e182edb2b72a5d4954"
          ],
          "data": "0x00000000000000000000000000000000000000000000000000000000001e8480",
          "blockHash": "0x7e4486452e18c7df956772f10602ac58854f51488e5b14c277d412c33a51a114",
          "blockNumber": "0x1022cfe",
          "transactionHash": "0xba04a315c085fb47435a2f48b447425d456a4c714a8fafaba04283e1da74b6f0",
          "transactionIndex": "0x5",
          "logIndex": "0x1c",
          "removed": false
        },
        {
          "address": "0x56efc51670dfbdbdfb2464e182edb2b72a5d4954",
          "topics": [
            "0x8ec2296d09729265278dc14bc0bc96d35d996a514008369cc4e666e845ed6e2e"
          ],
          "data": "0x00000000000000000000000012b2434a1022d5787bf06056f2885fe35de62bf8000000000000000000000000000000000000000000000000000000000000000000000000000000000000000000000000000000000000000000000000001e84800000000000000000000000000000000000000000000000000000000000aa37dc",
          "blockHash": "0x7e4486452e18c7df956772f10602ac58854f51488e5b14c277d412c33a51a114",
          "blockNumber": "0x1022cfe",
          "transactionHash": "0xba04a315c085fb47435a2f48b447425d456a4c714a8fafaba04283e1da74b6f0",
          "transactionIndex": "0x5",
          "logIndex": "0x1d",
          "removed": false
        },
        {
          "address": "0xb31d2cb502e25b30c651842c7c3293c51fe6d16f",
          "topics": [
            "0x61ed099e74a97a1d7f8bb0952a88ca8b7b8ebd00c126ea04671f92a81213318a"
          ],
          "data": "0x000000000000000000000000dc0d68899405673b932f0db7f8a49191491a5bcb00000000000000000000000000000000000000000000000000004ab780ddd8de",
          "blockHash": "0x7e4486452e18c7df956772f10602ac58854f51488e5b14c277d412c33a51a114",
          "blockNumber": "0x1022cfe",
          "transactionHash": "0xba04a315c085fb47435a2f48b447425d456a4c714a8fafaba04283e1da74b6f0",
          "transactionIndex": "0x5",
          "logIndex": "0x1e",
          "removed": false
        },
        {
          "address": "0xb31d2cb502e25b30c651842c7c3293c51fe6d16f",
          "topics": [
            "0x07ea52d82345d6e838192107d8fd7123d9c2ec8e916cd0aad13fd2b60db24644"
          ],
          "data": "0x000000000000000000000000000000000000000000000000000000000000006000000000000000000000000000000000000000000000000000000000000000a000000000000000000000000000000000000000000000000000000000000000c00000000000000000000000000000000000000000000000000000000000000001000000000000000000000000d680ec569f269aa7015f7979b4f1239b5aa4582c00000000000000000000000000000000000000000000000000000000000000000000000000000000000000000000000000000000000000000000000000000001000000000000000000000000000000000000000000000000000004971c722491",
          "blockHash": "0x7e4486452e18c7df956772f10602ac58854f51488e5b14c277d412c33a51a114",
          "blockNumber": "0x1022cfe",
          "transactionHash": "0xba04a315c085fb47435a2f48b447425d456a4c714a8fafaba04283e1da74b6f0",
          "transactionIndex": "0x5",
          "logIndex": "0x1f",
          "removed": false
        },
        {
          "address": "0x6edce65403992e310a62460808c4b910d972f10f",
          "topics": [
            "0x1ab700d4ced0c005b164c0f789fd09fcbb0156d4c2041b8a3bfbcd961cd1567f"
          ],
          "data": "0x00000000000000000000000000000000000000000000000000000000000000600000000000000000000000000000000000000000000000000000000000000140000000000000000000000000b31d2cb502e25b30c651842c7c3293c51fe6d16f00000000000000000000000000000000000000000000000000000000000000b101000000000000000100009d2800000000000000000000000056efc51670dfbdbdfb2464e182edb2b72a5d495400009d350000000000000000000000002a17c4869fc313082a4a8b8f19c1950720f767a545a85b23a5c0f0cae97bbafb3e1586087d353093f6c1b7d3c7412cf2bf2b69ff00000000000000000000000012b2434a1022d5787bf06056f2885fe35de62bf800000000000000000000000000000000000000000000000000000000001e84800000000000000000000000000000000000000000000000000000000000000000000000000000000000000000000016000301001101000000000000000000000000000186a000000000000000000000",
          "blockHash": "0x7e4486452e18c7df956772f10602ac58854f51488e5b14c277d412c33a51a114",
          "blockNumber": "0x1022cfe",
          "transactionHash": "0xba04a315c085fb47435a2f48b447425d456a4c714a8fafaba04283e1da74b6f0",
          "transactionIndex": "0x5",
          "logIndex": "0x20",
          "removed": false
        }
      ],
      "logsBloom": "0x00000100400000000000000000004000000000000000000000000000000000004000000000004000200000000000000000000000000000000000020000000000200100000000000000000008200000000000000000000000000000000000000000000000000000008210000000000000000000200000000000000010000000000000000000000020000000080020000000000000000000000000000000000010000000009000002000100000000000000000000400400000000440000000000000000002000000000000100000000000000000000000000000000000000000000000040000000000000000000000002000000000000000000000000000000000",
      "type": "0x2",
      "transactionHash": "0xba04a315c085fb47435a2f48b447425d456a4c714a8fafaba04283e1da74b6f0",
      "transactionIndex": "0x5",
      "blockHash": "0x7e4486452e18c7df956772f10602ac58854f51488e5b14c277d412c33a51a114",
      "blockNumber": "0x1022cfe",
      "gasUsed": "0x626d4",
      "effectiveGasPrice": "0xf6a72",
      "from": "0x12b2434a1022d5787bf06056f2885fe35de62bf8",
      "to": "0x56efc51670dfbdbdfb2464e182edb2b72a5d4954",
      "contractAddress": null,
      "l1BaseFeeScalar": "0x1db0",
      "l1BlobBaseFee": "0x878e91113d",
      "l1BlobBaseFeeScalar": "0xd2730",
      "l1Fee": "0x2e0629801fac",
      "l1GasPrice": "0x7fd6a6432",
      "l1GasUsed": "0x640"
    }
  ],
  "libraries": [],
  "pending": [],
  "returns": {},
  "timestamp": 1725642159,
  "chain": 11155420,
  "commit": "dc78ae4"
}