{
  "transactions": [
    {
      "hash": "0xed3c44884675ba8509fa8cf9a6c9b6ebc58d350e19671255fcad8efd57c481c8",
      "transactionType": "CALL",
      "contractName": null,
      "contractAddress": "0x5fd84259d66cd46123540766be93dfe6d43130d7",
      "function": "approve(address,uint256)",
      "arguments": [
        "0x425631DdcF82700a85627DA00c4afE1e6FD752d5",
        "1000000"
      ],
      "transaction": {
        "from": "0x9f7cc06b64a5ae410fe074acfe77d7151f7ba411",
        "to": "0x5fd84259d66cd46123540766be93dfe6d43130d7",
        "gas": "0x12b1b",
        "value": "0x0",
        "input": "0x095ea7b3000000000000000000000000425631ddcf82700a85627da00c4afe1e6fd752d500000000000000000000000000000000000000000000000000000000000f4240",
        "nonce": "0x0",
        "chainId": "0xaa37dc"
      },
      "additionalContracts": [],
      "isFixedGasLimit": false
    },
    {
      "hash": "0x837d7addf989d477dedb9fbfbb8695a5ab190f864825c222a83d42fb376b7a75",
      "transactionType": "CALL",
      "contractName": null,
      "contractAddress": "0x425631ddcf82700a85627da00c4afe1e6fd752d5",
      "function": "lockTokens(uint256,uint256,uint256,uint32)",
      "arguments": [
        "0",
        "1000000",
        "1000000",
        "11155420"
      ],
      "transaction": {
        "from": "0x9f7cc06b64a5ae410fe074acfe77d7151f7ba411",
        "to": "0x425631ddcf82700a85627da00c4afe1e6fd752d5",
        "gas": "0x77c00",
        "value": "0x11c37937e08000",
        "input": "0xfb4f2057000000000000000000000000000000000000000000000000000000000000000000000000000000000000000000000000000000000000000000000000000f424000000000000000000000000000000000000000000000000000000000000f42400000000000000000000000000000000000000000000000000000000000aa37dc",
        "nonce": "0x1",
        "chainId": "0xaa37dc"
      },
      "additionalContracts": [],
      "isFixedGasLimit": false
    }
  ],
  "receipts": [
    {
      "status": "0x1",
      "cumulativeGasUsed": "0x30f258",
      "logs": [
        {
          "address": "0x5fd84259d66cd46123540766be93dfe6d43130d7",
          "topics": [
            "0x8c5be1e5ebec7d5bd14f71427d1e84f3dd0314c0f7b2291e5b200ac8c7c3b925",
            "0x0000000000000000000000009f7cc06b64a5ae410fe074acfe77d7151f7ba411",
            "0x000000000000000000000000425631ddcf82700a85627da00c4afe1e6fd752d5"
          ],
          "data": "0x00000000000000000000000000000000000000000000000000000000000f4240",
          "blockHash": "0x5ef395f899fada5731527c21ab66ad1a26d16450bae4950006485b41ca54edcb",
          "blockNumber": "0x102ea60",
          "transactionHash": "0xed3c44884675ba8509fa8cf9a6c9b6ebc58d350e19671255fcad8efd57c481c8",
          "transactionIndex": "0x4",
          "logIndex": "0x2c",
          "removed": false
        }
      ],
      "logsBloom": "0x00000000000000000000000000000000000000000000000000000000000000000000000000000000000000000000000000000000020000000200020000200000000000000000000000000000000000000000000000000000000000000000000000000000000000000000000020000000000000200000000000800000000000000000000000000000000000000000000000000000000000000000000000000000020000000000800000000000000000000000000400000000000000000000000000000000000000000000000000000000000000000000000000000002000000000010000000000000000000000000000000000000000000000000000000000000",
      "type": "0x2",
      "transactionHash": "0xed3c44884675ba8509fa8cf9a6c9b6ebc58d350e19671255fcad8efd57c481c8",
      "transactionIndex": "0x4",
      "blockHash": "0x5ef395f899fada5731527c21ab66ad1a26d16450bae4950006485b41ca54edcb",
      "blockNumber": "0x102ea60",
      "gasUsed": "0xd88d",
      "effectiveGasPrice": "0xf6a74",
      "from": "0x9f7cc06b64a5ae410fe074acfe77d7151f7ba411",
      "to": "0x5fd84259d66cd46123540766be93dfe6d43130d7",
      "contractAddress": null,
      "l1BaseFeeScalar": "0x1db0",
      "l1BlobBaseFee": "0x13813794d",
      "l1BlobBaseFeeScalar": "0xd2730",
      "l1Fee": "0x6a3ae8a55c",
      "l1GasPrice": "0x182c743f",
      "l1GasUsed": "0x640"
    },
    {
      "status": "0x1",
      "cumulativeGasUsed": "0x365d7f",
      "logs": [
        {
          "address": "0x5fd84259d66cd46123540766be93dfe6d43130d7",
          "topics": [
            "0xddf252ad1be2c89b69c2b068fc378daa952ba7f163c4a11628f55a4df523b3ef",
            "0x0000000000000000000000009f7cc06b64a5ae410fe074acfe77d7151f7ba411",
            "0x000000000000000000000000425631ddcf82700a85627da00c4afe1e6fd752d5"
          ],
          "data": "0x00000000000000000000000000000000000000000000000000000000000f4240",
          "blockHash": "0x5ef395f899fada5731527c21ab66ad1a26d16450bae4950006485b41ca54edcb",
          "blockNumber": "0x102ea60",
          "transactionHash": "0x837d7addf989d477dedb9fbfbb8695a5ab190f864825c222a83d42fb376b7a75",
          "transactionIndex": "0x5",
          "logIndex": "0x2d",
          "removed": false
        },
        {
          "address": "0x425631ddcf82700a85627da00c4afe1e6fd752d5",
          "topics": [
            "0x8ec2296d09729265278dc14bc0bc96d35d996a514008369cc4e666e845ed6e2e"
          ],
          "data": "0x0000000000000000000000009f7cc06b64a5ae410fe074acfe77d7151f7ba411000000000000000000000000000000000000000000000000000000000000000000000000000000000000000000000000000000000000000000000000000f42400000000000000000000000000000000000000000000000000000000000aa37dc",
          "blockHash": "0x5ef395f899fada5731527c21ab66ad1a26d16450bae4950006485b41ca54edcb",
          "blockNumber": "0x102ea60",
          "transactionHash": "0x837d7addf989d477dedb9fbfbb8695a5ab190f864825c222a83d42fb376b7a75",
          "transactionIndex": "0x5",
          "logIndex": "0x2e",
          "removed": false
        },
        {
          "address": "0xb31d2cb502e25b30c651842c7c3293c51fe6d16f",
          "topics": [
            "0x61ed099e74a97a1d7f8bb0952a88ca8b7b8ebd00c126ea04671f92a81213318a"
          ],
          "data": "0x000000000000000000000000dc0d68899405673b932f0db7f8a49191491a5bcb00000000000000000000000000000000000000000000000000005198874ab321",
          "blockHash": "0x5ef395f899fada5731527c21ab66ad1a26d16450bae4950006485b41ca54edcb",
          "blockNumber": "0x102ea60",
          "transactionHash": "0x837d7addf989d477dedb9fbfbb8695a5ab190f864825c222a83d42fb376b7a75",
          "transactionIndex": "0x5",
          "logIndex": "0x2f",
          "removed": false
        },
        {
          "address": "0xb31d2cb502e25b30c651842c7c3293c51fe6d16f",
          "topics": [
            "0x07ea52d82345d6e838192107d8fd7123d9c2ec8e916cd0aad13fd2b60db24644"
          ],
          "data": "0x000000000000000000000000000000000000000000000000000000000000006000000000000000000000000000000000000000000000000000000000000000a000000000000000000000000000000000000000000000000000000000000000c00000000000000000000000000000000000000000000000000000000000000001000000000000000000000000d680ec569f269aa7015f7979b4f1239b5aa4582c0000000000000000000000000000000000000000000000000000000000000000000000000000000000000000000000000000000000000000000000000000000100000000000000000000000000000000000000000000000000000427780e8f90",
          "blockHash": "0x5ef395f899fada5731527c21ab66ad1a26d16450bae4950006485b41ca54edcb",
          "blockNumber": "0x102ea60",
          "transactionHash": "0x837d7addf989d477dedb9fbfbb8695a5ab190f864825c222a83d42fb376b7a75",
          "transactionIndex": "0x5",
          "logIndex": "0x30",
          "removed": false
        },
        {
          "address": "0x6edce65403992e310a62460808c4b910d972f10f",
          "topics": [
            "0x1ab700d4ced0c005b164c0f789fd09fcbb0156d4c2041b8a3bfbcd961cd1567f"
          ],
          "data": "0x00000000000000000000000000000000000000000000000000000000000000600000000000000000000000000000000000000000000000000000000000000120000000000000000000000000b31d2cb502e25b30c651842c7c3293c51fe6d16f000000000000000000000000000000000000000000000000000000000000009101000000000000000200009d28000000000000000000000000425631ddcf82700a85627da00c4afe1e6fd752d500009d280000000000000000000000004c90332f18716c69a76799cb30db3ca085ac80a3ced266e27444c6e7602e5a3505d3a87bb576de3a917a479c2cc810b2d4abed3800000000000000000000000000000000000000000000000000000000000f4240000000000000000000000000000000000000000000000000000000000000000000000000000000000000000000002c00030100110100000000000000000000000000013880010013030000000000000000000000000000000138800000000000000000000000000000000000000000",
          "blockHash": "0x5ef395f899fada5731527c21ab66ad1a26d16450bae4950006485b41ca54edcb",
          "blockNumber": "0x102ea60",
          "transactionHash": "0x837d7addf989d477dedb9fbfbb8695a5ab190f864825c222a83d42fb376b7a75",
          "transactionIndex": "0x5",
          "logIndex": "0x31",
          "removed": false
        }
      ],
      "logsBloom": "0x00000100000000000000000000000000000000000000000000000000000000000000000000004000220000000000000000000000020000000200020000000000000100000000000000000008000000000000000000000000000000000000000000000000000000008210000020000000000000200000000000800010000000000000000000000020000000080000000000000000000000000000000000000000000000009000800000100000000000000000000400420000000440000000000000000002000000000000100000000000000000000000000000000002000000000000040000000000000000000000002000000000000000000000000000000100",
      "type": "0x2",
      "transactionHash": "0x837d7addf989d477dedb9fbfbb8695a5ab190f864825c222a83d42fb376b7a75",
      "transactionIndex": "0x5",
      "blockHash": "0x5ef395f899fada5731527c21ab66ad1a26d16450bae4950006485b41ca54edcb",
      "blockNumber": "0x102ea60",
      "gasUsed": "0x56b27",
      "effectiveGasPrice": "0xf6a74",
      "from": "0x9f7cc06b64a5ae410fe074acfe77d7151f7ba411",
      "to": "0x425631ddcf82700a85627da00c4afe1e6fd752d5",
      "contractAddress": null,
      "l1BaseFeeScalar": "0x1db0",
      "l1BlobBaseFee": "0x13813794d",
      "l1BlobBaseFeeScalar": "0xd2730",
      "l1Fee": "0x6a3ae8a55c",
      "l1GasPrice": "0x182c743f",
      "l1GasUsed": "0x640"
    }
  ],
  "libraries": [],
  "pending": [],
  "returns": {},
  "timestamp": 1725739122,
  "chain": 11155420,
  "commit": "67fd3b7"
}