{
  "transactions": [
    {
      "hash": "0x8be26d2ced3d5bf7d9dd765e03dd106db0440aa722fd6cd2c37fe678a2d5ec7f",
      "transactionType": "CALL",
      "contractName": null,
      "contractAddress": "0x5fd84259d66cd46123540766be93dfe6d43130d7",
      "function": "approve(address,uint256)",
      "arguments": [
        "0x6dA70c3c286e44F8965c0C26d7D47dba074e9DB0",
        "3000000"
      ],
      "transaction": {
        "from": "0x12b2434a1022d5787bf06056f2885fe35de62bf8",
        "to": "0x5fd84259d66cd46123540766be93dfe6d43130d7",
        "gas": "0x12b1b",
        "value": "0x0",
        "input": "0x095ea7b30000000000000000000000006da70c3c286e44f8965c0c26d7d47dba074e9db000000000000000000000000000000000000000000000000000000000002dc6c0",
        "nonce": "0x45",
        "chainId": "0xaa37dc"
      },
      "additionalContracts": [],
      "isFixedGasLimit": false
    },
    {
      "hash": "0x669c70d2352e9f890576994fbd182e239d26ddb92c692c780bd05e9d3219b8cc",
      "transactionType": "CALL",
      "contractName": null,
      "contractAddress": "0x6da70c3c286e44f8965c0c26d7d47dba074e9db0",
      "function": "lockTokens(uint256,uint256,uint256,uint32)",
      "arguments": [
        "0",
        "3000000",
        "2000000",
        "11155420"
      ],
      "transaction": {
        "from": "0x12b2434a1022d5787bf06056f2885fe35de62bf8",
        "to": "0x6da70c3c286e44f8965c0c26d7d47dba074e9db0",
        "gas": "0x90cc7",
        "value": "0xe35fa931a0000",
        "input": "0xfb4f2057000000000000000000000000000000000000000000000000000000000000000000000000000000000000000000000000000000000000000000000000002dc6c000000000000000000000000000000000000000000000000000000000001e84800000000000000000000000000000000000000000000000000000000000aa37dc",
        "nonce": "0x46",
        "chainId": "0xaa37dc"
      },
      "additionalContracts": [],
      "isFixedGasLimit": false
    }
  ],
  "receipts": [
    {
      "status": "0x1",
      "cumulativeGasUsed": "0x2cfb34",
      "logs": [
        {
          "address": "0x5fd84259d66cd46123540766be93dfe6d43130d7",
          "topics": [
            "0x8c5be1e5ebec7d5bd14f71427d1e84f3dd0314c0f7b2291e5b200ac8c7c3b925",
            "0x00000000000000000000000012b2434a1022d5787bf06056f2885fe35de62bf8",
            "0x0000000000000000000000006da70c3c286e44f8965c0c26d7d47dba074e9db0"
          ],
          "data": "0x00000000000000000000000000000000000000000000000000000000002dc6c0",
          "blockHash": "0xa8cccff198691c0d5bc2b2cb9a7c9f329aae905cdfece19b1bdcfc7c80ccf984",
          "blockNumber": "0x1019fbd",
          "transactionHash": "0x8be26d2ced3d5bf7d9dd765e03dd106db0440aa722fd6cd2c37fe678a2d5ec7f",
          "transactionIndex": "0x6",
          "logIndex": "0x2d",
          "removed": false
        }
      ],
      "logsBloom": "0x00000000000000000000000002000000000000000000000000000000000000000000000000000000000000000000000000000000000000000000020000200000000000000000000000000000200000000000000000000000000000000000000000000000000000000000000000000000000000200000000000000800000000000000000000000000000000000000000000000010000000000000000000000010020000000000000000000000000000000000000400000000000000000000000000000000000000000000000000000000000000000000000000000000000000000010000000000000000000000000000000000000000000000000000000000000",
      "type": "0x2",
      "transactionHash": "0x8be26d2ced3d5bf7d9dd765e03dd106db0440aa722fd6cd2c37fe678a2d5ec7f",
      "transactionIndex": "0x6",
      "blockHash": "0xa8cccff198691c0d5bc2b2cb9a7c9f329aae905cdfece19b1bdcfc7c80ccf984",
      "blockNumber": "0x1019fbd",
      "gasUsed": "0xd88d",
      "effectiveGasPrice": "0xf437e",
      "from": "0x12b2434a1022d5787bf06056f2885fe35de62bf8",
      "to": "0x5fd84259d66cd46123540766be93dfe6d43130d7",
      "contractAddress": null,
      "l1BaseFeeScalar": "0x1db0",
      "l1BlobBaseFee": "0xf44727f93e",
      "l1BlobBaseFeeScalar": "0xd2730",
      "l1Fee": "0x52451dcbab13",
      "l1GasPrice": "0x5bb8c080",
      "l1GasUsed": "0x640"
    },
    {
      "status": "0x1",
      "cumulativeGasUsed": "0x3abfad",
      "logs": [
        {
          "address": "0x5fd84259d66cd46123540766be93dfe6d43130d7",
          "topics": [
            "0xddf252ad1be2c89b69c2b068fc378daa952ba7f163c4a11628f55a4df523b3ef",
            "0x00000000000000000000000012b2434a1022d5787bf06056f2885fe35de62bf8",
            "0x0000000000000000000000006da70c3c286e44f8965c0c26d7d47dba074e9db0"
          ],
          "data": "0x00000000000000000000000000000000000000000000000000000000002dc6c0",
          "blockHash": "0xa8cccff198691c0d5bc2b2cb9a7c9f329aae905cdfece19b1bdcfc7c80ccf984",
          "blockNumber": "0x1019fbd",
          "transactionHash": "0x669c70d2352e9f890576994fbd182e239d26ddb92c692c780bd05e9d3219b8cc",
          "transactionIndex": "0x9",
          "logIndex": "0x30",
          "removed": false
        },
        {
          "address": "0x6da70c3c286e44f8965c0c26d7d47dba074e9db0",
          "topics": [
            "0x8ec2296d09729265278dc14bc0bc96d35d996a514008369cc4e666e845ed6e2e"
          ],
          "data": "0x00000000000000000000000012b2434a1022d5787bf06056f2885fe35de62bf8000000000000000000000000000000000000000000000000000000000000000000000000000000000000000000000000000000000000000000000000002dc6c00000000000000000000000000000000000000000000000000000000000aa37dc",
          "blockHash": "0xa8cccff198691c0d5bc2b2cb9a7c9f329aae905cdfece19b1bdcfc7c80ccf984",
          "blockNumber": "0x1019fbd",
          "transactionHash": "0x669c70d2352e9f890576994fbd182e239d26ddb92c692c780bd05e9d3219b8cc",
          "transactionIndex": "0x9",
          "logIndex": "0x31",
          "removed": false
        },
        {
          "address": "0xb31d2cb502e25b30c651842c7c3293c51fe6d16f",
          "topics": [
            "0x61ed099e74a97a1d7f8bb0952a88ca8b7b8ebd00c126ea04671f92a81213318a"
          ],
          "data": "0x000000000000000000000000dc0d68899405673b932f0db7f8a49191491a5bcb0000000000000000000000000000000000000000000000000000490f308990fe",
          "blockHash": "0xa8cccff198691c0d5bc2b2cb9a7c9f329aae905cdfece19b1bdcfc7c80ccf984",
          "blockNumber": "0x1019fbd",
          "transactionHash": "0x669c70d2352e9f890576994fbd182e239d26ddb92c692c780bd05e9d3219b8cc",
          "transactionIndex": "0x9",
          "logIndex": "0x32",
          "removed": false
        },
        {
          "address": "0xb31d2cb502e25b30c651842c7c3293c51fe6d16f",
          "topics": [
            "0x07ea52d82345d6e838192107d8fd7123d9c2ec8e916cd0aad13fd2b60db24644"
          ],
          "data": "0x000000000000000000000000000000000000000000000000000000000000006000000000000000000000000000000000000000000000000000000000000000a000000000000000000000000000000000000000000000000000000000000000c00000000000000000000000000000000000000000000000000000000000000001000000000000000000000000d680ec569f269aa7015f7979b4f1239b5aa4582c00000000000000000000000000000000000000000000000000000000000000000000000000000000000000000000000000000000000000000000000000000001000000000000000000000000000000000000000000000000000003bc683c9681",
          "blockHash": "0xa8cccff198691c0d5bc2b2cb9a7c9f329aae905cdfece19b1bdcfc7c80ccf984",
          "blockNumber": "0x1019fbd",
          "transactionHash": "0x669c70d2352e9f890576994fbd182e239d26ddb92c692c780bd05e9d3219b8cc",
          "transactionIndex": "0x9",
          "logIndex": "0x33",
          "removed": false
        },
        {
          "address": "0x6edce65403992e310a62460808c4b910d972f10f",
          "topics": [
            "0x1ab700d4ced0c005b164c0f789fd09fcbb0156d4c2041b8a3bfbcd961cd1567f"
          ],
          "data": "0x00000000000000000000000000000000000000000000000000000000000000600000000000000000000000000000000000000000000000000000000000000180000000000000000000000000b31d2cb502e25b30c651842c7c3293c51fe6d16f00000000000000000000000000000000000000000000000000000000000000f101000000000000000100009d280000000000000000000000006da70c3c286e44f8965c0c26d7d47dba074e9db000009d35000000000000000000000000651f45d00c1fecbc345f7ee708ffe4ab57aa46f69a036385f397f5f2554f466104438af2718483208773181bb6136561b2c6da3c00000000000000000000000012b2434a1022d5787bf06056f2885fe35de62bf8000000000000000000000000000000000000000000000000000000000000000000000000000000000000000000000000000000000000000000000000002dc6c00000000000000000000000005fd84259d66cd46123540766be93dfe6d43130d700000000000000000000000000000000000000000000000000000000000000000000000000000000000000000000160003010011010000000000000000000000000000d6d800000000000000000000",
          "blockHash": "0xa8cccff198691c0d5bc2b2cb9a7c9f329aae905cdfece19b1bdcfc7c80ccf984",
          "blockNumber": "0x1019fbd",
          "transactionHash": "0x669c70d2352e9f890576994fbd182e239d26ddb92c692c780bd05e9d3219b8cc",
          "transactionIndex": "0x9",
          "logIndex": "0x34",
          "removed": false
        }
      ],
      "logsBloom": "0x00000100000000000000000002000000000000000000000000000000000000000000000000004000200000000000000000000000000000000000020000000000000100000000000000000008200000000000000000000000000000000000000000000000000000008210000000000000000000200000000000000810000000000000000000000020000000080000000000000010000000000000000000000010000000009000000000100000000000000000000400400000000440000000000000000002000000000000100000000000000000000000000000000000000000040000040000000000000000000000002000000000000000000000000000000008",
      "type": "0x2",
      "transactionHash": "0x669c70d2352e9f890576994fbd182e239d26ddb92c692c780bd05e9d3219b8cc",
      "transactionIndex": "0x9",
      "blockHash": "0xa8cccff198691c0d5bc2b2cb9a7c9f329aae905cdfece19b1bdcfc7c80ccf984",
      "blockNumber": "0x1019fbd",
      "gasUsed": "0x68d4f",
      "effectiveGasPrice": "0xf437e",
      "from": "0x12b2434a1022d5787bf06056f2885fe35de62bf8",
      "to": "0x6da70c3c286e44f8965c0c26d7d47dba074e9db0",
      "contractAddress": null,
      "l1BaseFeeScalar": "0x1db0",
      "l1BlobBaseFee": "0xf44727f93e",
      "l1BlobBaseFeeScalar": "0xd2730",
      "l1Fee": "0x52451dcbab13",
      "l1GasPrice": "0x5bb8c080",
      "l1GasUsed": "0x640"
    }
  ],
  "libraries": [],
  "pending": [],
  "returns": {},
  "timestamp": 1725569831,
  "chain": 11155420,
  "commit": "2f89147"
}