{
  "transactions": [
    {
      "hash": "0x2cce6755b8142f6f489ac98ac5b2b6527df8ad750abe3921064635f05387f1d7",
      "transactionType": "CALL",
      "contractName": null,
      "contractAddress": "0x5fd84259d66cd46123540766be93dfe6d43130d7",
      "function": "approve(address,uint256)",
      "arguments": [
        "0xfE4754206AbD49Ae46ada8B45878353D7BDD1B32",
        "2000000"
      ],
      "transaction": {
        "from": "0x12b2434a1022d5787bf06056f2885fe35de62bf8",
        "to": "0x5fd84259d66cd46123540766be93dfe6d43130d7",
        "gas": "0x12b1b",
        "value": "0x0",
        "input": "0x095ea7b3000000000000000000000000fe4754206abd49ae46ada8b45878353d7bdd1b3200000000000000000000000000000000000000000000000000000000001e8480",
        "nonce": "0x9d",
        "chainId": "0xaa37dc"
      },
      "additionalContracts": [],
      "isFixedGasLimit": false
    },
    {
      "hash": "0x96b16d059f981181bbbd3dfd2299f99fb5d1559940739abf64c38f2c8a817fcb",
      "transactionType": "CALL",
      "contractName": null,
      "contractAddress": "0xfe4754206abd49ae46ada8b45878353d7bdd1b32",
      "function": "lockTokens(uint256,uint256,uint256,uint32)",
      "arguments": [
        "0",
        "2000000",
        "1000000",
        "11155420"
      ],
      "transaction": {
        "from": "0x12b2434a1022d5787bf06056f2885fe35de62bf8",
        "to": "0xfe4754206abd49ae46ada8b45878353d7bdd1b32",
        "gas": "0x87f3a",
        "value": "0x1ff973cafa8000",
        "input": "0xfb4f2057000000000000000000000000000000000000000000000000000000000000000000000000000000000000000000000000000000000000000000000000001e848000000000000000000000000000000000000000000000000000000000000f42400000000000000000000000000000000000000000000000000000000000aa37dc",
        "nonce": "0x9e",
        "chainId": "0xaa37dc"
      },
      "additionalContracts": [],
      "isFixedGasLimit": false
    }
  ],
  "receipts": [
    {
      "status": "0x1",
      "cumulativeGasUsed": "0x184f00",
      "logs": [
        {
          "address": "0x5fd84259d66cd46123540766be93dfe6d43130d7",
          "topics": [
            "0x8c5be1e5ebec7d5bd14f71427d1e84f3dd0314c0f7b2291e5b200ac8c7c3b925",
            "0x00000000000000000000000012b2434a1022d5787bf06056f2885fe35de62bf8",
            "0x000000000000000000000000fe4754206abd49ae46ada8b45878353d7bdd1b32"
          ],
          "data": "0x00000000000000000000000000000000000000000000000000000000001e8480",
          "blockHash": "0x9c415829885f5502099a5277c3c710c74739967d96fa1629ef1f9e7413d6b4e5",
          "blockNumber": "0x1022f22",
          "transactionHash": "0x2cce6755b8142f6f489ac98ac5b2b6527df8ad750abe3921064635f05387f1d7",
          "transactionIndex": "0x6",
          "logIndex": "0x1b",
          "removed": false
        }
      ],
      "logsBloom": "0x00000000000000000000000000000000000000000000000000000000000000000000000000000000000000000008000000000000000000000000020000200000000000000000000000000000200000000000000000000000000000000000000000000000000000000000000000000000000000200000000000000000000000000000000000000000000000020000000000000000000000000000000000000010020000000000000000000000000000000000000400000000000000000000000000000000000000000000000000000000000000000000000200000000000000000010000000000000000000000000000000000000000000000000000000000000",
      "type": "0x2",
      "transactionHash": "0x2cce6755b8142f6f489ac98ac5b2b6527df8ad750abe3921064635f05387f1d7",
      "transactionIndex": "0x6",
      "blockHash": "0x9c415829885f5502099a5277c3c710c74739967d96fa1629ef1f9e7413d6b4e5",
      "blockNumber": "0x1022f22",
      "gasUsed": "0xd88d",
      "effectiveGasPrice": "0xf6a86",
      "from": "0x12b2434a1022d5787bf06056f2885fe35de62bf8",
      "to": "0x5fd84259d66cd46123540766be93dfe6d43130d7",
      "contractAddress": null,
      "l1BaseFeeScalar": "0x1db0",
      "l1BlobBaseFee": "0x42ddbd76a6",
      "l1BlobBaseFeeScalar": "0xd2730",
      "l1Fee": "0x16b7dccf634a",
      "l1GasPrice": "0x446b48275",
      "l1GasUsed": "0x640"
    },
    {
      "status": "0x1",
      "cumulativeGasUsed": "0x1e75d4",
      "logs": [
        {
          "address": "0x5fd84259d66cd46123540766be93dfe6d43130d7",
          "topics": [
            "0xddf252ad1be2c89b69c2b068fc378daa952ba7f163c4a11628f55a4df523b3ef",
            "0x00000000000000000000000012b2434a1022d5787bf06056f2885fe35de62bf8",
            "0x000000000000000000000000fe4754206abd49ae46ada8b45878353d7bdd1b32"
          ],
          "data": "0x00000000000000000000000000000000000000000000000000000000001e8480",
          "blockHash": "0x9c415829885f5502099a5277c3c710c74739967d96fa1629ef1f9e7413d6b4e5",
          "blockNumber": "0x1022f22",
          "transactionHash": "0x96b16d059f981181bbbd3dfd2299f99fb5d1559940739abf64c38f2c8a817fcb",
          "transactionIndex": "0x7",
          "logIndex": "0x1c",
          "removed": false
        },
        {
          "address": "0xfe4754206abd49ae46ada8b45878353d7bdd1b32",
          "topics": [
            "0x8ec2296d09729265278dc14bc0bc96d35d996a514008369cc4e666e845ed6e2e"
          ],
          "data": "0x00000000000000000000000012b2434a1022d5787bf06056f2885fe35de62bf8000000000000000000000000000000000000000000000000000000000000000000000000000000000000000000000000000000000000000000000000001e84800000000000000000000000000000000000000000000000000000000000aa37dc",
          "blockHash": "0x9c415829885f5502099a5277c3c710c74739967d96fa1629ef1f9e7413d6b4e5",
          "blockNumber": "0x1022f22",
          "transactionHash": "0x96b16d059f981181bbbd3dfd2299f99fb5d1559940739abf64c38f2c8a817fcb",
          "transactionIndex": "0x7",
          "logIndex": "0x1d",
          "removed": false
        },
        {
          "address": "0xb31d2cb502e25b30c651842c7c3293c51fe6d16f",
          "topics": [
            "0x61ed099e74a97a1d7f8bb0952a88ca8b7b8ebd00c126ea04671f92a81213318a"
          ],
          "data": "0x000000000000000000000000dc0d68899405673b932f0db7f8a49191491a5bcb00000000000000000000000000000000000000000000000000004ab780ddd8de",
          "blockHash": "0x9c415829885f5502099a5277c3c710c74739967d96fa1629ef1f9e7413d6b4e5",
          "blockNumber": "0x1022f22",
          "transactionHash": "0x96b16d059f981181bbbd3dfd2299f99fb5d1559940739abf64c38f2c8a817fcb",
          "transactionIndex": "0x7",
          "logIndex": "0x1e",
          "removed": false
        },
        {
          "address": "0xb31d2cb502e25b30c651842c7c3293c51fe6d16f",
          "topics": [
            "0x07ea52d82345d6e838192107d8fd7123d9c2ec8e916cd0aad13fd2b60db24644"
          ],
          "data": "0x000000000000000000000000000000000000000000000000000000000000006000000000000000000000000000000000000000000000000000000000000000a000000000000000000000000000000000000000000000000000000000000000c00000000000000000000000000000000000000000000000000000000000000001000000000000000000000000d680ec569f269aa7015f7979b4f1239b5aa4582c00000000000000000000000000000000000000000000000000000000000000000000000000000000000000000000000000000000000000000000000000000001000000000000000000000000000000000000000000000000000004971c722491",
          "blockHash": "0x9c415829885f5502099a5277c3c710c74739967d96fa1629ef1f9e7413d6b4e5",
          "blockNumber": "0x1022f22",
          "transactionHash": "0x96b16d059f981181bbbd3dfd2299f99fb5d1559940739abf64c38f2c8a817fcb",
          "transactionIndex": "0x7",
          "logIndex": "0x1f",
          "removed": false
        },
        {
          "address": "0x6edce65403992e310a62460808c4b910d972f10f",
          "topics": [
            "0x1ab700d4ced0c005b164c0f789fd09fcbb0156d4c2041b8a3bfbcd961cd1567f"
          ],
          "data": "0x00000000000000000000000000000000000000000000000000000000000000600000000000000000000000000000000000000000000000000000000000000140000000000000000000000000b31d2cb502e25b30c651842c7c3293c51fe6d16f00000000000000000000000000000000000000000000000000000000000000b101000000000000000100009d28000000000000000000000000fe4754206abd49ae46ada8b45878353d7bdd1b3200009d35000000000000000000000000a01d29bf2555850f2758c28b5c6ea2012297d5dd83fa0b31f6238bba9a20a40aaeb776b772d836ada243358cd8f56ac0db393b0300000000000000000000000012b2434a1022d5787bf06056f2885fe35de62bf800000000000000000000000000000000000000000000000000000000001e84800000000000000000000000000000000000000000000000000000000000000000000000000000000000000000000016000301001101000000000000000000000000000186a000000000000000000000",
          "blockHash": "0x9c415829885f5502099a5277c3c710c74739967d96fa1629ef1f9e7413d6b4e5",
          "blockNumber": "0x1022f22",
          "transactionHash": "0x96b16d059f981181bbbd3dfd2299f99fb5d1559940739abf64c38f2c8a817fcb",
          "transactionIndex": "0x7",
          "logIndex": "0x20",
          "removed": false
        }
      ],
      "logsBloom": "0x000001000000000000000000000000000000000000000000000000000000000000000000000040002000000000080000000000000000000000000204000000000001000000000000000000082000000000000000000000000000000000000000000000000000000082100000000000000000002000000000000000100000000000080000000000200000000a0000000000000000000000000000000000000010000000009000000000100000000000000000000440400000000440000000000000000002000000000000100000000000000000000000000200000000000000000000040000000000000000000000002000000000000000000000000000000000",
      "type": "0x2",
      "transactionHash": "0x96b16d059f981181bbbd3dfd2299f99fb5d1559940739abf64c38f2c8a817fcb",
      "transactionIndex": "0x7",
      "blockHash": "0x9c415829885f5502099a5277c3c710c74739967d96fa1629ef1f9e7413d6b4e5",
      "blockNumber": "0x1022f22",
      "gasUsed": "0x626d4",
      "effectiveGasPrice": "0xf6a86",
      "from": "0x12b2434a1022d5787bf06056f2885fe35de62bf8",
      "to": "0xfe4754206abd49ae46ada8b45878353d7bdd1b32",
      "contractAddress": null,
      "l1BaseFeeScalar": "0x1db0",
      "l1BlobBaseFee": "0x42ddbd76a6",
      "l1BlobBaseFeeScalar": "0xd2730",
      "l1Fee": "0x16b7dccf634a",
      "l1GasPrice": "0x446b48275",
      "l1GasUsed": "0x640"
    }
  ],
  "libraries": [],
  "pending": [],
  "returns": {},
  "timestamp": 1725643255,
  "chain": 11155420,
  "commit": "dc78ae4"
}