{
  "transactions": [
    {
      "hash": "0xab6bb9bbc39de21632b9f8d1af7207e35b37ddad73a84c45f0ae1eff1d9edac2",
      "transactionType": "CALL",
      "contractName": null,
      "contractAddress": "0x5fd84259d66cd46123540766be93dfe6d43130d7",
      "function": "approve(address,uint256)",
      "arguments": [
        "0xCE36dF1fA4De65cEddA45C800134e82121cC00a3",
        "1000000"
      ],
      "transaction": {
        "from": "0x12b2434a1022d5787bf06056f2885fe35de62bf8",
        "to": "0x5fd84259d66cd46123540766be93dfe6d43130d7",
        "gas": "0x13ca2",
        "value": "0x0",
        "input": "0x095ea7b3000000000000000000000000ce36df1fa4de65cedda45c800134e82121cc00a300000000000000000000000000000000000000000000000000000000000f4240",
        "nonce": "0xd1",
        "chainId": "0xaa37dc"
      },
      "additionalContracts": [],
      "isFixedGasLimit": false
    },
    {
      "hash": "0x991410dc6cd582258329bf3011333f6d3cc6e47701eaa3490444c170a0108bca",
      "transactionType": "CALL",
      "contractName": null,
      "contractAddress": "0xce36df1fa4de65cedda45c800134e82121cc00a3",
      "function": "lockTokens(uint256,uint256,uint256,uint32)",
      "arguments": [
        "0",
        "1000000",
        "1000000",
        "11155420"
      ],
      "transaction": {
        "from": "0x12b2434a1022d5787bf06056f2885fe35de62bf8",
        "to": "0xce36df1fa4de65cedda45c800134e82121cc00a3",
        "gas": "0x8fadf",
        "value": "0x11c37937e08000",
        "input": "0xfb4f2057000000000000000000000000000000000000000000000000000000000000000000000000000000000000000000000000000000000000000000000000000f424000000000000000000000000000000000000000000000000000000000000f42400000000000000000000000000000000000000000000000000000000000aa37dc",
        "nonce": "0xd2",
        "chainId": "0xaa37dc"
      },
      "additionalContracts": [],
      "isFixedGasLimit": false
    }
  ],
  "receipts": [
    {
      "status": "0x1",
      "cumulativeGasUsed": "0x21e253",
      "logs": [
        {
          "address": "0x5fd84259d66cd46123540766be93dfe6d43130d7",
          "topics": [
            "0x8c5be1e5ebec7d5bd14f71427d1e84f3dd0314c0f7b2291e5b200ac8c7c3b925",
            "0x00000000000000000000000012b2434a1022d5787bf06056f2885fe35de62bf8",
            "0x000000000000000000000000ce36df1fa4de65cedda45c800134e82121cc00a3"
          ],
          "data": "0x00000000000000000000000000000000000000000000000000000000000f4240",
          "blockHash": "0x3ca52c4cac7215bbe3623317e16601e61bbb2eba7097daae4b4923dd622a030e",
          "blockNumber": "0x102e18f",
          "transactionHash": "0xab6bb9bbc39de21632b9f8d1af7207e35b37ddad73a84c45f0ae1eff1d9edac2",
          "transactionIndex": "0x4",
          "logIndex": "0x26",
          "removed": false
        }
      ],
      "logsBloom": "0x00000000000000000000000000000000000000000000000000000000000000000000000000000000000000000000000000010000000000000000020000200000000000000000000000000000200000000000000000000000000000000000000000000000000000000000000000000000000000200000000000000000000000000000008000000000000000000000000000000000000000000000000000000010020000000000000000000000000000000000000400000000000000000000000000000000000000040000000000000000000000000000000000000000000000000010000000000000000000000000000000000000000000000000000000000000",
      "type": "0x2",
      "transactionHash": "0xab6bb9bbc39de21632b9f8d1af7207e35b37ddad73a84c45f0ae1eff1d9edac2",
      "transactionIndex": "0x4",
      "blockHash": "0x3ca52c4cac7215bbe3623317e16601e61bbb2eba7097daae4b4923dd622a030e",
      "blockNumber": "0x102e18f",
      "gasUsed": "0xd881",
      "effectiveGasPrice": "0xf6a9a",
      "from": "0x12b2434a1022d5787bf06056f2885fe35de62bf8",
      "to": "0x5fd84259d66cd46123540766be93dfe6d43130d7",
      "contractAddress": null,
      "l1BaseFeeScalar": "0x1db0",
      "l1BlobBaseFee": "0xd5ea528d2",
      "l1BlobBaseFeeScalar": "0xd2730",
      "l1Fee": "0x4872989e455",
      "l1GasPrice": "0x8cea3d33",
      "l1GasUsed": "0x640"
    },
    {
      "status": "0x1",
      "cumulativeGasUsed": "0x280634",
      "logs": [
        {
          "address": "0x5fd84259d66cd46123540766be93dfe6d43130d7",
          "topics": [
            "0xddf252ad1be2c89b69c2b068fc378daa952ba7f163c4a11628f55a4df523b3ef",
            "0x00000000000000000000000012b2434a1022d5787bf06056f2885fe35de62bf8",
            "0x000000000000000000000000ce36df1fa4de65cedda45c800134e82121cc00a3"
          ],
          "data": "0x00000000000000000000000000000000000000000000000000000000000f4240",
          "blockHash": "0x3ca52c4cac7215bbe3623317e16601e61bbb2eba7097daae4b4923dd622a030e",
          "blockNumber": "0x102e18f",
          "transactionHash": "0x991410dc6cd582258329bf3011333f6d3cc6e47701eaa3490444c170a0108bca",
          "transactionIndex": "0x5",
          "logIndex": "0x27",
          "removed": false
        },
        {
          "address": "0xce36df1fa4de65cedda45c800134e82121cc00a3",
          "topics": [
            "0x8ec2296d09729265278dc14bc0bc96d35d996a514008369cc4e666e845ed6e2e"
          ],
          "data": "0x00000000000000000000000012b2434a1022d5787bf06056f2885fe35de62bf8000000000000000000000000000000000000000000000000000000000000000000000000000000000000000000000000000000000000000000000000000f42400000000000000000000000000000000000000000000000000000000000aa37dc",
          "blockHash": "0x3ca52c4cac7215bbe3623317e16601e61bbb2eba7097daae4b4923dd622a030e",
          "blockNumber": "0x102e18f",
          "transactionHash": "0x991410dc6cd582258329bf3011333f6d3cc6e47701eaa3490444c170a0108bca",
          "transactionIndex": "0x5",
          "logIndex": "0x28",
          "removed": false
        },
        {
          "address": "0xb31d2cb502e25b30c651842c7c3293c51fe6d16f",
          "topics": [
            "0x61ed099e74a97a1d7f8bb0952a88ca8b7b8ebd00c126ea04671f92a81213318a"
          ],
          "data": "0x000000000000000000000000dc0d68899405673b932f0db7f8a49191491a5bcb00000000000000000000000000000000000000000000000000005193fce90c61",
          "blockHash": "0x3ca52c4cac7215bbe3623317e16601e61bbb2eba7097daae4b4923dd622a030e",
          "blockNumber": "0x102e18f",
          "transactionHash": "0x991410dc6cd582258329bf3011333f6d3cc6e47701eaa3490444c170a0108bca",
          "transactionIndex": "0x5",
          "logIndex": "0x29",
          "removed": false
        },
        {
          "address": "0xb31d2cb502e25b30c651842c7c3293c51fe6d16f",
          "topics": [
            "0x07ea52d82345d6e838192107d8fd7123d9c2ec8e916cd0aad13fd2b60db24644"
          ],
          "data": "0x000000000000000000000000000000000000000000000000000000000000006000000000000000000000000000000000000000000000000000000000000000a000000000000000000000000000000000000000000000000000000000000000c00000000000000000000000000000000000000000000000000000000000000001000000000000000000000000d680ec569f269aa7015f7979b4f1239b5aa4582c0000000000000000000000000000000000000000000000000000000000000000000000000000000000000000000000000000000000000000000000000000000100000000000000000000000000000000000000000000000000000427780e8f90",
          "blockHash": "0x3ca52c4cac7215bbe3623317e16601e61bbb2eba7097daae4b4923dd622a030e",
          "blockNumber": "0x102e18f",
          "transactionHash": "0x991410dc6cd582258329bf3011333f6d3cc6e47701eaa3490444c170a0108bca",
          "transactionIndex": "0x5",
          "logIndex": "0x2a",
          "removed": false
        },
        {
          "address": "0x6edce65403992e310a62460808c4b910d972f10f",
          "topics": [
            "0x1ab700d4ced0c005b164c0f789fd09fcbb0156d4c2041b8a3bfbcd961cd1567f"
          ],
          "data": "0x00000000000000000000000000000000000000000000000000000000000000600000000000000000000000000000000000000000000000000000000000000140000000000000000000000000b31d2cb502e25b30c651842c7c3293c51fe6d16f00000000000000000000000000000000000000000000000000000000000000b101000000000000000100009d28000000000000000000000000ce36df1fa4de65cedda45c800134e82121cc00a300009d2800000000000000000000000038ea59ae56acbae5a100282bd0f975cc9118ab95c7d6be457af746fbb2cdd5e62af581cd3c8206d3cd8090cb496ed48fba1b83de00000000000000000000000012b2434a1022d5787bf06056f2885fe35de62bf800000000000000000000000000000000000000000000000000000000000f4240000000000000000000000000000000000000000000000000000000000000000000000000000000000000000000002c00030100110100000000000000000000000000011170010013030000000000000000000000000000000111700000000000000000000000000000000000000000",
          "blockHash": "0x3ca52c4cac7215bbe3623317e16601e61bbb2eba7097daae4b4923dd622a030e",
          "blockNumber": "0x102e18f",
          "transactionHash": "0x991410dc6cd582258329bf3011333f6d3cc6e47701eaa3490444c170a0108bca",
          "transactionIndex": "0x5",
          "logIndex": "0x2b",
          "removed": false
        }
      ],
      "logsBloom": "0x00000100000000000000000000000000000000000000000000000000000000000000000000004000200080000000000000010000000000000000020000000000000100000080000000000008200000000000000000000000000000000000000000000000000000008210000000000000000000200400000000000010000000000000008000000020000000080000000000000000000000000000000000000010000000009000000000100000000000000000000400400000000440000000000000000002000000040000100000000000000000000000000000000000000000000000040000000000000000000000002000000000000000000000000000000000",
      "type": "0x2",
      "transactionHash": "0x991410dc6cd582258329bf3011333f6d3cc6e47701eaa3490444c170a0108bca",
      "transactionIndex": "0x5",
      "blockHash": "0x3ca52c4cac7215bbe3623317e16601e61bbb2eba7097daae4b4923dd622a030e",
      "blockNumber": "0x102e18f",
      "gasUsed": "0x623e1",
      "effectiveGasPrice": "0xf6a9a",
      "from": "0x12b2434a1022d5787bf06056f2885fe35de62bf8",
      "to": "0xce36df1fa4de65cedda45c800134e82121cc00a3",
      "contractAddress": null,
      "l1BaseFeeScalar": "0x1db0",
      "l1BlobBaseFee": "0xd5ea528d2",
      "l1BlobBaseFeeScalar": "0xd2730",
      "l1Fee": "0x4872989e455",
      "l1GasPrice": "0x8cea3d33",
      "l1GasUsed": "0x640"
    }
  ],
  "libraries": [],
  "pending": [],
  "returns": {},
  "timestamp": 1725734610,
  "chain": 11155420,
  "commit": "67fd3b7"
}