{
  "transactions": [
    {
      "hash": "0xbffe010a14b3cdb56eabee2a81b6910dfda7d5df996fcbea804e08bd0f342bef",
      "transactionType": "CALL",
      "contractName": null,
      "contractAddress": "0x5fd84259d66cd46123540766be93dfe6d43130d7",
      "function": "approve(address,uint256)",
      "arguments": [
        "0xac6734a2B13ACf243F4c8b9aEda303D0fe544bd1",
        "2000000"
      ],
      "transaction": {
        "from": "0x12b2434a1022d5787bf06056f2885fe35de62bf8",
        "to": "0x5fd84259d66cd46123540766be93dfe6d43130d7",
        "gas": "0x12b1b",
        "value": "0x0",
        "input": "0x095ea7b3000000000000000000000000ac6734a2b13acf243f4c8b9aeda303d0fe544bd100000000000000000000000000000000000000000000000000000000001e8480",
        "nonce": "0x84",
        "chainId": "0xaa37dc"
      },
      "additionalContracts": [],
      "isFixedGasLimit": false
    },
    {
      "hash": "0xcf2624056eb9c867c6826487165ed725e4c0be30b46a6c9f6559293d8a9e6a74",
      "transactionType": "CALL",
      "contractName": null,
      "contractAddress": "0xac6734a2b13acf243f4c8b9aeda303d0fe544bd1",
      "function": "lockTokens(uint256,uint256,uint256,uint32)",
      "arguments": [
        "0",
        "2000000",
        "1000000",
        "11155420"
      ],
      "transaction": {
        "from": "0x12b2434a1022d5787bf06056f2885fe35de62bf8",
        "to": "0xac6734a2b13acf243f4c8b9aeda303d0fe544bd1",
        "gas": "0x89303",
        "value": "0x11c37937e08000",
        "input": "0xfb4f2057000000000000000000000000000000000000000000000000000000000000000000000000000000000000000000000000000000000000000000000000001e848000000000000000000000000000000000000000000000000000000000000f42400000000000000000000000000000000000000000000000000000000000aa37dc",
        "nonce": "0x85",
        "chainId": "0xaa37dc"
      },
      "additionalContracts": [],
      "isFixedGasLimit": false
    }
  ],
  "receipts": [
    {
      "status": "0x1",
      "cumulativeGasUsed": "0x2da180",
      "logs": [
        {
          "address": "0x5fd84259d66cd46123540766be93dfe6d43130d7",
          "topics": [
            "0x8c5be1e5ebec7d5bd14f71427d1e84f3dd0314c0f7b2291e5b200ac8c7c3b925",
            "0x00000000000000000000000012b2434a1022d5787bf06056f2885fe35de62bf8",
            "0x000000000000000000000000ac6734a2b13acf243f4c8b9aeda303d0fe544bd1"
          ],
          "data": "0x00000000000000000000000000000000000000000000000000000000001e8480",
          "blockHash": "0x927d9179793725266bd17612000301066a029ccd77ca7e835f707a84fdfe20eb",
          "blockNumber": "0x1022247",
          "transactionHash": "0xbffe010a14b3cdb56eabee2a81b6910dfda7d5df996fcbea804e08bd0f342bef",
          "transactionIndex": "0x6",
          "logIndex": "0x34",
          "removed": false
        }
      ],
      "logsBloom": "0x00000000000000000000000000000000000000000000000000000000000000000000000000000000000000000000000000000000000000000000020000200000000000000000000000000000200000000000000000000000000000000000000000000000000000000000000000000000000000220000000000002000000000000000000000000000000000000000000000000000000000000000000000000010020000000008000000000000000000000000000400000000000000000000000000000000000000000000000000000000000000000000000000000000000000000010000000000000000000000000000000000000000000000000000000000000",
      "type": "0x2",
      "transactionHash": "0xbffe010a14b3cdb56eabee2a81b6910dfda7d5df996fcbea804e08bd0f342bef",
      "transactionIndex": "0x6",
      "blockHash": "0x927d9179793725266bd17612000301066a029ccd77ca7e835f707a84fdfe20eb",
      "blockNumber": "0x1022247",
      "gasUsed": "0xd88d",
      "effectiveGasPrice": "0xf6a9b",
      "from": "0x12b2434a1022d5787bf06056f2885fe35de62bf8",
      "to": "0x5fd84259d66cd46123540766be93dfe6d43130d7",
      "contractAddress": null,
      "l1BaseFeeScalar": "0x1db0",
      "l1BlobBaseFee": "0xd0c6b252ef",
      "l1BlobBaseFeeScalar": "0xd2730",
      "l1Fee": "0x46e6ae787f7c",
      "l1GasPrice": "0xcadd3111c",
      "l1GasUsed": "0x640"
    },
    {
      "status": "0x1",
      "cumulativeGasUsed": "0x33d6a7",
      "logs": [
        {
          "address": "0x5fd84259d66cd46123540766be93dfe6d43130d7",
          "topics": [
            "0xddf252ad1be2c89b69c2b068fc378daa952ba7f163c4a11628f55a4df523b3ef",
            "0x00000000000000000000000012b2434a1022d5787bf06056f2885fe35de62bf8",
            "0x000000000000000000000000ac6734a2b13acf243f4c8b9aeda303d0fe544bd1"
          ],
          "data": "0x00000000000000000000000000000000000000000000000000000000001e8480",
          "blockHash": "0x927d9179793725266bd17612000301066a029ccd77ca7e835f707a84fdfe20eb",
          "blockNumber": "0x1022247",
          "transactionHash": "0xcf2624056eb9c867c6826487165ed725e4c0be30b46a6c9f6559293d8a9e6a74",
          "transactionIndex": "0x7",
          "logIndex": "0x35",
          "removed": false
        },
        {
          "address": "0xac6734a2b13acf243f4c8b9aeda303d0fe544bd1",
          "topics": [
            "0x8ec2296d09729265278dc14bc0bc96d35d996a514008369cc4e666e845ed6e2e"
          ],
          "data": "0x00000000000000000000000012b2434a1022d5787bf06056f2885fe35de62bf8000000000000000000000000000000000000000000000000000000000000000000000000000000000000000000000000000000000000000000000000001e84800000000000000000000000000000000000000000000000000000000000aa37dc",
          "blockHash": "0x927d9179793725266bd17612000301066a029ccd77ca7e835f707a84fdfe20eb",
          "blockNumber": "0x1022247",
          "transactionHash": "0xcf2624056eb9c867c6826487165ed725e4c0be30b46a6c9f6559293d8a9e6a74",
          "transactionIndex": "0x7",
          "logIndex": "0x36",
          "removed": false
        },
        {
          "address": "0xb31d2cb502e25b30c651842c7c3293c51fe6d16f",
          "topics": [
            "0x61ed099e74a97a1d7f8bb0952a88ca8b7b8ebd00c126ea04671f92a81213318a"
          ],
          "data": "0x000000000000000000000000dc0d68899405673b932f0db7f8a49191491a5bcb00000000000000000000000000000000000000000000000000004a936c7318e6",
          "blockHash": "0x927d9179793725266bd17612000301066a029ccd77ca7e835f707a84fdfe20eb",
          "blockNumber": "0x1022247",
          "transactionHash": "0xcf2624056eb9c867c6826487165ed725e4c0be30b46a6c9f6559293d8a9e6a74",
          "transactionIndex": "0x7",
          "logIndex": "0x37",
          "removed": false
        },
        {
          "address": "0xb31d2cb502e25b30c651842c7c3293c51fe6d16f",
          "topics": [
            "0x07ea52d82345d6e838192107d8fd7123d9c2ec8e916cd0aad13fd2b60db24644"
          ],
          "data": "0x000000000000000000000000000000000000000000000000000000000000006000000000000000000000000000000000000000000000000000000000000000a000000000000000000000000000000000000000000000000000000000000000c00000000000000000000000000000000000000000000000000000000000000001000000000000000000000000d680ec569f269aa7015f7979b4f1239b5aa4582c0000000000000000000000000000000000000000000000000000000000000000000000000000000000000000000000000000000000000000000000000000000100000000000000000000000000000000000000000000000000000482d5f6c521",
          "blockHash": "0x927d9179793725266bd17612000301066a029ccd77ca7e835f707a84fdfe20eb",
          "blockNumber": "0x1022247",
          "transactionHash": "0xcf2624056eb9c867c6826487165ed725e4c0be30b46a6c9f6559293d8a9e6a74",
          "transactionIndex": "0x7",
          "logIndex": "0x38",
          "removed": false
        },
        {
          "address": "0x6edce65403992e310a62460808c4b910d972f10f",
          "topics": [
            "0x1ab700d4ced0c005b164c0f789fd09fcbb0156d4c2041b8a3bfbcd961cd1567f"
          ],
          "data": "0x00000000000000000000000000000000000000000000000000000000000000600000000000000000000000000000000000000000000000000000000000000180000000000000000000000000b31d2cb502e25b30c651842c7c3293c51fe6d16f00000000000000000000000000000000000000000000000000000000000000f101000000000000000100009d28000000000000000000000000ac6734a2b13acf243f4c8b9aeda303d0fe544bd100009d350000000000000000000000005500999e37499c94e216bc1d829164734a1bba5ae6369f79fa6908699959b9f1b9b17ab5fc130ebb511b7fb055b27d305e30e12400000000000000000000000012b2434a1022d5787bf06056f2885fe35de62bf80000000000000000000000005fd84259d66cd46123540766be93dfe6d43130d7000000000000000000000000000000000000000000000000000000000000000000000000000000000000000000000000000000000000000000000000001e84800000000000000000000000000000000000000000000000000000000000000000000000000000000000000000000016000301001101000000000000000000000000000186a000000000000000000000",
          "blockHash": "0x927d9179793725266bd17612000301066a029ccd77ca7e835f707a84fdfe20eb",
          "blockNumber": "0x1022247",
          "transactionHash": "0xcf2624056eb9c867c6826487165ed725e4c0be30b46a6c9f6559293d8a9e6a74",
          "transactionIndex": "0x7",
          "logIndex": "0x39",
          "removed": false
        }
      ],
      "logsBloom": "0x00000100000000000000000000000000000000000000000000000000000000000000000000004000200000000000000000000000000000000000030000000000000100000000000000000008200000000000000000000000000000000000000000000000000000008210000000000000000000220000000000002010000000000000000000000020000000080000000000000000000000000000000000000010000000009008000000100000000000000000000400400000000440000000000000000002000000000000100000000000000000000000000000000000000000000000040000000000000000000000002000000000020000010000000000000000",
      "type": "0x2",
      "transactionHash": "0xcf2624056eb9c867c6826487165ed725e4c0be30b46a6c9f6559293d8a9e6a74",
      "transactionIndex": "0x7",
      "blockHash": "0x927d9179793725266bd17612000301066a029ccd77ca7e835f707a84fdfe20eb",
      "blockNumber": "0x1022247",
      "gasUsed": "0x63527",
      "effectiveGasPrice": "0xf6a9b",
      "from": "0x12b2434a1022d5787bf06056f2885fe35de62bf8",
      "to": "0xac6734a2b13acf243f4c8b9aeda303d0fe544bd1",
      "contractAddress": null,
      "l1BaseFeeScalar": "0x1db0",
      "l1BlobBaseFee": "0xd0c6b252ef",
      "l1BlobBaseFeeScalar": "0xd2730",
      "l1Fee": "0x46e6ae787f7c",
      "l1GasPrice": "0xcadd3111c",
      "l1GasUsed": "0x640"
    }
  ],
  "libraries": [],
  "pending": [],
  "returns": {},
  "timestamp": 1725636673,
  "chain": 11155420,
  "commit": "dc78ae4"
}