{
  "transactions": [
    {
      "hash": "0xdceaad2417adddf0a08018e208244d450273231ad7483c945cedfa9a781def0a",
      "transactionType": "CALL",
      "contractName": null,
      "contractAddress": "0x5fd84259d66cd46123540766be93dfe6d43130d7",
      "function": "approve(address,uint256)",
      "arguments": [
        "0x02183f24DBB2160f76c38AbEA119FBFB9A9fc339",
        "2000000"
      ],
      "transaction": {
        "from": "0x12b2434a1022d5787bf06056f2885fe35de62bf8",
        "to": "0x5fd84259d66cd46123540766be93dfe6d43130d7",
        "gas": "0x12b1b",
        "value": "0x0",
        "input": "0x095ea7b300000000000000000000000002183f24dbb2160f76c38abea119fbfb9a9fc33900000000000000000000000000000000000000000000000000000000001e8480",
        "nonce": "0xc3",
        "chainId": "0xaa37dc"
      },
      "additionalContracts": [],
      "isFixedGasLimit": false
    },
    {
      "hash": "0x2e388eccfe91e9834cfd3eedc8282cedac411179247a45d603cf5928fde621a4",
      "transactionType": "CALL",
      "contractName": null,
      "contractAddress": "0x02183f24dbb2160f76c38abea119fbfb9a9fc339",
      "function": "lockTokens(uint256,uint256,uint256,uint32)",
      "arguments": [
        "0",
        "2000000",
        "1000000",
        "11155420"
      ],
      "transaction": {
        "from": "0x12b2434a1022d5787bf06056f2885fe35de62bf8",
        "to": "0x02183f24dbb2160f76c38abea119fbfb9a9fc339",
        "gas": "0x9164b",
        "value": "0x11c37937e08000",
        "input": "0xfb4f2057000000000000000000000000000000000000000000000000000000000000000000000000000000000000000000000000000000000000000000000000001e848000000000000000000000000000000000000000000000000000000000000f42400000000000000000000000000000000000000000000000000000000000aa37dc",
        "nonce": "0xc4",
        "chainId": "0xaa37dc"
      },
      "additionalContracts": [],
      "isFixedGasLimit": false
    }
  ],
  "receipts": [
    {
      "status": "0x1",
      "cumulativeGasUsed": "0x11b75d",
      "logs": [
        {
          "address": "0x5fd84259d66cd46123540766be93dfe6d43130d7",
          "topics": [
            "0x8c5be1e5ebec7d5bd14f71427d1e84f3dd0314c0f7b2291e5b200ac8c7c3b925",
            "0x00000000000000000000000012b2434a1022d5787bf06056f2885fe35de62bf8",
            "0x00000000000000000000000002183f24dbb2160f76c38abea119fbfb9a9fc339"
          ],
          "data": "0x00000000000000000000000000000000000000000000000000000000001e8480",
          "blockHash": "0xe95c94014a108d2a0be11b2e3df7793338d930c197efeaacf516f64c32748d6f",
          "blockNumber": "0x102df12",
          "transactionHash": "0xdceaad2417adddf0a08018e208244d450273231ad7483c945cedfa9a781def0a",
          "transactionIndex": "0x4",
          "logIndex": "0x17",
          "removed": false
        }
      ],
      "logsBloom": "0x00000000000000000000000000000000000000000000000000000000000000000000000000000000000000000000000000000000000000000000020000200000000000000000000000000000200000000000000000000000000010000000000000000000000000000000000000000000000000200000000000000000000000000000000000000000000000000000000000000000000000000000000000000010020000000000000000000000000000000000000400000000000000000000000000000000000000000000000000000000000000000400000000000000000000000010000000000000000000000000000002000000000000000000000000000000",
      "type": "0x2",
      "transactionHash": "0xdceaad2417adddf0a08018e208244d450273231ad7483c945cedfa9a781def0a",
      "transactionIndex": "0x4",
      "blockHash": "0xe95c94014a108d2a0be11b2e3df7793338d930c197efeaacf516f64c32748d6f",
      "blockNumber": "0x102df12",
      "gasUsed": "0xd88d",
      "effectiveGasPrice": "0xf6a95",
      "from": "0x12b2434a1022d5787bf06056f2885fe35de62bf8",
      "to": "0x5fd84259d66cd46123540766be93dfe6d43130d7",
      "contractAddress": null,
      "l1BaseFeeScalar": "0x1db0",
      "l1BlobBaseFee": "0x156a6a80b8",
      "l1BlobBaseFeeScalar": "0xd2730",
      "l1Fee": "0x73edf29f703",
      "l1GasPrice": "0xba180d1d",
      "l1GasUsed": "0x640"
    },
    {
      "status": "0x1",
      "cumulativeGasUsed": "0x17edfe",
      "logs": [
        {
          "address": "0x5fd84259d66cd46123540766be93dfe6d43130d7",
          "topics": [
            "0xddf252ad1be2c89b69c2b068fc378daa952ba7f163c4a11628f55a4df523b3ef",
            "0x00000000000000000000000012b2434a1022d5787bf06056f2885fe35de62bf8",
            "0x00000000000000000000000002183f24dbb2160f76c38abea119fbfb9a9fc339"
          ],
          "data": "0x00000000000000000000000000000000000000000000000000000000001e8480",
          "blockHash": "0xe95c94014a108d2a0be11b2e3df7793338d930c197efeaacf516f64c32748d6f",
          "blockNumber": "0x102df12",
          "transactionHash": "0x2e388eccfe91e9834cfd3eedc8282cedac411179247a45d603cf5928fde621a4",
          "transactionIndex": "0x5",
          "logIndex": "0x18",
          "removed": false
        },
        {
          "address": "0x02183f24dbb2160f76c38abea119fbfb9a9fc339",
          "topics": [
            "0x8ec2296d09729265278dc14bc0bc96d35d996a514008369cc4e666e845ed6e2e"
          ],
          "data": "0x00000000000000000000000012b2434a1022d5787bf06056f2885fe35de62bf8000000000000000000000000000000000000000000000000000000000000000000000000000000000000000000000000000000000000000000000000001e84800000000000000000000000000000000000000000000000000000000000aa37dc",
          "blockHash": "0xe95c94014a108d2a0be11b2e3df7793338d930c197efeaacf516f64c32748d6f",
          "blockNumber": "0x102df12",
          "transactionHash": "0x2e388eccfe91e9834cfd3eedc8282cedac411179247a45d603cf5928fde621a4",
          "transactionIndex": "0x5",
          "logIndex": "0x19",
          "removed": false
        },
        {
          "address": "0xb31d2cb502e25b30c651842c7c3293c51fe6d16f",
          "topics": [
            "0x61ed099e74a97a1d7f8bb0952a88ca8b7b8ebd00c126ea04671f92a81213318a"
          ],
          "data": "0x000000000000000000000000dc0d68899405673b932f0db7f8a49191491a5bcb00000000000000000000000000000000000000000000000000005193fce90c61",
          "blockHash": "0xe95c94014a108d2a0be11b2e3df7793338d930c197efeaacf516f64c32748d6f",
          "blockNumber": "0x102df12",
          "transactionHash": "0x2e388eccfe91e9834cfd3eedc8282cedac411179247a45d603cf5928fde621a4",
          "transactionIndex": "0x5",
          "logIndex": "0x1a",
          "removed": false
        },
        {
          "address": "0xb31d2cb502e25b30c651842c7c3293c51fe6d16f",
          "topics": [
            "0x07ea52d82345d6e838192107d8fd7123d9c2ec8e916cd0aad13fd2b60db24644"
          ],
          "data": "0x000000000000000000000000000000000000000000000000000000000000006000000000000000000000000000000000000000000000000000000000000000a000000000000000000000000000000000000000000000000000000000000000c00000000000000000000000000000000000000000000000000000000000000001000000000000000000000000d680ec569f269aa7015f7979b4f1239b5aa4582c0000000000000000000000000000000000000000000000000000000000000000000000000000000000000000000000000000000000000000000000000000000100000000000000000000000000000000000000000000000000000427780e8f90",
          "blockHash": "0xe95c94014a108d2a0be11b2e3df7793338d930c197efeaacf516f64c32748d6f",
          "blockNumber": "0x102df12",
          "transactionHash": "0x2e388eccfe91e9834cfd3eedc8282cedac411179247a45d603cf5928fde621a4",
          "transactionIndex": "0x5",
          "logIndex": "0x1b",
          "removed": false
        },
        {
          "address": "0x6edce65403992e310a62460808c4b910d972f10f",
          "topics": [
            "0x1ab700d4ced0c005b164c0f789fd09fcbb0156d4c2041b8a3bfbcd961cd1567f"
          ],
          "data": "0x00000000000000000000000000000000000000000000000000000000000000600000000000000000000000000000000000000000000000000000000000000140000000000000000000000000b31d2cb502e25b30c651842c7c3293c51fe6d16f00000000000000000000000000000000000000000000000000000000000000b101000000000000000100009d2800000000000000000000000002183f24dbb2160f76c38abea119fbfb9a9fc33900009d280000000000000000000000006bb36b9c9fb8d34411928ade269e2788b53318b541031a8541c4dfa4f9b311de1c75ddb481e99e431d632f78028eca423b32879b00000000000000000000000012b2434a1022d5787bf06056f2885fe35de62bf800000000000000000000000000000000000000000000000000000000001e8480000000000000000000000000000000000000000000000000000000000000000000000000000000000000000000002c00030100110100000000000000000000000000011170010013030000000000000000000000000000000111700000000000000000000000000000000000000000",
          "blockHash": "0xe95c94014a108d2a0be11b2e3df7793338d930c197efeaacf516f64c32748d6f",
          "blockNumber": "0x102df12",
          "transactionHash": "0x2e388eccfe91e9834cfd3eedc8282cedac411179247a45d603cf5928fde621a4",
          "transactionIndex": "0x5",
          "logIndex": "0x1c",
          "removed": false
        }
      ],
      "logsBloom": "0x00000100000000000000000000000000000000000000000000000000000000000000000000004000200010000000000000000000000000000000020000000000000100000000000000000008200000000000000000000000000010000000000000000000000000008210000000000080000000200000000000000010000000000000000000000020000000080000000000000000000000000000000000000010000000009000000000100000000000000000000400400000000440000000000000000002000000000000100000000000000000000400000000000000000000000000040000000000000000000000002002000000080000000000000000000000",
      "type": "0x2",
      "transactionHash": "0x2e388eccfe91e9834cfd3eedc8282cedac411179247a45d603cf5928fde621a4",
      "transactionIndex": "0x5",
      "blockHash": "0xe95c94014a108d2a0be11b2e3df7793338d930c197efeaacf516f64c32748d6f",
      "blockNumber": "0x102df12",
      "gasUsed": "0x636a1",
      "effectiveGasPrice": "0xf6a95",
      "from": "0x12b2434a1022d5787bf06056f2885fe35de62bf8",
      "to": "0x02183f24dbb2160f76c38abea119fbfb9a9fc339",
      "contractAddress": null,
      "l1BaseFeeScalar": "0x1db0",
      "l1BlobBaseFee": "0x156a6a80b8",
      "l1BlobBaseFeeScalar": "0xd2730",
      "l1Fee": "0x73edf29f703",
      "l1GasPrice": "0xba180d1d",
      "l1GasUsed": "0x640"
    }
  ],
  "libraries": [],
  "pending": [],
  "returns": {},
  "timestamp": 1725733335,
  "chain": 11155420,
  "commit": "67fd3b7"
}