{
  "transactions": [
    {
      "hash": "0x81d59d1c02404ca5c118615a55bcad3a8807ce62b40149827da9b8a66854bb87",
      "transactionType": "CALL",
      "contractName": null,
      "contractAddress": "0x5fd84259d66cd46123540766be93dfe6d43130d7",
      "function": "approve(address,uint256)",
      "arguments": [
        "0xD1AB93CB9EDCf68e33d541F5A5D929657B473fe0",
        "2000000"
      ],
      "transaction": {
        "from": "0x12b2434a1022d5787bf06056f2885fe35de62bf8",
        "to": "0x5fd84259d66cd46123540766be93dfe6d43130d7",
        "gas": "0x12b1b",
        "value": "0x0",
        "input": "0x095ea7b3000000000000000000000000d1ab93cb9edcf68e33d541f5a5d929657b473fe000000000000000000000000000000000000000000000000000000000001e8480",
        "nonce": "0x64",
        "chainId": "0xaa37dc"
      },
      "additionalContracts": [],
      "isFixedGasLimit": false
    },
    {
      "hash": "0x120e8f5387a1d24e3d24ec6e7d9397032b75dc6261b7502f2a67e90d74c83680",
      "transactionType": "CALL",
      "contractName": null,
      "contractAddress": "0xd1ab93cb9edcf68e33d541f5a5d929657b473fe0",
      "function": "lockTokens(uint256,uint256,uint256,uint32)",
      "arguments": [
        "0",
        "2000000",
        "1000000",
        "11155420"
      ],
      "transaction": {
        "from": "0x12b2434a1022d5787bf06056f2885fe35de62bf8",
        "to": "0xd1ab93cb9edcf68e33d541f5a5d929657b473fe0",
        "gas": "0x89cb8",
        "value": "0x11c37937e08000",
        "input": "0xfb4f2057000000000000000000000000000000000000000000000000000000000000000000000000000000000000000000000000000000000000000000000000001e848000000000000000000000000000000000000000000000000000000000000f42400000000000000000000000000000000000000000000000000000000000aa37dc",
        "nonce": "0x65",
        "chainId": "0xaa37dc"
      },
      "additionalContracts": [],
      "isFixedGasLimit": false
    }
  ],
  "receipts": [
    {
      "status": "0x1",
      "cumulativeGasUsed": "0x325f7d",
      "logs": [
        {
          "address": "0x5fd84259d66cd46123540766be93dfe6d43130d7",
          "topics": [
            "0x8c5be1e5ebec7d5bd14f71427d1e84f3dd0314c0f7b2291e5b200ac8c7c3b925",
            "0x00000000000000000000000012b2434a1022d5787bf06056f2885fe35de62bf8",
            "0x000000000000000000000000d1ab93cb9edcf68e33d541f5a5d929657b473fe0"
          ],
          "data": "0x00000000000000000000000000000000000000000000000000000000001e8480",
          "blockHash": "0xd8bdd172b720279d5d9e5e532af5d305f4678064639efcc129ee423a18076005",
          "blockNumber": "0x1021548",
          "transactionHash": "0x81d59d1c02404ca5c118615a55bcad3a8807ce62b40149827da9b8a66854bb87",
          "transactionIndex": "0x6",
          "logIndex": "0x29",
          "removed": false
        }
      ],
      "logsBloom": "0x00000000000000000000000000000000000000000000000000000000000000000000000000000000000000000000000000000000000000000000020000200000000000000000000000000000200000000000000000000000000000000000000100000000000000000000000000000000000000200000000000000000000000000000000000000000000000000000000000000000000000000000000000000010020000000000000000000000000000000000002400000000000000000000000000400000000000000000000000000000000000000000000000000000000000000010000000000000000000000000000000000000000000000000000000000000",
      "type": "0x2",
      "transactionHash": "0x81d59d1c02404ca5c118615a55bcad3a8807ce62b40149827da9b8a66854bb87",
      "transactionIndex": "0x6",
      "blockHash": "0xd8bdd172b720279d5d9e5e532af5d305f4678064639efcc129ee423a18076005",
      "blockNumber": "0x1021548",
      "gasUsed": "0xd88d",
      "effectiveGasPrice": "0xf6a99",
      "from": "0x12b2434a1022d5787bf06056f2885fe35de62bf8",
      "to": "0x5fd84259d66cd46123540766be93dfe6d43130d7",
      "contractAddress": null,
      "l1BaseFeeScalar": "0x1db0",
      "l1BlobBaseFee": "0x2ef655e2eb",
      "l1BlobBaseFeeScalar": "0xd2730",
      "l1Fee": "0xffb71f96374",
      "l1GasPrice": "0x38f912656",
      "l1GasUsed": "0x640"
    },
    {
      "status": "0x1",
      "cumulativeGasUsed": "0x389bab",
      "logs": [
        {
          "address": "0x5fd84259d66cd46123540766be93dfe6d43130d7",
          "topics": [
            "0xddf252ad1be2c89b69c2b068fc378daa952ba7f163c4a11628f55a4df523b3ef",
            "0x00000000000000000000000012b2434a1022d5787bf06056f2885fe35de62bf8",
            "0x000000000000000000000000d1ab93cb9edcf68e33d541f5a5d929657b473fe0"
          ],
          "data": "0x00000000000000000000000000000000000000000000000000000000001e8480",
          "blockHash": "0xd8bdd172b720279d5d9e5e532af5d305f4678064639efcc129ee423a18076005",
          "blockNumber": "0x1021548",
          "transactionHash": "0x120e8f5387a1d24e3d24ec6e7d9397032b75dc6261b7502f2a67e90d74c83680",
          "transactionIndex": "0x7",
          "logIndex": "0x2a",
          "removed": false
        },
        {
          "address": "0xd1ab93cb9edcf68e33d541f5a5d929657b473fe0",
          "topics": [
            "0x8ec2296d09729265278dc14bc0bc96d35d996a514008369cc4e666e845ed6e2e"
          ],
          "data": "0x00000000000000000000000012b2434a1022d5787bf06056f2885fe35de62bf8000000000000000000000000000000000000000000000000000000000000000000000000000000000000000000000000000000000000000000000000001e84800000000000000000000000000000000000000000000000000000000000aa37dc",
          "blockHash": "0xd8bdd172b720279d5d9e5e532af5d305f4678064639efcc129ee423a18076005",
          "blockNumber": "0x1021548",
          "transactionHash": "0x120e8f5387a1d24e3d24ec6e7d9397032b75dc6261b7502f2a67e90d74c83680",
          "transactionIndex": "0x7",
          "logIndex": "0x2b",
          "removed": false
        },
        {
          "address": "0xb31d2cb502e25b30c651842c7c3293c51fe6d16f",
          "topics": [
            "0x61ed099e74a97a1d7f8bb0952a88ca8b7b8ebd00c126ea04671f92a81213318a"
          ],
          "data": "0x000000000000000000000000dc0d68899405673b932f0db7f8a49191491a5bcb00000000000000000000000000000000000000000000000000004a65c2bd1b36",
          "blockHash": "0xd8bdd172b720279d5d9e5e532af5d305f4678064639efcc129ee423a18076005",
          "blockNumber": "0x1021548",
          "transactionHash": "0x120e8f5387a1d24e3d24ec6e7d9397032b75dc6261b7502f2a67e90d74c83680",
          "transactionIndex": "0x7",
          "logIndex": "0x2c",
          "removed": false
        },
        {
          "address": "0xb31d2cb502e25b30c651842c7c3293c51fe6d16f",
          "topics": [
            "0x07ea52d82345d6e838192107d8fd7123d9c2ec8e916cd0aad13fd2b60db24644"
          ],
          "data": "0x000000000000000000000000000000000000000000000000000000000000006000000000000000000000000000000000000000000000000000000000000000a000000000000000000000000000000000000000000000000000000000000000c00000000000000000000000000000000000000000000000000000000000000001000000000000000000000000d680ec569f269aa7015f7979b4f1239b5aa4582c0000000000000000000000000000000000000000000000000000000000000000000000000000000000000000000000000000000000000000000000000000000100000000000000000000000000000000000000000000000000000483d6e3a381",
          "blockHash": "0xd8bdd172b720279d5d9e5e532af5d305f4678064639efcc129ee423a18076005",
          "blockNumber": "0x1021548",
          "transactionHash": "0x120e8f5387a1d24e3d24ec6e7d9397032b75dc6261b7502f2a67e90d74c83680",
          "transactionIndex": "0x7",
          "logIndex": "0x2d",
          "removed": false
        },
        {
          "address": "0x6edce65403992e310a62460808c4b910d972f10f",
          "topics": [
            "0x1ab700d4ced0c005b164c0f789fd09fcbb0156d4c2041b8a3bfbcd961cd1567f"
          ],
          "data": "0x00000000000000000000000000000000000000000000000000000000000000600000000000000000000000000000000000000000000000000000000000000140000000000000000000000000b31d2cb502e25b30c651842c7c3293c51fe6d16f00000000000000000000000000000000000000000000000000000000000000b101000000000000000100009d28000000000000000000000000d1ab93cb9edcf68e33d541f5a5d929657b473fe000009d35000000000000000000000000c0ce627692bc7a9849f8507e6df3d32360c2551f02dbae3ae0c54b7ce7cab32bf6088b93281f847760b5a29b12e0dd2ef9327d86000000000000000000000000000000000000000000000000000000000000000000000000000000000000000000000000000000000000000000000000001e848000000000000000000000000000000000000000000000000000000000000000000000000000000000000000000000160003010011010000000000000000000000000001388000000000000000000000",
          "blockHash": "0xd8bdd172b720279d5d9e5e532af5d305f4678064639efcc129ee423a18076005",
          "blockNumber": "0x1021548",
          "transactionHash": "0x120e8f5387a1d24e3d24ec6e7d9397032b75dc6261b7502f2a67e90d74c83680",
          "transactionIndex": "0x7",
          "logIndex": "0x2e",
          "removed": false
        }
      ],
      "logsBloom": "0x00000100000000000000000000000000000000000000000000000000000000000000000000004000200000000000000000000800000000000000020000000000000100000000000000000008200000000000000000000000000000000000000100000000000000008210000000000000000000200000000000000010000000000000080000000020000000080000000000000000000000000000000000000010000000009000000000100002000000000000002400400000000440000000000000400002000000000000100000000000000000000000000000000000000000000000040000000000000000000000002000000000000000000000000000000000",
      "type": "0x2",
      "transactionHash": "0x120e8f5387a1d24e3d24ec6e7d9397032b75dc6261b7502f2a67e90d74c83680",
      "transactionIndex": "0x7",
      "blockHash": "0xd8bdd172b720279d5d9e5e532af5d305f4678064639efcc129ee423a18076005",
      "blockNumber": "0x1021548",
      "gasUsed": "0x63c2e",
      "effectiveGasPrice": "0xf6a99",
      "from": "0x12b2434a1022d5787bf06056f2885fe35de62bf8",
      "to": "0xd1ab93cb9edcf68e33d541f5a5d929657b473fe0",
      "contractAddress": null,
      "l1BaseFeeScalar": "0x1db0",
      "l1BlobBaseFee": "0x2ef655e2eb",
      "l1BlobBaseFeeScalar": "0xd2730",
      "l1Fee": "0xffb71f96374",
      "l1GasPrice": "0x38f912656",
      "l1GasUsed": "0x640"
    }
  ],
  "libraries": [],
  "pending": [],
  "returns": {},
  "timestamp": 1725630019,
  "chain": 11155420,
  "commit": "dc78ae4"
}