{
  "transactions": [
    {
      "hash": "0x0a856dfd1c152765bf39a5ce47e7837a06c464bd3914ff95655a9ea754405eb1",
      "transactionType": "CALL",
      "contractName": null,
      "contractAddress": "0x5fd84259d66cd46123540766be93dfe6d43130d7",
      "function": "approve(address,uint256)",
      "arguments": [
        "0x17A67922a3CdD02D8518F53392d953B6671ecCaf",
        "2000000"
      ],
      "transaction": {
        "from": "0x12b2434a1022d5787bf06056f2885fe35de62bf8",
        "to": "0x5fd84259d66cd46123540766be93dfe6d43130d7",
        "gas": "0x12b1b",
        "value": "0x0",
        "input": "0x095ea7b300000000000000000000000017a67922a3cdd02d8518f53392d953b6671eccaf00000000000000000000000000000000000000000000000000000000001e8480",
        "nonce": "0x6d",
        "chainId": "0xaa37dc"
      },
      "additionalContracts": [],
      "isFixedGasLimit": false
    },
    {
      "hash": "0x2820c78c66495714cf58b3dd96a6681cd69f6287289eb024dc37ea89d8648389",
      "transactionType": "CALL",
      "contractName": null,
      "contractAddress": "0x17a67922a3cdd02d8518f53392d953b6671eccaf",
      "function": "lockTokens(uint256,uint256,uint256,uint32)",
      "arguments": [
        "0",
        "2000000",
        "1000000",
        "11155420"
      ],
      "transaction": {
        "from": "0x12b2434a1022d5787bf06056f2885fe35de62bf8",
        "to": "0x17a67922a3cdd02d8518f53392d953b6671eccaf",
        "gas": "0x91e3f",
        "value": "0x11c37937e08000",
        "input": "0xfb4f2057000000000000000000000000000000000000000000000000000000000000000000000000000000000000000000000000000000000000000000000000001e848000000000000000000000000000000000000000000000000000000000000f42400000000000000000000000000000000000000000000000000000000000aa37dc",
        "nonce": "0x6e",
        "chainId": "0xaa37dc"
      },
      "additionalContracts": [],
      "isFixedGasLimit": false
    }
  ],
  "receipts": [
    {
      "status": "0x1",
      "cumulativeGasUsed": "0x2645e6",
      "logs": [
        {
          "address": "0x5fd84259d66cd46123540766be93dfe6d43130d7",
          "topics": [
            "0x8c5be1e5ebec7d5bd14f71427d1e84f3dd0314c0f7b2291e5b200ac8c7c3b925",
            "0x00000000000000000000000012b2434a1022d5787bf06056f2885fe35de62bf8",
            "0x00000000000000000000000017a67922a3cdd02d8518f53392d953b6671eccaf"
          ],
          "data": "0x00000000000000000000000000000000000000000000000000000000001e8480",
          "blockHash": "0x96d2a0e118b4153daa55561a59f500125887296e87a27e2f19574de4e0d40301",
          "blockNumber": "0x102189c",
          "transactionHash": "0x0a856dfd1c152765bf39a5ce47e7837a06c464bd3914ff95655a9ea754405eb1",
          "transactionIndex": "0x5",
          "logIndex": "0x19",
          "removed": false
        }
      ],
      "logsBloom": "0x00000000000000000000000000000000000000000000000000000000000000000000000000000000000000000000000000000000000000000000020000200000000000000000000000000000200000000000000000000000000000000000000000000000000000000000000000000000000000200000000000000000000000000000000000000000000000000000000000000000000000000002000000000010020000000000000000400000000000000000000400000000000000000000000000000000000000000000000000000000000000000000000000000000000000000010000000400000000000000000000000000000000000000000000000000000",
      "type": "0x2",
      "transactionHash": "0x0a856dfd1c152765bf39a5ce47e7837a06c464bd3914ff95655a9ea754405eb1",
      "transactionIndex": "0x5",
      "blockHash": "0x96d2a0e118b4153daa55561a59f500125887296e87a27e2f19574de4e0d40301",
      "blockNumber": "0x102189c",
      "gasUsed": "0xd88d",
      "effectiveGasPrice": "0xf6a99",
      "from": "0x12b2434a1022d5787bf06056f2885fe35de62bf8",
      "to": "0x5fd84259d66cd46123540766be93dfe6d43130d7",
      "contractAddress": null,
      "l1BaseFeeScalar": "0x1db0",
      "l1BlobBaseFee": "0x187493bd4e5",
      "l1BlobBaseFeeScalar": "0xd2730",
      "l1Fee": "0x83edd9fd330e",
      "l1GasPrice": "0x3b3351ba9",
      "l1GasUsed": "0x640"
    },
    {
      "status": "0x1",
      "cumulativeGasUsed": "0x2c81f7",
      "logs": [
        {
          "address": "0x5fd84259d66cd46123540766be93dfe6d43130d7",
          "topics": [
            "0xddf252ad1be2c89b69c2b068fc378daa952ba7f163c4a11628f55a4df523b3ef",
            "0x00000000000000000000000012b2434a1022d5787bf06056f2885fe35de62bf8",
            "0x00000000000000000000000017a67922a3cdd02d8518f53392d953b6671eccaf"
          ],
          "data": "0x00000000000000000000000000000000000000000000000000000000001e8480",
          "blockHash": "0x96d2a0e118b4153daa55561a59f500125887296e87a27e2f19574de4e0d40301",
          "blockNumber": "0x102189c",
          "transactionHash": "0x2820c78c66495714cf58b3dd96a6681cd69f6287289eb024dc37ea89d8648389",
          "transactionIndex": "0x6",
          "logIndex": "0x1a",
          "removed": false
        },
        {
          "address": "0x17a67922a3cdd02d8518f53392d953b6671eccaf",
          "topics": [
            "0x8ec2296d09729265278dc14bc0bc96d35d996a514008369cc4e666e845ed6e2e"
          ],
          "data": "0x00000000000000000000000012b2434a1022d5787bf06056f2885fe35de62bf8000000000000000000000000000000000000000000000000000000000000000000000000000000000000000000000000000000000000000000000000001e84800000000000000000000000000000000000000000000000000000000000aa37dc",
          "blockHash": "0x96d2a0e118b4153daa55561a59f500125887296e87a27e2f19574de4e0d40301",
          "blockNumber": "0x102189c",
          "transactionHash": "0x2820c78c66495714cf58b3dd96a6681cd69f6287289eb024dc37ea89d8648389",
          "transactionIndex": "0x6",
          "logIndex": "0x1b",
          "removed": false
        },
        {
          "address": "0xb31d2cb502e25b30c651842c7c3293c51fe6d16f",
          "topics": [
            "0x61ed099e74a97a1d7f8bb0952a88ca8b7b8ebd00c126ea04671f92a81213318a"
          ],
          "data": "0x000000000000000000000000dc0d68899405673b932f0db7f8a49191491a5bcb00000000000000000000000000000000000000000000000000004a8d7bc1dec6",
          "blockHash": "0x96d2a0e118b4153daa55561a59f500125887296e87a27e2f19574de4e0d40301",
          "blockNumber": "0x102189c",
          "transactionHash": "0x2820c78c66495714cf58b3dd96a6681cd69f6287289eb024dc37ea89d8648389",
          "transactionIndex": "0x6",
          "logIndex": "0x1c",
          "removed": false
        },
        {
          "address": "0xb31d2cb502e25b30c651842c7c3293c51fe6d16f",
          "topics": [
            "0x07ea52d82345d6e838192107d8fd7123d9c2ec8e916cd0aad13fd2b60db24644"
          ],
          "data": "0x000000000000000000000000000000000000000000000000000000000000006000000000000000000000000000000000000000000000000000000000000000a000000000000000000000000000000000000000000000000000000000000000c00000000000000000000000000000000000000000000000000000000000000001000000000000000000000000d680ec569f269aa7015f7979b4f1239b5aa4582c0000000000000000000000000000000000000000000000000000000000000000000000000000000000000000000000000000000000000000000000000000000100000000000000000000000000000000000000000000000000000480eaa636e1",
          "blockHash": "0x96d2a0e118b4153daa55561a59f500125887296e87a27e2f19574de4e0d40301",
          "blockNumber": "0x102189c",
          "transactionHash": "0x2820c78c66495714cf58b3dd96a6681cd69f6287289eb024dc37ea89d8648389",
          "transactionIndex": "0x6",
          "logIndex": "0x1d",
          "removed": false
        },
        {
          "address": "0x6edce65403992e310a62460808c4b910d972f10f",
          "topics": [
            "0x1ab700d4ced0c005b164c0f789fd09fcbb0156d4c2041b8a3bfbcd961cd1567f"
          ],
          "data": "0x00000000000000000000000000000000000000000000000000000000000000600000000000000000000000000000000000000000000000000000000000000140000000000000000000000000b31d2cb502e25b30c651842c7c3293c51fe6d16f00000000000000000000000000000000000000000000000000000000000000b101000000000000000100009d2800000000000000000000000017a67922a3cdd02d8518f53392d953b6671eccaf00009d350000000000000000000000009947652885db3849caeecf489eca492e5f08ceb7d4d87cf38466bb50ef7fae7c395666e9ad235ac98f669ee7f2626f6adaa1276d000000000000000000000000000000000000000000000000000000000000000000000000000000000000000000000000000000000000000000000000001e84800000000000000000000000000000000000000000000000000000000000000000000000000000000000000000000016000301001101000000000000000000000000000186a000000000000000000000",
          "blockHash": "0x96d2a0e118b4153daa55561a59f500125887296e87a27e2f19574de4e0d40301",
          "blockNumber": "0x102189c",
          "transactionHash": "0x2820c78c66495714cf58b3dd96a6681cd69f6287289eb024dc37ea89d8648389",
          "transactionIndex": "0x6",
          "logIndex": "0x1e",
          "removed": false
        }
      ],
      "logsBloom": "0x00000100000000000000000000000000000000000000000000000000000000000000000000004000200000000000000000000000000000000000020000000000000100000000000000000008200000000000000000000000000000000000000000000000000000008210000000000000000000200000000000000010020000000000000000000020000000080000000000000000000000008002000000000010000000009000000000500000000000000000000400400000000440000000000000000002000000000000100000000000000000000000000000000000000000000000040000400000000000000000002000000000000000000000000000000000",
      "type": "0x2",
      "transactionHash": "0x2820c78c66495714cf58b3dd96a6681cd69f6287289eb024dc37ea89d8648389",
      "transactionIndex": "0x6",
      "blockHash": "0x96d2a0e118b4153daa55561a59f500125887296e87a27e2f19574de4e0d40301",
      "blockNumber": "0x102189c",
      "gasUsed": "0x63c11",
      "effectiveGasPrice": "0xf6a99",
      "from": "0x12b2434a1022d5787bf06056f2885fe35de62bf8",
      "to": "0x17a67922a3cdd02d8518f53392d953b6671eccaf",
      "contractAddress": null,
      "l1BaseFeeScalar": "0x1db0",
      "l1BlobBaseFee": "0x187493bd4e5",
      "l1BlobBaseFeeScalar": "0xd2730",
      "l1Fee": "0x83edd9fd330e",
      "l1GasPrice": "0x3b3351ba9",
      "l1GasUsed": "0x640"
    }
  ],
  "libraries": [],
  "pending": [],
  "returns": {},
  "timestamp": 1725631723,
  "chain": 11155420,
  "commit": "dc78ae4"
}