{
  "transactions": [
    {
      "hash": "0x09313b21c454515a36534d0a73af102324149f1893258485ad729c6ff3603d47",
      "transactionType": "CALL",
      "contractName": null,
      "contractAddress": "0x5fd84259d66cd46123540766be93dfe6d43130d7",
      "function": "approve(address,uint256)",
      "arguments": [
        "0xCCb5bc7326336e7cE7a0030b69529B1d2F9Bc7A5",
        "1000000"
      ],
      "transaction": {
        "from": "0x6680dfd1c6a4867476b2e60da89354ac93272878",
        "to": "0x5fd84259d66cd46123540766be93dfe6d43130d7",
        "gas": "0x12b1b",
        "value": "0x0",
        "input": "0x095ea7b3000000000000000000000000ccb5bc7326336e7ce7a0030b69529b1d2f9bc7a500000000000000000000000000000000000000000000000000000000000f4240",
        "nonce": "0xc",
        "chainId": "0xaa37dc"
      },
      "additionalContracts": [],
      "isFixedGasLimit": false
    },
    {
      "hash": "0x968ccc00f9b9d767251e93e8550fc2536d561ef32114d5bde0a3a25f1c5e9175",
      "transactionType": "CALL",
      "contractName": null,
      "contractAddress": "0xccb5bc7326336e7ce7a0030b69529b1d2f9bc7a5",
      "function": "lockTokens(uint256,uint256,uint256,uint32)",
      "arguments": [
        "0",
        "1000000",
        "1000000",
        "11155420"
      ],
      "transaction": {
        "from": "0x6680dfd1c6a4867476b2e60da89354ac93272878",
        "to": "0xccb5bc7326336e7ce7a0030b69529b1d2f9bc7a5",
        "gas": "0x9164b",
        "value": "0x11c37937e08000",
        "input": "0xfb4f2057000000000000000000000000000000000000000000000000000000000000000000000000000000000000000000000000000000000000000000000000000f424000000000000000000000000000000000000000000000000000000000000f42400000000000000000000000000000000000000000000000000000000000aa37dc",
        "nonce": "0xd",
        "chainId": "0xaa37dc"
      },
      "additionalContracts": [],
      "isFixedGasLimit": false
    }
  ],
  "receipts": [
    {
      "status": "0x1",
      "cumulativeGasUsed": "0x1c487b",
      "logs": [
        {
          "address": "0x5fd84259d66cd46123540766be93dfe6d43130d7",
          "topics": [
            "0x8c5be1e5ebec7d5bd14f71427d1e84f3dd0314c0f7b2291e5b200ac8c7c3b925",
            "0x0000000000000000000000006680dfd1c6a4867476b2e60da89354ac93272878",
            "0x000000000000000000000000ccb5bc7326336e7ce7a0030b69529b1d2f9bc7a5"
          ],
          "data": "0x00000000000000000000000000000000000000000000000000000000000f4240",
          "blockHash": "0x2ba53ec61941c9671c3e7993f3a647be3c67dfa88f196b520e967507b3847e6a",
          "blockNumber": "0x102e609",
          "transactionHash": "0x09313b21c454515a36534d0a73af102324149f1893258485ad729c6ff3603d47",
          "transactionIndex": "0x4",
          "logIndex": "0x1b",
          "removed": false
        }
      ],
      "logsBloom": "0x00000000000000000000000000000000000000000000020000000000000000000000000000000000000000000000010000000000000000000000020000200000000000000000000000000000000000000000000000000000000000000000000000000000000000000000000000000000000000200000000000000000000000000000000000000000000000000000000000000000000000000000000000000000020000000000000000000000000000000000000400000000000000000000000000000000000000000000000000000000400000000000000000000000000401000010000000000000000000000000000000000000000000004000000000000000",
      "type": "0x2",
      "transactionHash": "0x09313b21c454515a36534d0a73af102324149f1893258485ad729c6ff3603d47",
      "transactionIndex": "0x4",
      "blockHash": "0x2ba53ec61941c9671c3e7993f3a647be3c67dfa88f196b520e967507b3847e6a",
      "blockNumber": "0x102e609",
      "gasUsed": "0xd88d",
      "effectiveGasPrice": "0xf6a95",
      "from": "0x6680dfd1c6a4867476b2e60da89354ac93272878",
      "to": "0x5fd84259d66cd46123540766be93dfe6d43130d7",
      "contractAddress": null,
      "l1BaseFeeScalar": "0x1db0",
      "l1BlobBaseFee": "0x41dfd80f2",
      "l1BlobBaseFeeScalar": "0xd2730",
      "l1Fee": "0x163ea4193b8",
      "l1GasPrice": "0x1567ee4a",
      "l1GasUsed": "0x640"
    },
    {
      "status": "0x1",
      "cumulativeGasUsed": "0x227f1c",
      "logs": [
        {
          "address": "0x5fd84259d66cd46123540766be93dfe6d43130d7",
          "topics": [
            "0xddf252ad1be2c89b69c2b068fc378daa952ba7f163c4a11628f55a4df523b3ef",
            "0x0000000000000000000000006680dfd1c6a4867476b2e60da89354ac93272878",
            "0x000000000000000000000000ccb5bc7326336e7ce7a0030b69529b1d2f9bc7a5"
          ],
          "data": "0x00000000000000000000000000000000000000000000000000000000000f4240",
          "blockHash": "0x2ba53ec61941c9671c3e7993f3a647be3c67dfa88f196b520e967507b3847e6a",
          "blockNumber": "0x102e609",
          "transactionHash": "0x968ccc00f9b9d767251e93e8550fc2536d561ef32114d5bde0a3a25f1c5e9175",
          "transactionIndex": "0x5",
          "logIndex": "0x1c",
          "removed": false
        },
        {
          "address": "0xccb5bc7326336e7ce7a0030b69529b1d2f9bc7a5",
          "topics": [
            "0x8ec2296d09729265278dc14bc0bc96d35d996a514008369cc4e666e845ed6e2e"
          ],
          "data": "0x0000000000000000000000006680dfd1c6a4867476b2e60da89354ac93272878000000000000000000000000000000000000000000000000000000000000000000000000000000000000000000000000000000000000000000000000000f42400000000000000000000000000000000000000000000000000000000000aa37dc",
          "blockHash": "0x2ba53ec61941c9671c3e7993f3a647be3c67dfa88f196b520e967507b3847e6a",
          "blockNumber": "0x102e609",
          "transactionHash": "0x968ccc00f9b9d767251e93e8550fc2536d561ef32114d5bde0a3a25f1c5e9175",
          "transactionIndex": "0x5",
          "logIndex": "0x1d",
          "removed": false
        },
        {
          "address": "0xb31d2cb502e25b30c651842c7c3293c51fe6d16f",
          "topics": [
            "0x61ed099e74a97a1d7f8bb0952a88ca8b7b8ebd00c126ea04671f92a81213318a"
          ],
          "data": "0x000000000000000000000000dc0d68899405673b932f0db7f8a49191491a5bcb00000000000000000000000000000000000000000000000000005198a5d49f21",
          "blockHash": "0x2ba53ec61941c9671c3e7993f3a647be3c67dfa88f196b520e967507b3847e6a",
          "blockNumber": "0x102e609",
          "transactionHash": "0x968ccc00f9b9d767251e93e8550fc2536d561ef32114d5bde0a3a25f1c5e9175",
          "transactionIndex": "0x5",
          "logIndex": "0x1e",
          "removed": false
        },
        {
          "address": "0xb31d2cb502e25b30c651842c7c3293c51fe6d16f",
          "topics": [
            "0x07ea52d82345d6e838192107d8fd7123d9c2ec8e916cd0aad13fd2b60db24644"
          ],
          "data": "0x000000000000000000000000000000000000000000000000000000000000006000000000000000000000000000000000000000000000000000000000000000a000000000000000000000000000000000000000000000000000000000000000c00000000000000000000000000000000000000000000000000000000000000001000000000000000000000000d680ec569f269aa7015f7979b4f1239b5aa4582c0000000000000000000000000000000000000000000000000000000000000000000000000000000000000000000000000000000000000000000000000000000100000000000000000000000000000000000000000000000000000427780e8f90",
          "blockHash": "0x2ba53ec61941c9671c3e7993f3a647be3c67dfa88f196b520e967507b3847e6a",
          "blockNumber": "0x102e609",
          "transactionHash": "0x968ccc00f9b9d767251e93e8550fc2536d561ef32114d5bde0a3a25f1c5e9175",
          "transactionIndex": "0x5",
          "logIndex": "0x1f",
          "removed": false
        },
        {
          "address": "0x6edce65403992e310a62460808c4b910d972f10f",
          "topics": [
            "0x1ab700d4ced0c005b164c0f789fd09fcbb0156d4c2041b8a3bfbcd961cd1567f"
          ],
          "data": "0x00000000000000000000000000000000000000000000000000000000000000600000000000000000000000000000000000000000000000000000000000000140000000000000000000000000b31d2cb502e25b30c651842c7c3293c51fe6d16f00000000000000000000000000000000000000000000000000000000000000b101000000000000000100009d28000000000000000000000000ccb5bc7326336e7ce7a0030b69529b1d2f9bc7a500009d28000000000000000000000000644341c5705fc721ca63131be918d363a084aa3a43c5e5a804df62f1b226ef697c15b1c05d7c99abf5bf34d0525d0ead142ee4330000000000000000000000006680dfd1c6a4867476b2e60da89354ac9327287800000000000000000000000000000000000000000000000000000000000f4240000000000000000000000000000000000000000000000000000000000000000000000000000000000000000000002c00030100110100000000000000000000000000013880010013030000000000000000000000000000000138800000000000000000000000000000000000000000",
          "blockHash": "0x2ba53ec61941c9671c3e7993f3a647be3c67dfa88f196b520e967507b3847e6a",
          "blockNumber": "0x102e609",
          "transactionHash": "0x968ccc00f9b9d767251e93e8550fc2536d561ef32114d5bde0a3a25f1c5e9175",
          "transactionIndex": "0x5",
          "logIndex": "0x20",
          "removed": false
        }
      ],
      "logsBloom": "0x00000100000000000000000000000000000000000000020000000000000000000000000000004000200000000000010000200000000000000000020000000000000100000000000000000008000000000000008000000000000000000000000000000000000000008210000000000000020000200000000000000010000000000000000000000020000000080000000000000000000000000000000000000000000000009000000000100000000000000000000400400000000440000000000000000002000000000000100000000000400000000000000000000000000401000000040000000000000000000000002000000000000000004000000000000000",
      "type": "0x2",
      "transactionHash": "0x968ccc00f9b9d767251e93e8550fc2536d561ef32114d5bde0a3a25f1c5e9175",
      "transactionIndex": "0x5",
      "blockHash": "0x2ba53ec61941c9671c3e7993f3a647be3c67dfa88f196b520e967507b3847e6a",
      "blockNumber": "0x102e609",
      "gasUsed": "0x636a1",
      "effectiveGasPrice": "0xf6a95",
      "from": "0x6680dfd1c6a4867476b2e60da89354ac93272878",
      "to": "0xccb5bc7326336e7ce7a0030b69529b1d2f9bc7a5",
      "contractAddress": null,
      "l1BaseFeeScalar": "0x1db0",
      "l1BlobBaseFee": "0x41dfd80f2",
      "l1BlobBaseFeeScalar": "0xd2730",
      "l1Fee": "0x163ea4193b8",
      "l1GasPrice": "0x1567ee4a",
      "l1GasUsed": "0x640"
    }
  ],
  "libraries": [],
  "pending": [],
  "returns": {},
  "timestamp": 1725736902,
  "chain": 11155420,
  "commit": "67fd3b7"
}