{
  "transactions": [
    {
      "hash": "0x12a677617ef6a04d980ab71baa59556c5c69cd927980dd1d35d1e4f5f6b98dfa",
      "transactionType": "CALL",
      "contractName": null,
      "contractAddress": "0x5fd84259d66cd46123540766be93dfe6d43130d7",
      "function": "approve(address,uint256)",
      "arguments": [
        "0xe734076F9B3C4Af1920e92B218B4C3691a1b02d7",
        "2000000"
      ],
      "transaction": {
        "from": "0xb0efd2b19a5698a9c830548ac22708a28c9d4552",
        "to": "0x5fd84259d66cd46123540766be93dfe6d43130d7",
        "gas": "0x12b1b",
        "value": "0x0",
        "input": "0x095ea7b3000000000000000000000000e734076f9b3c4af1920e92b218b4c3691a1b02d700000000000000000000000000000000000000000000000000000000001e8480",
        "nonce": "0x5c",
        "chainId": "0xaa37dc"
      },
      "additionalContracts": [],
      "isFixedGasLimit": false
    },
    {
      "hash": "0x30877702f202ccfe5c24ca24d02840d5b12a577b484070a4c97f673d93c3bffc",
      "transactionType": "CALL",
      "contractName": null,
      "contractAddress": "0xe734076f9b3c4af1920e92b218b4c3691a1b02d7",
      "function": "lockTokens(uint256,uint256,uint256,uint32)",
      "arguments": [
        "0",
        "2000000",
        "1000000",
        "11155420"
      ],
      "transaction": {
        "from": "0xb0efd2b19a5698a9c830548ac22708a28c9d4552",
        "to": "0xe734076f9b3c4af1920e92b218b4c3691a1b02d7",
        "gas": "0x87f3a",
        "value": "0x2aa1efb94e0000",
        "input": "0xfb4f2057000000000000000000000000000000000000000000000000000000000000000000000000000000000000000000000000000000000000000000000000001e848000000000000000000000000000000000000000000000000000000000000f42400000000000000000000000000000000000000000000000000000000000aa37dc",
        "nonce": "0x5d",
        "chainId": "0xaa37dc"
      },
      "additionalContracts": [],
      "isFixedGasLimit": false
    }
  ],
  "receipts": [
    {
      "status": "0x1",
      "cumulativeGasUsed": "0x18028f",
      "logs": [
        {
          "address": "0x5fd84259d66cd46123540766be93dfe6d43130d7",
          "topics": [
            "0x8c5be1e5ebec7d5bd14f71427d1e84f3dd0314c0f7b2291e5b200ac8c7c3b925",
            "0x000000000000000000000000b0efd2b19a5698a9c830548ac22708a28c9d4552",
            "0x000000000000000000000000e734076f9b3c4af1920e92b218b4c3691a1b02d7"
          ],
          "data": "0x00000000000000000000000000000000000000000000000000000000001e8480",
          "blockHash": "0x67dbeddb5ca494cc5363e17f3bbe7b1d2f8dc984974c4c725349f35c46d7cbd5",
          "blockNumber": "0x10239fb",
          "transactionHash": "0x12a677617ef6a04d980ab71baa59556c5c69cd927980dd1d35d1e4f5f6b98dfa",
          "transactionIndex": "0x4",
          "logIndex": "0x1a",
          "removed": false
        }
      ],
      "logsBloom": "0x00000000000000000000000000000000000000000000000000000000000002000000000000000000000000000000000000000000000000000000020000200000000000000000000000000000000000000000000000000001000000000000000000000000000000000000000400000000000000200000000000000000000000000000000000000000000000000000000000000000000000000000000000000000020000000000000000000000000004000000000400000000100000000000000000000000000000000000000000000000000000000000000000000000000000000010000000000000000000000000020000000000000000000000000000000000",
      "type": "0x2",
      "transactionHash": "0x12a677617ef6a04d980ab71baa59556c5c69cd927980dd1d35d1e4f5f6b98dfa",
      "transactionIndex": "0x4",
      "blockHash": "0x67dbeddb5ca494cc5363e17f3bbe7b1d2f8dc984974c4c725349f35c46d7cbd5",
      "blockNumber": "0x10239fb",
      "gasUsed": "0xd88d",
      "effectiveGasPrice": "0xf6a8f",
      "from": "0xb0efd2b19a5698a9c830548ac22708a28c9d4552",
      "to": "0x5fd84259d66cd46123540766be93dfe6d43130d7",
      "contractAddress": null,
      "l1BaseFeeScalar": "0x1db0",
      "l1BlobBaseFee": "0x1645f145ba",
      "l1BlobBaseFeeScalar": "0xd2730",
      "l1Fee": "0x787ae8577b9",
      "l1GasPrice": "0xa2c0d9e2",
      "l1GasUsed": "0x640"
    },
    {
      "status": "0x1",
      "cumulativeGasUsed": "0x1e2963",
      "logs": [
        {
          "address": "0x5fd84259d66cd46123540766be93dfe6d43130d7",
          "topics": [
            "0xddf252ad1be2c89b69c2b068fc378daa952ba7f163c4a11628f55a4df523b3ef",
            "0x000000000000000000000000b0efd2b19a5698a9c830548ac22708a28c9d4552",
            "0x000000000000000000000000e734076f9b3c4af1920e92b218b4c3691a1b02d7"
          ],
          "data": "0x00000000000000000000000000000000000000000000000000000000001e8480",
          "blockHash": "0x67dbeddb5ca494cc5363e17f3bbe7b1d2f8dc984974c4c725349f35c46d7cbd5",
          "blockNumber": "0x10239fb",
          "transactionHash": "0x30877702f202ccfe5c24ca24d02840d5b12a577b484070a4c97f673d93c3bffc",
          "transactionIndex": "0x5",
          "logIndex": "0x1b",
          "removed": false
        },
        {
          "address": "0xe734076f9b3c4af1920e92b218b4c3691a1b02d7",
          "topics": [
            "0x8ec2296d09729265278dc14bc0bc96d35d996a514008369cc4e666e845ed6e2e"
          ],
          "data": "0x000000000000000000000000b0efd2b19a5698a9c830548ac22708a28c9d4552000000000000000000000000000000000000000000000000000000000000000000000000000000000000000000000000000000000000000000000000001e84800000000000000000000000000000000000000000000000000000000000aa37dc",
          "blockHash": "0x67dbeddb5ca494cc5363e17f3bbe7b1d2f8dc984974c4c725349f35c46d7cbd5",
          "blockNumber": "0x10239fb",
          "transactionHash": "0x30877702f202ccfe5c24ca24d02840d5b12a577b484070a4c97f673d93c3bffc",
          "transactionIndex": "0x5",
          "logIndex": "0x1c",
          "removed": false
        },
        {
          "address": "0xb31d2cb502e25b30c651842c7c3293c51fe6d16f",
          "topics": [
            "0x61ed099e74a97a1d7f8bb0952a88ca8b7b8ebd00c126ea04671f92a81213318a"
          ],
          "data": "0x000000000000000000000000dc0d68899405673b932f0db7f8a49191491a5bcb0000000000000000000000000000000000000000000000000000531969317ae9",
          "blockHash": "0x67dbeddb5ca494cc5363e17f3bbe7b1d2f8dc984974c4c725349f35c46d7cbd5",
          "blockNumber": "0x10239fb",
          "transactionHash": "0x30877702f202ccfe5c24ca24d02840d5b12a577b484070a4c97f673d93c3bffc",
          "transactionIndex": "0x5",
          "logIndex": "0x1d",
          "removed": false
        },
        {
          "address": "0xb31d2cb502e25b30c651842c7c3293c51fe6d16f",
          "topics": [
            "0x07ea52d82345d6e838192107d8fd7123d9c2ec8e916cd0aad13fd2b60db24644"
          ],
          "data": "0x000000000000000000000000000000000000000000000000000000000000006000000000000000000000000000000000000000000000000000000000000000a000000000000000000000000000000000000000000000000000000000000000c00000000000000000000000000000000000000000000000000000000000000001000000000000000000000000d680ec569f269aa7015f7979b4f1239b5aa4582c00000000000000000000000000000000000000000000000000000000000000000000000000000000000000000000000000000000000000000000000000000001000000000000000000000000000000000000000000000000000005048a914a80",
          "blockHash": "0x67dbeddb5ca494cc5363e17f3bbe7b1d2f8dc984974c4c725349f35c46d7cbd5",
          "blockNumber": "0x10239fb",
          "transactionHash": "0x30877702f202ccfe5c24ca24d02840d5b12a577b484070a4c97f673d93c3bffc",
          "transactionIndex": "0x5",
          "logIndex": "0x1e",
          "removed": false
        },
        {
          "address": "0x6edce65403992e310a62460808c4b910d972f10f",
          "topics": [
            "0x1ab700d4ced0c005b164c0f789fd09fcbb0156d4c2041b8a3bfbcd961cd1567f"
          ],
          "data": "0x00000000000000000000000000000000000000000000000000000000000000600000000000000000000000000000000000000000000000000000000000000140000000000000000000000000b31d2cb502e25b30c651842c7c3293c51fe6d16f00000000000000000000000000000000000000000000000000000000000000b101000000000000000100009d28000000000000000000000000e734076f9b3c4af1920e92b218b4c3691a1b02d700009d350000000000000000000000004f395890169559fdebe3f6da8822e86aa7ef390ff4feffc375025668c486a386a8ccf9d19a79e3e9896edcf49db2f11f12fdd097000000000000000000000000b0efd2b19a5698a9c830548ac22708a28c9d455200000000000000000000000000000000000000000000000000000000001e84800000000000000000000000000000000000000000000000000000000000000000000000000000000000000000000016000301001101000000000000000000000000000186a000000000000000000000",
          "blockHash": "0x67dbeddb5ca494cc5363e17f3bbe7b1d2f8dc984974c4c725349f35c46d7cbd5",
          "blockNumber": "0x10239fb",
          "transactionHash": "0x30877702f202ccfe5c24ca24d02840d5b12a577b484070a4c97f673d93c3bffc",
          "transactionIndex": "0x5",
          "logIndex": "0x1f",
          "removed": false
        }
      ],
      "logsBloom": "0x00000100000000000000000000000000000000000000020000000000000002000000000000004000200000020000000000000000000000000000020000000000000100000000000000000008000000000000000000000001000000000000000000000000000000008210000400000000000000200000000000000010000000000000000000000020000000080000000000000000000000000000000000000000000000009000000004100000000004000000000400400000100440000000000000000002000000000000100000000000000000000000000000000000000000000000040000000000000000000000022000000000000000000000000000000000",
      "type": "0x2",
      "transactionHash": "0x30877702f202ccfe5c24ca24d02840d5b12a577b484070a4c97f673d93c3bffc",
      "transactionIndex": "0x5",
      "blockHash": "0x67dbeddb5ca494cc5363e17f3bbe7b1d2f8dc984974c4c725349f35c46d7cbd5",
      "blockNumber": "0x10239fb",
      "gasUsed": "0x626d4",
      "effectiveGasPrice": "0xf6a8f",
      "from": "0xb0efd2b19a5698a9c830548ac22708a28c9d4552",
      "to": "0xe734076f9b3c4af1920e92b218b4c3691a1b02d7",
      "contractAddress": null,
      "l1BaseFeeScalar": "0x1db0",
      "l1BlobBaseFee": "0x1645f145ba",
      "l1BlobBaseFeeScalar": "0xd2730",
      "l1Fee": "0x787ae8577b9",
      "l1GasPrice": "0xa2c0d9e2",
      "l1GasUsed": "0x640"
    }
  ],
  "libraries": [],
  "pending": [],
  "returns": {},
  "timestamp": 1725648808,
  "chain": 11155420,
  "commit": "37e882d"
}