{
  "transactions": [
    {
      "hash": "0x8c84f6d99fce17342fd0f8d83cbc29ca3ce8174c37fc80631281119da220cdf7",
      "transactionType": "CALL",
      "contractName": null,
      "contractAddress": "0x5fd84259d66cd46123540766be93dfe6d43130d7",
      "function": "approve(address,uint256)",
      "arguments": [
        "0xa8fc227DCC5cEf05bFdd726e88E6E237C043F0B2",
        "2000000"
      ],
      "transaction": {
        "from": "0x12b2434a1022d5787bf06056f2885fe35de62bf8",
        "to": "0x5fd84259d66cd46123540766be93dfe6d43130d7",
        "gas": "0x12b1b",
        "value": "0x0",
        "input": "0x095ea7b3000000000000000000000000a8fc227dcc5cef05bfdd726e88e6e237c043f0b200000000000000000000000000000000000000000000000000000000001e8480",
        "nonce": "0xa6",
        "chainId": "0xaa37dc"
      },
      "additionalContracts": [],
      "isFixedGasLimit": false
    },
    {
      "hash": "0x89a097fe1504db6015334956bee4135fbc9d7b60fa757d3b88b5d11dfc1beb68",
      "transactionType": "CALL",
      "contractName": null,
      "contractAddress": "0xa8fc227dcc5cef05bfdd726e88e6e237c043f0b2",
      "function": "lockTokens(uint256,uint256,uint256,uint32)",
      "arguments": [
        "0",
        "2000000",
        "1000000",
        "11155420"
      ],
      "transaction": {
        "from": "0x12b2434a1022d5787bf06056f2885fe35de62bf8",
        "to": "0xa8fc227dcc5cef05bfdd726e88e6e237c043f0b2",
        "gas": "0x87f3a",
        "value": "0x2aa1efb94e0000",
        "input": "0xfb4f2057000000000000000000000000000000000000000000000000000000000000000000000000000000000000000000000000000000000000000000000000001e848000000000000000000000000000000000000000000000000000000000000f42400000000000000000000000000000000000000000000000000000000000aa37dc",
        "nonce": "0xa7",
        "chainId": "0xaa37dc"
      },
      "additionalContracts": [],
      "isFixedGasLimit": false
    }
  ],
  "receipts": [
    {
      "status": "0x1",
      "cumulativeGasUsed": "0x23f8a2",
      "logs": [
        {
          "address": "0x5fd84259d66cd46123540766be93dfe6d43130d7",
          "topics": [
            "0x8c5be1e5ebec7d5bd14f71427d1e84f3dd0314c0f7b2291e5b200ac8c7c3b925",
            "0x00000000000000000000000012b2434a1022d5787bf06056f2885fe35de62bf8",
            "0x000000000000000000000000a8fc227dcc5cef05bfdd726e88e6e237c043f0b2"
          ],
          "data": "0x00000000000000000000000000000000000000000000000000000000001e8480",
          "blockHash": "0xea9d94998c0c69ba6ececcc0d765257f9d9a5a8a85ac1957cf352c588f58c0c2",
          "blockNumber": "0x10232f3",
          "transactionHash": "0x8c84f6d99fce17342fd0f8d83cbc29ca3ce8174c37fc80631281119da220cdf7",
          "transactionIndex": "0x6",
          "logIndex": "0x2e",
          "removed": false
        }
      ],
      "logsBloom": "0x00000000000000000000000000400000000000000000000000000000000000000000000000000000000000000000000000000000000000000000020000200000000000000000000000000000200000000000000000000000000000000000000000000000000000000000000000000000000000200000000000000000000000000000000000000000000000000000000000000000000000000000000000000010020000000000000000000000000000000000000400000000001000000000000000000000000000000000000000000000000000000000000000000000000000000010000000000000000000000000000000000008000000000000000000000000",
      "type": "0x2",
      "transactionHash": "0x8c84f6d99fce17342fd0f8d83cbc29ca3ce8174c37fc80631281119da220cdf7",
      "transactionIndex": "0x6",
      "blockHash": "0xea9d94998c0c69ba6ececcc0d765257f9d9a5a8a85ac1957cf352c588f58c0c2",
      "blockNumber": "0x10232f3",
      "gasUsed": "0xd88d",
      "effectiveGasPrice": "0xf4390",
      "from": "0x12b2434a1022d5787bf06056f2885fe35de62bf8",
      "to": "0x5fd84259d66cd46123540766be93dfe6d43130d7",
      "contractAddress": null,
      "l1BaseFeeScalar": "0x1db0",
      "l1BlobBaseFee": "0x30d7bb9b75",
      "l1BlobBaseFeeScalar": "0xd2730",
      "l1Fee": "0x10a177a97c62",
      "l1GasPrice": "0x3e23c0654",
      "l1GasUsed": "0x640"
    },
    {
      "status": "0x1",
      "cumulativeGasUsed": "0x2a1f76",
      "logs": [
        {
          "address": "0x5fd84259d66cd46123540766be93dfe6d43130d7",
          "topics": [
            "0xddf252ad1be2c89b69c2b068fc378daa952ba7f163c4a11628f55a4df523b3ef",
            "0x00000000000000000000000012b2434a1022d5787bf06056f2885fe35de62bf8",
            "0x000000000000000000000000a8fc227dcc5cef05bfdd726e88e6e237c043f0b2"
          ],
          "data": "0x00000000000000000000000000000000000000000000000000000000001e8480",
          "blockHash": "0xea9d94998c0c69ba6ececcc0d765257f9d9a5a8a85ac1957cf352c588f58c0c2",
          "blockNumber": "0x10232f3",
          "transactionHash": "0x89a097fe1504db6015334956bee4135fbc9d7b60fa757d3b88b5d11dfc1beb68",
          "transactionIndex": "0x7",
          "logIndex": "0x2f",
          "removed": false
        },
        {
          "address": "0xa8fc227dcc5cef05bfdd726e88e6e237c043f0b2",
          "topics": [
            "0x8ec2296d09729265278dc14bc0bc96d35d996a514008369cc4e666e845ed6e2e"
          ],
          "data": "0x00000000000000000000000012b2434a1022d5787bf06056f2885fe35de62bf8000000000000000000000000000000000000000000000000000000000000000000000000000000000000000000000000000000000000000000000000001e84800000000000000000000000000000000000000000000000000000000000aa37dc",
          "blockHash": "0xea9d94998c0c69ba6ececcc0d765257f9d9a5a8a85ac1957cf352c588f58c0c2",
          "blockNumber": "0x10232f3",
          "transactionHash": "0x89a097fe1504db6015334956bee4135fbc9d7b60fa757d3b88b5d11dfc1beb68",
          "transactionIndex": "0x7",
          "logIndex": "0x30",
          "removed": false
        },
        {
          "address": "0xb31d2cb502e25b30c651842c7c3293c51fe6d16f",
          "topics": [
            "0x61ed099e74a97a1d7f8bb0952a88ca8b7b8ebd00c126ea04671f92a81213318a"
          ],
          "data": "0x000000000000000000000000dc0d68899405673b932f0db7f8a49191491a5bcb000000000000000000000000000000000000000000000000000052d836cbe441",
          "blockHash": "0xea9d94998c0c69ba6ececcc0d765257f9d9a5a8a85ac1957cf352c588f58c0c2",
          "blockNumber": "0x10232f3",
          "transactionHash": "0x89a097fe1504db6015334956bee4135fbc9d7b60fa757d3b88b5d11dfc1beb68",
          "transactionIndex": "0x7",
          "logIndex": "0x31",
          "removed": false
        },
        {
          "address": "0xb31d2cb502e25b30c651842c7c3293c51fe6d16f",
          "topics": [
            "0x07ea52d82345d6e838192107d8fd7123d9c2ec8e916cd0aad13fd2b60db24644"
          ],
          "data": "0x000000000000000000000000000000000000000000000000000000000000006000000000000000000000000000000000000000000000000000000000000000a000000000000000000000000000000000000000000000000000000000000000c00000000000000000000000000000000000000000000000000000000000000001000000000000000000000000d680ec569f269aa7015f7979b4f1239b5aa4582c00000000000000000000000000000000000000000000000000000000000000000000000000000000000000000000000000000000000000000000000000000001000000000000000000000000000000000000000000000000000004e21ade4ab0",
          "blockHash": "0xea9d94998c0c69ba6ececcc0d765257f9d9a5a8a85ac1957cf352c588f58c0c2",
          "blockNumber": "0x10232f3",
          "transactionHash": "0x89a097fe1504db6015334956bee4135fbc9d7b60fa757d3b88b5d11dfc1beb68",
          "transactionIndex": "0x7",
          "logIndex": "0x32",
          "removed": false
        },
        {
          "address": "0x6edce65403992e310a62460808c4b910d972f10f",
          "topics": [
            "0x1ab700d4ced0c005b164c0f789fd09fcbb0156d4c2041b8a3bfbcd961cd1567f"
          ],
          "data": "0x00000000000000000000000000000000000000000000000000000000000000600000000000000000000000000000000000000000000000000000000000000140000000000000000000000000b31d2cb502e25b30c651842c7c3293c51fe6d16f00000000000000000000000000000000000000000000000000000000000000b101000000000000000100009d28000000000000000000000000a8fc227dcc5cef05bfdd726e88e6e237c043f0b200009d35000000000000000000000000c32b58a3aa4b65cbef6c64691e20b15e5553aca465abcb7d371748b260e726addcd8d2d760d98b6cdffbdad1e189acbb9be744d900000000000000000000000012b2434a1022d5787bf06056f2885fe35de62bf800000000000000000000000000000000000000000000000000000000001e84800000000000000000000000000000000000000000000000000000000000000000000000000000000000000000000016000301001101000000000000000000000000000186a000000000000000000000",
          "blockHash": "0xea9d94998c0c69ba6ececcc0d765257f9d9a5a8a85ac1957cf352c588f58c0c2",
          "blockNumber": "0x10232f3",
          "transactionHash": "0x89a097fe1504db6015334956bee4135fbc9d7b60fa757d3b88b5d11dfc1beb68",
          "transactionIndex": "0x7",
          "logIndex": "0x33",
          "removed": false
        }
      ],
      "logsBloom": "0x00000100000000000000000000400000000000000000100000000000000000000000000000004000200000000000000000000000000000000000020000000000000100000000000000000008200000000000000000000000000000000000000000000000000000008210000000000000000000200000000000000010000000000000000000000020000000080000000000000000000000000000000000000010000000009000000000100010000000000000000400400000001440000000000000000002000000000000100000000000000000000000000000000000000000000000040000000000000000000000002000000008000000000000000000000000",
      "type": "0x2",
      "transactionHash": "0x89a097fe1504db6015334956bee4135fbc9d7b60fa757d3b88b5d11dfc1beb68",
      "transactionIndex": "0x7",
      "blockHash": "0xea9d94998c0c69ba6ececcc0d765257f9d9a5a8a85ac1957cf352c588f58c0c2",
      "blockNumber": "0x10232f3",
      "gasUsed": "0x626d4",
      "effectiveGasPrice": "0xf4390",
      "from": "0x12b2434a1022d5787bf06056f2885fe35de62bf8",
      "to": "0xa8fc227dcc5cef05bfdd726e88e6e237c043f0b2",
      "contractAddress": null,
      "l1BaseFeeScalar": "0x1db0",
      "l1BlobBaseFee": "0x30d7bb9b75",
      "l1BlobBaseFeeScalar": "0xd2730",
      "l1Fee": "0x10a177a97c62",
      "l1GasPrice": "0x3e23c0654",
      "l1GasUsed": "0x640"
    }
  ],
  "libraries": [],
  "pending": [],
  "returns": {},
  "timestamp": 1725645209,
  "chain": 11155420,
  "commit": "dc78ae4"
}