{
  "transactions": [
    {
      "hash": "0x0cf5c3bcb2090c64e67ca17a76f196a4c35dbd8cd8817e32f0c940eb48210b60",
      "transactionType": "CALL",
      "contractName": null,
      "contractAddress": "0x0742e003fbe108fd92f7b089cdce906a9a143e2c",
      "function": "setPeer(uint32,bytes32)",
      "arguments": [
        "40232",
        "0x00000000000000000000000004699fb77e5a5bdeec4374e6589b348b1d7ea90e"
      ],
      "transaction": {
        "from": "0x12b2434a1022d5787bf06056f2885fe35de62bf8",
        "to": "0x0742e003fbe108fd92f7b089cdce906a9a143e2c",
        "gas": "0x10f87",
        "value": "0x0",
        "input": "0x3400288b0000000000000000000000000000000000000000000000000000000000009d2800000000000000000000000004699fb77e5a5bdeec4374e6589b348b1d7ea90e",
        "nonce": "0xf8",
        "chainId": "0x14a34"
      },
      "additionalContracts": [],
      "isFixedGasLimit": false
    },
    {
      "hash": "0x21198cbbecd898aab929c56cea3d747fd41e8212515218f846f9eadab0f3d8bb",
      "transactionType": "CALL",
      "contractName": null,
      "contractAddress": "0x0742e003fbe108fd92f7b089cdce906a9a143e2c",
      "function": "setComposerEid(uint32)",
      "arguments": [
        "40232"
      ],
      "transaction": {
        "from": "0x12b2434a1022d5787bf06056f2885fe35de62bf8",
        "to": "0x0742e003fbe108fd92f7b089cdce906a9a143e2c",
        "gas": "0xf96e",
        "value": "0x0",
        "input": "0xd30fce920000000000000000000000000000000000000000000000000000000000009d28",
        "nonce": "0xf9",
        "chainId": "0x14a34"
      },
      "additionalContracts": [],
      "isFixedGasLimit": false
    }
  ],
  "receipts": [
    {
      "status": "0x1",
      "cumulativeGasUsed": "0x1b69d6",
      "logs": [
        {
          "address": "0x0742e003fbe108fd92f7b089cdce906a9a143e2c",
          "topics": [
            "0x238399d427b947898edb290f5ff0f9109849b1c3ba196a42e35f00c50a54b98b"
          ],
          "data": "0x0000000000000000000000000000000000000000000000000000000000009d2800000000000000000000000004699fb77e5a5bdeec4374e6589b348b1d7ea90e",
          "blockHash": "0x679dd957655f912b502f5712a9625bcceb0e10a7db6d5c9eae0e425dcedbc709",
          "blockNumber": "0xe454d4",
          "transactionHash": "0x0cf5c3bcb2090c64e67ca17a76f196a4c35dbd8cd8817e32f0c940eb48210b60",
          "transactionIndex": "0x5",
          "logIndex": "0x14",
          "removed": false
        }
      ],
      "logsBloom": "0x00000000000000000000000000000000000000000000000000000000000000000000000000000000000000000000000000000000000000000800000000000000000000000000000000000000000000000000000000000000000000000000000000000000000000000000000000000000000000000000000000000000000000000000000000000000000000000000000000000000000000100000000000000000000000000000000000000000000000000000000000000000000002000000000000000000000000000000000000000000000000000000000000040000000000000000000000000000000000000001000000000000000000000000000000000002",
      "type": "0x2",
      "transactionHash": "0x0cf5c3bcb2090c64e67ca17a76f196a4c35dbd8cd8817e32f0c940eb48210b60",
      "transactionIndex": "0x5",
      "blockHash": "0x679dd957655f912b502f5712a9625bcceb0e10a7db6d5c9eae0e425dcedbc709",
      "blockNumber": "0xe454d4",
      "gasUsed": "0xb9a9",
      "effectiveGasPrice": "0x8e8d25",
      "from": "0x12b2434a1022d5787bf06056f2885fe35de62bf8",
      "to": "0x0742e003fbe108fd92f7b089cdce906a9a143e2c",
      "contractAddress": null,
      "l1BaseFeeScalar": "0x44d",
      "l1BlobBaseFee": "0xc5c2c3b19",
      "l1BlobBaseFeeScalar": "0xa118b",
      "l1Fee": "0x330db94db7d",
      "l1GasPrice": "0xb9cf9376",
      "l1GasUsed": "0x640"
    },
    {
      "status": "0x1",
      "cumulativeGasUsed": "0x1c1e6c",
      "logs": [],
      "logsBloom": "0x00000000000000000000000000000000000000000000000000000000000000000000000000000000000000000000000000000000000000000000000000000000000000000000000000000000000000000000000000000000000000000000000000000000000000000000000000000000000000000000000000000000000000000000000000000000000000000000000000000000000000000000000000000000000000000000000000000000000000000000000000000000000000000000000000000000000000000000000000000000000000000000000000000000000000000000000000000000000000000000000000000000000000000000000000000000",
      "type": "0x2",
      "transactionHash": "0x21198cbbecd898aab929c56cea3d747fd41e8212515218f846f9eadab0f3d8bb",
      "transactionIndex": "0x6",
      "blockHash": "0x679dd957655f912b502f5712a9625bcceb0e10a7db6d5c9eae0e425dcedbc709",
      "blockNumber": "0xe454d4",
      "gasUsed": "0xb496",
      "effectiveGasPrice": "0x8e8d25",
      "from": "0x12b2434a1022d5787bf06056f2885fe35de62bf8",
      "to": "0x0742e003fbe108fd92f7b089cdce906a9a143e2c",
      "contractAddress": null,
      "l1BaseFeeScalar": "0x44d",
      "l1BlobBaseFee": "0xc5c2c3b19",
      "l1BlobBaseFeeScalar": "0xa118b",
      "l1Fee": "0x330db94db7d",
      "l1GasPrice": "0xb9cf9376",
      "l1GasUsed": "0x640"
    }
  ],
  "libraries": [],
  "pending": [],
  "returns": {},
  "timestamp": 1725696143,
  "chain": 84532,
  "commit": "c44a2e9"
}