{
  "transactions": [
    {
      "hash": "0xa211fdee1550eabef92cda05560264833a171b7d547420a1f39db794e2876c02",
      "transactionType": "CALL",
      "contractName": null,
      "contractAddress": "0xc0ce627692bc7a9849f8507e6df3d32360c2551f",
      "function": "setPeer(uint32,bytes32)",
      "arguments": [
        "40232",
        "0x000000000000000000000000e212e41b3c12d9ef789076e0d9edcc12659a01ad"
      ],
      "transaction": {
        "from": "0x12b2434a1022d5787bf06056f2885fe35de62bf8",
        "to": "0xc0ce627692bc7a9849f8507e6df3d32360c2551f",
        "gas": "0x10f87",
        "value": "0x0",
        "input": "0x3400288b0000000000000000000000000000000000000000000000000000000000009d28000000000000000000000000e212e41b3c12d9ef789076e0d9edcc12659a01ad",
        "nonce": "0xc1",
        "chainId": "0x14a34"
      },
      "additionalContracts": [],
      "isFixedGasLimit": false
    },
    {
      "hash": "0x0b095a59b7bd2ee3e0bd7433fbe923167d7b2e1ac6a953499a464d3fd2ad985c",
      "transactionType": "CALL",
      "contractName": null,
      "contractAddress": "0xc0ce627692bc7a9849f8507e6df3d32360c2551f",
      "function": "setComposerEid(uint32)",
      "arguments": [
        "40232"
      ],
      "transaction": {
        "from": "0x12b2434a1022d5787bf06056f2885fe35de62bf8",
        "to": "0xc0ce627692bc7a9849f8507e6df3d32360c2551f",
        "gas": "0xf98c",
        "value": "0x0",
        "input": "0xd30fce920000000000000000000000000000000000000000000000000000000000009d28",
        "nonce": "0xc2",
        "chainId": "0x14a34"
      },
      "additionalContracts": [],
      "isFixedGasLimit": false
    }
  ],
  "receipts": [
    {
      "status": "0x1",
      "cumulativeGasUsed": "0x1b117dd",
      "logs": [
        {
          "address": "0xc0ce627692bc7a9849f8507e6df3d32360c2551f",
          "topics": [
            "0x238399d427b947898edb290f5ff0f9109849b1c3ba196a42e35f00c50a54b98b"
          ],
          "data": "0x0000000000000000000000000000000000000000000000000000000000009d28000000000000000000000000e212e41b3c12d9ef789076e0d9edcc12659a01ad",
          "blockHash": "0x3b894d117c630a97fb7c3504a84e4d8ddc630216d7f0fc24b655c1811dae1260",
          "blockNumber": "0xe3d333",
          "transactionHash": "0xa211fdee1550eabef92cda05560264833a171b7d547420a1f39db794e2876c02",
          "transactionIndex": "0xb",
          "logIndex": "0xc4",
          "removed": false
        }
      ],
      "logsBloom": "0x00000000000000000000000000000080000000000000000000000000000000000000000000000000000000000000000000000000000000000800000000000000000000000000000000000000000008000000000000000000000000000000000000000000000000000000000000000000000000000000000000000000000000000000000000000000000000000000000000000000000000000000000000000000000000000000000000000000000000000000000000000000000002000000000000000000000000000000000000000000000000000000000000040000000000000000000000000000000000000000000000100000000000000000000000000000",
      "type": "0x2",
      "transactionHash": "0xa211fdee1550eabef92cda05560264833a171b7d547420a1f39db794e2876c02",
      "transactionIndex": "0xb",
      "blockHash": "0x3b894d117c630a97fb7c3504a84e4d8ddc630216d7f0fc24b655c1811dae1260",
      "blockNumber": "0xe3d333",
      "gasUsed": "0xb9a9",
      "effectiveGasPrice": "0x8a4e9b",
      "from": "0x12b2434a1022d5787bf06056f2885fe35de62bf8",
      "to": "0xc0ce627692bc7a9849f8507e6df3d32360c2551f",
      "contractAddress": null,
      "l1BaseFeeScalar": "0x44d",
      "l1BlobBaseFee": "0x3b6fc4ce0f",
      "l1BlobBaseFeeScalar": "0xa118b",
      "l1Fee": "0xf5815d895c6",
      "l1GasPrice": "0x37e8a5238",
      "l1GasUsed": "0x640"
    },
    {
      "status": "0x1",
      "cumulativeGasUsed": "0x1b1cc89",
      "logs": [],
      "logsBloom": "0x00000000000000000000000000000000000000000000000000000000000000000000000000000000000000000000000000000000000000000000000000000000000000000000000000000000000000000000000000000000000000000000000000000000000000000000000000000000000000000000000000000000000000000000000000000000000000000000000000000000000000000000000000000000000000000000000000000000000000000000000000000000000000000000000000000000000000000000000000000000000000000000000000000000000000000000000000000000000000000000000000000000000000000000000000000000",
      "type": "0x2",
      "transactionHash": "0x0b095a59b7bd2ee3e0bd7433fbe923167d7b2e1ac6a953499a464d3fd2ad985c",
      "transactionIndex": "0xc",
      "blockHash": "0x3b894d117c630a97fb7c3504a84e4d8ddc630216d7f0fc24b655c1811dae1260",
      "blockNumber": "0xe3d333",
      "gasUsed": "0xb4ac",
      "effectiveGasPrice": "0x8a4e9b",
      "from": "0x12b2434a1022d5787bf06056f2885fe35de62bf8",
      "to": "0xc0ce627692bc7a9849f8507e6df3d32360c2551f",
      "contractAddress": null,
      "l1BaseFeeScalar": "0x44d",
      "l1BlobBaseFee": "0x3b6fc4ce0f",
      "l1BlobBaseFeeScalar": "0xa118b",
      "l1Fee": "0xf5815d895c6",
      "l1GasPrice": "0x37e8a5238",
      "l1GasUsed": "0x640"
    }
  ],
  "libraries": [],
  "pending": [],
  "returns": {},
  "timestamp": 1725629772,
  "chain": 84532,
  "commit": "dc78ae4"
}