{
  "transactions": [
    {
      "hash": "0xe43ce8cd595cf624e9cd56293aa7212b0ebeacce6599556a618ec868c73555be",
      "transactionType": "CALL",
      "contractName": null,
      "contractAddress": "0xa01d29bf2555850f2758c28b5c6ea2012297d5dd",
      "function": "setPeer(uint32,bytes32)",
      "arguments": [
        "40232",
        "0x000000000000000000000000c181c1bc2e3be2c77777b6609d914dc7659650be"
      ],
      "transaction": {
        "from": "0x12b2434a1022d5787bf06056f2885fe35de62bf8",
        "to": "0xa01d29bf2555850f2758c28b5c6ea2012297d5dd",
        "gas": "0x10f87",
        "value": "0x0",
        "input": "0x3400288b0000000000000000000000000000000000000000000000000000000000009d28000000000000000000000000c181c1bc2e3be2c77777b6609d914dc7659650be",
        "nonce": "0xeb",
        "chainId": "0x14a34"
      },
      "additionalContracts": [],
      "isFixedGasLimit": false
    },
    {
      "hash": "0xdc6762a900c7e0f56f4034836c29095b82675a5aad2aee890d2df3e3b0a5df33",
      "transactionType": "CALL",
      "contractName": null,
      "contractAddress": "0xa01d29bf2555850f2758c28b5c6ea2012297d5dd",
      "function": "setComposerEid(uint32)",
      "arguments": [
        "40232"
      ],
      "transaction": {
        "from": "0x12b2434a1022d5787bf06056f2885fe35de62bf8",
        "to": "0xa01d29bf2555850f2758c28b5c6ea2012297d5dd",
        "gas": "0xf98c",
        "value": "0x0",
        "input": "0xd30fce920000000000000000000000000000000000000000000000000000000000009d28",
        "nonce": "0xec",
        "chainId": "0x14a34"
      },
      "additionalContracts": [],
      "isFixedGasLimit": false
    }
  ],
  "receipts": [
    {
      "status": "0x1",
      "cumulativeGasUsed": "0x15f6070",
      "logs": [
        {
          "address": "0xa01d29bf2555850f2758c28b5c6ea2012297d5dd",
          "topics": [
            "0x238399d427b947898edb290f5ff0f9109849b1c3ba196a42e35f00c50a54b98b"
          ],
          "data": "0x0000000000000000000000000000000000000000000000000000000000009d28000000000000000000000000c181c1bc2e3be2c77777b6609d914dc7659650be",
          "blockHash": "0xa5604a23385909295e588beb17a72b0e518a8b8b5a9a7568757e65b506b889f6",
          "blockNumber": "0xe3ecec",
          "transactionHash": "0xe43ce8cd595cf624e9cd56293aa7212b0ebeacce6599556a618ec868c73555be",
          "transactionIndex": "0xf",
          "logIndex": "0xde",
          "removed": false
        }
      ],
      "logsBloom": "0x00000000000000000000000000000000000000000000000000000000000100000000000000000000000000000000000000000000000000000800000000000000000000000000000000000000000000000000000000000000000000000000000000000000000000000000000000000000000000000000000000000000000000000000000000000000000000000040000000000000000000000000000000000000000000000000000000000000000000000000000000000080000002000000000000000000000000000000000000000000000000000000000000040000000000000000000000000000000000000000000000000000000000000000000000000000",
      "type": "0x2",
      "transactionHash": "0xe43ce8cd595cf624e9cd56293aa7212b0ebeacce6599556a618ec868c73555be",
      "transactionIndex": "0xf",
      "blockHash": "0xa5604a23385909295e588beb17a72b0e518a8b8b5a9a7568757e65b506b889f6",
      "blockNumber": "0xe3ecec",
      "gasUsed": "0xb9a9",
      "effectiveGasPrice": "0x9285f7",
      "from": "0x12b2434a1022d5787bf06056f2885fe35de62bf8",
      "to": "0xa01d29bf2555850f2758c28b5c6ea2012297d5dd",
      "contractAddress": null,
      "l1BaseFeeScalar": "0x44d",
      "l1BlobBaseFee": "0x58042253b1",
      "l1BlobBaseFeeScalar": "0xa118b",
      "l1Fee": "0x16b882113737",
      "l1GasPrice": "0x4f81bbf5f",
      "l1GasUsed": "0x640"
    },
    {
      "status": "0x1",
      "cumulativeGasUsed": "0x160151c",
      "logs": [],
      "logsBloom": "0x00000000000000000000000000000000000000000000000000000000000000000000000000000000000000000000000000000000000000000000000000000000000000000000000000000000000000000000000000000000000000000000000000000000000000000000000000000000000000000000000000000000000000000000000000000000000000000000000000000000000000000000000000000000000000000000000000000000000000000000000000000000000000000000000000000000000000000000000000000000000000000000000000000000000000000000000000000000000000000000000000000000000000000000000000000000",
      "type": "0x2",
      "transactionHash": "0xdc6762a900c7e0f56f4034836c29095b82675a5aad2aee890d2df3e3b0a5df33",
      "transactionIndex": "0x10",
      "blockHash": "0xa5604a23385909295e588beb17a72b0e518a8b8b5a9a7568757e65b506b889f6",
      "blockNumber": "0xe3ecec",
      "gasUsed": "0xb4ac",
      "effectiveGasPrice": "0x9285f7",
      "from": "0x12b2434a1022d5787bf06056f2885fe35de62bf8",
      "to": "0xa01d29bf2555850f2758c28b5c6ea2012297d5dd",
      "contractAddress": null,
      "l1BaseFeeScalar": "0x44d",
      "l1BlobBaseFee": "0x58042253b1",
      "l1BlobBaseFeeScalar": "0xa118b",
      "l1Fee": "0x16b882113737",
      "l1GasPrice": "0x4f81bbf5f",
      "l1GasUsed": "0x640"
    }
  ],
  "libraries": [],
  "pending": [],
  "returns": {},
  "timestamp": 1725642943,
  "chain": 84532,
  "commit": "dc78ae4"
}