{
  "transactions": [
    {
      "hash": "0xbd0d3feea5b674fb3b9201e8459d8ea272462f1c799256854cb21650f960c143",
      "transactionType": "CALL",
      "contractName": null,
      "contractAddress": "0x0ecb68e0fc16a881fe1ec43eacaae03786818d18",
      "function": "setPeer(uint32,bytes32)",
      "arguments": [
        "40232",
        "0x000000000000000000000000c63cf8a07427bd4c64698b0133662df463d14bf8"
      ],
      "transaction": {
        "from": "0x12b2434a1022d5787bf06056f2885fe35de62bf8",
        "to": "0x0ecb68e0fc16a881fe1ec43eacaae03786818d18",
        "gas": "0x10f87",
        "value": "0x0",
        "input": "0x3400288b0000000000000000000000000000000000000000000000000000000000009d28000000000000000000000000c63cf8a07427bd4c64698b0133662df463d14bf8",
        "nonce": "0xfe",
        "chainId": "0x14a34"
      },
      "additionalContracts": [],
      "isFixedGasLimit": false
    },
    {
      "hash": "0x97e4d31850f2a836a031188545e203938655714b3681e9b92ae5d77bc271396c",
      "transactionType": "CALL",
      "contractName": null,
      "contractAddress": "0x0ecb68e0fc16a881fe1ec43eacaae03786818d18",
      "function": "setComposerEid(uint32)",
      "arguments": [
        "40232"
      ],
      "transaction": {
        "from": "0x12b2434a1022d5787bf06056f2885fe35de62bf8",
        "to": "0x0ecb68e0fc16a881fe1ec43eacaae03786818d18",
        "gas": "0xf96e",
        "value": "0x0",
        "input": "0xd30fce920000000000000000000000000000000000000000000000000000000000009d28",
        "nonce": "0xff",
        "chainId": "0x14a34"
      },
      "additionalContracts": [],
      "isFixedGasLimit": false
    }
  ],
  "receipts": [
    {
      "status": "0x1",
      "cumulativeGasUsed": "0x91a092",
      "logs": [
        {
          "address": "0x0ecb68e0fc16a881fe1ec43eacaae03786818d18",
          "topics": [
            "0x238399d427b947898edb290f5ff0f9109849b1c3ba196a42e35f00c50a54b98b"
          ],
          "data": "0x0000000000000000000000000000000000000000000000000000000000009d28000000000000000000000000c63cf8a07427bd4c64698b0133662df463d14bf8",
          "blockHash": "0x23adb7a32b89205105a78c4f721dd0b3ee1e750236e2d4b2e31381c715f6e9b4",
          "blockNumber": "0xe4616d",
          "transactionHash": "0xbd0d3feea5b674fb3b9201e8459d8ea272462f1c799256854cb21650f960c143",
          "transactionIndex": "0x8",
          "logIndex": "0x40",
          "removed": false
        }
      ],
      "logsBloom": "0x00000000000000000000000000000000000000000000000000000000000000000000000000000000000000000000000000000000000000000800000000000000000000000000000000000000000008000000000000000000000000004000000000000000000000000000000000000000000000000000000000000000000000000000000000000000000000000000000000000000000000000000000000000000000000000000000000000000000000000000000000000000000002000000000000000000000800000000000000000000000000000000000000040000000000000000000000000000000000000000000000000000000000000000000000000000",
      "type": "0x2",
      "transactionHash": "0xbd0d3feea5b674fb3b9201e8459d8ea272462f1c799256854cb21650f960c143",
      "transactionIndex": "0x8",
      "blockHash": "0x23adb7a32b89205105a78c4f721dd0b3ee1e750236e2d4b2e31381c715f6e9b4",
      "blockNumber": "0xe4616d",
      "gasUsed": "0xb9a9",
      "effectiveGasPrice": "0x61df5d",
      "from": "0x12b2434a1022d5787bf06056f2885fe35de62bf8",
      "to": "0x0ecb68e0fc16a881fe1ec43eacaae03786818d18",
      "contractAddress": null,
      "l1BaseFeeScalar": "0x44d",
      "l1BlobBaseFee": "0x4e3c903973",
      "l1BlobBaseFeeScalar": "0xa118b",
      "l1Fee": "0x142f2838f93f",
      "l1GasPrice": "0x2ac4d2684",
      "l1GasUsed": "0x640"
    },
    {
      "status": "0x1",
      "cumulativeGasUsed": "0x925528",
      "logs": [],
      "logsBloom": "0x00000000000000000000000000000000000000000000000000000000000000000000000000000000000000000000000000000000000000000000000000000000000000000000000000000000000000000000000000000000000000000000000000000000000000000000000000000000000000000000000000000000000000000000000000000000000000000000000000000000000000000000000000000000000000000000000000000000000000000000000000000000000000000000000000000000000000000000000000000000000000000000000000000000000000000000000000000000000000000000000000000000000000000000000000000000",
      "type": "0x2",
      "transactionHash": "0x97e4d31850f2a836a031188545e203938655714b3681e9b92ae5d77bc271396c",
      "transactionIndex": "0x9",
      "blockHash": "0x23adb7a32b89205105a78c4f721dd0b3ee1e750236e2d4b2e31381c715f6e9b4",
      "blockNumber": "0xe4616d",
      "gasUsed": "0xb496",
      "effectiveGasPrice": "0x61df5d",
      "from": "0x12b2434a1022d5787bf06056f2885fe35de62bf8",
      "to": "0x0ecb68e0fc16a881fe1ec43eacaae03786818d18",
      "contractAddress": null,
      "l1BaseFeeScalar": "0x44d",
      "l1BlobBaseFee": "0x4e3c903973",
      "l1BlobBaseFeeScalar": "0xa118b",
      "l1Fee": "0x142f2838f93f",
      "l1GasPrice": "0x2ac4d2684",
      "l1GasUsed": "0x640"
    }
  ],
  "libraries": [],
  "pending": [],
  "returns": {},
  "timestamp": 1725702593,
  "chain": 84532,
  "commit": "c44a2e9"
}