{
  "transactions": [
    {
      "hash": "0x35b5be91852df143df688f4d2dab1f3ab0c527846b7a61b3b52bcad97b97979e",
      "transactionType": "CALL",
      "contractName": null,
      "contractAddress": "0x053d81199c95e265f2e369e4afc4b30eb8b228c3",
      "function": "setPeer(uint32,bytes32)",
      "arguments": [
        "40285",
        "0x000000000000000000000000330b96b0153ec84a9d5b27a7a7e7047f9c898717"
      ],
      "transaction": {
        "from": "0xb0efd2b19a5698a9c830548ac22708a28c9d4552",
        "to": "0x053d81199c95e265f2e369e4afc4b30eb8b228c3",
        "gas": "0x9511",
        "value": "0x0",
        "input": "0x3400288b0000000000000000000000000000000000000000000000000000000000009d5d000000000000000000000000330b96b0153ec84a9d5b27a7a7e7047f9c898717",
        "nonce": "0xb7",
        "chainId": "0x14a34"
      },
      "additionalContracts": [],
      "isFixedGasLimit": false
    },
    {
      "hash": "0xf5847bd4cb54e2a436837f2aa382d7fb6643b0e3267a494426745c016afae958",
      "transactionType": "CALL",
      "contractName": null,
      "contractAddress": "0x053d81199c95e265f2e369e4afc4b30eb8b228c3",
      "function": "setComposerEid(uint32)",
      "arguments": [
        "40285"
      ],
      "transaction": {
        "from": "0xb0efd2b19a5698a9c830548ac22708a28c9d4552",
        "to": "0x053d81199c95e265f2e369e4afc4b30eb8b228c3",
        "gas": "0xa66a",
        "value": "0x0",
        "input": "0xd30fce920000000000000000000000000000000000000000000000000000000000009d5d",
        "nonce": "0xb8",
        "chainId": "0x14a34"
      },
      "additionalContracts": [],
      "isFixedGasLimit": false
    }
  ],
  "receipts": [
    {
      "status": "0x1",
      "cumulativeGasUsed": "0x2e975e",
      "logs": [
        {
          "address": "0x053d81199c95e265f2e369e4afc4b30eb8b228c3",
          "topics": [
            "0x238399d427b947898edb290f5ff0f9109849b1c3ba196a42e35f00c50a54b98b"
          ],
          "data": "0x0000000000000000000000000000000000000000000000000000000000009d5d000000000000000000000000330b96b0153ec84a9d5b27a7a7e7047f9c898717",
          "blockHash": "0xb697caec66f02c89ca1c44ffd0977eb51dc29322ef3e93e5ee1d09f00e4c3e37",
          "blockNumber": "0xe4030c",
          "transactionHash": "0x35b5be91852df143df688f4d2dab1f3ab0c527846b7a61b3b52bcad97b97979e",
          "transactionIndex": "0x6",
          "logIndex": "0x2e",
          "removed": false
        }
      ],
      "logsBloom": "0x00000000000000000000000000000000000000000000000000000000000000000000000000000000000000000000000000000000000000000800000000000000000000000000000000000000000000000000000000000000000000000000000000000000000000000000000000000000000000000000000000000000000000000000000000000000000000000000000000000000000000000000000000000000000000000000000000000000000000000000000000000000000002000000000000020000000000000000000000000000000000000000000000040002000000000000080000000000000000000000000000000000000000000000000000000000",
      "type": "0x2",
      "transactionHash": "0x35b5be91852df143df688f4d2dab1f3ab0c527846b7a61b3b52bcad97b97979e",
      "transactionIndex": "0x6",
      "blockHash": "0xb697caec66f02c89ca1c44ffd0977eb51dc29322ef3e93e5ee1d09f00e4c3e37",
      "blockNumber": "0xe4030c",
      "gasUsed": "0x6bed",
      "effectiveGasPrice": "0xaa38a3",
      "from": "0xb0efd2b19a5698a9c830548ac22708a28c9d4552",
      "to": "0x053d81199c95e265f2e369e4afc4b30eb8b228c3",
      "contractAddress": null,
      "l1BaseFeeScalar": "0x44d",
      "l1BlobBaseFee": "0x11dd11520ad",
      "l1BlobBaseFeeScalar": "0xa118b",
      "l1Fee": "0x49abec36fbd4",
      "l1GasPrice": "0x284c0625",
      "l1GasUsed": "0x640"
    },
    {
      "status": "0x1",
      "cumulativeGasUsed": "0x2f0928",
      "logs": [],
      "logsBloom": "0x00000000000000000000000000000000000000000000000000000000000000000000000000000000000000000000000000000000000000000000000000000000000000000000000000000000000000000000000000000000000000000000000000000000000000000000000000000000000000000000000000000000000000000000000000000000000000000000000000000000000000000000000000000000000000000000000000000000000000000000000000000000000000000000000000000000000000000000000000000000000000000000000000000000000000000000000000000000000000000000000000000000000000000000000000000000",
      "type": "0x2",
      "transactionHash": "0xf5847bd4cb54e2a436837f2aa382d7fb6643b0e3267a494426745c016afae958",
      "transactionIndex": "0x7",
      "blockHash": "0xb697caec66f02c89ca1c44ffd0977eb51dc29322ef3e93e5ee1d09f00e4c3e37",
      "blockNumber": "0xe4030c",
      "gasUsed": "0x71ca",
      "effectiveGasPrice": "0xaa38a3",
      "from": "0xb0efd2b19a5698a9c830548ac22708a28c9d4552",
      "to": "0x053d81199c95e265f2e369e4afc4b30eb8b228c3",
      "contractAddress": null,
      "l1BaseFeeScalar": "0x44d",
      "l1BlobBaseFee": "0x11dd11520ad",
      "l1BlobBaseFeeScalar": "0xa118b",
      "l1Fee": "0x49abec36fbd4",
      "l1GasPrice": "0x284c0625",
      "l1GasUsed": "0x640"
    }
  ],
  "libraries": [],
  "pending": [],
  "returns": {},
  "timestamp": 1725654270,
  "chain": 84532,
  "commit": "37e882d"
}