{
  "transactions": [
    {
      "hash": "0xa72e4e488de8e8b4a2e484ed7de98d9ea996ec752d1bf20b96b72b58c22d3afe",
      "transactionType": "CALL",
      "contractName": null,
      "contractAddress": "0x11208843dd830377259f754155a013098ae81fea",
      "function": "setPeer(uint32,bytes32)",
      "arguments": [
        "40232",
        "0x000000000000000000000000ff9b415be451a95a36f0609b51389119112e525f"
      ],
      "transaction": {
        "from": "0x6680dfd1c6a4867476b2e60da89354ac93272878",
        "to": "0x11208843dd830377259f754155a013098ae81fea",
        "gas": "0x10f66",
        "value": "0x0",
        "input": "0x3400288b0000000000000000000000000000000000000000000000000000000000009d28000000000000000000000000ff9b415be451a95a36f0609b51389119112e525f",
        "nonce": "0x4",
        "chainId": "0x14a34"
      },
      "additionalContracts": [],
      "isFixedGasLimit": false
    },
    {
      "hash": "0x20324171f85062b34f9f285b9acb8830ade88553667b780d1cff4dd180cf8264",
      "transactionType": "CALL",
      "contractName": null,
      "contractAddress": "0x11208843dd830377259f754155a013098ae81fea",
      "function": "setComposerFirstEid(uint32)",
      "arguments": [
        "40232"
      ],
      "transaction": {
        "from": "0x6680dfd1c6a4867476b2e60da89354ac93272878",
        "to": "0x11208843dd830377259f754155a013098ae81fea",
        "gas": "0x1075a",
        "value": "0x0",
        "input": "0xba44879f0000000000000000000000000000000000000000000000000000000000009d28",
        "nonce": "0x5",
        "chainId": "0x14a34"
      },
      "additionalContracts": [],
      "isFixedGasLimit": false
    }
  ],
  "receipts": [
    {
      "status": "0x1",
      "cumulativeGasUsed": "0x106052",
      "logs": [
        {
          "address": "0x11208843dd830377259f754155a013098ae81fea",
          "topics": [
            "0x238399d427b947898edb290f5ff0f9109849b1c3ba196a42e35f00c50a54b98b"
          ],
          "data": "0x0000000000000000000000000000000000000000000000000000000000009d28000000000000000000000000ff9b415be451a95a36f0609b51389119112e525f",
          "blockHash": "0x9d71768b442a2ea1297fc9b5ee8e85773378ccbc12cd687590508d58af3234c1",
          "blockNumber": "0xe4a3e0",
          "transactionHash": "0xa72e4e488de8e8b4a2e484ed7de98d9ea996ec752d1bf20b96b72b58c22d3afe",
          "transactionIndex": "0x4",
          "logIndex": "0x18",
          "removed": false
        }
      ],
      "logsBloom": "0x00000000000000000000000000000000000000000000000000000000000000000000000000000000000000000000000000000000000000000800000000000000000000000000000000000000000000000000000000000000000000000000000000000000000000000000000000000000000000000000000000000000000000000000000000000000000000000000000000000000000010000000000000000000000000000000000000008000000000000000000000000000000002000000000000000000000000000000000000000000000000000000000000040000000000000000000000000000000000000000000000040000000000000000000000000000",
      "type": "0x2",
      "transactionHash": "0xa72e4e488de8e8b4a2e484ed7de98d9ea996ec752d1bf20b96b72b58c22d3afe",
      "transactionIndex": "0x4",
      "blockHash": "0x9d71768b442a2ea1297fc9b5ee8e85773378ccbc12cd687590508d58af3234c1",
      "blockNumber": "0xe4a3e0",
      "gasUsed": "0xb993",
      "effectiveGasPrice": "0x4fe3df",
      "from": "0x6680dfd1c6a4867476b2e60da89354ac93272878",
      "to": "0x11208843dd830377259f754155a013098ae81fea",
      "contractAddress": null,
      "l1BaseFeeScalar": "0x44d",
      "l1BlobBaseFee": "0x535f4d983",
      "l1BlobBaseFeeScalar": "0xa118b",
      "l1Fee": "0x157fdaddd01",
      "l1GasPrice": "0x16f35b7c",
      "l1GasUsed": "0x640"
    },
    {
      "status": "0x1",
      "cumulativeGasUsed": "0x111464",
      "logs": [],
      "logsBloom": "0x00000000000000000000000000000000000000000000000000000000000000000000000000000000000000000000000000000000000000000000000000000000000000000000000000000000000000000000000000000000000000000000000000000000000000000000000000000000000000000000000000000000000000000000000000000000000000000000000000000000000000000000000000000000000000000000000000000000000000000000000000000000000000000000000000000000000000000000000000000000000000000000000000000000000000000000000000000000000000000000000000000000000000000000000000000000",
      "type": "0x2",
      "transactionHash": "0x20324171f85062b34f9f285b9acb8830ade88553667b780d1cff4dd180cf8264",
      "transactionIndex": "0x5",
      "blockHash": "0x9d71768b442a2ea1297fc9b5ee8e85773378ccbc12cd687590508d58af3234c1",
      "blockNumber": "0xe4a3e0",
      "gasUsed": "0xb412",
      "effectiveGasPrice": "0x4fe3df",
      "from": "0x6680dfd1c6a4867476b2e60da89354ac93272878",
      "to": "0x11208843dd830377259f754155a013098ae81fea",
      "contractAddress": null,
      "l1BaseFeeScalar": "0x44d",
      "l1BlobBaseFee": "0x535f4d983",
      "l1BlobBaseFeeScalar": "0xa118b",
      "l1Fee": "0x157fdaddd01",
      "l1GasPrice": "0x16f35b7c",
      "l1GasUsed": "0x640"
    }
  ],
  "libraries": [],
  "pending": [],
  "returns": {},
  "timestamp": 1725736614,
  "chain": 84532,
  "commit": "67fd3b7"
}