{
  "transactions": [
    {
      "hash": "0x88a3a9c458c1614b5cb82464775ae9c2827931f2fc48ed1144ad91cc4f05940a",
      "transactionType": "CALL",
      "contractName": null,
      "contractAddress": "0x868aa7e6a8c5b594e4c142b3c139c50ef0007920",
      "function": "setPeer(uint32,bytes32)",
      "arguments": [
        "40232",
        "0x0000000000000000000000004bbb9b855fe1e7ffbb283969d210c3841aed8076"
      ],
      "transaction": {
        "from": "0xb0efd2b19a5698a9c830548ac22708a28c9d4552",
        "to": "0x868aa7e6a8c5b594e4c142b3c139c50ef0007920",
        "gas": "0x10f87",
        "value": "0x0",
        "input": "0x3400288b0000000000000000000000000000000000000000000000000000000000009d280000000000000000000000004bbb9b855fe1e7ffbb283969d210c3841aed8076",
        "nonce": "0xa8",
        "chainId": "0x14a34"
      },
      "additionalContracts": [],
      "isFixedGasLimit": false
    },
    {
      "hash": "0x1f8216e20cd607ec9ef2bcb4ce49ce4e3233e80424a588fcdd5f6a8c47dad3d6",
      "transactionType": "CALL",
      "contractName": null,
      "contractAddress": "0x868aa7e6a8c5b594e4c142b3c139c50ef0007920",
      "function": "setComposerEid(uint32)",
      "arguments": [
        "40232"
      ],
      "transaction": {
        "from": "0xb0efd2b19a5698a9c830548ac22708a28c9d4552",
        "to": "0x868aa7e6a8c5b594e4c142b3c139c50ef0007920",
        "gas": "0xf96e",
        "value": "0x0",
        "input": "0xd30fce920000000000000000000000000000000000000000000000000000000000009d28",
        "nonce": "0xa9",
        "chainId": "0x14a34"
      },
      "additionalContracts": [],
      "isFixedGasLimit": false
    }
  ],
  "receipts": [
    {
      "status": "0x1",
      "cumulativeGasUsed": "0x43e7c3",
      "logs": [
        {
          "address": "0x868aa7e6a8c5b594e4c142b3c139c50ef0007920",
          "topics": [
            "0x238399d427b947898edb290f5ff0f9109849b1c3ba196a42e35f00c50a54b98b"
          ],
          "data": "0x0000000000000000000000000000000000000000000000000000000000009d280000000000000000000000004bbb9b855fe1e7ffbb283969d210c3841aed8076",
          "blockHash": "0xa1801b4a7667913c3a152ca1954866d93de7bdd251a7171f7ebc68fd23cba2c8",
          "blockNumber": "0xe3f572",
          "transactionHash": "0x88a3a9c458c1614b5cb82464775ae9c2827931f2fc48ed1144ad91cc4f05940a",
          "transactionIndex": "0xa",
          "logIndex": "0x4a",
          "removed": false
        }
      ],
      "logsBloom": "0x00000000000000000000000000000000000000000000000000000000000000000000000000000000000000000000000000000000000000000800000000000000000000000000000000000000000000000000000000000000000000000000000000000000080000000000000000000000000000000000000000000000000000000000000000000000000000000000000000000000000000000000000000000000000000000000000002000000000000000000000000000000000002000000000000000000000000004000000000000000000000000000000000040000000000000000000000000000000000000000000000000000000000000000000000000000",
      "type": "0x2",
      "transactionHash": "0x88a3a9c458c1614b5cb82464775ae9c2827931f2fc48ed1144ad91cc4f05940a",
      "transactionIndex": "0xa",
      "blockHash": "0xa1801b4a7667913c3a152ca1954866d93de7bdd251a7171f7ebc68fd23cba2c8",
      "blockNumber": "0xe3f572",
      "gasUsed": "0xb9a9",
      "effectiveGasPrice": "0xa0f7ac",
      "from": "0xb0efd2b19a5698a9c830548ac22708a28c9d4552",
      "to": "0x868aa7e6a8c5b594e4c142b3c139c50ef0007920",
      "contractAddress": null,
      "l1BaseFeeScalar": "0x44d",
      "l1BlobBaseFee": "0x29be853273",
      "l1BlobBaseFeeScalar": "0xa118b",
      "l1Fee": "0xac6e72c6c83",
      "l1GasPrice": "0x2805cd585",
      "l1GasUsed": "0x640"
    },
    {
      "status": "0x1",
      "cumulativeGasUsed": "0x449c59",
      "logs": [],
      "logsBloom": "0x00000000000000000000000000000000000000000000000000000000000000000000000000000000000000000000000000000000000000000000000000000000000000000000000000000000000000000000000000000000000000000000000000000000000000000000000000000000000000000000000000000000000000000000000000000000000000000000000000000000000000000000000000000000000000000000000000000000000000000000000000000000000000000000000000000000000000000000000000000000000000000000000000000000000000000000000000000000000000000000000000000000000000000000000000000000",
      "type": "0x2",
      "transactionHash": "0x1f8216e20cd607ec9ef2bcb4ce49ce4e3233e80424a588fcdd5f6a8c47dad3d6",
      "transactionIndex": "0xb",
      "blockHash": "0xa1801b4a7667913c3a152ca1954866d93de7bdd251a7171f7ebc68fd23cba2c8",
      "blockNumber": "0xe3f572",
      "gasUsed": "0xb496",
      "effectiveGasPrice": "0xa0f7ac",
      "from": "0xb0efd2b19a5698a9c830548ac22708a28c9d4552",
      "to": "0x868aa7e6a8c5b594e4c142b3c139c50ef0007920",
      "contractAddress": null,
      "l1BaseFeeScalar": "0x44d",
      "l1BlobBaseFee": "0x29be853273",
      "l1BlobBaseFeeScalar": "0xa118b",
      "l1Fee": "0xac6e72c6c83",
      "l1GasPrice": "0x2805cd585",
      "l1GasUsed": "0x640"
    }
  ],
  "libraries": [],
  "pending": [],
  "returns": {},
  "timestamp": 1725647307,
  "chain": 84532,
  "commit": "37e882d"
}