{
  "transactions": [
    {
      "hash": "0x846da45364c2d2afa34807d7d0f951280f6a5a52319b9b9d035cc1cf40ca3627",
      "transactionType": "CALL",
      "contractName": null,
      "contractAddress": "0x2a17c4869fc313082a4a8b8f19c1950720f767a5",
      "function": "setPeer(uint32,bytes32)",
      "arguments": [
        "40232",
        "0x000000000000000000000000f2594001eb8183923a9a21ca5868e65318000ae5"
      ],
      "transaction": {
        "from": "0x12b2434a1022d5787bf06056f2885fe35de62bf8",
        "to": "0x2a17c4869fc313082a4a8b8f19c1950720f767a5",
        "gas": "0x1005f",
        "value": "0x0",
        "input": "0x3400288b0000000000000000000000000000000000000000000000000000000000009d28000000000000000000000000f2594001eb8183923a9a21ca5868e65318000ae5",
        "nonce": "0xe5",
        "chainId": "0x14a34"
      },
      "additionalContracts": [],
      "isFixedGasLimit": false
    },
    {
      "hash": "0xe2be9241198886e576a10db1a116689ce3f5e4dcd6047a0eba2267ce636ccf56",
      "transactionType": "CALL",
      "contractName": null,
      "contractAddress": "0x2a17c4869fc313082a4a8b8f19c1950720f767a5",
      "function": "setComposerEid(uint32)",
      "arguments": [
        "40232"
      ],
      "transaction": {
        "from": "0x12b2434a1022d5787bf06056f2885fe35de62bf8",
        "to": "0x2a17c4869fc313082a4a8b8f19c1950720f767a5",
        "gas": "0xf98c",
        "value": "0x0",
        "input": "0xd30fce920000000000000000000000000000000000000000000000000000000000009d28",
        "nonce": "0xe6",
        "chainId": "0x14a34"
      },
      "additionalContracts": [],
      "isFixedGasLimit": false
    }
  ],
  "receipts": [
    {
      "status": "0x1",
      "cumulativeGasUsed": "0x34ca75",
      "logs": [
        {
          "address": "0x2a17c4869fc313082a4a8b8f19c1950720f767a5",
          "topics": [
            "0x238399d427b947898edb290f5ff0f9109849b1c3ba196a42e35f00c50a54b98b"
          ],
          "data": "0x0000000000000000000000000000000000000000000000000000000000009d28000000000000000000000000f2594001eb8183923a9a21ca5868e65318000ae5",
          "blockHash": "0x069cd242c6da8a92b0d7cdffc9d1922202cf498a3257e066169df745fa1bc91c",
          "blockNumber": "0xe3ea94",
          "transactionHash": "0x846da45364c2d2afa34807d7d0f951280f6a5a52319b9b9d035cc1cf40ca3627",
          "transactionIndex": "0xa",
          "logIndex": "0x2b",
          "removed": false
        }
      ],
      "logsBloom": "0x00000000000000000000000000000000000000000000000000000000000000000000000000000000000000000000000000000000000000000800000000000000000000000000000000000000000000000000000000000000000000800000000000000000000000000000000000000000000000000000000000000000000000000000000000000000000000000000000000000000000000000000000000000000000000000000000400000000000000000000000000000000000002000000000000000000000000000000000000000000000000000000000000040000000000000000000000000000000000000000000008000000000000000000000000000000",
      "type": "0x2",
      "transactionHash": "0x846da45364c2d2afa34807d7d0f951280f6a5a52319b9b9d035cc1cf40ca3627",
      "transactionIndex": "0xa",
      "blockHash": "0x069cd242c6da8a92b0d7cdffc9d1922202cf498a3257e066169df745fa1bc91c",
      "blockNumber": "0xe3ea94",
      "gasUsed": "0xb99d",
      "effectiveGasPrice": "0x9850fc",
      "from": "0x12b2434a1022d5787bf06056f2885fe35de62bf8",
      "to": "0x2a17c4869fc313082a4a8b8f19c1950720f767a5",
      "contractAddress": null,
      "l1BaseFeeScalar": "0x44d",
      "l1BlobBaseFee": "0x825681fe2d",
      "l1BlobBaseFeeScalar": "0xa118b",
      "l1Fee": "0x21a8ba1c1344",
      "l1GasPrice": "0x94a61a9dd",
      "l1GasUsed": "0x640"
    },
    {
      "status": "0x1",
      "cumulativeGasUsed": "0x357f21",
      "logs": [],
      "logsBloom": "0x00000000000000000000000000000000000000000000000000000000000000000000000000000000000000000000000000000000000000000000000000000000000000000000000000000000000000000000000000000000000000000000000000000000000000000000000000000000000000000000000000000000000000000000000000000000000000000000000000000000000000000000000000000000000000000000000000000000000000000000000000000000000000000000000000000000000000000000000000000000000000000000000000000000000000000000000000000000000000000000000000000000000000000000000000000000",
      "type": "0x2",
      "transactionHash": "0xe2be9241198886e576a10db1a116689ce3f5e4dcd6047a0eba2267ce636ccf56",
      "transactionIndex": "0xb",
      "blockHash": "0x069cd242c6da8a92b0d7cdffc9d1922202cf498a3257e066169df745fa1bc91c",
      "blockNumber": "0xe3ea94",
      "gasUsed": "0xb4ac",
      "effectiveGasPrice": "0x9850fc",
      "from": "0x12b2434a1022d5787bf06056f2885fe35de62bf8",
      "to": "0x2a17c4869fc313082a4a8b8f19c1950720f767a5",
      "contractAddress": null,
      "l1BaseFeeScalar": "0x44d",
      "l1BlobBaseFee": "0x825681fe2d",
      "l1BlobBaseFeeScalar": "0xa118b",
      "l1Fee": "0x21a8ba1c1344",
      "l1GasPrice": "0x94a61a9dd",
      "l1GasUsed": "0x640"
    }
  ],
  "libraries": [],
  "pending": [],
  "returns": {},
  "timestamp": 1725641744,
  "chain": 84532,
  "commit": "dc78ae4"
}