{
  "transactions": [
    {
      "hash": "0xc46566077e05995b9e73b111c43f56c17252f87f66b5d8bfcee5410ae155fc83",
      "transactionType": "CALL",
      "contractName": null,
      "contractAddress": "0x4f395890169559fdebe3f6da8822e86aa7ef390f",
      "function": "setPeer(uint32,bytes32)",
      "arguments": [
        "40232",
        "0x0000000000000000000000009059f80ef69c1b54b76a4f66a9df1745637600aa"
      ],
      "transaction": {
        "from": "0xb0efd2b19a5698a9c830548ac22708a28c9d4552",
        "to": "0x4f395890169559fdebe3f6da8822e86aa7ef390f",
        "gas": "0x1005f",
        "value": "0x0",
        "input": "0x3400288b0000000000000000000000000000000000000000000000000000000000009d280000000000000000000000009059f80ef69c1b54b76a4f66a9df1745637600aa",
        "nonce": "0xaf",
        "chainId": "0x14a34"
      },
      "additionalContracts": [],
      "isFixedGasLimit": false
    },
    {
      "hash": "0x4eb19bd281cfc9a70898276c071c3a3ee54be9ac517a6ce5b56ad29a80df1a94",
      "transactionType": "CALL",
      "contractName": null,
      "contractAddress": "0x4f395890169559fdebe3f6da8822e86aa7ef390f",
      "function": "setComposerEid(uint32)",
      "arguments": [
        "40232"
      ],
      "transaction": {
        "from": "0xb0efd2b19a5698a9c830548ac22708a28c9d4552",
        "to": "0x4f395890169559fdebe3f6da8822e86aa7ef390f",
        "gas": "0xf96e",
        "value": "0x0",
        "input": "0xd30fce920000000000000000000000000000000000000000000000000000000000009d28",
        "nonce": "0xb0",
        "chainId": "0x14a34"
      },
      "additionalContracts": [],
      "isFixedGasLimit": false
    }
  ],
  "receipts": [
    {
      "status": "0x1",
      "cumulativeGasUsed": "0xa44a8",
      "logs": [
        {
          "address": "0x4f395890169559fdebe3f6da8822e86aa7ef390f",
          "topics": [
            "0x238399d427b947898edb290f5ff0f9109849b1c3ba196a42e35f00c50a54b98b"
          ],
          "data": "0x0000000000000000000000000000000000000000000000000000000000009d280000000000000000000000009059f80ef69c1b54b76a4f66a9df1745637600aa",
          "blockHash": "0xd915208dcdc06048c7430f93eb6e52449b4c870dba24ef5f8894ac14d74b1bca",
          "blockNumber": "0xe3f777",
          "transactionHash": "0xc46566077e05995b9e73b111c43f56c17252f87f66b5d8bfcee5410ae155fc83",
          "transactionIndex": "0x3",
          "logIndex": "0x2",
          "removed": false
        }
      ],
      "logsBloom": "0x00000000000000000000000100000000000000000000000000000000000000000000000000000000000000000000000000001000000000000800000000000000000000000000000000000000000000000000000000000000000000000000000000000000000000000000000000000001000000000000000000000000000000000000000000000000000000000000000000000000000000000000000000000000000000000000000000000000000000000000000000000000000002000000000000000000000000000000000000000000000000000000000000040000000000000000000000000000000000000000000000000000000000000000000000000000",
      "type": "0x2",
      "transactionHash": "0xc46566077e05995b9e73b111c43f56c17252f87f66b5d8bfcee5410ae155fc83",
      "transactionIndex": "0x3",
      "blockHash": "0xd915208dcdc06048c7430f93eb6e52449b4c870dba24ef5f8894ac14d74b1bca",
      "blockNumber": "0xe3f777",
      "gasUsed": "0xb99d",
      "effectiveGasPrice": "0x908423",
      "from": "0xb0efd2b19a5698a9c830548ac22708a28c9d4552",
      "to": "0x4f395890169559fdebe3f6da8822e86aa7ef390f",
      "contractAddress": null,
      "l1BaseFeeScalar": "0x44d",
      "l1BlobBaseFee": "0x30d7bb9b75",
      "l1BlobBaseFeeScalar": "0xa118b",
      "l1Fee": "0xc99ee3e9474",
      "l1GasPrice": "0x1b9bf62e4",
      "l1GasUsed": "0x640"
    },
    {
      "status": "0x1",
      "cumulativeGasUsed": "0xaf93e",
      "logs": [],
      "logsBloom": "0x00000000000000000000000000000000000000000000000000000000000000000000000000000000000000000000000000000000000000000000000000000000000000000000000000000000000000000000000000000000000000000000000000000000000000000000000000000000000000000000000000000000000000000000000000000000000000000000000000000000000000000000000000000000000000000000000000000000000000000000000000000000000000000000000000000000000000000000000000000000000000000000000000000000000000000000000000000000000000000000000000000000000000000000000000000000",
      "type": "0x2",
      "transactionHash": "0x4eb19bd281cfc9a70898276c071c3a3ee54be9ac517a6ce5b56ad29a80df1a94",
      "transactionIndex": "0x4",
      "blockHash": "0xd915208dcdc06048c7430f93eb6e52449b4c870dba24ef5f8894ac14d74b1bca",
      "blockNumber": "0xe3f777",
      "gasUsed": "0xb496",
      "effectiveGasPrice": "0x908423",
      "from": "0xb0efd2b19a5698a9c830548ac22708a28c9d4552",
      "to": "0x4f395890169559fdebe3f6da8822e86aa7ef390f",
      "contractAddress": null,
      "l1BaseFeeScalar": "0x44d",
      "l1BlobBaseFee": "0x30d7bb9b75",
      "l1BlobBaseFeeScalar": "0xa118b",
      "l1Fee": "0xc99ee3e9474",
      "l1GasPrice": "0x1b9bf62e4",
      "l1GasUsed": "0x640"
    }
  ],
  "libraries": [],
  "pending": [],
  "returns": {},
  "timestamp": 1725648340,
  "chain": 84532,
  "commit": "37e882d"
}