{
  "transactions": [
    {
      "hash": "0xd8a0feb2bbc35c13fd30b78ec259b826c91effda90529ced4bf6f9d4436ced47",
      "transactionType": "CALL",
      "contractName": null,
      "contractAddress": "0x77c2247f13a9e2640b1c362426546216451c288f",
      "function": "setPeer(uint32,bytes32)",
      "arguments": [
        "40232",
        "0x00000000000000000000000014636fe21e5ab1071768218ce59358d238462212"
      ],
      "transaction": {
        "from": "0x12b2434a1022d5787bf06056f2885fe35de62bf8",
        "to": "0x77c2247f13a9e2640b1c362426546216451c288f",
        "gas": "0x10f87",
        "value": "0x0",
        "input": "0x3400288b0000000000000000000000000000000000000000000000000000000000009d2800000000000000000000000014636fe21e5ab1071768218ce59358d238462212",
        "nonce": "0xcd",
        "chainId": "0x14a34"
      },
      "additionalContracts": [],
      "isFixedGasLimit": false
    },
    {
      "hash": "0x6a7c986d9b33629c3d6bd5c6a708a8929d384f7a6c9fbe491b5cba2eac2bd46d",
      "transactionType": "CALL",
      "contractName": null,
      "contractAddress": "0x77c2247f13a9e2640b1c362426546216451c288f",
      "function": "setComposerEid(uint32)",
      "arguments": [
        "40232"
      ],
      "transaction": {
        "from": "0x12b2434a1022d5787bf06056f2885fe35de62bf8",
        "to": "0x77c2247f13a9e2640b1c362426546216451c288f",
        "gas": "0xf96e",
        "value": "0x0",
        "input": "0xd30fce920000000000000000000000000000000000000000000000000000000000009d28",
        "nonce": "0xce",
        "chainId": "0x14a34"
      },
      "additionalContracts": [],
      "isFixedGasLimit": false
    }
  ],
  "receipts": [
    {
      "status": "0x1",
      "cumulativeGasUsed": "0x1c0720",
      "logs": [
        {
          "address": "0x77c2247f13a9e2640b1c362426546216451c288f",
          "topics": [
            "0x238399d427b947898edb290f5ff0f9109849b1c3ba196a42e35f00c50a54b98b"
          ],
          "data": "0x0000000000000000000000000000000000000000000000000000000000009d2800000000000000000000000014636fe21e5ab1071768218ce59358d238462212",
          "blockHash": "0x3eb4a3184383b40f3b4d1ab350e22475bb517033a144e49f5a6247142f7352fa",
          "blockNumber": "0xe3d893",
          "transactionHash": "0xd8a0feb2bbc35c13fd30b78ec259b826c91effda90529ced4bf6f9d4436ced47",
          "transactionIndex": "0x7",
          "logIndex": "0x1c",
          "removed": false
        }
      ],
      "logsBloom": "0x00000000000000000000000000000000200000000000000000000000000000000000000000000000000000000000000000000000000000000800000000000000000000000000000000000000000000000000000000000000000000000000000000000000000000400000000000000000000000000000000000000000000000000000000000000000000000000000000000000000000000000000000000000000000000000000000000000000000000000000000000000000000002000000000000000000000000000000000000000000000000000000000800040000000000000000000000000000000000000000000000000000000000000000000000000000",
      "type": "0x2",
      "transactionHash": "0xd8a0feb2bbc35c13fd30b78ec259b826c91effda90529ced4bf6f9d4436ced47",
      "transactionIndex": "0x7",
      "blockHash": "0x3eb4a3184383b40f3b4d1ab350e22475bb517033a144e49f5a6247142f7352fa",
      "blockNumber": "0xe3d893",
      "gasUsed": "0xb9a9",
      "effectiveGasPrice": "0x93f246",
      "from": "0x12b2434a1022d5787bf06056f2885fe35de62bf8",
      "to": "0x77c2247f13a9e2640b1c362426546216451c288f",
      "contractAddress": null,
      "l1BaseFeeScalar": "0x44d",
      "l1BlobBaseFee": "0xfe0f2f01d8",
      "l1BlobBaseFeeScalar": "0xa118b",
      "l1Fee": "0x4186a40fd584",
      "l1GasPrice": "0x5f79a8acd",
      "l1GasUsed": "0x640"
    },
    {
      "status": "0x1",
      "cumulativeGasUsed": "0x1cbbb6",
      "logs": [],
      "logsBloom": "0x00000000000000000000000000000000000000000000000000000000000000000000000000000000000000000000000000000000000000000000000000000000000000000000000000000000000000000000000000000000000000000000000000000000000000000000000000000000000000000000000000000000000000000000000000000000000000000000000000000000000000000000000000000000000000000000000000000000000000000000000000000000000000000000000000000000000000000000000000000000000000000000000000000000000000000000000000000000000000000000000000000000000000000000000000000000",
      "type": "0x2",
      "transactionHash": "0x6a7c986d9b33629c3d6bd5c6a708a8929d384f7a6c9fbe491b5cba2eac2bd46d",
      "transactionIndex": "0x8",
      "blockHash": "0x3eb4a3184383b40f3b4d1ab350e22475bb517033a144e49f5a6247142f7352fa",
      "blockNumber": "0xe3d893",
      "gasUsed": "0xb496",
      "effectiveGasPrice": "0x93f246",
      "from": "0x12b2434a1022d5787bf06056f2885fe35de62bf8",
      "to": "0x77c2247f13a9e2640b1c362426546216451c288f",
      "contractAddress": null,
      "l1BaseFeeScalar": "0x44d",
      "l1BlobBaseFee": "0xfe0f2f01d8",
      "l1BlobBaseFeeScalar": "0xa118b",
      "l1Fee": "0x4186a40fd584",
      "l1GasPrice": "0x5f79a8acd",
      "l1GasUsed": "0x640"
    }
  ],
  "libraries": [],
  "pending": [],
  "returns": {},
  "timestamp": 1725632524,
  "chain": 84532,
  "commit": "dc78ae4"
}