{
  "transactions": [
    {
      "hash": "0x42d38be75e2484c9f92742d5a6bf7f41828643e9ce368e189e12b7272a05e57f",
      "transactionType": "CALL",
      "contractName": null,
      "contractAddress": "0xbd3f14bb6ebe6833c8ee5fc69730d803923d2f1c",
      "function": "setPeer(uint32,bytes32)",
      "arguments": [
        "40232",
        "0x00000000000000000000000032c3ff2525706a5425ab000b05dcdff561ff8c58"
      ],
      "transaction": {
        "from": "0x12b2434a1022d5787bf06056f2885fe35de62bf8",
        "to": "0xbd3f14bb6ebe6833c8ee5fc69730d803923d2f1c",
        "gas": "0x10041",
        "value": "0x0",
        "input": "0x3400288b0000000000000000000000000000000000000000000000000000000000009d2800000000000000000000000032c3ff2525706a5425ab000b05dcdff561ff8c58",
        "nonce": "0x108",
        "chainId": "0x14a34"
      },
      "additionalContracts": [],
      "isFixedGasLimit": false
    },
    {
      "hash": "0x5cc385c8841f8097502a9fbed2a0b2ee164f77f574f322e0f1272db238ea8787",
      "transactionType": "CALL",
      "contractName": null,
      "contractAddress": "0xbd3f14bb6ebe6833c8ee5fc69730d803923d2f1c",
      "function": "setComposerFirstEid(uint32)",
      "arguments": [
        "40232"
      ],
      "transaction": {
        "from": "0x12b2434a1022d5787bf06056f2885fe35de62bf8",
        "to": "0xbd3f14bb6ebe6833c8ee5fc69730d803923d2f1c",
        "gas": "0x1075a",
        "value": "0x0",
        "input": "0xba44879f0000000000000000000000000000000000000000000000000000000000009d28",
        "nonce": "0x109",
        "chainId": "0x14a34"
      },
      "additionalContracts": [],
      "isFixedGasLimit": false
    }
  ],
  "receipts": [
    {
      "status": "0x1",
      "cumulativeGasUsed": "0x16f1b8",
      "logs": [
        {
          "address": "0xbd3f14bb6ebe6833c8ee5fc69730d803923d2f1c",
          "topics": [
            "0x238399d427b947898edb290f5ff0f9109849b1c3ba196a42e35f00c50a54b98b"
          ],
          "data": "0x0000000000000000000000000000000000000000000000000000000000009d2800000000000000000000000032c3ff2525706a5425ab000b05dcdff561ff8c58",
          "blockHash": "0xf4b454be9449c5dfda7f12d6b7ac329ea82bd926ac329c62cc9e673b76fff9aa",
          "blockNumber": "0xe49c1f",
          "transactionHash": "0x42d38be75e2484c9f92742d5a6bf7f41828643e9ce368e189e12b7272a05e57f",
          "transactionIndex": "0xc",
          "logIndex": "0x24",
          "removed": false
        }
      ],
      "logsBloom": "0x00000000000000000000000000000000000000000000000000000000000000000000000000000000000000000000000000000000000000000800000000000000000000000000000000000000000001000000000000000000000000000000000000000000000000000000000000000000000000000000000000400000000000000000000000000000000000000000000000000000000000000000000000000000000000000000000000000000000000000000000000000000000002000000000000000000000000000000004000000000000000000000000000040000000000000000000000000000000000000000000000000000000000000000000000000000",
      "type": "0x2",
      "transactionHash": "0x42d38be75e2484c9f92742d5a6bf7f41828643e9ce368e189e12b7272a05e57f",
      "transactionIndex": "0xc",
      "blockHash": "0xf4b454be9449c5dfda7f12d6b7ac329ea82bd926ac329c62cc9e673b76fff9aa",
      "blockNumber": "0xe49c1f",
      "gasUsed": "0xb987",
      "effectiveGasPrice": "0x6bb99d",
      "from": "0x12b2434a1022d5787bf06056f2885fe35de62bf8",
      "to": "0xbd3f14bb6ebe6833c8ee5fc69730d803923d2f1c",
      "contractAddress": null,
      "l1BaseFeeScalar": "0x44d",
      "l1BlobBaseFee": "0x190eaf73cf",
      "l1BlobBaseFeeScalar": "0xa118b",
      "l1Fee": "0x676f9c912d7",
      "l1GasPrice": "0xe323edf1",
      "l1GasUsed": "0x640"
    },
    {
      "status": "0x1",
      "cumulativeGasUsed": "0x17a5ca",
      "logs": [],
      "logsBloom": "0x00000000000000000000000000000000000000000000000000000000000000000000000000000000000000000000000000000000000000000000000000000000000000000000000000000000000000000000000000000000000000000000000000000000000000000000000000000000000000000000000000000000000000000000000000000000000000000000000000000000000000000000000000000000000000000000000000000000000000000000000000000000000000000000000000000000000000000000000000000000000000000000000000000000000000000000000000000000000000000000000000000000000000000000000000000000",
      "type": "0x2",
      "transactionHash": "0x5cc385c8841f8097502a9fbed2a0b2ee164f77f574f322e0f1272db238ea8787",
      "transactionIndex": "0xd",
      "blockHash": "0xf4b454be9449c5dfda7f12d6b7ac329ea82bd926ac329c62cc9e673b76fff9aa",
      "blockNumber": "0xe49c1f",
      "gasUsed": "0xb412",
      "effectiveGasPrice": "0x6bb99d",
      "from": "0x12b2434a1022d5787bf06056f2885fe35de62bf8",
      "to": "0xbd3f14bb6ebe6833c8ee5fc69730d803923d2f1c",
      "contractAddress": null,
      "l1BaseFeeScalar": "0x44d",
      "l1BlobBaseFee": "0x190eaf73cf",
      "l1BlobBaseFeeScalar": "0xa118b",
      "l1Fee": "0x676f9c912d7",
      "l1GasPrice": "0xe323edf1",
      "l1GasUsed": "0x640"
    }
  ],
  "libraries": [],
  "pending": [],
  "returns": {},
  "timestamp": 1725732645,
  "chain": 84532,
  "commit": "67fd3b7"
}