{
  "transactions": [
    {
      "hash": "0xd43a900ac4c74ea5b3873a9b55e9321b8b592f729122be5f3ae156475150e1fc",
      "transactionType": "CALL",
      "contractName": null,
      "contractAddress": "0x99375a951b5efd15e7af1436339e9d0d369ea00f",
      "function": "setPeer(uint32,bytes32)",
      "arguments": [
        "40232",
        "0x00000000000000000000000051aed1b696d630063f5f7c1733f3b429c92f9465"
      ],
      "transaction": {
        "from": "0x12b2434a1022d5787bf06056f2885fe35de62bf8",
        "to": "0x99375a951b5efd15e7af1436339e9d0d369ea00f",
        "gas": "0x10f87",
        "value": "0x0",
        "input": "0x3400288b0000000000000000000000000000000000000000000000000000000000009d2800000000000000000000000051aed1b696d630063f5f7c1733f3b429c92f9465",
        "nonce": "0xdf",
        "chainId": "0x14a34"
      },
      "additionalContracts": [],
      "isFixedGasLimit": false
    },
    {
      "hash": "0x7aec93279ecae56670547ce2fe886ee1de95797c1dedc75b91c323d5c5b240e1",
      "transactionType": "CALL",
      "contractName": null,
      "contractAddress": "0x99375a951b5efd15e7af1436339e9d0d369ea00f",
      "function": "setComposerEid(uint32)",
      "arguments": [
        "40232"
      ],
      "transaction": {
        "from": "0x12b2434a1022d5787bf06056f2885fe35de62bf8",
        "to": "0x99375a951b5efd15e7af1436339e9d0d369ea00f",
        "gas": "0xf98c",
        "value": "0x0",
        "input": "0xd30fce920000000000000000000000000000000000000000000000000000000000009d28",
        "nonce": "0xe0",
        "chainId": "0x14a34"
      },
      "additionalContracts": [],
      "isFixedGasLimit": false
    }
  ],
  "receipts": [
    {
      "status": "0x1",
      "cumulativeGasUsed": "0x23e8d5",
      "logs": [
        {
          "address": "0x99375a951b5efd15e7af1436339e9d0d369ea00f",
          "topics": [
            "0x238399d427b947898edb290f5ff0f9109849b1c3ba196a42e35f00c50a54b98b"
          ],
          "data": "0x0000000000000000000000000000000000000000000000000000000000009d2800000000000000000000000051aed1b696d630063f5f7c1733f3b429c92f9465",
          "blockHash": "0x08dbcda8ca0ea968b380ca8248da35b4510ac03f0ea752ecbce8783ac1baa387",
          "blockNumber": "0xe3e7d5",
          "transactionHash": "0xd43a900ac4c74ea5b3873a9b55e9321b8b592f729122be5f3ae156475150e1fc",
          "transactionIndex": "0xa",
          "logIndex": "0x20",
          "removed": false
        }
      ],
      "logsBloom": "0x00000000000000000000000000000000000000000000000000000000000000000000000000000000000000000000000100000000000000000800000000000000000000000000000000000000000000000000000000000000000000000000000000000000000000000000000000000000000000000000000000000000000000000000000000000000000000000000000000000000000000000000000000000000000000000000000000000000800000000020000000000000000002000000000000000000000000000000000000000000000000000000000000040000000000000000000000000000000000000000000000000000000000000000000000000000",
      "type": "0x2",
      "transactionHash": "0xd43a900ac4c74ea5b3873a9b55e9321b8b592f729122be5f3ae156475150e1fc",
      "transactionIndex": "0xa",
      "blockHash": "0x08dbcda8ca0ea968b380ca8248da35b4510ac03f0ea752ecbce8783ac1baa387",
      "blockNumber": "0xe3e7d5",
      "gasUsed": "0xb9a9",
      "effectiveGasPrice": "0x93c029",
      "from": "0x12b2434a1022d5787bf06056f2885fe35de62bf8",
      "to": "0x99375a951b5efd15e7af1436339e9d0d369ea00f",
      "contractAddress": null,
      "l1BaseFeeScalar": "0x44d",
      "l1BlobBaseFee": "0x73db1e1bf1",
      "l1BlobBaseFeeScalar": "0xa118b",
      "l1Fee": "0x1dee8fdc1f4c",
      "l1GasPrice": "0xa1a4ba74d",
      "l1GasUsed": "0x640"
    },
    {
      "status": "0x1",
      "cumulativeGasUsed": "0x249d81",
      "logs": [],
      "logsBloom": "0x00000000000000000000000000000000000000000000000000000000000000000000000000000000000000000000000000000000000000000000000000000000000000000000000000000000000000000000000000000000000000000000000000000000000000000000000000000000000000000000000000000000000000000000000000000000000000000000000000000000000000000000000000000000000000000000000000000000000000000000000000000000000000000000000000000000000000000000000000000000000000000000000000000000000000000000000000000000000000000000000000000000000000000000000000000000",
      "type": "0x2",
      "transactionHash": "0x7aec93279ecae56670547ce2fe886ee1de95797c1dedc75b91c323d5c5b240e1",
      "transactionIndex": "0xb",
      "blockHash": "0x08dbcda8ca0ea968b380ca8248da35b4510ac03f0ea752ecbce8783ac1baa387",
      "blockNumber": "0xe3e7d5",
      "gasUsed": "0xb4ac",
      "effectiveGasPrice": "0x93c029",
      "from": "0x12b2434a1022d5787bf06056f2885fe35de62bf8",
      "to": "0x99375a951b5efd15e7af1436339e9d0d369ea00f",
      "contractAddress": null,
      "l1BaseFeeScalar": "0x44d",
      "l1BlobBaseFee": "0x73db1e1bf1",
      "l1BlobBaseFeeScalar": "0xa118b",
      "l1Fee": "0x1dee8fdc1f4c",
      "l1GasPrice": "0xa1a4ba74d",
      "l1GasUsed": "0x640"
    }
  ],
  "libraries": [],
  "pending": [],
  "returns": {},
  "timestamp": 1725640338,
  "chain": 84532,
  "commit": "dc78ae4"
}