{
  "transactions": [
    {
      "hash": "0xa0852a2d1c953b38cfffdb30cdaa9d8645874800c9e20eba8551cc75884b2253",
      "transactionType": "CALL",
      "contractName": null,
      "contractAddress": "0x053d81199c95e265f2e369e4afc4b30eb8b228c3",
      "function": "setPeer(uint32,bytes32)",
      "arguments": [
        "40285",
        "0x000000000000000000000000330b96b0153ec84a9d5b27a7a7e7047f9c898717"
      ],
      "transaction": {
        "from": "0xb0efd2b19a5698a9c830548ac22708a28c9d4552",
        "to": "0x053d81199c95e265f2e369e4afc4b30eb8b228c3",
        "gas": "0x10f87",
        "value": "0x0",
        "input": "0x3400288b0000000000000000000000000000000000000000000000000000000000009d5d000000000000000000000000330b96b0153ec84a9d5b27a7a7e7047f9c898717",
        "nonce": "0xb5",
        "chainId": "0x14a34"
      },
      "additionalContracts": [],
      "isFixedGasLimit": false
    },
    {
      "hash": "0xcf6c6e1a74d80218fd0c13402162ed4bafcf4b8c0f5979adb6e626dee4318821",
      "transactionType": "CALL",
      "contractName": null,
      "contractAddress": "0x053d81199c95e265f2e369e4afc4b30eb8b228c3",
      "function": "setComposerEid(uint32)",
      "arguments": [
        "40232"
      ],
      "transaction": {
        "from": "0xb0efd2b19a5698a9c830548ac22708a28c9d4552",
        "to": "0x053d81199c95e265f2e369e4afc4b30eb8b228c3",
        "gas": "0xf96e",
        "value": "0x0",
        "input": "0xd30fce920000000000000000000000000000000000000000000000000000000000009d28",
        "nonce": "0xb6",
        "chainId": "0x14a34"
      },
      "additionalContracts": [],
      "isFixedGasLimit": false
    }
  ],
  "receipts": [
    {
      "status": "0x1",
      "cumulativeGasUsed": "0x17afa7",
      "logs": [
        {
          "address": "0x053d81199c95e265f2e369e4afc4b30eb8b228c3",
          "topics": [
            "0x238399d427b947898edb290f5ff0f9109849b1c3ba196a42e35f00c50a54b98b"
          ],
          "data": "0x0000000000000000000000000000000000000000000000000000000000009d5d000000000000000000000000330b96b0153ec84a9d5b27a7a7e7047f9c898717",
          "blockHash": "0xd8233ef3ec5aabbe0f0e16211edb4616f213c1ebeb47d8b4bfcf0b6d90011777",
          "blockNumber": "0xe402c6",
          "transactionHash": "0xa0852a2d1c953b38cfffdb30cdaa9d8645874800c9e20eba8551cc75884b2253",
          "transactionIndex": "0xd",
          "logIndex": "0x19",
          "removed": false
        }
      ],
      "logsBloom": "0x00000000000000000000000000000000000000000000000000000000000000000000000000000000000000000000000000000000000000000800000000000000000000000000000000000000000000000000000000000000000000000000000000000000000000000000000000000000000000000000000000000000000000000000000000000000000000000000000000000000000000000000000000000000000000000000000000000000000000000000000000000000000002000000000000020000000000000000000000000000000000000000000000040002000000000000080000000000000000000000000000000000000000000000000000000000",
      "type": "0x2",
      "transactionHash": "0xa0852a2d1c953b38cfffdb30cdaa9d8645874800c9e20eba8551cc75884b2253",
      "transactionIndex": "0xd",
      "blockHash": "0xd8233ef3ec5aabbe0f0e16211edb4616f213c1ebeb47d8b4bfcf0b6d90011777",
      "blockNumber": "0xe402c6",
      "gasUsed": "0xb9a9",
      "effectiveGasPrice": "0x97cd7f",
      "from": "0xb0efd2b19a5698a9c830548ac22708a28c9d4552",
      "to": "0x053d81199c95e265f2e369e4afc4b30eb8b228c3",
      "contractAddress": null,
      "l1BaseFeeScalar": "0x44d",
      "l1BlobBaseFee": "0xd922ce0240",
      "l1BlobBaseFeeScalar": "0xa118b",
      "l1Fee": "0x37f81db2c1bc",
      "l1GasPrice": "0x36f792ed",
      "l1GasUsed": "0x640"
    },
    {
      "status": "0x1",
      "cumulativeGasUsed": "0x18643d",
      "logs": [],
      "logsBloom": "0x00000000000000000000000000000000000000000000000000000000000000000000000000000000000000000000000000000000000000000000000000000000000000000000000000000000000000000000000000000000000000000000000000000000000000000000000000000000000000000000000000000000000000000000000000000000000000000000000000000000000000000000000000000000000000000000000000000000000000000000000000000000000000000000000000000000000000000000000000000000000000000000000000000000000000000000000000000000000000000000000000000000000000000000000000000000",
      "type": "0x2",
      "transactionHash": "0xcf6c6e1a74d80218fd0c13402162ed4bafcf4b8c0f5979adb6e626dee4318821",
      "transactionIndex": "0xe",
      "blockHash": "0xd8233ef3ec5aabbe0f0e16211edb4616f213c1ebeb47d8b4bfcf0b6d90011777",
      "blockNumber": "0xe402c6",
      "gasUsed": "0xb496",
      "effectiveGasPrice": "0x97cd7f",
      "from": "0xb0efd2b19a5698a9c830548ac22708a28c9d4552",
      "to": "0x053d81199c95e265f2e369e4afc4b30eb8b228c3",
      "contractAddress": null,
      "l1BaseFeeScalar": "0x44d",
      "l1BlobBaseFee": "0xd922ce0240",
      "l1BlobBaseFeeScalar": "0xa118b",
      "l1Fee": "0x37f81db2c1bc",
      "l1GasPrice": "0x36f792ed",
      "l1GasUsed": "0x640"
    }
  ],
  "libraries": [],
  "pending": [],
  "returns": {},
  "timestamp": 1725654129,
  "chain": 84532,
  "commit": "37e882d"
}