{
  "transactions": [
    {
      "hash": "0x0638a6e5da635870d7714ebb61b6cb58740f5cf9b9ab5b6f03cefafdfc61d8c6",
      "transactionType": "CALL",
      "contractName": null,
      "contractAddress": "0x5500999e37499c94e216bc1d829164734a1bba5a",
      "function": "setPeer(uint32,bytes32)",
      "arguments": [
        "40232",
        "0x0000000000000000000000009edda1aa2dcf2f2177636994a5945f972dc6b99a"
      ],
      "transaction": {
        "from": "0x12b2434a1022d5787bf06056f2885fe35de62bf8",
        "to": "0x5500999e37499c94e216bc1d829164734a1bba5a",
        "gas": "0x10f87",
        "value": "0x0",
        "input": "0x3400288b0000000000000000000000000000000000000000000000000000000000009d280000000000000000000000009edda1aa2dcf2f2177636994a5945f972dc6b99a",
        "nonce": "0xd9",
        "chainId": "0x14a34"
      },
      "additionalContracts": [],
      "isFixedGasLimit": false
    },
    {
      "hash": "0xb41e5f0fb5904aed9dac117db31a03e6138a7b4c446bab902eeef6beaa1395c6",
      "transactionType": "CALL",
      "contractName": null,
      "contractAddress": "0x5500999e37499c94e216bc1d829164734a1bba5a",
      "function": "setComposerEid(uint32)",
      "arguments": [
        "40232"
      ],
      "transaction": {
        "from": "0x12b2434a1022d5787bf06056f2885fe35de62bf8",
        "to": "0x5500999e37499c94e216bc1d829164734a1bba5a",
        "gas": "0xf96e",
        "value": "0x0",
        "input": "0xd30fce920000000000000000000000000000000000000000000000000000000000009d28",
        "nonce": "0xda",
        "chainId": "0x14a34"
      },
      "additionalContracts": [],
      "isFixedGasLimit": false
    }
  ],
  "receipts": [
    {
      "status": "0x1",
      "cumulativeGasUsed": "0x1c2104",
      "logs": [
        {
          "address": "0x5500999e37499c94e216bc1d829164734a1bba5a",
          "topics": [
            "0x238399d427b947898edb290f5ff0f9109849b1c3ba196a42e35f00c50a54b98b"
          ],
          "data": "0x0000000000000000000000000000000000000000000000000000000000009d280000000000000000000000009edda1aa2dcf2f2177636994a5945f972dc6b99a",
          "blockHash": "0x2c0ba8171355397f030516649be69160b542c833ad9c40625ab6874cf36f1ea0",
          "blockNumber": "0xe3e009",
          "transactionHash": "0x0638a6e5da635870d7714ebb61b6cb58740f5cf9b9ab5b6f03cefafdfc61d8c6",
          "transactionIndex": "0xa",
          "logIndex": "0x24",
          "removed": false
        }
      ],
      "logsBloom": "0x00000000000000000000000000000000000000000000000000000000000000000000000000000000000000000000000000000000001000000800000000000000000000000000000000000000000000000000000000000000000000000000000000000000000000000000000000002000000100000000000000000000000000000000000000000000000000000000000000000000000000000000000000000000000000000000000000000000000000000000000000000000000002000000000000000000000000000000000000000000000000000000000000040000000000000000000000000000000000000000000000000000000000000000000000000000",
      "type": "0x2",
      "transactionHash": "0x0638a6e5da635870d7714ebb61b6cb58740f5cf9b9ab5b6f03cefafdfc61d8c6",
      "transactionIndex": "0xa",
      "blockHash": "0x2c0ba8171355397f030516649be69160b542c833ad9c40625ab6874cf36f1ea0",
      "blockNumber": "0xe3e009",
      "gasUsed": "0xb9a9",
      "effectiveGasPrice": "0x97a273",
      "from": "0x12b2434a1022d5787bf06056f2885fe35de62bf8",
      "to": "0x5500999e37499c94e216bc1d829164734a1bba5a",
      "contractAddress": null,
      "l1BaseFeeScalar": "0x44d",
      "l1BlobBaseFee": "0xf44727f93e",
      "l1BlobBaseFeeScalar": "0xa118b",
      "l1Fee": "0x3f0738b9c7d5",
      "l1GasPrice": "0x960336baa",
      "l1GasUsed": "0x640"
    },
    {
      "status": "0x1",
      "cumulativeGasUsed": "0x1cd59a",
      "logs": [],
      "logsBloom": "0x00000000000000000000000000000000000000000000000000000000000000000000000000000000000000000000000000000000000000000000000000000000000000000000000000000000000000000000000000000000000000000000000000000000000000000000000000000000000000000000000000000000000000000000000000000000000000000000000000000000000000000000000000000000000000000000000000000000000000000000000000000000000000000000000000000000000000000000000000000000000000000000000000000000000000000000000000000000000000000000000000000000000000000000000000000000",
      "type": "0x2",
      "transactionHash": "0xb41e5f0fb5904aed9dac117db31a03e6138a7b4c446bab902eeef6beaa1395c6",
      "transactionIndex": "0xb",
      "blockHash": "0x2c0ba8171355397f030516649be69160b542c833ad9c40625ab6874cf36f1ea0",
      "blockNumber": "0xe3e009",
      "gasUsed": "0xb496",
      "effectiveGasPrice": "0x97a273",
      "from": "0x12b2434a1022d5787bf06056f2885fe35de62bf8",
      "to": "0x5500999e37499c94e216bc1d829164734a1bba5a",
      "contractAddress": null,
      "l1BaseFeeScalar": "0x44d",
      "l1BlobBaseFee": "0xf44727f93e",
      "l1BlobBaseFeeScalar": "0xa118b",
      "l1Fee": "0x3f0738b9c7d5",
      "l1GasPrice": "0x960336baa",
      "l1GasUsed": "0x640"
    }
  ],
  "libraries": [],
  "pending": [],
  "returns": {},
  "timestamp": 1725636345,
  "chain": 84532,
  "commit": "dc78ae4"
}