{
  "transactions": [
    {
      "hash": "0xeab9c67b6a1069d33c7275451bda6787728323f79be5aa2c0e9df7b6d7c3fa49",
      "transactionType": "CALL",
      "contractName": null,
      "contractAddress": "0x11a17e5d54a591465f925772868f3695422f7fea",
      "function": "setPeer(uint32,bytes32)",
      "arguments": [
        "40232",
        "0x000000000000000000000000a31cb24339725ccb5a50358ad77f66bdc02a613b"
      ],
      "transaction": {
        "from": "0x12b2434a1022d5787bf06056f2885fe35de62bf8",
        "to": "0x11a17e5d54a591465f925772868f3695422f7fea",
        "gas": "0x10f87",
        "value": "0x0",
        "input": "0x3400288b0000000000000000000000000000000000000000000000000000000000009d28000000000000000000000000a31cb24339725ccb5a50358ad77f66bdc02a613b",
        "nonce": "0x103",
        "chainId": "0x14a34"
      },
      "additionalContracts": [],
      "isFixedGasLimit": false
    },
    {
      "hash": "0x1e10ecf5d23535d7e541530855752005bad192fb01a98bc052cb086d2e086e51",
      "transactionType": "CALL",
      "contractName": null,
      "contractAddress": "0x11a17e5d54a591465f925772868f3695422f7fea",
      "function": "setComposerEid(uint32)",
      "arguments": [
        "40232"
      ],
      "transaction": {
        "from": "0x12b2434a1022d5787bf06056f2885fe35de62bf8",
        "to": "0x11a17e5d54a591465f925772868f3695422f7fea",
        "gas": "0xf96e",
        "value": "0x0",
        "input": "0xd30fce920000000000000000000000000000000000000000000000000000000000009d28",
        "nonce": "0x104",
        "chainId": "0x14a34"
      },
      "additionalContracts": [],
      "isFixedGasLimit": false
    }
  ],
  "receipts": [
    {
      "status": "0x1",
      "cumulativeGasUsed": "0xa16826",
      "logs": [
        {
          "address": "0x11a17e5d54a591465f925772868f3695422f7fea",
          "topics": [
            "0x238399d427b947898edb290f5ff0f9109849b1c3ba196a42e35f00c50a54b98b"
          ],
          "data": "0x0000000000000000000000000000000000000000000000000000000000009d28000000000000000000000000a31cb24339725ccb5a50358ad77f66bdc02a613b",
          "blockHash": "0x9ef86fa8cfe37b8980b49215e2558105cddda5216cf0bf68ba043e9b0f7226a8",
          "blockNumber": "0xe4649b",
          "transactionHash": "0xeab9c67b6a1069d33c7275451bda6787728323f79be5aa2c0e9df7b6d7c3fa49",
          "transactionIndex": "0x8",
          "logIndex": "0x4e",
          "removed": false
        }
      ],
      "logsBloom": "0x00000000000000000000000000000000000000000000000000000000000000000000000000002000000000000000000000000000000000000800000000000000000000000000000000000000000000000000000000000000000000000000000000000000000000000000000000000000000000000000000000000000000000000000000000000000000000000000000000000000000000000000000000000000000000008000000000000000000000000000000000000000000002000000000000000000000000000000000000000000000000000000000000040000000000000000000000000000000000000000001000000000000000000000000000000000",
      "type": "0x2",
      "transactionHash": "0xeab9c67b6a1069d33c7275451bda6787728323f79be5aa2c0e9df7b6d7c3fa49",
      "transactionIndex": "0x8",
      "blockHash": "0x9ef86fa8cfe37b8980b49215e2558105cddda5216cf0bf68ba043e9b0f7226a8",
      "blockNumber": "0xe4649b",
      "gasUsed": "0xb9a9",
      "effectiveGasPrice": "0x9358e5",
      "from": "0x12b2434a1022d5787bf06056f2885fe35de62bf8",
      "to": "0x11a17e5d54a591465f925772868f3695422f7fea",
      "contractAddress": null,
      "l1BaseFeeScalar": "0x44d",
      "l1BlobBaseFee": "0x23ad68e864",
      "l1BlobBaseFeeScalar": "0xa118b",
      "l1Fee": "0x935e5c015ee",
      "l1GasPrice": "0x21cddfec7",
      "l1GasUsed": "0x640"
    },
    {
      "status": "0x1",
      "cumulativeGasUsed": "0xa21cbc",
      "logs": [],
      "logsBloom": "0x00000000000000000000000000000000000000000000000000000000000000000000000000000000000000000000000000000000000000000000000000000000000000000000000000000000000000000000000000000000000000000000000000000000000000000000000000000000000000000000000000000000000000000000000000000000000000000000000000000000000000000000000000000000000000000000000000000000000000000000000000000000000000000000000000000000000000000000000000000000000000000000000000000000000000000000000000000000000000000000000000000000000000000000000000000000",
      "type": "0x2",
      "transactionHash": "0x1e10ecf5d23535d7e541530855752005bad192fb01a98bc052cb086d2e086e51",
      "transactionIndex": "0x9",
      "blockHash": "0x9ef86fa8cfe37b8980b49215e2558105cddda5216cf0bf68ba043e9b0f7226a8",
      "blockNumber": "0xe4649b",
      "gasUsed": "0xb496",
      "effectiveGasPrice": "0x9358e5",
      "from": "0x12b2434a1022d5787bf06056f2885fe35de62bf8",
      "to": "0x11a17e5d54a591465f925772868f3695422f7fea",
      "contractAddress": null,
      "l1BaseFeeScalar": "0x44d",
      "l1BlobBaseFee": "0x23ad68e864",
      "l1BlobBaseFeeScalar": "0xa118b",
      "l1Fee": "0x935e5c015ee",
      "l1GasPrice": "0x21cddfec7",
      "l1GasUsed": "0x640"
    }
  ],
  "libraries": [],
  "pending": [],
  "returns": {},
  "timestamp": 1725704221,
  "chain": 84532,
  "commit": "c44a2e9"
}