{
  "transactions": [
    {
      "hash": "0xebf780587ca952d7c70ad07e2dee15de67853f4445ae24375d3da81b759766ac",
      "transactionType": "CALL",
      "contractName": null,
      "contractAddress": "0x3f8ad995e6205c8761a8514d3fec8797e69698d9",
      "function": "setPeer(uint32,bytes32)",
      "arguments": [
        "40285",
        "0x0000000000000000000000004e9de77b9bfce417399b512d02f422af093ebd97"
      ],
      "transaction": {
        "from": "0xb0efd2b19a5698a9c830548ac22708a28c9d4552",
        "to": "0x3f8ad995e6205c8761a8514d3fec8797e69698d9",
        "gas": "0x10f87",
        "value": "0x0",
        "input": "0x3400288b0000000000000000000000000000000000000000000000000000000000009d5d0000000000000000000000004e9de77b9bfce417399b512d02f422af093ebd97",
        "nonce": "0xbd",
        "chainId": "0x14a34"
      },
      "additionalContracts": [],
      "isFixedGasLimit": false
    },
    {
      "hash": "0x6dc6590fb8235779303a74ed5c03cb03d3892866c38be13ce27fdea97dab8c33",
      "transactionType": "CALL",
      "contractName": null,
      "contractAddress": "0x3f8ad995e6205c8761a8514d3fec8797e69698d9",
      "function": "setComposerEid(uint32)",
      "arguments": [
        "40285"
      ],
      "transaction": {
        "from": "0xb0efd2b19a5698a9c830548ac22708a28c9d4552",
        "to": "0x3f8ad995e6205c8761a8514d3fec8797e69698d9",
        "gas": "0xf96e",
        "value": "0x0",
        "input": "0xd30fce920000000000000000000000000000000000000000000000000000000000009d5d",
        "nonce": "0xbe",
        "chainId": "0x14a34"
      },
      "additionalContracts": [],
      "isFixedGasLimit": false
    }
  ],
  "receipts": [
    {
      "status": "0x1",
      "cumulativeGasUsed": "0x28db53",
      "logs": [
        {
          "address": "0x3f8ad995e6205c8761a8514d3fec8797e69698d9",
          "topics": [
            "0x238399d427b947898edb290f5ff0f9109849b1c3ba196a42e35f00c50a54b98b"
          ],
          "data": "0x0000000000000000000000000000000000000000000000000000000000009d5d0000000000000000000000004e9de77b9bfce417399b512d02f422af093ebd97",
          "blockHash": "0x01b6e6bcfb8579a286419b951fb4922d31b4c016425f888dcbc22639b96e66c6",
          "blockNumber": "0xe407d2",
          "transactionHash": "0xebf780587ca952d7c70ad07e2dee15de67853f4445ae24375d3da81b759766ac",
          "transactionIndex": "0x8",
          "logIndex": "0x2a",
          "removed": false
        }
      ],
      "logsBloom": "0x00000000000000000000000000000000000000000000000000000000000000000000002000000000000000000000000000000000000000000800000000000000000000000000000000000000000000000000000000000000000000000000000000000000000000000000000000000000000000000000000000000000000000000000000000000000000000000000000000000000000000000000000000000000000000000000000000000000000000000000000000000000000002200000000000000000000000000000000000000000000000000000000000040000000000000000000000000000800000000000000000000000000000000000000000000000",
      "type": "0x2",
      "transactionHash": "0xebf780587ca952d7c70ad07e2dee15de67853f4445ae24375d3da81b759766ac",
      "transactionIndex": "0x8",
      "blockHash": "0x01b6e6bcfb8579a286419b951fb4922d31b4c016425f888dcbc22639b96e66c6",
      "blockNumber": "0xe407d2",
      "gasUsed": "0xb9a9",
      "effectiveGasPrice": "0x94565b",
      "from": "0xb0efd2b19a5698a9c830548ac22708a28c9d4552",
      "to": "0x3f8ad995e6205c8761a8514d3fec8797e69698d9",
      "contractAddress": null,
      "l1BaseFeeScalar": "0x44d",
      "l1BlobBaseFee": "0xfe0f2f01d8",
      "l1BlobBaseFeeScalar": "0xa118b",
      "l1Fee": "0x417c2df271b1",
      "l1GasPrice": "0x754613f",
      "l1GasUsed": "0x640"
    },
    {
      "status": "0x1",
      "cumulativeGasUsed": "0x298fe9",
      "logs": [],
      "logsBloom": "0x00000000000000000000000000000000000000000000000000000000000000000000000000000000000000000000000000000000000000000000000000000000000000000000000000000000000000000000000000000000000000000000000000000000000000000000000000000000000000000000000000000000000000000000000000000000000000000000000000000000000000000000000000000000000000000000000000000000000000000000000000000000000000000000000000000000000000000000000000000000000000000000000000000000000000000000000000000000000000000000000000000000000000000000000000000000",
      "type": "0x2",
      "transactionHash": "0x6dc6590fb8235779303a74ed5c03cb03d3892866c38be13ce27fdea97dab8c33",
      "transactionIndex": "0x9",
      "blockHash": "0x01b6e6bcfb8579a286419b951fb4922d31b4c016425f888dcbc22639b96e66c6",
      "blockNumber": "0xe407d2",
      "gasUsed": "0xb496",
      "effectiveGasPrice": "0x94565b",
      "from": "0xb0efd2b19a5698a9c830548ac22708a28c9d4552",
      "to": "0x3f8ad995e6205c8761a8514d3fec8797e69698d9",
      "contractAddress": null,
      "l1BaseFeeScalar": "0x44d",
      "l1BlobBaseFee": "0xfe0f2f01d8",
      "l1BlobBaseFeeScalar": "0xa118b",
      "l1Fee": "0x417c2df271b1",
      "l1GasPrice": "0x754613f",
      "l1GasUsed": "0x640"
    }
  ],
  "libraries": [],
  "pending": [],
  "returns": {},
  "timestamp": 1725656714,
  "chain": 84532,
  "commit": "37e882d"
}