{
  "transactions": [
    {
      "hash": "0x214523c51ab7a2eca0f028c6ffbe5e8971fac1eeaecd7cff40023d0ab94977ea",
      "transactionType": "CALL",
      "contractName": null,
      "contractAddress": "0x9947652885db3849caeecf489eca492e5f08ceb7",
      "function": "setPeer(uint32,bytes32)",
      "arguments": [
        "40232",
        "0x000000000000000000000000301c96ec196fb6e1fe8b7eb777f317e5261b37eb"
      ],
      "transaction": {
        "from": "0x12b2434a1022d5787bf06056f2885fe35de62bf8",
        "to": "0x9947652885db3849caeecf489eca492e5f08ceb7",
        "gas": "0x10f87",
        "value": "0x0",
        "input": "0x3400288b0000000000000000000000000000000000000000000000000000000000009d28000000000000000000000000301c96ec196fb6e1fe8b7eb777f317e5261b37eb",
        "nonce": "0xc7",
        "chainId": "0x14a34"
      },
      "additionalContracts": [],
      "isFixedGasLimit": false
    },
    {
      "hash": "0xae216f4785bab4ee7e8643a9fcd664c2bdd3d2578f81128dd172b83ad3b60439",
      "transactionType": "CALL",
      "contractName": null,
      "contractAddress": "0x9947652885db3849caeecf489eca492e5f08ceb7",
      "function": "setComposerEid(uint32)",
      "arguments": [
        "40232"
      ],
      "transaction": {
        "from": "0x12b2434a1022d5787bf06056f2885fe35de62bf8",
        "to": "0x9947652885db3849caeecf489eca492e5f08ceb7",
        "gas": "0xf98c",
        "value": "0x0",
        "input": "0xd30fce920000000000000000000000000000000000000000000000000000000000009d28",
        "nonce": "0xc8",
        "chainId": "0x14a34"
      },
      "additionalContracts": [],
      "isFixedGasLimit": false
    }
  ],
  "receipts": [
    {
      "status": "0x1",
      "cumulativeGasUsed": "0xcbc04",
      "logs": [
        {
          "address": "0x9947652885db3849caeecf489eca492e5f08ceb7",
          "topics": [
            "0x238399d427b947898edb290f5ff0f9109849b1c3ba196a42e35f00c50a54b98b"
          ],
          "data": "0x0000000000000000000000000000000000000000000000000000000000009d28000000000000000000000000301c96ec196fb6e1fe8b7eb777f317e5261b37eb",
          "blockHash": "0x0ce36f9564026d67feea728de2c3cb01b91717b700ed13b8a43787c13dff5ffb",
          "blockNumber": "0xe3d585",
          "transactionHash": "0x214523c51ab7a2eca0f028c6ffbe5e8971fac1eeaecd7cff40023d0ab94977ea",
          "transactionIndex": "0x7",
          "logIndex": "0xc",
          "removed": false
        }
      ],
      "logsBloom": "0x00000002000000000000000000000000000000000000000000000000000000000000000000000000000000000000040000000000000000000800000000000000000000000000000000000000000000000000000000000000000000000000000000000000000000000000000000000000000000000000000000000000000000000000000000000000000000000000000000000000000000000000000000000000000000000000000000000000000000000000000000000000000002000000000010000000000000000000000000000000000000000000000000040000000000000000000000000000000000000000000000000000000000000000000000000000",
      "type": "0x2",
      "transactionHash": "0x214523c51ab7a2eca0f028c6ffbe5e8971fac1eeaecd7cff40023d0ab94977ea",
      "transactionIndex": "0x7",
      "blockHash": "0x0ce36f9564026d67feea728de2c3cb01b91717b700ed13b8a43787c13dff5ffb",
      "blockNumber": "0xe3d585",
      "gasUsed": "0xb9a9",
      "effectiveGasPrice": "0x8d0964",
      "from": "0x12b2434a1022d5787bf06056f2885fe35de62bf8",
      "to": "0x9947652885db3849caeecf489eca492e5f08ceb7",
      "contractAddress": null,
      "l1BaseFeeScalar": "0x44d",
      "l1BlobBaseFee": "0x2dd581e6f22",
      "l1BlobBaseFeeScalar": "0xa118b",
      "l1Fee": "0xbd0ea50aa5cb",
      "l1GasPrice": "0x50697fcfd",
      "l1GasUsed": "0x640"
    },
    {
      "status": "0x1",
      "cumulativeGasUsed": "0xd70b0",
      "logs": [],
      "logsBloom": "0x00000000000000000000000000000000000000000000000000000000000000000000000000000000000000000000000000000000000000000000000000000000000000000000000000000000000000000000000000000000000000000000000000000000000000000000000000000000000000000000000000000000000000000000000000000000000000000000000000000000000000000000000000000000000000000000000000000000000000000000000000000000000000000000000000000000000000000000000000000000000000000000000000000000000000000000000000000000000000000000000000000000000000000000000000000000",
      "type": "0x2",
      "transactionHash": "0xae216f4785bab4ee7e8643a9fcd664c2bdd3d2578f81128dd172b83ad3b60439",
      "transactionIndex": "0x8",
      "blockHash": "0x0ce36f9564026d67feea728de2c3cb01b91717b700ed13b8a43787c13dff5ffb",
      "blockNumber": "0xe3d585",
      "gasUsed": "0xb4ac",
      "effectiveGasPrice": "0x8d0964",
      "from": "0x12b2434a1022d5787bf06056f2885fe35de62bf8",
      "to": "0x9947652885db3849caeecf489eca492e5f08ceb7",
      "contractAddress": null,
      "l1BaseFeeScalar": "0x44d",
      "l1BlobBaseFee": "0x2dd581e6f22",
      "l1BlobBaseFeeScalar": "0xa118b",
      "l1Fee": "0xbd0ea50aa5cb",
      "l1GasPrice": "0x50697fcfd",
      "l1GasUsed": "0x640"
    }
  ],
  "libraries": [],
  "pending": [],
  "returns": {},
  "timestamp": 1725630961,
  "chain": 84532,
  "commit": "dc78ae4"
}