{
  "transactions": [
    {
      "hash": "0xb66ac021730421e7c56ae94656cc8a188019887c08391dc85a7f074f34399e11",
      "transactionType": "CALL",
      "contractName": null,
      "contractAddress": "0x2edd21000a84b174112a41189271b61104693952",
      "function": "setPeer(uint32,bytes32)",
      "arguments": [
        "40232",
        "0x0000000000000000000000004bbb9b855fe1e7ffbb283969d210c3841aed8076"
      ],
      "transaction": {
        "from": "0x12b2434a1022d5787bf06056f2885fe35de62bf8",
        "to": "0x2edd21000a84b174112a41189271b61104693952",
        "gas": "0x10f87",
        "value": "0x0",
        "input": "0x3400288b0000000000000000000000000000000000000000000000000000000000009d280000000000000000000000004bbb9b855fe1e7ffbb283969d210c3841aed8076",
        "nonce": "0xbb",
        "chainId": "0x14a34"
      },
      "additionalContracts": [],
      "isFixedGasLimit": false
    },
    {
      "hash": "0x6e8234006307e1f19582a1cb05e5a8b6660e83493a4d2557955574541707c46f",
      "transactionType": "CALL",
      "contractName": null,
      "contractAddress": "0x2edd21000a84b174112a41189271b61104693952",
      "function": "setComposerEid(uint32)",
      "arguments": [
        "40232"
      ],
      "transaction": {
        "from": "0x12b2434a1022d5787bf06056f2885fe35de62bf8",
        "to": "0x2edd21000a84b174112a41189271b61104693952",
        "gas": "0xf98c",
        "value": "0x0",
        "input": "0xd30fce920000000000000000000000000000000000000000000000000000000000009d28",
        "nonce": "0xbc",
        "chainId": "0x14a34"
      },
      "additionalContracts": [],
      "isFixedGasLimit": false
    }
  ],
  "receipts": [
    {
      "status": "0x1",
      "cumulativeGasUsed": "0x6b99e9",
      "logs": [
        {
          "address": "0x2edd21000a84b174112a41189271b61104693952",
          "topics": [
            "0x238399d427b947898edb290f5ff0f9109849b1c3ba196a42e35f00c50a54b98b"
          ],
          "data": "0x0000000000000000000000000000000000000000000000000000000000009d280000000000000000000000004bbb9b855fe1e7ffbb283969d210c3841aed8076",
          "blockHash": "0x4d7bdd17528a0cf7dd28f2963eef1fe47889ac1ac2f5974de5220103d6863f26",
          "blockNumber": "0xe3cb80",
          "transactionHash": "0xb66ac021730421e7c56ae94656cc8a188019887c08391dc85a7f074f34399e11",
          "transactionIndex": "0xa",
          "logIndex": "0x3a",
          "removed": false
        }
      ],
      "logsBloom": "0x00000000000000000000000000000000000000000000000000000000000000000000000000000000000000000000000000000000000000000800000000000000000000000000200000001000000000000000000000000000000000000000000000000000000000000000000000000000000000000000000000000000000000000000000000000000000000000000000000000000000000000000000000000000000000000000000000000000000000000000000000000000000002000000000000000000000000000000000000000000000000000000000000040100000000000000000000000000000000000000000000000000000000000000000000000000",
      "type": "0x2",
      "transactionHash": "0xb66ac021730421e7c56ae94656cc8a188019887c08391dc85a7f074f34399e11",
      "transactionIndex": "0xa",
      "blockHash": "0x4d7bdd17528a0cf7dd28f2963eef1fe47889ac1ac2f5974de5220103d6863f26",
      "blockNumber": "0xe3cb80",
      "gasUsed": "0xb9a9",
      "effectiveGasPrice": "0x8c46d6",
      "blobGasUsed": "0x0",
      "from": "0x12b2434a1022d5787bf06056f2885fe35de62bf8",
      "to": "0x2edd21000a84b174112a41189271b61104693952",
      "contractAddress": null,
      "l1BaseFeeScalar": "0x44d",
      "l1BlobBaseFee": "0x4b397535f8",
      "l1BlobBaseFeeScalar": "0xa118b",
      "l1Fee": "0x1369b0bd8090",
      "l1GasPrice": "0x367a07cb1",
      "l1GasUsed": "0x640"
    },
    {
      "status": "0x1",
      "cumulativeGasUsed": "0x6c4e95",
      "logs": [],
      "logsBloom": "0x00000000000000000000000000000000000000000000000000000000000000000000000000000000000000000000000000000000000000000000000000000000000000000000000000000000000000000000000000000000000000000000000000000000000000000000000000000000000000000000000000000000000000000000000000000000000000000000000000000000000000000000000000000000000000000000000000000000000000000000000000000000000000000000000000000000000000000000000000000000000000000000000000000000000000000000000000000000000000000000000000000000000000000000000000000000",
      "type": "0x2",
      "transactionHash": "0x6e8234006307e1f19582a1cb05e5a8b6660e83493a4d2557955574541707c46f",
      "transactionIndex": "0xb",
      "blockHash": "0x4d7bdd17528a0cf7dd28f2963eef1fe47889ac1ac2f5974de5220103d6863f26",
      "blockNumber": "0xe3cb80",
      "gasUsed": "0xb4ac",
      "effectiveGasPrice": "0x8c46d6",
      "blobGasUsed": "0x0",
      "from": "0x12b2434a1022d5787bf06056f2885fe35de62bf8",
      "to": "0x2edd21000a84b174112a41189271b61104693952",
      "contractAddress": null,
      "l1BaseFeeScalar": "0x44d",
      "l1BlobBaseFee": "0x4b397535f8",
      "l1BlobBaseFeeScalar": "0xa118b",
      "l1Fee": "0x1369b0bd8090",
      "l1GasPrice": "0x367a07cb1",
      "l1GasUsed": "0x640"
    }
  ],
  "libraries": [],
  "pending": [],
  "returns": {},
  "timestamp": 1725625830,
  "chain": 84532,
  "commit": "dc78ae4"
}