{
  "transactions": [
    {
      "hash": "0x52edcf2e85f51015120810c194908692c6473db11cbf8b63589d23da88bb07da",
      "transactionType": "CALL",
      "contractName": null,
      "contractAddress": "0xf47d259df9b4b79b802f920f0e9688754a0597ee",
      "function": "setPeer(uint32,bytes32)",
      "arguments": [
        "40232",
        "0x0000000000000000000000005fdbfde0332b5023ab49548d8239ef8f7190f221"
      ],
      "transaction": {
        "from": "0x12b2434a1022d5787bf06056f2885fe35de62bf8",
        "to": "0xf47d259df9b4b79b802f920f0e9688754a0597ee",
        "gas": "0x10f66",
        "value": "0x0",
        "input": "0x3400288b0000000000000000000000000000000000000000000000000000000000009d280000000000000000000000005fdbfde0332b5023ab49548d8239ef8f7190f221",
        "nonce": "0xb3",
        "chainId": "0x14a34"
      },
      "additionalContracts": [],
      "isFixedGasLimit": false
    },
    {
      "hash": "0x018b60c53e1b04ef3e862dfe165c4500818be32f9160e4bc455340819f7ec822",
      "transactionType": "CALL",
      "contractName": null,
      "contractAddress": "0xf47d259df9b4b79b802f920f0e9688754a0597ee",
      "function": "setComposerEid(uint32)",
      "arguments": [
        "40232"
      ],
      "transaction": {
        "from": "0x12b2434a1022d5787bf06056f2885fe35de62bf8",
        "to": "0xf47d259df9b4b79b802f920f0e9688754a0597ee",
        "gas": "0xf98c",
        "value": "0x0",
        "input": "0xd30fce920000000000000000000000000000000000000000000000000000000000009d28",
        "nonce": "0xb4",
        "chainId": "0x14a34"
      },
      "additionalContracts": [],
      "isFixedGasLimit": false
    }
  ],
  "receipts": [
    {
      "status": "0x1",
      "cumulativeGasUsed": "0xf3233",
      "logs": [
        {
          "address": "0xf47d259df9b4b79b802f920f0e9688754a0597ee",
          "topics": [
            "0x238399d427b947898edb290f5ff0f9109849b1c3ba196a42e35f00c50a54b98b"
          ],
          "data": "0x0000000000000000000000000000000000000000000000000000000000009d280000000000000000000000005fdbfde0332b5023ab49548d8239ef8f7190f221",
          "blockHash": "0xcb2a337b9741c7fcd894bff0a08f29c809ae79cc11d5b983c436d0b6e737a9b9",
          "blockNumber": "0xe3c16f",
          "transactionHash": "0x52edcf2e85f51015120810c194908692c6473db11cbf8b63589d23da88bb07da",
          "transactionIndex": "0x15",
          "logIndex": "0x8",
          "removed": false
        }
      ],
      "logsBloom": "0x00000000000000000000000000000000000000000000000000000200000000000000000000000000000000000000000000000000000000000800000000000000000000000000000000000000000000000000000000000000000000000000000000000000000000000000000000000000000000000000000000000000000000000000000000000000000000000000000000000000000000000000000000000000000000000000000000000000000000000000000000000000000002000000000000000000000000000000000000000000008000000000000000440000000000000000000000000000000000000000000000000000000000000000000000000000",
      "type": "0x2",
      "transactionHash": "0x52edcf2e85f51015120810c194908692c6473db11cbf8b63589d23da88bb07da",
      "transactionIndex": "0x15",
      "blockHash": "0xcb2a337b9741c7fcd894bff0a08f29c809ae79cc11d5b983c436d0b6e737a9b9",
      "blockNumber": "0xe3c16f",
      "gasUsed": "0xb993",
      "effectiveGasPrice": "0x802ee0",
      "blobGasUsed": "0x0",
      "from": "0x12b2434a1022d5787bf06056f2885fe35de62bf8",
      "to": "0xf47d259df9b4b79b802f920f0e9688754a0597ee",
      "contractAddress": null,
      "l1BaseFeeScalar": "0x44d",
      "l1BlobBaseFee": "0x3dd1098c99",
      "l1BlobBaseFeeScalar": "0xa118b",
      "l1Fee": "0xff3763c81cb",
      "l1GasPrice": "0x28c91f2ba",
      "l1GasUsed": "0x640"
    },
    {
      "status": "0x1",
      "cumulativeGasUsed": "0xfe6df",
      "logs": [],
      "logsBloom": "0x00000000000000000000000000000000000000000000000000000000000000000000000000000000000000000000000000000000000000000000000000000000000000000000000000000000000000000000000000000000000000000000000000000000000000000000000000000000000000000000000000000000000000000000000000000000000000000000000000000000000000000000000000000000000000000000000000000000000000000000000000000000000000000000000000000000000000000000000000000000000000000000000000000000000000000000000000000000000000000000000000000000000000000000000000000000",
      "type": "0x2",
      "transactionHash": "0x018b60c53e1b04ef3e862dfe165c4500818be32f9160e4bc455340819f7ec822",
      "transactionIndex": "0x16",
      "blockHash": "0xcb2a337b9741c7fcd894bff0a08f29c809ae79cc11d5b983c436d0b6e737a9b9",
      "blockNumber": "0xe3c16f",
      "gasUsed": "0xb4ac",
      "effectiveGasPrice": "0x802ee0",
      "blobGasUsed": "0x0",
      "from": "0x12b2434a1022d5787bf06056f2885fe35de62bf8",
      "to": "0xf47d259df9b4b79b802f920f0e9688754a0597ee",
      "contractAddress": null,
      "l1BaseFeeScalar": "0x44d",
      "l1BlobBaseFee": "0x3dd1098c99",
      "l1BlobBaseFeeScalar": "0xa118b",
      "l1Fee": "0xff3763c81cb",
      "l1GasPrice": "0x28c91f2ba",
      "l1GasUsed": "0x640"
    }
  ],
  "libraries": [],
  "pending": [],
  "returns": {},
  "timestamp": 1725620678,
  "chain": 84532,
  "commit": "dc78ae4"
}