{
  "transactions": [
    {
      "hash": "0xc9612742151196eb7444b2bc4b3fcaefbea67d1b666a03b1c92862648092bb70",
      "transactionType": "CALL",
      "contractName": null,
      "contractAddress": "0x56ed2eef6cd8a4aceb19061805bd1194ade79ca4",
      "function": "setPeer(uint32,bytes32)",
      "arguments": [
        "40232",
        "0x0000000000000000000000001c20792631db832310a6b66a6b9623ea0738a3ca"
      ],
      "transaction": {
        "from": "0x12b2434a1022d5787bf06056f2885fe35de62bf8",
        "to": "0x56ed2eef6cd8a4aceb19061805bd1194ade79ca4",
        "gas": "0x10f66",
        "value": "0x0",
        "input": "0x3400288b0000000000000000000000000000000000000000000000000000000000009d280000000000000000000000001c20792631db832310a6b66a6b9623ea0738a3ca",
        "nonce": "0x10f",
        "chainId": "0x14a34"
      },
      "additionalContracts": [],
      "isFixedGasLimit": false
    },
    {
      "hash": "0xa8c3e93f6b6821bffe485ecca4f43febbe359e71c4715c6ab1f50a14de48d640",
      "transactionType": "CALL",
      "contractName": null,
      "contractAddress": "0x56ed2eef6cd8a4aceb19061805bd1194ade79ca4",
      "function": "setComposerFirstEid(uint32)",
      "arguments": [
        "40232"
      ],
      "transaction": {
        "from": "0x12b2434a1022d5787bf06056f2885fe35de62bf8",
        "to": "0x56ed2eef6cd8a4aceb19061805bd1194ade79ca4",
        "gas": "0x1075a",
        "value": "0x0",
        "input": "0xba44879f0000000000000000000000000000000000000000000000000000000000009d28",
        "nonce": "0x110",
        "chainId": "0x14a34"
      },
      "additionalContracts": [],
      "isFixedGasLimit": false
    }
  ],
  "receipts": [
    {
      "status": "0x1",
      "cumulativeGasUsed": "0x1016e0",
      "logs": [
        {
          "address": "0x56ed2eef6cd8a4aceb19061805bd1194ade79ca4",
          "topics": [
            "0x238399d427b947898edb290f5ff0f9109849b1c3ba196a42e35f00c50a54b98b"
          ],
          "data": "0x0000000000000000000000000000000000000000000000000000000000009d280000000000000000000000001c20792631db832310a6b66a6b9623ea0738a3ca",
          "blockHash": "0xaf8a24e50b4d08f0c762e3579ca1aa19908130233ba8648cd54d19b179a4352b",
          "blockNumber": "0xe49f87",
          "transactionHash": "0xc9612742151196eb7444b2bc4b3fcaefbea67d1b666a03b1c92862648092bb70",
          "transactionIndex": "0x5",
          "logIndex": "0x18",
          "removed": false
        }
      ],
      "logsBloom": "0x00000000000000020000000000000000000000000000000000000000000000000000000000000000000000000000000000000000000000000800000000000000000000000000000000000000000000000000000000000000000000000000040000000000000000000000000000000000000000000000000000000000000000000000000000000000000000000000000000000000000000000000000000000000000000000000000000000000000000000000000000000000000002000000000000000000000000000000000000000000000000000000000000040000000000000000000000000000040000000000000000000000000000000000000000000000",
      "type": "0x2",
      "transactionHash": "0xc9612742151196eb7444b2bc4b3fcaefbea67d1b666a03b1c92862648092bb70",
      "transactionIndex": "0x5",
      "blockHash": "0xaf8a24e50b4d08f0c762e3579ca1aa19908130233ba8648cd54d19b179a4352b",
      "blockNumber": "0xe49f87",
      "gasUsed": "0xb993",
      "effectiveGasPrice": "0x84896d",
      "from": "0x12b2434a1022d5787bf06056f2885fe35de62bf8",
      "to": "0x56ed2eef6cd8a4aceb19061805bd1194ade79ca4",
      "contractAddress": null,
      "l1BaseFeeScalar": "0x44d",
      "l1BlobBaseFee": "0x14975766f3",
      "l1BlobBaseFeeScalar": "0xa118b",
      "l1Fee": "0x54f993fd56e",
      "l1GasPrice": "0x8101d3b5",
      "l1GasUsed": "0x640"
    },
    {
      "status": "0x1",
      "cumulativeGasUsed": "0x10caf2",
      "logs": [],
      "logsBloom": "0x00000000000000000000000000000000000000000000000000000000000000000000000000000000000000000000000000000000000000000000000000000000000000000000000000000000000000000000000000000000000000000000000000000000000000000000000000000000000000000000000000000000000000000000000000000000000000000000000000000000000000000000000000000000000000000000000000000000000000000000000000000000000000000000000000000000000000000000000000000000000000000000000000000000000000000000000000000000000000000000000000000000000000000000000000000000",
      "type": "0x2",
      "transactionHash": "0xa8c3e93f6b6821bffe485ecca4f43febbe359e71c4715c6ab1f50a14de48d640",
      "transactionIndex": "0x6",
      "blockHash": "0xaf8a24e50b4d08f0c762e3579ca1aa19908130233ba8648cd54d19b179a4352b",
      "blockNumber": "0xe49f87",
      "gasUsed": "0xb412",
      "effectiveGasPrice": "0x84896d",
      "from": "0x12b2434a1022d5787bf06056f2885fe35de62bf8",
      "to": "0x56ed2eef6cd8a4aceb19061805bd1194ade79ca4",
      "contractAddress": null,
      "l1BaseFeeScalar": "0x44d",
      "l1BlobBaseFee": "0x14975766f3",
      "l1BlobBaseFeeScalar": "0xa118b",
      "l1Fee": "0x54f993fd56e",
      "l1GasPrice": "0x8101d3b5",
      "l1GasUsed": "0x640"
    }
  ],
  "libraries": [],
  "pending": [],
  "returns": {},
  "timestamp": 1725734389,
  "chain": 84532,
  "commit": "67fd3b7"
}