{
  "transactions": [
    {
      "hash": "0xaf525524cf1d6fd72ce2b01b1c2d61fc74626831ce4080f0ccb80611ae0ed7d5",
      "transactionType": "CALL",
      "contractName": null,
      "contractAddress": "0xc32b58a3aa4b65cbef6c64691e20b15e5553aca4",
      "function": "setPeer(uint32,bytes32)",
      "arguments": [
        "40232",
        "0x0000000000000000000000004ad1c96cb3689ec85c8902358b90a231081eb7a8"
      ],
      "transaction": {
        "from": "0x12b2434a1022d5787bf06056f2885fe35de62bf8",
        "to": "0xc32b58a3aa4b65cbef6c64691e20b15e5553aca4",
        "gas": "0x10f87",
        "value": "0x0",
        "input": "0x3400288b0000000000000000000000000000000000000000000000000000000000009d280000000000000000000000004ad1c96cb3689ec85c8902358b90a231081eb7a8",
        "nonce": "0xf1",
        "chainId": "0x14a34"
      },
      "additionalContracts": [],
      "isFixedGasLimit": false
    },
    {
      "hash": "0x25beceb4490bf5bb45fe3b08503488cdc352d3298b5967f658d1699cdc879942",
      "transactionType": "CALL",
      "contractName": null,
      "contractAddress": "0xc32b58a3aa4b65cbef6c64691e20b15e5553aca4",
      "function": "setComposerEid(uint32)",
      "arguments": [
        "40232"
      ],
      "transaction": {
        "from": "0x12b2434a1022d5787bf06056f2885fe35de62bf8",
        "to": "0xc32b58a3aa4b65cbef6c64691e20b15e5553aca4",
        "gas": "0xf96e",
        "value": "0x0",
        "input": "0xd30fce920000000000000000000000000000000000000000000000000000000000009d28",
        "nonce": "0xf2",
        "chainId": "0x14a34"
      },
      "additionalContracts": [],
      "isFixedGasLimit": false
    }
  ],
  "receipts": [
    {
      "status": "0x1",
      "cumulativeGasUsed": "0x1b7653d",
      "logs": [
        {
          "address": "0xc32b58a3aa4b65cbef6c64691e20b15e5553aca4",
          "topics": [
            "0x238399d427b947898edb290f5ff0f9109849b1c3ba196a42e35f00c50a54b98b"
          ],
          "data": "0x0000000000000000000000000000000000000000000000000000000000009d280000000000000000000000004ad1c96cb3689ec85c8902358b90a231081eb7a8",
          "blockHash": "0x6d78d8087d83af23eebccdab571d02649bdc4f4630bfd37bde1281dc209f71a5",
          "blockNumber": "0xe3f07b",
          "transactionHash": "0xaf525524cf1d6fd72ce2b01b1c2d61fc74626831ce4080f0ccb80611ae0ed7d5",
          "transactionIndex": "0x69",
          "logIndex": "0x14a",
          "removed": false
        }
      ],
      "logsBloom": "0x00000000000000000200000000000000000000000000000000000000000000000000000000000000000000000000000000000000000000000800000000000000000000000000000000000000000000000000000000010000000000001000000000000000000000000000000000000000000000000000000000000000000000000000000000000000000000000000000000000000000000000000000000000000000000000000000000000000000000000000000000000000000002000000000000000000000000000000000000000000000000000000000000040000000000000000000000000000000000000000000000000000000000000000000000000000",
      "type": "0x2",
      "transactionHash": "0xaf525524cf1d6fd72ce2b01b1c2d61fc74626831ce4080f0ccb80611ae0ed7d5",
      "transactionIndex": "0x69",
      "blockHash": "0x6d78d8087d83af23eebccdab571d02649bdc4f4630bfd37bde1281dc209f71a5",
      "blockNumber": "0xe3f07b",
      "gasUsed": "0xb9a9",
      "effectiveGasPrice": "0x816f17",
      "from": "0x12b2434a1022d5787bf06056f2885fe35de62bf8",
      "to": "0xc32b58a3aa4b65cbef6c64691e20b15e5553aca4",
      "contractAddress": null,
      "l1BaseFeeScalar": "0x44d",
      "l1BlobBaseFee": "0x3dd1098c99",
      "l1BlobBaseFeeScalar": "0xa118b",
      "l1Fee": "0xff4aebd9fff",
      "l1GasPrice": "0x33df7d7ed",
      "l1GasUsed": "0x640"
    },
    {
      "status": "0x1",
      "cumulativeGasUsed": "0x1b819d3",
      "logs": [],
      "logsBloom": "0x00000000000000000000000000000000000000000000000000000000000000000000000000000000000000000000000000000000000000000000000000000000000000000000000000000000000000000000000000000000000000000000000000000000000000000000000000000000000000000000000000000000000000000000000000000000000000000000000000000000000000000000000000000000000000000000000000000000000000000000000000000000000000000000000000000000000000000000000000000000000000000000000000000000000000000000000000000000000000000000000000000000000000000000000000000000",
      "type": "0x2",
      "transactionHash": "0x25beceb4490bf5bb45fe3b08503488cdc352d3298b5967f658d1699cdc879942",
      "transactionIndex": "0x6a",
      "blockHash": "0x6d78d8087d83af23eebccdab571d02649bdc4f4630bfd37bde1281dc209f71a5",
      "blockNumber": "0xe3f07b",
      "gasUsed": "0xb496",
      "effectiveGasPrice": "0x816f17",
      "from": "0x12b2434a1022d5787bf06056f2885fe35de62bf8",
      "to": "0xc32b58a3aa4b65cbef6c64691e20b15e5553aca4",
      "contractAddress": null,
      "l1BaseFeeScalar": "0x44d",
      "l1BlobBaseFee": "0x3dd1098c99",
      "l1BlobBaseFeeScalar": "0xa118b",
      "l1Fee": "0xff4aebd9fff",
      "l1GasPrice": "0x33df7d7ed",
      "l1GasUsed": "0x640"
    }
  ],
  "libraries": [],
  "pending": [],
  "returns": {},
  "timestamp": 1725644762,
  "chain": 84532,
  "commit": "dc78ae4"
}