{
  "transactions": [
    {
      "hash": "0xbb2f16f0626ab71e7d1ac6e3183034bddf71af82e861f8e2b97fb765c09f07a5",
      "transactionType": "CALL",
      "contractName": null,
      "contractAddress": "0xe4b0be62627747ac752669ebb93ee612ecfd73be",
      "function": "setPeer(uint32,bytes32)",
      "arguments": [
        "40232",
        "0x000000000000000000000000a6f21f0c90f316d8420bbf3897eb98227285d14b"
      ],
      "transaction": {
        "from": "0x6680dfd1c6a4867476b2e60da89354ac93272878",
        "to": "0xe4b0be62627747ac752669ebb93ee612ecfd73be",
        "gas": "0x10f66",
        "value": "0x0",
        "input": "0x3400288b0000000000000000000000000000000000000000000000000000000000009d28000000000000000000000000a6f21f0c90f316d8420bbf3897eb98227285d14b",
        "nonce": "0x9",
        "chainId": "0x14a34"
      },
      "additionalContracts": [],
      "isFixedGasLimit": false
    },
    {
      "hash": "0x4a3bcc7bdca234d7d393164fb24b4e38ba1c2d19db60753af119a5de31ef5108",
      "transactionType": "CALL",
      "contractName": null,
      "contractAddress": "0xe4b0be62627747ac752669ebb93ee612ecfd73be",
      "function": "setComposerFirstEid(uint32)",
      "arguments": [
        "40232"
      ],
      "transaction": {
        "from": "0x6680dfd1c6a4867476b2e60da89354ac93272878",
        "to": "0xe4b0be62627747ac752669ebb93ee612ecfd73be",
        "gas": "0x1075a",
        "value": "0x0",
        "input": "0xba44879f0000000000000000000000000000000000000000000000000000000000009d28",
        "nonce": "0xa",
        "chainId": "0x14a34"
      },
      "additionalContracts": [],
      "isFixedGasLimit": false
    }
  ],
  "receipts": [
    {
      "status": "0x1",
      "cumulativeGasUsed": "0xff27a",
      "logs": [
        {
          "address": "0xe4b0be62627747ac752669ebb93ee612ecfd73be",
          "topics": [
            "0x238399d427b947898edb290f5ff0f9109849b1c3ba196a42e35f00c50a54b98b"
          ],
          "data": "0x0000000000000000000000000000000000000000000000000000000000009d28000000000000000000000000a6f21f0c90f316d8420bbf3897eb98227285d14b",
          "blockHash": "0x2dcf55dae00f2c173f7e9f9d3400919857c2e4ab85e53f707542086aa693e47a",
          "blockNumber": "0xe4a64f",
          "transactionHash": "0xbb2f16f0626ab71e7d1ac6e3183034bddf71af82e861f8e2b97fb765c09f07a5",
          "transactionIndex": "0x5",
          "logIndex": "0x19",
          "removed": false
        }
      ],
      "logsBloom": "0x00000000000000000000000000000000000000000000000000000000000000000000000000000000000000000000000000000000000000000800000000000000000000000000000000000000000000000000000000000800000080000000000000000000000000000000000000000000000000000000000000000000000000000000000000000000000000000000000000000000000000008000000000000000000000000000000000000000000000000000000000000000000002000000000000000000000000000000000000000000000000000000000000040000000000000000000000000000000000000000000000000000000000000000000000000000",
      "type": "0x2",
      "transactionHash": "0xbb2f16f0626ab71e7d1ac6e3183034bddf71af82e861f8e2b97fb765c09f07a5",
      "transactionIndex": "0x5",
      "blockHash": "0x2dcf55dae00f2c173f7e9f9d3400919857c2e4ab85e53f707542086aa693e47a",
      "blockNumber": "0xe4a64f",
      "gasUsed": "0xb993",
      "effectiveGasPrice": "0x1e388a",
      "from": "0x6680dfd1c6a4867476b2e60da89354ac93272878",
      "to": "0xe4b0be62627747ac752669ebb93ee612ecfd73be",
      "contractAddress": null,
      "l1BaseFeeScalar": "0x44d",
      "l1BlobBaseFee": "0x2c7c04a10",
      "l1BlobBaseFeeScalar": "0xa118b",
      "l1Fee": "0xb78cd9ced3",
      "l1GasPrice": "0xd8e7dbb",
      "l1GasUsed": "0x640"
    },
    {
      "status": "0x1",
      "cumulativeGasUsed": "0x10a68c",
      "logs": [],
      "logsBloom": "0x00000000000000000000000000000000000000000000000000000000000000000000000000000000000000000000000000000000000000000000000000000000000000000000000000000000000000000000000000000000000000000000000000000000000000000000000000000000000000000000000000000000000000000000000000000000000000000000000000000000000000000000000000000000000000000000000000000000000000000000000000000000000000000000000000000000000000000000000000000000000000000000000000000000000000000000000000000000000000000000000000000000000000000000000000000000",
      "type": "0x2",
      "transactionHash": "0x4a3bcc7bdca234d7d393164fb24b4e38ba1c2d19db60753af119a5de31ef5108",
      "transactionIndex": "0x6",
      "blockHash": "0x2dcf55dae00f2c173f7e9f9d3400919857c2e4ab85e53f707542086aa693e47a",
      "blockNumber": "0xe4a64f",
      "gasUsed": "0xb412",
      "effectiveGasPrice": "0x1e388a",
      "from": "0x6680dfd1c6a4867476b2e60da89354ac93272878",
      "to": "0xe4b0be62627747ac752669ebb93ee612ecfd73be",
      "contractAddress": null,
      "l1BaseFeeScalar": "0x44d",
      "l1BlobBaseFee": "0x2c7c04a10",
      "l1BlobBaseFeeScalar": "0xa118b",
      "l1Fee": "0xb78cd9ced3",
      "l1GasPrice": "0xd8e7dbb",
      "l1GasUsed": "0x640"
    }
  ],
  "libraries": [],
  "pending": [],
  "returns": {},
  "timestamp": 1725737861,
  "chain": 84532,
  "commit": "67fd3b7"
}