{
  "transactions": [
    {
      "hash": "0x6b92f54096e2bb8e4cb8406386ec8245d038691001668e3546a6440ef544bdd2",
      "transactionType": "CALL",
      "contractName": null,
      "contractAddress": "0x868aa7e6a8c5b594e4c142b3c139c50ef0007920",
      "function": "setPeer(uint32,bytes32)",
      "arguments": [
        "40232",
        "0x000000000000000000000000cd8d0a671230d8fe06d420d1d537d0b3d37bef87"
      ],
      "transaction": {
        "from": "0xb0efd2b19a5698a9c830548ac22708a28c9d4552",
        "to": "0x868aa7e6a8c5b594e4c142b3c139c50ef0007920",
        "gas": "0xa42d",
        "value": "0x0",
        "input": "0x3400288b0000000000000000000000000000000000000000000000000000000000009d28000000000000000000000000cd8d0a671230d8fe06d420d1d537d0b3d37bef87",
        "nonce": "0xab",
        "chainId": "0x14a34"
      },
      "additionalContracts": [],
      "isFixedGasLimit": false
    },
    {
      "hash": "0x9e6319fdcd96faf911839ac830b42f4d055474f86e5eb49924d4762f8817d7c9",
      "transactionType": "CALL",
      "contractName": null,
      "contractAddress": "0x868aa7e6a8c5b594e4c142b3c139c50ef0007920",
      "function": "setComposerEid(uint32)",
      "arguments": [
        "40232"
      ],
      "transaction": {
        "from": "0xb0efd2b19a5698a9c830548ac22708a28c9d4552",
        "to": "0x868aa7e6a8c5b594e4c142b3c139c50ef0007920",
        "gas": "0x966b",
        "value": "0x0",
        "input": "0xd30fce920000000000000000000000000000000000000000000000000000000000009d28",
        "nonce": "0xac",
        "chainId": "0x14a34"
      },
      "additionalContracts": [],
      "isFixedGasLimit": false
    }
  ],
  "receipts": [
    {
      "status": "0x1",
      "cumulativeGasUsed": "0x112718",
      "logs": [
        {
          "address": "0x868aa7e6a8c5b594e4c142b3c139c50ef0007920",
          "topics": [
            "0x238399d427b947898edb290f5ff0f9109849b1c3ba196a42e35f00c50a54b98b"
          ],
          "data": "0x0000000000000000000000000000000000000000000000000000000000009d28000000000000000000000000cd8d0a671230d8fe06d420d1d537d0b3d37bef87",
          "blockHash": "0xd5a332d789955dd330d0d0360698b98e526f8b94ad8067ac61b1a45f4b7d7858",
          "blockNumber": "0xe3f6f5",
          "transactionHash": "0x6b92f54096e2bb8e4cb8406386ec8245d038691001668e3546a6440ef544bdd2",
          "transactionIndex": "0xc",
          "logIndex": "0x11",
          "removed": false
        }
      ],
      "logsBloom": "0x00000000000000000000000000000000000000000000000000000000000000000000000000000000000000000000000000000000000000000800000000000000000000000000000000000000000000000000000000000000000000000000000000000000080000000000000000000000000000000000000000000000000000000000000000000000000000000000000000000000000000000000000000000000000000000000000002000000000000000000000000000000000002000000000000000000000000004000000000000000000000000000000000040000000000000000000000000000000000000000000000000000000000000000000000000000",
      "type": "0x2",
      "transactionHash": "0x6b92f54096e2bb8e4cb8406386ec8245d038691001668e3546a6440ef544bdd2",
      "transactionIndex": "0xc",
      "blockHash": "0xd5a332d789955dd330d0d0360698b98e526f8b94ad8067ac61b1a45f4b7d7858",
      "blockNumber": "0xe3f6f5",
      "gasUsed": "0x76dd",
      "effectiveGasPrice": "0x87c6e6",
      "from": "0xb0efd2b19a5698a9c830548ac22708a28c9d4552",
      "to": "0x868aa7e6a8c5b594e4c142b3c139c50ef0007920",
      "contractAddress": null,
      "l1BaseFeeScalar": "0x44d",
      "l1BlobBaseFee": "0x3925f50e6e",
      "l1BlobBaseFeeScalar": "0xa118b",
      "l1Fee": "0xebe0f8b3572",
      "l1GasPrice": "0x1c655092e",
      "l1GasUsed": "0x640"
    },
    {
      "status": "0x1",
      "cumulativeGasUsed": "0x118df2",
      "logs": [],
      "logsBloom": "0x00000000000000000000000000000000000000000000000000000000000000000000000000000000000000000000000000000000000000000000000000000000000000000000000000000000000000000000000000000000000000000000000000000000000000000000000000000000000000000000000000000000000000000000000000000000000000000000000000000000000000000000000000000000000000000000000000000000000000000000000000000000000000000000000000000000000000000000000000000000000000000000000000000000000000000000000000000000000000000000000000000000000000000000000000000000",
      "type": "0x2",
      "transactionHash": "0x9e6319fdcd96faf911839ac830b42f4d055474f86e5eb49924d4762f8817d7c9",
      "transactionIndex": "0xd",
      "blockHash": "0xd5a332d789955dd330d0d0360698b98e526f8b94ad8067ac61b1a45f4b7d7858",
      "blockNumber": "0xe3f6f5",
      "gasUsed": "0x66da",
      "effectiveGasPrice": "0x87c6e6",
      "from": "0xb0efd2b19a5698a9c830548ac22708a28c9d4552",
      "to": "0x868aa7e6a8c5b594e4c142b3c139c50ef0007920",
      "contractAddress": null,
      "l1BaseFeeScalar": "0x44d",
      "l1BlobBaseFee": "0x3925f50e6e",
      "l1BlobBaseFeeScalar": "0xa118b",
      "l1Fee": "0xebe0f8b3572",
      "l1GasPrice": "0x1c655092e",
      "l1GasUsed": "0x640"
    }
  ],
  "libraries": [],
  "pending": [],
  "returns": {},
  "timestamp": 1725648080,
  "chain": 84532,
  "commit": "37e882d"
}