{
  "transactions": [
    {
      "hash": "0xf1f2366ddc4aaa09193eb1921fb6248b54d966c3d011f258eeebcefad313b075",
      "transactionType": "CALL",
      "contractName": null,
      "contractAddress": "0xcf184468a463270f45dfb5c1315a8d7413ac9f41",
      "function": "setPeer(uint32,bytes32)",
      "arguments": [
        "40232",
        "0x000000000000000000000000d9c0269b0d6a8200f10c2a9a0a85ba400761befd"
      ],
      "transaction": {
        "from": "0x12b2434a1022d5787bf06056f2885fe35de62bf8",
        "to": "0xcf184468a463270f45dfb5c1315a8d7413ac9f41",
        "gas": "0x1005f",
        "value": "0x0",
        "input": "0x3400288b0000000000000000000000000000000000000000000000000000000000009d28000000000000000000000000d9c0269b0d6a8200f10c2a9a0a85ba400761befd",
        "nonce": "0xd3",
        "chainId": "0x14a34"
      },
      "additionalContracts": [],
      "isFixedGasLimit": false
    },
    {
      "hash": "0x1140f8889ef69339d96fc71605d98ec125b6d13694c52b2161f18f5a64336958",
      "transactionType": "CALL",
      "contractName": null,
      "contractAddress": "0xcf184468a463270f45dfb5c1315a8d7413ac9f41",
      "function": "setComposerEid(uint32)",
      "arguments": [
        "40232"
      ],
      "transaction": {
        "from": "0x12b2434a1022d5787bf06056f2885fe35de62bf8",
        "to": "0xcf184468a463270f45dfb5c1315a8d7413ac9f41",
        "gas": "0xf96e",
        "value": "0x0",
        "input": "0xd30fce920000000000000000000000000000000000000000000000000000000000009d28",
        "nonce": "0xd4",
        "chainId": "0x14a34"
      },
      "additionalContracts": [],
      "isFixedGasLimit": false
    }
  ],
  "receipts": [
    {
      "status": "0x1",
      "cumulativeGasUsed": "0x1640a0",
      "logs": [
        {
          "address": "0xcf184468a463270f45dfb5c1315a8d7413ac9f41",
          "topics": [
            "0x238399d427b947898edb290f5ff0f9109849b1c3ba196a42e35f00c50a54b98b"
          ],
          "data": "0x0000000000000000000000000000000000000000000000000000000000009d28000000000000000000000000d9c0269b0d6a8200f10c2a9a0a85ba400761befd",
          "blockHash": "0xfd8d27bd184afa7c67b9f0783f9996540d347bd950a662937294bef62a7aff22",
          "blockNumber": "0xe3dd43",
          "transactionHash": "0xf1f2366ddc4aaa09193eb1921fb6248b54d966c3d011f258eeebcefad313b075",
          "transactionIndex": "0x5",
          "logIndex": "0x21",
          "removed": false
        }
      ],
      "logsBloom": "0x00000000000000000000000000000000000000000000000000000000000000000000000000000000000000000000000000000000000000000800000000000000000000000000000000000000000000000000000000000000000000000000000000000000000000000000000000000000000000000000000000000000000000000000000000000400000000000000020000000000000000000000000000000000000000000000000000000000000000000000000000000000000002000000000000000000000000000000000000000000000000000000000001040000000000000000000000000000000000000000000000000000000000000000000000000000",
      "type": "0x2",
      "transactionHash": "0xf1f2366ddc4aaa09193eb1921fb6248b54d966c3d011f258eeebcefad313b075",
      "transactionIndex": "0x5",
      "blockHash": "0xfd8d27bd184afa7c67b9f0783f9996540d347bd950a662937294bef62a7aff22",
      "blockNumber": "0xe3dd43",
      "gasUsed": "0xb99d",
      "effectiveGasPrice": "0x935223",
      "from": "0x12b2434a1022d5787bf06056f2885fe35de62bf8",
      "to": "0xcf184468a463270f45dfb5c1315a8d7413ac9f41",
      "contractAddress": null,
      "l1BaseFeeScalar": "0x44d",
      "l1BlobBaseFee": "0x25aa2502a52",
      "l1BlobBaseFeeScalar": "0xa118b",
      "l1Fee": "0x9b6c7c435e2a",
      "l1GasPrice": "0xd684488c7",
      "l1GasUsed": "0x640"
    },
    {
      "status": "0x1",
      "cumulativeGasUsed": "0x16f536",
      "logs": [],
      "logsBloom": "0x00000000000000000000000000000000000000000000000000000000000000000000000000000000000000000000000000000000000000000000000000000000000000000000000000000000000000000000000000000000000000000000000000000000000000000000000000000000000000000000000000000000000000000000000000000000000000000000000000000000000000000000000000000000000000000000000000000000000000000000000000000000000000000000000000000000000000000000000000000000000000000000000000000000000000000000000000000000000000000000000000000000000000000000000000000000",
      "type": "0x2",
      "transactionHash": "0x1140f8889ef69339d96fc71605d98ec125b6d13694c52b2161f18f5a64336958",
      "transactionIndex": "0x6",
      "blockHash": "0xfd8d27bd184afa7c67b9f0783f9996540d347bd950a662937294bef62a7aff22",
      "blockNumber": "0xe3dd43",
      "gasUsed": "0xb496",
      "effectiveGasPrice": "0x935223",
      "from": "0x12b2434a1022d5787bf06056f2885fe35de62bf8",
      "to": "0xcf184468a463270f45dfb5c1315a8d7413ac9f41",
      "contractAddress": null,
      "l1BaseFeeScalar": "0x44d",
      "l1BlobBaseFee": "0x25aa2502a52",
      "l1BlobBaseFeeScalar": "0xa118b",
      "l1Fee": "0x9b6c7c435e2a",
      "l1GasPrice": "0xd684488c7",
      "l1GasUsed": "0x640"
    }
  ],
  "libraries": [],
  "pending": [],
  "returns": {},
  "timestamp": 1725634925,
  "chain": 84532,
  "commit": "dc78ae4"
}