{
  "transactions": [
    {
      "hash": "0x6b18005c94ef779afd7702f824c28d8fa207be581ac449c6bbc149befe82326f",
      "transactionType": "CALL",
      "contractName": null,
      "contractAddress": "0x651f45d00c1fecbc345f7ee708ffe4ab57aa46f6",
      "function": "setPeer(uint32,bytes32)",
      "arguments": [
        "40232",
        "0x00000000000000000000000026f36a778dbab00b9f9f3ded0dd7ad59c3a7847b"
      ],
      "transaction": {
        "from": "0x12b2434a1022d5787bf06056f2885fe35de62bf8",
        "to": "0x651f45d00c1fecbc345f7ee708ffe4ab57aa46f6",
        "gas": "0x10f66",
        "value": "0x0",
        "input": "0x3400288b0000000000000000000000000000000000000000000000000000000000009d2800000000000000000000000026f36a778dbab00b9f9f3ded0dd7ad59c3a7847b",
        "nonce": "0xaa",
        "chainId": "0x14a34"
      },
      "additionalContracts": [],
      "isFixedGasLimit": false
    },
    {
      "hash": "0x4c8a47e69317a91626bba4030cc3f315ccb15a992ff3bf8bbf8c17adb392907e",
      "transactionType": "CALL",
      "contractName": null,
      "contractAddress": "0x651f45d00c1fecbc345f7ee708ffe4ab57aa46f6",
      "function": "setComposerEid(uint32)",
      "arguments": [
        "40232"
      ],
      "transaction": {
        "from": "0x12b2434a1022d5787bf06056f2885fe35de62bf8",
        "to": "0x651f45d00c1fecbc345f7ee708ffe4ab57aa46f6",
        "gas": "0xf96e",
        "value": "0x0",
        "input": "0xd30fce920000000000000000000000000000000000000000000000000000000000009d28",
        "nonce": "0xab",
        "chainId": "0x14a34"
      },
      "additionalContracts": [],
      "isFixedGasLimit": false
    }
  ],
  "receipts": [
    {
      "status": "0x1",
      "cumulativeGasUsed": "0x1b6e47",
      "logs": [
        {
          "address": "0x651f45d00c1fecbc345f7ee708ffe4ab57aa46f6",
          "topics": [
            "0x238399d427b947898edb290f5ff0f9109849b1c3ba196a42e35f00c50a54b98b"
          ],
          "data": "0x0000000000000000000000000000000000000000000000000000000000009d2800000000000000000000000026f36a778dbab00b9f9f3ded0dd7ad59c3a7847b",
          "blockHash": "0x48c951315b2d2ceef51aac02844d3157f26b880240a1e76783a723d7181f2e18",
          "blockNumber": "0xe35bcd",
          "transactionHash": "0x6b18005c94ef779afd7702f824c28d8fa207be581ac449c6bbc149befe82326f",
          "transactionIndex": "0x8",
          "logIndex": "0x23",
          "removed": false
        }
      ],
      "logsBloom": "0x00000000000000000000000000000000000000000000000000000000000000000000000000000000000000000000100000000000000000000800000000000000000000000000000000000000000000000000000000000000000000000000000000000000000000000000000000000000000000000000000000000000000000000000000000000000000000000000000000000000000000000000000000000000000000000000000000000000000000000000000000000000000002000000000000000000000000000000000000000004000000000000000000040000000000000000000000000000000000000000000000000000000400000000000000000000",
      "type": "0x2",
      "transactionHash": "0x6b18005c94ef779afd7702f824c28d8fa207be581ac449c6bbc149befe82326f",
      "transactionIndex": "0x8",
      "blockHash": "0x48c951315b2d2ceef51aac02844d3157f26b880240a1e76783a723d7181f2e18",
      "blockNumber": "0xe35bcd",
      "gasUsed": "0xb993",
      "effectiveGasPrice": "0xf43b4",
      "blobGasUsed": "0x0",
      "from": "0x12b2434a1022d5787bf06056f2885fe35de62bf8",
      "to": "0x651f45d00c1fecbc345f7ee708ffe4ab57aa46f6",
      "contractAddress": null,
      "l1BaseFeeScalar": "0x44d",
      "l1BlobBaseFee": "0xfe0f2f01d8",
      "l1BlobBaseFeeScalar": "0xa118b",
      "l1Fee": "0x417d6d38e464",
      "l1GasPrice": "0xbc923a31",
      "l1GasUsed": "0x640"
    },
    {
      "status": "0x1",
      "cumulativeGasUsed": "0x1c22dd",
      "logs": [],
      "logsBloom": "0x00000000000000000000000000000000000000000000000000000000000000000000000000000000000000000000000000000000000000000000000000000000000000000000000000000000000000000000000000000000000000000000000000000000000000000000000000000000000000000000000000000000000000000000000000000000000000000000000000000000000000000000000000000000000000000000000000000000000000000000000000000000000000000000000000000000000000000000000000000000000000000000000000000000000000000000000000000000000000000000000000000000000000000000000000000000",
      "type": "0x2",
      "transactionHash": "0x4c8a47e69317a91626bba4030cc3f315ccb15a992ff3bf8bbf8c17adb392907e",
      "transactionIndex": "0x9",
      "blockHash": "0x48c951315b2d2ceef51aac02844d3157f26b880240a1e76783a723d7181f2e18",
      "blockNumber": "0xe35bcd",
      "gasUsed": "0xb496",
      "effectiveGasPrice": "0xf43b4",
      "blobGasUsed": "0x0",
      "from": "0x12b2434a1022d5787bf06056f2885fe35de62bf8",
      "to": "0x651f45d00c1fecbc345f7ee708ffe4ab57aa46f6",
      "contractAddress": null,
      "l1BaseFeeScalar": "0x44d",
      "l1BlobBaseFee": "0xfe0f2f01d8",
      "l1BlobBaseFeeScalar": "0xa118b",
      "l1Fee": "0x417d6d38e464",
      "l1GasPrice": "0xbc923a31",
      "l1GasUsed": "0x640"
    }
  ],
  "libraries": [],
  "pending": [],
  "returns": {},
  "timestamp": 1725568641,
  "chain": 84532,
  "commit": "2f89147"
}